{
  "contractName": "AuditToken",
  "abi": [
    {
      "anonymous": false,
      "inputs": [
        {
          "indexed": false,
          "internalType": "address",
          "name": "user",
          "type": "address"
        }
      ],
      "name": "AddedLock",
      "type": "event"
    },
    {
      "anonymous": false,
      "inputs": [
        {
          "indexed": true,
          "internalType": "address",
          "name": "owner",
          "type": "address"
        },
        {
          "indexed": true,
          "internalType": "address",
          "name": "spender",
          "type": "address"
        },
        {
          "indexed": false,
          "internalType": "uint256",
          "name": "value",
          "type": "uint256"
        }
      ],
      "name": "Approval",
      "type": "event"
    },
    {
      "anonymous": false,
      "inputs": [
        {
          "indexed": true,
          "internalType": "address",
          "name": "delegator",
          "type": "address"
        },
        {
          "indexed": true,
          "internalType": "address",
          "name": "fromDelegate",
          "type": "address"
        },
        {
          "indexed": true,
          "internalType": "address",
          "name": "toDelegate",
          "type": "address"
        }
      ],
      "name": "DelegateChanged",
      "type": "event"
    },
    {
      "anonymous": false,
      "inputs": [
        {
          "indexed": true,
          "internalType": "address",
          "name": "delegate",
          "type": "address"
        },
        {
          "indexed": false,
          "internalType": "uint256",
          "name": "previousBalance",
          "type": "uint256"
        },
        {
          "indexed": false,
          "internalType": "uint256",
          "name": "newBalance",
          "type": "uint256"
        }
      ],
      "name": "DelegateVotesChanged",
      "type": "event"
    },
    {
      "anonymous": false,
      "inputs": [
        {
          "indexed": false,
          "internalType": "address",
          "name": "user",
          "type": "address"
        }
      ],
      "name": "RemovedLock",
      "type": "event"
    },
    {
      "anonymous": false,
      "inputs": [
        {
          "indexed": true,
          "internalType": "bytes32",
          "name": "role",
          "type": "bytes32"
        },
        {
          "indexed": true,
          "internalType": "bytes32",
          "name": "previousAdminRole",
          "type": "bytes32"
        },
        {
          "indexed": true,
          "internalType": "bytes32",
          "name": "newAdminRole",
          "type": "bytes32"
        }
      ],
      "name": "RoleAdminChanged",
      "type": "event"
    },
    {
      "anonymous": false,
      "inputs": [
        {
          "indexed": true,
          "internalType": "bytes32",
          "name": "role",
          "type": "bytes32"
        },
        {
          "indexed": true,
          "internalType": "address",
          "name": "account",
          "type": "address"
        },
        {
          "indexed": true,
          "internalType": "address",
          "name": "sender",
          "type": "address"
        }
      ],
      "name": "RoleGranted",
      "type": "event"
    },
    {
      "anonymous": false,
      "inputs": [
        {
          "indexed": true,
          "internalType": "bytes32",
          "name": "role",
          "type": "bytes32"
        },
        {
          "indexed": true,
          "internalType": "address",
          "name": "account",
          "type": "address"
        },
        {
          "indexed": true,
          "internalType": "address",
          "name": "sender",
          "type": "address"
        }
      ],
      "name": "RoleRevoked",
      "type": "event"
    },
    {
      "anonymous": false,
      "inputs": [
        {
          "indexed": true,
          "internalType": "address",
          "name": "from",
          "type": "address"
        },
        {
          "indexed": true,
          "internalType": "address",
          "name": "to",
          "type": "address"
        },
        {
          "indexed": false,
          "internalType": "uint256",
          "name": "value",
          "type": "uint256"
        }
      ],
      "name": "Transfer",
      "type": "event"
    },
    {
      "inputs": [],
      "name": "CONTROLLER_ROLE",
      "outputs": [
        {
          "internalType": "bytes32",
          "name": "",
          "type": "bytes32"
        }
      ],
      "stateMutability": "view",
      "type": "function"
    },
    {
      "inputs": [],
      "name": "DEFAULT_ADMIN_ROLE",
      "outputs": [
        {
          "internalType": "bytes32",
          "name": "",
          "type": "bytes32"
        }
      ],
      "stateMutability": "view",
      "type": "function"
    },
    {
      "inputs": [],
      "name": "DELEGATION_TYPEHASH",
      "outputs": [
        {
          "internalType": "bytes32",
          "name": "",
          "type": "bytes32"
        }
      ],
      "stateMutability": "view",
      "type": "function"
    },
    {
      "inputs": [],
      "name": "DOMAIN_TYPEHASH",
      "outputs": [
        {
          "internalType": "bytes32",
          "name": "",
          "type": "bytes32"
        }
      ],
      "stateMutability": "view",
      "type": "function"
    },
    {
      "inputs": [],
      "name": "MINTER_ROLE",
      "outputs": [
        {
          "internalType": "bytes32",
          "name": "",
          "type": "bytes32"
        }
      ],
      "stateMutability": "view",
      "type": "function"
    },
    {
      "inputs": [
        {
          "internalType": "address",
          "name": "_user",
          "type": "address"
        }
      ],
      "name": "addLock",
      "outputs": [],
      "stateMutability": "nonpayable",
      "type": "function"
    },
    {
      "inputs": [
        {
          "internalType": "address[]",
          "name": "_users",
          "type": "address[]"
        }
      ],
      "name": "addLockMultiple",
      "outputs": [],
      "stateMutability": "nonpayable",
      "type": "function"
    },
    {
      "inputs": [
        {
          "internalType": "address",
          "name": "owner",
          "type": "address"
        },
        {
          "internalType": "address",
          "name": "spender",
          "type": "address"
        }
      ],
      "name": "allowance",
      "outputs": [
        {
          "internalType": "uint256",
          "name": "",
          "type": "uint256"
        }
      ],
      "stateMutability": "view",
      "type": "function"
    },
    {
      "inputs": [
        {
          "internalType": "address",
          "name": "spender",
          "type": "address"
        },
        {
          "internalType": "uint256",
          "name": "amount",
          "type": "uint256"
        }
      ],
      "name": "approve",
      "outputs": [
        {
          "internalType": "bool",
          "name": "",
          "type": "bool"
        }
      ],
      "stateMutability": "nonpayable",
      "type": "function"
    },
    {
      "inputs": [
        {
          "internalType": "address",
          "name": "account",
          "type": "address"
        }
      ],
      "name": "balanceOf",
      "outputs": [
        {
          "internalType": "uint256",
          "name": "",
          "type": "uint256"
        }
      ],
      "stateMutability": "view",
      "type": "function"
    },
    {
      "inputs": [
        {
          "internalType": "address",
          "name": "",
          "type": "address"
        },
        {
          "internalType": "uint32",
          "name": "",
          "type": "uint32"
        }
      ],
      "name": "checkpoints",
      "outputs": [
        {
          "internalType": "uint32",
          "name": "fromBlock",
          "type": "uint32"
        },
        {
          "internalType": "uint96",
          "name": "votes",
          "type": "uint96"
        }
      ],
      "stateMutability": "view",
      "type": "function"
    },
    {
      "inputs": [],
      "name": "decimals",
      "outputs": [
        {
          "internalType": "uint8",
          "name": "",
          "type": "uint8"
        }
      ],
      "stateMutability": "view",
      "type": "function"
    },
    {
      "inputs": [
        {
          "internalType": "address",
          "name": "spender",
          "type": "address"
        },
        {
          "internalType": "uint256",
          "name": "subtractedValue",
          "type": "uint256"
        }
      ],
      "name": "decreaseAllowance",
      "outputs": [
        {
          "internalType": "bool",
          "name": "",
          "type": "bool"
        }
      ],
      "stateMutability": "nonpayable",
      "type": "function"
    },
    {
      "inputs": [
        {
          "internalType": "address",
          "name": "",
          "type": "address"
        }
      ],
      "name": "delegates",
      "outputs": [
        {
          "internalType": "address",
          "name": "",
          "type": "address"
        }
      ],
      "stateMutability": "view",
      "type": "function"
    },
    {
      "inputs": [
        {
          "internalType": "bytes32",
          "name": "role",
          "type": "bytes32"
        }
      ],
      "name": "getRoleAdmin",
      "outputs": [
        {
          "internalType": "bytes32",
          "name": "",
          "type": "bytes32"
        }
      ],
      "stateMutability": "view",
      "type": "function"
    },
    {
      "inputs": [
        {
          "internalType": "bytes32",
          "name": "role",
          "type": "bytes32"
        },
        {
          "internalType": "uint256",
          "name": "index",
          "type": "uint256"
        }
      ],
      "name": "getRoleMember",
      "outputs": [
        {
          "internalType": "address",
          "name": "",
          "type": "address"
        }
      ],
      "stateMutability": "view",
      "type": "function"
    },
    {
      "inputs": [
        {
          "internalType": "bytes32",
          "name": "role",
          "type": "bytes32"
        }
      ],
      "name": "getRoleMemberCount",
      "outputs": [
        {
          "internalType": "uint256",
          "name": "",
          "type": "uint256"
        }
      ],
      "stateMutability": "view",
      "type": "function"
    },
    {
      "inputs": [
        {
          "internalType": "bytes32",
          "name": "role",
          "type": "bytes32"
        },
        {
          "internalType": "address",
          "name": "account",
          "type": "address"
        }
      ],
      "name": "grantRole",
      "outputs": [],
      "stateMutability": "nonpayable",
      "type": "function"
    },
    {
      "inputs": [
        {
          "internalType": "bytes32",
          "name": "role",
          "type": "bytes32"
        },
        {
          "internalType": "address",
          "name": "account",
          "type": "address"
        }
      ],
      "name": "hasRole",
      "outputs": [
        {
          "internalType": "bool",
          "name": "",
          "type": "bool"
        }
      ],
      "stateMutability": "view",
      "type": "function"
    },
    {
      "inputs": [
        {
          "internalType": "address",
          "name": "spender",
          "type": "address"
        },
        {
          "internalType": "uint256",
          "name": "addedValue",
          "type": "uint256"
        }
      ],
      "name": "increaseAllowance",
      "outputs": [
        {
          "internalType": "bool",
          "name": "",
          "type": "bool"
        }
      ],
      "stateMutability": "nonpayable",
      "type": "function"
    },
    {
      "inputs": [
        {
          "internalType": "address",
          "name": "_user",
          "type": "address"
        }
      ],
      "name": "isLocked",
      "outputs": [
        {
          "internalType": "bool",
          "name": "",
          "type": "bool"
        }
      ],
      "stateMutability": "view",
      "type": "function"
    },
    {
      "inputs": [
        {
          "internalType": "address",
          "name": "",
          "type": "address"
        }
      ],
      "name": "lockedList",
      "outputs": [
        {
          "internalType": "bool",
          "name": "",
          "type": "bool"
        }
      ],
      "stateMutability": "view",
      "type": "function"
    },
    {
      "inputs": [],
      "name": "name",
      "outputs": [
        {
          "internalType": "string",
          "name": "",
          "type": "string"
        }
      ],
      "stateMutability": "view",
      "type": "function"
    },
    {
      "inputs": [
        {
          "internalType": "address",
          "name": "",
          "type": "address"
        }
      ],
      "name": "nonces",
      "outputs": [
        {
          "internalType": "uint256",
          "name": "",
          "type": "uint256"
        }
      ],
      "stateMutability": "view",
      "type": "function"
    },
    {
      "inputs": [
        {
          "internalType": "address",
          "name": "",
          "type": "address"
        }
      ],
      "name": "numCheckpoints",
      "outputs": [
        {
          "internalType": "uint32",
          "name": "",
          "type": "uint32"
        }
      ],
      "stateMutability": "view",
      "type": "function"
    },
    {
      "inputs": [
        {
          "internalType": "address",
          "name": "_user",
          "type": "address"
        }
      ],
      "name": "removeLock",
      "outputs": [],
      "stateMutability": "nonpayable",
      "type": "function"
    },
    {
      "inputs": [
        {
          "internalType": "bytes32",
          "name": "role",
          "type": "bytes32"
        },
        {
          "internalType": "address",
          "name": "account",
          "type": "address"
        }
      ],
      "name": "renounceRole",
      "outputs": [],
      "stateMutability": "nonpayable",
      "type": "function"
    },
    {
      "inputs": [
        {
          "internalType": "bytes32",
          "name": "role",
          "type": "bytes32"
        },
        {
          "internalType": "address",
          "name": "account",
          "type": "address"
        }
      ],
      "name": "revokeRole",
      "outputs": [],
      "stateMutability": "nonpayable",
      "type": "function"
    },
    {
      "inputs": [
        {
          "internalType": "bytes4",
          "name": "interfaceId",
          "type": "bytes4"
        }
      ],
      "name": "supportsInterface",
      "outputs": [
        {
          "internalType": "bool",
          "name": "",
          "type": "bool"
        }
      ],
      "stateMutability": "view",
      "type": "function"
    },
    {
      "inputs": [],
      "name": "symbol",
      "outputs": [
        {
          "internalType": "string",
          "name": "",
          "type": "string"
        }
      ],
      "stateMutability": "view",
      "type": "function"
    },
    {
      "inputs": [],
      "name": "totalSupply",
      "outputs": [
        {
          "internalType": "uint256",
          "name": "",
          "type": "uint256"
        }
      ],
      "stateMutability": "view",
      "type": "function"
    },
    {
      "inputs": [
        {
          "internalType": "address",
          "name": "account",
          "type": "address"
        }
      ],
      "name": "initialize",
      "outputs": [],
      "stateMutability": "nonpayable",
      "type": "function"
    },
    {
      "inputs": [
        {
          "internalType": "address",
          "name": "to",
          "type": "address"
        },
        {
          "internalType": "uint256",
          "name": "value",
          "type": "uint256"
        }
      ],
      "name": "transfer",
      "outputs": [
        {
          "internalType": "bool",
          "name": "",
          "type": "bool"
        }
      ],
      "stateMutability": "nonpayable",
      "type": "function"
    },
    {
      "inputs": [
        {
          "internalType": "address",
          "name": "from",
          "type": "address"
        },
        {
          "internalType": "address",
          "name": "to",
          "type": "address"
        },
        {
          "internalType": "uint256",
          "name": "value",
          "type": "uint256"
        }
      ],
      "name": "transferFrom",
      "outputs": [
        {
          "internalType": "bool",
          "name": "",
          "type": "bool"
        }
      ],
      "stateMutability": "nonpayable",
      "type": "function"
    },
    {
      "inputs": [
        {
          "internalType": "address",
          "name": "to",
          "type": "address"
        },
        {
          "internalType": "uint256",
          "name": "amount",
          "type": "uint256"
        }
      ],
      "name": "mint",
      "outputs": [
        {
          "internalType": "bool",
          "name": "",
          "type": "bool"
        }
      ],
      "stateMutability": "nonpayable",
      "type": "function"
    },
    {
      "inputs": [
        {
          "internalType": "uint256",
          "name": "amount",
          "type": "uint256"
        }
      ],
      "name": "burn",
      "outputs": [],
      "stateMutability": "nonpayable",
      "type": "function"
    },
    {
      "inputs": [
        {
          "internalType": "address",
          "name": "user",
          "type": "address"
        },
        {
          "internalType": "uint256",
          "name": "amount",
          "type": "uint256"
        }
      ],
      "name": "burnFrom",
      "outputs": [],
      "stateMutability": "nonpayable",
      "type": "function"
    },
    {
      "inputs": [
        {
          "internalType": "address",
          "name": "delegatee",
          "type": "address"
        }
      ],
      "name": "delegate",
      "outputs": [],
      "stateMutability": "nonpayable",
      "type": "function"
    },
    {
      "inputs": [
        {
          "internalType": "address",
          "name": "account",
          "type": "address"
        }
      ],
      "name": "getCurrentVotes",
      "outputs": [
        {
          "internalType": "uint96",
          "name": "",
          "type": "uint96"
        }
      ],
      "stateMutability": "view",
      "type": "function"
    },
    {
      "inputs": [
        {
          "internalType": "address",
          "name": "account",
          "type": "address"
        },
        {
          "internalType": "uint256",
          "name": "blockNumber",
          "type": "uint256"
        }
      ],
      "name": "getPriorVotes",
      "outputs": [
        {
          "internalType": "uint96",
          "name": "",
          "type": "uint96"
        }
      ],
      "stateMutability": "view",
      "type": "function"
    }
  ],
  "bytecode": "0x608060405234801561001057600080fd5b5061585980620000216000396000f3fe608060405234801561001057600080fd5b50600436106102485760003560e01c806370a082311161013b578063a457c2d7116100b8578063d53913931161007c578063d5391393146107ab578063d547741f146107c9578063dd62ed3e146107e5578063e7a324dc14610815578063f1127ed81461083357610248565b8063a457c2d7146106cf578063a9059cbb146106ff578063b4b5ea571461072f578063c4d66de81461075f578063ca15c8731461077b57610248565b80638f557373116100ff5780638f557373146106175780639010d07c1461063357806391d148541461066357806395d89b4114610693578063a217fddf146106b157610248565b806370a082311461054f578063782d6fe11461057f57806379cc6790146105af5780637ecebe00146105cb578063882f327b146105fb57610248565b8063313ce567116101c95780634a387bef1161018d5780634a387bef146104875780634a4fbeec146104a3578063587cde1e146104d35780635c19a95c146105035780636fcfff451461051f57610248565b8063313ce567146103d157806336568abe146103ef578063395093511461040b57806340c10f191461043b57806342966c681461046b57610248565b80631a921b3e116102105780631a921b3e1461030757806320606b701461033757806323b872dd14610355578063248a9ca3146103855780632f2ff15d146103b557610248565b806301ffc9a71461024d57806306fdde031461027d578063092c5b3b1461029b578063095ea7b3146102b957806318160ddd146102e9575b600080fd5b61026760048036038101906102629190614463565b610864565b6040516102749190614e7e565b60405180910390f35b6102856108de565b6040516102929190614eb4565b60405180910390f35b6102a3610970565b6040516102b09190614e99565b60405180910390f35b6102d360048036038101906102ce9190614309565b610994565b6040516102e09190614e7e565b60405180910390f35b6102f16109b2565b6040516102fe9190615176565b60405180910390f35b610321600480360381019061031c9190614255565b6109bc565b60405161032e9190614e7e565b60405180910390f35b61033f6109dc565b60405161034c9190614e99565b60405180910390f35b61036f600480360381019061036a91906142ba565b610a00565b60405161037c9190614e7e565b60405180910390f35b61039f600480360381019061039a91906143c2565b610c82565b6040516103ac9190614e99565b60405180910390f35b6103cf60048036038101906103ca91906143eb565b610ca2565b005b6103d9610cd6565b6040516103e691906151d5565b60405180910390f35b610409600480360381019061040491906143eb565b610cdf565b005b61042560048036038101906104209190614309565b610d13565b6040516104329190614e7e565b60405180910390f35b61045560048036038101906104509190614309565b610dbf565b6040516104629190614e7e565b60405180910390f35b6104856004803603810190610480919061448c565b610e3e565b005b6104a1600480360381019061049c9190614255565b610f7a565b005b6104bd60048036038101906104b89190614255565b610fef565b6040516104ca9190614e7e565b60405180910390f35b6104ed60048036038101906104e89190614255565b611045565b6040516104fa9190614e63565b60405180910390f35b61051d60048036038101906105189190614255565b611079565b005b61053960048036038101906105349190614255565b611086565b6040516105469190615191565b60405180910390f35b61056960048036038101906105649190614255565b6110aa565b6040516105769190615176565b60405180910390f35b61059960048036038101906105949190614309565b6110f3565b6040516105a691906151f0565b60405180910390f35b6105c960048036038101906105c49190614309565b611534565b005b6105e560048036038101906105e09190614255565b611672565b6040516105f29190615176565b60405180910390f35b61061560048036038101906106109190614255565b61168b565b005b610631600480360381019061062c9190614381565b611700565b005b61064d60048036038101906106489190614427565b611820565b60405161065a9190614e63565b60405180910390f35b61067d600480360381019061067891906143eb565b61184f565b60405161068a9190614e7e565b60405180910390f35b61069b6118ba565b6040516106a89190614eb4565b60405180910390f35b6106b961194c565b6040516106c69190614e99565b60405180910390f35b6106e960048036038101906106e49190614309565b611953565b6040516106f69190614e7e565b60405180910390f35b61071960048036038101906107149190614309565b611a3e565b6040516107269190614e7e565b60405180910390f35b61074960048036038101906107449190614255565b611cbe565b60405161075691906151f0565b60405180910390f35b61077960048036038101906107749190614255565b611db7565b005b610795600480360381019061079091906143c2565b611eab565b6040516107a29190615176565b60405180910390f35b6107b3611ecf565b6040516107c09190614e99565b60405180910390f35b6107e360048036038101906107de91906143eb565b611ef3565b005b6107ff60048036038101906107fa919061427e565b611f27565b60405161080c9190615176565b60405180910390f35b61081d611fae565b60405161082a9190614e99565b60405180910390f35b61084d60048036038101906108489190614345565b611fd2565b60405161085b9291906151ac565b60405180910390f35b60007f5a05180f000000000000000000000000000000000000000000000000000000007bffffffffffffffffffffffffffffffffffffffffffffffffffffffff1916827bffffffffffffffffffffffffffffffffffffffffffffffffffffffff191614806108d757506108d68261202c565b5b9050919050565b606060cd80546108ed906155d3565b80601f0160208091040260200160405190810160405280929190818152602001828054610919906155d3565b80156109665780601f1061093b57610100808354040283529160200191610966565b820191906000526020600020905b81548152906001019060200180831161094957829003601f168201915b5050505050905090565b7f7b765e0e932d348852a6f810bfa1ab891e259123f02db8cdcde614c57022335781565b60006109a86109a16120a6565b84846120ae565b6001905092915050565b600060cc54905090565b60c96020528060005260406000206000915054906101000a900460ff1681565b7f8cad95687ba82c2ce50e74f7b754645e5117c3a5bec8151c0726d5857980a86681565b60008383610a116000801b8361184f565b610b305760c960008373ffffffffffffffffffffffffffffffffffffffff1673ffffffffffffffffffffffffffffffffffffffff16815260200190815260200160002060009054906101000a900460ff1615610aa2576040517f08c379a0000000000000000000000000000000000000000000000000000000008152600401610a99906150b6565b60405180910390fd5b60c960008273ffffffffffffffffffffffffffffffffffffffff1673ffffffffffffffffffffffffffffffffffffffff16815260200190815260200160002060009054906101000a900460ff1615610b2f576040517f08c379a0000000000000000000000000000000000000000000000000000000008152600401610b26906150b6565b60405180910390fd5b5b843073ffffffffffffffffffffffffffffffffffffffff168173ffffffffffffffffffffffffffffffffffffffff161415610ba0576040517f08c379a0000000000000000000000000000000000000000000000000000000008152600401610b97906150f6565b60405180910390fd5b610c6b61012e60008973ffffffffffffffffffffffffffffffffffffffff1673ffffffffffffffffffffffffffffffffffffffff16815260200190815260200160002060009054906101000a900473ffffffffffffffffffffffffffffffffffffffff1661012e60008973ffffffffffffffffffffffffffffffffffffffff1673ffffffffffffffffffffffffffffffffffffffff16815260200190815260200160002060009054906101000a900473ffffffffffffffffffffffffffffffffffffffff1687612279565b610c7687878761258a565b93505050509392505050565b600060656000838152602001908152602001600020600101549050919050565b610cac8282612682565b610cd181609760008581526020019081526020016000206126ab90919063ffffffff16565b505050565b60006012905090565b610ce982826126db565b610d0e816097600085815260200190815260200160002061275e90919063ffffffff16565b505050565b6000610db5610d206120a6565b848460cb6000610d2e6120a6565b73ffffffffffffffffffffffffffffffffffffffff1673ffffffffffffffffffffffffffffffffffffffff16815260200190815260200160002060008873ffffffffffffffffffffffffffffffffffffffff1673ffffffffffffffffffffffffffffffffffffffff16815260200190815260200160002054610db091906152b8565b6120ae565b6001905092915050565b6000610deb7f9f2df0fed2c77648de5860a4cc508cd0818c85b8b8a1ab4ceeef8d981c8956a63361184f565b610e2a576040517f08c379a0000000000000000000000000000000000000000000000000000000008152600401610e2190614fd6565b60405180910390fd5b610e34838361278e565b6001905092915050565b3333610e4d6000801b8361184f565b610f6c5760c960008373ffffffffffffffffffffffffffffffffffffffff1673ffffffffffffffffffffffffffffffffffffffff16815260200190815260200160002060009054906101000a900460ff1615610ede576040517f08c379a0000000000000000000000000000000000000000000000000000000008152600401610ed5906150b6565b60405180910390fd5b60c960008273ffffffffffffffffffffffffffffffffffffffff1673ffffffffffffffffffffffffffffffffffffffff16815260200190815260200160002060009054906101000a900460ff1615610f6b576040517f08c379a0000000000000000000000000000000000000000000000000000000008152600401610f62906150b6565b60405180910390fd5b5b610f75836128ef565b505050565b610fa47f7b765e0e932d348852a6f810bfa1ab891e259123f02db8cdcde614c5702233573361184f565b610fe3576040517f08c379a0000000000000000000000000000000000000000000000000000000008152600401610fda906150d6565b60405180910390fd5b610fec81612903565b50565b600060c960008373ffffffffffffffffffffffffffffffffffffffff1673ffffffffffffffffffffffffffffffffffffffff16815260200190815260200160002060009054906101000a900460ff169050919050565b61012e6020528060005260406000206000915054906101000a900473ffffffffffffffffffffffffffffffffffffffff1681565b6110833382612995565b50565b6101306020528060005260406000206000915054906101000a900463ffffffff1681565b600060ca60008373ffffffffffffffffffffffffffffffffffffffff1673ffffffffffffffffffffffffffffffffffffffff168152602001908152602001600020549050919050565b6000438210611137576040517f08c379a000000000000000000000000000000000000000000000000000000000815260040161112e90615016565b60405180910390fd5b600061013060008573ffffffffffffffffffffffffffffffffffffffff1673ffffffffffffffffffffffffffffffffffffffff16815260200190815260200160002060009054906101000a900463ffffffff16905060008163ffffffff1614156111a557600091505061152e565b8261012f60008673ffffffffffffffffffffffffffffffffffffffff1673ffffffffffffffffffffffffffffffffffffffff16815260200190815260200160002060006001846111f59190615449565b63ffffffff1663ffffffff16815260200190815260200160002060000160009054906101000a900463ffffffff1663ffffffff16116112bb5761012f60008573ffffffffffffffffffffffffffffffffffffffff1673ffffffffffffffffffffffffffffffffffffffff168152602001908152602001600020600060018361127d9190615449565b63ffffffff1663ffffffff16815260200190815260200160002060000160049054906101000a90046bffffffffffffffffffffffff1691505061152e565b8261012f60008673ffffffffffffffffffffffffffffffffffffffff1673ffffffffffffffffffffffffffffffffffffffff16815260200190815260200160002060008063ffffffff16815260200190815260200160002060000160009054906101000a900463ffffffff1663ffffffff16111561133d57600091505061152e565b60008060018361134d9190615449565b90505b8163ffffffff168163ffffffff1611156114af576000600283836113749190615449565b61137e919061538a565b826113899190615449565b9050600061012f60008973ffffffffffffffffffffffffffffffffffffffff1673ffffffffffffffffffffffffffffffffffffffff16815260200190815260200160002060008363ffffffff1663ffffffff1681526020019081526020016000206040518060400160405290816000820160009054906101000a900463ffffffff1663ffffffff1663ffffffff1681526020016000820160049054906101000a90046bffffffffffffffffffffffff166bffffffffffffffffffffffff166bffffffffffffffffffffffff1681525050905086816000015163ffffffff16141561147e5780602001519550505050505061152e565b86816000015163ffffffff161015611498578193506114a8565b6001826114a59190615449565b92505b5050611350565b61012f60008773ffffffffffffffffffffffffffffffffffffffff1673ffffffffffffffffffffffffffffffffffffffff16815260200190815260200160002060008363ffffffff1663ffffffff16815260200190815260200160002060000160049054906101000a90046bffffffffffffffffffffffff1693505050505b92915050565b33336115436000801b8361184f565b6116625760c960008373ffffffffffffffffffffffffffffffffffffffff1673ffffffffffffffffffffffffffffffffffffffff16815260200190815260200160002060009054906101000a900460ff16156115d4576040517f08c379a00000000000000000000000000000000000000000000000000000000081526004016115cb906150b6565b60405180910390fd5b60c960008273ffffffffffffffffffffffffffffffffffffffff1673ffffffffffffffffffffffffffffffffffffffff16815260200190815260200160002060009054906101000a900460ff1615611661576040517f08c379a0000000000000000000000000000000000000000000000000000000008152600401611658906150b6565b60405180910390fd5b5b61166c8484612b08565b50505050565b6101316020528060005260406000206000915090505481565b6116b57f7b765e0e932d348852a6f810bfa1ab891e259123f02db8cdcde614c5702233573361184f565b6116f4576040517f08c379a00000000000000000000000000000000000000000000000000000000081526004016116eb906150d6565b60405180910390fd5b6116fd81612b83565b50565b61172a7f7b765e0e932d348852a6f810bfa1ab891e259123f02db8cdcde614c5702233573361184f565b611769576040517f08c379a0000000000000000000000000000000000000000000000000000000008152600401611760906150d6565b60405180910390fd5b6000815190506101008111156117b4576040517f08c379a00000000000000000000000000000000000000000000000000000000081526004016117ab90614f56565b60405180910390fd5b60005b8181101561181b576118088382815181106117fb577f4e487b7100000000000000000000000000000000000000000000000000000000600052603260045260246000fd5b6020026020010151612b83565b808061181390615605565b9150506117b7565b505050565b60006118478260976000868152602001908152602001600020612c1590919063ffffffff16565b905092915050565b60006065600084815260200190815260200160002060000160008373ffffffffffffffffffffffffffffffffffffffff1673ffffffffffffffffffffffffffffffffffffffff16815260200190815260200160002060009054906101000a900460ff16905092915050565b606060ce80546118c9906155d3565b80601f01602080910402602001604051908101604052809291908181526020018280546118f5906155d3565b80156119425780601f1061191757610100808354040283529160200191611942565b820191906000526020600020905b81548152906001019060200180831161192557829003601f168201915b5050505050905090565b6000801b81565b60008060cb60006119626120a6565b73ffffffffffffffffffffffffffffffffffffffff1673ffffffffffffffffffffffffffffffffffffffff16815260200190815260200160002060008573ffffffffffffffffffffffffffffffffffffffff1673ffffffffffffffffffffffffffffffffffffffff16815260200190815260200160002054905082811015611a1f576040517f08c379a0000000000000000000000000000000000000000000000000000000008152600401611a1690615116565b60405180910390fd5b611a33611a2a6120a6565b858584036120ae565b600191505092915050565b60003383611a4f6000801b8361184f565b611b6e5760c960008373ffffffffffffffffffffffffffffffffffffffff1673ffffffffffffffffffffffffffffffffffffffff16815260200190815260200160002060009054906101000a900460ff1615611ae0576040517f08c379a0000000000000000000000000000000000000000000000000000000008152600401611ad7906150b6565b60405180910390fd5b60c960008273ffffffffffffffffffffffffffffffffffffffff1673ffffffffffffffffffffffffffffffffffffffff16815260200190815260200160002060009054906101000a900460ff1615611b6d576040517f08c379a0000000000000000000000000000000000000000000000000000000008152600401611b64906150b6565b60405180910390fd5b5b843073ffffffffffffffffffffffffffffffffffffffff168173ffffffffffffffffffffffffffffffffffffffff161415611bde576040517f08c379a0000000000000000000000000000000000000000000000000000000008152600401611bd5906150f6565b60405180910390fd5b611ca961012e60003373ffffffffffffffffffffffffffffffffffffffff1673ffffffffffffffffffffffffffffffffffffffff16815260200190815260200160002060009054906101000a900473ffffffffffffffffffffffffffffffffffffffff1661012e60008973ffffffffffffffffffffffffffffffffffffffff1673ffffffffffffffffffffffffffffffffffffffff16815260200190815260200160002060009054906101000a900473ffffffffffffffffffffffffffffffffffffffff1687612279565b611cb38686612c2f565b935050505092915050565b60008061013060008473ffffffffffffffffffffffffffffffffffffffff1673ffffffffffffffffffffffffffffffffffffffff16815260200190815260200160002060009054906101000a900463ffffffff16905060008163ffffffff1611611d29576000611daf565b61012f60008473ffffffffffffffffffffffffffffffffffffffff1673ffffffffffffffffffffffffffffffffffffffff1681526020019081526020016000206000600183611d789190615449565b63ffffffff1663ffffffff16815260200190815260200160002060000160049054906101000a90046bffffffffffffffffffffffff165b915050919050565b611e2b6040518060400160405280600a81526020017f4175646974636861696e000000000000000000000000000000000000000000008152506040518060400160405280600481526020017f4155445400000000000000000000000000000000000000000000000000000000815250612c4d565b600073ffffffffffffffffffffffffffffffffffffffff168173ffffffffffffffffffffffffffffffffffffffff161415611e9b576040517f08c379a0000000000000000000000000000000000000000000000000000000008152600401611e9290614f96565b60405180910390fd5b611ea86000801b82612d3a565b50565b6000611ec860976000848152602001908152602001600020612d6e565b9050919050565b7f9f2df0fed2c77648de5860a4cc508cd0818c85b8b8a1ab4ceeef8d981c8956a681565b611efd8282612d83565b611f22816097600085815260200190815260200160002061275e90919063ffffffff16565b505050565b600060cb60008473ffffffffffffffffffffffffffffffffffffffff1673ffffffffffffffffffffffffffffffffffffffff16815260200190815260200160002060008373ffffffffffffffffffffffffffffffffffffffff1673ffffffffffffffffffffffffffffffffffffffff16815260200190815260200160002054905092915050565b7fe48329057bfd03d55e49b547132e39cffd9c1820ad7b9d4c5307691425d15adf81565b61012f602052816000526040600020602052806000526040600020600091509150508060000160009054906101000a900463ffffffff16908060000160049054906101000a90046bffffffffffffffffffffffff16905082565b60007f7965db0b000000000000000000000000000000000000000000000000000000007bffffffffffffffffffffffffffffffffffffffffffffffffffffffff1916827bffffffffffffffffffffffffffffffffffffffffffffffffffffffff1916148061209f575061209e82612dac565b5b9050919050565b600033905090565b600073ffffffffffffffffffffffffffffffffffffffff168373ffffffffffffffffffffffffffffffffffffffff16141561211e576040517f08c379a000000000000000000000000000000000000000000000000000000000815260040161211590615096565b60405180910390fd5b600073ffffffffffffffffffffffffffffffffffffffff168273ffffffffffffffffffffffffffffffffffffffff16141561218e576040517f08c379a000000000000000000000000000000000000000000000000000000000815260040161218590614f36565b60405180910390fd5b8060cb60008573ffffffffffffffffffffffffffffffffffffffff1673ffffffffffffffffffffffffffffffffffffffff16815260200190815260200160002060008473ffffffffffffffffffffffffffffffffffffffff1673ffffffffffffffffffffffffffffffffffffffff168152602001908152602001600020819055508173ffffffffffffffffffffffffffffffffffffffff168373ffffffffffffffffffffffffffffffffffffffff167f8c5be1e5ebec7d5bd14f71427d1e84f3dd0314c0f7b2291e5b200ac8c7c3b9258360405161226c9190615176565b60405180910390a3505050565b8173ffffffffffffffffffffffffffffffffffffffff168373ffffffffffffffffffffffffffffffffffffffff16141580156122c357506000816bffffffffffffffffffffffff16115b1561258557600073ffffffffffffffffffffffffffffffffffffffff168373ffffffffffffffffffffffffffffffffffffffff161461242657600061013060008573ffffffffffffffffffffffffffffffffffffffff1673ffffffffffffffffffffffffffffffffffffffff16815260200190815260200160002060009054906101000a900463ffffffff1690506000808263ffffffff16116123675760006123ed565b61012f60008673ffffffffffffffffffffffffffffffffffffffff1673ffffffffffffffffffffffffffffffffffffffff16815260200190815260200160002060006001846123b69190615449565b63ffffffff1663ffffffff16815260200190815260200160002060000160049054906101000a90046bffffffffffffffffffffffff165b9050600061241482856040518060600160405280602e815260200161578f602e9139612e16565b905061242286848484612e90565b5050505b600073ffffffffffffffffffffffffffffffffffffffff168273ffffffffffffffffffffffffffffffffffffffff161461258457600061013060008473ffffffffffffffffffffffffffffffffffffffff1673ffffffffffffffffffffffffffffffffffffffff16815260200190815260200160002060009054906101000a900463ffffffff1690506000808263ffffffff16116124c557600061254b565b61012f60008573ffffffffffffffffffffffffffffffffffffffff1673ffffffffffffffffffffffffffffffffffffffff16815260200190815260200160002060006001846125149190615449565b63ffffffff1663ffffffff16815260200190815260200160002060000160049054906101000a90046bffffffffffffffffffffffff165b9050600061257282856040518060600160405280602d81526020016157f7602d91396131a2565b905061258085848484612e90565b5050505b5b505050565b6000612597848484613221565b600060cb60008673ffffffffffffffffffffffffffffffffffffffff1673ffffffffffffffffffffffffffffffffffffffff16815260200190815260200160002060006125e26120a6565b73ffffffffffffffffffffffffffffffffffffffff1673ffffffffffffffffffffffffffffffffffffffff16815260200190815260200160002054905082811015612662576040517f08c379a000000000000000000000000000000000000000000000000000000000815260040161265990614ff6565b60405180910390fd5b6126768561266e6120a6565b8584036120ae565b60019150509392505050565b61268b82610c82565b61269c816126976120a6565b6134a5565b6126a68383613542565b505050565b60006126d3836000018373ffffffffffffffffffffffffffffffffffffffff1660001b613623565b905092915050565b6126e36120a6565b73ffffffffffffffffffffffffffffffffffffffff168173ffffffffffffffffffffffffffffffffffffffff1614612750576040517f08c379a000000000000000000000000000000000000000000000000000000000815260040161274790615136565b60405180910390fd5b61275a8282613693565b5050565b6000612786836000018373ffffffffffffffffffffffffffffffffffffffff1660001b613775565b905092915050565b600073ffffffffffffffffffffffffffffffffffffffff168273ffffffffffffffffffffffffffffffffffffffff1614156127fe576040517f08c379a00000000000000000000000000000000000000000000000000000000081526004016127f590615156565b60405180910390fd5b61280a600083836138fb565b8060cc600082825461281c91906152b8565b925050819055508060ca60008473ffffffffffffffffffffffffffffffffffffffff1673ffffffffffffffffffffffffffffffffffffffff168152602001908152602001600020600082825461287291906152b8565b925050819055508173ffffffffffffffffffffffffffffffffffffffff16600073ffffffffffffffffffffffffffffffffffffffff167fddf252ad1be2c89b69c2b068fc378daa952ba7f163c4a11628f55a4df523b3ef836040516128d79190615176565b60405180910390a36128eb6000838361390b565b5050565b6129006128fa6120a6565b82613910565b50565b600060c960008373ffffffffffffffffffffffffffffffffffffffff1673ffffffffffffffffffffffffffffffffffffffff16815260200190815260200160002060006101000a81548160ff0219169083151502179055507f6134e30ca79f58d7566528b3768c7d33c9c30815c63cfeae3b69f52cf31dd61a8160405161298a9190614e63565b60405180910390a150565b600061012e60008473ffffffffffffffffffffffffffffffffffffffff1673ffffffffffffffffffffffffffffffffffffffff16815260200190815260200160002060009054906101000a900473ffffffffffffffffffffffffffffffffffffffff1690506000612a05846110aa565b90508261012e60008673ffffffffffffffffffffffffffffffffffffffff1673ffffffffffffffffffffffffffffffffffffffff16815260200190815260200160002060006101000a81548173ffffffffffffffffffffffffffffffffffffffff021916908373ffffffffffffffffffffffffffffffffffffffff1602179055508273ffffffffffffffffffffffffffffffffffffffff168273ffffffffffffffffffffffffffffffffffffffff168573ffffffffffffffffffffffffffffffffffffffff167f3134e8a2e6d97e929a7e54011ea5485d7d196dd5f0ba4d4ef95803e8e3fc257f60405160405180910390a4612b02828483612279565b50505050565b6000612b1b83612b166120a6565b611f27565b905081811015612b60576040517f08c379a0000000000000000000000000000000000000000000000000000000008152600401612b5790615036565b60405180910390fd5b612b7483612b6c6120a6565b8484036120ae565b612b7e8383613910565b505050565b600160c960008373ffffffffffffffffffffffffffffffffffffffff1673ffffffffffffffffffffffffffffffffffffffff16815260200190815260200160002060006101000a81548160ff0219169083151502179055507f1b6f28dfffb89ba40ba9067329c3c0e8bd926256b970cf7d060cd48b1cd0e44e81604051612c0a9190614e63565b60405180910390a150565b6000612c248360000183613ae9565b60001c905092915050565b6000612c43612c3c6120a6565b8484613221565b6001905092915050565b600060019054906101000a900460ff1680612c73575060008054906101000a900460ff16155b612cb2576040517f08c379a0000000000000000000000000000000000000000000000000000000008152600401612ca990614fb6565b60405180910390fd5b60008060019054906101000a900460ff161590508015612d02576001600060016101000a81548160ff02191690831515021790555060016000806101000a81548160ff0219169083151502179055505b612d0a613b3a565b612d148383613c13565b8015612d355760008060016101000a81548160ff0219169083151502179055505b505050565b612d448282613d1c565b612d6981609760008581526020019081526020016000206126ab90919063ffffffff16565b505050565b6000612d7c82600001613d2a565b9050919050565b612d8c82610c82565b612d9d81612d986120a6565b6134a5565b612da78383613693565b505050565b60007f01ffc9a7000000000000000000000000000000000000000000000000000000007bffffffffffffffffffffffffffffffffffffffffffffffffffffffff1916827bffffffffffffffffffffffffffffffffffffffffffffffffffffffff1916149050919050565b6000836bffffffffffffffffffffffff16836bffffffffffffffffffffffff1611158290612e7a576040517f08c379a0000000000000000000000000000000000000000000000000000000008152600401612e719190614eb4565b60405180910390fd5b508284612e87919061547d565b90509392505050565b6000612eb4436040518060600160405280603a81526020016157bd603a9139613d3b565b905060008463ffffffff16118015612f5357508063ffffffff1661012f60008773ffffffffffffffffffffffffffffffffffffffff1673ffffffffffffffffffffffffffffffffffffffff1681526020019081526020016000206000600187612f1d9190615449565b63ffffffff1663ffffffff16815260200190815260200160002060000160009054906101000a900463ffffffff1663ffffffff16145b15612ff8578161012f60008773ffffffffffffffffffffffffffffffffffffffff1673ffffffffffffffffffffffffffffffffffffffff1681526020019081526020016000206000600187612fa89190615449565b63ffffffff1663ffffffff16815260200190815260200160002060000160046101000a8154816bffffffffffffffffffffffff02191690836bffffffffffffffffffffffff16021790555061314b565b60405180604001604052808263ffffffff168152602001836bffffffffffffffffffffffff1681525061012f60008773ffffffffffffffffffffffffffffffffffffffff1673ffffffffffffffffffffffffffffffffffffffff16815260200190815260200160002060008663ffffffff1663ffffffff16815260200190815260200160002060008201518160000160006101000a81548163ffffffff021916908363ffffffff16021790555060208201518160000160046101000a8154816bffffffffffffffffffffffff02191690836bffffffffffffffffffffffff1602179055509050506001846130ec919061530e565b61013060008773ffffffffffffffffffffffffffffffffffffffff1673ffffffffffffffffffffffffffffffffffffffff16815260200190815260200160002060006101000a81548163ffffffff021916908363ffffffff1602179055505b8473ffffffffffffffffffffffffffffffffffffffff167fdec2bacdd2f05b59de34da9b523dff8be42e5e38e818c82fdb0bae774387a724848460405161319392919061520b565b60405180910390a25050505050565b60008083856131b19190615348565b9050846bffffffffffffffffffffffff16816bffffffffffffffffffffffff1610158390613215576040517f08c379a000000000000000000000000000000000000000000000000000000000815260040161320c9190614eb4565b60405180910390fd5b50809150509392505050565b600073ffffffffffffffffffffffffffffffffffffffff168373ffffffffffffffffffffffffffffffffffffffff161415613291576040517f08c379a000000000000000000000000000000000000000000000000000000000815260040161328890615076565b60405180910390fd5b600073ffffffffffffffffffffffffffffffffffffffff168273ffffffffffffffffffffffffffffffffffffffff161415613301576040517f08c379a00000000000000000000000000000000000000000000000000000000081526004016132f890614ef6565b60405180910390fd5b61330c8383836138fb565b600060ca60008573ffffffffffffffffffffffffffffffffffffffff1673ffffffffffffffffffffffffffffffffffffffff16815260200190815260200160002054905081811015613393576040517f08c379a000000000000000000000000000000000000000000000000000000000815260040161338a90614f76565b60405180910390fd5b81810360ca60008673ffffffffffffffffffffffffffffffffffffffff1673ffffffffffffffffffffffffffffffffffffffff168152602001908152602001600020819055508160ca60008573ffffffffffffffffffffffffffffffffffffffff1673ffffffffffffffffffffffffffffffffffffffff168152602001908152602001600020600082825461342891906152b8565b925050819055508273ffffffffffffffffffffffffffffffffffffffff168473ffffffffffffffffffffffffffffffffffffffff167fddf252ad1be2c89b69c2b068fc378daa952ba7f163c4a11628f55a4df523b3ef8460405161348c9190615176565b60405180910390a361349f84848461390b565b50505050565b6134af828261184f565b61353e576134d48173ffffffffffffffffffffffffffffffffffffffff166014613d91565b6134e28360001c6020613d91565b6040516020016134f3929190614e29565b6040516020818303038152906040526040517f08c379a00000000000000000000000000000000000000000000000000000000081526004016135359190614eb4565b60405180910390fd5b5050565b61354c828261184f565b61361f5760016065600084815260200190815260200160002060000160008373ffffffffffffffffffffffffffffffffffffffff1673ffffffffffffffffffffffffffffffffffffffff16815260200190815260200160002060006101000a81548160ff0219169083151502179055506135c46120a6565b73ffffffffffffffffffffffffffffffffffffffff168173ffffffffffffffffffffffffffffffffffffffff16837f2f8788117e7eff1d82e926ec794901d17c78024a50270940304540a733656f0d60405160405180910390a45b5050565b600061362f838361408b565b61368857826000018290806001815401808255809150506001900390600052602060002001600090919091909150558260000180549050836001016000848152602001908152602001600020819055506001905061368d565b600090505b92915050565b61369d828261184f565b156137715760006065600084815260200190815260200160002060000160008373ffffffffffffffffffffffffffffffffffffffff1673ffffffffffffffffffffffffffffffffffffffff16815260200190815260200160002060006101000a81548160ff0219169083151502179055506137166120a6565b73ffffffffffffffffffffffffffffffffffffffff168173ffffffffffffffffffffffffffffffffffffffff16837ff6391f5c32d9c69d2a47ea670b442974b53935d1edc7fd64eb21e047a839171b60405160405180910390a45b5050565b600080836001016000848152602001908152602001600020549050600081146138ef5760006001826137a79190615415565b90506000600186600001805490506137bf9190615415565b905081811461387a576000866000018281548110613806577f4e487b7100000000000000000000000000000000000000000000000000000000600052603260045260246000fd5b9060005260206000200154905080876000018481548110613850577f4e487b7100000000000000000000000000000000000000000000000000000000600052603260045260246000fd5b90600052602060002001819055508387600101600083815260200190815260200160002081905550505b856000018054806138b4577f4e487b7100000000000000000000000000000000000000000000000000000000600052603160045260246000fd5b6001900381819060005260206000200160009055905585600101600086815260200190815260200160002060009055600193505050506138f5565b60009150505b92915050565b6139068383836140ae565b505050565b505050565b600073ffffffffffffffffffffffffffffffffffffffff168273ffffffffffffffffffffffffffffffffffffffff161415613980576040517f08c379a000000000000000000000000000000000000000000000000000000000815260040161397790615056565b60405180910390fd5b61398c826000836138fb565b600060ca60008473ffffffffffffffffffffffffffffffffffffffff1673ffffffffffffffffffffffffffffffffffffffff16815260200190815260200160002054905081811015613a13576040517f08c379a0000000000000000000000000000000000000000000000000000000008152600401613a0a90614f16565b60405180910390fd5b81810360ca60008573ffffffffffffffffffffffffffffffffffffffff1673ffffffffffffffffffffffffffffffffffffffff168152602001908152602001600020819055508160cc6000828254613a6b9190615415565b92505081905550600073ffffffffffffffffffffffffffffffffffffffff168373ffffffffffffffffffffffffffffffffffffffff167fddf252ad1be2c89b69c2b068fc378daa952ba7f163c4a11628f55a4df523b3ef84604051613ad09190615176565b60405180910390a3613ae48360008461390b565b505050565b6000826000018281548110613b27577f4e487b7100000000000000000000000000000000000000000000000000000000600052603260045260246000fd5b9060005260206000200154905092915050565b600060019054906101000a900460ff1680613b60575060008054906101000a900460ff16155b613b9f576040517f08c379a0000000000000000000000000000000000000000000000000000000008152600401613b9690614fb6565b60405180910390fd5b60008060019054906101000a900460ff161590508015613bef576001600060016101000a81548160ff02191690831515021790555060016000806101000a81548160ff0219169083151502179055505b8015613c105760008060016101000a81548160ff0219169083151502179055505b50565b600060019054906101000a900460ff1680613c39575060008054906101000a900460ff16155b613c78576040517f08c379a0000000000000000000000000000000000000000000000000000000008152600401613c6f90614fb6565b60405180910390fd5b60008060019054906101000a900460ff161590508015613cc8576001600060016101000a81548160ff02191690831515021790555060016000806101000a81548160ff0219169083151502179055505b8260cd9080519060200190613cde9291906140b3565b508160ce9080519060200190613cf59291906140b3565b508015613d175760008060016101000a81548160ff0219169083151502179055505b505050565b613d268282613542565b5050565b600081600001805490509050919050565b600064010000000083108290613d87576040517f08c379a0000000000000000000000000000000000000000000000000000000008152600401613d7e9190614eb4565b60405180910390fd5b5082905092915050565b606060006002836002613da491906153bb565b613dae91906152b8565b67ffffffffffffffff811115613ded577f4e487b7100000000000000000000000000000000000000000000000000000000600052604160045260246000fd5b6040519080825280601f01601f191660200182016040528015613e1f5781602001600182028036833780820191505090505b5090507f300000000000000000000000000000000000000000000000000000000000000081600081518110613e7d577f4e487b7100000000000000000000000000000000000000000000000000000000600052603260045260246000fd5b60200101907effffffffffffffffffffffffffffffffffffffffffffffffffffffffffffff1916908160001a9053507f780000000000000000000000000000000000000000000000000000000000000081600181518110613f07577f4e487b7100000000000000000000000000000000000000000000000000000000600052603260045260246000fd5b60200101907effffffffffffffffffffffffffffffffffffffffffffffffffffffffffffff1916908160001a90535060006001846002613f4791906153bb565b613f5191906152b8565b90505b600181111561403d577f3031323334353637383961626364656600000000000000000000000000000000600f861660108110613fb9577f4e487b7100000000000000000000000000000000000000000000000000000000600052603260045260246000fd5b1a60f81b828281518110613ff6577f4e487b7100000000000000000000000000000000000000000000000000000000600052603260045260246000fd5b60200101907effffffffffffffffffffffffffffffffffffffffffffffffffffffffffffff1916908160001a905350600485901c945080614036906155a9565b9050613f54565b5060008414614081576040517f08c379a000000000000000000000000000000000000000000000000000000000815260040161407890614ed6565b60405180910390fd5b8091505092915050565b600080836001016000848152602001908152602001600020541415905092915050565b505050565b8280546140bf906155d3565b90600052602060002090601f0160209004810192826140e15760008555614128565b82601f106140fa57805160ff1916838001178555614128565b82800160010185558215614128579182015b8281111561412757825182559160200191906001019061410c565b5b5090506141359190614139565b5090565b5b8082111561415257600081600090555060010161413a565b5090565b600061416961416484615265565b615234565b9050808382526020820190508285602086028201111561418857600080fd5b60005b858110156141b8578161419e88826141c2565b84526020840193506020830192505060018101905061418b565b5050509392505050565b6000813590506141d18161571b565b92915050565b600082601f8301126141e857600080fd5b81356141f8848260208601614156565b91505092915050565b60008135905061421081615732565b92915050565b60008135905061422581615749565b92915050565b60008135905061423a81615760565b92915050565b60008135905061424f81615777565b92915050565b60006020828403121561426757600080fd5b6000614275848285016141c2565b91505092915050565b6000806040838503121561429157600080fd5b600061429f858286016141c2565b92505060206142b0858286016141c2565b9150509250929050565b6000806000606084860312156142cf57600080fd5b60006142dd868287016141c2565b93505060206142ee868287016141c2565b92505060406142ff8682870161422b565b9150509250925092565b6000806040838503121561431c57600080fd5b600061432a858286016141c2565b925050602061433b8582860161422b565b9150509250929050565b6000806040838503121561435857600080fd5b6000614366858286016141c2565b925050602061437785828601614240565b9150509250929050565b60006020828403121561439357600080fd5b600082013567ffffffffffffffff8111156143ad57600080fd5b6143b9848285016141d7565b91505092915050565b6000602082840312156143d457600080fd5b60006143e284828501614201565b91505092915050565b600080604083850312156143fe57600080fd5b600061440c85828601614201565b925050602061441d858286016141c2565b9150509250929050565b6000806040838503121561443a57600080fd5b600061444885828601614201565b92505060206144598582860161422b565b9150509250929050565b60006020828403121561447557600080fd5b600061448384828501614216565b91505092915050565b60006020828403121561449e57600080fd5b60006144ac8482850161422b565b91505092915050565b6144be816154b1565b82525050565b6144cd816154c3565b82525050565b6144dc816154cf565b82525050565b60006144ed82615291565b6144f7818561529c565b9350614507818560208601615576565b6145108161570a565b840191505092915050565b600061452682615291565b61453081856152ad565b9350614540818560208601615576565b80840191505092915050565b600061455960208361529c565b91507f537472696e67733a20686578206c656e67746820696e73756666696369656e746000830152602082019050919050565b600061459960238361529c565b91507f45524332303a207472616e7366657220746f20746865207a65726f206164647260008301527f65737300000000000000000000000000000000000000000000000000000000006020830152604082019050919050565b60006145ff60228361529c565b91507f45524332303a206275726e20616d6f756e7420657863656564732062616c616e60008301527f63650000000000000000000000000000000000000000000000000000000000006020830152604082019050919050565b600061466560228361529c565b91507f45524332303a20617070726f766520746f20746865207a65726f20616464726560008301527f73730000000000000000000000000000000000000000000000000000000000006020830152604082019050919050565b60006146cb60258361529c565b91507f4c6f636b65642d6164644c6f636b4d756c7469706c653a204c69737420746f6f60008301527f206c6f6e670000000000000000000000000000000000000000000000000000006020830152604082019050919050565b600061473160268361529c565b91507f45524332303a207472616e7366657220616d6f756e742065786365656473206260008301527f616c616e636500000000000000000000000000000000000000000000000000006020830152604082019050919050565b6000614797602a8361529c565b91507f4175646974546f6b656e3a696e697469616c697a65202d20416464726573732060008301527f63616e27742062652030000000000000000000000000000000000000000000006020830152604082019050919050565b60006147fd602e8361529c565b91507f496e697469616c697a61626c653a20636f6e747261637420697320616c72656160008301527f647920696e697469616c697a65640000000000000000000000000000000000006020830152604082019050919050565b600061486360298361529c565b91507f4c6f636b65643a3a69734d696e746572202d2043616c6c6572206973206e6f7460008301527f2061206d696e74657200000000000000000000000000000000000000000000006020830152604082019050919050565b60006148c960288361529c565b91507f45524332303a207472616e7366657220616d6f756e742065786365656473206160008301527f6c6c6f77616e63650000000000000000000000000000000000000000000000006020830152604082019050919050565b600061492f602d8361529c565b91507f6175646974546f6b656e3a3a6765745072696f72566f7465733a206e6f74207960008301527f65742064657465726d696e6564000000000000000000000000000000000000006020830152604082019050919050565b600061499560248361529c565b91507f45524332303a206275726e20616d6f756e74206578636565647320616c6c6f7760008301527f616e6365000000000000000000000000000000000000000000000000000000006020830152604082019050919050565b60006149fb60218361529c565b91507f45524332303a206275726e2066726f6d20746865207a65726f2061646472657360008301527f73000000000000000000000000000000000000000000000000000000000000006020830152604082019050919050565b6000614a6160258361529c565b91507f45524332303a207472616e736665722066726f6d20746865207a65726f20616460008301527f64726573730000000000000000000000000000000000000000000000000000006020830152604082019050919050565b6000614ac760248361529c565b91507f45524332303a20617070726f76652066726f6d20746865207a65726f2061646460008301527f72657373000000000000000000000000000000000000000000000000000000006020830152604082019050919050565b6000614b2d60248361529c565b91507f4c6f636b65643a3a69734e6f744c6f636b6564202d2055736572206973206c6f60008301527f636b6564000000000000000000000000000000000000000000000000000000006020830152604082019050919050565b6000614b9360318361529c565b91507f4c6f636b65643a3a6973436f6e74726f6c6c6572202d2043616c6c657220697360008301527f206e6f74206120636f6e74726f6c6c65720000000000000000000000000000006020830152604082019050919050565b6000614bf96017836152ad565b91507f416363657373436f6e74726f6c3a206163636f756e74200000000000000000006000830152601782019050919050565b6000614c3960348361529c565b91507f596f752061726520747279696e6720746f2073656e6420746f6b656e7320746f60008301527f207468697320746f6b656e20636f6e74726163740000000000000000000000006020830152604082019050919050565b6000614c9f60258361529c565b91507f45524332303a2064656372656173656420616c6c6f77616e63652062656c6f7760008301527f207a65726f0000000000000000000000000000000000000000000000000000006020830152604082019050919050565b6000614d056011836152ad565b91507f206973206d697373696e6720726f6c65200000000000000000000000000000006000830152601182019050919050565b6000614d45602f8361529c565b91507f416363657373436f6e74726f6c3a2063616e206f6e6c792072656e6f756e636560008301527f20726f6c657320666f722073656c6600000000000000000000000000000000006020830152604082019050919050565b6000614dab601f8361529c565b91507f45524332303a206d696e7420746f20746865207a65726f2061646472657373006000830152602082019050919050565b614de781615525565b82525050565b614df68161552f565b82525050565b614e058161553f565b82525050565b614e1481615564565b82525050565b614e238161554c565b82525050565b6000614e3482614bec565b9150614e40828561451b565b9150614e4b82614cf8565b9150614e57828461451b565b91508190509392505050565b6000602082019050614e7860008301846144b5565b92915050565b6000602082019050614e9360008301846144c4565b92915050565b6000602082019050614eae60008301846144d3565b92915050565b60006020820190508181036000830152614ece81846144e2565b905092915050565b60006020820190508181036000830152614eef8161454c565b9050919050565b60006020820190508181036000830152614f0f8161458c565b9050919050565b60006020820190508181036000830152614f2f816145f2565b9050919050565b60006020820190508181036000830152614f4f81614658565b9050919050565b60006020820190508181036000830152614f6f816146be565b9050919050565b60006020820190508181036000830152614f8f81614724565b9050919050565b60006020820190508181036000830152614faf8161478a565b9050919050565b60006020820190508181036000830152614fcf816147f0565b9050919050565b60006020820190508181036000830152614fef81614856565b9050919050565b6000602082019050818103600083015261500f816148bc565b9050919050565b6000602082019050818103600083015261502f81614922565b9050919050565b6000602082019050818103600083015261504f81614988565b9050919050565b6000602082019050818103600083015261506f816149ee565b9050919050565b6000602082019050818103600083015261508f81614a54565b9050919050565b600060208201905081810360008301526150af81614aba565b9050919050565b600060208201905081810360008301526150cf81614b20565b9050919050565b600060208201905081810360008301526150ef81614b86565b9050919050565b6000602082019050818103600083015261510f81614c2c565b9050919050565b6000602082019050818103600083015261512f81614c92565b9050919050565b6000602082019050818103600083015261514f81614d38565b9050919050565b6000602082019050818103600083015261516f81614d9e565b9050919050565b600060208201905061518b6000830184614dde565b92915050565b60006020820190506151a66000830184614ded565b92915050565b60006040820190506151c16000830185614ded565b6151ce6020830184614e1a565b9392505050565b60006020820190506151ea6000830184614dfc565b92915050565b60006020820190506152056000830184614e1a565b92915050565b60006040820190506152206000830185614e0b565b61522d6020830184614e0b565b9392505050565b6000604051905081810181811067ffffffffffffffff8211171561525b5761525a6156db565b5b8060405250919050565b600067ffffffffffffffff8211156152805761527f6156db565b5b602082029050602081019050919050565b600081519050919050565b600082825260208201905092915050565b600081905092915050565b60006152c382615525565b91506152ce83615525565b9250827fffffffffffffffffffffffffffffffffffffffffffffffffffffffffffffffff038211156153035761530261564e565b5b828201905092915050565b60006153198261552f565b91506153248361552f565b92508263ffffffff0382111561533d5761533c61564e565b5b828201905092915050565b60006153538261554c565b915061535e8361554c565b9250826bffffffffffffffffffffffff0382111561537f5761537e61564e565b5b828201905092915050565b60006153958261552f565b91506153a08361552f565b9250826153b0576153af61567d565b5b828204905092915050565b60006153c682615525565b91506153d183615525565b9250817fffffffffffffffffffffffffffffffffffffffffffffffffffffffffffffffff048311821515161561540a5761540961564e565b5b828202905092915050565b600061542082615525565b915061542b83615525565b92508282101561543e5761543d61564e565b5b828203905092915050565b60006154548261552f565b915061545f8361552f565b9250828210156154725761547161564e565b5b828203905092915050565b60006154888261554c565b91506154938361554c565b9250828210156154a6576154a561564e565b5b828203905092915050565b60006154bc82615505565b9050919050565b60008115159050919050565b6000819050919050565b60007fffffffff0000000000000000000000000000000000000000000000000000000082169050919050565b600073ffffffffffffffffffffffffffffffffffffffff82169050919050565b6000819050919050565b600063ffffffff82169050919050565b600060ff82169050919050565b60006bffffffffffffffffffffffff82169050919050565b600061556f8261554c565b9050919050565b60005b83811015615594578082015181840152602081019050615579565b838111156155a3576000848401525b50505050565b60006155b482615525565b915060008214156155c8576155c761564e565b5b600182039050919050565b600060028204905060018216806155eb57607f821691505b602082108114156155ff576155fe6156ac565b5b50919050565b600061561082615525565b91507fffffffffffffffffffffffffffffffffffffffffffffffffffffffffffffffff8214156156435761564261564e565b5b600182019050919050565b7f4e487b7100000000000000000000000000000000000000000000000000000000600052601160045260246000fd5b7f4e487b7100000000000000000000000000000000000000000000000000000000600052601260045260246000fd5b7f4e487b7100000000000000000000000000000000000000000000000000000000600052602260045260246000fd5b7f4e487b7100000000000000000000000000000000000000000000000000000000600052604160045260246000fd5b6000601f19601f8301169050919050565b615724816154b1565b811461572f57600080fd5b50565b61573b816154cf565b811461574657600080fd5b50565b615752816154d9565b811461575d57600080fd5b50565b61576981615525565b811461577457600080fd5b50565b6157808161552f565b811461578b57600080fd5b5056fe6175646974546f6b656e3a3a5f6d6f7665566f7465733a20766f746520616d6f756e7420756e646572666c6f77736175646974546f6b656e3a3a5f7772697465436865636b706f696e743a20626c6f636b206e756d626572206578636565647320333220626974736175646974546f6b656e3a3a5f6d6f7665566f7465733a20766f746520616d6f756e74206f766572666c6f7773a26469706673582212204617ab73f7f2b03c7402cc4cf5aef78905580ce275c625e5204495c2a40f161564736f6c63430008000033",
  "immutableReferences": {},
  "source": "// SPDX-License-Identifier: MIT\n\npragma solidity =0.8.0;\npragma experimental ABIEncoderV2;\n\nimport \"@openzeppelin/contracts-upgradeable/token/ERC20/extensions/ERC20BurnableUpgradeable.sol\";\nimport \"@openzeppelin/contracts-upgradeable/token/ERC20/ERC20Upgradeable.sol\";\nimport \"./Locked.sol\";\n\ncontract AuditToken is Locked, ERC20Upgradeable,  ERC20BurnableUpgradeable{\n      \n    /// @notice A record of each accounts delegate\n    mapping (address => address) public delegates;\n\n    /// @notice A checkpoint for marking number of votes from a given block\n    struct Checkpoint {\n        uint32 fromBlock;\n        uint96 votes;\n    }\n\n    /// @notice A record of votes checkpoints for each account, by index\n    mapping (address => mapping (uint32 => Checkpoint)) public checkpoints;\n\n    /// @notice The number of checkpoints for each account\n    mapping (address => uint32) public numCheckpoints;\n\n    /// @notice The EIP-712 typehash for the contract's domain\n    bytes32 public constant DOMAIN_TYPEHASH = keccak256(\"EIP712Domain(string name,uint256 chainId,address verifyingContract)\");\n\n    /// @notice The EIP-712 typehash for the delegation struct used by the contract\n    bytes32 public constant DELEGATION_TYPEHASH = keccak256(\"Delegation(address delegatee,uint256 nonce,uint256 expiry)\");\n\n    /// @notice A record of states for signing / validating signatures\n    mapping (address => uint) public nonces;\n\n    /// @notice An event thats emitted when an account changes its delegate\n    event DelegateChanged(address indexed delegator, address indexed fromDelegate, address indexed toDelegate);\n\n    /// @notice An event thats emitted when a delegate account's vote balance changes\n    event DelegateVotesChanged(address indexed delegate, uint previousBalance, uint newBalance);\n    \n    /// @dev Initialize.\n    function initialize(address account) public {\n        __ERC20_init(\"Auditchain\", \"AUDT\");\n        require(account != address(0), \"AuditToken:initialize - Address can't be 0\");\n        _setupRole(DEFAULT_ADMIN_ROLE, account);\n        // _mint(account, 250000000000000000000000000);\n    }\n\n    /// @dev prevent accidental sending of tokens to this token contract\n    ///  _self - address of this contract\n    modifier notSelf(address _self) {\n        require(\n            _self != address(this),\n            \"You are trying to send tokens to this token contract\"\n        );\n        _;\n    }\n\n    function _beforeTokenTransfer(address from, address to, uint256 tokenId) internal virtual override(ERC20Upgradeable) {\n        super._beforeTokenTransfer(from, to, tokenId);\n    }\n\n    /// @notice Overwrite parent implementation to add locked verification, notSelf modifiers and call to moveDelegates\n    function transfer(address to, uint256 value)\n        public\n        override\n        isNotLocked(msg.sender, to)\n        notSelf(to)\n        returns (bool)\n    {\n        _moveDelegates(delegates[msg.sender], delegates[to], uint96(value));\n        return super.transfer(to, value);\n    }\n\n   /// @notice Overwrite parent implementation to add locked verification, notSelf modifiers and call to moveDelegates\n    function transferFrom(\n        address from,\n        address to,\n        uint256 value\n    ) public override isNotLocked(from, to) notSelf(to) returns (bool) {\n         _moveDelegates(delegates[from], delegates[to], uint96(value));\n        return super.transferFrom(from, to, value);\n    }\n     /**\n     * @notice Function to mint tokens\n     * @param to address to which new minted tokens are sent\n     * @param amount of tokens to send \n     * @return A boolean that indicates if the operation was successful.\n     */\n    function mint(address to, uint256 amount) public isMinter() returns (bool) {       \n        _mint(to, amount);\n        return true;\n    }\n\n    /// @notice Overwrite parent implementation to add locked verification \n    function burn (uint256 amount) public override  isNotLocked(msg.sender, msg.sender) {\n        super.burn(amount);\n    }\n\n    /// @notice Overwrite parent implementation to add locked verification \n    function burnFrom (address user, uint256 amount) public override  isNotLocked(msg.sender, msg.sender) {\n        super.burnFrom(user, amount);\n    }\n\n    /**\n     * @notice Delegate votes from `msg.sender` to `delegatee`\n     * @param delegatee The address to delegate votes to\n     */\n    function delegate(address delegatee) public {\n        return _delegate(msg.sender, delegatee);\n    }\n\n    /**\n     * @notice Gets the current votes balance for `account`\n     * @param account The address to get votes balance\n     * @return The number of current votes for `account`\n     */\n    function getCurrentVotes(address account) external view returns (uint96) {\n        uint32 nCheckpoints = numCheckpoints[account];\n        return nCheckpoints > 0 ? checkpoints[account][nCheckpoints - 1].votes : 0;\n    }\n\n    /**\n     * @notice Determine the prior number of votes for an account as of a block number\n     * @dev Block number must be a finalized block or else this function will revert to prevent misinformation.\n     * @param account The address of the account to check\n     * @param blockNumber The block number to get the vote balance at\n     * @return The number of votes the account had as of the given block\n     */\n    function getPriorVotes(address account, uint blockNumber) public view returns (uint96) {\n        require(blockNumber < block.number, \"auditToken::getPriorVotes: not yet determined\");\n\n        uint32 nCheckpoints = numCheckpoints[account];\n        if (nCheckpoints == 0) {\n            return 0;\n        }\n\n        // First check most recent balance\n        if (checkpoints[account][nCheckpoints - 1].fromBlock <= blockNumber) {\n            return checkpoints[account][nCheckpoints - 1].votes;\n        }\n\n        // Next check implicit zero balance\n        if (checkpoints[account][0].fromBlock > blockNumber) {\n            return 0;\n        }\n\n        uint32 lower = 0;\n        uint32 upper = nCheckpoints - 1;\n        while (upper > lower) {\n            uint32 center = upper - (upper - lower) / 2; // ceil, avoiding overflow\n            Checkpoint memory cp = checkpoints[account][center];\n            if (cp.fromBlock == blockNumber) {\n                return cp.votes;\n            } else if (cp.fromBlock < blockNumber) {\n                lower = center;\n            } else {\n                upper = center - 1;\n            }\n        }\n        return checkpoints[account][lower].votes;\n    }\n\n    function _delegate(address delegator, address delegatee) internal {\n        address currentDelegate = delegates[delegator];\n        uint96 delegatorBalance = uint96(balanceOf(delegator));\n        delegates[delegator] = delegatee;\n\n        emit DelegateChanged(delegator, currentDelegate, delegatee);\n\n        _moveDelegates(currentDelegate, delegatee, delegatorBalance);\n    }   \n\n    function _moveDelegates(address srcRep, address dstRep, uint96 amount) internal {\n        if (srcRep != dstRep && amount > 0) {\n            if (srcRep != address(0)) {\n                uint32 srcRepNum = numCheckpoints[srcRep];\n                uint96 srcRepOld = srcRepNum > 0 ? checkpoints[srcRep][srcRepNum - 1].votes : 0;\n                uint96 srcRepNew = sub96(srcRepOld, amount, \"auditToken::_moveVotes: vote amount underflows\");\n                _writeCheckpoint(srcRep, srcRepNum, srcRepOld, srcRepNew);\n            }\n\n            if (dstRep != address(0)) {\n                uint32 dstRepNum = numCheckpoints[dstRep];\n                uint96 dstRepOld = dstRepNum > 0 ? checkpoints[dstRep][dstRepNum - 1].votes : 0;\n                uint96 dstRepNew = add96(dstRepOld, amount, \"auditToken::_moveVotes: vote amount overflows\");\n                _writeCheckpoint(dstRep, dstRepNum, dstRepOld, dstRepNew);\n            }\n        }\n    }\n\n    function _writeCheckpoint(address delegatee, uint32 nCheckpoints, uint96 oldVotes, uint96 newVotes) internal {\n      uint32 blockNumber = safe32(block.number, \"auditToken::_writeCheckpoint: block number exceeds 32 bits\");\n\n      if (nCheckpoints > 0 && checkpoints[delegatee][nCheckpoints - 1].fromBlock == blockNumber) {\n          checkpoints[delegatee][nCheckpoints - 1].votes = newVotes;\n      } else {\n          checkpoints[delegatee][nCheckpoints] = Checkpoint(blockNumber, newVotes);\n          numCheckpoints[delegatee] = nCheckpoints + 1;\n      }\n\n      emit DelegateVotesChanged(delegatee, oldVotes, newVotes);\n    }\n\n    function safe32(uint n, string memory errorMessage) internal pure returns (uint32) {\n        require(n < 2**32, errorMessage);\n        return uint32(n);\n    }\n\n    function add96(uint96 a, uint96 b, string memory errorMessage) internal pure returns (uint96) {\n        uint96 c = a + b;\n        require(c >= a, errorMessage);\n        return c;\n    }\n\n    function sub96(uint96 a, uint96 b, string memory errorMessage) internal pure returns (uint96) {\n        require(b <= a, errorMessage);\n        return a - b;\n    }\n\n    function getChainId() internal view returns (uint) {\n        uint256 chainId;\n        assembly { chainId := chainid() }\n        return chainId;\n    }\n}",
  "sourcePath": "/home/win2win/eth/projects/AuditChain/Core-Smart-Contracts-v1-upgradable/contracts/AuditToken.sol",
  "compiler": {
    "name": "solc",
    "version": "0.8.0+commit.c7dfd78e.Emscripten.clang"
  },
  "schemaVersion": "3.4.1",
  "updatedAt": "2022-05-18T17:13:45.529Z",
  "devdoc": {
    "kind": "dev",
    "methods": {
      "addLock(address)": {
        "details": "add user to lock",
        "params": {
          "_user": "to lock"
        }
      },
      "allowance(address,address)": {
        "details": "See {IERC20-allowance}."
      },
      "approve(address,uint256)": {
        "details": "See {IERC20-approve}. Requirements: - `spender` cannot be the zero address."
      },
      "balanceOf(address)": {
        "details": "See {IERC20-balanceOf}."
      },
      "decimals()": {
        "details": "Returns the number of decimals used to get its user representation. For example, if `decimals` equals `2`, a balance of `505` tokens should be displayed to a user as `5.05` (`505 / 10 ** 2`). Tokens usually opt for a value of 18, imitating the relationship between Ether and Wei. This is the value {ERC20} uses, unless this function is overridden; NOTE: This information is only used for _display_ purposes: it in no way affects any of the arithmetic of the contract, including {IERC20-balanceOf} and {IERC20-transfer}."
      },
      "decreaseAllowance(address,uint256)": {
        "details": "Atomically decreases the allowance granted to `spender` by the caller. This is an alternative to {approve} that can be used as a mitigation for problems described in {IERC20-approve}. Emits an {Approval} event indicating the updated allowance. Requirements: - `spender` cannot be the zero address. - `spender` must have allowance for the caller of at least `subtractedValue`."
      },
      "delegate(address)": {
        "params": {
          "delegatee": "The address to delegate votes to"
        }
      },
      "getCurrentVotes(address)": {
        "params": {
          "account": "The address to get votes balance"
        },
        "returns": {
          "_0": "The number of current votes for `account`"
        }
      },
      "getPriorVotes(address,uint256)": {
        "details": "Block number must be a finalized block or else this function will revert to prevent misinformation.",
        "params": {
          "account": "The address of the account to check",
          "blockNumber": "The block number to get the vote balance at"
        },
        "returns": {
          "_0": "The number of votes the account had as of the given block"
        }
      },
      "getRoleAdmin(bytes32)": {
        "details": "Returns the admin role that controls `role`. See {grantRole} and {revokeRole}. To change a role's admin, use {_setRoleAdmin}."
      },
      "getRoleMember(bytes32,uint256)": {
        "details": "Returns one of the accounts that have `role`. `index` must be a value between 0 and {getRoleMemberCount}, non-inclusive. Role bearers are not sorted in any particular way, and their ordering may change at any point. WARNING: When using {getRoleMember} and {getRoleMemberCount}, make sure you perform all queries on the same block. See the following https://forum.openzeppelin.com/t/iterating-over-elements-on-enumerableset-in-openzeppelin-contracts/2296[forum post] for more information."
      },
      "getRoleMemberCount(bytes32)": {
        "details": "Returns the number of accounts that have `role`. Can be used together with {getRoleMember} to enumerate all bearers of a role."
      },
      "grantRole(bytes32,address)": {
        "details": "Overload {grantRole} to track enumerable memberships"
      },
      "hasRole(bytes32,address)": {
        "details": "Returns `true` if `account` has been granted `role`."
      },
      "increaseAllowance(address,uint256)": {
        "details": "Atomically increases the allowance granted to `spender` by the caller. This is an alternative to {approve} that can be used as a mitigation for problems described in {IERC20-approve}. Emits an {Approval} event indicating the updated allowance. Requirements: - `spender` cannot be the zero address."
      },
      "initialize(address)": {
        "details": "Initialize."
      },
      "isLocked(address)": {
        "details": "check if user has been locked",
        "params": {
          "_user": "- usr to check"
        },
        "returns": {
          "_0": "true or false"
        }
      },
      "mint(address,uint256)": {
        "params": {
          "amount": "of tokens to send ",
          "to": "address to which new minted tokens are sent"
        },
        "returns": {
          "_0": "A boolean that indicates if the operation was successful."
        }
      },
      "name()": {
        "details": "Returns the name of the token."
      },
      "removeLock(address)": {
        "details": "unlock user",
        "params": {
          "_user": "- user to unlock"
        }
      },
      "renounceRole(bytes32,address)": {
        "details": "Overload {renounceRole} to track enumerable memberships"
      },
      "revokeRole(bytes32,address)": {
        "details": "Overload {revokeRole} to track enumerable memberships"
      },
      "supportsInterface(bytes4)": {
        "details": "See {IERC165-supportsInterface}."
      },
      "symbol()": {
        "details": "Returns the symbol of the token, usually a shorter version of the name."
      },
      "totalSupply()": {
        "details": "See {IERC20-totalSupply}."
      }
    },
    "version": 1
  },
  "userdoc": {
    "events": {
      "DelegateChanged(address,address,address)": {
        "notice": "An event thats emitted when an account changes its delegate"
      },
      "DelegateVotesChanged(address,uint256,uint256)": {
        "notice": "An event thats emitted when a delegate account's vote balance changes"
      }
    },
    "kind": "user",
    "methods": {
      "DELEGATION_TYPEHASH()": {
        "notice": "The EIP-712 typehash for the delegation struct used by the contract"
      },
      "DOMAIN_TYPEHASH()": {
        "notice": "The EIP-712 typehash for the contract's domain"
      },
      "burn(uint256)": {
        "notice": "Overwrite parent implementation to add locked verification "
      },
      "burnFrom(address,uint256)": {
        "notice": "Overwrite parent implementation to add locked verification "
      },
      "checkpoints(address,uint32)": {
        "notice": "A record of votes checkpoints for each account, by index"
      },
      "delegate(address)": {
        "notice": "Delegate votes from `msg.sender` to `delegatee`"
      },
      "delegates(address)": {
        "notice": "A record of each accounts delegate"
      },
      "getCurrentVotes(address)": {
        "notice": "Gets the current votes balance for `account`"
      },
      "getPriorVotes(address,uint256)": {
        "notice": "Determine the prior number of votes for an account as of a block number"
      },
      "mint(address,uint256)": {
        "notice": "Function to mint tokens"
      },
      "nonces(address)": {
        "notice": "A record of states for signing / validating signatures"
      },
      "numCheckpoints(address)": {
        "notice": "The number of checkpoints for each account"
      },
      "transfer(address,uint256)": {
        "notice": "Overwrite parent implementation to add locked verification, notSelf modifiers and call to moveDelegates"
      },
      "transferFrom(address,address,uint256)": {
        "notice": "Overwrite parent implementation to add locked verification, notSelf modifiers and call to moveDelegates"
      }
    },
    "version": 1
  }
}