{
  "contractName": "CohortFactory",
  "abi": [
    {
      "anonymous": false,
      "inputs": [
        {
          "indexed": true,
          "internalType": "address",
          "name": "enterprise",
          "type": "address"
        },
        {
          "indexed": false,
          "internalType": "uint256",
          "name": "audits",
          "type": "uint256"
        }
      ],
      "name": "CohortCreated",
      "type": "event"
    },
    {
      "anonymous": false,
      "inputs": [
        {
          "indexed": true,
          "internalType": "address",
          "name": "validator",
          "type": "address"
        },
        {
          "indexed": false,
          "internalType": "uint256",
          "name": "invitationNumber",
          "type": "uint256"
        }
      ],
      "name": "InvitationAccepted",
      "type": "event"
    },
    {
      "anonymous": false,
      "inputs": [
        {
          "indexed": true,
          "internalType": "bytes32",
          "name": "role",
          "type": "bytes32"
        },
        {
          "indexed": true,
          "internalType": "bytes32",
          "name": "previousAdminRole",
          "type": "bytes32"
        },
        {
          "indexed": true,
          "internalType": "bytes32",
          "name": "newAdminRole",
          "type": "bytes32"
        }
      ],
      "name": "RoleAdminChanged",
      "type": "event"
    },
    {
      "anonymous": false,
      "inputs": [
        {
          "indexed": true,
          "internalType": "bytes32",
          "name": "role",
          "type": "bytes32"
        },
        {
          "indexed": true,
          "internalType": "address",
          "name": "account",
          "type": "address"
        },
        {
          "indexed": true,
          "internalType": "address",
          "name": "sender",
          "type": "address"
        }
      ],
      "name": "RoleGranted",
      "type": "event"
    },
    {
      "anonymous": false,
      "inputs": [
        {
          "indexed": true,
          "internalType": "bytes32",
          "name": "role",
          "type": "bytes32"
        },
        {
          "indexed": true,
          "internalType": "address",
          "name": "account",
          "type": "address"
        },
        {
          "indexed": true,
          "internalType": "address",
          "name": "sender",
          "type": "address"
        }
      ],
      "name": "RoleRevoked",
      "type": "event"
    },
    {
      "anonymous": false,
      "inputs": [
        {
          "indexed": false,
          "internalType": "uint256",
          "name": "minValidatorPerCohort",
          "type": "uint256"
        },
        {
          "indexed": false,
          "internalType": "enum CohortFactory.AuditTypes",
          "name": "audits",
          "type": "uint8"
        }
      ],
      "name": "UpdateMinValidatorsPerCohort",
      "type": "event"
    },
    {
      "anonymous": false,
      "inputs": [
        {
          "indexed": false,
          "internalType": "address",
          "name": "validator",
          "type": "address"
        },
        {
          "indexed": false,
          "internalType": "enum CohortFactory.AuditTypes",
          "name": "audit",
          "type": "uint8"
        },
        {
          "indexed": false,
          "internalType": "address",
          "name": "enterprise",
          "type": "address"
        }
      ],
      "name": "ValidatorCleared",
      "type": "event"
    },
    {
      "anonymous": false,
      "inputs": [
        {
          "indexed": false,
          "internalType": "address",
          "name": "inviting",
          "type": "address"
        },
        {
          "indexed": true,
          "internalType": "address",
          "name": "invitee",
          "type": "address"
        },
        {
          "indexed": true,
          "internalType": "enum CohortFactory.AuditTypes",
          "name": "audits",
          "type": "uint8"
        },
        {
          "indexed": false,
          "internalType": "uint256",
          "name": "invitationNumber",
          "type": "uint256"
        }
      ],
      "name": "ValidatorInvited",
      "type": "event"
    },
    {
      "inputs": [],
      "name": "DEFAULT_ADMIN_ROLE",
      "outputs": [
        {
          "internalType": "bytes32",
          "name": "",
          "type": "bytes32"
        }
      ],
      "stateMutability": "view",
      "type": "function",
      "constant": true
    },
    {
      "inputs": [],
      "name": "SETTER_ROLE",
      "outputs": [
        {
          "internalType": "bytes32",
          "name": "",
          "type": "bytes32"
        }
      ],
      "stateMutability": "view",
      "type": "function",
      "constant": true
    },
    {
      "inputs": [
        {
          "internalType": "address",
          "name": "",
          "type": "address"
        },
        {
          "internalType": "uint256",
          "name": "",
          "type": "uint256"
        }
      ],
      "name": "cohortList",
      "outputs": [
        {
          "internalType": "uint256",
          "name": "",
          "type": "uint256"
        }
      ],
      "stateMutability": "view",
      "type": "function",
      "constant": true
    },
    {
      "inputs": [
        {
          "internalType": "address",
          "name": "",
          "type": "address"
        },
        {
          "internalType": "uint256",
          "name": "",
          "type": "uint256"
        }
      ],
      "name": "cohortMap",
      "outputs": [
        {
          "internalType": "bool",
          "name": "",
          "type": "bool"
        }
      ],
      "stateMutability": "view",
      "type": "function",
      "constant": true
    },
    {
      "inputs": [
        {
          "internalType": "bytes32",
          "name": "role",
          "type": "bytes32"
        }
      ],
      "name": "getRoleAdmin",
      "outputs": [
        {
          "internalType": "bytes32",
          "name": "",
          "type": "bytes32"
        }
      ],
      "stateMutability": "view",
      "type": "function",
      "constant": true
    },
    {
      "inputs": [
        {
          "internalType": "bytes32",
          "name": "role",
          "type": "bytes32"
        },
        {
          "internalType": "uint256",
          "name": "index",
          "type": "uint256"
        }
      ],
      "name": "getRoleMember",
      "outputs": [
        {
          "internalType": "address",
          "name": "",
          "type": "address"
        }
      ],
      "stateMutability": "view",
      "type": "function",
      "constant": true
    },
    {
      "inputs": [
        {
          "internalType": "bytes32",
          "name": "role",
          "type": "bytes32"
        }
      ],
      "name": "getRoleMemberCount",
      "outputs": [
        {
          "internalType": "uint256",
          "name": "",
          "type": "uint256"
        }
      ],
      "stateMutability": "view",
      "type": "function",
      "constant": true
    },
    {
      "inputs": [
        {
          "internalType": "bytes32",
          "name": "role",
          "type": "bytes32"
        },
        {
          "internalType": "address",
          "name": "account",
          "type": "address"
        }
      ],
      "name": "grantRole",
      "outputs": [],
      "stateMutability": "nonpayable",
      "type": "function"
    },
    {
      "inputs": [
        {
          "internalType": "bytes32",
          "name": "role",
          "type": "bytes32"
        },
        {
          "internalType": "address",
          "name": "account",
          "type": "address"
        }
      ],
      "name": "hasRole",
      "outputs": [
        {
          "internalType": "bool",
          "name": "",
          "type": "bool"
        }
      ],
      "stateMutability": "view",
      "type": "function",
      "constant": true
    },
    {
      "inputs": [
        {
          "internalType": "address",
          "name": "",
          "type": "address"
        },
        {
          "internalType": "uint256",
          "name": "",
          "type": "uint256"
        }
      ],
      "name": "invitations",
      "outputs": [
        {
          "internalType": "address",
          "name": "validator",
          "type": "address"
        },
        {
          "internalType": "uint256",
          "name": "invitationDate",
          "type": "uint256"
        },
        {
          "internalType": "uint256",
          "name": "acceptanceDate",
          "type": "uint256"
        },
        {
          "internalType": "enum CohortFactory.AuditTypes",
          "name": "audits",
          "type": "uint8"
        },
        {
          "internalType": "bool",
          "name": "deleted",
          "type": "bool"
        }
      ],
      "stateMutability": "view",
      "type": "function",
      "constant": true
    },
    {
      "inputs": [],
      "name": "memberHelpers",
      "outputs": [
        {
          "internalType": "contract MemberHelpers",
          "name": "",
          "type": "address"
        }
      ],
      "stateMutability": "view",
      "type": "function",
      "constant": true
    },
    {
      "inputs": [
        {
          "internalType": "uint256",
          "name": "",
          "type": "uint256"
        }
      ],
      "name": "minValidatorPerCohort",
      "outputs": [
        {
          "internalType": "uint256",
          "name": "",
          "type": "uint256"
        }
      ],
      "stateMutability": "view",
      "type": "function",
      "constant": true
    },
    {
      "inputs": [
        {
          "internalType": "bytes32",
          "name": "role",
          "type": "bytes32"
        },
        {
          "internalType": "address",
          "name": "account",
          "type": "address"
        }
      ],
      "name": "renounceRole",
      "outputs": [],
      "stateMutability": "nonpayable",
      "type": "function"
    },
    {
      "inputs": [
        {
          "internalType": "bytes32",
          "name": "role",
          "type": "bytes32"
        },
        {
          "internalType": "address",
          "name": "account",
          "type": "address"
        }
      ],
      "name": "revokeRole",
      "outputs": [],
      "stateMutability": "nonpayable",
      "type": "function"
    },
    {
      "inputs": [
        {
          "internalType": "bytes4",
          "name": "interfaceId",
          "type": "bytes4"
        }
      ],
      "name": "supportsInterface",
      "outputs": [
        {
          "internalType": "bool",
          "name": "",
          "type": "bool"
        }
      ],
      "stateMutability": "view",
      "type": "function",
      "constant": true
    },
    {
      "inputs": [
        {
          "internalType": "address",
          "name": "",
          "type": "address"
        },
        {
          "internalType": "address",
          "name": "",
          "type": "address"
        },
        {
          "internalType": "uint256",
          "name": "",
          "type": "uint256"
        }
      ],
      "name": "validatorCohortList",
      "outputs": [
        {
          "internalType": "enum CohortFactory.AuditTypes",
          "name": "",
          "type": "uint8"
        }
      ],
      "stateMutability": "view",
      "type": "function",
      "constant": true
    },
    {
      "inputs": [
        {
          "internalType": "address",
          "name": "_members",
          "type": "address"
        },
        {
          "internalType": "address",
          "name": "_memberHelpers",
          "type": "address"
        }
      ],
      "name": "initialize",
      "outputs": [],
      "stateMutability": "nonpayable",
      "type": "function"
    },
    {
      "inputs": [
        {
          "internalType": "uint256",
          "name": "_minValidatorPerCohort",
          "type": "uint256"
        },
        {
          "internalType": "uint256",
          "name": "audits",
          "type": "uint256"
        }
      ],
      "name": "updateMinValidatorsPerCohort",
      "outputs": [],
      "stateMutability": "nonpayable",
      "type": "function"
    },
    {
      "inputs": [
        {
          "internalType": "address",
          "name": "validator",
          "type": "address"
        },
        {
          "internalType": "uint256",
          "name": "audit",
          "type": "uint256"
        }
      ],
      "name": "inviteValidator",
      "outputs": [],
      "stateMutability": "nonpayable",
      "type": "function"
    },
    {
      "inputs": [
        {
          "internalType": "address[]",
          "name": "validator",
          "type": "address[]"
        },
        {
          "internalType": "enum CohortFactory.AuditTypes",
          "name": "audit",
          "type": "uint8"
        }
      ],
      "name": "inviteValidatorMultiple",
      "outputs": [],
      "stateMutability": "nonpayable",
      "type": "function"
    },
    {
      "inputs": [
        {
          "internalType": "address",
          "name": "enterprise",
          "type": "address"
        },
        {
          "internalType": "uint256",
          "name": "invitationNumber",
          "type": "uint256"
        }
      ],
      "name": "acceptInvitation",
      "outputs": [],
      "stateMutability": "nonpayable",
      "type": "function"
    },
    {
      "inputs": [
        {
          "internalType": "address",
          "name": "validator",
          "type": "address"
        },
        {
          "internalType": "enum CohortFactory.AuditTypes",
          "name": "audit",
          "type": "uint8"
        }
      ],
      "name": "clearInvitationRemoveValidator",
      "outputs": [
        {
          "internalType": "bool",
          "name": "",
          "type": "bool"
        }
      ],
      "stateMutability": "nonpayable",
      "type": "function"
    },
    {
      "inputs": [
        {
          "internalType": "address[]",
          "name": "enterprise",
          "type": "address[]"
        },
        {
          "internalType": "uint256[]",
          "name": "invitationNumber",
          "type": "uint256[]"
        }
      ],
      "name": "acceptInvitationMultiple",
      "outputs": [],
      "stateMutability": "nonpayable",
      "type": "function"
    },
    {
      "inputs": [
        {
          "internalType": "address",
          "name": "enterprise",
          "type": "address"
        },
        {
          "internalType": "enum CohortFactory.AuditTypes",
          "name": "audit",
          "type": "uint8"
        }
      ],
      "name": "returnInvitationCount",
      "outputs": [
        {
          "internalType": "uint256",
          "name": "",
          "type": "uint256"
        }
      ],
      "stateMutability": "view",
      "type": "function",
      "constant": true
    },
    {
      "inputs": [
        {
          "internalType": "address",
          "name": "enterprise",
          "type": "address"
        },
        {
          "internalType": "address",
          "name": "validator",
          "type": "address"
        },
        {
          "internalType": "uint256",
          "name": "audits",
          "type": "uint256"
        }
      ],
      "name": "isValidatorInvited",
      "outputs": [
        {
          "internalType": "bool",
          "name": "",
          "type": "bool"
        },
        {
          "internalType": "bool",
          "name": "",
          "type": "bool"
        }
      ],
      "stateMutability": "view",
      "type": "function",
      "constant": true
    },
    {
      "inputs": [
        {
          "internalType": "address",
          "name": "enterprise",
          "type": "address"
        },
        {
          "internalType": "address",
          "name": "validator",
          "type": "address"
        },
        {
          "internalType": "uint256",
          "name": "audits",
          "type": "uint256"
        },
        {
          "internalType": "uint256",
          "name": "invitNumber",
          "type": "uint256"
        }
      ],
      "name": "isValidatorInvitedNumber",
      "outputs": [
        {
          "internalType": "bool",
          "name": "",
          "type": "bool"
        },
        {
          "internalType": "bool",
          "name": "",
          "type": "bool"
        }
      ],
      "stateMutability": "view",
      "type": "function",
      "constant": true
    },
    {
      "inputs": [
        {
          "internalType": "address",
          "name": "enterprise",
          "type": "address"
        }
      ],
      "name": "returnCohorts",
      "outputs": [
        {
          "internalType": "bool[]",
          "name": "",
          "type": "bool[]"
        }
      ],
      "stateMutability": "view",
      "type": "function",
      "constant": true
    },
    {
      "inputs": [
        {
          "internalType": "address",
          "name": "enterprise",
          "type": "address"
        },
        {
          "internalType": "uint256",
          "name": "audit",
          "type": "uint256"
        }
      ],
      "name": "returnValidatorList",
      "outputs": [
        {
          "internalType": "address[]",
          "name": "",
          "type": "address[]"
        }
      ],
      "stateMutability": "view",
      "type": "function",
      "constant": true
    },
    {
      "inputs": [
        {
          "internalType": "address",
          "name": "validator",
          "type": "address"
        },
        {
          "internalType": "address",
          "name": "enterprise",
          "type": "address"
        }
      ],
      "name": "returnValidatorCohortsCount",
      "outputs": [
        {
          "internalType": "uint256",
          "name": "",
          "type": "uint256"
        }
      ],
      "stateMutability": "view",
      "type": "function",
      "constant": true
    },
    {
      "inputs": [
        {
          "internalType": "uint256",
          "name": "audit",
          "type": "uint256"
        }
      ],
      "name": "createCohort",
      "outputs": [],
      "stateMutability": "nonpayable",
      "type": "function"
    }
  ],
  "bytecode": "0x608060405234801561001057600080fd5b506153fc806100206000396000f3fe608060405234801561001057600080fd5b50600436106101da5760003560e01c806387247dea11610104578063a3469737116100a2578063ca15c87311610071578063ca15c873146105db578063cd7264931461060b578063d547741f1461063b578063df03d08114610657576101da565b8063a346973714610543578063a70e03931461055f578063aacc19b31461058f578063b9f577b1146105bf576101da565b806391d14854116100de57806391d14854146104a65780639df4e870146104d6578063a2011b3f14610507578063a217fddf14610525576101da565b806387247dea146104125780638ffb72f4146104425780639010d07c14610476576101da565b80632f2ff15d1161017c5780634e991f881161014b5780634e991f881461038b5780636df85345146103a757806371d8c7a0146103d857806372b74581146103f6576101da565b80632f2ff15d1461030757806336568abe1461032357806345f49bb01461033f578063485cc9551461036f576101da565b80630ea02160116101b85780630ea021601461025b578063247e28b314610277578063248a9ca3146102a7578063265fe4e7146102d7576101da565b806301ffc9a7146101df57806302495c591461020f5780630939a9971461023f575b600080fd5b6101f960048036038101906101f49190613f85565b610687565b6040516102069190614bea565b60405180910390f35b61022960048036038101906102249190613dbf565b610701565b6040516102369190614ba6565b60405180910390f35b61025960048036038101906102549190613dfb565b610aba565b005b61027560048036038101906102709190613dbf565b610b6e565b005b610291600480360381019061028c9190613d83565b610eb2565b60405161029e9190614ea1565b60405180910390f35b6102c160048036038101906102bc9190613ee4565b61116e565b6040516102ce9190614c2e565b60405180910390f35b6102f160048036038101906102ec9190613d83565b61118e565b6040516102fe9190614bea565b60405180910390f35b610321600480360381019061031c9190613f0d565b611507565b005b61033d60048036038101906103389190613f0d565b61153b565b005b61035960048036038101906103549190613fae565b61156f565b6040516103669190614ea1565b60405180910390f35b61038960048036038101906103849190613c95565b611593565b005b6103a560048036038101906103a09190613dbf565b61167c565b005b6103c160048036038101906103bc9190613cd1565b611d5f565b6040516103cf929190614c05565b60405180910390f35b6103e0612140565b6040516103ed9190614c49565b60405180910390f35b610410600480360381019061040b9190613fae565b612166565b005b61042c60048036038101906104279190613c6c565b612398565b6040516104399190614bc8565b60405180910390f35b61045c60048036038101906104579190613dbf565b6124ed565b60405161046d959493929190614b53565b60405180910390f35b610490600480360381019061048b9190613f49565b61257a565b60405161049d9190614aaf565b60405180910390f35b6104c060048036038101906104bb9190613f0d565b6125a9565b6040516104cd9190614bea565b60405180910390f35b6104f060048036038101906104eb9190613d20565b612614565b6040516104fe929190614c05565b60405180910390f35b61050f612995565b60405161051c9190614c2e565b60405180910390f35b61052d6129b9565b60405161053a9190614c2e565b60405180910390f35b61055d60048036038101906105589190613e67565b6129c0565b005b61057960048036038101906105749190613dbf565b612ab1565b6040516105869190614ea1565b60405180910390f35b6105a960048036038101906105a49190613cd1565b612ae2565b6040516105b69190614c64565b60405180910390f35b6105d960048036038101906105d49190614000565b612b32565b005b6105f560048036038101906105f09190613ee4565b612cee565b6040516106029190614ea1565b60405180910390f35b61062560048036038101906106209190613c95565b612d12565b6040516106329190614ea1565b60405180910390f35b61065560048036038101906106509190613f0d565b612d9c565b005b610671600480360381019061066c9190613dbf565b612dd0565b60405161067e9190614bea565b60405180910390f35b60007f5a05180f000000000000000000000000000000000000000000000000000000007bffffffffffffffffffffffffffffffffffffffffffffffffffffffff1916827bffffffffffffffffffffffffffffffffffffffffffffffffffffffff191614806106fa57506106f982612dff565b5b9050919050565b6060600061074784846005811115610742577f4e487b7100000000000000000000000000000000000000000000000000000000600052602160045260246000fd5b610eb2565b67ffffffffffffffff811115610786577f4e487b7100000000000000000000000000000000000000000000000000000000600052604160045260246000fd5b6040519080825280602002602001820160405280156107b45781602001602082028036833780820191505090505b509050600080600090505b60cf60008773ffffffffffffffffffffffffffffffffffffffff1673ffffffffffffffffffffffffffffffffffffffff16815260200190815260200160002080549050811015610aae578460cf60008873ffffffffffffffffffffffffffffffffffffffff1673ffffffffffffffffffffffffffffffffffffffff1681526020019081526020016000208281548110610881577f4e487b7100000000000000000000000000000000000000000000000000000000600052603260045260246000fd5b906000526020600020906004020160030160009054906101000a900460ff1660058111156108d8577f4e487b7100000000000000000000000000000000000000000000000000000000600052602160045260246000fd5b14801561096d5750600060cf60008873ffffffffffffffffffffffffffffffffffffffff1673ffffffffffffffffffffffffffffffffffffffff1681526020019081526020016000208281548110610959577f4e487b7100000000000000000000000000000000000000000000000000000000600052603260045260246000fd5b906000526020600020906004020160020154115b15610a9d5760cf60008773ffffffffffffffffffffffffffffffffffffffff1673ffffffffffffffffffffffffffffffffffffffff16815260200190815260200160002081815481106109e9577f4e487b7100000000000000000000000000000000000000000000000000000000600052603260045260246000fd5b906000526020600020906004020160000160009054906101000a900473ffffffffffffffffffffffffffffffffffffffff16838381518110610a54577f4e487b7100000000000000000000000000000000000000000000000000000000600052603260045260246000fd5b602002602001019073ffffffffffffffffffffffffffffffffffffffff16908173ffffffffffffffffffffffffffffffffffffffff16815250508180610a9990615234565b9250505b80610aa790615234565b90506107bf565b50819250505092915050565b60008251905060005b81811015610b6857610b55848281518110610b07577f4e487b7100000000000000000000000000000000000000000000000000000000600052603260045260246000fd5b6020026020010151848381518110610b48577f4e487b7100000000000000000000000000000000000000000000000000000000600052603260045260246000fd5b6020026020010151610b6e565b8080610b6090615234565b915050610ac3565b50505050565b8060cf60008473ffffffffffffffffffffffffffffffffffffffff1673ffffffffffffffffffffffffffffffffffffffff1681526020019081526020016000208054905011610bf2576040517f08c379a0000000000000000000000000000000000000000000000000000000008152600401610be990614ce1565b60405180910390fd5b600060cf60008473ffffffffffffffffffffffffffffffffffffffff1673ffffffffffffffffffffffffffffffffffffffff1681526020019081526020016000208281548110610c6b577f4e487b7100000000000000000000000000000000000000000000000000000000600052603260045260246000fd5b90600052602060002090600402016002015414610cbd576040517f08c379a0000000000000000000000000000000000000000000000000000000008152600401610cb490614d61565b60405180910390fd5b3373ffffffffffffffffffffffffffffffffffffffff1660cf60008473ffffffffffffffffffffffffffffffffffffffff1673ffffffffffffffffffffffffffffffffffffffff1681526020019081526020016000208281548110610d4b577f4e487b7100000000000000000000000000000000000000000000000000000000600052603260045260246000fd5b906000526020600020906004020160000160009054906101000a900473ffffffffffffffffffffffffffffffffffffffff1673ffffffffffffffffffffffffffffffffffffffff1614610dd3576040517f08c379a0000000000000000000000000000000000000000000000000000000008152600401610dca90614e01565b60405180910390fd5b4260cf60008473ffffffffffffffffffffffffffffffffffffffff1673ffffffffffffffffffffffffffffffffffffffff1681526020019081526020016000208281548110610e4b577f4e487b7100000000000000000000000000000000000000000000000000000000600052603260045260246000fd5b9060005260206000209060040201600201819055503373ffffffffffffffffffffffffffffffffffffffff167f7b03e8bab458bdbb216f7525cb174b013e75d040884fe46cc9e836fc05a0cc7b82604051610ea69190614ea1565b60405180910390a25050565b60008060005b60cf60008673ffffffffffffffffffffffffffffffffffffffff1673ffffffffffffffffffffffffffffffffffffffff1681526020019081526020016000208054905081101561116357836005811115610f3b577f4e487b7100000000000000000000000000000000000000000000000000000000600052602160045260246000fd5b60cf60008773ffffffffffffffffffffffffffffffffffffffff1673ffffffffffffffffffffffffffffffffffffffff1681526020019081526020016000208281548110610fb2577f4e487b7100000000000000000000000000000000000000000000000000000000600052603260045260246000fd5b906000526020600020906004020160030160009054906101000a900460ff166005811115611009577f4e487b7100000000000000000000000000000000000000000000000000000000600052602160045260246000fd5b14801561109f5750600060cf60008773ffffffffffffffffffffffffffffffffffffffff1673ffffffffffffffffffffffffffffffffffffffff168152602001908152602001600020828154811061108a577f4e487b7100000000000000000000000000000000000000000000000000000000600052603260045260246000fd5b90600052602060002090600402016002015414155b801561113e575060cf60008673ffffffffffffffffffffffffffffffffffffffff1673ffffffffffffffffffffffffffffffffffffffff168152602001908152602001600020818154811061111d577f4e487b7100000000000000000000000000000000000000000000000000000000600052603260045260246000fd5b906000526020600020906004020160030160019054906101000a900460ff16155b1561115257818061114e90615234565b9250505b8061115c90615234565b9050610eb8565b508091505092915050565b600060656000838152602001908152602001600020600101549050919050565b600080600090505b60cf60003373ffffffffffffffffffffffffffffffffffffffff1673ffffffffffffffffffffffffffffffffffffffff168152602001908152602001600020805490508110156114c557826005811115611219577f4e487b7100000000000000000000000000000000000000000000000000000000600052602160045260246000fd5b60cf60003373ffffffffffffffffffffffffffffffffffffffff1673ffffffffffffffffffffffffffffffffffffffff1681526020019081526020016000208281548110611290577f4e487b7100000000000000000000000000000000000000000000000000000000600052603260045260246000fd5b906000526020600020906004020160030160009054906101000a900460ff1660058111156112e7577f4e487b7100000000000000000000000000000000000000000000000000000000600052602160045260246000fd5b1480156113c757508373ffffffffffffffffffffffffffffffffffffffff1660cf60003373ffffffffffffffffffffffffffffffffffffffff1673ffffffffffffffffffffffffffffffffffffffff168152602001908152602001600020828154811061137d577f4e487b7100000000000000000000000000000000000000000000000000000000600052603260045260246000fd5b906000526020600020906004020160000160009054906101000a900473ffffffffffffffffffffffffffffffffffffffff1673ffffffffffffffffffffffffffffffffffffffff16145b156114b257600160cf60003373ffffffffffffffffffffffffffffffffffffffff1673ffffffffffffffffffffffffffffffffffffffff1681526020019081526020016000208281548110611445577f4e487b7100000000000000000000000000000000000000000000000000000000600052603260045260246000fd5b906000526020600020906004020160030160016101000a81548160ff0219169083151502179055507f430f07ad8d443841cca872721479bee31948a99fc854082aa28dc44b9e3af20e8484336040516114a093929190614aca565b60405180910390a16001915050611501565b80806114bd90615234565b915050611196565b506040517f08c379a00000000000000000000000000000000000000000000000000000000081526004016114f890614de1565b60405180910390fd5b92915050565b6115118282612e79565b6115368160976000858152602001908152602001600020612ea290919063ffffffff16565b505050565b6115458282612ed2565b61156a8160976000858152602001908152602001600020612f5590919063ffffffff16565b505050565b60c9818154811061157f57600080fd5b906000526020600020016000915090505481565b8160cd60006101000a81548173ffffffffffffffffffffffffffffffffffffffff021916908373ffffffffffffffffffffffffffffffffffffffff1602179055508060ce60006101000a81548173ffffffffffffffffffffffffffffffffffffffff021916908373ffffffffffffffffffffffffffffffffffffffff1602179055506040518060c00160405280600360ff168152602001600360ff168152602001600360ff168152602001600360ff168152602001600360ff168152602001600360ff1681525060c990600661166a9291906139bf565b506116786000801b33612f85565b5050565b611684613a11565b600060cd60009054906101000a900473ffffffffffffffffffffffffffffffffffffffff1673ffffffffffffffffffffffffffffffffffffffff16636f9cf98585600160028111156116ff577f4e487b7100000000000000000000000000000000000000000000000000000000600052602160045260246000fd5b6040518363ffffffff1660e01b815260040161171c929190614b01565b60206040518083038186803b15801561173457600080fd5b505afa158015611748573d6000803e3d6000fd5b505050506040513d601f19601f8201168201806040525081019061176c9190613ebb565b9050600060cd60009054906101000a900473ffffffffffffffffffffffffffffffffffffffff1673ffffffffffffffffffffffffffffffffffffffff16636f9cf98533600060028111156117e9577f4e487b7100000000000000000000000000000000000000000000000000000000600052602160045260246000fd5b6040518363ffffffff1660e01b8152600401611806929190614b01565b60206040518083038186803b15801561181e57600080fd5b505afa158015611832573d6000803e3d6000fd5b505050506040513d601f19601f820116820180604052508101906118569190613ebb565b90506000611865338787611d5f565b50905080156118a9576040517f08c379a00000000000000000000000000000000000000000000000000000000081526004016118a090614dc1565b60405180910390fd5b816118e9576040517f08c379a00000000000000000000000000000000000000000000000000000000081526004016118e090614e61565b60405180910390fd5b82611929576040517f08c379a000000000000000000000000000000000000000000000000000000000815260040161192090614d81565b60405180910390fd5b600060ce60009054906101000a900473ffffffffffffffffffffffffffffffffffffffff1673ffffffffffffffffffffffffffffffffffffffff1663fc7e286d886040518263ffffffff1660e01b81526004016119869190614aaf565b60206040518083038186803b15801561199e57600080fd5b505afa1580156119b2573d6000803e3d6000fd5b505050506040513d601f19601f820116820180604052508101906119d69190613fd7565b11611a16576040517f08c379a0000000000000000000000000000000000000000000000000000000008152600401611a0d90614cc1565b60405180910390fd5b85846000019073ffffffffffffffffffffffffffffffffffffffff16908173ffffffffffffffffffffffffffffffffffffffff168152505042846020018181525050846005811115611a91577f4e487b7100000000000000000000000000000000000000000000000000000000600052602160045260246000fd5b84606001906005811115611ace577f4e487b7100000000000000000000000000000000000000000000000000000000600052602160045260246000fd5b90816005811115611b08577f4e487b7100000000000000000000000000000000000000000000000000000000600052602160045260246000fd5b8152505060cf60003373ffffffffffffffffffffffffffffffffffffffff1673ffffffffffffffffffffffffffffffffffffffff16815260200190815260200160002084908060018154018082558091505060019003906000526020600020906004020160009091909190915060008201518160000160006101000a81548173ffffffffffffffffffffffffffffffffffffffff021916908373ffffffffffffffffffffffffffffffffffffffff160217905550602082015181600101556040820151816002015560608201518160030160006101000a81548160ff02191690836005811115611c21577f4e487b7100000000000000000000000000000000000000000000000000000000600052602160045260246000fd5b021790555060808201518160030160016101000a81548160ff0219169083151502179055505050846005811115611c81577f4e487b7100000000000000000000000000000000000000000000000000000000600052602160045260246000fd5b6005811115611cb9577f4e487b7100000000000000000000000000000000000000000000000000000000600052602160045260246000fd5b8673ffffffffffffffffffffffffffffffffffffffff167fdb045b05e2cea9cac8289ec48770f5e3dff84ba85c4d3aeaaa75f81a16e2f4b933600160cf60003373ffffffffffffffffffffffffffffffffffffffff1673ffffffffffffffffffffffffffffffffffffffff16815260200190815260200160002080549050611d4191906150b7565b604051611d4f929190614b2a565b60405180910390a3505050505050565b60008060005b60cf60008773ffffffffffffffffffffffffffffffffffffffff1673ffffffffffffffffffffffffffffffffffffffff1681526020019081526020016000208054905081101561212f57836005811115611de8577f4e487b7100000000000000000000000000000000000000000000000000000000600052602160045260246000fd5b6005811115611e20577f4e487b7100000000000000000000000000000000000000000000000000000000600052602160045260246000fd5b60cf60008873ffffffffffffffffffffffffffffffffffffffff1673ffffffffffffffffffffffffffffffffffffffff1681526020019081526020016000208281548110611e97577f4e487b7100000000000000000000000000000000000000000000000000000000600052603260045260246000fd5b906000526020600020906004020160030160009054906101000a900460ff166005811115611eee577f4e487b7100000000000000000000000000000000000000000000000000000000600052602160045260246000fd5b148015611fce57508473ffffffffffffffffffffffffffffffffffffffff1660cf60008873ffffffffffffffffffffffffffffffffffffffff1673ffffffffffffffffffffffffffffffffffffffff1681526020019081526020016000208281548110611f84577f4e487b7100000000000000000000000000000000000000000000000000000000600052603260045260246000fd5b906000526020600020906004020160000160009054906101000a900473ffffffffffffffffffffffffffffffffffffffff1673ffffffffffffffffffffffffffffffffffffffff16145b801561206d575060cf60008773ffffffffffffffffffffffffffffffffffffffff1673ffffffffffffffffffffffffffffffffffffffff168152602001908152602001600020818154811061204c577f4e487b7100000000000000000000000000000000000000000000000000000000600052603260045260246000fd5b906000526020600020906004020160030160019054906101000a900460ff16155b1561211e57600060cf60008873ffffffffffffffffffffffffffffffffffffffff1673ffffffffffffffffffffffffffffffffffffffff16815260200190815260200160002082815481106120eb577f4e487b7100000000000000000000000000000000000000000000000000000000600052603260045260246000fd5b9060005260206000209060040201600201541115612110576001809250925050612138565b600160009250925050612138565b8061212890615234565b9050611d65565b50600080915091505b935093915050565b60ce60009054906101000a900473ffffffffffffffffffffffffffffffffffffffff1681565b60cb60003373ffffffffffffffffffffffffffffffffffffffff1673ffffffffffffffffffffffffffffffffffffffff168152602001908152602001600020600082815260200190815260200160002060009054906101000a900460ff1615612204576040517f08c379a00000000000000000000000000000000000000000000000000000000081526004016121fb90614d01565b60405180910390fd5b60006122103383610701565b905060c9828154811061224c577f4e487b7100000000000000000000000000000000000000000000000000000000600052603260045260246000fd5b90600052602060002001548151101561229a576040517f08c379a000000000000000000000000000000000000000000000000000000000815260040161229190614d21565b60405180910390fd5b600160cb60003373ffffffffffffffffffffffffffffffffffffffff1673ffffffffffffffffffffffffffffffffffffffff168152602001908152602001600020600084815260200190815260200160002060006101000a81548160ff0219169083151502179055506123468133846005811115612341577f4e487b7100000000000000000000000000000000000000000000000000000000600052602160045260246000fd5b612fb9565b3373ffffffffffffffffffffffffffffffffffffffff167f03606271d603b6a466bdd7e062ffffa529563dc83e949f6ac2b2d159f3c2f8a18360405161238c9190614ea1565b60405180910390a25050565b606060006006905060008167ffffffffffffffff8111156123e2577f4e487b7100000000000000000000000000000000000000000000000000000000600052604160045260246000fd5b6040519080825280602002602001820160405280156124105781602001602082028036833780820191505090505b50905060005b828110156124e25760cb60008673ffffffffffffffffffffffffffffffffffffffff1673ffffffffffffffffffffffffffffffffffffffff168152602001908152602001600020600082815260200190815260200160002060009054906101000a900460ff16156124cf5760018282815181106124bc577f4e487b7100000000000000000000000000000000000000000000000000000000600052603260045260246000fd5b6020026020010190151590811515815250505b80806124da90615234565b915050612416565b508092505050919050565b60cf602052816000526040600020818154811061250957600080fd5b9060005260206000209060040201600091509150508060000160009054906101000a900473ffffffffffffffffffffffffffffffffffffffff16908060010154908060020154908060030160009054906101000a900460ff16908060030160019054906101000a900460ff16905085565b60006125a1826097600086815260200190815260200160002061311290919063ffffffff16565b905092915050565b60006065600084815260200190815260200160002060000160008373ffffffffffffffffffffffffffffffffffffffff1673ffffffffffffffffffffffffffffffffffffffff16815260200190815260200160002060009054906101000a900460ff16905092915050565b600080836005811115612650577f4e487b7100000000000000000000000000000000000000000000000000000000600052602160045260246000fd5b6005811115612688577f4e487b7100000000000000000000000000000000000000000000000000000000600052602160045260246000fd5b60cf60008873ffffffffffffffffffffffffffffffffffffffff1673ffffffffffffffffffffffffffffffffffffffff16815260200190815260200160002084815481106126ff577f4e487b7100000000000000000000000000000000000000000000000000000000600052603260045260246000fd5b906000526020600020906004020160030160009054906101000a900460ff166005811115612756577f4e487b7100000000000000000000000000000000000000000000000000000000600052602160045260246000fd5b14801561283657508473ffffffffffffffffffffffffffffffffffffffff1660cf60008873ffffffffffffffffffffffffffffffffffffffff1673ffffffffffffffffffffffffffffffffffffffff16815260200190815260200160002084815481106127ec577f4e487b7100000000000000000000000000000000000000000000000000000000600052603260045260246000fd5b906000526020600020906004020160000160009054906101000a900473ffffffffffffffffffffffffffffffffffffffff1673ffffffffffffffffffffffffffffffffffffffff16145b80156128d5575060cf60008773ffffffffffffffffffffffffffffffffffffffff1673ffffffffffffffffffffffffffffffffffffffff16815260200190815260200160002083815481106128b4577f4e487b7100000000000000000000000000000000000000000000000000000000600052603260045260246000fd5b906000526020600020906004020160030160019054906101000a900460ff16155b1561298457600060cf60008873ffffffffffffffffffffffffffffffffffffffff1673ffffffffffffffffffffffffffffffffffffffff1681526020019081526020016000208481548110612953577f4e487b7100000000000000000000000000000000000000000000000000000000600052603260045260246000fd5b9060005260206000209060040201600201541115612977576001809150915061298c565b600160009150915061298c565b600080915091505b94509492505050565b7f61c92169ef077349011ff0b1383c894d86c5f0b41d986366b58a6cf31e93beda81565b6000801b81565b600082519050610100811115612a0b576040517f08c379a0000000000000000000000000000000000000000000000000000000008152600401612a0290614da1565b60405180910390fd5b60005b81811015612aab57612a98848281518110612a52577f4e487b7100000000000000000000000000000000000000000000000000000000600052603260045260246000fd5b6020026020010151846005811115612a93577f4e487b7100000000000000000000000000000000000000000000000000000000600052602160045260246000fd5b61167c565b8080612aa390615234565b915050612a0e565b50505050565b60ca6020528160005260406000208181548110612acd57600080fd5b90600052602060002001600091509150505481565b60cc6020528260005260406000206020528160005260406000208181548110612b0a57600080fd5b906000526020600020906020918282040191900692509250509054906101000a900460ff1681565b612b5c7f61c92169ef077349011ff0b1383c894d86c5f0b41d986366b58a6cf31e93beda336125a9565b612b9b576040517f08c379a0000000000000000000000000000000000000000000000000000000008152600401612b9290614e21565b60405180910390fd5b6000821415612bdf576040517f08c379a0000000000000000000000000000000000000000000000000000000008152600401612bd690614e41565b60405180910390fd5b60068111158015612bf1575060008110155b612c30576040517f08c379a0000000000000000000000000000000000000000000000000000000008152600401612c2790614d41565b60405180910390fd5b8160c98281548110612c6b577f4e487b7100000000000000000000000000000000000000000000000000000000600052603260045260246000fd5b90600052602060002001819055507f77141346a51f055f5bb35ecb1499b0bb7d9fbf1442b909bd3fd419820ccb98b282826005811115612cd4577f4e487b7100000000000000000000000000000000000000000000000000000000600052602160045260246000fd5b604051612ce2929190614ebc565b60405180910390a15050565b6000612d0b6097600084815260200190815260200160002061312c565b9050919050565b600060cc60008473ffffffffffffffffffffffffffffffffffffffff1673ffffffffffffffffffffffffffffffffffffffff16815260200190815260200160002060008373ffffffffffffffffffffffffffffffffffffffff1673ffffffffffffffffffffffffffffffffffffffff16815260200190815260200160002080549050905092915050565b612da68282613141565b612dcb8160976000858152602001908152602001600020612f5590919063ffffffff16565b505050565b60cb6020528160005260406000206020528060005260406000206000915091509054906101000a900460ff1681565b60007f7965db0b000000000000000000000000000000000000000000000000000000007bffffffffffffffffffffffffffffffffffffffffffffffffffffffff1916827bffffffffffffffffffffffffffffffffffffffffffffffffffffffff19161480612e725750612e718261316a565b5b9050919050565b612e828261116e565b612e9381612e8e6131d4565b6131dc565b612e9d8383613279565b505050565b6000612eca836000018373ffffffffffffffffffffffffffffffffffffffff1660001b61335a565b905092915050565b612eda6131d4565b73ffffffffffffffffffffffffffffffffffffffff168173ffffffffffffffffffffffffffffffffffffffff1614612f47576040517f08c379a0000000000000000000000000000000000000000000000000000000008152600401612f3e90614e81565b60405180910390fd5b612f5182826133ca565b5050565b6000612f7d836000018373ffffffffffffffffffffffffffffffffffffffff1660001b6134ac565b905092915050565b612f8f8282613632565b612fb48160976000858152602001908152602001600020612ea290919063ffffffff16565b505050565b60005b835181101561310c5760cc6000858381518110613002577f4e487b7100000000000000000000000000000000000000000000000000000000600052603260045260246000fd5b602002602001015173ffffffffffffffffffffffffffffffffffffffff1673ffffffffffffffffffffffffffffffffffffffff16815260200190815260200160002060008473ffffffffffffffffffffffffffffffffffffffff1673ffffffffffffffffffffffffffffffffffffffff1681526020019081526020016000208290806001815401808255809150506001900390600052602060002090602091828204019190069091909190916101000a81548160ff021916908360058111156130f4577f4e487b7100000000000000000000000000000000000000000000000000000000600052602160045260246000fd5b0217905550808061310490615234565b915050612fbc565b50505050565b60006131218360000183613640565b60001c905092915050565b600061313a82600001613691565b9050919050565b61314a8261116e565b61315b816131566131d4565b6131dc565b61316583836133ca565b505050565b60007f01ffc9a7000000000000000000000000000000000000000000000000000000007bffffffffffffffffffffffffffffffffffffffffffffffffffffffff1916827bffffffffffffffffffffffffffffffffffffffffffffffffffffffff1916149050919050565b600033905090565b6131e682826125a9565b6132755761320b8173ffffffffffffffffffffffffffffffffffffffff1660146136a2565b6132198360001c60206136a2565b60405160200161322a929190614a75565b6040516020818303038152906040526040517f08c379a000000000000000000000000000000000000000000000000000000000815260040161326c9190614c7f565b60405180910390fd5b5050565b61328382826125a9565b6133565760016065600084815260200190815260200160002060000160008373ffffffffffffffffffffffffffffffffffffffff1673ffffffffffffffffffffffffffffffffffffffff16815260200190815260200160002060006101000a81548160ff0219169083151502179055506132fb6131d4565b73ffffffffffffffffffffffffffffffffffffffff168173ffffffffffffffffffffffffffffffffffffffff16837f2f8788117e7eff1d82e926ec794901d17c78024a50270940304540a733656f0d60405160405180910390a45b5050565b6000613366838361399c565b6133bf5782600001829080600181540180825580915050600190039060005260206000200160009091909190915055826000018054905083600101600084815260200190815260200160002081905550600190506133c4565b600090505b92915050565b6133d482826125a9565b156134a85760006065600084815260200190815260200160002060000160008373ffffffffffffffffffffffffffffffffffffffff1673ffffffffffffffffffffffffffffffffffffffff16815260200190815260200160002060006101000a81548160ff02191690831515021790555061344d6131d4565b73ffffffffffffffffffffffffffffffffffffffff168173ffffffffffffffffffffffffffffffffffffffff16837ff6391f5c32d9c69d2a47ea670b442974b53935d1edc7fd64eb21e047a839171b60405160405180910390a45b5050565b600080836001016000848152602001908152602001600020549050600081146136265760006001826134de91906150b7565b90506000600186600001805490506134f691906150b7565b90508181146135b157600086600001828154811061353d577f4e487b7100000000000000000000000000000000000000000000000000000000600052603260045260246000fd5b9060005260206000200154905080876000018481548110613587577f4e487b7100000000000000000000000000000000000000000000000000000000600052603260045260246000fd5b90600052602060002001819055508387600101600083815260200190815260200160002081905550505b856000018054806135eb577f4e487b7100000000000000000000000000000000000000000000000000000000600052603160045260246000fd5b60019003818190600052602060002001600090559055856001016000868152602001908152602001600020600090556001935050505061362c565b60009150505b92915050565b61363c8282613279565b5050565b600082600001828154811061367e577f4e487b7100000000000000000000000000000000000000000000000000000000600052603260045260246000fd5b9060005260206000200154905092915050565b600081600001805490509050919050565b6060600060028360026136b5919061505d565b6136bf9190615007565b67ffffffffffffffff8111156136fe577f4e487b7100000000000000000000000000000000000000000000000000000000600052604160045260246000fd5b6040519080825280601f01601f1916602001820160405280156137305781602001600182028036833780820191505090505b5090507f30000000000000000000000000000000000000000000000000000000000000008160008151811061378e577f4e487b7100000000000000000000000000000000000000000000000000000000600052603260045260246000fd5b60200101907effffffffffffffffffffffffffffffffffffffffffffffffffffffffffffff1916908160001a9053507f780000000000000000000000000000000000000000000000000000000000000081600181518110613818577f4e487b7100000000000000000000000000000000000000000000000000000000600052603260045260246000fd5b60200101907effffffffffffffffffffffffffffffffffffffffffffffffffffffffffffff1916908160001a90535060006001846002613858919061505d565b6138629190615007565b90505b600181111561394e577f3031323334353637383961626364656600000000000000000000000000000000600f8616601081106138ca577f4e487b7100000000000000000000000000000000000000000000000000000000600052603260045260246000fd5b1a60f81b828281518110613907577f4e487b7100000000000000000000000000000000000000000000000000000000600052603260045260246000fd5b60200101907effffffffffffffffffffffffffffffffffffffffffffffffffffffffffffff1916908160001a905350600485901c9450806139479061520a565b9050613865565b5060008414613992576040517f08c379a000000000000000000000000000000000000000000000000000000000815260040161398990614ca1565b60405180910390fd5b8091505092915050565b600080836001016000848152602001908152602001600020541415905092915050565b828054828255906000526020600020908101928215613a00579160200282015b828111156139ff578251829060ff169055916020019190600101906139df565b5b509050613a0d9190613a90565b5090565b6040518060a00160405280600073ffffffffffffffffffffffffffffffffffffffff168152602001600081526020016000815260200160006005811115613a81577f4e487b7100000000000000000000000000000000000000000000000000000000600052602160045260246000fd5b81526020016000151581525090565b5b80821115613aa9576000816000905550600101613a91565b5090565b6000613ac0613abb84614f16565b614ee5565b90508083825260208201905082856020860282011115613adf57600080fd5b60005b85811015613b0f5781613af58882613b85565b845260208401935060208301925050600181019050613ae2565b5050509392505050565b6000613b2c613b2784614f42565b614ee5565b90508083825260208201905082856020860282011115613b4b57600080fd5b60005b85811015613b7b5781613b618882613c42565b845260208401935060208301925050600181019050613b4e565b5050509392505050565b600081359050613b9481615343565b92915050565b600082601f830112613bab57600080fd5b8135613bbb848260208601613aad565b91505092915050565b600082601f830112613bd557600080fd5b8135613be5848260208601613b19565b91505092915050565b600081519050613bfd8161535a565b92915050565b600081359050613c1281615371565b92915050565b600081359050613c2781615388565b92915050565b600081359050613c3c8161539f565b92915050565b600081359050613c51816153af565b92915050565b600081519050613c66816153af565b92915050565b600060208284031215613c7e57600080fd5b6000613c8c84828501613b85565b91505092915050565b60008060408385031215613ca857600080fd5b6000613cb685828601613b85565b9250506020613cc785828601613b85565b9150509250929050565b600080600060608486031215613ce657600080fd5b6000613cf486828701613b85565b9350506020613d0586828701613b85565b9250506040613d1686828701613c42565b9150509250925092565b60008060008060808587031215613d3657600080fd5b6000613d4487828801613b85565b9450506020613d5587828801613b85565b9350506040613d6687828801613c42565b9250506060613d7787828801613c42565b91505092959194509250565b60008060408385031215613d9657600080fd5b6000613da485828601613b85565b9250506020613db585828601613c2d565b9150509250929050565b60008060408385031215613dd257600080fd5b6000613de085828601613b85565b9250506020613df185828601613c42565b9150509250929050565b60008060408385031215613e0e57600080fd5b600083013567ffffffffffffffff811115613e2857600080fd5b613e3485828601613b9a565b925050602083013567ffffffffffffffff811115613e5157600080fd5b613e5d85828601613bc4565b9150509250929050565b60008060408385031215613e7a57600080fd5b600083013567ffffffffffffffff811115613e9457600080fd5b613ea085828601613b9a565b9250506020613eb185828601613c2d565b9150509250929050565b600060208284031215613ecd57600080fd5b6000613edb84828501613bee565b91505092915050565b600060208284031215613ef657600080fd5b6000613f0484828501613c03565b91505092915050565b60008060408385031215613f2057600080fd5b6000613f2e85828601613c03565b9250506020613f3f85828601613b85565b9150509250929050565b60008060408385031215613f5c57600080fd5b6000613f6a85828601613c03565b9250506020613f7b85828601613c42565b9150509250929050565b600060208284031215613f9757600080fd5b6000613fa584828501613c18565b91505092915050565b600060208284031215613fc057600080fd5b6000613fce84828501613c42565b91505092915050565b600060208284031215613fe957600080fd5b6000613ff784828501613c57565b91505092915050565b6000806040838503121561401357600080fd5b600061402185828601613c42565b925050602061403285828601613c42565b9150509250929050565b6000614048838361406c565b60208301905092915050565b60006140608383614146565b60208301905092915050565b614075816150eb565b82525050565b614084816150eb565b82525050565b600061409582614f8e565b61409f8185614fc9565b93506140aa83614f6e565b8060005b838110156140db5781516140c2888261403c565b97506140cd83614faf565b9250506001810190506140ae565b5085935050505092915050565b60006140f382614f99565b6140fd8185614fda565b935061410883614f7e565b8060005b838110156141395781516141208882614054565b975061412b83614fbc565b92505060018101905061410c565b5085935050505092915050565b61414f816150fd565b82525050565b61415e816150fd565b82525050565b61416d81615109565b82525050565b61417c8161518f565b82525050565b61418b816151b3565b82525050565b61419a816151c5565b82525050565b60006141ab82614fa4565b6141b58185614feb565b93506141c58185602086016151d7565b6141ce8161530a565b840191505092915050565b60006141e482614fa4565b6141ee8185614ffc565b93506141fe8185602086016151d7565b80840191505092915050565b6000614217602083614feb565b91507f537472696e67733a20686578206c656e67746820696e73756666696369656e746000830152602082019050919050565b6000614257604d83614feb565b91507f436f686f7274466163746f72793a696e7669746556616c696461746f72202d2060008301527f546869732076616c696461746f7220686173206e6f74207374616b656420616e60208301527f7920746f6b656e73207965742e000000000000000000000000000000000000006040830152606082019050919050565b60006142e3603e83614feb565b91507f436f686f7274466163746f72793a616363657074496e7669746174696f6e202d60008301527f205468697320696e7669746174696f6e20646f65736e277420657869737400006020830152604082019050919050565b6000614349603883614feb565b91507f436f686f7274466163746f72793a637265617465436f686f7274202d2054686960008301527f7320636f686f727420616c7265616479206578697374732e00000000000000006020830152604082019050919050565b60006143af604983614feb565b91507f436f686f7274466163746f72793a637265617465436f686f7274202d204e756d60008301527f626572206f662076616c696461746f72732062656c6f7720726571756972656460208301527f206d696e696d756d2e00000000000000000000000000000000000000000000006040830152606082019050919050565b600061443b604f83614feb565b91507f436f686f727420466163746f72793a7570646174654d696e56616c696461746f60008301527f7273506572436f686f7274202d20417564697420747970652068617320746f2060208301527f6265203c3d203520616e64203e3d3000000000000000000000000000000000006040830152606082019050919050565b60006144c7604b83614feb565b91507f436f686f7274466163746f72793a616363657074496e7669746174696f6e2d2060008301527f5468697320696e7669746174696f6e20686173206265656e206163636570746560208301527f6420616c7265616479202e0000000000000000000000000000000000000000006040830152606082019050919050565b6000614553604883614feb565b91507f436f686f7274466163746f72793a696e7669746556616c696461746f72202d2060008301527f4f6e6c7920417070726f7665642056616c696461746f72732063616e2062652060208301527f696e76697465642e0000000000000000000000000000000000000000000000006040830152606082019050919050565b60006145df603483614feb565b91507f436f686f7274466163746f72792d696e7669746556616c696461746f724d756c60008301527f7469706c653a204c69737420746f6f206c6f6e670000000000000000000000006020830152604082019050919050565b6000614645606183614feb565b91507f436f686f7274466163746f72793a696e7669746556616c696461746f72202d2060008301527f546869732076616c696461746f7220686173206265656e20616c72656164792060208301527f696e766974656420666f7220746869732076616c69646174696f6e207479706560408301527f2e000000000000000000000000000000000000000000000000000000000000006060830152608082019050919050565b60006146f7601d83614feb565b91507f5468697320696e7669746174696f6e20646f65736e27742065786973740000006000830152602082019050919050565b6000614737607d83614feb565b91507f436f686f7274466163746f72793a616363657074496e7669746174696f6e202d60008301527f20596f752061726520616363657074696e6720696e7669746174696f6e20746f60208301527f20776869636820796f752077657265206e6f7420696e7669746564206f72207460408301527f68697320696e7669746174696f6e20646f65736e27742065786973742e0000006060830152608082019050919050565b60006147e9602983614feb565b91507f4d656d626572733a6973536574746572202d2043616c6c6572206973206e6f7460008301527f20612073657474657200000000000000000000000000000000000000000000006020830152604082019050919050565b600061484f606383614feb565b91507f436f686f7274466163746f72793a7570646174654d696e56616c696461746f7260008301527f73506572436f686f7274202d204e65772076616c756520666f7220746865202060208301527f6d696e2076616c696461746f722070657220636f686f72742063616e2774206260408301527f65203000000000000000000000000000000000000000000000000000000000006060830152608082019050919050565b6000614901601783614ffc565b91507f416363657373436f6e74726f6c3a206163636f756e74200000000000000000006000830152601782019050919050565b6000614941604b83614feb565b91507f436f686f7274466163746f72793a696e7669746556616c696461746f72202d2060008301527f4f6e6c7920456e746572707269736520757365722063616e20696e766974652060208301527f56616c696461746f72732e0000000000000000000000000000000000000000006040830152606082019050919050565b60006149cd601183614ffc565b91507f206973206d697373696e6720726f6c65200000000000000000000000000000006000830152601182019050919050565b6000614a0d602f83614feb565b91507f416363657373436f6e74726f6c3a2063616e206f6e6c792072656e6f756e636560008301527f20726f6c657320666f722073656c6600000000000000000000000000000000006020830152604082019050919050565b614a6f81615185565b82525050565b6000614a80826148f4565b9150614a8c82856141d9565b9150614a97826149c0565b9150614aa382846141d9565b91508190509392505050565b6000602082019050614ac4600083018461407b565b92915050565b6000606082019050614adf600083018661407b565b614aec6020830185614182565b614af9604083018461407b565b949350505050565b6000604082019050614b16600083018561407b565b614b236020830184614191565b9392505050565b6000604082019050614b3f600083018561407b565b614b4c6020830184614a66565b9392505050565b600060a082019050614b68600083018861407b565b614b756020830187614a66565b614b826040830186614a66565b614b8f6060830185614182565b614b9c6080830184614155565b9695505050505050565b60006020820190508181036000830152614bc0818461408a565b905092915050565b60006020820190508181036000830152614be281846140e8565b905092915050565b6000602082019050614bff6000830184614155565b92915050565b6000604082019050614c1a6000830185614155565b614c276020830184614155565b9392505050565b6000602082019050614c436000830184614164565b92915050565b6000602082019050614c5e6000830184614173565b92915050565b6000602082019050614c796000830184614182565b92915050565b60006020820190508181036000830152614c9981846141a0565b905092915050565b60006020820190508181036000830152614cba8161420a565b9050919050565b60006020820190508181036000830152614cda8161424a565b9050919050565b60006020820190508181036000830152614cfa816142d6565b9050919050565b60006020820190508181036000830152614d1a8161433c565b9050919050565b60006020820190508181036000830152614d3a816143a2565b9050919050565b60006020820190508181036000830152614d5a8161442e565b9050919050565b60006020820190508181036000830152614d7a816144ba565b9050919050565b60006020820190508181036000830152614d9a81614546565b9050919050565b60006020820190508181036000830152614dba816145d2565b9050919050565b60006020820190508181036000830152614dda81614638565b9050919050565b60006020820190508181036000830152614dfa816146ea565b9050919050565b60006020820190508181036000830152614e1a8161472a565b9050919050565b60006020820190508181036000830152614e3a816147dc565b9050919050565b60006020820190508181036000830152614e5a81614842565b9050919050565b60006020820190508181036000830152614e7a81614934565b9050919050565b60006020820190508181036000830152614e9a81614a00565b9050919050565b6000602082019050614eb66000830184614a66565b92915050565b6000604082019050614ed16000830185614a66565b614ede6020830184614182565b9392505050565b6000604051905081810181811067ffffffffffffffff82111715614f0c57614f0b6152db565b5b8060405250919050565b600067ffffffffffffffff821115614f3157614f306152db565b5b602082029050602081019050919050565b600067ffffffffffffffff821115614f5d57614f5c6152db565b5b602082029050602081019050919050565b6000819050602082019050919050565b6000819050602082019050919050565b600081519050919050565b600081519050919050565b600081519050919050565b6000602082019050919050565b6000602082019050919050565b600082825260208201905092915050565b600082825260208201905092915050565b600082825260208201905092915050565b600081905092915050565b600061501282615185565b915061501d83615185565b9250827fffffffffffffffffffffffffffffffffffffffffffffffffffffffffffffffff038211156150525761505161527d565b5b828201905092915050565b600061506882615185565b915061507383615185565b9250817fffffffffffffffffffffffffffffffffffffffffffffffffffffffffffffffff04831182151516156150ac576150ab61527d565b5b828202905092915050565b60006150c282615185565b91506150cd83615185565b9250828210156150e0576150df61527d565b5b828203905092915050565b60006150f682615165565b9050919050565b60008115159050919050565b6000819050919050565b60007fffffffff0000000000000000000000000000000000000000000000000000000082169050919050565b600081905061514d8261531b565b919050565b60008190506151608261532f565b919050565b600073ffffffffffffffffffffffffffffffffffffffff82169050919050565b6000819050919050565b600061519a826151a1565b9050919050565b60006151ac82615165565b9050919050565b60006151be8261513f565b9050919050565b60006151d082615152565b9050919050565b60005b838110156151f55780820151818401526020810190506151da565b83811115615204576000848401525b50505050565b600061521582615185565b915060008214156152295761522861527d565b5b600182039050919050565b600061523f82615185565b91507fffffffffffffffffffffffffffffffffffffffffffffffffffffffffffffffff8214156152725761527161527d565b5b600182019050919050565b7f4e487b7100000000000000000000000000000000000000000000000000000000600052601160045260246000fd5b7f4e487b7100000000000000000000000000000000000000000000000000000000600052602160045260246000fd5b7f4e487b7100000000000000000000000000000000000000000000000000000000600052604160045260246000fd5b6000601f19601f8301169050919050565b6006811061532c5761532b6152ac565b5b50565b600381106153405761533f6152ac565b5b50565b61534c816150eb565b811461535757600080fd5b50565b615363816150fd565b811461536e57600080fd5b50565b61537a81615109565b811461538557600080fd5b50565b61539181615113565b811461539c57600080fd5b50565b600681106153ac57600080fd5b50565b6153b881615185565b81146153c357600080fd5b5056fea2646970667358221220f8ffff2156ecfff475ffe5abd3dccf76347c15d47b866f18d02b8685b0f7ebac64736f6c63430008000033",
  "immutableReferences": {},
  "source": "// SPDX-License-Identifier: MIT\npragma solidity =0.8.0;\nimport \"./Members.sol\";\nimport \"./MemberHelpers.sol\";\nimport \"@openzeppelin/contracts-upgradeable/access/AccessControlEnumerableUpgradeable.sol\";\n\n\n/**\n * @title CohortFactory\n * Allows on creation of invitations by Enterprise and acceptance of Validators of those \n * invitations. Finally Enterprise can create cohort consisting of invited Validators\n * and Enterprise. \n */\n\ncontract CohortFactory is  AccessControlEnumerableUpgradeable {\n\n // Audit types to be used. Two types added for future expansion \n    enum AuditTypes {\n        Unknown, Financial, System, NFT, Type4, Type5\n    }\n\n    uint256[] public minValidatorPerCohort;\n    bytes32 public constant SETTER_ROLE =  keccak256(\"SETTER_ROLE\");\n\n\n    // Invitation structure to hold info about its status\n    struct Invitation {\n        // address enterprise;\n        address validator;\n        uint256 invitationDate;      \n        uint256 acceptanceDate;\n        AuditTypes audits;\n        // address cohort;\n        bool deleted;\n    }\n\n    // struct Cohorts {\n    //     AuditTypes audits;\n    // }\n\n    mapping(address => uint256[]) public cohortList;\n    mapping(address => mapping(uint256=>bool)) public cohortMap;\n    mapping (address => mapping(address=> AuditTypes[])) public validatorCohortList;  // list of validators\n    \n\n    Members members;                                            // pointer to Members contract1 \n    MemberHelpers public memberHelpers;                                       \n    mapping (address =>  Invitation[]) public invitations;      // invitations list\n    address platformAddress;                                    // address to deposit platform fees\n\n\n    event ValidatorInvited(address  inviting, address indexed invitee, AuditTypes indexed audits, uint256 invitationNumber);\n    event InvitationAccepted(address indexed validator, uint256 invitationNumber);\n    event CohortCreated(address indexed enterprise, uint256 audits);\n    event UpdateMinValidatorsPerCohort(uint256 minValidatorPerCohort, AuditTypes audits);\n    event ValidatorCleared(address validator, AuditTypes audit, address enterprise);\n\n\n     /// @dev check if caller is a setter     \n    modifier isSetter {\n        require(hasRole(SETTER_ROLE, msg.sender), \"Members:isSetter - Caller is not a setter\");\n\n        _;\n    }    \n\n\n    function initialize(address _members, address _memberHelpers) public  {\n        members = Members(_members);\n        memberHelpers = MemberHelpers(_memberHelpers);\n        minValidatorPerCohort = [3,3,3,3,3,3];\n        _setupRole(DEFAULT_ADMIN_ROLE, msg.sender); // \n    }\n\n\n   /**\n    * @dev to be called by Governance contract to update new value for min validators per cohort\n    * @param _minValidatorPerCohort new value \n    * @param audits type of validations\n    */\n    function updateMinValidatorsPerCohort(uint256 _minValidatorPerCohort, uint256 audits) public  isSetter()  {\n\n        require(_minValidatorPerCohort != 0, \"CohortFactory:updateMinValidatorsPerCohort - New value for the  min validator per cohort can't be 0\");\n        require(audits <= 6 && audits >=0 , \"Cohort Factory:updateMinValidatorsPerCohort - Audit type has to be <= 5 and >=0\");\n        minValidatorPerCohort[audits] = _minValidatorPerCohort;\n        emit UpdateMinValidatorsPerCohort(_minValidatorPerCohort, AuditTypes(audits));\n    }\n\n    /**\n    * @dev Used by Enterprise to invite validator\n    * @param validator address of the validator to invite\n    * @param audit type of the audit\n    */\n    function inviteValidator(address validator, uint256 audit) public {\n\n        Invitation memory newInvitation;\n        bool isValidator = members.userMap(validator, Members.UserType(1));\n        bool isEnterprise = members.userMap(msg.sender, Members.UserType(0));\n        (bool invited, ) = isValidatorInvited(msg.sender, validator, audit);\n        require( !invited , \"CohortFactory:inviteValidator - This validator has been already invited for this validation type.\" );\n        require( isEnterprise, \"CohortFactory:inviteValidator - Only Enterprise user can invite Validators.\");\n        require( isValidator, \"CohortFactory:inviteValidator - Only Approved Validators can be invited.\");\n        require( memberHelpers.deposits(validator) > 0,\"CohortFactory:inviteValidator - This validator has not staked any tokens yet.\");\n        newInvitation.validator = validator;\n        newInvitation.invitationDate = block.timestamp;     \n        newInvitation.audits = AuditTypes(audit);   \n        invitations[msg.sender].push(newInvitation);\n       \n        emit ValidatorInvited(msg.sender, validator, AuditTypes(audit), invitations[msg.sender].length - 1);\n    }\n    \n\n    /**\n    * @dev Used by Enterprise to invite multiple validators in one call \n    * @param validator address of the validator to invite\n    * @param audit type of the audit\n    */\n    function inviteValidatorMultiple(address[] memory validator, AuditTypes audit) public{\n\n        uint256 length = validator.length;\n        require(length <= 256, \"CohortFactory-inviteValidatorMultiple: List too long\");\n        for (uint256 i = 0; i < length; i++) {\n            inviteValidator(validator[i], uint256(audit));\n        }\n    }\n\n    /**\n    * @dev Used by Validator to accept Enterprise invitation\n    * @param enterprise address of the Enterprise who created invitation\n    * @param invitationNumber invitation number\n    */\n    function acceptInvitation(address enterprise, uint256 invitationNumber) public {\n\n        require( invitations[enterprise].length > invitationNumber, \"CohortFactory:acceptInvitation - This invitation doesn't exist\");\n        require( invitations[enterprise][invitationNumber].acceptanceDate == 0, \"CohortFactory:acceptInvitation- This invitation has been accepted already .\");\n        require( invitations[enterprise][invitationNumber].validator == msg.sender, \"CohortFactory:acceptInvitation - You are accepting invitation to which you were not invited or this invitation doesn't exist.\");\n        invitations[enterprise][invitationNumber].acceptanceDate = block.timestamp;\n          \n        emit InvitationAccepted(msg.sender, invitationNumber);\n    }\n\n\n    function clearInvitationRemoveValidator(address validator, AuditTypes audit) public  returns (bool) {\n\n        for (uint256 i = 0; i < invitations[msg.sender].length; i++){\n            if (invitations[msg.sender][i].audits == audit && invitations[msg.sender][i].validator ==  validator){\n                invitations[msg.sender][i].deleted = true;                \n                emit ValidatorCleared(validator, audit, msg.sender);\n                return true;\n            }\n        }\n\n\n        revert(\"This invitation doesn't exist\");\n    }\n\n    /**\n    * @dev Used by Validator to accept multiple Enterprise invitation\n    * @param enterprise address of the Enterprise who created invitation\n    * @param invitationNumber invitation number\n    */\n    function acceptInvitationMultiple(address[] memory enterprise, uint256[] memory invitationNumber) public{\n\n        uint256 length = enterprise.length;\n        for (uint256 i = 0; i < length; i++) {\n            acceptInvitation(enterprise[i], invitationNumber[i]);\n        }\n    }\n\n    /**\n    * @dev To return invitation count\n    * @param enterprise address of the Enterprise who created invitation\n    * @param audit type\n    * @return count of invitations\n    */\n    function returnInvitationCount(address enterprise, AuditTypes audit) public view returns(uint256) {\n\n        uint256 count;\n\n        for (uint i=0; i < invitations[enterprise].length; ++i ){\n            if (invitations[enterprise][i].audits == audit && \n                invitations[enterprise][i].acceptanceDate != 0 &&\n                !invitations[enterprise][i].deleted)\n                count ++;\n        }\n        return count;\n    }\n\n    /**\n    * @dev Used to determine if validator has been invited and/or if validation has been accepted\n    * @param enterprise inviting party\n    * @param validator address of the validator\n    * @param audits types\n    * @return true if invited\n    * @return true if accepted invitation\n    */\n    function isValidatorInvited(address enterprise, address validator, uint256 audits) public view returns (bool, bool) {\n\n        for (uint i=0; i < invitations[enterprise].length; ++i ){\n            if (invitations[enterprise][i].audits == AuditTypes(audits) && \n                invitations[enterprise][i].validator == validator &&\n                !invitations[enterprise][i].deleted){\n                if (invitations[enterprise][i].acceptanceDate > 0)\n                    return (true, true);\n                return (true, false);\n            }\n        }\n        return (false, false);\n    }\n\n     /**\n    * @dev Used to determine if validator has been invited and/or if validation has been accepted\n    * @param enterprise inviting party\n    * @param validator address of the validator\n    * @param audits types\n    * @param invitNumber invitation number\n    * @return true if invited\n    * @return true if accepted invitation\n    */\n    function isValidatorInvitedNumber(address enterprise, address validator, uint256 audits, uint256 invitNumber) public view returns (bool, bool) {\n\n        if (invitations[enterprise][invitNumber].audits == AuditTypes(audits) && \n            invitations[enterprise][invitNumber].validator == validator &&\n            !invitations[enterprise][invitNumber].deleted){\n            if (invitations[enterprise][invitNumber].acceptanceDate > 0)\n                return (true, true);\n            return (true, false);\n        }\n        return (false, false);\n    }\n\n    /**\n    * @dev Returns true for audit types for which enterprise has created cohorts.\n    * @param enterprise inviting party\n    * @return list of boolean variables with value true for audit types enterprise has initiated cohort, \n    */\n    function returnCohorts(address enterprise) public view returns (bool[] memory){\n\n        uint256 auditCount = 6;\n        bool[] memory audits = new bool[](auditCount);\n\n        for (uint256 i; i < auditCount; i++){\n            if (cohortMap[enterprise][i])\n               audits[i] = true;\n        }\n        return (audits);\n    }\n\n\n    /**\n    * @dev Returns list of validators \n    * @param enterprise to get list for\n    * @param audit type of audits\n    * @return list of boolean variables with value true for audit types enterprise has initiated cohort, \n    */\n    function returnValidatorList(address enterprise, uint256 audit)public view returns(address[] memory){\n\n        address[] memory validatorsList = new address[](returnInvitationCount(enterprise, AuditTypes(audit)));\n        uint k;\n        for (uint i=0; i < invitations[enterprise].length; ++i ){\n            if (uint256(invitations[enterprise][i].audits) == audit && invitations[enterprise][i].acceptanceDate > 0){\n                validatorsList[k] = invitations[enterprise][i].validator;\n                k++;\n            }\n        }\n        return validatorsList;\n    }\n\n     /**\n    * @dev create a list of validators to be initialized in new cohort   \n    * @param validators any array of address of the validators\n    * @param enterprise who created cohort\n    * @param audit  type of audit\n    */\n    function createValidatorCohortList(address[] memory validators, address enterprise, AuditTypes audit) internal {\n\n        for (uint256 i=0; i< validators.length; i++){\n            validatorCohortList[validators[i]][enterprise].push(audit);\n        }\n    }\n\n\n   /**\n    * @dev Used to determine cohorts count for given validator\n    * @param validator address of the validator\n    * @return number of cohorts\n    */ \n    function returnValidatorCohortsCount(address validator, address enterprise) public view returns (uint256){\n\n        return validatorCohortList[validator][enterprise].length;\n    }\n\n    /**\n    * @dev Initiate creation of a new cohort \n    * @param audit type\n    */\n    function createCohort(uint256 audit) public {\n        require(!cohortMap[msg.sender][uint256(audit)] , \"CohortFactory:createCohort - This cohort already exists.\");\n        address[] memory validators =  returnValidatorList(msg.sender, audit);\n        require(validators.length >= minValidatorPerCohort[uint256(audit)], \"CohortFactory:createCohort - Number of validators below required minimum.\");\n        cohortMap[msg.sender][uint256(audit)] = true;   \n        createValidatorCohortList(validators, msg.sender, AuditTypes(audit));\n        emit CohortCreated(msg.sender, audit);\n        \n    }\n}\n",
  "sourcePath": "/home/win2win/eth/projects/AuditChain/Core-Smart-Contracts-v1-upgradable/contracts/Auditchain/CohortFacotory.sol",
  "compiler": {
    "name": "solc",
    "version": "0.8.0+commit.c7dfd78e.Emscripten.clang"
  },
  "schemaVersion": "3.4.1",
  "updatedAt": "2022-05-03T20:34:42.762Z",
  "networkType": "ethereum",
  "devdoc": {
    "kind": "dev",
    "methods": {
      "acceptInvitation(address,uint256)": {
        "details": "Used by Validator to accept Enterprise invitation",
        "params": {
          "enterprise": "address of the Enterprise who created invitation",
          "invitationNumber": "invitation number"
        }
      },
      "acceptInvitationMultiple(address[],uint256[])": {
        "details": "Used by Validator to accept multiple Enterprise invitation",
        "params": {
          "enterprise": "address of the Enterprise who created invitation",
          "invitationNumber": "invitation number"
        }
      },
      "createCohort(uint256)": {
        "details": "Initiate creation of a new cohort ",
        "params": {
          "audit": "type"
        }
      },
      "getRoleAdmin(bytes32)": {
        "details": "Returns the admin role that controls `role`. See {grantRole} and {revokeRole}. To change a role's admin, use {_setRoleAdmin}."
      },
      "getRoleMember(bytes32,uint256)": {
        "details": "Returns one of the accounts that have `role`. `index` must be a value between 0 and {getRoleMemberCount}, non-inclusive. Role bearers are not sorted in any particular way, and their ordering may change at any point. WARNING: When using {getRoleMember} and {getRoleMemberCount}, make sure you perform all queries on the same block. See the following https://forum.openzeppelin.com/t/iterating-over-elements-on-enumerableset-in-openzeppelin-contracts/2296[forum post] for more information."
      },
      "getRoleMemberCount(bytes32)": {
        "details": "Returns the number of accounts that have `role`. Can be used together with {getRoleMember} to enumerate all bearers of a role."
      },
      "grantRole(bytes32,address)": {
        "details": "Overload {grantRole} to track enumerable memberships"
      },
      "hasRole(bytes32,address)": {
        "details": "Returns `true` if `account` has been granted `role`."
      },
      "inviteValidator(address,uint256)": {
        "details": "Used by Enterprise to invite validator",
        "params": {
          "audit": "type of the audit",
          "validator": "address of the validator to invite"
        }
      },
      "inviteValidatorMultiple(address[],uint8)": {
        "details": "Used by Enterprise to invite multiple validators in one call ",
        "params": {
          "audit": "type of the audit",
          "validator": "address of the validator to invite"
        }
      },
      "isValidatorInvited(address,address,uint256)": {
        "details": "Used to determine if validator has been invited and/or if validation has been accepted",
        "params": {
          "audits": "types",
          "enterprise": "inviting party",
          "validator": "address of the validator"
        },
        "returns": {
          "_0": "true if invited",
          "_1": "true if accepted invitation"
        }
      },
      "isValidatorInvitedNumber(address,address,uint256,uint256)": {
        "details": "Used to determine if validator has been invited and/or if validation has been accepted",
        "params": {
          "audits": "types",
          "enterprise": "inviting party",
          "invitNumber": "invitation number",
          "validator": "address of the validator"
        },
        "returns": {
          "_0": "true if invited",
          "_1": "true if accepted invitation"
        }
      },
      "renounceRole(bytes32,address)": {
        "details": "Overload {renounceRole} to track enumerable memberships"
      },
      "returnCohorts(address)": {
        "details": "Returns true for audit types for which enterprise has created cohorts.",
        "params": {
          "enterprise": "inviting party"
        },
        "returns": {
          "_0": "list of boolean variables with value true for audit types enterprise has initiated cohort, "
        }
      },
      "returnInvitationCount(address,uint8)": {
        "details": "To return invitation count",
        "params": {
          "audit": "type",
          "enterprise": "address of the Enterprise who created invitation"
        },
        "returns": {
          "_0": "count of invitations"
        }
      },
      "returnValidatorCohortsCount(address,address)": {
        "details": "Used to determine cohorts count for given validator",
        "params": {
          "validator": "address of the validator"
        },
        "returns": {
          "_0": "number of cohorts"
        }
      },
      "returnValidatorList(address,uint256)": {
        "details": "Returns list of validators ",
        "params": {
          "audit": "type of audits",
          "enterprise": "to get list for"
        },
        "returns": {
          "_0": "list of boolean variables with value true for audit types enterprise has initiated cohort, "
        }
      },
      "revokeRole(bytes32,address)": {
        "details": "Overload {revokeRole} to track enumerable memberships"
      },
      "supportsInterface(bytes4)": {
        "details": "See {IERC165-supportsInterface}."
      },
      "updateMinValidatorsPerCohort(uint256,uint256)": {
        "details": "to be called by Governance contract to update new value for min validators per cohort",
        "params": {
          "_minValidatorPerCohort": "new value ",
          "audits": "type of validations"
        }
      }
    },
    "title": "CohortFactory Allows on creation of invitations by Enterprise and acceptance of Validators of those  invitations. Finally Enterprise can create cohort consisting of invited Validators and Enterprise. ",
    "version": 1
  },
  "userdoc": {
    "kind": "user",
    "methods": {},
    "version": 1
  }
}