{
  "contractName": "CohortFactory",
  "abi": [
    {
      "anonymous": false,
      "inputs": [
        {
          "indexed": true,
          "internalType": "address",
          "name": "enterprise",
          "type": "address"
        },
        {
          "indexed": false,
          "internalType": "uint256",
          "name": "audits",
          "type": "uint256"
        }
      ],
      "name": "CohortCreated",
      "type": "event"
    },
    {
      "anonymous": false,
      "inputs": [
        {
          "indexed": true,
          "internalType": "address",
          "name": "validator",
          "type": "address"
        },
        {
          "indexed": false,
          "internalType": "uint256",
          "name": "invitationNumber",
          "type": "uint256"
        }
      ],
      "name": "InvitationAccepted",
      "type": "event"
    },
    {
      "anonymous": false,
      "inputs": [
        {
          "indexed": true,
          "internalType": "bytes32",
          "name": "role",
          "type": "bytes32"
        },
        {
          "indexed": true,
          "internalType": "bytes32",
          "name": "previousAdminRole",
          "type": "bytes32"
        },
        {
          "indexed": true,
          "internalType": "bytes32",
          "name": "newAdminRole",
          "type": "bytes32"
        }
      ],
      "name": "RoleAdminChanged",
      "type": "event"
    },
    {
      "anonymous": false,
      "inputs": [
        {
          "indexed": true,
          "internalType": "bytes32",
          "name": "role",
          "type": "bytes32"
        },
        {
          "indexed": true,
          "internalType": "address",
          "name": "account",
          "type": "address"
        },
        {
          "indexed": true,
          "internalType": "address",
          "name": "sender",
          "type": "address"
        }
      ],
      "name": "RoleGranted",
      "type": "event"
    },
    {
      "anonymous": false,
      "inputs": [
        {
          "indexed": true,
          "internalType": "bytes32",
          "name": "role",
          "type": "bytes32"
        },
        {
          "indexed": true,
          "internalType": "address",
          "name": "account",
          "type": "address"
        },
        {
          "indexed": true,
          "internalType": "address",
          "name": "sender",
          "type": "address"
        }
      ],
      "name": "RoleRevoked",
      "type": "event"
    },
    {
      "anonymous": false,
      "inputs": [
        {
          "indexed": false,
          "internalType": "uint256",
          "name": "minValidatorPerCohort",
          "type": "uint256"
        },
        {
          "indexed": false,
          "internalType": "enum CohortFactory.AuditTypes",
          "name": "audits",
          "type": "uint8"
        }
      ],
      "name": "UpdateMinValidatorsPerCohort",
      "type": "event"
    },
    {
      "anonymous": false,
      "inputs": [
        {
          "indexed": false,
          "internalType": "address",
          "name": "validator",
          "type": "address"
        },
        {
          "indexed": false,
          "internalType": "enum CohortFactory.AuditTypes",
          "name": "audit",
          "type": "uint8"
        },
        {
          "indexed": false,
          "internalType": "address",
          "name": "enterprise",
          "type": "address"
        }
      ],
      "name": "ValidatorCleared",
      "type": "event"
    },
    {
      "anonymous": false,
      "inputs": [
        {
          "indexed": false,
          "internalType": "address",
          "name": "inviting",
          "type": "address"
        },
        {
          "indexed": true,
          "internalType": "address",
          "name": "invitee",
          "type": "address"
        },
        {
          "indexed": true,
          "internalType": "enum CohortFactory.AuditTypes",
          "name": "audits",
          "type": "uint8"
        },
        {
          "indexed": false,
          "internalType": "uint256",
          "name": "invitationNumber",
          "type": "uint256"
        }
      ],
      "name": "ValidatorInvited",
      "type": "event"
    },
    {
      "inputs": [],
      "name": "DEFAULT_ADMIN_ROLE",
      "outputs": [
        {
          "internalType": "bytes32",
          "name": "",
          "type": "bytes32"
        }
      ],
      "stateMutability": "view",
      "type": "function"
    },
    {
      "inputs": [],
      "name": "SETTER_ROLE",
      "outputs": [
        {
          "internalType": "bytes32",
          "name": "",
          "type": "bytes32"
        }
      ],
      "stateMutability": "view",
      "type": "function"
    },
    {
      "inputs": [
        {
          "internalType": "address",
          "name": "",
          "type": "address"
        },
        {
          "internalType": "uint256",
          "name": "",
          "type": "uint256"
        }
      ],
      "name": "cohortList",
      "outputs": [
        {
          "internalType": "uint256",
          "name": "",
          "type": "uint256"
        }
      ],
      "stateMutability": "view",
      "type": "function"
    },
    {
      "inputs": [
        {
          "internalType": "address",
          "name": "",
          "type": "address"
        },
        {
          "internalType": "uint256",
          "name": "",
          "type": "uint256"
        }
      ],
      "name": "cohortMap",
      "outputs": [
        {
          "internalType": "bool",
          "name": "",
          "type": "bool"
        }
      ],
      "stateMutability": "view",
      "type": "function"
    },
    {
      "inputs": [
        {
          "internalType": "bytes32",
          "name": "role",
          "type": "bytes32"
        }
      ],
      "name": "getRoleAdmin",
      "outputs": [
        {
          "internalType": "bytes32",
          "name": "",
          "type": "bytes32"
        }
      ],
      "stateMutability": "view",
      "type": "function"
    },
    {
      "inputs": [
        {
          "internalType": "bytes32",
          "name": "role",
          "type": "bytes32"
        },
        {
          "internalType": "uint256",
          "name": "index",
          "type": "uint256"
        }
      ],
      "name": "getRoleMember",
      "outputs": [
        {
          "internalType": "address",
          "name": "",
          "type": "address"
        }
      ],
      "stateMutability": "view",
      "type": "function"
    },
    {
      "inputs": [
        {
          "internalType": "bytes32",
          "name": "role",
          "type": "bytes32"
        }
      ],
      "name": "getRoleMemberCount",
      "outputs": [
        {
          "internalType": "uint256",
          "name": "",
          "type": "uint256"
        }
      ],
      "stateMutability": "view",
      "type": "function"
    },
    {
      "inputs": [
        {
          "internalType": "bytes32",
          "name": "role",
          "type": "bytes32"
        },
        {
          "internalType": "address",
          "name": "account",
          "type": "address"
        }
      ],
      "name": "grantRole",
      "outputs": [],
      "stateMutability": "nonpayable",
      "type": "function"
    },
    {
      "inputs": [
        {
          "internalType": "bytes32",
          "name": "role",
          "type": "bytes32"
        },
        {
          "internalType": "address",
          "name": "account",
          "type": "address"
        }
      ],
      "name": "hasRole",
      "outputs": [
        {
          "internalType": "bool",
          "name": "",
          "type": "bool"
        }
      ],
      "stateMutability": "view",
      "type": "function"
    },
    {
      "inputs": [
        {
          "internalType": "address",
          "name": "",
          "type": "address"
        },
        {
          "internalType": "uint256",
          "name": "",
          "type": "uint256"
        }
      ],
      "name": "invitations",
      "outputs": [
        {
          "internalType": "address",
          "name": "validator",
          "type": "address"
        },
        {
          "internalType": "uint256",
          "name": "invitationDate",
          "type": "uint256"
        },
        {
          "internalType": "uint256",
          "name": "acceptanceDate",
          "type": "uint256"
        },
        {
          "internalType": "enum CohortFactory.AuditTypes",
          "name": "audits",
          "type": "uint8"
        },
        {
          "internalType": "bool",
          "name": "deleted",
          "type": "bool"
        }
      ],
      "stateMutability": "view",
      "type": "function"
    },
    {
      "inputs": [],
      "name": "memberHelpers",
      "outputs": [
        {
          "internalType": "contract MemberHelpers",
          "name": "",
          "type": "address"
        }
      ],
      "stateMutability": "view",
      "type": "function"
    },
    {
      "inputs": [],
      "name": "members",
      "outputs": [
        {
          "internalType": "contract Members",
          "name": "",
          "type": "address"
        }
      ],
      "stateMutability": "view",
      "type": "function"
    },
    {
      "inputs": [
        {
          "internalType": "uint256",
          "name": "",
          "type": "uint256"
        }
      ],
      "name": "minValidatorPerCohort",
      "outputs": [
        {
          "internalType": "uint256",
          "name": "",
          "type": "uint256"
        }
      ],
      "stateMutability": "view",
      "type": "function"
    },
    {
      "inputs": [
        {
          "internalType": "bytes32",
          "name": "role",
          "type": "bytes32"
        },
        {
          "internalType": "address",
          "name": "account",
          "type": "address"
        }
      ],
      "name": "renounceRole",
      "outputs": [],
      "stateMutability": "nonpayable",
      "type": "function"
    },
    {
      "inputs": [
        {
          "internalType": "bytes32",
          "name": "role",
          "type": "bytes32"
        },
        {
          "internalType": "address",
          "name": "account",
          "type": "address"
        }
      ],
      "name": "revokeRole",
      "outputs": [],
      "stateMutability": "nonpayable",
      "type": "function"
    },
    {
      "inputs": [
        {
          "internalType": "bytes4",
          "name": "interfaceId",
          "type": "bytes4"
        }
      ],
      "name": "supportsInterface",
      "outputs": [
        {
          "internalType": "bool",
          "name": "",
          "type": "bool"
        }
      ],
      "stateMutability": "view",
      "type": "function"
    },
    {
      "inputs": [
        {
          "internalType": "address",
          "name": "",
          "type": "address"
        },
        {
          "internalType": "address",
          "name": "",
          "type": "address"
        },
        {
          "internalType": "uint256",
          "name": "",
          "type": "uint256"
        }
      ],
      "name": "validatorCohortList",
      "outputs": [
        {
          "internalType": "enum CohortFactory.AuditTypes",
          "name": "",
          "type": "uint8"
        }
      ],
      "stateMutability": "view",
      "type": "function"
    },
    {
      "inputs": [
        {
          "internalType": "address",
          "name": "_members",
          "type": "address"
        },
        {
          "internalType": "address",
          "name": "_memberHelpers",
          "type": "address"
        }
      ],
      "name": "initialize",
      "outputs": [],
      "stateMutability": "nonpayable",
      "type": "function"
    },
    {
      "inputs": [
        {
          "internalType": "uint256",
          "name": "_minValidatorPerCohort",
          "type": "uint256"
        },
        {
          "internalType": "uint8",
          "name": "audits",
          "type": "uint8"
        }
      ],
      "name": "updateMinValidatorsPerCohort",
      "outputs": [],
      "stateMutability": "nonpayable",
      "type": "function"
    },
    {
      "inputs": [
        {
          "internalType": "address",
          "name": "validator",
          "type": "address"
        },
        {
          "internalType": "uint256",
          "name": "audit",
          "type": "uint256"
        }
      ],
      "name": "inviteValidator",
      "outputs": [],
      "stateMutability": "nonpayable",
      "type": "function"
    },
    {
      "inputs": [
        {
          "internalType": "address[]",
          "name": "validator",
          "type": "address[]"
        },
        {
          "internalType": "enum CohortFactory.AuditTypes",
          "name": "audit",
          "type": "uint8"
        }
      ],
      "name": "inviteValidatorMultiple",
      "outputs": [],
      "stateMutability": "nonpayable",
      "type": "function"
    },
    {
      "inputs": [
        {
          "internalType": "address",
          "name": "enterprise",
          "type": "address"
        },
        {
          "internalType": "uint256",
          "name": "invitationNumber",
          "type": "uint256"
        }
      ],
      "name": "acceptInvitation",
      "outputs": [],
      "stateMutability": "nonpayable",
      "type": "function"
    },
    {
      "inputs": [
        {
          "internalType": "address",
          "name": "validator",
          "type": "address"
        },
        {
          "internalType": "enum CohortFactory.AuditTypes",
          "name": "audit",
          "type": "uint8"
        }
      ],
      "name": "clearInvitationRemoveValidator",
      "outputs": [
        {
          "internalType": "bool",
          "name": "",
          "type": "bool"
        }
      ],
      "stateMutability": "nonpayable",
      "type": "function"
    },
    {
      "inputs": [
        {
          "internalType": "address[]",
          "name": "enterprise",
          "type": "address[]"
        },
        {
          "internalType": "uint256[]",
          "name": "invitationNumber",
          "type": "uint256[]"
        }
      ],
      "name": "acceptInvitationMultiple",
      "outputs": [],
      "stateMutability": "nonpayable",
      "type": "function"
    },
    {
      "inputs": [
        {
          "internalType": "address",
          "name": "enterprise",
          "type": "address"
        },
        {
          "internalType": "enum CohortFactory.AuditTypes",
          "name": "audit",
          "type": "uint8"
        }
      ],
      "name": "returnInvitationCount",
      "outputs": [
        {
          "internalType": "uint256",
          "name": "",
          "type": "uint256"
        }
      ],
      "stateMutability": "view",
      "type": "function"
    },
    {
      "inputs": [
        {
          "internalType": "address",
          "name": "enterprise",
          "type": "address"
        },
        {
          "internalType": "address",
          "name": "validator",
          "type": "address"
        },
        {
          "internalType": "uint256",
          "name": "audits",
          "type": "uint256"
        }
      ],
      "name": "isValidatorInvited",
      "outputs": [
        {
          "internalType": "bool",
          "name": "",
          "type": "bool"
        },
        {
          "internalType": "bool",
          "name": "",
          "type": "bool"
        }
      ],
      "stateMutability": "view",
      "type": "function"
    },
    {
      "inputs": [
        {
          "internalType": "address",
          "name": "enterprise",
          "type": "address"
        },
        {
          "internalType": "address",
          "name": "validator",
          "type": "address"
        },
        {
          "internalType": "uint256",
          "name": "audits",
          "type": "uint256"
        },
        {
          "internalType": "uint256",
          "name": "invitNumber",
          "type": "uint256"
        }
      ],
      "name": "isValidatorInvitedNumber",
      "outputs": [
        {
          "internalType": "bool",
          "name": "",
          "type": "bool"
        },
        {
          "internalType": "bool",
          "name": "",
          "type": "bool"
        }
      ],
      "stateMutability": "view",
      "type": "function"
    },
    {
      "inputs": [
        {
          "internalType": "address",
          "name": "enterprise",
          "type": "address"
        }
      ],
      "name": "returnCohorts",
      "outputs": [
        {
          "internalType": "bool[]",
          "name": "",
          "type": "bool[]"
        }
      ],
      "stateMutability": "view",
      "type": "function"
    },
    {
      "inputs": [
        {
          "internalType": "address",
          "name": "enterprise",
          "type": "address"
        },
        {
          "internalType": "uint8",
          "name": "audit",
          "type": "uint8"
        }
      ],
      "name": "returnValidatorList",
      "outputs": [
        {
          "internalType": "address[]",
          "name": "",
          "type": "address[]"
        }
      ],
      "stateMutability": "view",
      "type": "function"
    },
    {
      "inputs": [
        {
          "internalType": "address",
          "name": "validator",
          "type": "address"
        },
        {
          "internalType": "address",
          "name": "enterprise",
          "type": "address"
        }
      ],
      "name": "returnValidatorCohortsCount",
      "outputs": [
        {
          "internalType": "uint256",
          "name": "",
          "type": "uint256"
        }
      ],
      "stateMutability": "view",
      "type": "function"
    },
    {
      "inputs": [
        {
          "internalType": "uint8",
          "name": "audit",
          "type": "uint8"
        }
      ],
      "name": "createCohort",
      "outputs": [],
      "stateMutability": "nonpayable",
      "type": "function"
    }
  ],
  "bytecode": "0x608060405234801561001057600080fd5b506158b780620000216000396000f3fe608060405234801561001057600080fd5b50600436106101e55760003560e01c80637c915c861161010f578063a3469737116100a2578063ca15c87311610071578063ca15c87314610604578063cd72649314610634578063d547741f14610664578063df03d08114610680576101e5565b8063a34697371461056a578063a70e039314610586578063aacc19b3146105b6578063bdd4d18d146105e6576101e5565b806391d14854116100de57806391d14854146104cd5780639df4e870146104fd578063a2011b3f1461052e578063a217fddf1461054c576101e5565b80637c915c861461041d57806387247dea146104395780638ffb72f4146104695780639010d07c1461049d576101e5565b80632f2ff15d116101875780634e991f88116101565780634e991f88146103825780636df853451461039e57806371d8c7a0146103cf57806376395f57146103ed576101e5565b80632f2ff15d146102fe57806336568abe1461031a57806345f49bb014610336578063485cc95514610366576101e5565b80630ea02160116101c35780630ea0216014610252578063247e28b31461026e578063248a9ca31461029e578063265fe4e7146102ce576101e5565b806301ffc9a7146101ea5780630939a9971461021a5780630d216b0914610236575b600080fd5b61020460048036038101906101ff919061421d565b6106b0565b6040516102119190614f4b565b60405180910390f35b610234600480360381019061022f9190614093565b61072a565b005b610250600480360381019061024b9190614298565b6107de565b005b61026c6004803603810190610267919061401b565b610996565b005b61028860048036038101906102839190613fdf565b610cda565b60405161029591906152bd565b60405180910390f35b6102b860048036038101906102b3919061417c565b610f96565b6040516102c59190614f8f565b60405180910390f35b6102e860048036038101906102e39190613fdf565b610fb6565b6040516102f59190614f4b565b60405180910390f35b610318600480360381019061031391906141a5565b61132f565b005b610334600480360381019061032f91906141a5565b611363565b005b610350600480360381019061034b9190614246565b611397565b60405161035d91906152bd565b60405180910390f35b610380600480360381019061037b9190613ef1565b6113bb565b005b61039c6004803603810190610397919061401b565b6114a4565b005b6103b860048036038101906103b39190613f2d565b611b87565b6040516103c6929190614f66565b60405180910390f35b6103d7611f68565b6040516103e49190614faa565b60405180910390f35b61040760048036038101906104029190614057565b611f8e565b6040516104149190614f07565b60405180910390f35b610437600480360381019061043291906142d4565b612404565b005b610453600480360381019061044e9190613ec8565b612642565b6040516104609190614f29565b60405180910390f35b610483600480360381019061047e919061401b565b6127a6565b604051610494959493929190614eb4565b60405180910390f35b6104b760048036038101906104b291906141e1565b612833565b6040516104c49190614e10565b60405180910390f35b6104e760048036038101906104e291906141a5565b612862565b6040516104f49190614f4b565b60405180910390f35b61051760048036038101906105129190613f7c565b6128cd565b604051610525929190614f66565b60405180910390f35b610536612d72565b6040516105439190614f8f565b60405180910390f35b610554612d96565b6040516105619190614f8f565b60405180910390f35b610584600480360381019061057f91906140ff565b612d9d565b005b6105a0600480360381019061059b919061401b565b612e8e565b6040516105ad91906152bd565b60405180910390f35b6105d060048036038101906105cb9190613f2d565b612ebf565b6040516105dd9190614fe0565b60405180910390f35b6105ee612f0f565b6040516105fb9190614fc5565b60405180910390f35b61061e6004803603810190610619919061417c565b612f35565b60405161062b91906152bd565b60405180910390f35b61064e60048036038101906106499190613ef1565b612f59565b60405161065b91906152bd565b60405180910390f35b61067e600480360381019061067991906141a5565b612fe3565b005b61069a6004803603810190610695919061401b565b613017565b6040516106a79190614f4b565b60405180910390f35b60007f5a05180f000000000000000000000000000000000000000000000000000000007bffffffffffffffffffffffffffffffffffffffffffffffffffffffff1916827bffffffffffffffffffffffffffffffffffffffffffffffffffffffff19161480610723575061072282613046565b5b9050919050565b60008251905060005b818110156107d8576107c5848281518110610777577f4e487b7100000000000000000000000000000000000000000000000000000000600052603260045260246000fd5b60200260200101518483815181106107b8577f4e487b7100000000000000000000000000000000000000000000000000000000600052603260045260246000fd5b6020026020010151610996565b80806107d0906156ae565b915050610733565b50505050565b6108087f61c92169ef077349011ff0b1383c894d86c5f0b41d986366b58a6cf31e93beda33612862565b610847576040517f08c379a000000000000000000000000000000000000000000000000000000000815260040161083e9061517d565b60405180910390fd5b600082141561088b576040517f08c379a00000000000000000000000000000000000000000000000000000000081526004016108829061523d565b60405180910390fd5b60058160ff1611156108d2576040517f08c379a00000000000000000000000000000000000000000000000000000000081526004016108c99061505d565b60405180910390fd5b8160c98260ff1681548110610910577f4e487b7100000000000000000000000000000000000000000000000000000000600052603260045260246000fd5b90600052602060002001819055507f77141346a51f055f5bb35ecb1499b0bb7d9fbf1442b909bd3fd419820ccb98b2828260ff16600581111561097c577f4e487b7100000000000000000000000000000000000000000000000000000000600052602160045260246000fd5b60405161098a9291906152d8565b60405180910390a15050565b8060cf60008473ffffffffffffffffffffffffffffffffffffffff1673ffffffffffffffffffffffffffffffffffffffff1681526020019081526020016000208054905011610a1a576040517f08c379a0000000000000000000000000000000000000000000000000000000008152600401610a119061503d565b60405180910390fd5b600060cf60008473ffffffffffffffffffffffffffffffffffffffff1673ffffffffffffffffffffffffffffffffffffffff1681526020019081526020016000208281548110610a93577f4e487b7100000000000000000000000000000000000000000000000000000000600052603260045260246000fd5b90600052602060002090600402016002015414610ae5576040517f08c379a0000000000000000000000000000000000000000000000000000000008152600401610adc9061521d565b60405180910390fd5b3373ffffffffffffffffffffffffffffffffffffffff1660cf60008473ffffffffffffffffffffffffffffffffffffffff1673ffffffffffffffffffffffffffffffffffffffff1681526020019081526020016000208281548110610b73577f4e487b7100000000000000000000000000000000000000000000000000000000600052603260045260246000fd5b906000526020600020906004020160000160009054906101000a900473ffffffffffffffffffffffffffffffffffffffff1673ffffffffffffffffffffffffffffffffffffffff1614610bfb576040517f08c379a0000000000000000000000000000000000000000000000000000000008152600401610bf29061525d565b60405180910390fd5b4260cf60008473ffffffffffffffffffffffffffffffffffffffff1673ffffffffffffffffffffffffffffffffffffffff1681526020019081526020016000208281548110610c73577f4e487b7100000000000000000000000000000000000000000000000000000000600052603260045260246000fd5b9060005260206000209060040201600201819055503373ffffffffffffffffffffffffffffffffffffffff167f7b03e8bab458bdbb216f7525cb174b013e75d040884fe46cc9e836fc05a0cc7b82604051610cce91906152bd565b60405180910390a25050565b60008060005b60cf60008673ffffffffffffffffffffffffffffffffffffffff1673ffffffffffffffffffffffffffffffffffffffff16815260200190815260200160002080549050811015610f8b57836005811115610d63577f4e487b7100000000000000000000000000000000000000000000000000000000600052602160045260246000fd5b60cf60008773ffffffffffffffffffffffffffffffffffffffff1673ffffffffffffffffffffffffffffffffffffffff1681526020019081526020016000208281548110610dda577f4e487b7100000000000000000000000000000000000000000000000000000000600052603260045260246000fd5b906000526020600020906004020160030160009054906101000a900460ff166005811115610e31577f4e487b7100000000000000000000000000000000000000000000000000000000600052602160045260246000fd5b148015610ec75750600060cf60008773ffffffffffffffffffffffffffffffffffffffff1673ffffffffffffffffffffffffffffffffffffffff1681526020019081526020016000208281548110610eb2577f4e487b7100000000000000000000000000000000000000000000000000000000600052603260045260246000fd5b90600052602060002090600402016002015414155b8015610f66575060cf60008673ffffffffffffffffffffffffffffffffffffffff1673ffffffffffffffffffffffffffffffffffffffff1681526020019081526020016000208181548110610f45577f4e487b7100000000000000000000000000000000000000000000000000000000600052603260045260246000fd5b906000526020600020906004020160030160019054906101000a900460ff16155b15610f7a578180610f76906156ae565b9250505b80610f84906156ae565b9050610ce0565b508091505092915050565b600060656000838152602001908152602001600020600101549050919050565b600080600090505b60cf60003373ffffffffffffffffffffffffffffffffffffffff1673ffffffffffffffffffffffffffffffffffffffff168152602001908152602001600020805490508110156112ed57826005811115611041577f4e487b7100000000000000000000000000000000000000000000000000000000600052602160045260246000fd5b60cf60003373ffffffffffffffffffffffffffffffffffffffff1673ffffffffffffffffffffffffffffffffffffffff16815260200190815260200160002082815481106110b8577f4e487b7100000000000000000000000000000000000000000000000000000000600052603260045260246000fd5b906000526020600020906004020160030160009054906101000a900460ff16600581111561110f577f4e487b7100000000000000000000000000000000000000000000000000000000600052602160045260246000fd5b1480156111ef57508373ffffffffffffffffffffffffffffffffffffffff1660cf60003373ffffffffffffffffffffffffffffffffffffffff1673ffffffffffffffffffffffffffffffffffffffff16815260200190815260200160002082815481106111a5577f4e487b7100000000000000000000000000000000000000000000000000000000600052603260045260246000fd5b906000526020600020906004020160000160009054906101000a900473ffffffffffffffffffffffffffffffffffffffff1673ffffffffffffffffffffffffffffffffffffffff16145b156112da57600160cf60003373ffffffffffffffffffffffffffffffffffffffff1673ffffffffffffffffffffffffffffffffffffffff168152602001908152602001600020828154811061126d577f4e487b7100000000000000000000000000000000000000000000000000000000600052603260045260246000fd5b906000526020600020906004020160030160016101000a81548160ff0219169083151502179055507f430f07ad8d443841cca872721479bee31948a99fc854082aa28dc44b9e3af20e8484336040516112c893929190614e2b565b60405180910390a16001915050611329565b80806112e5906156ae565b915050610fbe565b506040517f08c379a00000000000000000000000000000000000000000000000000000000081526004016113209061513d565b60405180910390fd5b92915050565b61133982826130c0565b61135e81609760008581526020019081526020016000206130e990919063ffffffff16565b505050565b61136d8282613119565b611392816097600085815260200190815260200160002061319c90919063ffffffff16565b505050565b60c981815481106113a757600080fd5b906000526020600020016000915090505481565b8160cd60006101000a81548173ffffffffffffffffffffffffffffffffffffffff021916908373ffffffffffffffffffffffffffffffffffffffff1602179055508060ce60006101000a81548173ffffffffffffffffffffffffffffffffffffffff021916908373ffffffffffffffffffffffffffffffffffffffff1602179055506040518060c00160405280600360ff168152602001600360ff168152602001600360ff168152602001600360ff168152602001600360ff168152602001600360ff1681525060c9906006611492929190613c06565b506114a06000801b336131cc565b5050565b600060cd60009054906101000a900473ffffffffffffffffffffffffffffffffffffffff1673ffffffffffffffffffffffffffffffffffffffff16636f9cf985846001600281111561151f577f4e487b7100000000000000000000000000000000000000000000000000000000600052602160045260246000fd5b6040518363ffffffff1660e01b815260040161153c929190614e62565b60206040518083038186803b15801561155457600080fd5b505afa158015611568573d6000803e3d6000fd5b505050506040513d601f19601f8201168201806040525081019061158c9190614153565b9050600060cd60009054906101000a900473ffffffffffffffffffffffffffffffffffffffff1673ffffffffffffffffffffffffffffffffffffffff16636f9cf9853360006002811115611609577f4e487b7100000000000000000000000000000000000000000000000000000000600052602160045260246000fd5b6040518363ffffffff1660e01b8152600401611626929190614e62565b60206040518083038186803b15801561163e57600080fd5b505afa158015611652573d6000803e3d6000fd5b505050506040513d601f19601f820116820180604052508101906116769190614153565b90506000611685338686611b87565b50905080156116c9576040517f08c379a00000000000000000000000000000000000000000000000000000000081526004016116c09061509d565b60405180910390fd5b81611709576040517f08c379a0000000000000000000000000000000000000000000000000000000008152600401611700906150dd565b60405180910390fd5b82611749576040517f08c379a00000000000000000000000000000000000000000000000000000000081526004016117409061511d565b60405180910390fd5b600060ce60009054906101000a900473ffffffffffffffffffffffffffffffffffffffff1673ffffffffffffffffffffffffffffffffffffffff1663fc7e286d876040518263ffffffff1660e01b81526004016117a69190614e10565b60206040518083038186803b1580156117be57600080fd5b505afa1580156117d2573d6000803e3d6000fd5b505050506040513d601f19601f820116820180604052508101906117f6919061426f565b11611836576040517f08c379a000000000000000000000000000000000000000000000000000000000815260040161182d9061519d565b60405180910390fd5b61183e613c58565b85816000019073ffffffffffffffffffffffffffffffffffffffff16908173ffffffffffffffffffffffffffffffffffffffff1681525050428160200181815250508460058111156118b9577f4e487b7100000000000000000000000000000000000000000000000000000000600052602160045260246000fd5b816060019060058111156118f6577f4e487b7100000000000000000000000000000000000000000000000000000000600052602160045260246000fd5b90816005811115611930577f4e487b7100000000000000000000000000000000000000000000000000000000600052602160045260246000fd5b8152505060cf60003373ffffffffffffffffffffffffffffffffffffffff1673ffffffffffffffffffffffffffffffffffffffff16815260200190815260200160002081908060018154018082558091505060019003906000526020600020906004020160009091909190915060008201518160000160006101000a81548173ffffffffffffffffffffffffffffffffffffffff021916908373ffffffffffffffffffffffffffffffffffffffff160217905550602082015181600101556040820151816002015560608201518160030160006101000a81548160ff02191690836005811115611a49577f4e487b7100000000000000000000000000000000000000000000000000000000600052602160045260246000fd5b021790555060808201518160030160016101000a81548160ff0219169083151502179055505050846005811115611aa9577f4e487b7100000000000000000000000000000000000000000000000000000000600052602160045260246000fd5b6005811115611ae1577f4e487b7100000000000000000000000000000000000000000000000000000000600052602160045260246000fd5b8673ffffffffffffffffffffffffffffffffffffffff167fdb045b05e2cea9cac8289ec48770f5e3dff84ba85c4d3aeaaa75f81a16e2f4b933600160cf60003373ffffffffffffffffffffffffffffffffffffffff1673ffffffffffffffffffffffffffffffffffffffff16815260200190815260200160002080549050611b6991906154ee565b604051611b77929190614e8b565b60405180910390a3505050505050565b60008060005b60cf60008773ffffffffffffffffffffffffffffffffffffffff1673ffffffffffffffffffffffffffffffffffffffff16815260200190815260200160002080549050811015611f5757836005811115611c10577f4e487b7100000000000000000000000000000000000000000000000000000000600052602160045260246000fd5b6005811115611c48577f4e487b7100000000000000000000000000000000000000000000000000000000600052602160045260246000fd5b60cf60008873ffffffffffffffffffffffffffffffffffffffff1673ffffffffffffffffffffffffffffffffffffffff1681526020019081526020016000208281548110611cbf577f4e487b7100000000000000000000000000000000000000000000000000000000600052603260045260246000fd5b906000526020600020906004020160030160009054906101000a900460ff166005811115611d16577f4e487b7100000000000000000000000000000000000000000000000000000000600052602160045260246000fd5b148015611df657508473ffffffffffffffffffffffffffffffffffffffff1660cf60008873ffffffffffffffffffffffffffffffffffffffff1673ffffffffffffffffffffffffffffffffffffffff1681526020019081526020016000208281548110611dac577f4e487b7100000000000000000000000000000000000000000000000000000000600052603260045260246000fd5b906000526020600020906004020160000160009054906101000a900473ffffffffffffffffffffffffffffffffffffffff1673ffffffffffffffffffffffffffffffffffffffff16145b8015611e95575060cf60008773ffffffffffffffffffffffffffffffffffffffff1673ffffffffffffffffffffffffffffffffffffffff1681526020019081526020016000208181548110611e74577f4e487b7100000000000000000000000000000000000000000000000000000000600052603260045260246000fd5b906000526020600020906004020160030160019054906101000a900460ff16155b15611f4657600060cf60008873ffffffffffffffffffffffffffffffffffffffff1673ffffffffffffffffffffffffffffffffffffffff1681526020019081526020016000208281548110611f13577f4e487b7100000000000000000000000000000000000000000000000000000000600052603260045260246000fd5b9060005260206000209060040201600201541115611f38576001809250925050611f60565b600160009250925050611f60565b80611f50906156ae565b9050611b8d565b50600080915091505b935093915050565b60ce60009054906101000a900473ffffffffffffffffffffffffffffffffffffffff1681565b6060600073ffffffffffffffffffffffffffffffffffffffff168373ffffffffffffffffffffffffffffffffffffffff161415612000576040517f08c379a0000000000000000000000000000000000000000000000000000000008152600401611ff79061515d565b60405180910390fd5b60058260ff161115612047576040517f08c379a000000000000000000000000000000000000000000000000000000000815260040161203e9061507d565b60405180910390fd5b600061208e848460ff166005811115612089577f4e487b7100000000000000000000000000000000000000000000000000000000600052602160045260246000fd5b610cda565b67ffffffffffffffff8111156120cd577f4e487b7100000000000000000000000000000000000000000000000000000000600052604160045260246000fd5b6040519080825280602002602001820160405280156120fb5781602001602082028036833780820191505090505b509050600080600090505b60cf60008773ffffffffffffffffffffffffffffffffffffffff1673ffffffffffffffffffffffffffffffffffffffff168152602001908152602001600020805490508110156123f8578460ff1660cf60008873ffffffffffffffffffffffffffffffffffffffff1673ffffffffffffffffffffffffffffffffffffffff16815260200190815260200160002082815481106121cb577f4e487b7100000000000000000000000000000000000000000000000000000000600052603260045260246000fd5b906000526020600020906004020160030160009054906101000a900460ff166005811115612222577f4e487b7100000000000000000000000000000000000000000000000000000000600052602160045260246000fd5b1480156122b75750600060cf60008873ffffffffffffffffffffffffffffffffffffffff1673ffffffffffffffffffffffffffffffffffffffff16815260200190815260200160002082815481106122a3577f4e487b7100000000000000000000000000000000000000000000000000000000600052603260045260246000fd5b906000526020600020906004020160020154115b156123e75760cf60008773ffffffffffffffffffffffffffffffffffffffff1673ffffffffffffffffffffffffffffffffffffffff1681526020019081526020016000208181548110612333577f4e487b7100000000000000000000000000000000000000000000000000000000600052603260045260246000fd5b906000526020600020906004020160000160009054906101000a900473ffffffffffffffffffffffffffffffffffffffff1683838151811061239e577f4e487b7100000000000000000000000000000000000000000000000000000000600052603260045260246000fd5b602002602001019073ffffffffffffffffffffffffffffffffffffffff16908173ffffffffffffffffffffffffffffffffffffffff168152505081806123e3906156ae565b9250505b806123f1906156ae565b9050612106565b50819250505092915050565b60cb60003373ffffffffffffffffffffffffffffffffffffffff1673ffffffffffffffffffffffffffffffffffffffff16815260200190815260200160002060008260ff16815260200190815260200160002060009054906101000a900460ff16156124a5576040517f08c379a000000000000000000000000000000000000000000000000000000000815260040161249c906150fd565b60405180910390fd5b60006124b13383611f8e565b905060c98260ff16815481106124f0577f4e487b7100000000000000000000000000000000000000000000000000000000600052603260045260246000fd5b90600052602060002001548151101561253e576040517f08c379a0000000000000000000000000000000000000000000000000000000008152600401612535906150bd565b60405180910390fd5b600160cb60003373ffffffffffffffffffffffffffffffffffffffff1673ffffffffffffffffffffffffffffffffffffffff16815260200190815260200160002060008460ff16815260200190815260200160002060006101000a81548160ff0219169083151502179055506125f081338460ff1660058111156125eb577f4e487b7100000000000000000000000000000000000000000000000000000000600052602160045260246000fd5b613200565b3373ffffffffffffffffffffffffffffffffffffffff167f03606271d603b6a466bdd7e062ffffa529563dc83e949f6ac2b2d159f3c2f8a1836040516126369190615301565b60405180910390a25050565b606060006006905060008160ff1667ffffffffffffffff81111561268f577f4e487b7100000000000000000000000000000000000000000000000000000000600052604160045260246000fd5b6040519080825280602002602001820160405280156126bd5781602001602082028036833780820191505090505b50905060005b8260ff168160ff16101561279b5760cb60008673ffffffffffffffffffffffffffffffffffffffff1673ffffffffffffffffffffffffffffffffffffffff16815260200190815260200160002060008260ff16815260200190815260200160002060009054906101000a900460ff1615612788576001828260ff1681518110612775577f4e487b7100000000000000000000000000000000000000000000000000000000600052603260045260246000fd5b6020026020010190151590811515815250505b8080612793906156f7565b9150506126c3565b508092505050919050565b60cf60205281600052604060002081815481106127c257600080fd5b9060005260206000209060040201600091509150508060000160009054906101000a900473ffffffffffffffffffffffffffffffffffffffff16908060010154908060020154908060030160009054906101000a900460ff16908060030160019054906101000a900460ff16905085565b600061285a826097600086815260200190815260200160002061335990919063ffffffff16565b905092915050565b60006065600084815260200190815260200160002060000160008373ffffffffffffffffffffffffffffffffffffffff1673ffffffffffffffffffffffffffffffffffffffff16815260200190815260200160002060009054906101000a900460ff16905092915050565b600080600073ffffffffffffffffffffffffffffffffffffffff168673ffffffffffffffffffffffffffffffffffffffff161415612940576040517f08c379a0000000000000000000000000000000000000000000000000000000008152600401612937906151dd565b60405180910390fd5b600073ffffffffffffffffffffffffffffffffffffffff168573ffffffffffffffffffffffffffffffffffffffff1614156129b0576040517f08c379a00000000000000000000000000000000000000000000000000000000081526004016129a7906151fd565b60405180910390fd5b60058411156129f4576040517f08c379a00000000000000000000000000000000000000000000000000000000081526004016129eb906151bd565b60405180910390fd5b836005811115612a2d577f4e487b7100000000000000000000000000000000000000000000000000000000600052602160045260246000fd5b6005811115612a65577f4e487b7100000000000000000000000000000000000000000000000000000000600052602160045260246000fd5b60cf60008873ffffffffffffffffffffffffffffffffffffffff1673ffffffffffffffffffffffffffffffffffffffff1681526020019081526020016000208481548110612adc577f4e487b7100000000000000000000000000000000000000000000000000000000600052603260045260246000fd5b906000526020600020906004020160030160009054906101000a900460ff166005811115612b33577f4e487b7100000000000000000000000000000000000000000000000000000000600052602160045260246000fd5b148015612c1357508473ffffffffffffffffffffffffffffffffffffffff1660cf60008873ffffffffffffffffffffffffffffffffffffffff1673ffffffffffffffffffffffffffffffffffffffff1681526020019081526020016000208481548110612bc9577f4e487b7100000000000000000000000000000000000000000000000000000000600052603260045260246000fd5b906000526020600020906004020160000160009054906101000a900473ffffffffffffffffffffffffffffffffffffffff1673ffffffffffffffffffffffffffffffffffffffff16145b8015612cb2575060cf60008773ffffffffffffffffffffffffffffffffffffffff1673ffffffffffffffffffffffffffffffffffffffff1681526020019081526020016000208381548110612c91577f4e487b7100000000000000000000000000000000000000000000000000000000600052603260045260246000fd5b906000526020600020906004020160030160019054906101000a900460ff16155b15612d6157600060cf60008873ffffffffffffffffffffffffffffffffffffffff1673ffffffffffffffffffffffffffffffffffffffff1681526020019081526020016000208481548110612d30577f4e487b7100000000000000000000000000000000000000000000000000000000600052603260045260246000fd5b9060005260206000209060040201600201541115612d545760018091509150612d69565b6001600091509150612d69565b600080915091505b94509492505050565b7f61c92169ef077349011ff0b1383c894d86c5f0b41d986366b58a6cf31e93beda81565b6000801b81565b600082519050610100811115612de8576040517f08c379a0000000000000000000000000000000000000000000000000000000008152600401612ddf9061527d565b60405180910390fd5b60005b81811015612e8857612e75848281518110612e2f577f4e487b7100000000000000000000000000000000000000000000000000000000600052603260045260246000fd5b6020026020010151846005811115612e70577f4e487b7100000000000000000000000000000000000000000000000000000000600052602160045260246000fd5b6114a4565b8080612e80906156ae565b915050612deb565b50505050565b60ca6020528160005260406000208181548110612eaa57600080fd5b90600052602060002001600091509150505481565b60cc6020528260005260406000206020528160005260406000208181548110612ee757600080fd5b906000526020600020906020918282040191900692509250509054906101000a900460ff1681565b60cd60009054906101000a900473ffffffffffffffffffffffffffffffffffffffff1681565b6000612f5260976000848152602001908152602001600020613373565b9050919050565b600060cc60008473ffffffffffffffffffffffffffffffffffffffff1673ffffffffffffffffffffffffffffffffffffffff16815260200190815260200160002060008373ffffffffffffffffffffffffffffffffffffffff1673ffffffffffffffffffffffffffffffffffffffff16815260200190815260200160002080549050905092915050565b612fed8282613388565b613012816097600085815260200190815260200160002061319c90919063ffffffff16565b505050565b60cb6020528160005260406000206020528060005260406000206000915091509054906101000a900460ff1681565b60007f7965db0b000000000000000000000000000000000000000000000000000000007bffffffffffffffffffffffffffffffffffffffffffffffffffffffff1916827bffffffffffffffffffffffffffffffffffffffffffffffffffffffff191614806130b957506130b8826133b1565b5b9050919050565b6130c982610f96565b6130da816130d561341b565b613423565b6130e483836134c0565b505050565b6000613111836000018373ffffffffffffffffffffffffffffffffffffffff1660001b6135a1565b905092915050565b61312161341b565b73ffffffffffffffffffffffffffffffffffffffff168173ffffffffffffffffffffffffffffffffffffffff161461318e576040517f08c379a00000000000000000000000000000000000000000000000000000000081526004016131859061529d565b60405180910390fd5b6131988282613611565b5050565b60006131c4836000018373ffffffffffffffffffffffffffffffffffffffff1660001b6136f3565b905092915050565b6131d68282613879565b6131fb81609760008581526020019081526020016000206130e990919063ffffffff16565b505050565b60005b83518110156133535760cc6000858381518110613249577f4e487b7100000000000000000000000000000000000000000000000000000000600052603260045260246000fd5b602002602001015173ffffffffffffffffffffffffffffffffffffffff1673ffffffffffffffffffffffffffffffffffffffff16815260200190815260200160002060008473ffffffffffffffffffffffffffffffffffffffff1673ffffffffffffffffffffffffffffffffffffffff1681526020019081526020016000208290806001815401808255809150506001900390600052602060002090602091828204019190069091909190916101000a81548160ff0219169083600581111561333b577f4e487b7100000000000000000000000000000000000000000000000000000000600052602160045260246000fd5b0217905550808061334b906156ae565b915050613203565b50505050565b60006133688360000183613887565b60001c905092915050565b6000613381826000016138d8565b9050919050565b61339182610f96565b6133a28161339d61341b565b613423565b6133ac8383613611565b505050565b60007f01ffc9a7000000000000000000000000000000000000000000000000000000007bffffffffffffffffffffffffffffffffffffffffffffffffffffffff1916827bffffffffffffffffffffffffffffffffffffffffffffffffffffffff1916149050919050565b600033905090565b61342d8282612862565b6134bc576134528173ffffffffffffffffffffffffffffffffffffffff1660146138e9565b6134608360001c60206138e9565b604051602001613471929190614dd6565b6040516020818303038152906040526040517f08c379a00000000000000000000000000000000000000000000000000000000081526004016134b39190614ffb565b60405180910390fd5b5050565b6134ca8282612862565b61359d5760016065600084815260200190815260200160002060000160008373ffffffffffffffffffffffffffffffffffffffff1673ffffffffffffffffffffffffffffffffffffffff16815260200190815260200160002060006101000a81548160ff02191690831515021790555061354261341b565b73ffffffffffffffffffffffffffffffffffffffff168173ffffffffffffffffffffffffffffffffffffffff16837f2f8788117e7eff1d82e926ec794901d17c78024a50270940304540a733656f0d60405160405180910390a45b5050565b60006135ad8383613be3565b61360657826000018290806001815401808255809150506001900390600052602060002001600090919091909150558260000180549050836001016000848152602001908152602001600020819055506001905061360b565b600090505b92915050565b61361b8282612862565b156136ef5760006065600084815260200190815260200160002060000160008373ffffffffffffffffffffffffffffffffffffffff1673ffffffffffffffffffffffffffffffffffffffff16815260200190815260200160002060006101000a81548160ff02191690831515021790555061369461341b565b73ffffffffffffffffffffffffffffffffffffffff168173ffffffffffffffffffffffffffffffffffffffff16837ff6391f5c32d9c69d2a47ea670b442974b53935d1edc7fd64eb21e047a839171b60405160405180910390a45b5050565b6000808360010160008481526020019081526020016000205490506000811461386d57600060018261372591906154ee565b905060006001866000018054905061373d91906154ee565b90508181146137f8576000866000018281548110613784577f4e487b7100000000000000000000000000000000000000000000000000000000600052603260045260246000fd5b90600052602060002001549050808760000184815481106137ce577f4e487b7100000000000000000000000000000000000000000000000000000000600052603260045260246000fd5b90600052602060002001819055508387600101600083815260200190815260200160002081905550505b85600001805480613832577f4e487b7100000000000000000000000000000000000000000000000000000000600052603160045260246000fd5b600190038181906000526020600020016000905590558560010160008681526020019081526020016000206000905560019350505050613873565b60009150505b92915050565b61388382826134c0565b5050565b60008260000182815481106138c5577f4e487b7100000000000000000000000000000000000000000000000000000000600052603260045260246000fd5b9060005260206000200154905092915050565b600081600001805490509050919050565b6060600060028360026138fc9190615494565b613906919061543e565b67ffffffffffffffff811115613945577f4e487b7100000000000000000000000000000000000000000000000000000000600052604160045260246000fd5b6040519080825280601f01601f1916602001820160405280156139775781602001600182028036833780820191505090505b5090507f3000000000000000000000000000000000000000000000000000000000000000816000815181106139d5577f4e487b7100000000000000000000000000000000000000000000000000000000600052603260045260246000fd5b60200101907effffffffffffffffffffffffffffffffffffffffffffffffffffffffffffff1916908160001a9053507f780000000000000000000000000000000000000000000000000000000000000081600181518110613a5f577f4e487b7100000000000000000000000000000000000000000000000000000000600052603260045260246000fd5b60200101907effffffffffffffffffffffffffffffffffffffffffffffffffffffffffffff1916908160001a90535060006001846002613a9f9190615494565b613aa9919061543e565b90505b6001811115613b95577f3031323334353637383961626364656600000000000000000000000000000000600f861660108110613b11577f4e487b7100000000000000000000000000000000000000000000000000000000600052603260045260246000fd5b1a60f81b828281518110613b4e577f4e487b7100000000000000000000000000000000000000000000000000000000600052603260045260246000fd5b60200101907effffffffffffffffffffffffffffffffffffffffffffffffffffffffffffff1916908160001a905350600485901c945080613b8e90615684565b9050613aac565b5060008414613bd9576040517f08c379a0000000000000000000000000000000000000000000000000000000008152600401613bd09061501d565b60405180910390fd5b8091505092915050565b600080836001016000848152602001908152602001600020541415905092915050565b828054828255906000526020600020908101928215613c47579160200282015b82811115613c46578251829060ff16905591602001919060010190613c26565b5b509050613c549190613cd7565b5090565b6040518060a00160405280600073ffffffffffffffffffffffffffffffffffffffff168152602001600081526020016000815260200160006005811115613cc8577f4e487b7100000000000000000000000000000000000000000000000000000000600052602160045260246000fd5b81526020016000151581525090565b5b80821115613cf0576000816000905550600101613cd8565b5090565b6000613d07613d028461534d565b61531c565b90508083825260208201905082856020860282011115613d2657600080fd5b60005b85811015613d565781613d3c8882613dcc565b845260208401935060208301925050600181019050613d29565b5050509392505050565b6000613d73613d6e84615379565b61531c565b90508083825260208201905082856020860282011115613d9257600080fd5b60005b85811015613dc25781613da88882613e89565b845260208401935060208301925050600181019050613d95565b5050509392505050565b600081359050613ddb816157e7565b92915050565b600082601f830112613df257600080fd5b8135613e02848260208601613cf4565b91505092915050565b600082601f830112613e1c57600080fd5b8135613e2c848260208601613d60565b91505092915050565b600081519050613e44816157fe565b92915050565b600081359050613e5981615815565b92915050565b600081359050613e6e8161582c565b92915050565b600081359050613e8381615843565b92915050565b600081359050613e9881615853565b92915050565b600081519050613ead81615853565b92915050565b600081359050613ec28161586a565b92915050565b600060208284031215613eda57600080fd5b6000613ee884828501613dcc565b91505092915050565b60008060408385031215613f0457600080fd5b6000613f1285828601613dcc565b9250506020613f2385828601613dcc565b9150509250929050565b600080600060608486031215613f4257600080fd5b6000613f5086828701613dcc565b9350506020613f6186828701613dcc565b9250506040613f7286828701613e89565b9150509250925092565b60008060008060808587031215613f9257600080fd5b6000613fa087828801613dcc565b9450506020613fb187828801613dcc565b9350506040613fc287828801613e89565b9250506060613fd387828801613e89565b91505092959194509250565b60008060408385031215613ff257600080fd5b600061400085828601613dcc565b925050602061401185828601613e74565b9150509250929050565b6000806040838503121561402e57600080fd5b600061403c85828601613dcc565b925050602061404d85828601613e89565b9150509250929050565b6000806040838503121561406a57600080fd5b600061407885828601613dcc565b925050602061408985828601613eb3565b9150509250929050565b600080604083850312156140a657600080fd5b600083013567ffffffffffffffff8111156140c057600080fd5b6140cc85828601613de1565b925050602083013567ffffffffffffffff8111156140e957600080fd5b6140f585828601613e0b565b9150509250929050565b6000806040838503121561411257600080fd5b600083013567ffffffffffffffff81111561412c57600080fd5b61413885828601613de1565b925050602061414985828601613e74565b9150509250929050565b60006020828403121561416557600080fd5b600061417384828501613e35565b91505092915050565b60006020828403121561418e57600080fd5b600061419c84828501613e4a565b91505092915050565b600080604083850312156141b857600080fd5b60006141c685828601613e4a565b92505060206141d785828601613dcc565b9150509250929050565b600080604083850312156141f457600080fd5b600061420285828601613e4a565b925050602061421385828601613e89565b9150509250929050565b60006020828403121561422f57600080fd5b600061423d84828501613e5f565b91505092915050565b60006020828403121561425857600080fd5b600061426684828501613e89565b91505092915050565b60006020828403121561428157600080fd5b600061428f84828501613e9e565b91505092915050565b600080604083850312156142ab57600080fd5b60006142b985828601613e89565b92505060206142ca85828601613eb3565b9150509250929050565b6000602082840312156142e657600080fd5b60006142f484828501613eb3565b91505092915050565b6000614309838361432d565b60208301905092915050565b60006143218383614407565b60208301905092915050565b61433681615522565b82525050565b61434581615522565b82525050565b6000614356826153c5565b6143608185615400565b935061436b836153a5565b8060005b8381101561439c57815161438388826142fd565b975061438e836153e6565b92505060018101905061436f565b5085935050505092915050565b60006143b4826153d0565b6143be8185615411565b93506143c9836153b5565b8060005b838110156143fa5781516143e18882614315565b97506143ec836153f3565b9250506001810190506143cd565b5085935050505092915050565b61441081615534565b82525050565b61441f81615534565b82525050565b61442e81615540565b82525050565b61443d816155d3565b82525050565b61444c816155f7565b82525050565b61445b8161561b565b82525050565b61446a8161562d565b82525050565b600061447b826153db565b6144858185615422565b9350614495818560208601615651565b61449e816157ae565b840191505092915050565b60006144b4826153db565b6144be8185615433565b93506144ce818560208601615651565b80840191505092915050565b60006144e7602083615422565b91507f537472696e67733a20686578206c656e67746820696e73756666696369656e746000830152602082019050919050565b6000614527602e83615422565b91507f43463a616363657074496e7669746174696f6e202d20496e7669746174696f6e60008301527f20646f65736e27742065786973740000000000000000000000000000000000006020830152604082019050919050565b600061458d604883615422565b91507f436f686f727420466163746f72793a7570646174654d696e56616c696461746f60008301527f7273506572436f686f7274202d2041756469742074797065206973206f75742060208301527f6f662072616e67650000000000000000000000000000000000000000000000006040830152606082019050919050565b6000614619602b83615422565b91507f43463a72657475726e56616c696461746f724c697374202d206175646974206e60008301527f6f7420696e2072616e67650000000000000000000000000000000000000000006020830152604082019050919050565b600061467f603783615422565b91507f43463a696e7669746556616c696461746f72202d2056616c696461746f72206860008301527f6173206265656e20616c726561647920696e76697465640000000000000000006020830152604082019050919050565b60006146e5602e83615422565b91507f43463a637265617465436f686f7274202d2056616c696461746f72206e756d2060008301527f62656c6f77206d696e696d756d2e0000000000000000000000000000000000006020830152604082019050919050565b600061474b603583615422565b91507f43463a696e7669746556616c696461746f72202d204f6e6c7920456e7465727060008301527f7269736520757365722063616e20696e766974652e00000000000000000000006020830152604082019050919050565b60006147b1602d83615422565b91507f43463a637265617465436f686f7274202d205468697320636f686f727420616c60008301527f7265616479206578697374732e000000000000000000000000000000000000006020830152604082019050919050565b6000614817603d83615422565b91507f43463a696e7669746556616c696461746f72202d204f6e6c7920417070726f7660008301527f65642056616c696461746f72732063616e20626520696e76697465642e0000006020830152604082019050919050565b600061487d601d83615422565b91507f5468697320696e7669746174696f6e20646f65736e27742065786973740000006000830152602082019050919050565b60006148bd602b83615422565b91507f43463a72657475726e56616c696461746f724c697374202d206164647265737360008301527f2063616e277420626520300000000000000000000000000000000000000000006020830152604082019050919050565b6000614923602983615422565b91507f4d656d626572733a6973536574746572202d2043616c6c6572206973206e6f7460008301527f20612073657474657200000000000000000000000000000000000000000000006020830152604082019050919050565b6000614989602e83615422565b91507f43463a696e7669746556616c696461746f72202d2056616c696461746f72206860008301527f6173206e6f74207374616b65642e0000000000000000000000000000000000006020830152604082019050919050565b60006149ef603083615422565b91507f43463a697356616c696461746f72496e76697465644e756d626572202d20617560008301527f646974206e6f7420696e2072616e6765000000000000000000000000000000006020830152604082019050919050565b6000614a55603383615422565b91507f43463a697356616c696461746f72496e76697465644e756d626572202d20656e60008301527f74657270726973652063616e27742062652030000000000000000000000000006020830152604082019050919050565b6000614abb603183615422565b91507f43463a697356616c696461746f72496e76697465644e756d626572202d20766160008301527f6c6964746f722063616e277420626520300000000000000000000000000000006020830152604082019050919050565b6000614b21602783615422565b91507f43463a616363657074496e7669746174696f6e2d20416363657074656420616c60008301527f7265616479202e000000000000000000000000000000000000000000000000006020830152604082019050919050565b6000614b87601783615433565b91507f416363657373436f6e74726f6c3a206163636f756e74200000000000000000006000830152601782019050919050565b6000614bc7604583615422565b91507f43463a7570646174654d696e56616c696461746f7273506572436f686f72742060008301527f2d204d696e2076616c696461746f722070657220636f686f72742063616e277460208301527f20626520300000000000000000000000000000000000000000000000000000006040830152606082019050919050565b6000614c53602b83615422565b91507f43463a616363657074496e7669746174696f6e202d20596f752077657265206e60008301527f6f7420696e76697465642e0000000000000000000000000000000000000000006020830152604082019050919050565b6000614cb9602983615422565b91507f43462d696e7669746556616c696461746f724d756c7469706c653a204c69737460008301527f20746f6f206c6f6e6700000000000000000000000000000000000000000000006020830152604082019050919050565b6000614d1f601183615433565b91507f206973206d697373696e6720726f6c65200000000000000000000000000000006000830152601182019050919050565b6000614d5f602f83615422565b91507f416363657373436f6e74726f6c3a2063616e206f6e6c792072656e6f756e636560008301527f20726f6c657320666f722073656c6600000000000000000000000000000000006020830152604082019050919050565b614dc1816155bc565b82525050565b614dd08161563f565b82525050565b6000614de182614b7a565b9150614ded82856144a9565b9150614df882614d12565b9150614e0482846144a9565b91508190509392505050565b6000602082019050614e25600083018461433c565b92915050565b6000606082019050614e40600083018661433c565b614e4d6020830185614452565b614e5a604083018461433c565b949350505050565b6000604082019050614e77600083018561433c565b614e846020830184614461565b9392505050565b6000604082019050614ea0600083018561433c565b614ead6020830184614db8565b9392505050565b600060a082019050614ec9600083018861433c565b614ed66020830187614db8565b614ee36040830186614db8565b614ef06060830185614452565b614efd6080830184614416565b9695505050505050565b60006020820190508181036000830152614f21818461434b565b905092915050565b60006020820190508181036000830152614f4381846143a9565b905092915050565b6000602082019050614f606000830184614416565b92915050565b6000604082019050614f7b6000830185614416565b614f886020830184614416565b9392505050565b6000602082019050614fa46000830184614425565b92915050565b6000602082019050614fbf6000830184614434565b92915050565b6000602082019050614fda6000830184614443565b92915050565b6000602082019050614ff56000830184614452565b92915050565b600060208201905081810360008301526150158184614470565b905092915050565b60006020820190508181036000830152615036816144da565b9050919050565b600060208201905081810360008301526150568161451a565b9050919050565b6000602082019050818103600083015261507681614580565b9050919050565b600060208201905081810360008301526150968161460c565b9050919050565b600060208201905081810360008301526150b681614672565b9050919050565b600060208201905081810360008301526150d6816146d8565b9050919050565b600060208201905081810360008301526150f68161473e565b9050919050565b60006020820190508181036000830152615116816147a4565b9050919050565b600060208201905081810360008301526151368161480a565b9050919050565b6000602082019050818103600083015261515681614870565b9050919050565b60006020820190508181036000830152615176816148b0565b9050919050565b6000602082019050818103600083015261519681614916565b9050919050565b600060208201905081810360008301526151b68161497c565b9050919050565b600060208201905081810360008301526151d6816149e2565b9050919050565b600060208201905081810360008301526151f681614a48565b9050919050565b6000602082019050818103600083015261521681614aae565b9050919050565b6000602082019050818103600083015261523681614b14565b9050919050565b6000602082019050818103600083015261525681614bba565b9050919050565b6000602082019050818103600083015261527681614c46565b9050919050565b6000602082019050818103600083015261529681614cac565b9050919050565b600060208201905081810360008301526152b681614d52565b9050919050565b60006020820190506152d26000830184614db8565b92915050565b60006040820190506152ed6000830185614db8565b6152fa6020830184614452565b9392505050565b60006020820190506153166000830184614dc7565b92915050565b6000604051905081810181811067ffffffffffffffff821117156153435761534261577f565b5b8060405250919050565b600067ffffffffffffffff8211156153685761536761577f565b5b602082029050602081019050919050565b600067ffffffffffffffff8211156153945761539361577f565b5b602082029050602081019050919050565b6000819050602082019050919050565b6000819050602082019050919050565b600081519050919050565b600081519050919050565b600081519050919050565b6000602082019050919050565b6000602082019050919050565b600082825260208201905092915050565b600082825260208201905092915050565b600082825260208201905092915050565b600081905092915050565b6000615449826155bc565b9150615454836155bc565b9250827fffffffffffffffffffffffffffffffffffffffffffffffffffffffffffffffff0382111561548957615488615721565b5b828201905092915050565b600061549f826155bc565b91506154aa836155bc565b9250817fffffffffffffffffffffffffffffffffffffffffffffffffffffffffffffffff04831182151516156154e3576154e2615721565b5b828202905092915050565b60006154f9826155bc565b9150615504836155bc565b92508282101561551757615516615721565b5b828203905092915050565b600061552d8261559c565b9050919050565b60008115159050919050565b6000819050919050565b60007fffffffff0000000000000000000000000000000000000000000000000000000082169050919050565b6000819050615584826157bf565b919050565b6000819050615597826157d3565b919050565b600073ffffffffffffffffffffffffffffffffffffffff82169050919050565b6000819050919050565b600060ff82169050919050565b60006155de826155e5565b9050919050565b60006155f08261559c565b9050919050565b600061560282615609565b9050919050565b60006156148261559c565b9050919050565b600061562682615576565b9050919050565b600061563882615589565b9050919050565b600061564a826155c6565b9050919050565b60005b8381101561566f578082015181840152602081019050615654565b8381111561567e576000848401525b50505050565b600061568f826155bc565b915060008214156156a3576156a2615721565b5b600182039050919050565b60006156b9826155bc565b91507fffffffffffffffffffffffffffffffffffffffffffffffffffffffffffffffff8214156156ec576156eb615721565b5b600182019050919050565b6000615702826155c6565b915060ff82141561571657615715615721565b5b600182019050919050565b7f4e487b7100000000000000000000000000000000000000000000000000000000600052601160045260246000fd5b7f4e487b7100000000000000000000000000000000000000000000000000000000600052602160045260246000fd5b7f4e487b7100000000000000000000000000000000000000000000000000000000600052604160045260246000fd5b6000601f19601f8301169050919050565b600681106157d0576157cf615750565b5b50565b600381106157e4576157e3615750565b5b50565b6157f081615522565b81146157fb57600080fd5b50565b61580781615534565b811461581257600080fd5b50565b61581e81615540565b811461582957600080fd5b50565b6158358161554a565b811461584057600080fd5b50565b6006811061585057600080fd5b50565b61585c816155bc565b811461586757600080fd5b50565b615873816155c6565b811461587e57600080fd5b5056fea2646970667358221220a2ec51a7a28e2ba4bf86abdfdcf0b97387d858e618847663280fb77768ef85be64736f6c63430008000033",
  "immutableReferences": {},
  "source": "// SPDX-License-Identifier: MIT\npragma solidity =0.8.0;\nimport \"./Members.sol\";\nimport \"./MemberHelpers.sol\";\nimport \"@openzeppelin/contracts-upgradeable/access/AccessControlEnumerableUpgradeable.sol\";\n\n\n/**\n * @title CohortFactory\n * Allows on creation of invitations by Enterprise and acceptance of Validators of those \n * invitations. Finally Enterprise can create cohort consisting of invited Validators\n * and Enterprise. \n */\n\ncontract CohortFactory is  AccessControlEnumerableUpgradeable {\n\n // Audit types to be used. Two types added for future expansion \n    enum AuditTypes {\n        Unknown, Financial, System, NFT, Type4, Type5\n    }\n\n    uint256[] public minValidatorPerCohort;\n    bytes32 public constant SETTER_ROLE =  keccak256(\"SETTER_ROLE\");\n\n\n    // Invitation structure to hold info about its status\n    struct Invitation {\n        // address enterprise;\n        address validator;\n        uint256 invitationDate;      \n        uint256 acceptanceDate;\n        AuditTypes audits;\n        // address cohort;\n        bool deleted;\n    }\n\n    // struct Cohorts {\n    //     AuditTypes audits;\n    // }\n\n    mapping(address => uint256[]) public cohortList;\n    mapping(address => mapping(uint256=>bool)) public cohortMap;\n    mapping (address => mapping(address=> AuditTypes[])) public validatorCohortList;  // list of validators\n    \n\n    Members public members;                                            // pointer to Members contract1 \n    MemberHelpers public memberHelpers;                                       \n    mapping (address =>  Invitation[]) public invitations;      // invitations list\n\n\n    event ValidatorInvited(address  inviting, address indexed invitee, AuditTypes indexed audits, uint256 invitationNumber);\n    event InvitationAccepted(address indexed validator, uint256 invitationNumber);\n    event CohortCreated(address indexed enterprise, uint256 audits);\n    event UpdateMinValidatorsPerCohort(uint256 minValidatorPerCohort, AuditTypes audits);\n    event ValidatorCleared(address validator, AuditTypes audit, address enterprise);\n\n\n     /// @dev check if caller is a setter     \n    modifier isSetter {\n        require(hasRole(SETTER_ROLE, msg.sender), \"Members:isSetter - Caller is not a setter\");\n\n        _;\n    }   \n\n\n    function initialize(address _members, address _memberHelpers) external  {\n        members = Members(_members);\n        memberHelpers = MemberHelpers(_memberHelpers);\n        minValidatorPerCohort = [3,3,3,3,3,3];\n        _setupRole(DEFAULT_ADMIN_ROLE, msg.sender); // \n    }\n\n\n   /**\n    * @dev to be called by Governance contract to update new value for min validators per cohort\n    * @param _minValidatorPerCohort new value \n    * @param audits type of validations\n    */\n    function updateMinValidatorsPerCohort(uint256 _minValidatorPerCohort, uint8 audits) external  isSetter()  {\n\n        require(_minValidatorPerCohort != 0, \"CF:updateMinValidatorsPerCohort - Min validator per cohort can't be 0\");\n        require(audits <= 5 , \"Cohort Factory:updateMinValidatorsPerCohort - Audit type is out of range\");\n        minValidatorPerCohort[audits] = _minValidatorPerCohort;\n        emit UpdateMinValidatorsPerCohort(_minValidatorPerCohort, AuditTypes(audits));\n    }\n\n    /**\n    * @dev Used by Enterprise to invite validator\n    * @param validator address of the validator to invite\n    * @param audit type of the audit\n    */\n    function inviteValidator(address validator, uint256 audit) public {\n\n        bool isValidator = members.userMap(validator, Members.UserType(1));\n        bool isEnterprise = members.userMap(msg.sender, Members.UserType(0));\n        (bool invited, ) = isValidatorInvited(msg.sender, validator, audit);\n        require( !invited , \"CF:inviteValidator - Validator has been already invited\" );\n        require( isEnterprise, \"CF:inviteValidator - Only Enterprise user can invite.\");\n        require( isValidator, \"CF:inviteValidator - Only Approved Validators can be invited.\");\n        require( memberHelpers.deposits(validator) > 0,\"CF:inviteValidator - Validator has not staked.\");\n        \n        Invitation memory newInvitation;\n        newInvitation.validator = validator;\n        newInvitation.invitationDate = block.timestamp;     \n        newInvitation.audits = AuditTypes(audit);   \n        invitations[msg.sender].push(newInvitation);\n       \n         emit ValidatorInvited(msg.sender, validator, AuditTypes(audit), invitations[msg.sender].length - 1);\n    }\n    \n\n    /**\n    * @dev Used by Enterprise to invite multiple validators in one call \n    * @param validator address of the validator to invite\n    * @param audit type of the audit\n    */\n    function inviteValidatorMultiple(address[] memory validator, AuditTypes audit) external{\n\n        uint256 length = validator.length;\n        require(length <= 256, \"CF-inviteValidatorMultiple: List too long\");\n        for (uint256 i = 0; i < length; i++) {\n            inviteValidator(validator[i], uint256(audit));\n        }\n    }\n\n    /**\n    * @dev Used by Validator to accept Enterprise invitation\n    * @param enterprise address of the Enterprise who created invitation\n    * @param invitationNumber invitation number\n    */\n    function acceptInvitation(address enterprise, uint256 invitationNumber) public {\n\n        require( invitations[enterprise].length > invitationNumber, \"CF:acceptInvitation - Invitation doesn't exist\");\n        require( invitations[enterprise][invitationNumber].acceptanceDate == 0, \"CF:acceptInvitation- Accepted already .\");\n        require( invitations[enterprise][invitationNumber].validator == msg.sender, \"CF:acceptInvitation - You were not invited.\");\n        invitations[enterprise][invitationNumber].acceptanceDate = block.timestamp;\n          \n        emit InvitationAccepted(msg.sender, invitationNumber);\n    }\n\n\n    function clearInvitationRemoveValidator(address validator, AuditTypes audit) external  returns (bool) {\n\n        for (uint256 i = 0; i < invitations[msg.sender].length; i++){\n            if (invitations[msg.sender][i].audits == audit && invitations[msg.sender][i].validator ==  validator){\n                invitations[msg.sender][i].deleted = true;                \n                emit ValidatorCleared(validator, audit, msg.sender);\n                return true;\n            }\n        }\n\n\n        revert(\"This invitation doesn't exist\");\n    }\n\n    /**\n    * @dev Used by Validator to accept multiple Enterprise invitation\n    * @param enterprise address of the Enterprise who created invitation\n    * @param invitationNumber invitation number\n    */\n    function acceptInvitationMultiple(address[] memory enterprise, uint256[] memory invitationNumber) external{\n\n        uint256 length = enterprise.length;\n        for (uint256 i = 0; i < length; i++) {\n            acceptInvitation(enterprise[i], invitationNumber[i]);\n        }\n    }\n\n    /**\n    * @dev To return invitation count\n    * @param enterprise address of the Enterprise who created invitation\n    * @param audit type\n    * @return count of invitations\n    */\n    function returnInvitationCount(address enterprise, AuditTypes audit) public view returns(uint256) {\n\n        uint256 count;\n\n        for (uint i=0; i < invitations[enterprise].length; ++i ){\n            if (invitations[enterprise][i].audits == audit && \n                invitations[enterprise][i].acceptanceDate != 0 &&\n                !invitations[enterprise][i].deleted)\n                count ++;\n        }\n        return count;\n    }\n\n    /**\n    * @dev Used to determine if validator has been invited and/or if validation has been accepted\n    * @param enterprise inviting party\n    * @param validator address of the validator\n    * @param audits types\n    * @return true if invited\n    * @return true if accepted invitation\n    */\n    function isValidatorInvited(address enterprise, address validator, uint256 audits) public view returns (bool, bool) {\n\n        for (uint i=0; i < invitations[enterprise].length; ++i ){\n            if (invitations[enterprise][i].audits == AuditTypes(audits) && \n                invitations[enterprise][i].validator == validator &&\n                !invitations[enterprise][i].deleted){\n                if (invitations[enterprise][i].acceptanceDate > 0)\n                    return (true, true);\n                return (true, false);\n            }\n        }\n        return (false, false);\n    }\n\n     /**\n    * @dev Used to determine if validator has been invited and/or if validation has been accepted\n    * @param enterprise inviting party\n    * @param validator address of the validator\n    * @param audits types\n    * @param invitNumber invitation number\n    * @return true if invited\n    * @return true if accepted invitation\n    */\n    function isValidatorInvitedNumber(address enterprise, address validator, uint256 audits, uint256 invitNumber) external view returns (bool, bool) {\n\n        require(enterprise != address(0), \"CF:isValidatorInvitedNumber - enterprise can't be 0\");\n        require(validator != address(0), \"CF:isValidatorInvitedNumber - validtor can't be 0\");\n        require(audits <= 5, \"CF:isValidatorInvitedNumber - audit not in range\");\n\n        if (invitations[enterprise][invitNumber].audits == AuditTypes(audits) && \n            invitations[enterprise][invitNumber].validator == validator &&\n            !invitations[enterprise][invitNumber].deleted){\n            if (invitations[enterprise][invitNumber].acceptanceDate > 0)\n                return (true, true);\n            return (true, false);\n        }\n        return (false, false);\n    }\n\n    /**\n    * @dev Returns true for audit types for which enterprise has created cohorts.\n    * @param enterprise inviting party\n    * @return list of boolean variables with value true for audit types enterprise has initiated cohort, \n    */\n    function returnCohorts(address enterprise) external view returns (bool[] memory){\n\n        uint8 auditCount = 6;\n        bool[] memory audits = new bool[](auditCount);\n\n        for (uint8 i; i < auditCount; i++){\n            if (cohortMap[enterprise][i])\n               audits[i] = true;\n        }\n        return (audits);\n    }\n\n\n    /**\n    * @dev Returns list of validators \n    * @param enterprise to get list for\n    * @param audit type of audits\n    * @return list of boolean variables with value true for audit types enterprise has initiated cohort, \n    */\n    function returnValidatorList(address enterprise, uint8 audit)public view returns(address[] memory){\n\n        require(enterprise != address(0), \"CF:returnValidatorList - address can't be 0\");\n        require(audit <= 5, \"CF:returnValidatorList - audit not in range\");\n\n        address[] memory validatorsList = new address[](returnInvitationCount(enterprise, AuditTypes(audit)));\n        uint k;\n        for (uint i=0; i < invitations[enterprise].length; ++i ){\n            if (uint(invitations[enterprise][i].audits) == audit && invitations[enterprise][i].acceptanceDate > 0){\n                validatorsList[k] = invitations[enterprise][i].validator;\n                k++;\n            }\n        }\n        return validatorsList;\n    }\n\n     /**\n    * @dev create a list of validators to be initialized in new cohort   \n    * @param validators any array of address of the validators\n    * @param enterprise who created cohort\n    * @param audit  type of audit\n    */\n    function createValidatorCohortList(address[] memory validators, address enterprise, AuditTypes audit) internal {\n\n        for (uint256 i=0; i< validators.length; i++){\n            validatorCohortList[validators[i]][enterprise].push(audit);\n        }\n    }\n\n\n   /**\n    * @dev Used to determine cohorts count for given validator\n    * @param validator address of the validator\n    * @return number of cohorts\n    */ \n    function returnValidatorCohortsCount(address validator, address enterprise) external view returns (uint256){\n\n        return validatorCohortList[validator][enterprise].length;\n    }\n\n    /**\n    * @dev Initiate creation of a new cohort \n    * @param audit type\n    */\n    function createCohort(uint8 audit) external {\n        require(!cohortMap[msg.sender][uint8(audit)] , \"CF:createCohort - This cohort already exists.\");\n        address[] memory validators =  returnValidatorList(msg.sender, audit);\n        require(validators.length >= minValidatorPerCohort[uint8(audit)], \"CF:createCohort - Validator num below minimum.\");\n        cohortMap[msg.sender][uint8(audit)] = true;   \n        createValidatorCohortList(validators, msg.sender, AuditTypes(audit));\n        emit CohortCreated(msg.sender, audit);\n        \n    }\n\n    \n}\n",
  "sourcePath": "/home/win2win/eth/projects/AuditChain/Core-Smart-Contracts-v1-upgradable/contracts/Auditchain/CohortFacotory.sol",
  "compiler": {
    "name": "solc",
    "version": "0.8.0+commit.c7dfd78e.Emscripten.clang"
  },
  "schemaVersion": "3.4.1",
  "updatedAt": "2022-05-18T17:13:45.540Z",
  "devdoc": {
    "kind": "dev",
    "methods": {
      "acceptInvitation(address,uint256)": {
        "details": "Used by Validator to accept Enterprise invitation",
        "params": {
          "enterprise": "address of the Enterprise who created invitation",
          "invitationNumber": "invitation number"
        }
      },
      "acceptInvitationMultiple(address[],uint256[])": {
        "details": "Used by Validator to accept multiple Enterprise invitation",
        "params": {
          "enterprise": "address of the Enterprise who created invitation",
          "invitationNumber": "invitation number"
        }
      },
      "createCohort(uint8)": {
        "details": "Initiate creation of a new cohort ",
        "params": {
          "audit": "type"
        }
      },
      "getRoleAdmin(bytes32)": {
        "details": "Returns the admin role that controls `role`. See {grantRole} and {revokeRole}. To change a role's admin, use {_setRoleAdmin}."
      },
      "getRoleMember(bytes32,uint256)": {
        "details": "Returns one of the accounts that have `role`. `index` must be a value between 0 and {getRoleMemberCount}, non-inclusive. Role bearers are not sorted in any particular way, and their ordering may change at any point. WARNING: When using {getRoleMember} and {getRoleMemberCount}, make sure you perform all queries on the same block. See the following https://forum.openzeppelin.com/t/iterating-over-elements-on-enumerableset-in-openzeppelin-contracts/2296[forum post] for more information."
      },
      "getRoleMemberCount(bytes32)": {
        "details": "Returns the number of accounts that have `role`. Can be used together with {getRoleMember} to enumerate all bearers of a role."
      },
      "grantRole(bytes32,address)": {
        "details": "Overload {grantRole} to track enumerable memberships"
      },
      "hasRole(bytes32,address)": {
        "details": "Returns `true` if `account` has been granted `role`."
      },
      "inviteValidator(address,uint256)": {
        "details": "Used by Enterprise to invite validator",
        "params": {
          "audit": "type of the audit",
          "validator": "address of the validator to invite"
        }
      },
      "inviteValidatorMultiple(address[],uint8)": {
        "details": "Used by Enterprise to invite multiple validators in one call ",
        "params": {
          "audit": "type of the audit",
          "validator": "address of the validator to invite"
        }
      },
      "isValidatorInvited(address,address,uint256)": {
        "details": "Used to determine if validator has been invited and/or if validation has been accepted",
        "params": {
          "audits": "types",
          "enterprise": "inviting party",
          "validator": "address of the validator"
        },
        "returns": {
          "_0": "true if invited",
          "_1": "true if accepted invitation"
        }
      },
      "isValidatorInvitedNumber(address,address,uint256,uint256)": {
        "details": "Used to determine if validator has been invited and/or if validation has been accepted",
        "params": {
          "audits": "types",
          "enterprise": "inviting party",
          "invitNumber": "invitation number",
          "validator": "address of the validator"
        },
        "returns": {
          "_0": "true if invited",
          "_1": "true if accepted invitation"
        }
      },
      "renounceRole(bytes32,address)": {
        "details": "Overload {renounceRole} to track enumerable memberships"
      },
      "returnCohorts(address)": {
        "details": "Returns true for audit types for which enterprise has created cohorts.",
        "params": {
          "enterprise": "inviting party"
        },
        "returns": {
          "_0": "list of boolean variables with value true for audit types enterprise has initiated cohort, "
        }
      },
      "returnInvitationCount(address,uint8)": {
        "details": "To return invitation count",
        "params": {
          "audit": "type",
          "enterprise": "address of the Enterprise who created invitation"
        },
        "returns": {
          "_0": "count of invitations"
        }
      },
      "returnValidatorCohortsCount(address,address)": {
        "details": "Used to determine cohorts count for given validator",
        "params": {
          "validator": "address of the validator"
        },
        "returns": {
          "_0": "number of cohorts"
        }
      },
      "returnValidatorList(address,uint8)": {
        "details": "Returns list of validators ",
        "params": {
          "audit": "type of audits",
          "enterprise": "to get list for"
        },
        "returns": {
          "_0": "list of boolean variables with value true for audit types enterprise has initiated cohort, "
        }
      },
      "revokeRole(bytes32,address)": {
        "details": "Overload {revokeRole} to track enumerable memberships"
      },
      "supportsInterface(bytes4)": {
        "details": "See {IERC165-supportsInterface}."
      },
      "updateMinValidatorsPerCohort(uint256,uint8)": {
        "details": "to be called by Governance contract to update new value for min validators per cohort",
        "params": {
          "_minValidatorPerCohort": "new value ",
          "audits": "type of validations"
        }
      }
    },
    "title": "CohortFactory Allows on creation of invitations by Enterprise and acceptance of Validators of those  invitations. Finally Enterprise can create cohort consisting of invited Validators and Enterprise. ",
    "version": 1
  },
  "userdoc": {
    "kind": "user",
    "methods": {},
    "version": 1
  }
}