{
  "contractName": "DepositModifiers",
  "abi": [
    {
      "anonymous": false,
      "inputs": [
        {
          "indexed": true,
          "internalType": "address",
          "name": "from",
          "type": "address"
        },
        {
          "indexed": false,
          "internalType": "uint256",
          "name": "accessFee",
          "type": "uint256"
        },
        {
          "indexed": true,
          "internalType": "uint256",
          "name": "audits",
          "type": "uint256"
        },
        {
          "indexed": false,
          "internalType": "address",
          "name": "enterprise",
          "type": "address"
        },
        {
          "indexed": false,
          "internalType": "uint256",
          "name": "enterpriseShare",
          "type": "uint256"
        }
      ],
      "name": "LogDataSubscriberPaid",
      "type": "event"
    },
    {
      "anonymous": false,
      "inputs": [
        {
          "indexed": false,
          "internalType": "address",
          "name": "from",
          "type": "address"
        },
        {
          "indexed": true,
          "internalType": "address",
          "name": "validator",
          "type": "address"
        },
        {
          "indexed": false,
          "internalType": "uint256",
          "name": "amount",
          "type": "uint256"
        }
      ],
      "name": "LogDataSubscriberValidatorPaid",
      "type": "event"
    },
    {
      "anonymous": false,
      "inputs": [
        {
          "indexed": true,
          "internalType": "address",
          "name": "validator",
          "type": "address"
        },
        {
          "indexed": false,
          "internalType": "uint256",
          "name": "tokens",
          "type": "uint256"
        },
        {
          "indexed": false,
          "internalType": "bytes32",
          "name": "validationHash",
          "type": "bytes32"
        }
      ],
      "name": "LogFeesReceived",
      "type": "event"
    },
    {
      "anonymous": false,
      "inputs": [
        {
          "indexed": true,
          "internalType": "address",
          "name": "requestor",
          "type": "address"
        },
        {
          "indexed": false,
          "internalType": "address",
          "name": "winner",
          "type": "address"
        },
        {
          "indexed": false,
          "internalType": "bytes32",
          "name": "validationHash",
          "type": "bytes32"
        },
        {
          "indexed": false,
          "internalType": "uint256",
          "name": "amount",
          "type": "uint256"
        }
      ],
      "name": "LogNonCohortValidationPaid",
      "type": "event"
    },
    {
      "anonymous": false,
      "inputs": [
        {
          "indexed": false,
          "internalType": "uint256",
          "name": "tokens",
          "type": "uint256"
        },
        {
          "indexed": false,
          "internalType": "uint256",
          "name": "enterpriseAmount",
          "type": "uint256"
        },
        {
          "indexed": true,
          "internalType": "address",
          "name": "enterprise",
          "type": "address"
        },
        {
          "indexed": false,
          "internalType": "bytes32",
          "name": "validationHash",
          "type": "bytes32"
        }
      ],
      "name": "LogRewardsDeposited",
      "type": "event"
    },
    {
      "anonymous": false,
      "inputs": [
        {
          "indexed": false,
          "internalType": "address",
          "name": "subscriber",
          "type": "address"
        },
        {
          "indexed": false,
          "internalType": "uint256",
          "name": "numberOfSubscriptions",
          "type": "uint256"
        }
      ],
      "name": "LogSubscriptionCompleted",
      "type": "event"
    },
    {
      "anonymous": false,
      "inputs": [
        {
          "indexed": true,
          "internalType": "bytes32",
          "name": "role",
          "type": "bytes32"
        },
        {
          "indexed": true,
          "internalType": "bytes32",
          "name": "previousAdminRole",
          "type": "bytes32"
        },
        {
          "indexed": true,
          "internalType": "bytes32",
          "name": "newAdminRole",
          "type": "bytes32"
        }
      ],
      "name": "RoleAdminChanged",
      "type": "event"
    },
    {
      "anonymous": false,
      "inputs": [
        {
          "indexed": true,
          "internalType": "bytes32",
          "name": "role",
          "type": "bytes32"
        },
        {
          "indexed": true,
          "internalType": "address",
          "name": "account",
          "type": "address"
        },
        {
          "indexed": true,
          "internalType": "address",
          "name": "sender",
          "type": "address"
        }
      ],
      "name": "RoleGranted",
      "type": "event"
    },
    {
      "anonymous": false,
      "inputs": [
        {
          "indexed": true,
          "internalType": "bytes32",
          "name": "role",
          "type": "bytes32"
        },
        {
          "indexed": true,
          "internalType": "address",
          "name": "account",
          "type": "address"
        },
        {
          "indexed": true,
          "internalType": "address",
          "name": "sender",
          "type": "address"
        }
      ],
      "name": "RoleRevoked",
      "type": "event"
    },
    {
      "inputs": [],
      "name": "CONTROLLER_ROLE",
      "outputs": [
        {
          "internalType": "bytes32",
          "name": "",
          "type": "bytes32"
        }
      ],
      "stateMutability": "view",
      "type": "function"
    },
    {
      "inputs": [],
      "name": "DEFAULT_ADMIN_ROLE",
      "outputs": [
        {
          "internalType": "bytes32",
          "name": "",
          "type": "bytes32"
        }
      ],
      "stateMutability": "view",
      "type": "function"
    },
    {
      "inputs": [],
      "name": "auditToken",
      "outputs": [
        {
          "internalType": "address",
          "name": "",
          "type": "address"
        }
      ],
      "stateMutability": "view",
      "type": "function"
    },
    {
      "inputs": [],
      "name": "cohortFactory",
      "outputs": [
        {
          "internalType": "contract ICohortFactory",
          "name": "",
          "type": "address"
        }
      ],
      "stateMutability": "view",
      "type": "function"
    },
    {
      "inputs": [
        {
          "internalType": "address",
          "name": "",
          "type": "address"
        },
        {
          "internalType": "address",
          "name": "",
          "type": "address"
        },
        {
          "internalType": "uint256",
          "name": "",
          "type": "uint256"
        }
      ],
      "name": "dataSubscriberCohortMap",
      "outputs": [
        {
          "internalType": "bool",
          "name": "",
          "type": "bool"
        }
      ],
      "stateMutability": "view",
      "type": "function"
    },
    {
      "inputs": [
        {
          "internalType": "bytes32",
          "name": "role",
          "type": "bytes32"
        }
      ],
      "name": "getRoleAdmin",
      "outputs": [
        {
          "internalType": "bytes32",
          "name": "",
          "type": "bytes32"
        }
      ],
      "stateMutability": "view",
      "type": "function"
    },
    {
      "inputs": [
        {
          "internalType": "bytes32",
          "name": "role",
          "type": "bytes32"
        },
        {
          "internalType": "uint256",
          "name": "index",
          "type": "uint256"
        }
      ],
      "name": "getRoleMember",
      "outputs": [
        {
          "internalType": "address",
          "name": "",
          "type": "address"
        }
      ],
      "stateMutability": "view",
      "type": "function"
    },
    {
      "inputs": [
        {
          "internalType": "bytes32",
          "name": "role",
          "type": "bytes32"
        }
      ],
      "name": "getRoleMemberCount",
      "outputs": [
        {
          "internalType": "uint256",
          "name": "",
          "type": "uint256"
        }
      ],
      "stateMutability": "view",
      "type": "function"
    },
    {
      "inputs": [
        {
          "internalType": "bytes32",
          "name": "role",
          "type": "bytes32"
        },
        {
          "internalType": "address",
          "name": "account",
          "type": "address"
        }
      ],
      "name": "grantRole",
      "outputs": [],
      "stateMutability": "nonpayable",
      "type": "function"
    },
    {
      "inputs": [
        {
          "internalType": "bytes32",
          "name": "role",
          "type": "bytes32"
        },
        {
          "internalType": "address",
          "name": "account",
          "type": "address"
        }
      ],
      "name": "hasRole",
      "outputs": [
        {
          "internalType": "bool",
          "name": "",
          "type": "bool"
        }
      ],
      "stateMutability": "view",
      "type": "function"
    },
    {
      "inputs": [],
      "name": "memberHelpers",
      "outputs": [
        {
          "internalType": "contract MemberHelpers",
          "name": "",
          "type": "address"
        }
      ],
      "stateMutability": "view",
      "type": "function"
    },
    {
      "inputs": [],
      "name": "members",
      "outputs": [
        {
          "internalType": "contract Members",
          "name": "",
          "type": "address"
        }
      ],
      "stateMutability": "view",
      "type": "function"
    },
    {
      "inputs": [],
      "name": "nodeOperations",
      "outputs": [
        {
          "internalType": "contract INodeOperations",
          "name": "",
          "type": "address"
        }
      ],
      "stateMutability": "view",
      "type": "function"
    },
    {
      "inputs": [
        {
          "internalType": "bytes32",
          "name": "role",
          "type": "bytes32"
        },
        {
          "internalType": "address",
          "name": "account",
          "type": "address"
        }
      ],
      "name": "renounceRole",
      "outputs": [],
      "stateMutability": "nonpayable",
      "type": "function"
    },
    {
      "inputs": [
        {
          "internalType": "bytes32",
          "name": "role",
          "type": "bytes32"
        },
        {
          "internalType": "address",
          "name": "account",
          "type": "address"
        }
      ],
      "name": "revokeRole",
      "outputs": [],
      "stateMutability": "nonpayable",
      "type": "function"
    },
    {
      "inputs": [
        {
          "internalType": "bytes4",
          "name": "interfaceId",
          "type": "bytes4"
        }
      ],
      "name": "supportsInterface",
      "outputs": [
        {
          "internalType": "bool",
          "name": "",
          "type": "bool"
        }
      ],
      "stateMutability": "view",
      "type": "function"
    },
    {
      "inputs": [
        {
          "internalType": "address",
          "name": "_members",
          "type": "address"
        },
        {
          "internalType": "address",
          "name": "_auditToken",
          "type": "address"
        },
        {
          "internalType": "address",
          "name": "_memberHelpers",
          "type": "address"
        },
        {
          "internalType": "address",
          "name": "_cohortFactory",
          "type": "address"
        },
        {
          "internalType": "address",
          "name": "_nodeOperations",
          "type": "address"
        }
      ],
      "name": "initialize",
      "outputs": [],
      "stateMutability": "nonpayable",
      "type": "function"
    },
    {
      "inputs": [
        {
          "internalType": "address",
          "name": "enterpriseAddress",
          "type": "address"
        },
        {
          "internalType": "uint8",
          "name": "audits",
          "type": "uint8"
        }
      ],
      "name": "dataSubscriberPayment",
      "outputs": [],
      "stateMutability": "nonpayable",
      "type": "function"
    },
    {
      "inputs": [
        {
          "internalType": "address[]",
          "name": "enterprise",
          "type": "address[]"
        },
        {
          "internalType": "uint8[]",
          "name": "audits",
          "type": "uint8[]"
        }
      ],
      "name": "dataSubscriberPaymentMultiple",
      "outputs": [],
      "stateMutability": "nonpayable",
      "type": "function"
    },
    {
      "inputs": [
        {
          "internalType": "address",
          "name": "winner",
          "type": "address"
        },
        {
          "internalType": "address",
          "name": "_requestor",
          "type": "address"
        },
        {
          "internalType": "bytes32",
          "name": "validationHash",
          "type": "bytes32"
        }
      ],
      "name": "processPayment",
      "outputs": [],
      "stateMutability": "nonpayable",
      "type": "function"
    },
    {
      "inputs": [
        {
          "internalType": "address",
          "name": "_winner",
          "type": "address"
        },
        {
          "internalType": "address",
          "name": "_requestor",
          "type": "address"
        },
        {
          "internalType": "bytes32",
          "name": "validationHash",
          "type": "bytes32"
        },
        {
          "internalType": "uint256",
          "name": "price",
          "type": "uint256"
        }
      ],
      "name": "processNonChortPayment",
      "outputs": [],
      "stateMutability": "nonpayable",
      "type": "function"
    }
  ],
  "bytecode": "0x608060405234801561001057600080fd5b506153fd806100206000396000f3fe608060405234801561001057600080fd5b50600436106101375760003560e01c80634bd4545f116100b857806398c3c1161161007c57806398c3c1161461034c578063a217fddf1461036a578063a5cfbb3114610388578063bdd4d18d146103a4578063ca15c873146103c2578063d547741f146103f257610137565b80634bd4545f1461029457806371d8c7a0146102b257806373c16b9d146102d05780639010d07c146102ec57806391d148541461031c57610137565b8063248a9ca3116100ff578063248a9ca3146101f45780632f2ff15d1461022457806336568abe1461024057806346a9b4471461025c5780634b19c3a71461027857610137565b806301ffc9a71461013c578063092c5b3b1461016c5780631459457a1461018a5780631476ad21146101a657806320120ffa146101d6575b600080fd5b61015660048036038101906101519190613fee565b61040e565b6040516101639190614ad3565b60405180910390f35b610174610488565b6040516101819190614aee565b60405180910390f35b6101a4600480360381019061019f9190613cc3565b6104ac565b005b6101c060048036038101906101bb9190613dec565b610835565b6040516101cd9190614ad3565b60405180910390f35b6101de610872565b6040516101eb9190614b24565b60405180910390f35b61020e60048036038101906102099190613f4d565b610898565b60405161021b9190614aee565b60405180910390f35b61023e60048036038101906102399190613f76565b6108b8565b005b61025a60048036038101906102559190613f76565b6108ec565b005b61027660048036038101906102719190613e3b565b610920565b005b610292600480360381019061028d9190613eb8565b6116c4565b005b61029c6117f5565b6040516102a99190614b09565b60405180910390f35b6102ba61181b565b6040516102c79190614b3f565b60405180910390f35b6102ea60048036038101906102e59190613d89565b611841565b005b61030660048036038101906103019190613fb2565b611b7c565b60405161031391906149cf565b60405180910390f35b61033660048036038101906103319190613f76565b611bab565b6040516103439190614ad3565b60405180910390f35b610354611c16565b60405161036191906149cf565b60405180910390f35b610372611c3c565b60405161037f9190614aee565b60405180910390f35b6103a2600480360381019061039d9190613d3a565b611c43565b005b6103ac612676565b6040516103b99190614b5a565b60405180910390f35b6103dc60048036038101906103d79190613f4d565b61269c565b6040516103e99190614dd7565b60405180910390f35b61040c60048036038101906104079190613f76565b6126c0565b005b60007f5a05180f000000000000000000000000000000000000000000000000000000007bffffffffffffffffffffffffffffffffffffffffffffffffffffffff1916827bffffffffffffffffffffffffffffffffffffffffffffffffffffffff191614806104815750610480826126f4565b5b9050919050565b7f7b765e0e932d348852a6f810bfa1ab891e259123f02db8cdcde614c57022335781565b600073ffffffffffffffffffffffffffffffffffffffff168573ffffffffffffffffffffffffffffffffffffffff16141561051c576040517f08c379a000000000000000000000000000000000000000000000000000000000815260040161051390614c97565b60405180910390fd5b600073ffffffffffffffffffffffffffffffffffffffff168473ffffffffffffffffffffffffffffffffffffffff16141561058c576040517f08c379a000000000000000000000000000000000000000000000000000000000815260040161058390614bf7565b60405180910390fd5b600073ffffffffffffffffffffffffffffffffffffffff168373ffffffffffffffffffffffffffffffffffffffff1614156105fc576040517f08c379a00000000000000000000000000000000000000000000000000000000081526004016105f390614c37565b60405180910390fd5b600073ffffffffffffffffffffffffffffffffffffffff168273ffffffffffffffffffffffffffffffffffffffff16141561066c576040517f08c379a000000000000000000000000000000000000000000000000000000000815260040161066390614bd7565b60405180910390fd5b600073ffffffffffffffffffffffffffffffffffffffff168173ffffffffffffffffffffffffffffffffffffffff1614156106dc576040517f08c379a00000000000000000000000000000000000000000000000000000000081526004016106d390614cb7565b60405180910390fd5b8460fc60006101000a81548173ffffffffffffffffffffffffffffffffffffffff021916908373ffffffffffffffffffffffffffffffffffffffff1602179055508360fb60006101000a81548173ffffffffffffffffffffffffffffffffffffffff021916908373ffffffffffffffffffffffffffffffffffffffff1602179055508260fd60006101000a81548173ffffffffffffffffffffffffffffffffffffffff021916908373ffffffffffffffffffffffffffffffffffffffff1602179055508160fe60006101000a81548173ffffffffffffffffffffffffffffffffffffffff021916908373ffffffffffffffffffffffffffffffffffffffff1602179055508060ff60006101000a81548173ffffffffffffffffffffffffffffffffffffffff021916908373ffffffffffffffffffffffffffffffffffffffff16021790555061082e6000801b3361276e565b5050505050565b610100602052826000526040600020602052816000526040600020602052806000526040600020600092509250509054906101000a900460ff1681565b60ff60009054906101000a900473ffffffffffffffffffffffffffffffffffffffff1681565b600060656000838152602001908152602001600020600101549050919050565b6108c282826127a2565b6108e781609760008581526020019081526020016000206127cb90919063ffffffff16565b505050565b6108f682826127fb565b61091b816097600085815260200190815260200160002061287e90919063ffffffff16565b505050565b600260c9541415610966576040517f08c379a000000000000000000000000000000000000000000000000000000000815260040161095d90614d97565b60405180910390fd5b600260c981905550600073ffffffffffffffffffffffffffffffffffffffff168273ffffffffffffffffffffffffffffffffffffffff1614156109de576040517f08c379a00000000000000000000000000000000000000000000000000000000081526004016109d590614cd7565b60405180910390fd5b60058160ff161115610a25576040517f08c379a0000000000000000000000000000000000000000000000000000000008152600401610a1c90614c57565b60405180910390fd5b61010060003373ffffffffffffffffffffffffffffffffffffffff1673ffffffffffffffffffffffffffffffffffffffff16815260200190815260200160002060008373ffffffffffffffffffffffffffffffffffffffff1673ffffffffffffffffffffffffffffffffffffffff16815260200190815260200160002060008260ff16815260200190815260200160002060009054906101000a900460ff1615610b04576040517f08c379a0000000000000000000000000000000000000000000000000000000008152600401610afb90614cf7565b60405180910390fd5b60fc60009054906101000a900473ffffffffffffffffffffffffffffffffffffffff1673ffffffffffffffffffffffffffffffffffffffff16636f9cf98533600280811115610b7c577f4e487b7100000000000000000000000000000000000000000000000000000000600052602160045260246000fd5b6040518363ffffffff1660e01b8152600401610b99929190614a58565b60206040518083038186803b158015610bb157600080fd5b505afa158015610bc5573d6000803e3d6000fd5b505050506040513d601f19601f82011682018060405250810190610be99190613f24565b610c28576040517f08c379a0000000000000000000000000000000000000000000000000000000008152600401610c1f90614d37565b60405180910390fd5b600161010060003373ffffffffffffffffffffffffffffffffffffffff1673ffffffffffffffffffffffffffffffffffffffff16815260200190815260200160002060008473ffffffffffffffffffffffffffffffffffffffff1673ffffffffffffffffffffffffffffffffffffffff16815260200190815260200160002060008360ff16815260200190815260200160002060006101000a81548160ff021916908315150217905550600060fc60009054906101000a900473ffffffffffffffffffffffffffffffffffffffff1673ffffffffffffffffffffffffffffffffffffffff1663492b85cd6040518163ffffffff1660e01b815260040160206040518083038186803b158015610d3c57600080fd5b505afa158015610d50573d6000803e3d6000fd5b505050506040513d601f19601f82011682018060405250810190610d749190614017565b90508060fd60009054906101000a900473ffffffffffffffffffffffffffffffffffffffff1673ffffffffffffffffffffffffffffffffffffffff16638319d390336040518263ffffffff1660e01b8152600401610dd291906149cf565b60206040518083038186803b158015610dea57600080fd5b505afa158015610dfe573d6000803e3d6000fd5b505050506040513d601f19601f82011682018060405250810190610e229190614017565b1015610e63576040517f08c379a0000000000000000000000000000000000000000000000000000000008152600401610e5a90614d57565b60405180910390fd5b610eb233308360fb60009054906101000a900473ffffffffffffffffffffffffffffffffffffffff1673ffffffffffffffffffffffffffffffffffffffff166128ae909392919063ffffffff16565b600061101860fc60009054906101000a900473ffffffffffffffffffffffffffffffffffffffff1673ffffffffffffffffffffffffffffffffffffffff1663e9b6c9756040518163ffffffff1660e01b815260040160206040518083038186803b158015610f1f57600080fd5b505afa158015610f33573d6000803e3d6000fd5b505050506040513d601f19601f82011682018060405250810190610f579190614017565b61100a60fc60009054906101000a900473ffffffffffffffffffffffffffffffffffffffff1673ffffffffffffffffffffffffffffffffffffffff1663dac95d416040518163ffffffff1660e01b815260040160206040518083038186803b158015610fc257600080fd5b505afa158015610fd6573d6000803e3d6000fd5b505050506040513d601f19601f82011682018060405250810190610ffa9190614017565b606461293790919063ffffffff16565b61293790919063ffffffff16565b905061112b60fc60009054906101000a900473ffffffffffffffffffffffffffffffffffffffff1673ffffffffffffffffffffffffffffffffffffffff1663dbe55e566040518163ffffffff1660e01b815260040160206040518083038186803b15801561108557600080fd5b505afa158015611099573d6000803e3d6000fd5b505050506040513d601f19601f820116820180604052508101906110bd9190613c9a565b6110e360646110d5858761294d90919063ffffffff16565b61296390919063ffffffff16565b60fb60009054906101000a900473ffffffffffffffffffffffffffffffffffffffff1673ffffffffffffffffffffffffffffffffffffffff166129799092919063ffffffff16565b60fc60009054906101000a900473ffffffffffffffffffffffffffffffffffffffff1673ffffffffffffffffffffffffffffffffffffffff16636f9cf985336002808111156111a3577f4e487b7100000000000000000000000000000000000000000000000000000000600052602160045260246000fd5b6040518363ffffffff1660e01b81526004016111c0929190614a58565b60206040518083038186803b1580156111d857600080fd5b505afa1580156111ec573d6000803e3d6000fd5b505050506040513d601f19601f820116820180604052508101906112109190613f24565b806112fd575060fc60009054906101000a900473ffffffffffffffffffffffffffffffffffffffff1673ffffffffffffffffffffffffffffffffffffffff16636f9cf985336000600281111561128f577f4e487b7100000000000000000000000000000000000000000000000000000000600052602160045260246000fd5b6040518363ffffffff1660e01b81526004016112ac929190614a58565b60206040518083038186803b1580156112c457600080fd5b505afa1580156112d8573d6000803e3d6000fd5b505050506040513d601f19601f820116820180604052508101906112fc9190613f24565b5b156113e55760fd60009054906101000a900473ffffffffffffffffffffffffffffffffffffffff1673ffffffffffffffffffffffffffffffffffffffff1663c3fb1a6e33846040518363ffffffff1660e01b815260040161135f929190614a81565b602060405180830381600087803b15801561137957600080fd5b505af115801561138d573d6000803e3d6000fd5b505050506040513d601f19601f820116820180604052508101906113b19190613f24565b6113e4577f4e487b7100000000000000000000000000000000000000000000000000000000600052600160045260246000fd5b5b60006114ac606461149e60fc60009054906101000a900473ffffffffffffffffffffffffffffffffffffffff1673ffffffffffffffffffffffffffffffffffffffff1663dac95d416040518163ffffffff1660e01b815260040160206040518083038186803b15801561145757600080fd5b505afa15801561146b573d6000803e3d6000fd5b505050506040513d601f19601f8201168201806040525081019061148f9190614017565b8661294d90919063ffffffff16565b61296390919063ffffffff16565b905060fd60009054906101000a900473ffffffffffffffffffffffffffffffffffffffff1673ffffffffffffffffffffffffffffffffffffffff1663d417b7b386836040518363ffffffff1660e01b815260040161150b929190614a81565b602060405180830381600087803b15801561152557600080fd5b505af1158015611539573d6000803e3d6000fd5b505050506040513d601f19601f8201168201806040525081019061155d9190613f24565b611590577f4e487b7100000000000000000000000000000000000000000000000000000000600052600160045260246000fd5b61165f858561165a606461164c60fc60009054906101000a900473ffffffffffffffffffffffffffffffffffffffff1673ffffffffffffffffffffffffffffffffffffffff1663e9b6c9756040518163ffffffff1660e01b815260040160206040518083038186803b15801561160557600080fd5b505afa158015611619573d6000803e3d6000fd5b505050506040513d601f19601f8201168201806040525081019061163d9190614017565b8961294d90919063ffffffff16565b61296390919063ffffffff16565b6129ff565b8360ff163373ffffffffffffffffffffffffffffffffffffffff167f789d6ca7c6ba494ee9a2cbda76e410066f2ab37d7bf222e02830f76f977a7d298588856040516116ad93929190614df2565b60405180910390a3505050600160c9819055505050565b600082519050603281111561170e576040517f08c379a000000000000000000000000000000000000000000000000000000000815260040161170590614b97565b60405180910390fd5b60005b818110156117b6576117a3848281518110611755577f4e487b7100000000000000000000000000000000000000000000000000000000600052603260045260246000fd5b6020026020010151848381518110611796577f4e487b7100000000000000000000000000000000000000000000000000000000600052603260045260246000fd5b6020026020010151610920565b80806117ae90615213565b915050611711565b507fe0b9e94ab5fbe92a5c1fcdc7f3dba88b173c784bda0772e4998afde00857526833826040516117e8929190614a81565b60405180910390a1505050565b60fe60009054906101000a900473ffffffffffffffffffffffffffffffffffffffff1681565b60fd60009054906101000a900473ffffffffffffffffffffffffffffffffffffffff1681565b6040518060400160405280601681526020017f70726f636573734e6f6e43686f72745061796d656e740000000000000000000081525060008160405160200161188a9190614968565b60405160208183030381529060405290506118c57f7b765e0e932d348852a6f810bfa1ab891e259123f02db8cdcde614c57022335733611bab565b8190611907576040517f08c379a00000000000000000000000000000000000000000000000000000000081526004016118fe9190614b75565b60405180910390fd5b50600260c954141561194e576040517f08c379a000000000000000000000000000000000000000000000000000000000815260040161194590614d97565b60405180910390fd5b600260c98190555060fd60009054906101000a900473ffffffffffffffffffffffffffffffffffffffff1673ffffffffffffffffffffffffffffffffffffffff1663c3fb1a6e86856040518363ffffffff1660e01b81526004016119b3929190614a81565b602060405180830381600087803b1580156119cd57600080fd5b505af11580156119e1573d6000803e3d6000fd5b505050506040513d601f19601f82011682018060405250810190611a059190613f24565b611a38577f4e487b7100000000000000000000000000000000000000000000000000000000600052600160045260246000fd5b60ff60009054906101000a900473ffffffffffffffffffffffffffffffffffffffff1673ffffffffffffffffffffffffffffffffffffffff166342083e9787856040518363ffffffff1660e01b8152600401611a95929190614a81565b602060405180830381600087803b158015611aaf57600080fd5b505af1158015611ac3573d6000803e3d6000fd5b505050506040513d601f19601f82011682018060405250810190611ae79190613f24565b611b1a577f4e487b7100000000000000000000000000000000000000000000000000000000600052600160045260246000fd5b8473ffffffffffffffffffffffffffffffffffffffff167f71f25b27a282beb06a7ef6b4d9442e51dfe9a1679cd4a24bdc461258a5b63ee5878686604051611b6493929190614a21565b60405180910390a2600160c981905550505050505050565b6000611ba38260976000868152602001908152602001600020612f0090919063ffffffff16565b905092915050565b60006065600084815260200190815260200160002060000160008373ffffffffffffffffffffffffffffffffffffffff1673ffffffffffffffffffffffffffffffffffffffff16815260200190815260200160002060009054906101000a900460ff16905092915050565b60fb60009054906101000a900473ffffffffffffffffffffffffffffffffffffffff1681565b6000801b81565b6040518060400160405280600e81526020017f70726f636573735061796d656e74000000000000000000000000000000000000815250600081604051602001611c8c9190614968565b6040516020818303038152906040529050611cc77f7b765e0e932d348852a6f810bfa1ab891e259123f02db8cdcde614c57022335733611bab565b8190611d09576040517f08c379a0000000000000000000000000000000000000000000000000000000008152600401611d009190614b75565b60405180910390fd5b50600260c9541415611d50576040517f08c379a0000000000000000000000000000000000000000000000000000000008152600401611d4790614d97565b60405180910390fd5b600260c9819055506000611ebe6064611eb060fc60009054906101000a900473ffffffffffffffffffffffffffffffffffffffff1673ffffffffffffffffffffffffffffffffffffffff1663a7579be86040518163ffffffff1660e01b815260040160206040518083038186803b158015611dca57600080fd5b505afa158015611dde573d6000803e3d6000fd5b505050506040513d601f19601f82011682018060405250810190611e029190614017565b60fc60009054906101000a900473ffffffffffffffffffffffffffffffffffffffff1673ffffffffffffffffffffffffffffffffffffffff16634d9c798c6040518163ffffffff1660e01b815260040160206040518083038186803b158015611e6a57600080fd5b505afa158015611e7e573d6000803e3d6000fd5b505050506040513d601f19601f82011682018060405250810190611ea29190614017565b61294d90919063ffffffff16565b61296390919063ffffffff16565b90506000612026606461201860fc60009054906101000a900473ffffffffffffffffffffffffffffffffffffffff1673ffffffffffffffffffffffffffffffffffffffff16633507abaf6040518163ffffffff1660e01b815260040160206040518083038186803b158015611f3257600080fd5b505afa158015611f46573d6000803e3d6000fd5b505050506040513d601f19601f82011682018060405250810190611f6a9190614017565b60fc60009054906101000a900473ffffffffffffffffffffffffffffffffffffffff1673ffffffffffffffffffffffffffffffffffffffff16634d9c798c6040518163ffffffff1660e01b815260040160206040518083038186803b158015611fd257600080fd5b505afa158015611fe6573d6000803e3d6000fd5b505050506040513d601f19601f8201168201806040525081019061200a9190614017565b61294d90919063ffffffff16565b61296390919063ffffffff16565b905060006120ee826120e08560fc60009054906101000a900473ffffffffffffffffffffffffffffffffffffffff1673ffffffffffffffffffffffffffffffffffffffff16634d9c798c6040518163ffffffff1660e01b815260040160206040518083038186803b15801561209a57600080fd5b505afa1580156120ae573d6000803e3d6000fd5b505050506040513d601f19601f820116820180604052508101906120d29190614017565b612f1a90919063ffffffff16565b61293790919063ffffffff16565b905060fd60009054906101000a900473ffffffffffffffffffffffffffffffffffffffff1673ffffffffffffffffffffffffffffffffffffffff1663c3fb1a6e88856040518363ffffffff1660e01b815260040161214d929190614a81565b602060405180830381600087803b15801561216757600080fd5b505af115801561217b573d6000803e3d6000fd5b505050506040513d601f19601f8201168201806040525081019061219f9190613f24565b6121d2577f4e487b7100000000000000000000000000000000000000000000000000000000600052600160045260246000fd5b60fb60009054906101000a900473ffffffffffffffffffffffffffffffffffffffff1673ffffffffffffffffffffffffffffffffffffffff166340c10f193060fc60009054906101000a900473ffffffffffffffffffffffffffffffffffffffff1673ffffffffffffffffffffffffffffffffffffffff16634d9c798c6040518163ffffffff1660e01b815260040160206040518083038186803b15801561227957600080fd5b505afa15801561228d573d6000803e3d6000fd5b505050506040513d601f19601f820116820180604052508101906122b19190614017565b6040518363ffffffff1660e01b81526004016122ce929190614a81565b602060405180830381600087803b1580156122e857600080fd5b505af11580156122fc573d6000803e3d6000fd5b505050506040513d601f19601f820116820180604052508101906123209190613f24565b61235f576040517f08c379a000000000000000000000000000000000000000000000000000000000815260040161235690614c17565b60405180910390fd5b60fd60009054906101000a900473ffffffffffffffffffffffffffffffffffffffff1673ffffffffffffffffffffffffffffffffffffffff1663d417b7b360fc60009054906101000a900473ffffffffffffffffffffffffffffffffffffffff1673ffffffffffffffffffffffffffffffffffffffff1663dbe55e566040518163ffffffff1660e01b815260040160206040518083038186803b15801561240557600080fd5b505afa158015612419573d6000803e3d6000fd5b505050506040513d601f19601f8201168201806040525081019061243d9190613c9a565b846040518363ffffffff1660e01b815260040161245b929190614a81565b602060405180830381600087803b15801561247557600080fd5b505af1158015612489573d6000803e3d6000fd5b505050506040513d601f19601f820116820180604052508101906124ad9190613f24565b6124e0577f4e487b7100000000000000000000000000000000000000000000000000000000600052600160045260246000fd5b60fd60009054906101000a900473ffffffffffffffffffffffffffffffffffffffff1673ffffffffffffffffffffffffffffffffffffffff1663d417b7b389836040518363ffffffff1660e01b815260040161253d929190614a81565b602060405180830381600087803b15801561255757600080fd5b505af115801561256b573d6000803e3d6000fd5b505050506040513d601f19601f8201168201806040525081019061258f9190613f24565b6125c2577f4e487b7100000000000000000000000000000000000000000000000000000000600052600160045260246000fd5b8773ffffffffffffffffffffffffffffffffffffffff167f037abc98223efd7cb15f107ace271379a203ca8074c377ac5f59197a71d9c060828860405161260a929190614e29565b60405180910390a28673ffffffffffffffffffffffffffffffffffffffff167f1a685b956fe761ae8240849ef27481e954f16db54e815dae112f1f9860caeb3a82858960405161265c93929190614e52565b60405180910390a2505050600160c9819055505050505050565b60fc60009054906101000a900473ffffffffffffffffffffffffffffffffffffffff1681565b60006126b960976000848152602001908152602001600020612f30565b9050919050565b6126ca8282612f45565b6126ef816097600085815260200190815260200160002061287e90919063ffffffff16565b505050565b60007f7965db0b000000000000000000000000000000000000000000000000000000007bffffffffffffffffffffffffffffffffffffffffffffffffffffffff1916827bffffffffffffffffffffffffffffffffffffffffffffffffffffffff19161480612767575061276682612f6e565b5b9050919050565b6127788282612fd8565b61279d81609760008581526020019081526020016000206127cb90919063ffffffff16565b505050565b6127ab82610898565b6127bc816127b7612fe6565b612fee565b6127c6838361308b565b505050565b60006127f3836000018373ffffffffffffffffffffffffffffffffffffffff1660001b61316c565b905092915050565b612803612fe6565b73ffffffffffffffffffffffffffffffffffffffff168173ffffffffffffffffffffffffffffffffffffffff1614612870576040517f08c379a000000000000000000000000000000000000000000000000000000000815260040161286790614db7565b60405180910390fd5b61287a82826131dc565b5050565b60006128a6836000018373ffffffffffffffffffffffffffffffffffffffff1660001b6132be565b905092915050565b612931846323b872dd60e01b8585856040516024016128cf939291906149ea565b604051602081830303815290604052907bffffffffffffffffffffffffffffffffffffffffffffffffffffffff19166020820180517bffffffffffffffffffffffffffffffffffffffffffffffffffffffff8381831617835250505050613444565b50505050565b600081836129459190615030565b905092915050565b6000818361295b9190614fd6565b905092915050565b600081836129719190614fa5565b905092915050565b6129fa8363a9059cbb60e01b8484604051602401612998929190614a81565b604051602081830303815290604052907bffffffffffffffffffffffffffffffffffffffffffffffffffffffff19166020820180517bffffffffffffffffffffffffffffffffffffffffffffffffffffffff8381831617835250505050613444565b505050565b600060fe60009054906101000a900473ffffffffffffffffffffffffffffffffffffffff1673ffffffffffffffffffffffffffffffffffffffff166302495c5985856040518363ffffffff1660e01b8152600401612a5e929190614aaa565b60006040518083038186803b158015612a7657600080fd5b505afa158015612a8a573d6000803e3d6000fd5b505050506040513d6000823e3d601f19601f82011682018060405250810190612ab39190613e77565b9050600080600090505b8251811015612bd857612bc360fd60009054906101000a900473ffffffffffffffffffffffffffffffffffffffff1673ffffffffffffffffffffffffffffffffffffffff16638319d390858481518110612b40577f4e487b7100000000000000000000000000000000000000000000000000000000600052603260045260246000fd5b60200260200101516040518263ffffffff1660e01b8152600401612b6491906149cf565b60206040518083038186803b158015612b7c57600080fd5b505afa158015612b90573d6000803e3d6000fd5b505050506040513d601f19601f82011682018060405250810190612bb49190614017565b83612f1a90919063ffffffff16565b91508080612bd090615213565b915050612abd565b5060005b8251811015612ef8576000612cfe83612cf0678ac7230489e8000060fd60009054906101000a900473ffffffffffffffffffffffffffffffffffffffff1673ffffffffffffffffffffffffffffffffffffffff16638319d390898881518110612c6e577f4e487b7100000000000000000000000000000000000000000000000000000000600052603260045260246000fd5b60200260200101516040518263ffffffff1660e01b8152600401612c9291906149cf565b60206040518083038186803b158015612caa57600080fd5b505afa158015612cbe573d6000803e3d6000fd5b505050506040513d601f19601f82011682018060405250810190612ce29190614017565b61294d90919063ffffffff16565b61296390919063ffffffff16565b90506000612d2f678ac7230489e80000612d21848961294d90919063ffffffff16565b61296390919063ffffffff16565b905060fd60009054906101000a900473ffffffffffffffffffffffffffffffffffffffff1673ffffffffffffffffffffffffffffffffffffffff1663d417b7b3868581518110612da8577f4e487b7100000000000000000000000000000000000000000000000000000000600052603260045260246000fd5b6020026020010151836040518363ffffffff1660e01b8152600401612dce929190614a81565b602060405180830381600087803b158015612de857600080fd5b505af1158015612dfc573d6000803e3d6000fd5b505050506040513d601f19601f82011682018060405250810190612e209190613f24565b612e53577f4e487b7100000000000000000000000000000000000000000000000000000000600052600160045260246000fd5b848381518110612e8c577f4e487b7100000000000000000000000000000000000000000000000000000000600052603260045260246000fd5b602002602001015173ffffffffffffffffffffffffffffffffffffffff167f3e4fd36a8c6a5f774423977e7d7e6badc0d7f8972efdaa142830e6048bdcdd523383604051612edb929190614a81565b60405180910390a250508080612ef090615213565b915050612bdc565b505050505050565b6000612f0f836000018361350b565b60001c905092915050565b60008183612f289190614f4f565b905092915050565b6000612f3e8260000161355c565b9050919050565b612f4e82610898565b612f5f81612f5a612fe6565b612fee565b612f6983836131dc565b505050565b60007f01ffc9a7000000000000000000000000000000000000000000000000000000007bffffffffffffffffffffffffffffffffffffffffffffffffffffffff1916827bffffffffffffffffffffffffffffffffffffffffffffffffffffffff1916149050919050565b612fe2828261308b565b5050565b600033905090565b612ff88282611bab565b6130875761301d8173ffffffffffffffffffffffffffffffffffffffff16601461356d565b61302b8360001c602061356d565b60405160200161303c929190614995565b6040516020818303038152906040526040517f08c379a000000000000000000000000000000000000000000000000000000000815260040161307e9190614b75565b60405180910390fd5b5050565b6130958282611bab565b6131685760016065600084815260200190815260200160002060000160008373ffffffffffffffffffffffffffffffffffffffff1673ffffffffffffffffffffffffffffffffffffffff16815260200190815260200160002060006101000a81548160ff02191690831515021790555061310d612fe6565b73ffffffffffffffffffffffffffffffffffffffff168173ffffffffffffffffffffffffffffffffffffffff16837f2f8788117e7eff1d82e926ec794901d17c78024a50270940304540a733656f0d60405160405180910390a45b5050565b60006131788383613867565b6131d15782600001829080600181540180825580915050600190039060005260206000200160009091909190915055826000018054905083600101600084815260200190815260200160002081905550600190506131d6565b600090505b92915050565b6131e68282611bab565b156132ba5760006065600084815260200190815260200160002060000160008373ffffffffffffffffffffffffffffffffffffffff1673ffffffffffffffffffffffffffffffffffffffff16815260200190815260200160002060006101000a81548160ff02191690831515021790555061325f612fe6565b73ffffffffffffffffffffffffffffffffffffffff168173ffffffffffffffffffffffffffffffffffffffff16837ff6391f5c32d9c69d2a47ea670b442974b53935d1edc7fd64eb21e047a839171b60405160405180910390a45b5050565b600080836001016000848152602001908152602001600020549050600081146134385760006001826132f09190615030565b90506000600186600001805490506133089190615030565b90508181146133c357600086600001828154811061334f577f4e487b7100000000000000000000000000000000000000000000000000000000600052603260045260246000fd5b9060005260206000200154905080876000018481548110613399577f4e487b7100000000000000000000000000000000000000000000000000000000600052603260045260246000fd5b90600052602060002001819055508387600101600083815260200190815260200160002081905550505b856000018054806133fd577f4e487b7100000000000000000000000000000000000000000000000000000000600052603160045260246000fd5b60019003818190600052602060002001600090559055856001016000868152602001908152602001600020600090556001935050505061343e565b60009150505b92915050565b60006134a6826040518060400160405280602081526020017f5361666545524332303a206c6f772d6c6576656c2063616c6c206661696c65648152508573ffffffffffffffffffffffffffffffffffffffff1661388a9092919063ffffffff16565b905060008151111561350657808060200190518101906134c69190613f24565b613505576040517f08c379a00000000000000000000000000000000000000000000000000000000081526004016134fc90614d77565b60405180910390fd5b5b505050565b6000826000018281548110613549577f4e487b7100000000000000000000000000000000000000000000000000000000600052603260045260246000fd5b9060005260206000200154905092915050565b600081600001805490509050919050565b6060600060028360026135809190614fd6565b61358a9190614f4f565b67ffffffffffffffff8111156135c9577f4e487b7100000000000000000000000000000000000000000000000000000000600052604160045260246000fd5b6040519080825280601f01601f1916602001820160405280156135fb5781602001600182028036833780820191505090505b5090507f300000000000000000000000000000000000000000000000000000000000000081600081518110613659577f4e487b7100000000000000000000000000000000000000000000000000000000600052603260045260246000fd5b60200101907effffffffffffffffffffffffffffffffffffffffffffffffffffffffffffff1916908160001a9053507f7800000000000000000000000000000000000000000000000000000000000000816001815181106136e3577f4e487b7100000000000000000000000000000000000000000000000000000000600052603260045260246000fd5b60200101907effffffffffffffffffffffffffffffffffffffffffffffffffffffffffffff1916908160001a905350600060018460026137239190614fd6565b61372d9190614f4f565b90505b6001811115613819577f3031323334353637383961626364656600000000000000000000000000000000600f861660108110613795577f4e487b7100000000000000000000000000000000000000000000000000000000600052603260045260246000fd5b1a60f81b8282815181106137d2577f4e487b7100000000000000000000000000000000000000000000000000000000600052603260045260246000fd5b60200101907effffffffffffffffffffffffffffffffffffffffffffffffffffffffffffff1916908160001a905350600485901c945080613812906151e9565b9050613730565b506000841461385d576040517f08c379a000000000000000000000000000000000000000000000000000000000815260040161385490614bb7565b60405180910390fd5b8091505092915050565b600080836001016000848152602001908152602001600020541415905092915050565b606061389984846000856138a2565b90509392505050565b6060824710156138e7576040517f08c379a00000000000000000000000000000000000000000000000000000000081526004016138de90614c77565b60405180910390fd5b6138f0856139b6565b61392f576040517f08c379a000000000000000000000000000000000000000000000000000000000815260040161392690614d17565b60405180910390fd5b6000808673ffffffffffffffffffffffffffffffffffffffff1685876040516139589190614951565b60006040518083038185875af1925050503d8060008114613995576040519150601f19603f3d011682016040523d82523d6000602084013e61399a565b606091505b50915091506139aa8282866139c9565b92505050949350505050565b600080823b905060008111915050919050565b606083156139d957829050613a29565b6000835111156139ec5782518084602001fd5b816040517f08c379a0000000000000000000000000000000000000000000000000000000008152600401613a209190614b75565b60405180910390fd5b9392505050565b6000613a43613a3e84614eba565b614e89565b90508083825260208201905082856020860282011115613a6257600080fd5b60005b85811015613a925781613a788882613b74565b845260208401935060208301925050600181019050613a65565b5050509392505050565b6000613aaf613aaa84614eba565b614e89565b90508083825260208201905082856020860282011115613ace57600080fd5b60005b85811015613afe5781613ae48882613b89565b845260208401935060208301925050600181019050613ad1565b5050509392505050565b6000613b1b613b1684614ee6565b614e89565b90508083825260208201905082856020860282011115613b3a57600080fd5b60005b85811015613b6a5781613b508882613c85565b845260208401935060208301925050600181019050613b3d565b5050509392505050565b600081359050613b838161533d565b92915050565b600081519050613b988161533d565b92915050565b600082601f830112613baf57600080fd5b8135613bbf848260208601613a30565b91505092915050565b600082601f830112613bd957600080fd5b8151613be9848260208601613a9c565b91505092915050565b600082601f830112613c0357600080fd5b8135613c13848260208601613b08565b91505092915050565b600081519050613c2b81615354565b92915050565b600081359050613c408161536b565b92915050565b600081359050613c5581615382565b92915050565b600081359050613c6a81615399565b92915050565b600081519050613c7f81615399565b92915050565b600081359050613c94816153b0565b92915050565b600060208284031215613cac57600080fd5b6000613cba84828501613b89565b91505092915050565b600080600080600060a08688031215613cdb57600080fd5b6000613ce988828901613b74565b9550506020613cfa88828901613b74565b9450506040613d0b88828901613b74565b9350506060613d1c88828901613b74565b9250506080613d2d88828901613b74565b9150509295509295909350565b600080600060608486031215613d4f57600080fd5b6000613d5d86828701613b74565b9350506020613d6e86828701613b74565b9250506040613d7f86828701613c31565b9150509250925092565b60008060008060808587031215613d9f57600080fd5b6000613dad87828801613b74565b9450506020613dbe87828801613b74565b9350506040613dcf87828801613c31565b9250506060613de087828801613c5b565b91505092959194509250565b600080600060608486031215613e0157600080fd5b6000613e0f86828701613b74565b9350506020613e2086828701613b74565b9250506040613e3186828701613c5b565b9150509250925092565b60008060408385031215613e4e57600080fd5b6000613e5c85828601613b74565b9250506020613e6d85828601613c85565b9150509250929050565b600060208284031215613e8957600080fd5b600082015167ffffffffffffffff811115613ea357600080fd5b613eaf84828501613bc8565b91505092915050565b60008060408385031215613ecb57600080fd5b600083013567ffffffffffffffff811115613ee557600080fd5b613ef185828601613b9e565b925050602083013567ffffffffffffffff811115613f0e57600080fd5b613f1a85828601613bf2565b9150509250929050565b600060208284031215613f3657600080fd5b6000613f4484828501613c1c565b91505092915050565b600060208284031215613f5f57600080fd5b6000613f6d84828501613c31565b91505092915050565b60008060408385031215613f8957600080fd5b6000613f9785828601613c31565b9250506020613fa885828601613b74565b9150509250929050565b60008060408385031215613fc557600080fd5b6000613fd385828601613c31565b9250506020613fe485828601613c5b565b9150509250929050565b60006020828403121561400057600080fd5b600061400e84828501613c46565b91505092915050565b60006020828403121561402957600080fd5b600061403784828501613c70565b91505092915050565b61404981615064565b82525050565b61405881615076565b82525050565b61406781615082565b82525050565b600061407882614f12565b6140828185614f28565b93506140928185602086016151b6565b80840191505092915050565b6140a781615102565b82525050565b6140b681615126565b82525050565b6140c58161514a565b82525050565b6140d48161516e565b82525050565b6140e381615192565b82525050565b60006140f482614f1d565b6140fe8185614f33565b935061410e8185602086016151b6565b61411781615318565b840191505092915050565b600061412d82614f1d565b6141378185614f44565b93506141478185602086016151b6565b80840191505092915050565b6000614160603083614f33565b91507f444d3a64617461537562736372696265725061796d656e744d756c7469706c6560008301527f202d204c69737420746f6f206c6f6e67000000000000000000000000000000006020830152604082019050919050565b60006141c6602083614f33565b91507f537472696e67733a20686578206c656e67746820696e73756666696369656e746000830152602082019050919050565b6000614206601d83614f44565b91507f444d202d20286973436f6e74726f6c6c65722d4d6f646966696572293a0000006000830152601d82019050919050565b6000614246602983614f33565b91507f444d3a696e697469616c697a65202d20436f686f727420466163746f7279206360008301527f616e2774206265203000000000000000000000000000000000000000000000006020830152604082019050919050565b60006142ac602683614f33565b91507f444d3a696e697469616c697a65202d20417564697420546f6b656e2063616e2760008301527f74206265203000000000000000000000000000000000000000000000000000006020830152604082019050919050565b6000614312602283614f33565b91507f444d3a70726f636573735061796d656e74202d70726f626c656d206d696e746960008301527f6e670000000000000000000000000000000000000000000000000000000000006020830152604082019050919050565b6000614378602983614f33565b91507f444d3a696e697469616c697a65202d204d656d6265722048656c70657273206360008301527f616e2774206265203000000000000000000000000000000000000000000000006020830152604082019050919050565b60006143de604283614f33565b91507f444d3a64617461537562736372696265725061796d656e74202d20417564697460008301527f2074797065206973206e6f7420696e207468652072657175697265642072616e60208301527f67650000000000000000000000000000000000000000000000000000000000006040830152606082019050919050565b600061446a602683614f33565b91507f416464726573733a20696e73756666696369656e742062616c616e636520666f60008301527f722063616c6c00000000000000000000000000000000000000000000000000006020830152604082019050919050565b60006144d0602183614f33565b91507f444d3a696e697469616c697a65202d204d656d6265722063616e27742062652060008301527f30000000000000000000000000000000000000000000000000000000000000006020830152604082019050919050565b6000614536602a83614f33565b91507f444d3a696e697469616c697a65202d204e6f6465204f7065726174696f6e732060008301527f63616e27742062652030000000000000000000000000000000000000000000006020830152604082019050919050565b600061459c603883614f33565b91507f444d3a64617461537562736372696265725061796d656e74202d20456e74657260008301527f707269736520616464726573732063616e2774206265203000000000000000006020830152604082019050919050565b6000614602603583614f33565b91507f444d3a64617461537562736372696265725061796d656e74202d20596f75206160008301527f7265207375627363726962656420616c726561647900000000000000000000006020830152604082019050919050565b6000614668601d83614f33565b91507f416464726573733a2063616c6c20746f206e6f6e2d636f6e74726163740000006000830152602082019050919050565b60006146a8603c83614f33565b91507f444d3a64617461537562736372696265725061796d656e74202d20526567697360008301527f74657220617320646174612073756273637269626572206669727374000000006020830152604082019050919050565b600061470e601783614f44565b91507f416363657373436f6e74726f6c3a206163636f756e74200000000000000000006000830152601782019050919050565b600061474e603683614f33565b91507f444d3a64617461537562736372696265725061796d656e74202d20596f75206460008301527f6f6e2774206861766520656e6f75676820415544542e000000000000000000006020830152604082019050919050565b60006147b4602a83614f33565b91507f5361666545524332303a204552433230206f7065726174696f6e20646964206e60008301527f6f742073756363656564000000000000000000000000000000000000000000006020830152604082019050919050565b600061481a601f83614f33565b91507f5265656e7472616e637947756172643a207265656e7472616e742063616c6c006000830152602082019050919050565b600061485a601183614f44565b91507f206973206d697373696e6720726f6c65200000000000000000000000000000006000830152601182019050919050565b600061489a601c83614f44565b91507f2d2043616c6c6572206973206e6f74206120636f6e74726f6c6c6572000000006000830152601c82019050919050565b60006148da602f83614f33565b91507f416363657373436f6e74726f6c3a2063616e206f6e6c792072656e6f756e636560008301527f20726f6c657320666f722073656c6600000000000000000000000000000000006020830152604082019050919050565b61493c816150eb565b82525050565b61494b816151a4565b82525050565b600061495d828461406d565b915081905092915050565b6000614973826141f9565b915061497f8284614122565b915061498a8261488d565b915081905092915050565b60006149a082614701565b91506149ac8285614122565b91506149b78261484d565b91506149c38284614122565b91508190509392505050565b60006020820190506149e46000830184614040565b92915050565b60006060820190506149ff6000830186614040565b614a0c6020830185614040565b614a196040830184614933565b949350505050565b6000606082019050614a366000830186614040565b614a43602083018561405e565b614a506040830184614933565b949350505050565b6000604082019050614a6d6000830185614040565b614a7a60208301846140da565b9392505050565b6000604082019050614a966000830185614040565b614aa36020830184614933565b9392505050565b6000604082019050614abf6000830185614040565b614acc6020830184614942565b9392505050565b6000602082019050614ae8600083018461404f565b92915050565b6000602082019050614b03600083018461405e565b92915050565b6000602082019050614b1e600083018461409e565b92915050565b6000602082019050614b3960008301846140ad565b92915050565b6000602082019050614b5460008301846140bc565b92915050565b6000602082019050614b6f60008301846140cb565b92915050565b60006020820190508181036000830152614b8f81846140e9565b905092915050565b60006020820190508181036000830152614bb081614153565b9050919050565b60006020820190508181036000830152614bd0816141b9565b9050919050565b60006020820190508181036000830152614bf081614239565b9050919050565b60006020820190508181036000830152614c108161429f565b9050919050565b60006020820190508181036000830152614c3081614305565b9050919050565b60006020820190508181036000830152614c508161436b565b9050919050565b60006020820190508181036000830152614c70816143d1565b9050919050565b60006020820190508181036000830152614c908161445d565b9050919050565b60006020820190508181036000830152614cb0816144c3565b9050919050565b60006020820190508181036000830152614cd081614529565b9050919050565b60006020820190508181036000830152614cf08161458f565b9050919050565b60006020820190508181036000830152614d10816145f5565b9050919050565b60006020820190508181036000830152614d308161465b565b9050919050565b60006020820190508181036000830152614d508161469b565b9050919050565b60006020820190508181036000830152614d7081614741565b9050919050565b60006020820190508181036000830152614d90816147a7565b9050919050565b60006020820190508181036000830152614db08161480d565b9050919050565b60006020820190508181036000830152614dd0816148cd565b9050919050565b6000602082019050614dec6000830184614933565b92915050565b6000606082019050614e076000830186614933565b614e146020830185614040565b614e216040830184614933565b949350505050565b6000604082019050614e3e6000830185614933565b614e4b602083018461405e565b9392505050565b6000606082019050614e676000830186614933565b614e746020830185614933565b614e81604083018461405e565b949350505050565b6000604051905081810181811067ffffffffffffffff82111715614eb057614eaf6152e9565b5b8060405250919050565b600067ffffffffffffffff821115614ed557614ed46152e9565b5b602082029050602081019050919050565b600067ffffffffffffffff821115614f0157614f006152e9565b5b602082029050602081019050919050565b600081519050919050565b600081519050919050565b600081905092915050565b600082825260208201905092915050565b600081905092915050565b6000614f5a826150eb565b9150614f65836150eb565b9250827fffffffffffffffffffffffffffffffffffffffffffffffffffffffffffffffff03821115614f9a57614f9961525c565b5b828201905092915050565b6000614fb0826150eb565b9150614fbb836150eb565b925082614fcb57614fca61528b565b5b828204905092915050565b6000614fe1826150eb565b9150614fec836150eb565b9250817fffffffffffffffffffffffffffffffffffffffffffffffffffffffffffffffff04831182151516156150255761502461525c565b5b828202905092915050565b600061503b826150eb565b9150615046836150eb565b9250828210156150595761505861525c565b5b828203905092915050565b600061506f826150cb565b9050919050565b60008115159050919050565b6000819050919050565b60007fffffffff0000000000000000000000000000000000000000000000000000000082169050919050565b60008190506150c682615329565b919050565b600073ffffffffffffffffffffffffffffffffffffffff82169050919050565b6000819050919050565b600060ff82169050919050565b600061510d82615114565b9050919050565b600061511f826150cb565b9050919050565b600061513182615138565b9050919050565b6000615143826150cb565b9050919050565b60006151558261515c565b9050919050565b6000615167826150cb565b9050919050565b600061517982615180565b9050919050565b600061518b826150cb565b9050919050565b600061519d826150b8565b9050919050565b60006151af826150f5565b9050919050565b60005b838110156151d45780820151818401526020810190506151b9565b838111156151e3576000848401525b50505050565b60006151f4826150eb565b915060008214156152085761520761525c565b5b600182039050919050565b600061521e826150eb565b91507fffffffffffffffffffffffffffffffffffffffffffffffffffffffffffffffff8214156152515761525061525c565b5b600182019050919050565b7f4e487b7100000000000000000000000000000000000000000000000000000000600052601160045260246000fd5b7f4e487b7100000000000000000000000000000000000000000000000000000000600052601260045260246000fd5b7f4e487b7100000000000000000000000000000000000000000000000000000000600052602160045260246000fd5b7f4e487b7100000000000000000000000000000000000000000000000000000000600052604160045260246000fd5b6000601f19601f8301169050919050565b6003811061533a576153396152ba565b5b50565b61534681615064565b811461535157600080fd5b50565b61535d81615076565b811461536857600080fd5b50565b61537481615082565b811461537f57600080fd5b50565b61538b8161508c565b811461539657600080fd5b50565b6153a2816150eb565b81146153ad57600080fd5b50565b6153b9816150f5565b81146153c457600080fd5b5056fea2646970667358221220fc73fd5c7678717938d64303e10710ec0dffd55aaa4d5feaa5644aa485eb943864736f6c63430008000033",
  "immutableReferences": {},
  "source": "// SPDX-License-Identifier: MIT\npragma solidity =0.8.0;\npragma experimental ABIEncoderV2;\nimport \"@openzeppelin/contracts-upgradeable/access/AccessControlEnumerableUpgradeable.sol\";\nimport \"@openzeppelin/contracts-upgradeable/token/ERC20/utils/SafeERC20Upgradeable.sol\";\nimport \"@openzeppelin/contracts-upgradeable/utils/math/SafeMathUpgradeable.sol\";\nimport \"@openzeppelin/contracts-upgradeable/security/ReentrancyGuardUpgradeable.sol\";\nimport \"./Members.sol\";\nimport \"./MemberHelpers.sol\";\nimport \"./ICohortFactory.sol\";\nimport \"./INodeOperations.sol\";\n\n\n/**\n * @title DepositModifiers\n * Collection of function which alter deposit values\n */\n\ncontract DepositModifiers is  AccessControlEnumerableUpgradeable, ReentrancyGuardUpgradeable {\n    using SafeERC20Upgradeable for IERC20Upgradeable;\n    using SafeMathUpgradeable for uint256;\n\n\n    address public auditToken;                  \n    Members public members;\n    MemberHelpers public memberHelpers;\n    ICohortFactory public cohortFactory;\n    INodeOperations public nodeOperations;\n\n    struct DataSubscriberTypes{\n        address cohort;\n        uint256 audits;\n    }\n\n    mapping(address => mapping(address => mapping(uint256 => bool))) public dataSubscriberCohortMap;\n    bytes32 public constant CONTROLLER_ROLE = keccak256(\"CONTROLLER_ROLE\");\n\n    event LogDataSubscriberPaid(address indexed from, uint256 accessFee,  uint256 indexed audits, address enterprise, uint256 enterpriseShare);\n    event LogSubscriptionCompleted(address subscriber, uint256 numberOfSubscriptions);\n    event LogDataSubscriberValidatorPaid(address  from, address indexed validator, uint256 amount);\n    event LogFeesReceived(address indexed validator, uint256 tokens, bytes32 validationHash);\n    event LogRewardsDeposited(uint256 tokens, uint256 enterpriseAmount, address indexed enterprise, bytes32 validationHash);\n    event LogNonCohortValidationPaid(address indexed requestor, address winner, bytes32 validationHash, uint256 amount);\n\n\n    function initialize(address  _members, address _auditToken, address _memberHelpers, address _cohortFactory, address _nodeOperations) external  {\n        require(_members != address(0), \"DM:initialize - Member can't be 0\");\n        require(_auditToken != address(0), \"DM:initialize - Audit Token can't be 0\");\n        require(_memberHelpers != address(0), \"DM:initialize - Member Helpers can't be 0\");\n        require(_cohortFactory != address(0), \"DM:initialize - Cohort Factory can't be 0\");\n        require(_nodeOperations != address(0), \"DM:initialize - Node Operations can't be 0\");\n\n\n        members = Members(_members);\n        auditToken = _auditToken;\n        memberHelpers = MemberHelpers(_memberHelpers);\n        cohortFactory = ICohortFactory(_cohortFactory);\n        nodeOperations = INodeOperations(_nodeOperations);\n        _setupRole(DEFAULT_ADMIN_ROLE, msg.sender);\n    }\n\n\n    /// @dev check if caller is a controller\n    modifier isController(string memory source) {\n        string memory msgError = string(abi.encodePacked(\"DM - (isController-Modifier):\", source, \"- Caller is not a controller\"));\n        require(hasRole(CONTROLLER_ROLE, msg.sender),msgError);\n\n        _;\n    }\n\n\n    /**\n    * @dev called when data subscriber initiates subscription \n    * @param enterpriseAddress - address of the enterprise\n    * @param audits - type of audits this cohort is part of\n    */\n    function dataSubscriberPayment(address enterpriseAddress, uint8 audits) public nonReentrant {\n\n        require(enterpriseAddress != address(0), \"DM:dataSubscriberPayment - Enterprise address can't be 0\");\n        require(audits <= 5, \"DM:dataSubscriberPayment - Audit type is not in the required range\");\n        require(!dataSubscriberCohortMap[msg.sender][enterpriseAddress][audits], \"DM:dataSubscriberPayment - You are subscribed already\");\n        require(members.userMap(msg.sender, Members.UserType(2)), \"DM:dataSubscriberPayment - Register as data subscriber first\");\n\n        dataSubscriberCohortMap[msg.sender][enterpriseAddress][audits] = true;\n\n        uint256 accessFee = members.accessFee();\n\n        require(memberHelpers.returnDepositAmount(msg.sender) >= accessFee, \"DM:dataSubscriberPayment - You don't have enough AUDT.\");\n        IERC20Upgradeable(auditToken).safeTransferFrom(msg.sender, address(this), accessFee);\n        uint platformShare = (uint256(100)).sub(members.enterpriseShareSubscriber()).sub(members.validatorShareSubscriber());\n        IERC20Upgradeable(auditToken).safeTransfer(members.platformAddress(), accessFee.mul(platformShare).div(100));\n\n        if (members.userMap(msg.sender, Members.UserType(2)) || members.userMap(msg.sender, Members.UserType(0))){\n            assert(memberHelpers.decreaseDeposit(msg.sender, accessFee));\n        }\n\n        uint256 enterpriseShare = accessFee.mul(members.enterpriseShareSubscriber()).div(100);\n        assert(memberHelpers.increaseDeposit(enterpriseAddress, enterpriseShare));\n\n        allocateValidatorDataSubscriberFee(enterpriseAddress, audits, accessFee.mul(members.validatorShareSubscriber()).div(100));\n\n        emit LogDataSubscriberPaid(msg.sender, accessFee, audits, enterpriseAddress, enterpriseShare);\n    }\n\n    /**\n    * @dev To calculate validator share of data subscriber fee and allocate it to validator deposits\n    * @param enterprise - address of cohort holding list of validators\n    * @param audits - audit type\n    * @param amount - total amount of tokens available for allocation\n    */\n    function allocateValidatorDataSubscriberFee(address enterprise, uint8 audits, uint256 amount) internal  {\n\n        address[] memory cohortValidators = cohortFactory.returnValidatorList(enterprise, audits);\n        uint256 totalDeposits;\n\n        for (uint i=0; i < cohortValidators.length; i++){\n            totalDeposits = totalDeposits.add(memberHelpers.returnDepositAmount(cohortValidators[i]));\n        }\n\n        for (uint i=0; i < cohortValidators.length; i++){\n            uint256 oneValidatorPercentage = (memberHelpers.returnDepositAmount(cohortValidators[i]).mul(10e18)).div(totalDeposits);\n            uint256 oneValidatorAmount = (amount.mul(oneValidatorPercentage)).div(10e18);\n            assert(memberHelpers.increaseDeposit(cohortValidators[i], oneValidatorAmount));\n            emit LogDataSubscriberValidatorPaid(msg.sender, cohortValidators[i], oneValidatorAmount);\n        }\n    }\n\n\n    /**\n    * @dev To automate subscription for multiple cohorts for data subscriber \n    * @param enterprise - array of enterprise addresses\n    * @param audits - array of audit types for each cohort\n    */\n    function dataSubscriberPaymentMultiple(address[] memory enterprise, uint8[] memory audits) external {\n\n        uint256 length = enterprise.length;\n        require(length <= 50, \"DM:dataSubscriberPaymentMultiple - List too long\");\n        for (uint256 i = 0; i < length; i++) {\n            dataSubscriberPayment(enterprise[i], audits[i]);\n        }\n\n        emit LogSubscriptionCompleted(msg.sender, length);\n    }\n\n    /**\n    * @dev To process payment for cohort validation\n    * @param winner - winner of POW\n    * @param _requestor - requesting party\n    * @param validationHash -  hash identifying validation\n    */\n    function processPayment(address winner, address _requestor, bytes32 validationHash) external  isController(\"processPayment\") nonReentrant {\n\n        uint256 enterprisePortion =  members.amountTokensPerValidation().mul(members.enterpriseMatch()).div(100);\n        uint256 platformFee = members.amountTokensPerValidation().mul(members.platformShareValidation()).div(100);\n        uint256 winnerFee = members.amountTokensPerValidation().add(enterprisePortion).sub(platformFee);\n\n        assert(memberHelpers.decreaseDeposit(_requestor, enterprisePortion));\n        require(IAuditToken(auditToken).mint(address(this), members.amountTokensPerValidation()), \"DM:processPayment -problem minting\");\n        assert(memberHelpers.increaseDeposit(members.platformAddress(), platformFee));\n\n        assert(memberHelpers.increaseDeposit(winner, winnerFee));\n        emit LogFeesReceived(winner, winnerFee, validationHash);\n        emit LogRewardsDeposited(winnerFee, enterprisePortion, _requestor, validationHash);\n    }\n\n\n     /**\n    * @dev To process payment for no cohort validation\n    * @param _winner - winner of the POW\n    * @param _requestor - requesting party\n    * @param validationHash -  hash identifying validation\n    */\n    function processNonChortPayment(address _winner, address _requestor, bytes32 validationHash, uint256 price) external isController(\"processNonChortPayment\") nonReentrant {\n\n        // uint256 POWFee = nodeOperations.POWFee();\n        assert(memberHelpers.decreaseDeposit(_requestor, price));\n        assert(nodeOperations.increasePOWRewards(_winner, price));\n        emit LogNonCohortValidationPaid(_requestor, _winner, validationHash, price);\n    }\n\n}",
  "sourcePath": "/home/win2win/eth/projects/AuditChain/Core-Smart-Contracts-v1-upgradable/contracts/Auditchain/DepositModifiers.sol",
  "compiler": {
    "name": "solc",
    "version": "0.8.0+commit.c7dfd78e.Emscripten.clang"
  },
  "schemaVersion": "3.4.1",
  "updatedAt": "2022-05-18T17:13:45.555Z",
  "devdoc": {
    "kind": "dev",
    "methods": {
      "dataSubscriberPayment(address,uint8)": {
        "details": "called when data subscriber initiates subscription ",
        "params": {
          "audits": "- type of audits this cohort is part of",
          "enterpriseAddress": "- address of the enterprise"
        }
      },
      "dataSubscriberPaymentMultiple(address[],uint8[])": {
        "details": "To automate subscription for multiple cohorts for data subscriber ",
        "params": {
          "audits": "- array of audit types for each cohort",
          "enterprise": "- array of enterprise addresses"
        }
      },
      "getRoleAdmin(bytes32)": {
        "details": "Returns the admin role that controls `role`. See {grantRole} and {revokeRole}. To change a role's admin, use {_setRoleAdmin}."
      },
      "getRoleMember(bytes32,uint256)": {
        "details": "Returns one of the accounts that have `role`. `index` must be a value between 0 and {getRoleMemberCount}, non-inclusive. Role bearers are not sorted in any particular way, and their ordering may change at any point. WARNING: When using {getRoleMember} and {getRoleMemberCount}, make sure you perform all queries on the same block. See the following https://forum.openzeppelin.com/t/iterating-over-elements-on-enumerableset-in-openzeppelin-contracts/2296[forum post] for more information."
      },
      "getRoleMemberCount(bytes32)": {
        "details": "Returns the number of accounts that have `role`. Can be used together with {getRoleMember} to enumerate all bearers of a role."
      },
      "grantRole(bytes32,address)": {
        "details": "Overload {grantRole} to track enumerable memberships"
      },
      "hasRole(bytes32,address)": {
        "details": "Returns `true` if `account` has been granted `role`."
      },
      "processNonChortPayment(address,address,bytes32,uint256)": {
        "details": "To process payment for no cohort validation",
        "params": {
          "_requestor": "- requesting party",
          "_winner": "- winner of the POW",
          "validationHash": "-  hash identifying validation"
        }
      },
      "processPayment(address,address,bytes32)": {
        "details": "To process payment for cohort validation",
        "params": {
          "_requestor": "- requesting party",
          "validationHash": "-  hash identifying validation",
          "winner": "- winner of POW"
        }
      },
      "renounceRole(bytes32,address)": {
        "details": "Overload {renounceRole} to track enumerable memberships"
      },
      "revokeRole(bytes32,address)": {
        "details": "Overload {revokeRole} to track enumerable memberships"
      },
      "supportsInterface(bytes4)": {
        "details": "See {IERC165-supportsInterface}."
      }
    },
    "title": "DepositModifiers Collection of function which alter deposit values",
    "version": 1
  },
  "userdoc": {
    "kind": "user",
    "methods": {},
    "version": 1
  }
}