{
  "contractName": "DepositModifiers",
  "abi": [
    {
      "anonymous": false,
      "inputs": [
        {
          "indexed": true,
          "internalType": "address",
          "name": "from",
          "type": "address"
        },
        {
          "indexed": false,
          "internalType": "uint256",
          "name": "accessFee",
          "type": "uint256"
        },
        {
          "indexed": true,
          "internalType": "uint256",
          "name": "audits",
          "type": "uint256"
        },
        {
          "indexed": false,
          "internalType": "address",
          "name": "enterprise",
          "type": "address"
        },
        {
          "indexed": false,
          "internalType": "uint256",
          "name": "enterpriseShare",
          "type": "uint256"
        }
      ],
      "name": "LogDataSubscriberPaid",
      "type": "event"
    },
    {
      "anonymous": false,
      "inputs": [
        {
          "indexed": false,
          "internalType": "address",
          "name": "from",
          "type": "address"
        },
        {
          "indexed": true,
          "internalType": "address",
          "name": "validator",
          "type": "address"
        },
        {
          "indexed": false,
          "internalType": "uint256",
          "name": "amount",
          "type": "uint256"
        }
      ],
      "name": "LogDataSubscriberValidatorPaid",
      "type": "event"
    },
    {
      "anonymous": false,
      "inputs": [
        {
          "indexed": true,
          "internalType": "address",
          "name": "validator",
          "type": "address"
        },
        {
          "indexed": false,
          "internalType": "uint256",
          "name": "tokens",
          "type": "uint256"
        },
        {
          "indexed": false,
          "internalType": "bytes32",
          "name": "validationHash",
          "type": "bytes32"
        }
      ],
      "name": "LogFeesReceived",
      "type": "event"
    },
    {
      "anonymous": false,
      "inputs": [
        {
          "indexed": true,
          "internalType": "address",
          "name": "requestor",
          "type": "address"
        },
        {
          "indexed": false,
          "internalType": "address",
          "name": "winner",
          "type": "address"
        },
        {
          "indexed": false,
          "internalType": "bytes32",
          "name": "validationHash",
          "type": "bytes32"
        },
        {
          "indexed": false,
          "internalType": "uint256",
          "name": "amount",
          "type": "uint256"
        }
      ],
      "name": "LogNonCohortValidationPaid",
      "type": "event"
    },
    {
      "anonymous": false,
      "inputs": [
        {
          "indexed": false,
          "internalType": "uint256",
          "name": "tokens",
          "type": "uint256"
        },
        {
          "indexed": false,
          "internalType": "uint256",
          "name": "enterpriseAmount",
          "type": "uint256"
        },
        {
          "indexed": true,
          "internalType": "address",
          "name": "enterprise",
          "type": "address"
        },
        {
          "indexed": false,
          "internalType": "bytes32",
          "name": "validationHash",
          "type": "bytes32"
        }
      ],
      "name": "LogRewardsDeposited",
      "type": "event"
    },
    {
      "anonymous": false,
      "inputs": [
        {
          "indexed": false,
          "internalType": "address",
          "name": "subscriber",
          "type": "address"
        },
        {
          "indexed": false,
          "internalType": "uint256",
          "name": "numberOfSubscriptions",
          "type": "uint256"
        }
      ],
      "name": "LogSubscriptionCompleted",
      "type": "event"
    },
    {
      "anonymous": false,
      "inputs": [
        {
          "indexed": true,
          "internalType": "bytes32",
          "name": "role",
          "type": "bytes32"
        },
        {
          "indexed": true,
          "internalType": "bytes32",
          "name": "previousAdminRole",
          "type": "bytes32"
        },
        {
          "indexed": true,
          "internalType": "bytes32",
          "name": "newAdminRole",
          "type": "bytes32"
        }
      ],
      "name": "RoleAdminChanged",
      "type": "event"
    },
    {
      "anonymous": false,
      "inputs": [
        {
          "indexed": true,
          "internalType": "bytes32",
          "name": "role",
          "type": "bytes32"
        },
        {
          "indexed": true,
          "internalType": "address",
          "name": "account",
          "type": "address"
        },
        {
          "indexed": true,
          "internalType": "address",
          "name": "sender",
          "type": "address"
        }
      ],
      "name": "RoleGranted",
      "type": "event"
    },
    {
      "anonymous": false,
      "inputs": [
        {
          "indexed": true,
          "internalType": "bytes32",
          "name": "role",
          "type": "bytes32"
        },
        {
          "indexed": true,
          "internalType": "address",
          "name": "account",
          "type": "address"
        },
        {
          "indexed": true,
          "internalType": "address",
          "name": "sender",
          "type": "address"
        }
      ],
      "name": "RoleRevoked",
      "type": "event"
    },
    {
      "inputs": [],
      "name": "CONTROLLER_ROLE",
      "outputs": [
        {
          "internalType": "bytes32",
          "name": "",
          "type": "bytes32"
        }
      ],
      "stateMutability": "view",
      "type": "function",
      "constant": true
    },
    {
      "inputs": [],
      "name": "DEFAULT_ADMIN_ROLE",
      "outputs": [
        {
          "internalType": "bytes32",
          "name": "",
          "type": "bytes32"
        }
      ],
      "stateMutability": "view",
      "type": "function",
      "constant": true
    },
    {
      "inputs": [],
      "name": "auditToken",
      "outputs": [
        {
          "internalType": "address",
          "name": "",
          "type": "address"
        }
      ],
      "stateMutability": "view",
      "type": "function",
      "constant": true
    },
    {
      "inputs": [],
      "name": "cohortFactory",
      "outputs": [
        {
          "internalType": "contract ICohortFactory",
          "name": "",
          "type": "address"
        }
      ],
      "stateMutability": "view",
      "type": "function",
      "constant": true
    },
    {
      "inputs": [
        {
          "internalType": "address",
          "name": "",
          "type": "address"
        },
        {
          "internalType": "address",
          "name": "",
          "type": "address"
        },
        {
          "internalType": "uint256",
          "name": "",
          "type": "uint256"
        }
      ],
      "name": "dataSubscriberCohortMap",
      "outputs": [
        {
          "internalType": "bool",
          "name": "",
          "type": "bool"
        }
      ],
      "stateMutability": "view",
      "type": "function",
      "constant": true
    },
    {
      "inputs": [
        {
          "internalType": "address",
          "name": "",
          "type": "address"
        },
        {
          "internalType": "uint256",
          "name": "",
          "type": "uint256"
        }
      ],
      "name": "dataSubscriberCohorts",
      "outputs": [
        {
          "internalType": "address",
          "name": "cohort",
          "type": "address"
        },
        {
          "internalType": "uint256",
          "name": "audits",
          "type": "uint256"
        }
      ],
      "stateMutability": "view",
      "type": "function",
      "constant": true
    },
    {
      "inputs": [
        {
          "internalType": "bytes32",
          "name": "role",
          "type": "bytes32"
        }
      ],
      "name": "getRoleAdmin",
      "outputs": [
        {
          "internalType": "bytes32",
          "name": "",
          "type": "bytes32"
        }
      ],
      "stateMutability": "view",
      "type": "function",
      "constant": true
    },
    {
      "inputs": [
        {
          "internalType": "bytes32",
          "name": "role",
          "type": "bytes32"
        },
        {
          "internalType": "uint256",
          "name": "index",
          "type": "uint256"
        }
      ],
      "name": "getRoleMember",
      "outputs": [
        {
          "internalType": "address",
          "name": "",
          "type": "address"
        }
      ],
      "stateMutability": "view",
      "type": "function",
      "constant": true
    },
    {
      "inputs": [
        {
          "internalType": "bytes32",
          "name": "role",
          "type": "bytes32"
        }
      ],
      "name": "getRoleMemberCount",
      "outputs": [
        {
          "internalType": "uint256",
          "name": "",
          "type": "uint256"
        }
      ],
      "stateMutability": "view",
      "type": "function",
      "constant": true
    },
    {
      "inputs": [
        {
          "internalType": "bytes32",
          "name": "role",
          "type": "bytes32"
        },
        {
          "internalType": "address",
          "name": "account",
          "type": "address"
        }
      ],
      "name": "grantRole",
      "outputs": [],
      "stateMutability": "nonpayable",
      "type": "function"
    },
    {
      "inputs": [
        {
          "internalType": "bytes32",
          "name": "role",
          "type": "bytes32"
        },
        {
          "internalType": "address",
          "name": "account",
          "type": "address"
        }
      ],
      "name": "hasRole",
      "outputs": [
        {
          "internalType": "bool",
          "name": "",
          "type": "bool"
        }
      ],
      "stateMutability": "view",
      "type": "function",
      "constant": true
    },
    {
      "inputs": [],
      "name": "memberHelpers",
      "outputs": [
        {
          "internalType": "contract MemberHelpers",
          "name": "",
          "type": "address"
        }
      ],
      "stateMutability": "view",
      "type": "function",
      "constant": true
    },
    {
      "inputs": [],
      "name": "nodeOperations",
      "outputs": [
        {
          "internalType": "contract INodeOperations",
          "name": "",
          "type": "address"
        }
      ],
      "stateMutability": "view",
      "type": "function",
      "constant": true
    },
    {
      "inputs": [
        {
          "internalType": "bytes32",
          "name": "role",
          "type": "bytes32"
        },
        {
          "internalType": "address",
          "name": "account",
          "type": "address"
        }
      ],
      "name": "renounceRole",
      "outputs": [],
      "stateMutability": "nonpayable",
      "type": "function"
    },
    {
      "inputs": [
        {
          "internalType": "bytes32",
          "name": "role",
          "type": "bytes32"
        },
        {
          "internalType": "address",
          "name": "account",
          "type": "address"
        }
      ],
      "name": "revokeRole",
      "outputs": [],
      "stateMutability": "nonpayable",
      "type": "function"
    },
    {
      "inputs": [
        {
          "internalType": "bytes4",
          "name": "interfaceId",
          "type": "bytes4"
        }
      ],
      "name": "supportsInterface",
      "outputs": [
        {
          "internalType": "bool",
          "name": "",
          "type": "bool"
        }
      ],
      "stateMutability": "view",
      "type": "function",
      "constant": true
    },
    {
      "inputs": [
        {
          "internalType": "address",
          "name": "_members",
          "type": "address"
        },
        {
          "internalType": "address",
          "name": "_auditToken",
          "type": "address"
        },
        {
          "internalType": "address",
          "name": "_memberHelpers",
          "type": "address"
        },
        {
          "internalType": "address",
          "name": "_cohortFactory",
          "type": "address"
        },
        {
          "internalType": "address",
          "name": "_nodeOperations",
          "type": "address"
        }
      ],
      "name": "initialize",
      "outputs": [],
      "stateMutability": "nonpayable",
      "type": "function"
    },
    {
      "inputs": [
        {
          "internalType": "address",
          "name": "enterpriseAddress",
          "type": "address"
        },
        {
          "internalType": "uint8",
          "name": "audits",
          "type": "uint8"
        }
      ],
      "name": "dataSubscriberPayment",
      "outputs": [],
      "stateMutability": "nonpayable",
      "type": "function"
    },
    {
      "inputs": [
        {
          "internalType": "address[]",
          "name": "enterprise",
          "type": "address[]"
        },
        {
          "internalType": "uint8[]",
          "name": "audits",
          "type": "uint8[]"
        }
      ],
      "name": "dataSubscriberPaymentMultiple",
      "outputs": [],
      "stateMutability": "nonpayable",
      "type": "function"
    },
    {
      "inputs": [
        {
          "internalType": "address",
          "name": "winner",
          "type": "address"
        },
        {
          "internalType": "address",
          "name": "_requestor",
          "type": "address"
        },
        {
          "internalType": "bytes32",
          "name": "validationHash",
          "type": "bytes32"
        }
      ],
      "name": "processPayment",
      "outputs": [],
      "stateMutability": "nonpayable",
      "type": "function"
    },
    {
      "inputs": [
        {
          "internalType": "address",
          "name": "_winner",
          "type": "address"
        },
        {
          "internalType": "address",
          "name": "_requestor",
          "type": "address"
        },
        {
          "internalType": "bytes32",
          "name": "validationHash",
          "type": "bytes32"
        },
        {
          "internalType": "uint256",
          "name": "price",
          "type": "uint256"
        }
      ],
      "name": "processNonChortPayment",
      "outputs": [],
      "stateMutability": "nonpayable",
      "type": "function"
    },
    {
      "inputs": [
        {
          "internalType": "address",
          "name": "subscriber",
          "type": "address"
        }
      ],
      "name": "returnCohortsForDataSubscriber",
      "outputs": [
        {
          "components": [
            {
              "internalType": "address",
              "name": "cohort",
              "type": "address"
            },
            {
              "internalType": "uint256",
              "name": "audits",
              "type": "uint256"
            }
          ],
          "internalType": "struct DepositModifiers.DataSubscriberTypes[]",
          "name": "",
          "type": "tuple[]"
        }
      ],
      "stateMutability": "view",
      "type": "function",
      "constant": true
    }
  ],
  "bytecode": "0x608060405234801561001057600080fd5b50614eef806100206000396000f3fe608060405234801561001057600080fd5b50600436106101425760003560e01c80634bd4545f116100b857806391d148541161007c57806391d148541461038857806398c3c116146103b8578063a217fddf146103d6578063a5cfbb31146103f4578063ca15c87314610410578063d547741f1461044057610142565b80634bd4545f146102cf57806371d8c7a0146102ed57806373c16b9d1461030b57806382d51ba8146103275780639010d07c1461035857610142565b8063248a9ca31161010a578063248a9ca3146101ff5780632f2ff15d1461022f57806332cd42441461024b57806336568abe1461027b57806346a9b447146102975780634b19c3a7146102b357610142565b806301ffc9a714610147578063092c5b3b146101775780631459457a146101955780631476ad21146101b157806320120ffa146101e1575b600080fd5b610161600480360381019061015c9190613c50565b61045c565b60405161016e919061468b565b60405180910390f35b61017f6104d6565b60405161018c91906146a6565b60405180910390f35b6101af60048036038101906101aa91906138e9565b6104fa565b005b6101cb60048036038101906101c69190613a12565b6106c3565b6040516101d8919061468b565b60405180910390f35b6101e96106ff565b6040516101f691906146dc565b60405180910390f35b61021960048036038101906102149190613baf565b610725565b60405161022691906146a6565b60405180910390f35b61024960048036038101906102449190613bd8565b610745565b005b61026560048036038101906102609190613897565b610779565b6040516102729190614669565b60405180910390f35b61029560048036038101906102909190613bd8565b610877565b005b6102b160048036038101906102ac9190613a9d565b6108ab565b005b6102cd60048036038101906102c89190613b1a565b611561565b005b6102d7611693565b6040516102e491906146c1565b60405180910390f35b6102f56116b9565b60405161030291906146f7565b60405180910390f35b610325600480360381019061032091906139af565b6116df565b005b610341600480360381019061033c9190613a61565b61191e565b60405161034f929190614617565b60405180910390f35b610372600480360381019061036d9190613c14565b61197f565b60405161037f9190614565565b60405180910390f35b6103a2600480360381019061039d9190613bd8565b6119ae565b6040516103af919061468b565b60405180910390f35b6103c0611a19565b6040516103cd9190614565565b60405180910390f35b6103de611a3f565b6040516103eb91906146a6565b60405180910390f35b61040e60048036038101906104099190613960565b611a46565b005b61042a60048036038101906104259190613baf565b6122ec565b60405161043791906148b4565b60405180910390f35b61045a60048036038101906104559190613bd8565b612310565b005b60007f5a05180f000000000000000000000000000000000000000000000000000000007bffffffffffffffffffffffffffffffffffffffffffffffffffffffff1916827bffffffffffffffffffffffffffffffffffffffffffffffffffffffff191614806104cf57506104ce82612344565b5b9050919050565b7f7b765e0e932d348852a6f810bfa1ab891e259123f02db8cdcde614c57022335781565b600073ffffffffffffffffffffffffffffffffffffffff168573ffffffffffffffffffffffffffffffffffffffff16141561056a576040517f08c379a0000000000000000000000000000000000000000000000000000000008152600401610561906147b4565b60405180910390fd5b8460ca60006101000a81548173ffffffffffffffffffffffffffffffffffffffff021916908373ffffffffffffffffffffffffffffffffffffffff1602179055508360c960006101000a81548173ffffffffffffffffffffffffffffffffffffffff021916908373ffffffffffffffffffffffffffffffffffffffff1602179055508260cb60006101000a81548173ffffffffffffffffffffffffffffffffffffffff021916908373ffffffffffffffffffffffffffffffffffffffff1602179055508160cc60006101000a81548173ffffffffffffffffffffffffffffffffffffffff021916908373ffffffffffffffffffffffffffffffffffffffff1602179055508060cd60006101000a81548173ffffffffffffffffffffffffffffffffffffffff021916908373ffffffffffffffffffffffffffffffffffffffff1602179055506106bc6000801b336123be565b5050505050565b60cf602052826000526040600020602052816000526040600020602052806000526040600020600092509250509054906101000a900460ff1681565b60cd60009054906101000a900473ffffffffffffffffffffffffffffffffffffffff1681565b600060656000838152602001908152602001600020600101549050919050565b61074f82826123f2565b610774816097600085815260200190815260200160002061241b90919063ffffffff16565b505050565b606060ce60008373ffffffffffffffffffffffffffffffffffffffff1673ffffffffffffffffffffffffffffffffffffffff168152602001908152602001600020805480602002602001604051908101604052809291908181526020016000905b8282101561086c57838290600052602060002090600202016040518060400160405290816000820160009054906101000a900473ffffffffffffffffffffffffffffffffffffffff1673ffffffffffffffffffffffffffffffffffffffff1673ffffffffffffffffffffffffffffffffffffffff168152602001600182015481525050815260200190600101906107da565b505050509050919050565b610881828261244b565b6108a681609760008581526020019081526020016000206124ce90919063ffffffff16565b505050565b600073ffffffffffffffffffffffffffffffffffffffff168273ffffffffffffffffffffffffffffffffffffffff16141561091b576040517f08c379a000000000000000000000000000000000000000000000000000000000815260040161091290614754565b60405180910390fd5b60008160ff1610158015610933575060058160ff1611155b610972576040517f08c379a000000000000000000000000000000000000000000000000000000000815260040161096990614814565b60405180910390fd5b60cf60003373ffffffffffffffffffffffffffffffffffffffff1673ffffffffffffffffffffffffffffffffffffffff16815260200190815260200160002060008373ffffffffffffffffffffffffffffffffffffffff1673ffffffffffffffffffffffffffffffffffffffff16815260200190815260200160002060008260ff16815260200190815260200160002060009054906101000a900460ff1615610a50576040517f08c379a0000000000000000000000000000000000000000000000000000000008152600401610a47906147d4565b60405180910390fd5b60ca60009054906101000a900473ffffffffffffffffffffffffffffffffffffffff1673ffffffffffffffffffffffffffffffffffffffff16636f9cf98533600280811115610ac8577f4e487b7100000000000000000000000000000000000000000000000000000000600052602160045260246000fd5b6040518363ffffffff1660e01b8152600401610ae59291906145ee565b60206040518083038186803b158015610afd57600080fd5b505afa158015610b11573d6000803e3d6000fd5b505050506040513d601f19601f82011682018060405250810190610b359190613b86565b610b74576040517f08c379a0000000000000000000000000000000000000000000000000000000008152600401610b6b90614774565b60405180910390fd5b600060ca60009054906101000a900473ffffffffffffffffffffffffffffffffffffffff1673ffffffffffffffffffffffffffffffffffffffff1663492b85cd6040518163ffffffff1660e01b815260040160206040518083038186803b158015610bde57600080fd5b505afa158015610bf2573d6000803e3d6000fd5b505050506040513d601f19601f82011682018060405250810190610c169190613c79565b90508060cb60009054906101000a900473ffffffffffffffffffffffffffffffffffffffff1673ffffffffffffffffffffffffffffffffffffffff16638319d390336040518263ffffffff1660e01b8152600401610c749190614565565b60206040518083038186803b158015610c8c57600080fd5b505afa158015610ca0573d6000803e3d6000fd5b505050506040513d601f19601f82011682018060405250810190610cc49190613c79565b1015610d05576040517f08c379a0000000000000000000000000000000000000000000000000000000008152600401610cfc906147f4565b60405180910390fd5b610d5433308360c960009054906101000a900473ffffffffffffffffffffffffffffffffffffffff1673ffffffffffffffffffffffffffffffffffffffff166124fe909392919063ffffffff16565b6000610eba60ca60009054906101000a900473ffffffffffffffffffffffffffffffffffffffff1673ffffffffffffffffffffffffffffffffffffffff1663e9b6c9756040518163ffffffff1660e01b815260040160206040518083038186803b158015610dc157600080fd5b505afa158015610dd5573d6000803e3d6000fd5b505050506040513d601f19601f82011682018060405250810190610df99190613c79565b610eac60ca60009054906101000a900473ffffffffffffffffffffffffffffffffffffffff1673ffffffffffffffffffffffffffffffffffffffff1663dac95d416040518163ffffffff1660e01b815260040160206040518083038186803b158015610e6457600080fd5b505afa158015610e78573d6000803e3d6000fd5b505050506040513d601f19601f82011682018060405250810190610e9c9190613c79565b606461258790919063ffffffff16565b61258790919063ffffffff16565b9050610fcd60ca60009054906101000a900473ffffffffffffffffffffffffffffffffffffffff1673ffffffffffffffffffffffffffffffffffffffff1663dbe55e566040518163ffffffff1660e01b815260040160206040518083038186803b158015610f2757600080fd5b505afa158015610f3b573d6000803e3d6000fd5b505050506040513d601f19601f82011682018060405250810190610f5f91906138c0565b610f856064610f77858761259d90919063ffffffff16565b6125b390919063ffffffff16565b60c960009054906101000a900473ffffffffffffffffffffffffffffffffffffffff1673ffffffffffffffffffffffffffffffffffffffff166125c99092919063ffffffff16565b60ca60009054906101000a900473ffffffffffffffffffffffffffffffffffffffff1673ffffffffffffffffffffffffffffffffffffffff16636f9cf98533600280811115611045577f4e487b7100000000000000000000000000000000000000000000000000000000600052602160045260246000fd5b6040518363ffffffff1660e01b81526004016110629291906145ee565b60206040518083038186803b15801561107a57600080fd5b505afa15801561108e573d6000803e3d6000fd5b505050506040513d601f19601f820116820180604052508101906110b29190613b86565b8061119f575060ca60009054906101000a900473ffffffffffffffffffffffffffffffffffffffff1673ffffffffffffffffffffffffffffffffffffffff16636f9cf9853360006002811115611131577f4e487b7100000000000000000000000000000000000000000000000000000000600052602160045260246000fd5b6040518363ffffffff1660e01b815260040161114e9291906145ee565b60206040518083038186803b15801561116657600080fd5b505afa15801561117a573d6000803e3d6000fd5b505050506040513d601f19601f8201168201806040525081019061119e9190613b86565b5b156112345760cb60009054906101000a900473ffffffffffffffffffffffffffffffffffffffff1673ffffffffffffffffffffffffffffffffffffffff1663c3fb1a6e33846040518363ffffffff1660e01b8152600401611201929190614617565b600060405180830381600087803b15801561121b57600080fd5b505af115801561122f573d6000803e3d6000fd5b505050505b60006112fb60646112ed60ca60009054906101000a900473ffffffffffffffffffffffffffffffffffffffff1673ffffffffffffffffffffffffffffffffffffffff1663dac95d416040518163ffffffff1660e01b815260040160206040518083038186803b1580156112a657600080fd5b505afa1580156112ba573d6000803e3d6000fd5b505050506040513d601f19601f820116820180604052508101906112de9190613c79565b8661259d90919063ffffffff16565b6125b390919063ffffffff16565b905060cb60009054906101000a900473ffffffffffffffffffffffffffffffffffffffff1673ffffffffffffffffffffffffffffffffffffffff1663d417b7b386836040518363ffffffff1660e01b815260040161135a929190614617565b600060405180830381600087803b15801561137457600080fd5b505af1158015611388573d6000803e3d6000fd5b5050505061145b8585611456606461144860ca60009054906101000a900473ffffffffffffffffffffffffffffffffffffffff1673ffffffffffffffffffffffffffffffffffffffff1663e9b6c9756040518163ffffffff1660e01b815260040160206040518083038186803b15801561140157600080fd5b505afa158015611415573d6000803e3d6000fd5b505050506040513d601f19601f820116820180604052508101906114399190613c79565b8961259d90919063ffffffff16565b6125b390919063ffffffff16565b61264f565b600160cf60003373ffffffffffffffffffffffffffffffffffffffff1673ffffffffffffffffffffffffffffffffffffffff16815260200190815260200160002060008773ffffffffffffffffffffffffffffffffffffffff1673ffffffffffffffffffffffffffffffffffffffff16815260200190815260200160002060008660ff16815260200190815260200160002060006101000a81548160ff0219169083151502179055508360ff163373ffffffffffffffffffffffffffffffffffffffff167f789d6ca7c6ba494ee9a2cbda76e410066f2ab37d7bf222e02830f76f977a7d29858885604051611552939291906148cf565b60405180910390a35050505050565b6000825190506101008111156115ac576040517f08c379a00000000000000000000000000000000000000000000000000000000081526004016115a390614894565b60405180910390fd5b60005b81811015611654576116418482815181106115f3577f4e487b7100000000000000000000000000000000000000000000000000000000600052603260045260246000fd5b6020026020010151848381518110611634577f4e487b7100000000000000000000000000000000000000000000000000000000600052603260045260246000fd5b60200260200101516108ab565b808061164c90614d05565b9150506115af565b507fe0b9e94ab5fbe92a5c1fcdc7f3dba88b173c784bda0772e4998afde0085752683382604051611686929190614617565b60405180910390a1505050565b60cc60009054906101000a900473ffffffffffffffffffffffffffffffffffffffff1681565b60cb60009054906101000a900473ffffffffffffffffffffffffffffffffffffffff1681565b6040518060400160405280601681526020017f70726f636573734e6f6e43686f72745061796d656e740000000000000000000081525060008160405160200161172891906144fe565b60405160208183030381529060405290506117637f7b765e0e932d348852a6f810bfa1ab891e259123f02db8cdcde614c570223357336119ae565b81906117a5576040517f08c379a000000000000000000000000000000000000000000000000000000000815260040161179c9190614712565b60405180910390fd5b5060cb60009054906101000a900473ffffffffffffffffffffffffffffffffffffffff1673ffffffffffffffffffffffffffffffffffffffff1663c3fb1a6e86856040518363ffffffff1660e01b8152600401611803929190614617565b600060405180830381600087803b15801561181d57600080fd5b505af1158015611831573d6000803e3d6000fd5b5050505060cd60009054906101000a900473ffffffffffffffffffffffffffffffffffffffff1673ffffffffffffffffffffffffffffffffffffffff166342083e9787856040518363ffffffff1660e01b8152600401611892929190614617565b600060405180830381600087803b1580156118ac57600080fd5b505af11580156118c0573d6000803e3d6000fd5b505050508473ffffffffffffffffffffffffffffffffffffffff167f71f25b27a282beb06a7ef6b4d9442e51dfe9a1679cd4a24bdc461258a5b63ee587868660405161190e939291906145b7565b60405180910390a2505050505050565b60ce602052816000526040600020818154811061193a57600080fd5b9060005260206000209060020201600091509150508060000160009054906101000a900473ffffffffffffffffffffffffffffffffffffffff16908060010154905082565b60006119a68260976000868152602001908152602001600020612afd90919063ffffffff16565b905092915050565b60006065600084815260200190815260200160002060000160008373ffffffffffffffffffffffffffffffffffffffff1673ffffffffffffffffffffffffffffffffffffffff16815260200190815260200160002060009054906101000a900460ff16905092915050565b60c960009054906101000a900473ffffffffffffffffffffffffffffffffffffffff1681565b6000801b81565b6040518060400160405280600e81526020017f70726f636573735061796d656e74000000000000000000000000000000000000815250600081604051602001611a8f91906144fe565b6040516020818303038152906040529050611aca7f7b765e0e932d348852a6f810bfa1ab891e259123f02db8cdcde614c570223357336119ae565b8190611b0c576040517f08c379a0000000000000000000000000000000000000000000000000000000008152600401611b039190614712565b60405180910390fd5b506000611c736064611c6560ca60009054906101000a900473ffffffffffffffffffffffffffffffffffffffff1673ffffffffffffffffffffffffffffffffffffffff1663a7579be86040518163ffffffff1660e01b815260040160206040518083038186803b158015611b7f57600080fd5b505afa158015611b93573d6000803e3d6000fd5b505050506040513d601f19601f82011682018060405250810190611bb79190613c79565b60ca60009054906101000a900473ffffffffffffffffffffffffffffffffffffffff1673ffffffffffffffffffffffffffffffffffffffff16634d9c798c6040518163ffffffff1660e01b815260040160206040518083038186803b158015611c1f57600080fd5b505afa158015611c33573d6000803e3d6000fd5b505050506040513d601f19601f82011682018060405250810190611c579190613c79565b61259d90919063ffffffff16565b6125b390919063ffffffff16565b90506000611ddb6064611dcd60ca60009054906101000a900473ffffffffffffffffffffffffffffffffffffffff1673ffffffffffffffffffffffffffffffffffffffff16633507abaf6040518163ffffffff1660e01b815260040160206040518083038186803b158015611ce757600080fd5b505afa158015611cfb573d6000803e3d6000fd5b505050506040513d601f19601f82011682018060405250810190611d1f9190613c79565b60ca60009054906101000a900473ffffffffffffffffffffffffffffffffffffffff1673ffffffffffffffffffffffffffffffffffffffff16634d9c798c6040518163ffffffff1660e01b815260040160206040518083038186803b158015611d8757600080fd5b505afa158015611d9b573d6000803e3d6000fd5b505050506040513d601f19601f82011682018060405250810190611dbf9190613c79565b61259d90919063ffffffff16565b6125b390919063ffffffff16565b90506000611ea382611e958560ca60009054906101000a900473ffffffffffffffffffffffffffffffffffffffff1673ffffffffffffffffffffffffffffffffffffffff16634d9c798c6040518163ffffffff1660e01b815260040160206040518083038186803b158015611e4f57600080fd5b505afa158015611e63573d6000803e3d6000fd5b505050506040513d601f19601f82011682018060405250810190611e879190613c79565b612b1790919063ffffffff16565b61258790919063ffffffff16565b905060cb60009054906101000a900473ffffffffffffffffffffffffffffffffffffffff1673ffffffffffffffffffffffffffffffffffffffff1663c3fb1a6e88856040518363ffffffff1660e01b8152600401611f02929190614617565b600060405180830381600087803b158015611f1c57600080fd5b505af1158015611f30573d6000803e3d6000fd5b5050505060c960009054906101000a900473ffffffffffffffffffffffffffffffffffffffff1673ffffffffffffffffffffffffffffffffffffffff166340c10f193060ca60009054906101000a900473ffffffffffffffffffffffffffffffffffffffff1673ffffffffffffffffffffffffffffffffffffffff16634d9c798c6040518163ffffffff1660e01b815260040160206040518083038186803b158015611fdb57600080fd5b505afa158015611fef573d6000803e3d6000fd5b505050506040513d601f19601f820116820180604052508101906120139190613c79565b6040518363ffffffff1660e01b8152600401612030929190614617565b602060405180830381600087803b15801561204a57600080fd5b505af115801561205e573d6000803e3d6000fd5b505050506040513d601f19601f820116820180604052508101906120829190613b86565b5060cb60009054906101000a900473ffffffffffffffffffffffffffffffffffffffff1673ffffffffffffffffffffffffffffffffffffffff1663d417b7b360ca60009054906101000a900473ffffffffffffffffffffffffffffffffffffffff1673ffffffffffffffffffffffffffffffffffffffff1663dbe55e566040518163ffffffff1660e01b815260040160206040518083038186803b15801561212957600080fd5b505afa15801561213d573d6000803e3d6000fd5b505050506040513d601f19601f8201168201806040525081019061216191906138c0565b846040518363ffffffff1660e01b815260040161217f929190614617565b600060405180830381600087803b15801561219957600080fd5b505af11580156121ad573d6000803e3d6000fd5b5050505060cb60009054906101000a900473ffffffffffffffffffffffffffffffffffffffff1673ffffffffffffffffffffffffffffffffffffffff1663d417b7b389836040518363ffffffff1660e01b815260040161220e929190614617565b600060405180830381600087803b15801561222857600080fd5b505af115801561223c573d6000803e3d6000fd5b505050508773ffffffffffffffffffffffffffffffffffffffff167f037abc98223efd7cb15f107ace271379a203ca8074c377ac5f59197a71d9c0608288604051612288929190614906565b60405180910390a28673ffffffffffffffffffffffffffffffffffffffff167f1a685b956fe761ae8240849ef27481e954f16db54e815dae112f1f9860caeb3a8285896040516122da9392919061492f565b60405180910390a25050505050505050565b600061230960976000848152602001908152602001600020612b2d565b9050919050565b61231a8282612b42565b61233f81609760008581526020019081526020016000206124ce90919063ffffffff16565b505050565b60007f7965db0b000000000000000000000000000000000000000000000000000000007bffffffffffffffffffffffffffffffffffffffffffffffffffffffff1916827bffffffffffffffffffffffffffffffffffffffffffffffffffffffff191614806123b757506123b682612b6b565b5b9050919050565b6123c88282612bd5565b6123ed816097600085815260200190815260200160002061241b90919063ffffffff16565b505050565b6123fb82610725565b61240c81612407612be3565b612beb565b6124168383612c88565b505050565b6000612443836000018373ffffffffffffffffffffffffffffffffffffffff1660001b612d69565b905092915050565b612453612be3565b73ffffffffffffffffffffffffffffffffffffffff168173ffffffffffffffffffffffffffffffffffffffff16146124c0576040517f08c379a00000000000000000000000000000000000000000000000000000000081526004016124b790614874565b60405180910390fd5b6124ca8282612dd9565b5050565b60006124f6836000018373ffffffffffffffffffffffffffffffffffffffff1660001b612ebb565b905092915050565b612581846323b872dd60e01b85858560405160240161251f93929190614580565b604051602081830303815290604052907bffffffffffffffffffffffffffffffffffffffffffffffffffffffff19166020820180517bffffffffffffffffffffffffffffffffffffffffffffffffffffffff8381831617835250505050613041565b50505050565b600081836125959190614b46565b905092915050565b600081836125ab9190614aec565b905092915050565b600081836125c19190614abb565b905092915050565b61264a8363a9059cbb60e01b84846040516024016125e8929190614617565b604051602081830303815290604052907bffffffffffffffffffffffffffffffffffffffffffffffffffffffff19166020820180517bffffffffffffffffffffffffffffffffffffffffffffffffffffffff8381831617835250505050613041565b505050565b600060cc60009054906101000a900473ffffffffffffffffffffffffffffffffffffffff1673ffffffffffffffffffffffffffffffffffffffff166302495c5985856040518363ffffffff1660e01b81526004016126ae929190614640565b60006040518083038186803b1580156126c657600080fd5b505afa1580156126da573d6000803e3d6000fd5b505050506040513d6000823e3d601f19601f820116820180604052508101906127039190613ad9565b9050600080600090505b82518110156128285761281360cb60009054906101000a900473ffffffffffffffffffffffffffffffffffffffff1673ffffffffffffffffffffffffffffffffffffffff16638319d390858481518110612790577f4e487b7100000000000000000000000000000000000000000000000000000000600052603260045260246000fd5b60200260200101516040518263ffffffff1660e01b81526004016127b49190614565565b60206040518083038186803b1580156127cc57600080fd5b505afa1580156127e0573d6000803e3d6000fd5b505050506040513d601f19601f820116820180604052508101906128049190613c79565b83612b1790919063ffffffff16565b9150808061282090614d05565b91505061270d565b5060005b8251811015612af557600061294e83612940678ac7230489e8000060cb60009054906101000a900473ffffffffffffffffffffffffffffffffffffffff1673ffffffffffffffffffffffffffffffffffffffff16638319d3908988815181106128be577f4e487b7100000000000000000000000000000000000000000000000000000000600052603260045260246000fd5b60200260200101516040518263ffffffff1660e01b81526004016128e29190614565565b60206040518083038186803b1580156128fa57600080fd5b505afa15801561290e573d6000803e3d6000fd5b505050506040513d601f19601f820116820180604052508101906129329190613c79565b61259d90919063ffffffff16565b6125b390919063ffffffff16565b9050600061297f678ac7230489e80000612971848961259d90919063ffffffff16565b6125b390919063ffffffff16565b905060cb60009054906101000a900473ffffffffffffffffffffffffffffffffffffffff1673ffffffffffffffffffffffffffffffffffffffff1663d417b7b38685815181106129f8577f4e487b7100000000000000000000000000000000000000000000000000000000600052603260045260246000fd5b6020026020010151836040518363ffffffff1660e01b8152600401612a1e929190614617565b600060405180830381600087803b158015612a3857600080fd5b505af1158015612a4c573d6000803e3d6000fd5b50505050848381518110612a89577f4e487b7100000000000000000000000000000000000000000000000000000000600052603260045260246000fd5b602002602001015173ffffffffffffffffffffffffffffffffffffffff167f3e4fd36a8c6a5f774423977e7d7e6badc0d7f8972efdaa142830e6048bdcdd523383604051612ad8929190614617565b60405180910390a250508080612aed90614d05565b91505061282c565b505050505050565b6000612b0c8360000183613108565b60001c905092915050565b60008183612b259190614a65565b905092915050565b6000612b3b82600001613159565b9050919050565b612b4b82610725565b612b5c81612b57612be3565b612beb565b612b668383612dd9565b505050565b60007f01ffc9a7000000000000000000000000000000000000000000000000000000007bffffffffffffffffffffffffffffffffffffffffffffffffffffffff1916827bffffffffffffffffffffffffffffffffffffffffffffffffffffffff1916149050919050565b612bdf8282612c88565b5050565b600033905090565b612bf582826119ae565b612c8457612c1a8173ffffffffffffffffffffffffffffffffffffffff16601461316a565b612c288360001c602061316a565b604051602001612c3992919061452b565b6040516020818303038152906040526040517f08c379a0000000000000000000000000000000000000000000000000000000008152600401612c7b9190614712565b60405180910390fd5b5050565b612c9282826119ae565b612d655760016065600084815260200190815260200160002060000160008373ffffffffffffffffffffffffffffffffffffffff1673ffffffffffffffffffffffffffffffffffffffff16815260200190815260200160002060006101000a81548160ff021916908315150217905550612d0a612be3565b73ffffffffffffffffffffffffffffffffffffffff168173ffffffffffffffffffffffffffffffffffffffff16837f2f8788117e7eff1d82e926ec794901d17c78024a50270940304540a733656f0d60405160405180910390a45b5050565b6000612d758383613464565b612dce578260000182908060018154018082558091505060019003906000526020600020016000909190919091505582600001805490508360010160008481526020019081526020016000208190555060019050612dd3565b600090505b92915050565b612de382826119ae565b15612eb75760006065600084815260200190815260200160002060000160008373ffffffffffffffffffffffffffffffffffffffff1673ffffffffffffffffffffffffffffffffffffffff16815260200190815260200160002060006101000a81548160ff021916908315150217905550612e5c612be3565b73ffffffffffffffffffffffffffffffffffffffff168173ffffffffffffffffffffffffffffffffffffffff16837ff6391f5c32d9c69d2a47ea670b442974b53935d1edc7fd64eb21e047a839171b60405160405180910390a45b5050565b60008083600101600084815260200190815260200160002054905060008114613035576000600182612eed9190614b46565b9050600060018660000180549050612f059190614b46565b9050818114612fc0576000866000018281548110612f4c577f4e487b7100000000000000000000000000000000000000000000000000000000600052603260045260246000fd5b9060005260206000200154905080876000018481548110612f96577f4e487b7100000000000000000000000000000000000000000000000000000000600052603260045260246000fd5b90600052602060002001819055508387600101600083815260200190815260200160002081905550505b85600001805480612ffa577f4e487b7100000000000000000000000000000000000000000000000000000000600052603160045260246000fd5b60019003818190600052602060002001600090559055856001016000868152602001908152602001600020600090556001935050505061303b565b60009150505b92915050565b60006130a3826040518060400160405280602081526020017f5361666545524332303a206c6f772d6c6576656c2063616c6c206661696c65648152508573ffffffffffffffffffffffffffffffffffffffff166134879092919063ffffffff16565b905060008151111561310357808060200190518101906130c39190613b86565b613102576040517f08c379a00000000000000000000000000000000000000000000000000000000081526004016130f990614854565b60405180910390fd5b5b505050565b6000826000018281548110613146577f4e487b7100000000000000000000000000000000000000000000000000000000600052603260045260246000fd5b9060005260206000200154905092915050565b600081600001805490509050919050565b60606000600283600261317d9190614aec565b6131879190614a65565b67ffffffffffffffff8111156131c6577f4e487b7100000000000000000000000000000000000000000000000000000000600052604160045260246000fd5b6040519080825280601f01601f1916602001820160405280156131f85781602001600182028036833780820191505090505b5090507f300000000000000000000000000000000000000000000000000000000000000081600081518110613256577f4e487b7100000000000000000000000000000000000000000000000000000000600052603260045260246000fd5b60200101907effffffffffffffffffffffffffffffffffffffffffffffffffffffffffffff1916908160001a9053507f7800000000000000000000000000000000000000000000000000000000000000816001815181106132e0577f4e487b7100000000000000000000000000000000000000000000000000000000600052603260045260246000fd5b60200101907effffffffffffffffffffffffffffffffffffffffffffffffffffffffffffff1916908160001a905350600060018460026133209190614aec565b61332a9190614a65565b90505b6001811115613416577f3031323334353637383961626364656600000000000000000000000000000000600f861660108110613392577f4e487b7100000000000000000000000000000000000000000000000000000000600052603260045260246000fd5b1a60f81b8282815181106133cf577f4e487b7100000000000000000000000000000000000000000000000000000000600052603260045260246000fd5b60200101907effffffffffffffffffffffffffffffffffffffffffffffffffffffffffffff1916908160001a905350600485901c94508061340f90614cdb565b905061332d565b506000841461345a576040517f08c379a000000000000000000000000000000000000000000000000000000000815260040161345190614734565b60405180910390fd5b8091505092915050565b600080836001016000848152602001908152602001600020541415905092915050565b6060613496848460008561349f565b90509392505050565b6060824710156134e4576040517f08c379a00000000000000000000000000000000000000000000000000000000081526004016134db90614794565b60405180910390fd5b6134ed856135b3565b61352c576040517f08c379a000000000000000000000000000000000000000000000000000000000815260040161352390614834565b60405180910390fd5b6000808673ffffffffffffffffffffffffffffffffffffffff16858760405161355591906144e7565b60006040518083038185875af1925050503d8060008114613592576040519150601f19603f3d011682016040523d82523d6000602084013e613597565b606091505b50915091506135a78282866135c6565b92505050949350505050565b600080823b905060008111915050919050565b606083156135d657829050613626565b6000835111156135e95782518084602001fd5b816040517f08c379a000000000000000000000000000000000000000000000000000000000815260040161361d9190614712565b60405180910390fd5b9392505050565b600061364061363b84614997565b614966565b9050808382526020820190508285602086028201111561365f57600080fd5b60005b8581101561368f57816136758882613771565b845260208401935060208301925050600181019050613662565b5050509392505050565b60006136ac6136a784614997565b614966565b905080838252602082019050828560208602820111156136cb57600080fd5b60005b858110156136fb57816136e18882613786565b8452602084019350602083019250506001810190506136ce565b5050509392505050565b6000613718613713846149c3565b614966565b9050808382526020820190508285602086028201111561373757600080fd5b60005b85811015613767578161374d8882613882565b84526020840193506020830192505060018101905061373a565b5050509392505050565b60008135905061378081614e2f565b92915050565b60008151905061379581614e2f565b92915050565b600082601f8301126137ac57600080fd5b81356137bc84826020860161362d565b91505092915050565b600082601f8301126137d657600080fd5b81516137e6848260208601613699565b91505092915050565b600082601f83011261380057600080fd5b8135613810848260208601613705565b91505092915050565b60008151905061382881614e46565b92915050565b60008135905061383d81614e5d565b92915050565b60008135905061385281614e74565b92915050565b60008135905061386781614e8b565b92915050565b60008151905061387c81614e8b565b92915050565b60008135905061389181614ea2565b92915050565b6000602082840312156138a957600080fd5b60006138b784828501613771565b91505092915050565b6000602082840312156138d257600080fd5b60006138e084828501613786565b91505092915050565b600080600080600060a0868803121561390157600080fd5b600061390f88828901613771565b955050602061392088828901613771565b945050604061393188828901613771565b935050606061394288828901613771565b925050608061395388828901613771565b9150509295509295909350565b60008060006060848603121561397557600080fd5b600061398386828701613771565b935050602061399486828701613771565b92505060406139a58682870161382e565b9150509250925092565b600080600080608085870312156139c557600080fd5b60006139d387828801613771565b94505060206139e487828801613771565b93505060406139f58782880161382e565b9250506060613a0687828801613858565b91505092959194509250565b600080600060608486031215613a2757600080fd5b6000613a3586828701613771565b9350506020613a4686828701613771565b9250506040613a5786828701613858565b9150509250925092565b60008060408385031215613a7457600080fd5b6000613a8285828601613771565b9250506020613a9385828601613858565b9150509250929050565b60008060408385031215613ab057600080fd5b6000613abe85828601613771565b9250506020613acf85828601613882565b9150509250929050565b600060208284031215613aeb57600080fd5b600082015167ffffffffffffffff811115613b0557600080fd5b613b11848285016137c5565b91505092915050565b60008060408385031215613b2d57600080fd5b600083013567ffffffffffffffff811115613b4757600080fd5b613b538582860161379b565b925050602083013567ffffffffffffffff811115613b7057600080fd5b613b7c858286016137ef565b9150509250929050565b600060208284031215613b9857600080fd5b6000613ba684828501613819565b91505092915050565b600060208284031215613bc157600080fd5b6000613bcf8482850161382e565b91505092915050565b60008060408385031215613beb57600080fd5b6000613bf98582860161382e565b9250506020613c0a85828601613771565b9150509250929050565b60008060408385031215613c2757600080fd5b6000613c358582860161382e565b9250506020613c4685828601613858565b9150509250929050565b600060208284031215613c6257600080fd5b6000613c7084828501613843565b91505092915050565b600060208284031215613c8b57600080fd5b6000613c998482850161386d565b91505092915050565b6000613cae838361448b565b60408301905092915050565b613cc381614b7a565b82525050565b613cd281614b7a565b82525050565b6000613ce3826149ff565b613ced8185614a2d565b9350613cf8836149ef565b8060005b83811015613d29578151613d108882613ca2565b9750613d1b83614a20565b925050600181019050613cfc565b5085935050505092915050565b613d3f81614b8c565b82525050565b613d4e81614b98565b82525050565b6000613d5f82614a0a565b613d698185614a3e565b9350613d79818560208601614ca8565b80840191505092915050565b613d8e81614c18565b82525050565b613d9d81614c3c565b82525050565b613dac81614c60565b82525050565b613dbb81614c84565b82525050565b6000613dcc82614a15565b613dd68185614a49565b9350613de6818560208601614ca8565b613def81614e0a565b840191505092915050565b6000613e0582614a15565b613e0f8185614a5a565b9350613e1f818560208601614ca8565b80840191505092915050565b6000613e38602083614a49565b91507f537472696e67733a20686578206c656e67746820696e73756666696369656e746000830152602082019050919050565b6000613e78604583614a49565b91507f4465706f7369744d6f6469666965723a6461746153756273637269626572506160008301527f796d656e74202d20456e746572707269736520616464726573732063616e277460208301527f20626520300000000000000000000000000000000000000000000000000000006040830152606082019050919050565b6000613f04604f83614a49565b91507f4465706f7369744d6f6469666965723a6461746153756273637269626572506160008301527f796d656e74202d20596f75206861766520746f2072656769737465722061732060208301527f64617461207375627363726962657200000000000000000000000000000000006040830152606082019050919050565b6000613f90602683614a49565b91507f416464726573733a20696e73756666696369656e742062616c616e636520666f60008301527f722063616c6c00000000000000000000000000000000000000000000000000006020830152604082019050919050565b6000613ff6602a83614a5a565b91507f4465706f7369744d6f646966696572202d20286973436f6e74726f6c6c65722d60008301527f4d6f646966696572293a000000000000000000000000000000000000000000006020830152602a82019050919050565b600061405c603683614a49565b91507f4465706f7369744d6f6469666965723a696e697469616c697a65202d204d656d60008301527f62657220616464726573732063616e27742062652030000000000000000000006020830152604082019050919050565b60006140c2604283614a49565b91507f4465706f7369744d6f6469666965723a6461746153756273637269626572506160008301527f796d656e74202d20596f752061726520616c726561647920737562736372696260208301527f65640000000000000000000000000000000000000000000000000000000000006040830152606082019050919050565b600061414e605f83614a49565b91507f4465706f7369744d6f6469666965723a6461746153756273637269626572506160008301527f796d656e74202d20596f7520646f6e2774206861766520656e6f75676820415560208301527f445420746f20636f6d706c65742074686973207472616e61736374696f6e2e006040830152606082019050919050565b60006141da604f83614a49565b91507f4465706f7369744d6f6469666965723a6461746153756273637269626572506160008301527f796d656e74202d2041756469742074797065206973206e6f7420696e2074686560208301527f2072657175697265642072616e676500000000000000000000000000000000006040830152606082019050919050565b6000614266601d83614a49565b91507f416464726573733a2063616c6c20746f206e6f6e2d636f6e74726163740000006000830152602082019050919050565b60006142a6601783614a5a565b91507f416363657373436f6e74726f6c3a206163636f756e74200000000000000000006000830152601782019050919050565b60006142e6602a83614a49565b91507f5361666545524332303a204552433230206f7065726174696f6e20646964206e60008301527f6f742073756363656564000000000000000000000000000000000000000000006020830152604082019050919050565b600061434c601183614a5a565b91507f206973206d697373696e6720726f6c65200000000000000000000000000000006000830152601182019050919050565b600061438c601c83614a5a565b91507f2d2043616c6c6572206973206e6f74206120636f6e74726f6c6c6572000000006000830152601c82019050919050565b60006143cc602f83614a49565b91507f416363657373436f6e74726f6c3a2063616e206f6e6c792072656e6f756e636560008301527f20726f6c657320666f722073656c6600000000000000000000000000000000006020830152604082019050919050565b6000614432603e83614a49565b91507f4465706f7369744d6f646966696572733a64617461537562736372696265725060008301527f61796d656e744d756c7469706c65202d204c69737420746f6f206c6f6e6700006020830152604082019050919050565b6040820160008201516144a16000850182613cba565b5060208201516144b460208501826144ba565b50505050565b6144c381614c01565b82525050565b6144d281614c01565b82525050565b6144e181614c96565b82525050565b60006144f38284613d54565b915081905092915050565b600061450982613fe9565b91506145158284613dfa565b91506145208261437f565b915081905092915050565b600061453682614299565b91506145428285613dfa565b915061454d8261433f565b91506145598284613dfa565b91508190509392505050565b600060208201905061457a6000830184613cc9565b92915050565b60006060820190506145956000830186613cc9565b6145a26020830185613cc9565b6145af60408301846144c9565b949350505050565b60006060820190506145cc6000830186613cc9565b6145d96020830185613d45565b6145e660408301846144c9565b949350505050565b60006040820190506146036000830185613cc9565b6146106020830184613db2565b9392505050565b600060408201905061462c6000830185613cc9565b61463960208301846144c9565b9392505050565b60006040820190506146556000830185613cc9565b61466260208301846144d8565b9392505050565b600060208201905081810360008301526146838184613cd8565b905092915050565b60006020820190506146a06000830184613d36565b92915050565b60006020820190506146bb6000830184613d45565b92915050565b60006020820190506146d66000830184613d85565b92915050565b60006020820190506146f16000830184613d94565b92915050565b600060208201905061470c6000830184613da3565b92915050565b6000602082019050818103600083015261472c8184613dc1565b905092915050565b6000602082019050818103600083015261474d81613e2b565b9050919050565b6000602082019050818103600083015261476d81613e6b565b9050919050565b6000602082019050818103600083015261478d81613ef7565b9050919050565b600060208201905081810360008301526147ad81613f83565b9050919050565b600060208201905081810360008301526147cd8161404f565b9050919050565b600060208201905081810360008301526147ed816140b5565b9050919050565b6000602082019050818103600083015261480d81614141565b9050919050565b6000602082019050818103600083015261482d816141cd565b9050919050565b6000602082019050818103600083015261484d81614259565b9050919050565b6000602082019050818103600083015261486d816142d9565b9050919050565b6000602082019050818103600083015261488d816143bf565b9050919050565b600060208201905081810360008301526148ad81614425565b9050919050565b60006020820190506148c960008301846144c9565b92915050565b60006060820190506148e460008301866144c9565b6148f16020830185613cc9565b6148fe60408301846144c9565b949350505050565b600060408201905061491b60008301856144c9565b6149286020830184613d45565b9392505050565b600060608201905061494460008301866144c9565b61495160208301856144c9565b61495e6040830184613d45565b949350505050565b6000604051905081810181811067ffffffffffffffff8211171561498d5761498c614ddb565b5b8060405250919050565b600067ffffffffffffffff8211156149b2576149b1614ddb565b5b602082029050602081019050919050565b600067ffffffffffffffff8211156149de576149dd614ddb565b5b602082029050602081019050919050565b6000819050602082019050919050565b600081519050919050565b600081519050919050565b600081519050919050565b6000602082019050919050565b600082825260208201905092915050565b600081905092915050565b600082825260208201905092915050565b600081905092915050565b6000614a7082614c01565b9150614a7b83614c01565b9250827fffffffffffffffffffffffffffffffffffffffffffffffffffffffffffffffff03821115614ab057614aaf614d4e565b5b828201905092915050565b6000614ac682614c01565b9150614ad183614c01565b925082614ae157614ae0614d7d565b5b828204905092915050565b6000614af782614c01565b9150614b0283614c01565b9250817fffffffffffffffffffffffffffffffffffffffffffffffffffffffffffffffff0483118215151615614b3b57614b3a614d4e565b5b828202905092915050565b6000614b5182614c01565b9150614b5c83614c01565b925082821015614b6f57614b6e614d4e565b5b828203905092915050565b6000614b8582614be1565b9050919050565b60008115159050919050565b6000819050919050565b60007fffffffff0000000000000000000000000000000000000000000000000000000082169050919050565b6000819050614bdc82614e1b565b919050565b600073ffffffffffffffffffffffffffffffffffffffff82169050919050565b6000819050919050565b600060ff82169050919050565b6000614c2382614c2a565b9050919050565b6000614c3582614be1565b9050919050565b6000614c4782614c4e565b9050919050565b6000614c5982614be1565b9050919050565b6000614c6b82614c72565b9050919050565b6000614c7d82614be1565b9050919050565b6000614c8f82614bce565b9050919050565b6000614ca182614c0b565b9050919050565b60005b83811015614cc6578082015181840152602081019050614cab565b83811115614cd5576000848401525b50505050565b6000614ce682614c01565b91506000821415614cfa57614cf9614d4e565b5b600182039050919050565b6000614d1082614c01565b91507fffffffffffffffffffffffffffffffffffffffffffffffffffffffffffffffff821415614d4357614d42614d4e565b5b600182019050919050565b7f4e487b7100000000000000000000000000000000000000000000000000000000600052601160045260246000fd5b7f4e487b7100000000000000000000000000000000000000000000000000000000600052601260045260246000fd5b7f4e487b7100000000000000000000000000000000000000000000000000000000600052602160045260246000fd5b7f4e487b7100000000000000000000000000000000000000000000000000000000600052604160045260246000fd5b6000601f19601f8301169050919050565b60038110614e2c57614e2b614dac565b5b50565b614e3881614b7a565b8114614e4357600080fd5b50565b614e4f81614b8c565b8114614e5a57600080fd5b50565b614e6681614b98565b8114614e7157600080fd5b50565b614e7d81614ba2565b8114614e8857600080fd5b50565b614e9481614c01565b8114614e9f57600080fd5b50565b614eab81614c0b565b8114614eb657600080fd5b5056fea2646970667358221220f6548a160e7c6d2e4873c2c4fe86f2490c9f058d8de99ddf4782283ed234d0bc64736f6c63430008000033",
  "immutableReferences": {},
  "source": "// SPDX-License-Identifier: MIT\npragma solidity =0.8.0;\npragma experimental ABIEncoderV2;\nimport \"@openzeppelin/contracts-upgradeable/access/AccessControlEnumerableUpgradeable.sol\";\nimport \"@openzeppelin/contracts-upgradeable/token/ERC20/utils/SafeERC20Upgradeable.sol\";\nimport \"@openzeppelin/contracts-upgradeable/utils/math/SafeMathUpgradeable.sol\";\nimport \"./Members.sol\";\nimport \"./MemberHelpers.sol\";\nimport \"./ICohortFactory.sol\";\nimport \"./INodeOperations.sol\";\n// import \"./INodeOperationsHelpers.sol\";\n\n\n\n\n/**\n * @title DepositModifiers\n * Collection of function which alter deposit values\n */\n\ncontract DepositModifiers is  AccessControlEnumerableUpgradeable {\n\n    using SafeERC20Upgradeable for IERC20Upgradeable;\n    using SafeMathUpgradeable for uint256;\n\n\n\n    address public auditToken;                  \n    Members members;\n    MemberHelpers public memberHelpers;\n    ICohortFactory public cohortFactory;\n    INodeOperations public nodeOperations;\n    // INodeOperationsHelpers public nodeOperationsHelpers;\n\n    mapping(address => DataSubscriberTypes[]) public dataSubscriberCohorts;\n\n    struct DataSubscriberTypes{\n        address cohort;\n        uint256 audits;\n    }\n\n    mapping(address => mapping(address => mapping(uint256 => bool))) public dataSubscriberCohortMap;\n    bytes32 public constant CONTROLLER_ROLE = keccak256(\"CONTROLLER_ROLE\");\n\n\n    event LogDataSubscriberPaid(address indexed from, uint256 accessFee,  uint256 indexed audits, address enterprise, uint256 enterpriseShare);\n    event LogSubscriptionCompleted(address subscriber, uint256 numberOfSubscriptions);\n    event LogDataSubscriberValidatorPaid(address  from, address indexed validator, uint256 amount);\n    event LogFeesReceived(address indexed validator, uint256 tokens, bytes32 validationHash);\n    event LogRewardsDeposited(uint256 tokens, uint256 enterpriseAmount, address indexed enterprise, bytes32 validationHash);\n    event LogNonCohortValidationPaid(address indexed requestor, address winner, bytes32 validationHash, uint256 amount);\n\n\n    function initialize(address  _members, address _auditToken, address _memberHelpers, address _cohortFactory, address _nodeOperations) public  {\n        require(_members != address(0), \"DepositModifier:initialize - Member address can't be 0\");\n        members = Members(_members);\n        auditToken = _auditToken;\n        memberHelpers = MemberHelpers(_memberHelpers);\n        cohortFactory = ICohortFactory(_cohortFactory);\n        nodeOperations = INodeOperations(_nodeOperations);\n        // nodeOperationsHelpers = INodeOperationsHelpers(_nodeOperationsHelpers);\n        _setupRole(DEFAULT_ADMIN_ROLE, msg.sender);\n    }\n\n\n    /// @dev check if caller is a controller\n    modifier isController(string memory source) {\n        string memory msgError = string(abi.encodePacked(\"DepositModifier - (isController-Modifier):\", source, \"- Caller is not a controller\"));\n        require(hasRole(CONTROLLER_ROLE, msg.sender),msgError);\n\n        _;\n    }\n\n\n    /**\n    * @dev called when data subscriber initiates subscription \n    * @param enterpriseAddress - address of the enterprise\n    * @param audits - type of audits this cohort is part of\n    */\n    function dataSubscriberPayment(address enterpriseAddress, uint8 audits) public  {\n\n        require(enterpriseAddress != address(0), \"DepositModifier:dataSubscriberPayment - Enterprise address can't be 0\");\n        require(audits >=0 && audits <=5, \"DepositModifier:dataSubscriberPayment - Audit type is not in the required range\");\n        require(!dataSubscriberCohortMap[msg.sender][enterpriseAddress][audits], \"DepositModifier:dataSubscriberPayment - You are already subscribed\");\n        require(members.userMap(msg.sender, Members.UserType(2)), \"DepositModifier:dataSubscriberPayment - You have to register as data subscriber\");\n\n        uint256 accessFee = members.accessFee();\n\n        require(memberHelpers.returnDepositAmount(msg.sender) >= accessFee, \"DepositModifier:dataSubscriberPayment - You don't have enough AUDT to complet this tranasction.\");\n        IERC20Upgradeable(auditToken).safeTransferFrom(msg.sender, address(this), accessFee);\n        uint platformShare = (uint256(100)).sub(members.enterpriseShareSubscriber()).sub(members.validatorShareSubscriber());\n        IERC20Upgradeable(auditToken).safeTransfer(members.platformAddress(), accessFee.mul(platformShare).div(100));\n\n        if (members.userMap(msg.sender, Members.UserType(2)) || members.userMap(msg.sender, Members.UserType(0))){\n            memberHelpers.decreaseDeposit(msg.sender, accessFee);\n        }\n\n        uint256 enterpriseShare = accessFee.mul(members.enterpriseShareSubscriber()).div(100);\n        memberHelpers.increaseDeposit(enterpriseAddress, enterpriseShare);\n\n        allocateValidatorDataSubscriberFee(enterpriseAddress, audits, accessFee.mul(members.validatorShareSubscriber()).div(100));\n        dataSubscriberCohortMap[msg.sender][enterpriseAddress][audits] = true;\n\n        emit LogDataSubscriberPaid(msg.sender, accessFee, audits, enterpriseAddress, enterpriseShare);\n    }\n\n    /**\n    * @dev To calculate validator share of data subscriber fee and allocate it to validator deposits\n    * @param enterprise - address of cohort holding list of validators\n    * @param audits - audit type\n    * @param amount - total amount of tokens available for allocation\n    */\n    function allocateValidatorDataSubscriberFee(address enterprise, uint8 audits, uint256 amount) internal  {\n\n        address[] memory cohortValidators = cohortFactory.returnValidatorList(enterprise, audits);\n        uint256 totalDeposits;\n\n        for (uint i=0; i < cohortValidators.length; i++){\n            totalDeposits = totalDeposits.add(memberHelpers.returnDepositAmount(cohortValidators[i]));\n        }\n\n        for (uint i=0; i < cohortValidators.length; i++){\n            uint256 oneValidatorPercentage = (memberHelpers.returnDepositAmount(cohortValidators[i]).mul(10e18)).div(totalDeposits);\n            uint256 oneValidatorAmount = amount.mul(oneValidatorPercentage).div(10e18);\n            memberHelpers.increaseDeposit(cohortValidators[i], oneValidatorAmount);\n            emit LogDataSubscriberValidatorPaid(msg.sender, cohortValidators[i], oneValidatorAmount);\n        }\n    }\n\n\n    /**\n    * @dev To automate subscription for multiple cohorts for data subscriber \n    * @param enterprise - array of enterprise addresses\n    * @param audits - array of audit types for each cohort\n    */\n    function dataSubscriberPaymentMultiple(address[] memory enterprise, uint8[] memory audits) public {\n\n        uint256 length = enterprise.length;\n        require(length <= 256, \"DepositModifiers:dataSubscriberPaymentMultiple - List too long\");\n        for (uint256 i = 0; i < length; i++) {\n            dataSubscriberPayment(enterprise[i], audits[i]);\n        }\n\n        emit LogSubscriptionCompleted(msg.sender, length);\n    }\n\n    /**\n    * @dev To process payment for cohort validation\n    * @param winner - winner of POW\n    * @param _requestor - requesting party\n    * @param validationHash -  hash identifying validation\n    */\n    function processPayment(address winner, address _requestor, bytes32 validationHash) public isController(\"processPayment\") {\n\n        uint256 enterprisePortion =  members.amountTokensPerValidation().mul(members.enterpriseMatch()).div(100);\n        uint256 platformFee = members.amountTokensPerValidation().mul(members.platformShareValidation()).div(100);\n        uint256 winnerFee = members.amountTokensPerValidation().add(enterprisePortion).sub(platformFee);\n\n        memberHelpers.decreaseDeposit(_requestor, enterprisePortion);\n        IAuditToken(auditToken).mint(address(this), members.amountTokensPerValidation());\n        memberHelpers.increaseDeposit(members.platformAddress(), platformFee);\n\n        memberHelpers.increaseDeposit(winner, winnerFee);\n        emit LogFeesReceived(winner, winnerFee, validationHash);\n        emit LogRewardsDeposited(winnerFee, enterprisePortion, _requestor, validationHash);\n    }\n\n\n     /**\n    * @dev To process payment for no cohort validation\n    * @param _winner - winner of the POW\n    * @param _requestor - requesting party\n    * @param validationHash -  hash identifying validation\n    */\n    function processNonChortPayment(address _winner, address _requestor, bytes32 validationHash, uint256 price) public isController(\"processNonChortPayment\") {\n\n        // uint256 POWFee = nodeOperations.POWFee();\n        memberHelpers.decreaseDeposit(_requestor, price);\n        nodeOperations.increasePOWRewards(_winner, price);\n        emit LogNonCohortValidationPaid(_requestor, _winner, validationHash, price);\n    }\n\n    /**\n    * @dev To return all cohorts to which data subscriber is subscribed to \n    * @param subscriber - address of the subscriber\n    * @return the structure with cohort address and their types for subscriber\n    */\n    function returnCohortsForDataSubscriber(address subscriber) public view returns(DataSubscriberTypes[] memory){\n            return (dataSubscriberCohorts[subscriber]);\n    }\n\n}",
  "sourcePath": "/home/win2win/eth/projects/AuditChain/Core-Smart-Contracts-v1-upgradable/contracts/Auditchain/DepositModifiers.sol",
  "compiler": {
    "name": "solc",
    "version": "0.8.0+commit.c7dfd78e.Emscripten.clang"
  },
  "schemaVersion": "3.4.1",
  "updatedAt": "2022-05-03T20:34:42.825Z",
  "networkType": "ethereum",
  "devdoc": {
    "kind": "dev",
    "methods": {
      "dataSubscriberPayment(address,uint8)": {
        "details": "called when data subscriber initiates subscription ",
        "params": {
          "audits": "- type of audits this cohort is part of",
          "enterpriseAddress": "- address of the enterprise"
        }
      },
      "dataSubscriberPaymentMultiple(address[],uint8[])": {
        "details": "To automate subscription for multiple cohorts for data subscriber ",
        "params": {
          "audits": "- array of audit types for each cohort",
          "enterprise": "- array of enterprise addresses"
        }
      },
      "getRoleAdmin(bytes32)": {
        "details": "Returns the admin role that controls `role`. See {grantRole} and {revokeRole}. To change a role's admin, use {_setRoleAdmin}."
      },
      "getRoleMember(bytes32,uint256)": {
        "details": "Returns one of the accounts that have `role`. `index` must be a value between 0 and {getRoleMemberCount}, non-inclusive. Role bearers are not sorted in any particular way, and their ordering may change at any point. WARNING: When using {getRoleMember} and {getRoleMemberCount}, make sure you perform all queries on the same block. See the following https://forum.openzeppelin.com/t/iterating-over-elements-on-enumerableset-in-openzeppelin-contracts/2296[forum post] for more information."
      },
      "getRoleMemberCount(bytes32)": {
        "details": "Returns the number of accounts that have `role`. Can be used together with {getRoleMember} to enumerate all bearers of a role."
      },
      "grantRole(bytes32,address)": {
        "details": "Overload {grantRole} to track enumerable memberships"
      },
      "hasRole(bytes32,address)": {
        "details": "Returns `true` if `account` has been granted `role`."
      },
      "processNonChortPayment(address,address,bytes32,uint256)": {
        "details": "To process payment for no cohort validation",
        "params": {
          "_requestor": "- requesting party",
          "_winner": "- winner of the POW",
          "validationHash": "-  hash identifying validation"
        }
      },
      "processPayment(address,address,bytes32)": {
        "details": "To process payment for cohort validation",
        "params": {
          "_requestor": "- requesting party",
          "validationHash": "-  hash identifying validation",
          "winner": "- winner of POW"
        }
      },
      "renounceRole(bytes32,address)": {
        "details": "Overload {renounceRole} to track enumerable memberships"
      },
      "returnCohortsForDataSubscriber(address)": {
        "details": "To return all cohorts to which data subscriber is subscribed to ",
        "params": {
          "subscriber": "- address of the subscriber"
        },
        "returns": {
          "_0": "the structure with cohort address and their types for subscriber"
        }
      },
      "revokeRole(bytes32,address)": {
        "details": "Overload {revokeRole} to track enumerable memberships"
      },
      "supportsInterface(bytes4)": {
        "details": "See {IERC165-supportsInterface}."
      }
    },
    "title": "DepositModifiers Collection of function which alter deposit values",
    "version": 1
  },
  "userdoc": {
    "kind": "user",
    "methods": {},
    "version": 1
  }
}