{
  "contractName": "GovernorAlpha",
  "abi": [
    {
      "inputs": [
        {
          "internalType": "address",
          "name": "timelock_",
          "type": "address"
        },
        {
          "internalType": "address",
          "name": "auditToken_",
          "type": "address"
        },
        {
          "internalType": "address",
          "name": "guardian_",
          "type": "address"
        }
      ],
      "stateMutability": "nonpayable",
      "type": "constructor"
    },
    {
      "anonymous": false,
      "inputs": [
        {
          "indexed": true,
          "internalType": "uint256",
          "name": "id",
          "type": "uint256"
        }
      ],
      "name": "ProposalCanceled",
      "type": "event"
    },
    {
      "anonymous": false,
      "inputs": [
        {
          "indexed": true,
          "internalType": "uint256",
          "name": "id",
          "type": "uint256"
        },
        {
          "indexed": false,
          "internalType": "address",
          "name": "proposer",
          "type": "address"
        },
        {
          "indexed": false,
          "internalType": "address[]",
          "name": "targets",
          "type": "address[]"
        },
        {
          "indexed": false,
          "internalType": "uint256[]",
          "name": "values",
          "type": "uint256[]"
        },
        {
          "indexed": false,
          "internalType": "string[]",
          "name": "signatures",
          "type": "string[]"
        },
        {
          "indexed": false,
          "internalType": "bytes[]",
          "name": "calldatas",
          "type": "bytes[]"
        },
        {
          "indexed": false,
          "internalType": "uint256",
          "name": "startBlock",
          "type": "uint256"
        },
        {
          "indexed": false,
          "internalType": "uint256",
          "name": "endBlock",
          "type": "uint256"
        },
        {
          "indexed": false,
          "internalType": "string",
          "name": "description",
          "type": "string"
        }
      ],
      "name": "ProposalCreated",
      "type": "event"
    },
    {
      "anonymous": false,
      "inputs": [
        {
          "indexed": true,
          "internalType": "uint256",
          "name": "id",
          "type": "uint256"
        }
      ],
      "name": "ProposalExecuted",
      "type": "event"
    },
    {
      "anonymous": false,
      "inputs": [
        {
          "indexed": true,
          "internalType": "uint256",
          "name": "id",
          "type": "uint256"
        },
        {
          "indexed": false,
          "internalType": "uint256",
          "name": "eta",
          "type": "uint256"
        }
      ],
      "name": "ProposalQueued",
      "type": "event"
    },
    {
      "anonymous": false,
      "inputs": [
        {
          "indexed": false,
          "internalType": "address",
          "name": "voter",
          "type": "address"
        },
        {
          "indexed": true,
          "internalType": "uint256",
          "name": "proposalId",
          "type": "uint256"
        },
        {
          "indexed": false,
          "internalType": "bool",
          "name": "support",
          "type": "bool"
        },
        {
          "indexed": false,
          "internalType": "uint256",
          "name": "votes",
          "type": "uint256"
        }
      ],
      "name": "VoteCast",
      "type": "event"
    },
    {
      "inputs": [],
      "name": "BALLOT_TYPEHASH",
      "outputs": [
        {
          "internalType": "bytes32",
          "name": "",
          "type": "bytes32"
        }
      ],
      "stateMutability": "view",
      "type": "function"
    },
    {
      "inputs": [],
      "name": "DOMAIN_TYPEHASH",
      "outputs": [
        {
          "internalType": "bytes32",
          "name": "",
          "type": "bytes32"
        }
      ],
      "stateMutability": "view",
      "type": "function"
    },
    {
      "inputs": [],
      "name": "auditToken",
      "outputs": [
        {
          "internalType": "contract AuditTokenInterface",
          "name": "",
          "type": "address"
        }
      ],
      "stateMutability": "view",
      "type": "function"
    },
    {
      "inputs": [],
      "name": "guardian",
      "outputs": [
        {
          "internalType": "address",
          "name": "",
          "type": "address"
        }
      ],
      "stateMutability": "view",
      "type": "function"
    },
    {
      "inputs": [
        {
          "internalType": "address",
          "name": "",
          "type": "address"
        }
      ],
      "name": "latestProposalIds",
      "outputs": [
        {
          "internalType": "uint256",
          "name": "",
          "type": "uint256"
        }
      ],
      "stateMutability": "view",
      "type": "function"
    },
    {
      "inputs": [],
      "name": "name",
      "outputs": [
        {
          "internalType": "string",
          "name": "",
          "type": "string"
        }
      ],
      "stateMutability": "view",
      "type": "function"
    },
    {
      "inputs": [],
      "name": "proposalCount",
      "outputs": [
        {
          "internalType": "uint256",
          "name": "",
          "type": "uint256"
        }
      ],
      "stateMutability": "view",
      "type": "function"
    },
    {
      "inputs": [
        {
          "internalType": "uint256",
          "name": "",
          "type": "uint256"
        }
      ],
      "name": "proposals",
      "outputs": [
        {
          "internalType": "uint256",
          "name": "id",
          "type": "uint256"
        },
        {
          "internalType": "address",
          "name": "proposer",
          "type": "address"
        },
        {
          "internalType": "uint256",
          "name": "eta",
          "type": "uint256"
        },
        {
          "internalType": "uint256",
          "name": "startBlock",
          "type": "uint256"
        },
        {
          "internalType": "uint256",
          "name": "endBlock",
          "type": "uint256"
        },
        {
          "internalType": "uint256",
          "name": "forVotes",
          "type": "uint256"
        },
        {
          "internalType": "uint256",
          "name": "againstVotes",
          "type": "uint256"
        },
        {
          "internalType": "bool",
          "name": "canceled",
          "type": "bool"
        },
        {
          "internalType": "bool",
          "name": "executed",
          "type": "bool"
        },
        {
          "internalType": "string",
          "name": "description",
          "type": "string"
        }
      ],
      "stateMutability": "view",
      "type": "function"
    },
    {
      "inputs": [],
      "name": "timelock",
      "outputs": [
        {
          "internalType": "contract TimelockInterface",
          "name": "",
          "type": "address"
        }
      ],
      "stateMutability": "view",
      "type": "function"
    },
    {
      "inputs": [],
      "name": "proposalMaxOperations",
      "outputs": [
        {
          "internalType": "uint256",
          "name": "",
          "type": "uint256"
        }
      ],
      "stateMutability": "pure",
      "type": "function"
    },
    {
      "inputs": [],
      "name": "votingDelay",
      "outputs": [
        {
          "internalType": "uint256",
          "name": "",
          "type": "uint256"
        }
      ],
      "stateMutability": "pure",
      "type": "function"
    },
    {
      "inputs": [],
      "name": "votingPeriod",
      "outputs": [
        {
          "internalType": "uint256",
          "name": "",
          "type": "uint256"
        }
      ],
      "stateMutability": "pure",
      "type": "function"
    },
    {
      "inputs": [],
      "name": "proposalThreshold",
      "outputs": [
        {
          "internalType": "uint256",
          "name": "",
          "type": "uint256"
        }
      ],
      "stateMutability": "view",
      "type": "function"
    },
    {
      "inputs": [],
      "name": "quorumVotes",
      "outputs": [
        {
          "internalType": "uint256",
          "name": "",
          "type": "uint256"
        }
      ],
      "stateMutability": "view",
      "type": "function"
    },
    {
      "inputs": [
        {
          "internalType": "address[]",
          "name": "targets",
          "type": "address[]"
        },
        {
          "internalType": "uint256[]",
          "name": "values",
          "type": "uint256[]"
        },
        {
          "internalType": "string[]",
          "name": "signatures",
          "type": "string[]"
        },
        {
          "internalType": "bytes[]",
          "name": "calldatas",
          "type": "bytes[]"
        },
        {
          "internalType": "string",
          "name": "description",
          "type": "string"
        }
      ],
      "name": "propose",
      "outputs": [
        {
          "internalType": "uint256",
          "name": "",
          "type": "uint256"
        }
      ],
      "stateMutability": "nonpayable",
      "type": "function"
    },
    {
      "inputs": [
        {
          "internalType": "uint256",
          "name": "proposalId",
          "type": "uint256"
        }
      ],
      "name": "queue",
      "outputs": [],
      "stateMutability": "nonpayable",
      "type": "function"
    },
    {
      "inputs": [
        {
          "internalType": "uint256",
          "name": "proposalId",
          "type": "uint256"
        }
      ],
      "name": "execute",
      "outputs": [],
      "stateMutability": "payable",
      "type": "function"
    },
    {
      "inputs": [
        {
          "internalType": "uint256",
          "name": "proposalId",
          "type": "uint256"
        }
      ],
      "name": "cancel",
      "outputs": [],
      "stateMutability": "nonpayable",
      "type": "function"
    },
    {
      "inputs": [
        {
          "internalType": "uint256",
          "name": "proposalId",
          "type": "uint256"
        }
      ],
      "name": "getActions",
      "outputs": [
        {
          "internalType": "address[]",
          "name": "targets",
          "type": "address[]"
        },
        {
          "internalType": "uint256[]",
          "name": "values",
          "type": "uint256[]"
        },
        {
          "internalType": "string[]",
          "name": "signatures",
          "type": "string[]"
        },
        {
          "internalType": "bytes[]",
          "name": "calldatas",
          "type": "bytes[]"
        }
      ],
      "stateMutability": "view",
      "type": "function"
    },
    {
      "inputs": [
        {
          "internalType": "uint256",
          "name": "proposalId",
          "type": "uint256"
        },
        {
          "internalType": "address",
          "name": "voter",
          "type": "address"
        }
      ],
      "name": "getReceipt",
      "outputs": [
        {
          "components": [
            {
              "internalType": "bool",
              "name": "hasVoted",
              "type": "bool"
            },
            {
              "internalType": "bool",
              "name": "support",
              "type": "bool"
            },
            {
              "internalType": "uint96",
              "name": "votes",
              "type": "uint96"
            }
          ],
          "internalType": "struct GovernorAlpha.Receipt",
          "name": "",
          "type": "tuple"
        }
      ],
      "stateMutability": "view",
      "type": "function"
    },
    {
      "inputs": [
        {
          "internalType": "uint256",
          "name": "proposalId",
          "type": "uint256"
        }
      ],
      "name": "state",
      "outputs": [
        {
          "internalType": "enum GovernorAlpha.ProposalState",
          "name": "",
          "type": "uint8"
        }
      ],
      "stateMutability": "view",
      "type": "function"
    },
    {
      "inputs": [
        {
          "internalType": "uint256",
          "name": "proposalId",
          "type": "uint256"
        },
        {
          "internalType": "bool",
          "name": "support",
          "type": "bool"
        }
      ],
      "name": "castVote",
      "outputs": [],
      "stateMutability": "nonpayable",
      "type": "function"
    },
    {
      "inputs": [
        {
          "internalType": "uint256",
          "name": "proposalId",
          "type": "uint256"
        },
        {
          "internalType": "bool",
          "name": "support",
          "type": "bool"
        },
        {
          "internalType": "uint8",
          "name": "v",
          "type": "uint8"
        },
        {
          "internalType": "bytes32",
          "name": "r",
          "type": "bytes32"
        },
        {
          "internalType": "bytes32",
          "name": "s",
          "type": "bytes32"
        }
      ],
      "name": "castVoteBySig",
      "outputs": [],
      "stateMutability": "nonpayable",
      "type": "function"
    },
    {
      "inputs": [],
      "name": "__acceptAdmin",
      "outputs": [],
      "stateMutability": "nonpayable",
      "type": "function"
    },
    {
      "inputs": [],
      "name": "__abdicate",
      "outputs": [],
      "stateMutability": "nonpayable",
      "type": "function"
    },
    {
      "inputs": [
        {
          "internalType": "address",
          "name": "newPendingAdmin",
          "type": "address"
        },
        {
          "internalType": "uint256",
          "name": "eta",
          "type": "uint256"
        }
      ],
      "name": "__queueSetTimelockPendingAdmin",
      "outputs": [],
      "stateMutability": "nonpayable",
      "type": "function"
    },
    {
      "inputs": [
        {
          "internalType": "address",
          "name": "newPendingAdmin",
          "type": "address"
        },
        {
          "internalType": "uint256",
          "name": "eta",
          "type": "uint256"
        }
      ],
      "name": "__executeSetTimelockPendingAdmin",
      "outputs": [],
      "stateMutability": "nonpayable",
      "type": "function"
    }
  ],
  "bytecode": "0x60806040523480156200001157600080fd5b506040516200599238038062005992833981810160405281019062000037919062000119565b826000806101000a81548173ffffffffffffffffffffffffffffffffffffffff021916908373ffffffffffffffffffffffffffffffffffffffff16021790555081600160006101000a81548173ffffffffffffffffffffffffffffffffffffffff021916908373ffffffffffffffffffffffffffffffffffffffff16021790555080600260006101000a81548173ffffffffffffffffffffffffffffffffffffffff021916908373ffffffffffffffffffffffffffffffffffffffff160217905550505050620001bd565b6000815190506200011381620001a3565b92915050565b6000806000606084860312156200012f57600080fd5b60006200013f8682870162000102565b9350506020620001528682870162000102565b9250506040620001658682870162000102565b9150509250925092565b60006200017c8262000183565b9050919050565b600073ffffffffffffffffffffffffffffffffffffffff82169050919050565b620001ae816200016f565b8114620001ba57600080fd5b50565b6157c580620001cd6000396000f3fe60806040526004361061019c5760003560e01c80634634c61f116100ec578063d33219b41161008a578063ddf0b00911610064578063ddf0b009146105b2578063deaaa7cc146105db578063e23a9a5214610606578063fe0d94c1146106435761019c565b8063d33219b41461051f578063da35c6641461054a578063da95691a146105755761019c565b806391500671116100c6578063915006711461048957806398c3c116146104b2578063b58131b0146104dd578063b9a61961146105085761019c565b80634634c61f1461041e578063760fbc13146104475780637bdbe4d01461045e5761019c565b806321f43e42116101595780633932abb1116101335780633932abb1146103625780633e4f49e61461038d57806340e58ee5146103ca578063452a9320146103f35761019c565b806321f43e42146102ce57806324bc1a64146102f7578063328dd982146103225761019c565b8063013cf08b146101a157806302a251a3146101e757806306fdde031461021257806315373e3d1461023d57806317977c611461026657806320606b70146102a3575b600080fd5b3480156101ad57600080fd5b506101c860048036038101906101c39190613887565b61065f565b6040516101de9a99989796959493929190614fba565b60405180910390f35b3480156101f357600080fd5b506101fc610775565b6040516102099190614f9f565b60405180910390f35b34801561021e57600080fd5b5061022761077e565b6040516102349190614cc2565b60405180910390f35b34801561024957600080fd5b50610264600480360381019061025f9190613915565b6107b7565b005b34801561027257600080fd5b5061028d600480360381019061028891906136a0565b6107c6565b60405161029a9190614f9f565b60405180910390f35b3480156102af57600080fd5b506102b86107de565b6040516102c59190614b95565b60405180910390f35b3480156102da57600080fd5b506102f560048036038101906102f091906136c9565b610802565b005b34801561030357600080fd5b5061030c61098d565b6040516103199190614f9f565b60405180910390f35b34801561032e57600080fd5b5061034960048036038101906103449190613887565b610a4c565b6040516103599493929190614b34565b60405180910390f35b34801561036e57600080fd5b50610377610d09565b6040516103849190614f9f565b60405180910390f35b34801561039957600080fd5b506103b460048036038101906103af9190613887565b610d0e565b6040516103c19190614ca7565b60405180910390f35b3480156103d657600080fd5b506103f160048036038101906103ec9190613887565b610ef1565b005b3480156103ff57600080fd5b50610408611393565b60405161041591906148f7565b60405180910390f35b34801561042a57600080fd5b5061044560048036038101906104409190613951565b6113b9565b005b34801561045357600080fd5b5061045c6115a2565b005b34801561046a57600080fd5b50610473611676565b6040516104809190614f9f565b60405180910390f35b34801561049557600080fd5b506104b060048036038101906104ab91906136c9565b61167f565b005b3480156104be57600080fd5b506104c7611805565b6040516104d49190614c71565b60405180910390f35b3480156104e957600080fd5b506104f261182b565b6040516104ff9190614f9f565b60405180910390f35b34801561051457600080fd5b5061051d6118de565b005b34801561052b57600080fd5b506105346119f0565b6040516105419190614c8c565b60405180910390f35b34801561055657600080fd5b5061055f611a14565b60405161056c9190614f9f565b60405180910390f35b34801561058157600080fd5b5061059c60048036038101906105979190613705565b611a1a565b6040516105a99190614f9f565b60405180910390f35b3480156105be57600080fd5b506105d960048036038101906105d49190613887565b612034565b005b3480156105e757600080fd5b506105f0612472565b6040516105fd9190614b95565b60405180910390f35b34801561061257600080fd5b5061062d600480360381019061062891906138d9565b612496565b60405161063a9190614f84565b60405180910390f35b61065d60048036038101906106589190613887565b612578565b005b60046020528060005260406000206000915090508060000154908060010160009054906101000a900473ffffffffffffffffffffffffffffffffffffffff169080600201549080600701549080600801549080600901549080600a01549080600b0160009054906101000a900460ff169080600b0160019054906101000a900460ff169080600d0180546106f290615570565b80601f016020809104026020016040519081016040528092919081815260200182805461071e90615570565b801561076b5780601f106107405761010080835404028352916020019161076b565b820191906000526020600020905b81548152906001019060200180831161074e57829003601f168201915b505050505090508a565b60006023905090565b6040518060400160405280601981526020017f4175646974636861696e20476f7665726e6f7220416c7068610000000000000081525081565b6107c23383836128f8565b5050565b60056020528060005260406000206000915090505481565b7f8cad95687ba82c2ce50e74f7b754645e5117c3a5bec8151c0726d5857980a86681565b600260009054906101000a900473ffffffffffffffffffffffffffffffffffffffff1673ffffffffffffffffffffffffffffffffffffffff163373ffffffffffffffffffffffffffffffffffffffff1614610892576040517f08c379a000000000000000000000000000000000000000000000000000000000815260040161088990614d44565b60405180910390fd5b60008054906101000a900473ffffffffffffffffffffffffffffffffffffffff1673ffffffffffffffffffffffffffffffffffffffff16630825f38f60008054906101000a900473ffffffffffffffffffffffffffffffffffffffff1660008560405160200161090291906148f7565b604051602081830303815290604052856040518563ffffffff1660e01b815260040161093194939291906149ea565b600060405180830381600087803b15801561094b57600080fd5b505af115801561095f573d6000803e3d6000fd5b505050506040513d6000823e3d601f19601f820116820180604052508101906109889190613846565b505050565b600060646004600160009054906101000a900473ffffffffffffffffffffffffffffffffffffffff1673ffffffffffffffffffffffffffffffffffffffff166318160ddd6040518163ffffffff1660e01b815260040160206040518083038186803b1580156109fb57600080fd5b505afa158015610a0f573d6000803e3d6000fd5b505050506040513d601f19601f82011682018060405250810190610a3391906138b0565b610a3d9190615398565b610a479190615367565b905090565b60608060608060006004600087815260200190815260200160002090508060030181600401826005018360060183805480602002602001604051908101604052809291908181526020018280548015610afa57602002820191906000526020600020905b8160009054906101000a900473ffffffffffffffffffffffffffffffffffffffff1673ffffffffffffffffffffffffffffffffffffffff1681526020019060010190808311610ab0575b5050505050935082805480602002602001604051908101604052809291908181526020018280548015610b4c57602002820191906000526020600020905b815481526020019060010190808311610b38575b5050505050925081805480602002602001604051908101604052809291908181526020016000905b82821015610c20578382906000526020600020018054610b9390615570565b80601f0160208091040260200160405190810160405280929190818152602001828054610bbf90615570565b8015610c0c5780601f10610be157610100808354040283529160200191610c0c565b820191906000526020600020905b815481529060010190602001808311610bef57829003601f168201915b505050505081526020019060010190610b74565b50505050915080805480602002602001604051908101604052809291908181526020016000905b82821015610cf3578382906000526020600020018054610c6690615570565b80601f0160208091040260200160405190810160405280929190818152602001828054610c9290615570565b8015610cdf5780601f10610cb457610100808354040283529160200191610cdf565b820191906000526020600020905b815481529060010190602001808311610cc257829003601f168201915b505050505081526020019060010190610c47565b5050505090509450945094509450509193509193565b600090565b60008160035410158015610d225750600082115b610d61576040517f08c379a0000000000000000000000000000000000000000000000000000000008152600401610d5890614d64565b60405180910390fd5b600060046000848152602001908152602001600020905080600b0160009054906101000a900460ff1615610d99576002915050610eec565b80600701544311610dae576000915050610eec565b80600801544311610dc3576001915050610eec565b80600a01548160090154111580610de45750610ddd61098d565b8160090154105b15610df3576003915050610eec565b600081600201541415610e0a576004915050610eec565b80600b0160019054906101000a900460ff1615610e2b576007915050610eec565b610ed6816002015460008054906101000a900473ffffffffffffffffffffffffffffffffffffffff1673ffffffffffffffffffffffffffffffffffffffff1663c1a287e26040518163ffffffff1660e01b815260040160206040518083038186803b158015610e9957600080fd5b505afa158015610ead573d6000803e3d6000fd5b505050506040513d601f19601f82011682018060405250810190610ed191906138b0565b612c20565b4210610ee6576006915050610eec565b60059150505b919050565b6000610efc82610d0e565b9050600780811115610f37577f4e487b7100000000000000000000000000000000000000000000000000000000600052602160045260246000fd5b816007811115610f70577f4e487b7100000000000000000000000000000000000000000000000000000000600052602160045260246000fd5b1415610fb1576040517f08c379a0000000000000000000000000000000000000000000000000000000008152600401610fa890614f04565b60405180910390fd5b6000600460008481526020019081526020016000209050600260009054906101000a900473ffffffffffffffffffffffffffffffffffffffff1673ffffffffffffffffffffffffffffffffffffffff163373ffffffffffffffffffffffffffffffffffffffff161480611112575061102761182b565b600160009054906101000a900473ffffffffffffffffffffffffffffffffffffffff1673ffffffffffffffffffffffffffffffffffffffff1663782d6fe18360010160009054906101000a900473ffffffffffffffffffffffffffffffffffffffff16611095436001612c7e565b6040518363ffffffff1660e01b81526004016110b2929190614a49565b60206040518083038186803b1580156110ca57600080fd5b505afa1580156110de573d6000803e3d6000fd5b505050506040513d601f19601f8201168201806040525081019061110291906139c8565b6bffffffffffffffffffffffff16105b611151576040517f08c379a000000000000000000000000000000000000000000000000000000000815260040161114890614e44565b60405180910390fd5b600181600b0160006101000a81548160ff02191690831515021790555060005b81600301805490508110156113605760008054906101000a900473ffffffffffffffffffffffffffffffffffffffff1673ffffffffffffffffffffffffffffffffffffffff1663591fcdfe8360030183815481106111f8577f4e487b7100000000000000000000000000000000000000000000000000000000600052603260045260246000fd5b9060005260206000200160009054906101000a900473ffffffffffffffffffffffffffffffffffffffff1684600401848154811061125f577f4e487b7100000000000000000000000000000000000000000000000000000000600052603260045260246000fd5b90600052602060002001548560050185815481106112a6577f4e487b7100000000000000000000000000000000000000000000000000000000600052603260045260246000fd5b906000526020600020018660060186815481106112ec577f4e487b7100000000000000000000000000000000000000000000000000000000600052603260045260246000fd5b9060005260206000200187600201546040518663ffffffff1660e01b815260040161131b959493929190614ad3565b600060405180830381600087803b15801561133557600080fd5b505af1158015611349573d6000803e3d6000fd5b505050508080611358906155a2565b915050611171565b50827f789cf55be980739dad1d0699b93b58e806b51c9d96619bfa8fe0a28abaa7b30c60405160405180910390a2505050565b600260009054906101000a900473ffffffffffffffffffffffffffffffffffffffff1681565b60007f8cad95687ba82c2ce50e74f7b754645e5117c3a5bec8151c0726d5857980a8666040518060400160405280601981526020017f4175646974636861696e20476f7665726e6f7220416c7068610000000000000081525080519060200120611421612cd7565b306040516020016114359493929190614bb0565b60405160208183030381529060405280519060200120905060007f8e25870c07e0b0b3884c78da52790939a455c275406c44ae8b434b692fb916ee878760405160200161148493929190614bf5565b604051602081830303815290604052805190602001209050600082826040516020016114b19291906148c0565b6040516020818303038152906040528051906020012090506000600182888888604051600081526020016040526040516114ee9493929190614c2c565b6020604051602081039080840390855afa158015611510573d6000803e3d6000fd5b505050602060405103519050600073ffffffffffffffffffffffffffffffffffffffff168173ffffffffffffffffffffffffffffffffffffffff16141561158c576040517f08c379a000000000000000000000000000000000000000000000000000000000815260040161158390614ec4565b60405180910390fd5b611597818a8a6128f8565b505050505050505050565b600260009054906101000a900473ffffffffffffffffffffffffffffffffffffffff1673ffffffffffffffffffffffffffffffffffffffff163373ffffffffffffffffffffffffffffffffffffffff1614611632576040517f08c379a000000000000000000000000000000000000000000000000000000000815260040161162990614f64565b60405180910390fd5b6000600260006101000a81548173ffffffffffffffffffffffffffffffffffffffff021916908373ffffffffffffffffffffffffffffffffffffffff160217905550565b6000600a905090565b600260009054906101000a900473ffffffffffffffffffffffffffffffffffffffff1673ffffffffffffffffffffffffffffffffffffffff163373ffffffffffffffffffffffffffffffffffffffff161461170f576040517f08c379a000000000000000000000000000000000000000000000000000000000815260040161170690614dc4565b60405180910390fd5b60008054906101000a900473ffffffffffffffffffffffffffffffffffffffff1673ffffffffffffffffffffffffffffffffffffffff16633a66f90160008054906101000a900473ffffffffffffffffffffffffffffffffffffffff1660008560405160200161177f91906148f7565b604051602081830303815290604052856040518563ffffffff1660e01b81526004016117ae94939291906149ea565b602060405180830381600087803b1580156117c857600080fd5b505af11580156117dc573d6000803e3d6000fd5b505050506040513d601f19601f82011682018060405250810190611800919061381d565b505050565b600160009054906101000a900473ffffffffffffffffffffffffffffffffffffffff1681565b60006064600160009054906101000a900473ffffffffffffffffffffffffffffffffffffffff1673ffffffffffffffffffffffffffffffffffffffff166318160ddd6040518163ffffffff1660e01b815260040160206040518083038186803b15801561189757600080fd5b505afa1580156118ab573d6000803e3d6000fd5b505050506040513d601f19601f820116820180604052508101906118cf91906138b0565b6118d99190615367565b905090565b600260009054906101000a900473ffffffffffffffffffffffffffffffffffffffff1673ffffffffffffffffffffffffffffffffffffffff163373ffffffffffffffffffffffffffffffffffffffff161461196e576040517f08c379a000000000000000000000000000000000000000000000000000000000815260040161196590614ce4565b60405180910390fd5b60008054906101000a900473ffffffffffffffffffffffffffffffffffffffff1673ffffffffffffffffffffffffffffffffffffffff16630e18b6816040518163ffffffff1660e01b8152600401600060405180830381600087803b1580156119d657600080fd5b505af11580156119ea573d6000803e3d6000fd5b50505050565b60008054906101000a900473ffffffffffffffffffffffffffffffffffffffff1681565b60035481565b6000611a2461182b565b600160009054906101000a900473ffffffffffffffffffffffffffffffffffffffff1673ffffffffffffffffffffffffffffffffffffffff1663782d6fe133611a6e436001612c7e565b6040518363ffffffff1660e01b8152600401611a8b929190614a49565b60206040518083038186803b158015611aa357600080fd5b505afa158015611ab7573d6000803e3d6000fd5b505050506040513d601f19601f82011682018060405250810190611adb91906139c8565b6bffffffffffffffffffffffff1611611b29576040517f08c379a0000000000000000000000000000000000000000000000000000000008152600401611b2090614ea4565b60405180910390fd5b84518651148015611b3b575083518651145b8015611b48575082518651145b611b87576040517f08c379a0000000000000000000000000000000000000000000000000000000008152600401611b7e90614e24565b60405180910390fd5b600086511415611bcc576040517f08c379a0000000000000000000000000000000000000000000000000000000008152600401611bc390614e84565b60405180910390fd5b611bd4611676565b86511115611c17576040517f08c379a0000000000000000000000000000000000000000000000000000000008152600401611c0e90614de4565b60405180910390fd5b6000600560003373ffffffffffffffffffffffffffffffffffffffff1673ffffffffffffffffffffffffffffffffffffffff16815260200190815260200160002054905060008114611dda576000611c6e82610d0e565b905060016007811115611caa577f4e487b7100000000000000000000000000000000000000000000000000000000600052602160045260246000fd5b816007811115611ce3577f4e487b7100000000000000000000000000000000000000000000000000000000600052602160045260246000fd5b1415611d24576040517f08c379a0000000000000000000000000000000000000000000000000000000008152600401611d1b90614ee4565b60405180910390fd5b60006007811115611d5e577f4e487b7100000000000000000000000000000000000000000000000000000000600052602160045260246000fd5b816007811115611d97577f4e487b7100000000000000000000000000000000000000000000000000000000600052602160045260246000fd5b1415611dd8576040517f08c379a0000000000000000000000000000000000000000000000000000000008152600401611dcf90614da4565b60405180910390fd5b505b6000611ded43611de8610d09565b612c20565b90506000611e0282611dfd610775565b612c20565b905060036000815480929190611e17906155a2565b9190505550600060046000600354815260200190815260200160002090506003548160000181905550338160010160006101000a81548173ffffffffffffffffffffffffffffffffffffffff021916908373ffffffffffffffffffffffffffffffffffffffff1602179055506000816002018190555089816003019080519060200190611ea5929190612eb6565b5088816004019080519060200190611ebe929190612f40565b5087816005019080519060200190611ed7929190612f8d565b5086816006019080519060200190611ef0929190612fed565b5082816007018190555081816008018190555060008160090181905550600081600a0181905550600081600b0160006101000a81548160ff021916908315150217905550600081600b0160016101000a81548160ff0219169083151502179055508581600d019080519060200190611f6992919061304d565b508060000154600560008360010160009054906101000a900473ffffffffffffffffffffffffffffffffffffffff1673ffffffffffffffffffffffffffffffffffffffff1673ffffffffffffffffffffffffffffffffffffffff1681526020019081526020016000208190555080600001547f7d84a6263ae0d98d3329bd7b46bb4e8d6f98cd35a7adb45c274c8b7fd5ebd5e0338c8c8c8c89898e604051612018989796959493929190614912565b60405180910390a2806000015494505050505095945050505050565b6004600781111561206e577f4e487b7100000000000000000000000000000000000000000000000000000000600052602160045260246000fd5b61207782610d0e565b60078111156120af577f4e487b7100000000000000000000000000000000000000000000000000000000600052602160045260246000fd5b146120ef576040517f08c379a00000000000000000000000000000000000000000000000000000000081526004016120e690614d04565b60405180910390fd5b600060046000838152602001908152602001600020905060006121af4260008054906101000a900473ffffffffffffffffffffffffffffffffffffffff1673ffffffffffffffffffffffffffffffffffffffff16636a42b8f86040518163ffffffff1660e01b815260040160206040518083038186803b15801561217257600080fd5b505afa158015612186573d6000803e3d6000fd5b505050506040513d601f19601f820116820180604052508101906121aa91906138b0565b612c20565b905060005b826003018054905081101561242b57612418836003018281548110612202577f4e487b7100000000000000000000000000000000000000000000000000000000600052603260045260246000fd5b9060005260206000200160009054906101000a900473ffffffffffffffffffffffffffffffffffffffff16846004018381548110612269577f4e487b7100000000000000000000000000000000000000000000000000000000600052603260045260246000fd5b90600052602060002001548560050184815481106122b0577f4e487b7100000000000000000000000000000000000000000000000000000000600052603260045260246000fd5b9060005260206000200180546122c590615570565b80601f01602080910402602001604051908101604052809291908181526020018280546122f190615570565b801561233e5780601f106123135761010080835404028352916020019161233e565b820191906000526020600020905b81548152906001019060200180831161232157829003601f168201915b505050505086600601858154811061237f577f4e487b7100000000000000000000000000000000000000000000000000000000600052603260045260246000fd5b90600052602060002001805461239490615570565b80601f01602080910402602001604051908101604052809291908181526020018280546123c090615570565b801561240d5780601f106123e25761010080835404028352916020019161240d565b820191906000526020600020905b8154815290600101906020018083116123f057829003601f168201915b505050505086612ce4565b8080612423906155a2565b9150506121b4565b50808260020181905550827f9a2e42fd6722813d69113e7d0079d3d940171428df7373df9c7f7617cfda2892826040516124659190614f9f565b60405180910390a2505050565b7f8e25870c07e0b0b3884c78da52790939a455c275406c44ae8b434b692fb916ee81565b61249e6130d3565b60046000848152602001908152602001600020600c0160008373ffffffffffffffffffffffffffffffffffffffff1673ffffffffffffffffffffffffffffffffffffffff1681526020019081526020016000206040518060600160405290816000820160009054906101000a900460ff161515151581526020016000820160019054906101000a900460ff161515151581526020016000820160029054906101000a90046bffffffffffffffffffffffff166bffffffffffffffffffffffff166bffffffffffffffffffffffff1681525050905092915050565b600560078111156125b2577f4e487b7100000000000000000000000000000000000000000000000000000000600052602160045260246000fd5b6125bb82610d0e565b60078111156125f3577f4e487b7100000000000000000000000000000000000000000000000000000000600052602160045260246000fd5b14612633576040517f08c379a000000000000000000000000000000000000000000000000000000000815260040161262a90614d24565b60405180910390fd5b6000600460008381526020019081526020016000209050600181600b0160016101000a81548160ff02191690831515021790555060005b81600301805490508110156128c65760008054906101000a900473ffffffffffffffffffffffffffffffffffffffff1673ffffffffffffffffffffffffffffffffffffffff16630825f38f8360040183815481106126f1577f4e487b7100000000000000000000000000000000000000000000000000000000600052603260045260246000fd5b9060005260206000200154846003018481548110612738577f4e487b7100000000000000000000000000000000000000000000000000000000600052603260045260246000fd5b9060005260206000200160009054906101000a900473ffffffffffffffffffffffffffffffffffffffff1685600401858154811061279f577f4e487b7100000000000000000000000000000000000000000000000000000000600052603260045260246000fd5b90600052602060002001548660050186815481106127e6577f4e487b7100000000000000000000000000000000000000000000000000000000600052603260045260246000fd5b9060005260206000200187600601878154811061282c577f4e487b7100000000000000000000000000000000000000000000000000000000600052603260045260246000fd5b9060005260206000200188600201546040518763ffffffff1660e01b815260040161285b959493929190614ad3565b6000604051808303818588803b15801561287457600080fd5b505af1158015612888573d6000803e3d6000fd5b50505050506040513d6000823e3d601f19601f820116820180604052508101906128b29190613846565b5080806128be906155a2565b91505061266a565b50817f712ae1383f79ac853f8d882153778e0260ef8f03b504e2866e0593e04d2b291f60405160405180910390a25050565b60016007811115612932577f4e487b7100000000000000000000000000000000000000000000000000000000600052602160045260246000fd5b61293b83610d0e565b6007811115612973577f4e487b7100000000000000000000000000000000000000000000000000000000600052602160045260246000fd5b146129b3576040517f08c379a00000000000000000000000000000000000000000000000000000000081526004016129aa90614f24565b60405180910390fd5b6000600460008481526020019081526020016000209050600081600c0160008673ffffffffffffffffffffffffffffffffffffffff1673ffffffffffffffffffffffffffffffffffffffff1681526020019081526020016000209050600015158160000160009054906101000a900460ff16151514612a67576040517f08c379a0000000000000000000000000000000000000000000000000000000008152600401612a5e90614d84565b60405180910390fd5b6000600160009054906101000a900473ffffffffffffffffffffffffffffffffffffffff1673ffffffffffffffffffffffffffffffffffffffff1663782d6fe18785600701546040518363ffffffff1660e01b8152600401612aca929190614a49565b60206040518083038186803b158015612ae257600080fd5b505afa158015612af6573d6000803e3d6000fd5b505050506040513d601f19601f82011682018060405250810190612b1a91906139c8565b90508315612b4b57612b3e8360090154826bffffffffffffffffffffffff16612c20565b8360090181905550612b70565b612b6783600a0154826bffffffffffffffffffffffff16612c20565b83600a01819055505b60018260000160006101000a81548160ff021916908315150217905550838260000160016101000a81548160ff021916908315150217905550808260000160026101000a8154816bffffffffffffffffffffffff02191690836bffffffffffffffffffffffff160217905550847f877856338e13f63d0c36822ff0ef736b80934cd90574a3a5bc9262c39d217c46878684604051612c10939291906149b3565b60405180910390a2505050505050565b6000808284612c2f9190615311565b905083811015612c74576040517f08c379a0000000000000000000000000000000000000000000000000000000008152600401612c6b90614e04565b60405180910390fd5b8091505092915050565b600082821115612cc3576040517f08c379a0000000000000000000000000000000000000000000000000000000008152600401612cba90614f44565b60405180910390fd5b8183612ccf91906153f2565b905092915050565b6000804690508091505090565b60008054906101000a900473ffffffffffffffffffffffffffffffffffffffff1673ffffffffffffffffffffffffffffffffffffffff1663f2b065378686868686604051602001612d39959493929190614a72565b604051602081830303815290604052805190602001206040518263ffffffff1660e01b8152600401612d6b9190614b95565b60206040518083038186803b158015612d8357600080fd5b505afa158015612d97573d6000803e3d6000fd5b505050506040513d601f19601f82011682018060405250810190612dbb91906137f4565b15612dfb576040517f08c379a0000000000000000000000000000000000000000000000000000000008152600401612df290614e64565b60405180910390fd5b60008054906101000a900473ffffffffffffffffffffffffffffffffffffffff1673ffffffffffffffffffffffffffffffffffffffff16633a66f90186868686866040518663ffffffff1660e01b8152600401612e5c959493929190614a72565b602060405180830381600087803b158015612e7657600080fd5b505af1158015612e8a573d6000803e3d6000fd5b505050506040513d601f19601f82011682018060405250810190612eae919061381d565b505050505050565b828054828255906000526020600020908101928215612f2f579160200282015b82811115612f2e5782518260006101000a81548173ffffffffffffffffffffffffffffffffffffffff021916908373ffffffffffffffffffffffffffffffffffffffff16021790555091602001919060010190612ed6565b5b509050612f3c9190613106565b5090565b828054828255906000526020600020908101928215612f7c579160200282015b82811115612f7b578251825591602001919060010190612f60565b5b509050612f899190613106565b5090565b828054828255906000526020600020908101928215612fdc579160200282015b82811115612fdb578251829080519060200190612fcb92919061304d565b5091602001919060010190612fad565b5b509050612fe99190613123565b5090565b82805482825590600052602060002090810192821561303c579160200282015b8281111561303b57825182908051906020019061302b929190613147565b509160200191906001019061300d565b5b50905061304991906131cd565b5090565b82805461305990615570565b90600052602060002090601f01602090048101928261307b57600085556130c2565b82601f1061309457805160ff19168380011785556130c2565b828001600101855582156130c2579182015b828111156130c15782518255916020019190600101906130a6565b5b5090506130cf9190613106565b5090565b604051806060016040528060001515815260200160001515815260200160006bffffffffffffffffffffffff1681525090565b5b8082111561311f576000816000905550600101613107565b5090565b5b80821115613143576000818161313a91906131f1565b50600101613124565b5090565b82805461315390615570565b90600052602060002090601f01602090048101928261317557600085556131bc565b82601f1061318e57805160ff19168380011785556131bc565b828001600101855582156131bc579182015b828111156131bb5782518255916020019190600101906131a0565b5b5090506131c99190613106565b5090565b5b808211156131ed57600081816131e49190613231565b506001016131ce565b5090565b5080546131fd90615570565b6000825580601f1061320f575061322e565b601f01602090049060005260206000209081019061322d9190613106565b5b50565b50805461323d90615570565b6000825580601f1061324f575061326e565b601f01602090049060005260206000209081019061326d9190613106565b5b50565b600061328461327f8461508e565b61505d565b905080838252602082019050828560208602820111156132a357600080fd5b60005b858110156132d357816132b988826134bd565b8452602084019350602083019250506001810190506132a6565b5050509392505050565b60006132f06132eb846150ba565b61505d565b9050808382526020820190508260005b85811015613330578135850161331688826135ce565b845260208401935060208301925050600181019050613300565b5050509392505050565b600061334d613348846150e6565b61505d565b9050808382526020820190508260005b8581101561338d57813585016133738882613622565b84526020840193506020830192505060018101905061335d565b5050509392505050565b60006133aa6133a584615112565b61505d565b905080838252602082019050828560208602820111156133c957600080fd5b60005b858110156133f957816133df888261364c565b8452602084019350602083019250506001810190506133cc565b5050509392505050565b60006134166134118461513e565b61505d565b90508281526020810184848401111561342e57600080fd5b61343984828561552e565b509392505050565b600061345461344f8461513e565b61505d565b90508281526020810184848401111561346c57600080fd5b61347784828561553d565b509392505050565b600061349261348d8461516e565b61505d565b9050828152602081018484840111156134aa57600080fd5b6134b584828561552e565b509392505050565b6000813590506134cc81615705565b92915050565b600082601f8301126134e357600080fd5b81356134f3848260208601613271565b91505092915050565b600082601f83011261350d57600080fd5b813561351d8482602086016132dd565b91505092915050565b600082601f83011261353757600080fd5b813561354784826020860161333a565b91505092915050565b600082601f83011261356157600080fd5b8135613571848260208601613397565b91505092915050565b6000813590506135898161571c565b92915050565b60008151905061359e8161571c565b92915050565b6000813590506135b381615733565b92915050565b6000815190506135c881615733565b92915050565b600082601f8301126135df57600080fd5b81356135ef848260208601613403565b91505092915050565b600082601f83011261360957600080fd5b8151613619848260208601613441565b91505092915050565b600082601f83011261363357600080fd5b813561364384826020860161347f565b91505092915050565b60008135905061365b8161574a565b92915050565b6000815190506136708161574a565b92915050565b60008135905061368581615761565b92915050565b60008151905061369a81615778565b92915050565b6000602082840312156136b257600080fd5b60006136c0848285016134bd565b91505092915050565b600080604083850312156136dc57600080fd5b60006136ea858286016134bd565b92505060206136fb8582860161364c565b9150509250929050565b600080600080600060a0868803121561371d57600080fd5b600086013567ffffffffffffffff81111561373757600080fd5b613743888289016134d2565b955050602086013567ffffffffffffffff81111561376057600080fd5b61376c88828901613550565b945050604086013567ffffffffffffffff81111561378957600080fd5b61379588828901613526565b935050606086013567ffffffffffffffff8111156137b257600080fd5b6137be888289016134fc565b925050608086013567ffffffffffffffff8111156137db57600080fd5b6137e788828901613622565b9150509295509295909350565b60006020828403121561380657600080fd5b60006138148482850161358f565b91505092915050565b60006020828403121561382f57600080fd5b600061383d848285016135b9565b91505092915050565b60006020828403121561385857600080fd5b600082015167ffffffffffffffff81111561387257600080fd5b61387e848285016135f8565b91505092915050565b60006020828403121561389957600080fd5b60006138a78482850161364c565b91505092915050565b6000602082840312156138c257600080fd5b60006138d084828501613661565b91505092915050565b600080604083850312156138ec57600080fd5b60006138fa8582860161364c565b925050602061390b858286016134bd565b9150509250929050565b6000806040838503121561392857600080fd5b60006139368582860161364c565b92505060206139478582860161357a565b9150509250929050565b600080600080600060a0868803121561396957600080fd5b60006139778882890161364c565b95505060206139888882890161357a565b945050604061399988828901613676565b93505060606139aa888289016135a4565b92505060806139bb888289016135a4565b9150509295509295909350565b6000602082840312156139da57600080fd5b60006139e88482850161368b565b91505092915050565b60006139fd8383613a49565b60208301905092915050565b6000613a158383613c51565b905092915050565b6000613a298383613d7f565b905092915050565b6000613a3d8383614875565b60208301905092915050565b613a5281615426565b82525050565b613a6181615426565b82525050565b6000613a7282615208565b613a7c818561527e565b9350613a878361519e565b8060005b83811015613ab8578151613a9f88826139f1565b9750613aaa8361524a565b925050600181019050613a8b565b5085935050505092915050565b6000613ad082615213565b613ada818561528f565b935083602082028501613aec856151ae565b8060005b85811015613b285784840389528151613b098582613a09565b9450613b1483615257565b925060208a01995050600181019050613af0565b50829750879550505050505092915050565b6000613b458261521e565b613b4f81856152a0565b935083602082028501613b61856151be565b8060005b85811015613b9d5784840389528151613b7e8582613a1d565b9450613b8983615264565b925060208a01995050600181019050613b65565b50829750879550505050505092915050565b6000613bba82615229565b613bc481856152b1565b9350613bcf836151ce565b8060005b83811015613c00578151613be78882613a31565b9750613bf283615271565b925050600181019050613bd3565b5085935050505092915050565b613c1681615438565b82525050565b613c2581615438565b82525050565b613c3481615444565b82525050565b613c4b613c4682615444565b6155eb565b82525050565b6000613c5c82615234565b613c6681856152c2565b9350613c7681856020860161553d565b613c7f816156e0565b840191505092915050565b6000613c9582615234565b613c9f81856152d3565b9350613caf81856020860161553d565b613cb8816156e0565b840191505092915050565b60008154613cd081615570565b613cda81866152d3565b94506001821660008114613cf55760018114613d0757613d3a565b60ff1983168652602086019350613d3a565b613d10856151de565b60005b83811015613d3257815481890152600182019150602081019050613d13565b808801955050505b50505092915050565b613d4c816154b0565b82525050565b613d5b816154d4565b82525050565b613d6a816154f8565b82525050565b613d798161550a565b82525050565b6000613d8a8261523f565b613d9481856152e4565b9350613da481856020860161553d565b613dad816156e0565b840191505092915050565b6000613dc38261523f565b613dcd81856152f5565b9350613ddd81856020860161553d565b613de6816156e0565b840191505092915050565b60008154613dfe81615570565b613e0881866152f5565b94506001821660008114613e235760018114613e3557613e68565b60ff1983168652602086019350613e68565b613e3e856151f3565b60005b83811015613e6057815481890152600182019150602081019050613e41565b808801955050505b50505092915050565b6000613e7e6039836152f5565b91507f476f7665726e6f72416c7068613a3a5f5f61636365707441646d696e3a20736560008301527f6e646572206d75737420626520676f7620677561726469616e000000000000006020830152604082019050919050565b6000613ee46044836152f5565b91507f476f7665726e6f72416c7068613a3a71756575653a2070726f706f73616c206360008301527f616e206f6e6c792062652071756575656420696620697420697320737563636560208301527f65646564000000000000000000000000000000000000000000000000000000006040830152606082019050919050565b6000613f706045836152f5565b91507f476f7665726e6f72416c7068613a3a657865637574653a2070726f706f73616c60008301527f2063616e206f6e6c79206265206578656375746564206966206974206973207160208301527f75657565640000000000000000000000000000000000000000000000000000006040830152606082019050919050565b6000613ffc600283615306565b91507f19010000000000000000000000000000000000000000000000000000000000006000830152600282019050919050565b600061403c604c836152f5565b91507f476f7665726e6f72416c7068613a3a5f5f6578656375746553657454696d656c60008301527f6f636b50656e64696e6741646d696e3a2073656e646572206d7573742062652060208301527f676f7620677561726469616e00000000000000000000000000000000000000006040830152606082019050919050565b60006140c86018836152f5565b91507f73657450656e64696e6741646d696e28616464726573732900000000000000006000830152602082019050919050565b60006141086029836152f5565b91507f476f7665726e6f72416c7068613a3a73746174653a20696e76616c696420707260008301527f6f706f73616c20696400000000000000000000000000000000000000000000006020830152604082019050919050565b600061416e602d836152f5565b91507f476f7665726e6f72416c7068613a3a5f63617374566f74653a20766f7465722060008301527f616c726561647920766f746564000000000000000000000000000000000000006020830152604082019050919050565b60006141d46059836152f5565b91507f476f7665726e6f72416c7068613a3a70726f706f73653a206f6e65206c69766560008301527f2070726f706f73616c207065722070726f706f7365722c20666f756e6420616e60208301527f20616c72656164792070656e64696e672070726f706f73616c000000000000006040830152606082019050919050565b6000614260604a836152f5565b91507f476f7665726e6f72416c7068613a3a5f5f717565756553657454696d656c6f6360008301527f6b50656e64696e6741646d696e3a2073656e646572206d75737420626520676f60208301527f7620677561726469616e000000000000000000000000000000000000000000006040830152606082019050919050565b60006142ec6028836152f5565b91507f476f7665726e6f72416c7068613a3a70726f706f73653a20746f6f206d616e7960008301527f20616374696f6e730000000000000000000000000000000000000000000000006020830152604082019050919050565b60006143526011836152f5565b91507f6164646974696f6e206f766572666c6f770000000000000000000000000000006000830152602082019050919050565b60006143926044836152f5565b91507f476f7665726e6f72416c7068613a3a70726f706f73653a2070726f706f73616c60008301527f2066756e6374696f6e20696e666f726d6174696f6e206172697479206d69736d60208301527f61746368000000000000000000000000000000000000000000000000000000006040830152606082019050919050565b600061441e602f836152f5565b91507f476f7665726e6f72416c7068613a3a63616e63656c3a2070726f706f7365722060008301527f61626f7665207468726573686f6c6400000000000000000000000000000000006020830152604082019050919050565b60006144846044836152f5565b91507f476f7665726e6f72416c7068613a3a5f71756575654f725265766572743a207060008301527f726f706f73616c20616374696f6e20616c72656164792071756575656420617460208301527f20657461000000000000000000000000000000000000000000000000000000006040830152606082019050919050565b6000614510602c836152f5565b91507f476f7665726e6f72416c7068613a3a70726f706f73653a206d7573742070726f60008301527f7669646520616374696f6e7300000000000000000000000000000000000000006020830152604082019050919050565b6000614576603f836152f5565b91507f476f7665726e6f72416c7068613a3a70726f706f73653a2070726f706f73657260008301527f20766f7465732062656c6f772070726f706f73616c207468726573686f6c64006020830152604082019050919050565b60006145dc602f836152f5565b91507f476f7665726e6f72416c7068613a3a63617374566f746542795369673a20696e60008301527f76616c6964207369676e617475726500000000000000000000000000000000006020830152604082019050919050565b60006146426058836152f5565b91507f476f7665726e6f72416c7068613a3a70726f706f73653a206f6e65206c69766560008301527f2070726f706f73616c207065722070726f706f7365722c20666f756e6420616e60208301527f20616c7265616479206163746976652070726f706f73616c00000000000000006040830152606082019050919050565b60006146ce6036836152f5565b91507f476f7665726e6f72416c7068613a3a63616e63656c3a2063616e6e6f7420636160008301527f6e63656c2065786563757465642070726f706f73616c000000000000000000006020830152604082019050919050565b6000614734602a836152f5565b91507f476f7665726e6f72416c7068613a3a5f63617374566f74653a20766f74696e6760008301527f20697320636c6f736564000000000000000000000000000000000000000000006020830152604082019050919050565b600061479a6015836152f5565b91507f7375627472616374696f6e20756e646572666c6f7700000000000000000000006000830152602082019050919050565b60006147da6036836152f5565b91507f476f7665726e6f72416c7068613a3a5f5f61626469636174653a2073656e646560008301527f72206d75737420626520676f7620677561726469616e000000000000000000006020830152604082019050919050565b6060820160008201516148496000850182613c0d565b50602082015161485c6020850182613c0d565b50604082015161486f60408501826148b1565b50505050565b61487e81615481565b82525050565b61488d81615481565b82525050565b61489c8161548b565b82525050565b6148ab8161551c565b82525050565b6148ba81615498565b82525050565b60006148cb82613fef565b91506148d78285613c3a565b6020820191506148e78284613c3a565b6020820191508190509392505050565b600060208201905061490c6000830184613a58565b92915050565b600061010082019050614928600083018b613a58565b818103602083015261493a818a613a67565b9050818103604083015261494e8189613baf565b905081810360608301526149628188613b3a565b905081810360808301526149768187613ac5565b905061498560a0830186614884565b61499260c0830185614884565b81810360e08301526149a48184613db8565b90509998505050505050505050565b60006060820190506149c86000830186613a58565b6149d56020830185613c1c565b6149e260408301846148a2565b949350505050565b600060a0820190506149ff6000830187613a58565b614a0c6020830186613d70565b8181036040830152614a1d816140bb565b90508181036060830152614a318185613c8a565b9050614a406080830184614884565b95945050505050565b6000604082019050614a5e6000830185613a58565b614a6b6020830184614884565b9392505050565b600060a082019050614a876000830188613a58565b614a946020830187614884565b8181036040830152614aa68186613db8565b90508181036060830152614aba8185613c8a565b9050614ac96080830184614884565b9695505050505050565b600060a082019050614ae86000830188613a58565b614af56020830187614884565b8181036040830152614b078186613df1565b90508181036060830152614b1b8185613cc3565b9050614b2a6080830184614884565b9695505050505050565b60006080820190508181036000830152614b4e8187613a67565b90508181036020830152614b628186613baf565b90508181036040830152614b768185613b3a565b90508181036060830152614b8a8184613ac5565b905095945050505050565b6000602082019050614baa6000830184613c2b565b92915050565b6000608082019050614bc56000830187613c2b565b614bd26020830186613c2b565b614bdf6040830185614884565b614bec6060830184613a58565b95945050505050565b6000606082019050614c0a6000830186613c2b565b614c176020830185614884565b614c246040830184613c1c565b949350505050565b6000608082019050614c416000830187613c2b565b614c4e6020830186614893565b614c5b6040830185613c2b565b614c686060830184613c2b565b95945050505050565b6000602082019050614c866000830184613d43565b92915050565b6000602082019050614ca16000830184613d52565b92915050565b6000602082019050614cbc6000830184613d61565b92915050565b60006020820190508181036000830152614cdc8184613db8565b905092915050565b60006020820190508181036000830152614cfd81613e71565b9050919050565b60006020820190508181036000830152614d1d81613ed7565b9050919050565b60006020820190508181036000830152614d3d81613f63565b9050919050565b60006020820190508181036000830152614d5d8161402f565b9050919050565b60006020820190508181036000830152614d7d816140fb565b9050919050565b60006020820190508181036000830152614d9d81614161565b9050919050565b60006020820190508181036000830152614dbd816141c7565b9050919050565b60006020820190508181036000830152614ddd81614253565b9050919050565b60006020820190508181036000830152614dfd816142df565b9050919050565b60006020820190508181036000830152614e1d81614345565b9050919050565b60006020820190508181036000830152614e3d81614385565b9050919050565b60006020820190508181036000830152614e5d81614411565b9050919050565b60006020820190508181036000830152614e7d81614477565b9050919050565b60006020820190508181036000830152614e9d81614503565b9050919050565b60006020820190508181036000830152614ebd81614569565b9050919050565b60006020820190508181036000830152614edd816145cf565b9050919050565b60006020820190508181036000830152614efd81614635565b9050919050565b60006020820190508181036000830152614f1d816146c1565b9050919050565b60006020820190508181036000830152614f3d81614727565b9050919050565b60006020820190508181036000830152614f5d8161478d565b9050919050565b60006020820190508181036000830152614f7d816147cd565b9050919050565b6000606082019050614f996000830184614833565b92915050565b6000602082019050614fb46000830184614884565b92915050565b600061014082019050614fd0600083018d614884565b614fdd602083018c613a58565b614fea604083018b614884565b614ff7606083018a614884565b6150046080830189614884565b61501160a0830188614884565b61501e60c0830187614884565b61502b60e0830186613c1c565b615039610100830185613c1c565b81810361012083015261504c8184613db8565b90509b9a5050505050505050505050565b6000604051905081810181811067ffffffffffffffff82111715615084576150836156b1565b5b8060405250919050565b600067ffffffffffffffff8211156150a9576150a86156b1565b5b602082029050602081019050919050565b600067ffffffffffffffff8211156150d5576150d46156b1565b5b602082029050602081019050919050565b600067ffffffffffffffff821115615101576151006156b1565b5b602082029050602081019050919050565b600067ffffffffffffffff82111561512d5761512c6156b1565b5b602082029050602081019050919050565b600067ffffffffffffffff821115615159576151586156b1565b5b601f19601f8301169050602081019050919050565b600067ffffffffffffffff821115615189576151886156b1565b5b601f19601f8301169050602081019050919050565b6000819050602082019050919050565b6000819050602082019050919050565b6000819050602082019050919050565b6000819050602082019050919050565b60008190508160005260206000209050919050565b60008190508160005260206000209050919050565b600081519050919050565b600081519050919050565b600081519050919050565b600081519050919050565b600081519050919050565b600081519050919050565b6000602082019050919050565b6000602082019050919050565b6000602082019050919050565b6000602082019050919050565b600082825260208201905092915050565b600082825260208201905092915050565b600082825260208201905092915050565b600082825260208201905092915050565b600082825260208201905092915050565b600082825260208201905092915050565b600082825260208201905092915050565b600082825260208201905092915050565b600081905092915050565b600061531c82615481565b915061532783615481565b9250827fffffffffffffffffffffffffffffffffffffffffffffffffffffffffffffffff0382111561535c5761535b6155f5565b5b828201905092915050565b600061537282615481565b915061537d83615481565b92508261538d5761538c615624565b5b828204905092915050565b60006153a382615481565b91506153ae83615481565b9250817fffffffffffffffffffffffffffffffffffffffffffffffffffffffffffffffff04831182151516156153e7576153e66155f5565b5b828202905092915050565b60006153fd82615481565b915061540883615481565b92508282101561541b5761541a6155f5565b5b828203905092915050565b600061543182615461565b9050919050565b60008115159050919050565b6000819050919050565b600081905061545c826156f1565b919050565b600073ffffffffffffffffffffffffffffffffffffffff82169050919050565b6000819050919050565b600060ff82169050919050565b60006bffffffffffffffffffffffff82169050919050565b60006154bb826154c2565b9050919050565b60006154cd82615461565b9050919050565b60006154df826154e6565b9050919050565b60006154f182615461565b9050919050565b60006155038261544e565b9050919050565b600061551582615481565b9050919050565b600061552782615498565b9050919050565b82818337600083830152505050565b60005b8381101561555b578082015181840152602081019050615540565b8381111561556a576000848401525b50505050565b6000600282049050600182168061558857607f821691505b6020821081141561559c5761559b615682565b5b50919050565b60006155ad82615481565b91507fffffffffffffffffffffffffffffffffffffffffffffffffffffffffffffffff8214156155e0576155df6155f5565b5b600182019050919050565b6000819050919050565b7f4e487b7100000000000000000000000000000000000000000000000000000000600052601160045260246000fd5b7f4e487b7100000000000000000000000000000000000000000000000000000000600052601260045260246000fd5b7f4e487b7100000000000000000000000000000000000000000000000000000000600052602160045260246000fd5b7f4e487b7100000000000000000000000000000000000000000000000000000000600052602260045260246000fd5b7f4e487b7100000000000000000000000000000000000000000000000000000000600052604160045260246000fd5b6000601f19601f8301169050919050565b6008811061570257615701615653565b5b50565b61570e81615426565b811461571957600080fd5b50565b61572581615438565b811461573057600080fd5b50565b61573c81615444565b811461574757600080fd5b50565b61575381615481565b811461575e57600080fd5b50565b61576a8161548b565b811461577557600080fd5b50565b61578181615498565b811461578c57600080fd5b5056fea26469706673582212204a03e7e6e66e8953ac609ed61ef20e8941b5c59265de89d671e0d3d03c3e14a864736f6c63430008000033",
  "immutableReferences": {},
  "source": "// SPDX-License-Identifier: MIT\npragma solidity =0.8.0;\npragma experimental ABIEncoderV2;\n\ncontract GovernorAlpha {\n    /// @notice The name of this contract\n    string public constant name = \"Auditchain Governor Alpha\";\n\n    /// @notice The maximum number of actions that can be included in a proposal\n    function proposalMaxOperations() public pure returns (uint) { return 10; } // 10 actions\n\n    /// @notice The delay before voting on a proposal may take place, once proposed\n    //TODO: voting delay should be returned to 1\n    function votingDelay() public pure returns (uint) { return 0; } // 1 block\n\n    /// @notice The duration of voting on a proposal, in blocks\n    // function votingPeriod() public pure returns (uint) { return 17280; } // ~3 days in blocks (assuming 15s blocks)\n    function votingPeriod() public pure returns (uint) { return 35; } // ~3 days in blocks (assuming 15s blocks)\n\n\n    /// @notice The address of the Auditchain Protocol Timelock\n    TimelockInterface public timelock;\n\n    /// @notice The address of the Auditchain governance token\n    AuditTokenInterface public auditToken;\n\n    /// @notice The address of the Governor Guardian\n    address public guardian;\n\n    /// @notice The total number of proposals\n    uint public proposalCount;\n\n\n    struct Proposal {\n        // @notice Unique id for looking up a proposal\n        uint id;\n\n        // @notice Creator of the proposal\n        address proposer;\n\n        // @notice The timestamp that the proposal will be available for execution, set once the vote succeeds\n        uint eta;\n\n        // @notice the ordered list of target addresses for calls to be made\n        address[] targets;\n\n        // @notice The ordered list of values (i.e. msg.value) to be passed to the calls to be made\n        uint[] values;\n\n        // @notice The ordered list of function signatures to be called\n        string[] signatures;\n\n        // @notice The ordered list of calldata to be passed to each call\n        bytes[] calldatas;\n\n        // @notice The block at which voting begins: holders must delegate their votes prior to this block\n        uint startBlock;\n\n        // @notice The block at which voting ends: votes must be cast prior to this block\n        uint endBlock;\n\n        // @notice Current number of votes in favor of this proposal\n        uint forVotes;\n\n        // @notice Current number of votes in opposition to this proposal\n        uint againstVotes;\n\n        // @notice Flag marking whether the proposal has been canceled\n        bool canceled;\n\n        // @notice Flag marking whether the proposal has been executed\n        bool executed;       \n\n        // @notice Receipts of ballots for the entire set of voters\n        mapping  (address => Receipt) receipts;\n        string description;\n    }\n\n    /// @notice Ballot receipt record for a voter\n    struct Receipt {\n        // @notice Whether or not a vote has been cast\n        bool hasVoted;\n\n        // @notice Whether or not the voter supports the proposal\n        bool support;\n\n        // @notice The number of votes the voter had, which were cast\n        uint96 votes;\n    }\n\n    /// @notice Possible states that a proposal may be in\n    enum ProposalState {\n        Pending,\n        Active,\n        Canceled,\n        Defeated,\n        Succeeded,\n        Queued,\n        Expired,\n        Executed\n    }\n\n    /// @notice The official record of all proposals ever proposed\n    mapping (uint => Proposal) public proposals;\n\n    /// @notice The latest proposal for each proposer\n    mapping (address => uint) public latestProposalIds;\n\n    /// @notice The EIP-712 typehash for the contract's domain\n    bytes32 public constant DOMAIN_TYPEHASH = keccak256(\"EIP712Domain(string name,uint256 chainId,address verifyingContract)\");\n\n    /// @notice The EIP-712 typehash for the ballot struct used by the contract\n    bytes32 public constant BALLOT_TYPEHASH = keccak256(\"Ballot(uint256 proposalId,bool support)\");\n\n    /// @notice An event emitted when a new proposal is created\n    event ProposalCreated(uint indexed id, address proposer, address[] targets, uint[] values, string[] signatures, bytes[] calldatas, uint startBlock, uint endBlock, string description);\n\n    /// @notice An event emitted when a vote has been cast on a proposal\n    event VoteCast(address voter, uint indexed proposalId, bool support, uint votes);\n\n    /// @notice An event emitted when a proposal has been canceled\n    event ProposalCanceled(uint indexed id);\n\n    /// @notice An event emitted when a proposal has been queued in the Timelock\n    event ProposalQueued(uint indexed id, uint eta);\n\n    /// @notice An event emitted when a proposal has been executed in the Timelock\n    event ProposalExecuted(uint indexed id);\n\n    constructor(address timelock_, address auditToken_, address guardian_) {\n        timelock = TimelockInterface(timelock_);\n        auditToken = AuditTokenInterface(auditToken_);\n        guardian = guardian_;\n    }\n\n    /// @notice The number of votes required in order for a voter to become a proposer\n    function proposalThreshold() public view returns (uint256) { \n        \n        return auditToken.totalSupply() / 100; // 1% of AUDT\n        \n    } \n\n    /// @notice The number of votes in support of a proposal required in order for a quorum to be reached and for a vote to succeed\n    function quorumVotes() public view returns (uint) { \n        return (auditToken.totalSupply() * 4) / 100; // 4% of AUDT \n    } \n\n\n\n    function propose(address[] memory targets, uint[] memory values, string[] memory signatures, bytes[] memory calldatas, string memory description) public returns (uint) {\n        require(auditToken.getPriorVotes(msg.sender, sub256(block.number, 1)) > proposalThreshold(), \"GovernorAlpha::propose: proposer votes below proposal threshold\");\n        require(targets.length == values.length && targets.length == signatures.length && targets.length == calldatas.length, \"GovernorAlpha::propose: proposal function information arity mismatch\");\n        require(targets.length != 0, \"GovernorAlpha::propose: must provide actions\");\n        require(targets.length <= proposalMaxOperations(), \"GovernorAlpha::propose: too many actions\");\n\n        uint latestProposalId = latestProposalIds[msg.sender];\n        if (latestProposalId != 0) {\n          ProposalState proposersLatestProposalState = state(latestProposalId);\n          require(proposersLatestProposalState != ProposalState.Active, \"GovernorAlpha::propose: one live proposal per proposer, found an already active proposal\");\n          require(proposersLatestProposalState != ProposalState.Pending, \"GovernorAlpha::propose: one live proposal per proposer, found an already pending proposal\");\n        }\n\n        uint startBlock = add256(block.number, votingDelay());\n        uint endBlock = add256(startBlock, votingPeriod());\n\n        proposalCount++;\n        Proposal storage newProposal = proposals[proposalCount];\n        newProposal.id = proposalCount;\n        newProposal.proposer = msg.sender;\n        newProposal.eta = 0;\n        newProposal.targets = targets;\n        newProposal.values= values;\n        newProposal.signatures = signatures;\n        newProposal.calldatas = calldatas;\n        newProposal.startBlock = startBlock;\n        newProposal.endBlock = endBlock;\n        newProposal.forVotes = 0;\n        newProposal.againstVotes = 0;\n        newProposal.canceled = false;\n        newProposal.executed = false;\n        newProposal.description = description;\n\n        // proposals[newProposal.id] = newProposal;\n        latestProposalIds[newProposal.proposer] = newProposal.id;\n\n        emit ProposalCreated(newProposal.id, msg.sender, targets, values, signatures, calldatas, startBlock, endBlock, description);\n        return newProposal.id;\n    }\n\n    function queue(uint proposalId) public {\n        require(state(proposalId) == ProposalState.Succeeded, \"GovernorAlpha::queue: proposal can only be queued if it is succeeded\");\n        Proposal storage proposal = proposals[proposalId];\n        uint eta = add256(block.timestamp, timelock.delay());\n        for (uint i = 0; i < proposal.targets.length; i++) {\n            _queueOrRevert(proposal.targets[i], proposal.values[i], proposal.signatures[i], proposal.calldatas[i], eta);\n        }\n        proposal.eta = eta;\n        emit ProposalQueued(proposalId, eta);\n    }\n\n    function _queueOrRevert(address target, uint value, string memory signature, bytes memory data, uint eta) internal {\n        require(!timelock.queuedTransactions(keccak256(abi.encode(target, value, signature, data, eta))), \"GovernorAlpha::_queueOrRevert: proposal action already queued at eta\");\n        timelock.queueTransaction(target, value, signature, data, eta);\n    }\n\n    function execute(uint proposalId) public payable {\n        require(state(proposalId) == ProposalState.Queued, \"GovernorAlpha::execute: proposal can only be executed if it is queued\");\n        Proposal storage proposal = proposals[proposalId];\n        proposal.executed = true;\n        for (uint i = 0; i < proposal.targets.length; i++) {\n            // timelock.executeTransaction.value(proposal.values[i])(proposal.targets[i], proposal.values[i], proposal.signatures[i], proposal.calldatas[i], proposal.eta};\n            timelock.executeTransaction{value: proposal.values[i]} (proposal.targets[i], proposal.values[i], proposal.signatures[i], proposal.calldatas[i], proposal.eta);\n\n        }\n        emit ProposalExecuted(proposalId);\n    }\n\n    function cancel(uint proposalId) public {\n        ProposalState state = state(proposalId);\n        require(state != ProposalState.Executed, \"GovernorAlpha::cancel: cannot cancel executed proposal\");\n\n        Proposal storage proposal = proposals[proposalId];\n        require(msg.sender == guardian || auditToken.getPriorVotes(proposal.proposer, sub256(block.number, 1)) < proposalThreshold(), \"GovernorAlpha::cancel: proposer above threshold\");\n\n        proposal.canceled = true;\n        for (uint i = 0; i < proposal.targets.length; i++) {\n            timelock.cancelTransaction(proposal.targets[i], proposal.values[i], proposal.signatures[i], proposal.calldatas[i], proposal.eta);\n        }\n\n        emit ProposalCanceled(proposalId);\n    }\n\n    function getActions(uint proposalId) public view returns (address[] memory targets, uint[] memory values, string[] memory signatures, bytes[] memory calldatas) {\n        Proposal storage p = proposals[proposalId];\n        return (p.targets, p.values, p.signatures, p.calldatas);\n    }\n\n    function getReceipt(uint proposalId, address voter) public view returns (Receipt memory) {\n        return proposals[proposalId].receipts[voter];\n    }\n\n    function state(uint proposalId) public view returns (ProposalState) {\n        require(proposalCount >= proposalId && proposalId > 0, \"GovernorAlpha::state: invalid proposal id\");\n        Proposal storage proposal = proposals[proposalId];\n        if (proposal.canceled) {\n            return ProposalState.Canceled;\n        } else if (block.number <= proposal.startBlock) {\n            return ProposalState.Pending;\n        } else if (block.number <= proposal.endBlock) {\n            return ProposalState.Active;\n        } else if (proposal.forVotes <= proposal.againstVotes || proposal.forVotes < quorumVotes() ) {\n            return ProposalState.Defeated;\n        } else if (proposal.eta == 0) {\n            return ProposalState.Succeeded;\n        } else if (proposal.executed) {\n            return ProposalState.Executed;\n        } else if (block.timestamp >= add256(proposal.eta, timelock.GRACE_PERIOD())) {\n            return ProposalState.Expired;\n        } else {\n            return ProposalState.Queued;\n        }\n    }\n\n    function castVote(uint proposalId, bool support) public {\n        return _castVote(msg.sender, proposalId, support);\n    }\n\n    function castVoteBySig(uint proposalId, bool support, uint8 v, bytes32 r, bytes32 s) public {\n        bytes32 domainSeparator = keccak256(abi.encode(DOMAIN_TYPEHASH, keccak256(bytes(name)), getChainId(), address(this)));\n        bytes32 structHash = keccak256(abi.encode(BALLOT_TYPEHASH, proposalId, support));\n        bytes32 digest = keccak256(abi.encodePacked(\"\\x19\\x01\", domainSeparator, structHash));\n        address signatory = ecrecover(digest, v, r, s);\n        require(signatory != address(0), \"GovernorAlpha::castVoteBySig: invalid signature\");\n        return _castVote(signatory, proposalId, support);\n    }\n\n    function _castVote(address voter, uint proposalId, bool support) internal {\n        require(state(proposalId) == ProposalState.Active, \"GovernorAlpha::_castVote: voting is closed\");\n        Proposal storage proposal = proposals[proposalId];\n        Receipt storage receipt = proposal.receipts[voter];\n        require(receipt.hasVoted == false, \"GovernorAlpha::_castVote: voter already voted\");\n        uint96 votes = auditToken.getPriorVotes(voter, proposal.startBlock);\n\n        if (support) {\n            proposal.forVotes = add256(proposal.forVotes, votes);\n        } else {\n            proposal.againstVotes = add256(proposal.againstVotes, votes);\n        }\n\n        receipt.hasVoted = true;\n        receipt.support = support;\n        receipt.votes = votes;\n\n        emit VoteCast(voter, proposalId, support, votes);\n    }\n\n    function __acceptAdmin() public {\n        require(msg.sender == guardian, \"GovernorAlpha::__acceptAdmin: sender must be gov guardian\");\n        timelock.acceptAdmin();\n    }\n\n    function __abdicate() public {\n        require(msg.sender == guardian, \"GovernorAlpha::__abdicate: sender must be gov guardian\");\n        guardian = address(0);\n    }\n\n    function __queueSetTimelockPendingAdmin(address newPendingAdmin, uint eta) public {\n        require(msg.sender == guardian, \"GovernorAlpha::__queueSetTimelockPendingAdmin: sender must be gov guardian\");\n        timelock.queueTransaction(address(timelock), 0, \"setPendingAdmin(address)\", abi.encode(newPendingAdmin), eta);\n    }\n\n    function __executeSetTimelockPendingAdmin(address newPendingAdmin, uint eta) public {\n        require(msg.sender == guardian, \"GovernorAlpha::__executeSetTimelockPendingAdmin: sender must be gov guardian\");\n        timelock.executeTransaction(address(timelock), 0, \"setPendingAdmin(address)\", abi.encode(newPendingAdmin), eta);\n    }\n\n    function add256(uint256 a, uint256 b) internal pure returns (uint) {\n        uint c = a + b;\n        require(c >= a, \"addition overflow\");\n        return c;\n    }\n\n    function sub256(uint256 a, uint256 b) internal pure returns (uint) {\n        require(b <= a, \"subtraction underflow\");\n        return a - b;\n    }\n\n    function getChainId() internal view returns (uint) {\n        uint chainId;\n        assembly { chainId := chainid() }\n        return chainId;\n    }\n}\n\ninterface TimelockInterface {\n    function delay() external view returns (uint);\n    function GRACE_PERIOD() external view returns (uint);\n    function acceptAdmin() external;\n    function queuedTransactions(bytes32 hash) external view returns (bool);\n    function queueTransaction(address target, uint value, string calldata signature, bytes calldata data, uint eta) external returns (bytes32);\n    function cancelTransaction(address target, uint value, string calldata signature, bytes calldata data, uint eta) external;\n    function executeTransaction(address target, uint value, string calldata signature, bytes calldata data, uint eta) external payable returns (bytes memory);\n}\n\ninterface AuditTokenInterface {\n    function getPriorVotes(address account, uint blockNumber) external view returns (uint96);\n    function totalSupply() external view returns (uint256);\n}",
  "sourcePath": "/home/win2win/eth/projects/AuditChain/Core-Smart-Contracts-v1-upgradable/contracts/Governance/GovernorAlpha.sol",
  "compiler": {
    "name": "solc",
    "version": "0.8.0+commit.c7dfd78e.Emscripten.clang"
  },
  "schemaVersion": "3.4.1",
  "updatedAt": "2022-05-18T17:13:45.645Z",
  "devdoc": {
    "kind": "dev",
    "methods": {},
    "version": 1
  },
  "userdoc": {
    "events": {
      "ProposalCanceled(uint256)": {
        "notice": "An event emitted when a proposal has been canceled"
      },
      "ProposalCreated(uint256,address,address[],uint256[],string[],bytes[],uint256,uint256,string)": {
        "notice": "An event emitted when a new proposal is created"
      },
      "ProposalExecuted(uint256)": {
        "notice": "An event emitted when a proposal has been executed in the Timelock"
      },
      "ProposalQueued(uint256,uint256)": {
        "notice": "An event emitted when a proposal has been queued in the Timelock"
      },
      "VoteCast(address,uint256,bool,uint256)": {
        "notice": "An event emitted when a vote has been cast on a proposal"
      }
    },
    "kind": "user",
    "methods": {
      "BALLOT_TYPEHASH()": {
        "notice": "The EIP-712 typehash for the ballot struct used by the contract"
      },
      "DOMAIN_TYPEHASH()": {
        "notice": "The EIP-712 typehash for the contract's domain"
      },
      "auditToken()": {
        "notice": "The address of the Auditchain governance token"
      },
      "guardian()": {
        "notice": "The address of the Governor Guardian"
      },
      "latestProposalIds(address)": {
        "notice": "The latest proposal for each proposer"
      },
      "name()": {
        "notice": "The name of this contract"
      },
      "proposalCount()": {
        "notice": "The total number of proposals"
      },
      "proposalMaxOperations()": {
        "notice": "The maximum number of actions that can be included in a proposal"
      },
      "proposalThreshold()": {
        "notice": "The number of votes required in order for a voter to become a proposer"
      },
      "proposals(uint256)": {
        "notice": "The official record of all proposals ever proposed"
      },
      "quorumVotes()": {
        "notice": "The number of votes in support of a proposal required in order for a quorum to be reached and for a vote to succeed"
      },
      "timelock()": {
        "notice": "The address of the Auditchain Protocol Timelock"
      },
      "votingDelay()": {
        "notice": "The delay before voting on a proposal may take place, once proposed"
      },
      "votingPeriod()": {
        "notice": "The duration of voting on a proposal, in blocks"
      }
    },
    "version": 1
  }
}