{
  "contractName": "Locked",
  "abi": [
    {
      "anonymous": false,
      "inputs": [
        {
          "indexed": false,
          "internalType": "address",
          "name": "user",
          "type": "address"
        }
      ],
      "name": "AddedLock",
      "type": "event"
    },
    {
      "anonymous": false,
      "inputs": [
        {
          "indexed": false,
          "internalType": "address",
          "name": "user",
          "type": "address"
        }
      ],
      "name": "RemovedLock",
      "type": "event"
    },
    {
      "anonymous": false,
      "inputs": [
        {
          "indexed": true,
          "internalType": "bytes32",
          "name": "role",
          "type": "bytes32"
        },
        {
          "indexed": true,
          "internalType": "bytes32",
          "name": "previousAdminRole",
          "type": "bytes32"
        },
        {
          "indexed": true,
          "internalType": "bytes32",
          "name": "newAdminRole",
          "type": "bytes32"
        }
      ],
      "name": "RoleAdminChanged",
      "type": "event"
    },
    {
      "anonymous": false,
      "inputs": [
        {
          "indexed": true,
          "internalType": "bytes32",
          "name": "role",
          "type": "bytes32"
        },
        {
          "indexed": true,
          "internalType": "address",
          "name": "account",
          "type": "address"
        },
        {
          "indexed": true,
          "internalType": "address",
          "name": "sender",
          "type": "address"
        }
      ],
      "name": "RoleGranted",
      "type": "event"
    },
    {
      "anonymous": false,
      "inputs": [
        {
          "indexed": true,
          "internalType": "bytes32",
          "name": "role",
          "type": "bytes32"
        },
        {
          "indexed": true,
          "internalType": "address",
          "name": "account",
          "type": "address"
        },
        {
          "indexed": true,
          "internalType": "address",
          "name": "sender",
          "type": "address"
        }
      ],
      "name": "RoleRevoked",
      "type": "event"
    },
    {
      "inputs": [],
      "name": "CONTROLLER_ROLE",
      "outputs": [
        {
          "internalType": "bytes32",
          "name": "",
          "type": "bytes32"
        }
      ],
      "stateMutability": "view",
      "type": "function"
    },
    {
      "inputs": [],
      "name": "DEFAULT_ADMIN_ROLE",
      "outputs": [
        {
          "internalType": "bytes32",
          "name": "",
          "type": "bytes32"
        }
      ],
      "stateMutability": "view",
      "type": "function"
    },
    {
      "inputs": [],
      "name": "MINTER_ROLE",
      "outputs": [
        {
          "internalType": "bytes32",
          "name": "",
          "type": "bytes32"
        }
      ],
      "stateMutability": "view",
      "type": "function"
    },
    {
      "inputs": [
        {
          "internalType": "bytes32",
          "name": "role",
          "type": "bytes32"
        }
      ],
      "name": "getRoleAdmin",
      "outputs": [
        {
          "internalType": "bytes32",
          "name": "",
          "type": "bytes32"
        }
      ],
      "stateMutability": "view",
      "type": "function"
    },
    {
      "inputs": [
        {
          "internalType": "bytes32",
          "name": "role",
          "type": "bytes32"
        },
        {
          "internalType": "uint256",
          "name": "index",
          "type": "uint256"
        }
      ],
      "name": "getRoleMember",
      "outputs": [
        {
          "internalType": "address",
          "name": "",
          "type": "address"
        }
      ],
      "stateMutability": "view",
      "type": "function"
    },
    {
      "inputs": [
        {
          "internalType": "bytes32",
          "name": "role",
          "type": "bytes32"
        }
      ],
      "name": "getRoleMemberCount",
      "outputs": [
        {
          "internalType": "uint256",
          "name": "",
          "type": "uint256"
        }
      ],
      "stateMutability": "view",
      "type": "function"
    },
    {
      "inputs": [
        {
          "internalType": "bytes32",
          "name": "role",
          "type": "bytes32"
        },
        {
          "internalType": "address",
          "name": "account",
          "type": "address"
        }
      ],
      "name": "grantRole",
      "outputs": [],
      "stateMutability": "nonpayable",
      "type": "function"
    },
    {
      "inputs": [
        {
          "internalType": "bytes32",
          "name": "role",
          "type": "bytes32"
        },
        {
          "internalType": "address",
          "name": "account",
          "type": "address"
        }
      ],
      "name": "hasRole",
      "outputs": [
        {
          "internalType": "bool",
          "name": "",
          "type": "bool"
        }
      ],
      "stateMutability": "view",
      "type": "function"
    },
    {
      "inputs": [
        {
          "internalType": "address",
          "name": "",
          "type": "address"
        }
      ],
      "name": "lockedList",
      "outputs": [
        {
          "internalType": "bool",
          "name": "",
          "type": "bool"
        }
      ],
      "stateMutability": "view",
      "type": "function"
    },
    {
      "inputs": [
        {
          "internalType": "bytes32",
          "name": "role",
          "type": "bytes32"
        },
        {
          "internalType": "address",
          "name": "account",
          "type": "address"
        }
      ],
      "name": "renounceRole",
      "outputs": [],
      "stateMutability": "nonpayable",
      "type": "function"
    },
    {
      "inputs": [
        {
          "internalType": "bytes32",
          "name": "role",
          "type": "bytes32"
        },
        {
          "internalType": "address",
          "name": "account",
          "type": "address"
        }
      ],
      "name": "revokeRole",
      "outputs": [],
      "stateMutability": "nonpayable",
      "type": "function"
    },
    {
      "inputs": [
        {
          "internalType": "bytes4",
          "name": "interfaceId",
          "type": "bytes4"
        }
      ],
      "name": "supportsInterface",
      "outputs": [
        {
          "internalType": "bool",
          "name": "",
          "type": "bool"
        }
      ],
      "stateMutability": "view",
      "type": "function"
    },
    {
      "inputs": [
        {
          "internalType": "address",
          "name": "_user",
          "type": "address"
        }
      ],
      "name": "isLocked",
      "outputs": [
        {
          "internalType": "bool",
          "name": "",
          "type": "bool"
        }
      ],
      "stateMutability": "view",
      "type": "function"
    },
    {
      "inputs": [
        {
          "internalType": "address",
          "name": "_user",
          "type": "address"
        }
      ],
      "name": "addLock",
      "outputs": [],
      "stateMutability": "nonpayable",
      "type": "function"
    },
    {
      "inputs": [
        {
          "internalType": "address[]",
          "name": "_users",
          "type": "address[]"
        }
      ],
      "name": "addLockMultiple",
      "outputs": [],
      "stateMutability": "nonpayable",
      "type": "function"
    },
    {
      "inputs": [
        {
          "internalType": "address",
          "name": "_user",
          "type": "address"
        }
      ],
      "name": "removeLock",
      "outputs": [],
      "stateMutability": "nonpayable",
      "type": "function"
    }
  ],
  "bytecode": "0x608060405234801561001057600080fd5b50611cee806100206000396000f3fe608060405234801561001057600080fd5b50600436106101005760003560e01c8063882f327b11610097578063a217fddf11610066578063a217fddf146102cf578063ca15c873146102ed578063d53913931461031d578063d547741f1461033b57610100565b8063882f327b146102375780638f557373146102535780639010d07c1461026f57806391d148541461029f57610100565b80632f2ff15d116100d35780632f2ff15d146101b357806336568abe146101cf5780634a387bef146101eb5780634a4fbeec1461020757610100565b806301ffc9a714610105578063092c5b3b146101355780631a921b3e14610153578063248a9ca314610183575b600080fd5b61011f600480360381019061011a9190611558565b610357565b60405161012c919061186e565b60405180910390f35b61013d6103d1565b60405161014a9190611889565b60405180910390f35b61016d6004803603810190610168919061144d565b6103f5565b60405161017a919061186e565b60405180910390f35b61019d600480360381019061019891906114b7565b610415565b6040516101aa9190611889565b60405180910390f35b6101cd60048036038101906101c891906114e0565b610435565b005b6101e960048036038101906101e491906114e0565b610469565b005b6102056004803603810190610200919061144d565b61049d565b005b610221600480360381019061021c919061144d565b610512565b60405161022e919061186e565b60405180910390f35b610251600480360381019061024c919061144d565b610568565b005b61026d60048036038101906102689190611476565b6105dd565b005b6102896004803603810190610284919061151c565b6106fd565b6040516102969190611853565b60405180910390f35b6102b960048036038101906102b491906114e0565b61072c565b6040516102c6919061186e565b60405180910390f35b6102d7610797565b6040516102e49190611889565b60405180910390f35b610307600480360381019061030291906114b7565b61079e565b6040516103149190611946565b60405180910390f35b6103256107c2565b6040516103329190611889565b60405180910390f35b610355600480360381019061035091906114e0565b6107e6565b005b60007f5a05180f000000000000000000000000000000000000000000000000000000007bffffffffffffffffffffffffffffffffffffffffffffffffffffffff1916827bffffffffffffffffffffffffffffffffffffffffffffffffffffffff191614806103ca57506103c98261081a565b5b9050919050565b7f7b765e0e932d348852a6f810bfa1ab891e259123f02db8cdcde614c57022335781565b60c96020528060005260406000206000915054906101000a900460ff1681565b600060656000838152602001908152602001600020600101549050919050565b61043f8282610894565b61046481609760008581526020019081526020016000206108bd90919063ffffffff16565b505050565b61047382826108ed565b610498816097600085815260200190815260200160002061097090919063ffffffff16565b505050565b6104c77f7b765e0e932d348852a6f810bfa1ab891e259123f02db8cdcde614c5702233573361072c565b610506576040517f08c379a00000000000000000000000000000000000000000000000000000000081526004016104fd90611906565b60405180910390fd5b61050f816109a0565b50565b600060c960008373ffffffffffffffffffffffffffffffffffffffff1673ffffffffffffffffffffffffffffffffffffffff16815260200190815260200160002060009054906101000a900460ff169050919050565b6105927f7b765e0e932d348852a6f810bfa1ab891e259123f02db8cdcde614c5702233573361072c565b6105d1576040517f08c379a00000000000000000000000000000000000000000000000000000000081526004016105c890611906565b60405180910390fd5b6105da81610a32565b50565b6106077f7b765e0e932d348852a6f810bfa1ab891e259123f02db8cdcde614c5702233573361072c565b610646576040517f08c379a000000000000000000000000000000000000000000000000000000000815260040161063d90611906565b60405180910390fd5b600081519050610100811115610691576040517f08c379a0000000000000000000000000000000000000000000000000000000008152600401610688906118e6565b60405180910390fd5b60005b818110156106f8576106e58382815181106106d8577f4e487b7100000000000000000000000000000000000000000000000000000000600052603260045260246000fd5b6020026020010151610a32565b80806106f090611ba4565b915050610694565b505050565b60006107248260976000868152602001908152602001600020610ac490919063ffffffff16565b905092915050565b60006065600084815260200190815260200160002060000160008373ffffffffffffffffffffffffffffffffffffffff1673ffffffffffffffffffffffffffffffffffffffff16815260200190815260200160002060009054906101000a900460ff16905092915050565b6000801b81565b60006107bb60976000848152602001908152602001600020610ade565b9050919050565b7f9f2df0fed2c77648de5860a4cc508cd0818c85b8b8a1ab4ceeef8d981c8956a681565b6107f08282610af3565b610815816097600085815260200190815260200160002061097090919063ffffffff16565b505050565b60007f7965db0b000000000000000000000000000000000000000000000000000000007bffffffffffffffffffffffffffffffffffffffffffffffffffffffff1916827bffffffffffffffffffffffffffffffffffffffffffffffffffffffff1916148061088d575061088c82610b1c565b5b9050919050565b61089d82610415565b6108ae816108a9610b86565b610b8e565b6108b88383610c2b565b505050565b60006108e5836000018373ffffffffffffffffffffffffffffffffffffffff1660001b610d0c565b905092915050565b6108f5610b86565b73ffffffffffffffffffffffffffffffffffffffff168173ffffffffffffffffffffffffffffffffffffffff1614610962576040517f08c379a000000000000000000000000000000000000000000000000000000000815260040161095990611926565b60405180910390fd5b61096c8282610d7c565b5050565b6000610998836000018373ffffffffffffffffffffffffffffffffffffffff1660001b610e5e565b905092915050565b600060c960008373ffffffffffffffffffffffffffffffffffffffff1673ffffffffffffffffffffffffffffffffffffffff16815260200190815260200160002060006101000a81548160ff0219169083151502179055507f6134e30ca79f58d7566528b3768c7d33c9c30815c63cfeae3b69f52cf31dd61a81604051610a279190611853565b60405180910390a150565b600160c960008373ffffffffffffffffffffffffffffffffffffffff1673ffffffffffffffffffffffffffffffffffffffff16815260200190815260200160002060006101000a81548160ff0219169083151502179055507f1b6f28dfffb89ba40ba9067329c3c0e8bd926256b970cf7d060cd48b1cd0e44e81604051610ab99190611853565b60405180910390a150565b6000610ad38360000183610fe4565b60001c905092915050565b6000610aec82600001611035565b9050919050565b610afc82610415565b610b0d81610b08610b86565b610b8e565b610b178383610d7c565b505050565b60007f01ffc9a7000000000000000000000000000000000000000000000000000000007bffffffffffffffffffffffffffffffffffffffffffffffffffffffff1916827bffffffffffffffffffffffffffffffffffffffffffffffffffffffff1916149050919050565b600033905090565b610b98828261072c565b610c2757610bbd8173ffffffffffffffffffffffffffffffffffffffff166014611046565b610bcb8360001c6020611046565b604051602001610bdc929190611819565b6040516020818303038152906040526040517f08c379a0000000000000000000000000000000000000000000000000000000008152600401610c1e91906118a4565b60405180910390fd5b5050565b610c35828261072c565b610d085760016065600084815260200190815260200160002060000160008373ffffffffffffffffffffffffffffffffffffffff1673ffffffffffffffffffffffffffffffffffffffff16815260200190815260200160002060006101000a81548160ff021916908315150217905550610cad610b86565b73ffffffffffffffffffffffffffffffffffffffff168173ffffffffffffffffffffffffffffffffffffffff16837f2f8788117e7eff1d82e926ec794901d17c78024a50270940304540a733656f0d60405160405180910390a45b5050565b6000610d188383611340565b610d71578260000182908060018154018082558091505060019003906000526020600020016000909190919091505582600001805490508360010160008481526020019081526020016000208190555060019050610d76565b600090505b92915050565b610d86828261072c565b15610e5a5760006065600084815260200190815260200160002060000160008373ffffffffffffffffffffffffffffffffffffffff1673ffffffffffffffffffffffffffffffffffffffff16815260200190815260200160002060006101000a81548160ff021916908315150217905550610dff610b86565b73ffffffffffffffffffffffffffffffffffffffff168173ffffffffffffffffffffffffffffffffffffffff16837ff6391f5c32d9c69d2a47ea670b442974b53935d1edc7fd64eb21e047a839171b60405160405180910390a45b5050565b60008083600101600084815260200190815260200160002054905060008114610fd8576000600182610e909190611a95565b9050600060018660000180549050610ea89190611a95565b9050818114610f63576000866000018281548110610eef577f4e487b7100000000000000000000000000000000000000000000000000000000600052603260045260246000fd5b9060005260206000200154905080876000018481548110610f39577f4e487b7100000000000000000000000000000000000000000000000000000000600052603260045260246000fd5b90600052602060002001819055508387600101600083815260200190815260200160002081905550505b85600001805480610f9d577f4e487b7100000000000000000000000000000000000000000000000000000000600052603160045260246000fd5b600190038181906000526020600020016000905590558560010160008681526020019081526020016000206000905560019350505050610fde565b60009150505b92915050565b6000826000018281548110611022577f4e487b7100000000000000000000000000000000000000000000000000000000600052603260045260246000fd5b9060005260206000200154905092915050565b600081600001805490509050919050565b6060600060028360026110599190611a3b565b61106391906119e5565b67ffffffffffffffff8111156110a2577f4e487b7100000000000000000000000000000000000000000000000000000000600052604160045260246000fd5b6040519080825280601f01601f1916602001820160405280156110d45781602001600182028036833780820191505090505b5090507f300000000000000000000000000000000000000000000000000000000000000081600081518110611132577f4e487b7100000000000000000000000000000000000000000000000000000000600052603260045260246000fd5b60200101907effffffffffffffffffffffffffffffffffffffffffffffffffffffffffffff1916908160001a9053507f7800000000000000000000000000000000000000000000000000000000000000816001815181106111bc577f4e487b7100000000000000000000000000000000000000000000000000000000600052603260045260246000fd5b60200101907effffffffffffffffffffffffffffffffffffffffffffffffffffffffffffff1916908160001a905350600060018460026111fc9190611a3b565b61120691906119e5565b90505b60018111156112f2577f3031323334353637383961626364656600000000000000000000000000000000600f86166010811061126e577f4e487b7100000000000000000000000000000000000000000000000000000000600052603260045260246000fd5b1a60f81b8282815181106112ab577f4e487b7100000000000000000000000000000000000000000000000000000000600052603260045260246000fd5b60200101907effffffffffffffffffffffffffffffffffffffffffffffffffffffffffffff1916908160001a905350600485901c9450806112eb90611b7a565b9050611209565b5060008414611336576040517f08c379a000000000000000000000000000000000000000000000000000000000815260040161132d906118c6565b60405180910390fd5b8091505092915050565b600080836001016000848152602001908152602001600020541415905092915050565b600061137661137184611992565b611961565b9050808382526020820190508285602086028201111561139557600080fd5b60005b858110156113c557816113ab88826113cf565b845260208401935060208301925050600181019050611398565b5050509392505050565b6000813590506113de81611c5c565b92915050565b600082601f8301126113f557600080fd5b8135611405848260208601611363565b91505092915050565b60008135905061141d81611c73565b92915050565b60008135905061143281611c8a565b92915050565b60008135905061144781611ca1565b92915050565b60006020828403121561145f57600080fd5b600061146d848285016113cf565b91505092915050565b60006020828403121561148857600080fd5b600082013567ffffffffffffffff8111156114a257600080fd5b6114ae848285016113e4565b91505092915050565b6000602082840312156114c957600080fd5b60006114d78482850161140e565b91505092915050565b600080604083850312156114f357600080fd5b60006115018582860161140e565b9250506020611512858286016113cf565b9150509250929050565b6000806040838503121561152f57600080fd5b600061153d8582860161140e565b925050602061154e85828601611438565b9150509250929050565b60006020828403121561156a57600080fd5b600061157884828501611423565b91505092915050565b61158a81611ac9565b82525050565b61159981611adb565b82525050565b6115a881611ae7565b82525050565b60006115b9826119be565b6115c381856119c9565b93506115d3818560208601611b47565b6115dc81611c4b565b840191505092915050565b60006115f2826119be565b6115fc81856119da565b935061160c818560208601611b47565b80840191505092915050565b60006116256020836119c9565b91507f537472696e67733a20686578206c656e67746820696e73756666696369656e746000830152602082019050919050565b60006116656025836119c9565b91507f4c6f636b65642d6164644c6f636b4d756c7469706c653a204c69737420746f6f60008301527f206c6f6e670000000000000000000000000000000000000000000000000000006020830152604082019050919050565b60006116cb6031836119c9565b91507f4c6f636b65643a3a6973436f6e74726f6c6c6572202d2043616c6c657220697360008301527f206e6f74206120636f6e74726f6c6c65720000000000000000000000000000006020830152604082019050919050565b60006117316017836119da565b91507f416363657373436f6e74726f6c3a206163636f756e74200000000000000000006000830152601782019050919050565b60006117716011836119da565b91507f206973206d697373696e6720726f6c65200000000000000000000000000000006000830152601182019050919050565b60006117b1602f836119c9565b91507f416363657373436f6e74726f6c3a2063616e206f6e6c792072656e6f756e636560008301527f20726f6c657320666f722073656c6600000000000000000000000000000000006020830152604082019050919050565b61181381611b3d565b82525050565b600061182482611724565b915061183082856115e7565b915061183b82611764565b915061184782846115e7565b91508190509392505050565b60006020820190506118686000830184611581565b92915050565b60006020820190506118836000830184611590565b92915050565b600060208201905061189e600083018461159f565b92915050565b600060208201905081810360008301526118be81846115ae565b905092915050565b600060208201905081810360008301526118df81611618565b9050919050565b600060208201905081810360008301526118ff81611658565b9050919050565b6000602082019050818103600083015261191f816116be565b9050919050565b6000602082019050818103600083015261193f816117a4565b9050919050565b600060208201905061195b600083018461180a565b92915050565b6000604051905081810181811067ffffffffffffffff8211171561198857611987611c1c565b5b8060405250919050565b600067ffffffffffffffff8211156119ad576119ac611c1c565b5b602082029050602081019050919050565b600081519050919050565b600082825260208201905092915050565b600081905092915050565b60006119f082611b3d565b91506119fb83611b3d565b9250827fffffffffffffffffffffffffffffffffffffffffffffffffffffffffffffffff03821115611a3057611a2f611bed565b5b828201905092915050565b6000611a4682611b3d565b9150611a5183611b3d565b9250817fffffffffffffffffffffffffffffffffffffffffffffffffffffffffffffffff0483118215151615611a8a57611a89611bed565b5b828202905092915050565b6000611aa082611b3d565b9150611aab83611b3d565b925082821015611abe57611abd611bed565b5b828203905092915050565b6000611ad482611b1d565b9050919050565b60008115159050919050565b6000819050919050565b60007fffffffff0000000000000000000000000000000000000000000000000000000082169050919050565b600073ffffffffffffffffffffffffffffffffffffffff82169050919050565b6000819050919050565b60005b83811015611b65578082015181840152602081019050611b4a565b83811115611b74576000848401525b50505050565b6000611b8582611b3d565b91506000821415611b9957611b98611bed565b5b600182039050919050565b6000611baf82611b3d565b91507fffffffffffffffffffffffffffffffffffffffffffffffffffffffffffffffff821415611be257611be1611bed565b5b600182019050919050565b7f4e487b7100000000000000000000000000000000000000000000000000000000600052601160045260246000fd5b7f4e487b7100000000000000000000000000000000000000000000000000000000600052604160045260246000fd5b6000601f19601f8301169050919050565b611c6581611ac9565b8114611c7057600080fd5b50565b611c7c81611ae7565b8114611c8757600080fd5b50565b611c9381611af1565b8114611c9e57600080fd5b50565b611caa81611b3d565b8114611cb557600080fd5b5056fea2646970667358221220e5c6583e842d3a667a6a2316b8158a5ebb0a4f122aba25a2a6c3d4ed63bf9a9864736f6c63430008000033",
  "immutableReferences": {},
  "source": "// SPDX-License-Identifier: MIT\npragma solidity =0.8.0;\n\nimport \"@openzeppelin/contracts-upgradeable/access/AccessControlEnumerableUpgradeable.sol\";\n\n/// @title Locked\n/// @dev Smart contract to enable locking and unlocking of token holders. \ncontract Locked is AccessControlEnumerableUpgradeable {\n\n    mapping (address => bool) public lockedList;\n\n    event AddedLock(address user);\n    event RemovedLock(address user);\n\n    // Create a new role identifier for the controller role\n    bytes32 public constant CONTROLLER_ROLE = keccak256(\"CONTROLLER_ROLE\");\n    bytes32 public constant MINTER_ROLE = keccak256(\"MINTER_ROLE\");\n\n       modifier isController {\n            require(hasRole(CONTROLLER_ROLE, msg.sender), \"Locked::isController - Caller is not a controller\");\n\n        _;\n    }\n\n        modifier isMinter {\n            require(hasRole(MINTER_ROLE, msg.sender), \"Locked::isMinter - Caller is not a minter\");\n        _;\n    }\n\n    /// @dev terminate transaction if any of the participants is locked\n    /// @param _from - user initiating process\n    /// @param _to  - user involved in process\n    modifier isNotLocked(address _from, address _to) {\n\n        if (!hasRole(DEFAULT_ADMIN_ROLE, _from)){  // allow contract admin on sending tokens even if recipient is locked\n            require(!lockedList[_from], \"Locked::isNotLocked - User is locked\");\n            require(!lockedList[_to], \"Locked::isNotLocked - User is locked\");\n        }\n        _;\n    }\n\n    /// @dev check if user has been locked\n    /// @param _user - usr to check\n    /// @return true or false\n    function isLocked(address _user) public view returns (bool) {\n        return lockedList[_user];\n    }\n    \n    /// @dev add user to lock\n    /// @param _user to lock\n    function addLock (address _user) public  isController() {        \n        _addLock(_user);\n    }\n\n    function addLockMultiple(address[] memory _users) public isController() {\n        uint256 length = _users.length;\n        require(length <= 256, \"Locked-addLockMultiple: List too long\");\n        for (uint256 i = 0; i < length; i++) {\n            _addLock(_users[i]);\n        }\n    }\n\n    /// @dev unlock user\n    /// @param _user - user to unlock\n    function removeLock (address _user) isController() public {       \n        _removeLock(_user);\n    }\n\n\n    /// @dev add user to lock for internal needs\n    /// @param _user to lock\n    function _addLock(address _user) internal {\n        lockedList[_user] = true;\n        emit AddedLock(_user);\n    }\n\n    /// @dev unlock user for internal needs\n    /// @param _user - user to unlock\n    function _removeLock (address _user) internal {\n        lockedList[_user] = false;\n        emit RemovedLock(_user);\n    }\n\n}",
  "sourcePath": "/home/win2win/eth/projects/AuditChain/Core-Smart-Contracts-v1-upgradable/contracts/Locked.sol",
  "compiler": {
    "name": "solc",
    "version": "0.8.0+commit.c7dfd78e.Emscripten.clang"
  },
  "schemaVersion": "3.4.1",
  "updatedAt": "2022-05-18T17:13:45.670Z",
  "devdoc": {
    "details": "Smart contract to enable locking and unlocking of token holders. ",
    "kind": "dev",
    "methods": {
      "addLock(address)": {
        "details": "add user to lock",
        "params": {
          "_user": "to lock"
        }
      },
      "getRoleAdmin(bytes32)": {
        "details": "Returns the admin role that controls `role`. See {grantRole} and {revokeRole}. To change a role's admin, use {_setRoleAdmin}."
      },
      "getRoleMember(bytes32,uint256)": {
        "details": "Returns one of the accounts that have `role`. `index` must be a value between 0 and {getRoleMemberCount}, non-inclusive. Role bearers are not sorted in any particular way, and their ordering may change at any point. WARNING: When using {getRoleMember} and {getRoleMemberCount}, make sure you perform all queries on the same block. See the following https://forum.openzeppelin.com/t/iterating-over-elements-on-enumerableset-in-openzeppelin-contracts/2296[forum post] for more information."
      },
      "getRoleMemberCount(bytes32)": {
        "details": "Returns the number of accounts that have `role`. Can be used together with {getRoleMember} to enumerate all bearers of a role."
      },
      "grantRole(bytes32,address)": {
        "details": "Overload {grantRole} to track enumerable memberships"
      },
      "hasRole(bytes32,address)": {
        "details": "Returns `true` if `account` has been granted `role`."
      },
      "isLocked(address)": {
        "details": "check if user has been locked",
        "params": {
          "_user": "- usr to check"
        },
        "returns": {
          "_0": "true or false"
        }
      },
      "removeLock(address)": {
        "details": "unlock user",
        "params": {
          "_user": "- user to unlock"
        }
      },
      "renounceRole(bytes32,address)": {
        "details": "Overload {renounceRole} to track enumerable memberships"
      },
      "revokeRole(bytes32,address)": {
        "details": "Overload {revokeRole} to track enumerable memberships"
      },
      "supportsInterface(bytes4)": {
        "details": "See {IERC165-supportsInterface}."
      }
    },
    "title": "Locked",
    "version": 1
  },
  "userdoc": {
    "kind": "user",
    "methods": {},
    "version": 1
  }
}