{
  "contractName": "MemberHelpers",
  "abi": [
    {
      "anonymous": false,
      "inputs": [
        {
          "indexed": false,
          "internalType": "address",
          "name": "user",
          "type": "address"
        },
        {
          "indexed": false,
          "internalType": "uint256",
          "name": "amount",
          "type": "uint256"
        }
      ],
      "name": "LogDecreaseDeposit",
      "type": "event"
    },
    {
      "anonymous": false,
      "inputs": [
        {
          "indexed": true,
          "internalType": "address",
          "name": "from",
          "type": "address"
        },
        {
          "indexed": false,
          "internalType": "uint256",
          "name": "amount",
          "type": "uint256"
        }
      ],
      "name": "LogDepositReceived",
      "type": "event"
    },
    {
      "anonymous": false,
      "inputs": [
        {
          "indexed": true,
          "internalType": "address",
          "name": "from",
          "type": "address"
        },
        {
          "indexed": false,
          "internalType": "uint256",
          "name": "amount",
          "type": "uint256"
        }
      ],
      "name": "LogDepositRedeemed",
      "type": "event"
    },
    {
      "anonymous": false,
      "inputs": [
        {
          "indexed": false,
          "internalType": "address",
          "name": "user",
          "type": "address"
        },
        {
          "indexed": false,
          "internalType": "uint256",
          "name": "amount",
          "type": "uint256"
        }
      ],
      "name": "LogIncreaseDeposit",
      "type": "event"
    },
    {
      "anonymous": false,
      "inputs": [
        {
          "indexed": true,
          "internalType": "bytes32",
          "name": "role",
          "type": "bytes32"
        },
        {
          "indexed": true,
          "internalType": "bytes32",
          "name": "previousAdminRole",
          "type": "bytes32"
        },
        {
          "indexed": true,
          "internalType": "bytes32",
          "name": "newAdminRole",
          "type": "bytes32"
        }
      ],
      "name": "RoleAdminChanged",
      "type": "event"
    },
    {
      "anonymous": false,
      "inputs": [
        {
          "indexed": true,
          "internalType": "bytes32",
          "name": "role",
          "type": "bytes32"
        },
        {
          "indexed": true,
          "internalType": "address",
          "name": "account",
          "type": "address"
        },
        {
          "indexed": true,
          "internalType": "address",
          "name": "sender",
          "type": "address"
        }
      ],
      "name": "RoleGranted",
      "type": "event"
    },
    {
      "anonymous": false,
      "inputs": [
        {
          "indexed": true,
          "internalType": "bytes32",
          "name": "role",
          "type": "bytes32"
        },
        {
          "indexed": true,
          "internalType": "address",
          "name": "account",
          "type": "address"
        },
        {
          "indexed": true,
          "internalType": "address",
          "name": "sender",
          "type": "address"
        }
      ],
      "name": "RoleRevoked",
      "type": "event"
    },
    {
      "inputs": [],
      "name": "CONTROLLER_ROLE",
      "outputs": [
        {
          "internalType": "bytes32",
          "name": "",
          "type": "bytes32"
        }
      ],
      "stateMutability": "view",
      "type": "function",
      "constant": true
    },
    {
      "inputs": [],
      "name": "DEFAULT_ADMIN_ROLE",
      "outputs": [
        {
          "internalType": "bytes32",
          "name": "",
          "type": "bytes32"
        }
      ],
      "stateMutability": "view",
      "type": "function",
      "constant": true
    },
    {
      "inputs": [],
      "name": "auditToken",
      "outputs": [
        {
          "internalType": "address",
          "name": "",
          "type": "address"
        }
      ],
      "stateMutability": "view",
      "type": "function",
      "constant": true
    },
    {
      "inputs": [
        {
          "internalType": "address",
          "name": "",
          "type": "address"
        }
      ],
      "name": "deposits",
      "outputs": [
        {
          "internalType": "uint256",
          "name": "",
          "type": "uint256"
        }
      ],
      "stateMutability": "view",
      "type": "function",
      "constant": true
    },
    {
      "inputs": [
        {
          "internalType": "bytes32",
          "name": "role",
          "type": "bytes32"
        }
      ],
      "name": "getRoleAdmin",
      "outputs": [
        {
          "internalType": "bytes32",
          "name": "",
          "type": "bytes32"
        }
      ],
      "stateMutability": "view",
      "type": "function",
      "constant": true
    },
    {
      "inputs": [
        {
          "internalType": "bytes32",
          "name": "role",
          "type": "bytes32"
        },
        {
          "internalType": "uint256",
          "name": "index",
          "type": "uint256"
        }
      ],
      "name": "getRoleMember",
      "outputs": [
        {
          "internalType": "address",
          "name": "",
          "type": "address"
        }
      ],
      "stateMutability": "view",
      "type": "function",
      "constant": true
    },
    {
      "inputs": [
        {
          "internalType": "bytes32",
          "name": "role",
          "type": "bytes32"
        }
      ],
      "name": "getRoleMemberCount",
      "outputs": [
        {
          "internalType": "uint256",
          "name": "",
          "type": "uint256"
        }
      ],
      "stateMutability": "view",
      "type": "function",
      "constant": true
    },
    {
      "inputs": [
        {
          "internalType": "bytes32",
          "name": "role",
          "type": "bytes32"
        },
        {
          "internalType": "address",
          "name": "account",
          "type": "address"
        }
      ],
      "name": "grantRole",
      "outputs": [],
      "stateMutability": "nonpayable",
      "type": "function"
    },
    {
      "inputs": [
        {
          "internalType": "bytes32",
          "name": "role",
          "type": "bytes32"
        },
        {
          "internalType": "address",
          "name": "account",
          "type": "address"
        }
      ],
      "name": "hasRole",
      "outputs": [
        {
          "internalType": "bool",
          "name": "",
          "type": "bool"
        }
      ],
      "stateMutability": "view",
      "type": "function",
      "constant": true
    },
    {
      "inputs": [],
      "name": "maxContribution",
      "outputs": [
        {
          "internalType": "uint256",
          "name": "",
          "type": "uint256"
        }
      ],
      "stateMutability": "view",
      "type": "function",
      "constant": true
    },
    {
      "inputs": [],
      "name": "minContribution",
      "outputs": [
        {
          "internalType": "uint256",
          "name": "",
          "type": "uint256"
        }
      ],
      "stateMutability": "view",
      "type": "function",
      "constant": true
    },
    {
      "inputs": [
        {
          "internalType": "bytes32",
          "name": "role",
          "type": "bytes32"
        },
        {
          "internalType": "address",
          "name": "account",
          "type": "address"
        }
      ],
      "name": "renounceRole",
      "outputs": [],
      "stateMutability": "nonpayable",
      "type": "function"
    },
    {
      "inputs": [
        {
          "internalType": "bytes32",
          "name": "role",
          "type": "bytes32"
        },
        {
          "internalType": "address",
          "name": "account",
          "type": "address"
        }
      ],
      "name": "revokeRole",
      "outputs": [],
      "stateMutability": "nonpayable",
      "type": "function"
    },
    {
      "inputs": [
        {
          "internalType": "bytes4",
          "name": "interfaceId",
          "type": "bytes4"
        }
      ],
      "name": "supportsInterface",
      "outputs": [
        {
          "internalType": "bool",
          "name": "",
          "type": "bool"
        }
      ],
      "stateMutability": "view",
      "type": "function",
      "constant": true
    },
    {
      "inputs": [],
      "name": "totalStaked",
      "outputs": [
        {
          "internalType": "uint256",
          "name": "",
          "type": "uint256"
        }
      ],
      "stateMutability": "view",
      "type": "function",
      "constant": true
    },
    {
      "inputs": [],
      "name": "validations",
      "outputs": [
        {
          "internalType": "contract IValidations",
          "name": "",
          "type": "address"
        }
      ],
      "stateMutability": "view",
      "type": "function",
      "constant": true
    },
    {
      "inputs": [
        {
          "internalType": "address",
          "name": "_members",
          "type": "address"
        },
        {
          "internalType": "address",
          "name": "_auditToken",
          "type": "address"
        }
      ],
      "name": "initialize",
      "outputs": [],
      "stateMutability": "nonpayable",
      "type": "function"
    },
    {
      "inputs": [
        {
          "internalType": "address",
          "name": "user",
          "type": "address"
        }
      ],
      "name": "returnDepositAmount",
      "outputs": [
        {
          "internalType": "uint256",
          "name": "",
          "type": "uint256"
        }
      ],
      "stateMutability": "view",
      "type": "function",
      "constant": true
    },
    {
      "inputs": [
        {
          "internalType": "address",
          "name": "user",
          "type": "address"
        },
        {
          "internalType": "uint256",
          "name": "amount",
          "type": "uint256"
        }
      ],
      "name": "increaseDeposit",
      "outputs": [],
      "stateMutability": "nonpayable",
      "type": "function"
    },
    {
      "inputs": [
        {
          "internalType": "address",
          "name": "user",
          "type": "address"
        },
        {
          "internalType": "uint256",
          "name": "amount",
          "type": "uint256"
        }
      ],
      "name": "decreaseDeposit",
      "outputs": [],
      "stateMutability": "nonpayable",
      "type": "function"
    },
    {
      "inputs": [
        {
          "internalType": "uint256",
          "name": "amount",
          "type": "uint256"
        }
      ],
      "name": "stake",
      "outputs": [],
      "stateMutability": "nonpayable",
      "type": "function"
    },
    {
      "inputs": [
        {
          "internalType": "uint256",
          "name": "amount",
          "type": "uint256"
        }
      ],
      "name": "redeem",
      "outputs": [],
      "stateMutability": "nonpayable",
      "type": "function"
    },
    {
      "inputs": [
        {
          "internalType": "address",
          "name": "_validations",
          "type": "address"
        }
      ],
      "name": "setValidation",
      "outputs": [],
      "stateMutability": "nonpayable",
      "type": "function"
    }
  ],
  "bytecode": "0x608060405234801561001057600080fd5b50613884806100206000396000f3fe608060405234801561001057600080fd5b506004361061014d5760003560e01c806398c3c116116100c3578063ca15c8731161007c578063ca15c8731461039e578063d417b7b3146103ce578063d547741f146103ea578063db006a7514610406578063de17f72014610422578063fc7e286d146104405761014d565b806398c3c116146102f0578063a217fddf1461030e578063a264c7cf1461032c578063a694fc3a14610348578063aaffadf314610364578063c3fb1a6e146103825761014d565b8063485cc95511610115578063485cc95514610208578063817b1cd2146102245780638319d390146102425780638d3d6576146102725780639010d07c1461029057806391d14854146102c05761014d565b806301ffc9a714610152578063092c5b3b14610182578063248a9ca3146101a05780632f2ff15d146101d057806336568abe146101ec575b600080fd5b61016c60048036038101906101679190612953565b610470565b6040516101799190613285565b60405180910390f35b61018a6104ea565b60405161019791906132a0565b60405180910390f35b6101ba60048036038101906101b591906128b2565b61050e565b6040516101c791906132a0565b60405180910390f35b6101ea60048036038101906101e591906128db565b61052e565b005b610206600480360381019061020191906128db565b610562565b005b610222600480360381019061021d9190612811565b610596565b005b61022c61072b565b6040516102399190613498565b60405180910390f35b61025c600480360381019061025791906127e8565b610731565b6040516102699190613498565b60405180910390f35b61027a61077a565b6040516102879190613498565b60405180910390f35b6102aa60048036038101906102a59190612917565b610780565b6040516102b791906131e1565b60405180910390f35b6102da60048036038101906102d591906128db565b6107af565b6040516102e79190613285565b60405180910390f35b6102f861081a565b60405161030591906131e1565b60405180910390f35b610316610840565b60405161032391906132a0565b60405180910390f35b610346600480360381019061034191906127e8565b610847565b005b610362600480360381019061035d919061297c565b6109c4565b005b61036c61105f565b6040516103799190613498565b60405180910390f35b61039c6004803603810190610397919061284d565b611065565b005b6103b860048036038101906103b391906128b2565b611200565b6040516103c59190613498565b60405180910390f35b6103e860048036038101906103e3919061284d565b611224565b005b61040460048036038101906103ff91906128db565b6113bf565b005b610420600480360381019061041b919061297c565b6113f3565b005b61042a6118f1565b60405161043791906132bb565b60405180910390f35b61045a600480360381019061045591906127e8565b611917565b6040516104679190613498565b60405180910390f35b60007f5a05180f000000000000000000000000000000000000000000000000000000007bffffffffffffffffffffffffffffffffffffffffffffffffffffffff1916827bffffffffffffffffffffffffffffffffffffffffffffffffffffffff191614806104e357506104e28261192f565b5b9050919050565b7f7b765e0e932d348852a6f810bfa1ab891e259123f02db8cdcde614c57022335781565b600060656000838152602001908152602001600020600101549050919050565b61053882826119a9565b61055d81609760008581526020019081526020016000206119d290919063ffffffff16565b505050565b61056c8282611a02565b6105918160976000858152602001908152602001600020611a8590919063ffffffff16565b505050565b600073ffffffffffffffffffffffffffffffffffffffff168273ffffffffffffffffffffffffffffffffffffffff161415610606576040517f08c379a00000000000000000000000000000000000000000000000000000000081526004016105fd90613318565b60405180910390fd5b600073ffffffffffffffffffffffffffffffffffffffff168173ffffffffffffffffffffffffffffffffffffffff161415610676576040517f08c379a000000000000000000000000000000000000000000000000000000000815260040161066d90613338565b60405180910390fd5b69010f0cf064dd5920000060cd8190555069054b40b1f852bda0000060ce819055508160ca60006101000a81548173ffffffffffffffffffffffffffffffffffffffff021916908373ffffffffffffffffffffffffffffffffffffffff1602179055508060c960006101000a81548173ffffffffffffffffffffffffffffffffffffffff021916908373ffffffffffffffffffffffffffffffffffffffff1602179055506107276000801b33611ab5565b5050565b60cf5481565b600060cc60008373ffffffffffffffffffffffffffffffffffffffff1673ffffffffffffffffffffffffffffffffffffffff168152602001908152602001600020549050919050565b60ce5481565b60006107a78260976000868152602001908152602001600020611ae990919063ffffffff16565b905092915050565b60006065600084815260200190815260200160002060000160008373ffffffffffffffffffffffffffffffffffffffff1673ffffffffffffffffffffffffffffffffffffffff16815260200190815260200160002060009054906101000a900460ff16905092915050565b60c960009054906101000a900473ffffffffffffffffffffffffffffffffffffffff1681565b6000801b81565b6040518060400160405280600d81526020017f73657456616c69646174696f6e00000000000000000000000000000000000000815250600081604051602001610890919061317a565b60405160208183030381529060405290506108cb7f7b765e0e932d348852a6f810bfa1ab891e259123f02db8cdcde614c570223357336107af565b819061090d576040517f08c379a000000000000000000000000000000000000000000000000000000000815260040161090491906132d6565b60405180910390fd5b50600073ffffffffffffffffffffffffffffffffffffffff168373ffffffffffffffffffffffffffffffffffffffff16141561097e576040517f08c379a000000000000000000000000000000000000000000000000000000000815260040161097590613458565b60405180910390fd5b8260cb60006101000a81548173ffffffffffffffffffffffffffffffffffffffff021916908373ffffffffffffffffffffffffffffffffffffffff160217905550505050565b60008111610a07576040517f08c379a00000000000000000000000000000000000000000000000000000000081526004016109fe906133b8565b60405180910390fd5b60ca60009054906101000a900473ffffffffffffffffffffffffffffffffffffffff1673ffffffffffffffffffffffffffffffffffffffff16636f9cf9853360016002811115610a80577f4e487b7100000000000000000000000000000000000000000000000000000000600052602160045260246000fd5b6040518363ffffffff1660e01b8152600401610a9d929190613233565b60206040518083038186803b158015610ab557600080fd5b505afa158015610ac9573d6000803e3d6000fd5b505050506040513d601f19601f82011682018060405250810190610aed9190612889565b15610c115760cd5460cc60003373ffffffffffffffffffffffffffffffffffffffff1673ffffffffffffffffffffffffffffffffffffffff1681526020019081526020016000205482610b4091906134f0565b1015610b81576040517f08c379a0000000000000000000000000000000000000000000000000000000008152600401610b7890613358565b60405180910390fd5b60ce5460cc60003373ffffffffffffffffffffffffffffffffffffffff1673ffffffffffffffffffffffffffffffffffffffff1681526020019081526020016000205482610bcf91906134f0565b1115610c10576040517f08c379a0000000000000000000000000000000000000000000000000000000008152600401610c07906133f8565b60405180910390fd5b5b60ca60009054906101000a900473ffffffffffffffffffffffffffffffffffffffff1673ffffffffffffffffffffffffffffffffffffffff16636f9cf9853360006002811115610c8a577f4e487b7100000000000000000000000000000000000000000000000000000000600052602160045260246000fd5b6040518363ffffffff1660e01b8152600401610ca7929190613233565b60206040518083038186803b158015610cbf57600080fd5b505afa158015610cd3573d6000803e3d6000fd5b505050506040513d601f19601f82011682018060405250810190610cf79190612889565b80610de4575060ca60009054906101000a900473ffffffffffffffffffffffffffffffffffffffff1673ffffffffffffffffffffffffffffffffffffffff16636f9cf9853360016002811115610d76577f4e487b7100000000000000000000000000000000000000000000000000000000600052602160045260246000fd5b6040518363ffffffff1660e01b8152600401610d93929190613233565b60206040518083038186803b158015610dab57600080fd5b505afa158015610dbf573d6000803e3d6000fd5b505050506040513d601f19601f82011682018060405250810190610de39190612889565b5b80610ed0575060ca60009054906101000a900473ffffffffffffffffffffffffffffffffffffffff1673ffffffffffffffffffffffffffffffffffffffff16636f9cf98533600280811115610e62577f4e487b7100000000000000000000000000000000000000000000000000000000600052602160045260246000fd5b6040518363ffffffff1660e01b8152600401610e7f929190613233565b60206040518083038186803b158015610e9757600080fd5b505afa158015610eab573d6000803e3d6000fd5b505050506040513d601f19601f82011682018060405250810190610ecf9190612889565b5b610f0f576040517f08c379a0000000000000000000000000000000000000000000000000000000008152600401610f0690613378565b60405180910390fd5b610f5e33308360c960009054906101000a900473ffffffffffffffffffffffffffffffffffffffff1673ffffffffffffffffffffffffffffffffffffffff16611b03909392919063ffffffff16565b610fb08160cc60003373ffffffffffffffffffffffffffffffffffffffff1673ffffffffffffffffffffffffffffffffffffffff16815260200190815260200160002054611b8c90919063ffffffff16565b60cc60003373ffffffffffffffffffffffffffffffffffffffff1673ffffffffffffffffffffffffffffffffffffffff168152602001908152602001600020819055506110088160cf54611b8c90919063ffffffff16565b60cf819055503373ffffffffffffffffffffffffffffffffffffffff167f3916187166447a01764df803fb1147a37c55a4ca1c7271a7a75c0ab1079b2d95826040516110549190613498565b60405180910390a250565b60cd5481565b6040518060400160405280600f81526020017f64656372656173654465706f69737400000000000000000000000000000000008152506000816040516020016110ae919061317a565b60405160208183030381529060405290506110e97f7b765e0e932d348852a6f810bfa1ab891e259123f02db8cdcde614c570223357336107af565b819061112b576040517f08c379a000000000000000000000000000000000000000000000000000000000815260040161112291906132d6565b60405180910390fd5b5061117e8360cc60008773ffffffffffffffffffffffffffffffffffffffff1673ffffffffffffffffffffffffffffffffffffffff16815260200190815260200160002054611ba290919063ffffffff16565b60cc60008673ffffffffffffffffffffffffffffffffffffffff1673ffffffffffffffffffffffffffffffffffffffff168152602001908152602001600020819055507fc712b41e0b9b7891d0d4ffebc1102bbe2f6ffa1ad4d8047cda3a6dd03ca6ed4284846040516111f292919061325c565b60405180910390a150505050565b600061121d60976000848152602001908152602001600020611bb8565b9050919050565b6040518060400160405280600f81526020017f696e6372656173654465706f736974000000000000000000000000000000000081525060008160405160200161126d919061317a565b60405160208183030381529060405290506112a87f7b765e0e932d348852a6f810bfa1ab891e259123f02db8cdcde614c570223357336107af565b81906112ea576040517f08c379a00000000000000000000000000000000000000000000000000000000081526004016112e191906132d6565b60405180910390fd5b5061133d8360cc60008773ffffffffffffffffffffffffffffffffffffffff1673ffffffffffffffffffffffffffffffffffffffff16815260200190815260200160002054611b8c90919063ffffffff16565b60cc60008673ffffffffffffffffffffffffffffffffffffffff1673ffffffffffffffffffffffffffffffffffffffff168152602001908152602001600020819055507f6c5e7e4e203673af133e4db76883b962ff3faf782281e7bea6f78f2c7874dba084846040516113b192919061325c565b60405180910390a150505050565b6113c98282611bcd565b6113ee8160976000858152602001908152602001600020611a8590919063ffffffff16565b505050565b60ca60009054906101000a900473ffffffffffffffffffffffffffffffffffffffff1673ffffffffffffffffffffffffffffffffffffffff16636f9cf985336000600281111561146c577f4e487b7100000000000000000000000000000000000000000000000000000000600052602160045260246000fd5b6040518363ffffffff1660e01b8152600401611489929190613233565b60206040518083038186803b1580156114a157600080fd5b505afa1580156114b5573d6000803e3d6000fd5b505050506040513d601f19601f820116820180604052508101906114d99190612889565b156117a357600060cb60009054906101000a900473ffffffffffffffffffffffffffffffffffffffff1673ffffffffffffffffffffffffffffffffffffffff1663f9e0853a336040518263ffffffff1660e01b815260040161153b91906131e1565b60206040518083038186803b15801561155357600080fd5b505afa158015611567573d6000803e3d6000fd5b505050506040513d601f19601f8201168201806040525081019061158b91906129a5565b905060008111156117a1578161175f611711612710611703856116f560ca60009054906101000a900473ffffffffffffffffffffffffffffffffffffffff1673ffffffffffffffffffffffffffffffffffffffff16634d9c798c6040518163ffffffff1660e01b815260040160206040518083038186803b15801561160f57600080fd5b505afa158015611623573d6000803e3d6000fd5b505050506040513d601f19601f8201168201806040525081019061164791906129a5565b60ca60009054906101000a900473ffffffffffffffffffffffffffffffffffffffff1673ffffffffffffffffffffffffffffffffffffffff1663a7579be86040518163ffffffff1660e01b815260040160206040518083038186803b1580156116af57600080fd5b505afa1580156116c3573d6000803e3d6000fd5b505050506040513d601f19601f820116820180604052508101906116e791906129a5565b611bf690919063ffffffff16565b611bf690919063ffffffff16565b611c0c90919063ffffffff16565b60cc60003373ffffffffffffffffffffffffffffffffffffffff1673ffffffffffffffffffffffffffffffffffffffff16815260200190815260200160002054611ba290919063ffffffff16565b10156117a0576040517f08c379a0000000000000000000000000000000000000000000000000000000008152600401611797906133d8565b60405180910390fd5b5b505b6117f58160cc60003373ffffffffffffffffffffffffffffffffffffffff1673ffffffffffffffffffffffffffffffffffffffff16815260200190815260200160002054611ba290919063ffffffff16565b60cc60003373ffffffffffffffffffffffffffffffffffffffff1673ffffffffffffffffffffffffffffffffffffffff1681526020019081526020016000208190555061184d8160cf54611ba290919063ffffffff16565b60cf819055506118a0338260c960009054906101000a900473ffffffffffffffffffffffffffffffffffffffff1673ffffffffffffffffffffffffffffffffffffffff16611c229092919063ffffffff16565b3373ffffffffffffffffffffffffffffffffffffffff167f20753e209c8b7c10296bc27da0f765febee7e5b7ef4056d315655b1687468b7d826040516118e69190613498565b60405180910390a250565b60cb60009054906101000a900473ffffffffffffffffffffffffffffffffffffffff1681565b60cc6020528060005260406000206000915090505481565b60007f7965db0b000000000000000000000000000000000000000000000000000000007bffffffffffffffffffffffffffffffffffffffffffffffffffffffff1916827bffffffffffffffffffffffffffffffffffffffffffffffffffffffff191614806119a257506119a182611ca8565b5b9050919050565b6119b28261050e565b6119c3816119be611d12565b611d1a565b6119cd8383611db7565b505050565b60006119fa836000018373ffffffffffffffffffffffffffffffffffffffff1660001b611e98565b905092915050565b611a0a611d12565b73ffffffffffffffffffffffffffffffffffffffff168173ffffffffffffffffffffffffffffffffffffffff1614611a77576040517f08c379a0000000000000000000000000000000000000000000000000000000008152600401611a6e90613478565b60405180910390fd5b611a818282611f08565b5050565b6000611aad836000018373ffffffffffffffffffffffffffffffffffffffff1660001b611fea565b905092915050565b611abf8282612170565b611ae481609760008581526020019081526020016000206119d290919063ffffffff16565b505050565b6000611af8836000018361217e565b60001c905092915050565b611b86846323b872dd60e01b858585604051602401611b24939291906131fc565b604051602081830303815290604052907bffffffffffffffffffffffffffffffffffffffffffffffffffffffff19166020820180517bffffffffffffffffffffffffffffffffffffffffffffffffffffffff83818316178352505050506121cf565b50505050565b60008183611b9a91906134f0565b905092915050565b60008183611bb091906135d1565b905092915050565b6000611bc682600001612296565b9050919050565b611bd68261050e565b611be781611be2611d12565b611d1a565b611bf18383611f08565b505050565b60008183611c049190613577565b905092915050565b60008183611c1a9190613546565b905092915050565b611ca38363a9059cbb60e01b8484604051602401611c4192919061325c565b604051602081830303815290604052907bffffffffffffffffffffffffffffffffffffffffffffffffffffffff19166020820180517bffffffffffffffffffffffffffffffffffffffffffffffffffffffff83818316178352505050506121cf565b505050565b60007f01ffc9a7000000000000000000000000000000000000000000000000000000007bffffffffffffffffffffffffffffffffffffffffffffffffffffffff1916827bffffffffffffffffffffffffffffffffffffffffffffffffffffffff1916149050919050565b600033905090565b611d2482826107af565b611db357611d498173ffffffffffffffffffffffffffffffffffffffff1660146122a7565b611d578360001c60206122a7565b604051602001611d689291906131a7565b6040516020818303038152906040526040517f08c379a0000000000000000000000000000000000000000000000000000000008152600401611daa91906132d6565b60405180910390fd5b5050565b611dc182826107af565b611e945760016065600084815260200190815260200160002060000160008373ffffffffffffffffffffffffffffffffffffffff1673ffffffffffffffffffffffffffffffffffffffff16815260200190815260200160002060006101000a81548160ff021916908315150217905550611e39611d12565b73ffffffffffffffffffffffffffffffffffffffff168173ffffffffffffffffffffffffffffffffffffffff16837f2f8788117e7eff1d82e926ec794901d17c78024a50270940304540a733656f0d60405160405180910390a45b5050565b6000611ea483836125a1565b611efd578260000182908060018154018082558091505060019003906000526020600020016000909190919091505582600001805490508360010160008481526020019081526020016000208190555060019050611f02565b600090505b92915050565b611f1282826107af565b15611fe65760006065600084815260200190815260200160002060000160008373ffffffffffffffffffffffffffffffffffffffff1673ffffffffffffffffffffffffffffffffffffffff16815260200190815260200160002060006101000a81548160ff021916908315150217905550611f8b611d12565b73ffffffffffffffffffffffffffffffffffffffff168173ffffffffffffffffffffffffffffffffffffffff16837ff6391f5c32d9c69d2a47ea670b442974b53935d1edc7fd64eb21e047a839171b60405160405180910390a45b5050565b6000808360010160008481526020019081526020016000205490506000811461216457600060018261201c91906135d1565b905060006001866000018054905061203491906135d1565b90508181146120ef57600086600001828154811061207b577f4e487b7100000000000000000000000000000000000000000000000000000000600052603260045260246000fd5b90600052602060002001549050808760000184815481106120c5577f4e487b7100000000000000000000000000000000000000000000000000000000600052603260045260246000fd5b90600052602060002001819055508387600101600083815260200190815260200160002081905550505b85600001805480612129577f4e487b7100000000000000000000000000000000000000000000000000000000600052603160045260246000fd5b60019003818190600052602060002001600090559055856001016000868152602001908152602001600020600090556001935050505061216a565b60009150505b92915050565b61217a8282611db7565b5050565b60008260000182815481106121bc577f4e487b7100000000000000000000000000000000000000000000000000000000600052603260045260246000fd5b9060005260206000200154905092915050565b6000612231826040518060400160405280602081526020017f5361666545524332303a206c6f772d6c6576656c2063616c6c206661696c65648152508573ffffffffffffffffffffffffffffffffffffffff166125c49092919063ffffffff16565b905060008151111561229157808060200190518101906122519190612889565b612290576040517f08c379a000000000000000000000000000000000000000000000000000000000815260040161228790613438565b60405180910390fd5b5b505050565b600081600001805490509050919050565b6060600060028360026122ba9190613577565b6122c491906134f0565b67ffffffffffffffff811115612303577f4e487b7100000000000000000000000000000000000000000000000000000000600052604160045260246000fd5b6040519080825280601f01601f1916602001820160405280156123355781602001600182028036833780820191505090505b5090507f300000000000000000000000000000000000000000000000000000000000000081600081518110612393577f4e487b7100000000000000000000000000000000000000000000000000000000600052603260045260246000fd5b60200101907effffffffffffffffffffffffffffffffffffffffffffffffffffffffffffff1916908160001a9053507f78000000000000000000000000000000000000000000000000000000000000008160018151811061241d577f4e487b7100000000000000000000000000000000000000000000000000000000600052603260045260246000fd5b60200101907effffffffffffffffffffffffffffffffffffffffffffffffffffffffffffff1916908160001a9053506000600184600261245d9190613577565b61246791906134f0565b90505b6001811115612553577f3031323334353637383961626364656600000000000000000000000000000000600f8616601081106124cf577f4e487b7100000000000000000000000000000000000000000000000000000000600052603260045260246000fd5b1a60f81b82828151811061250c577f4e487b7100000000000000000000000000000000000000000000000000000000600052603260045260246000fd5b60200101907effffffffffffffffffffffffffffffffffffffffffffffffffffffffffffff1916908160001a905350600485901c94508061254c906136ff565b905061246a565b5060008414612597576040517f08c379a000000000000000000000000000000000000000000000000000000000815260040161258e906132f8565b60405180910390fd5b8091505092915050565b600080836001016000848152602001908152602001600020541415905092915050565b60606125d384846000856125dc565b90509392505050565b606082471015612621576040517f08c379a000000000000000000000000000000000000000000000000000000000815260040161261890613398565b60405180910390fd5b61262a856126f0565b612669576040517f08c379a000000000000000000000000000000000000000000000000000000000815260040161266090613418565b60405180910390fd5b6000808673ffffffffffffffffffffffffffffffffffffffff1685876040516126929190613163565b60006040518083038185875af1925050503d80600081146126cf576040519150601f19603f3d011682016040523d82523d6000602084013e6126d4565b606091505b50915091506126e4828286612703565b92505050949350505050565b600080823b905060008111915050919050565b6060831561271357829050612763565b6000835111156127265782518084602001fd5b816040517f08c379a000000000000000000000000000000000000000000000000000000000815260040161275a91906132d6565b60405180910390fd5b9392505050565b600081359050612779816137db565b92915050565b60008151905061278e816137f2565b92915050565b6000813590506127a381613809565b92915050565b6000813590506127b881613820565b92915050565b6000813590506127cd81613837565b92915050565b6000815190506127e281613837565b92915050565b6000602082840312156127fa57600080fd5b60006128088482850161276a565b91505092915050565b6000806040838503121561282457600080fd5b60006128328582860161276a565b92505060206128438582860161276a565b9150509250929050565b6000806040838503121561286057600080fd5b600061286e8582860161276a565b925050602061287f858286016127be565b9150509250929050565b60006020828403121561289b57600080fd5b60006128a98482850161277f565b91505092915050565b6000602082840312156128c457600080fd5b60006128d284828501612794565b91505092915050565b600080604083850312156128ee57600080fd5b60006128fc85828601612794565b925050602061290d8582860161276a565b9150509250929050565b6000806040838503121561292a57600080fd5b600061293885828601612794565b9250506020612949858286016127be565b9150509250929050565b60006020828403121561296557600080fd5b6000612973848285016127a9565b91505092915050565b60006020828403121561298e57600080fd5b600061299c848285016127be565b91505092915050565b6000602082840312156129b757600080fd5b60006129c5848285016127d3565b91505092915050565b6129d781613605565b82525050565b6129e681613617565b82525050565b6129f581613623565b82525050565b6000612a06826134b3565b612a1081856134c9565b9350612a208185602086016136cc565b80840191505092915050565b612a3581613696565b82525050565b612a44816136ba565b82525050565b6000612a55826134be565b612a5f81856134d4565b9350612a6f8185602086016136cc565b612a78816137b6565b840191505092915050565b6000612a8e826134be565b612a9881856134e5565b9350612aa88185602086016136cc565b80840191505092915050565b6000612ac16020836134d4565b91507f537472696e67733a20686578206c656e67746820696e73756666696369656e746000830152602082019050919050565b6000612b016035836134d4565b91507f4d656d62657248656c706572733a636f6e7374727563746f72202d204d656d6260008301527f657220616464726573732063616e2774206265203000000000000000000000006020830152604082019050919050565b6000612b676033836134d4565b91507f4d656d62657248656c706572733a736574436f686f7274202d20436f686f727460008301527f20616464726573732063616e27742062652030000000000000000000000000006020830152604082019050919050565b6000612bcd6045836134d4565b91507f4d656d62657248656c706572733a7374616b65202d204d696e696d756d20636f60008301527f6e747269627574696f6e20616d6f756e7420697320353030302041554454207460208301527f6f6b656e730000000000000000000000000000000000000000000000000000006040830152606082019050919050565b6000612c59604a836134d4565b91507f5374616b696e673a7374616b65202d205573657220686173206265656e206e6f60008301527f74207265676973746572656420617320612076616c696461746f72206f72206560208301527f6e74657270726973652e000000000000000000000000000000000000000000006040830152606082019050919050565b6000612ce56026836134d4565b91507f416464726573733a20696e73756666696369656e742062616c616e636520666f60008301527f722063616c6c00000000000000000000000000000000000000000000000000006020830152604082019050919050565b6000612d4b6027836134d4565b91507f4d656d62657248656c706572733a7374616b65202d20416d6f756e742063616e60008301527f27742062652030000000000000000000000000000000000000000000000000006020830152604082019050919050565b6000612db16059836134d4565b91507f4d656d62657248656c706572733a72656465656d202d20596f7572206465706f60008301527f7369742077696c6c20626520746f6f206c6f7720746f2066756c6c66696c207960208301527f6f7572206f75747374616e64696e67207061796d656e74732e000000000000006040830152606082019050919050565b6000612e3d6046836134d4565b91507f4d656d62657248656c706572733a7374616b65202d204d6178696d756d20636f60008301527f6e747269627574696f6e20616d6f756e7420697320323530303020415544542060208301527f746f6b656e7300000000000000000000000000000000000000000000000000006040830152606082019050919050565b6000612ec96027836134e5565b91507f4d656d62657248656c70657273286973436f6e74726f6c6c6572202d204d6f6460008301527f6966696572293a000000000000000000000000000000000000000000000000006020830152602782019050919050565b6000612f2f601d836134d4565b91507f416464726573733a2063616c6c20746f206e6f6e2d636f6e74726163740000006000830152602082019050919050565b6000612f6f6017836134e5565b91507f416363657373436f6e74726f6c3a206163636f756e74200000000000000000006000830152601782019050919050565b6000612faf602a836134d4565b91507f5361666545524332303a204552433230206f7065726174696f6e20646964206e60008301527f6f742073756363656564000000000000000000000000000000000000000000006020830152604082019050919050565b6000613015603b836134d4565b91507f4d656d62657248656c706572733a73657456616c69646174696f6e202d20566160008301527f6c69646174696f6e20616464726573732063616e2774206265203000000000006020830152604082019050919050565b600061307b6011836134e5565b91507f206973206d697373696e6720726f6c65200000000000000000000000000000006000830152601182019050919050565b60006130bb601c836134e5565b91507f2d2043616c6c6572206973206e6f74206120636f6e74726f6c6c6572000000006000830152601c82019050919050565b60006130fb602f836134d4565b91507f416363657373436f6e74726f6c3a2063616e206f6e6c792072656e6f756e636560008301527f20726f6c657320666f722073656c6600000000000000000000000000000000006020830152604082019050919050565b61315d8161368c565b82525050565b600061316f82846129fb565b915081905092915050565b600061318582612ebc565b91506131918284612a83565b915061319c826130ae565b915081905092915050565b60006131b282612f62565b91506131be8285612a83565b91506131c98261306e565b91506131d58284612a83565b91508190509392505050565b60006020820190506131f660008301846129ce565b92915050565b600060608201905061321160008301866129ce565b61321e60208301856129ce565b61322b6040830184613154565b949350505050565b600060408201905061324860008301856129ce565b6132556020830184612a3b565b9392505050565b600060408201905061327160008301856129ce565b61327e6020830184613154565b9392505050565b600060208201905061329a60008301846129dd565b92915050565b60006020820190506132b560008301846129ec565b92915050565b60006020820190506132d06000830184612a2c565b92915050565b600060208201905081810360008301526132f08184612a4a565b905092915050565b6000602082019050818103600083015261331181612ab4565b9050919050565b6000602082019050818103600083015261333181612af4565b9050919050565b6000602082019050818103600083015261335181612b5a565b9050919050565b6000602082019050818103600083015261337181612bc0565b9050919050565b6000602082019050818103600083015261339181612c4c565b9050919050565b600060208201905081810360008301526133b181612cd8565b9050919050565b600060208201905081810360008301526133d181612d3e565b9050919050565b600060208201905081810360008301526133f181612da4565b9050919050565b6000602082019050818103600083015261341181612e30565b9050919050565b6000602082019050818103600083015261343181612f22565b9050919050565b6000602082019050818103600083015261345181612fa2565b9050919050565b6000602082019050818103600083015261347181613008565b9050919050565b60006020820190508181036000830152613491816130ee565b9050919050565b60006020820190506134ad6000830184613154565b92915050565b600081519050919050565b600081519050919050565b600081905092915050565b600082825260208201905092915050565b600081905092915050565b60006134fb8261368c565b91506135068361368c565b9250827fffffffffffffffffffffffffffffffffffffffffffffffffffffffffffffffff0382111561353b5761353a613729565b5b828201905092915050565b60006135518261368c565b915061355c8361368c565b92508261356c5761356b613758565b5b828204905092915050565b60006135828261368c565b915061358d8361368c565b9250817fffffffffffffffffffffffffffffffffffffffffffffffffffffffffffffffff04831182151516156135c6576135c5613729565b5b828202905092915050565b60006135dc8261368c565b91506135e78361368c565b9250828210156135fa576135f9613729565b5b828203905092915050565b60006136108261366c565b9050919050565b60008115159050919050565b6000819050919050565b60007fffffffff0000000000000000000000000000000000000000000000000000000082169050919050565b6000819050613667826137c7565b919050565b600073ffffffffffffffffffffffffffffffffffffffff82169050919050565b6000819050919050565b60006136a1826136a8565b9050919050565b60006136b38261366c565b9050919050565b60006136c582613659565b9050919050565b60005b838110156136ea5780820151818401526020810190506136cf565b838111156136f9576000848401525b50505050565b600061370a8261368c565b9150600082141561371e5761371d613729565b5b600182039050919050565b7f4e487b7100000000000000000000000000000000000000000000000000000000600052601160045260246000fd5b7f4e487b7100000000000000000000000000000000000000000000000000000000600052601260045260246000fd5b7f4e487b7100000000000000000000000000000000000000000000000000000000600052602160045260246000fd5b6000601f19601f8301169050919050565b600381106137d8576137d7613787565b5b50565b6137e481613605565b81146137ef57600080fd5b50565b6137fb81613617565b811461380657600080fd5b50565b61381281613623565b811461381d57600080fd5b50565b6138298161362d565b811461383457600080fd5b50565b6138408161368c565b811461384b57600080fd5b5056fea26469706673582212200c5708979b782b23bfb7ad1f3e1740625d3c6988e47b255c065cadeea2fcf6c864736f6c63430008000033",
  "immutableReferences": {},
  "source": "// SPDX-License-Identifier: MIT\npragma solidity =0.8.0;\nimport \"./Members.sol\";\nimport \"@openzeppelin/contracts-upgradeable/access/AccessControlEnumerableUpgradeable.sol\";\nimport \"@openzeppelin/contracts-upgradeable/token/ERC20/utils/SafeERC20Upgradeable.sol\";\nimport \"@openzeppelin/contracts-upgradeable/utils/math/SafeMathUpgradeable.sol\";\nimport \"./../IAuditToken.sol\";\nimport \"./IValidations.sol\";\n\n/**\n * @title MemberHelpers\n * Additional function for Members\n */\ncontract MemberHelpers is AccessControlEnumerableUpgradeable {\n    using SafeMathUpgradeable for uint256;\n    using SafeERC20Upgradeable for IERC20Upgradeable;\n\n        bytes32 public constant CONTROLLER_ROLE = keccak256(\"CONTROLLER_ROLE\");\n\n    address public auditToken; //AUDT token\n    Members members; // Members contract\n    IValidations public validations; // Validation interface\n    mapping(address => uint256) public deposits; //track deposits per user\n    uint256 public minContribution;\n    uint256 public maxContribution;\n    uint256 public totalStaked;\n    \n\n    event LogDepositReceived(address indexed from, uint256 amount);\n    event LogDepositRedeemed(address indexed from, uint256 amount);\n    event LogIncreaseDeposit(address user, uint256 amount);\n    event LogDecreaseDeposit(address user, uint256 amount);\n\n    function initialize(address _members, address _auditToken) public {\n        require(_members != address(0),\"MemberHelpers:constructor - Member address can't be 0\");\n        require(_auditToken != address(0), \"MemberHelpers:setCohort - Cohort address can't be 0\");\n        minContribution = 5e21;\n        maxContribution = 25e21;\n        members = Members(_members);\n        auditToken = _auditToken;\n        _setupRole(DEFAULT_ADMIN_ROLE, msg.sender);\n    }\n\n   /// @dev check if caller is a controller\n    modifier isController(string memory source) {\n        string memory msgError = string(abi.encodePacked(\"MemberHelpers(isController - Modifier):\", source, \"- Caller is not a controller\"));\n        require(hasRole(CONTROLLER_ROLE, msg.sender),msgError);\n\n        _;\n    }\n\n\n     /// @dev check if user is validator\n    modifier isValidator(string memory source) {\n\n        string memory msgError = string(abi.encodePacked(\"NodeOperations(Modifier):\", source, \"- You are not a validator\"));\n        require( members.userMap(msg.sender, Members.UserType(1)), msgError);\n\n        _;\n    }\n\n    function returnDepositAmount(address user) public view returns (uint256) {\n        return deposits[user];\n    }\n\n   \n\n    function increaseDeposit(address user, uint256 amount) public isController(\"increaseDeposit\") {\n        deposits[user] = deposits[user].add(amount);\n        emit LogIncreaseDeposit(user, amount);\n    }\n\n    function decreaseDeposit(address user, uint256 amount) public isController(\"decreaseDepoist\") {\n        deposits[user] = deposits[user].sub(amount);\n        emit LogDecreaseDeposit(user, amount);\n    }\n\n    /**\n     * @dev Function to accept contribution to staking\n     * @param amount number of AUDT tokens sent to contract for staking\n     */\n    function stake(uint256 amount) public {\n        require(amount > 0, \"MemberHelpers:stake - Amount can't be 0\");\n\n        if (members.userMap(msg.sender, Members.UserType(1))) {\n            require(\n                amount + deposits[msg.sender] >= minContribution,\n                \"MemberHelpers:stake - Minimum contribution amount is 5000 AUDT tokens\"\n            );\n            require(\n                amount + deposits[msg.sender] <= maxContribution,\n                \"MemberHelpers:stake - Maximum contribution amount is 25000 AUDT tokens\"\n            );\n        }\n        require(\n            members.userMap(msg.sender, Members.UserType(0)) ||\n                members.userMap(msg.sender, Members.UserType(1)) ||\n                members.userMap(msg.sender, Members.UserType(2)),\n            \"Staking:stake - User has been not registered as a validator or enterprise.\"\n        );\n        IERC20Upgradeable(auditToken).safeTransferFrom(msg.sender, address(this), amount);\n        deposits[msg.sender] = deposits[msg.sender].add(amount);\n        totalStaked = totalStaked.add(amount);\n        emit LogDepositReceived(msg.sender, amount);\n    }\n\n    /**\n     * @dev Function to redeem contribution.\n     * @param amount number of tokens being redeemed\n     */\n    function redeem(uint256 amount) public {\n        if (members.userMap(msg.sender, Members.UserType(0))) {\n            uint256 outstandingVal = validations.outstandingValidations(msg.sender);\n\n            if (outstandingVal > 0)\n                // div(1e4) to adjust for four decimal points\n                require(\n                    deposits[msg.sender].sub(\n                        members\n                            .enterpriseMatch()\n                            .mul(members.amountTokensPerValidation())\n                            .mul(outstandingVal)\n                            .div(1e4)\n                    ) >= amount,\n                    \"MemberHelpers:redeem - Your deposit will be too low to fullfil your outstanding payments.\"\n                );\n        }\n\n        deposits[msg.sender] = deposits[msg.sender].sub(amount);\n        totalStaked = totalStaked.sub(amount);\n        IERC20Upgradeable(auditToken).safeTransfer(msg.sender, amount);\n        emit LogDepositRedeemed(msg.sender, amount);\n    }\n\n    /**\n     * @dev to be called by administrator to set Validation address\n     * @param _validations validation contract address\n     */\n    function setValidation(address _validations) public isController(\"setValidation\") {\n        require( _validations != address(0), \"MemberHelpers:setValidation - Validation address can't be 0\");\n        validations = IValidations(_validations);\n    }\n\n}\n",
  "sourcePath": "/home/win2win/eth/projects/AuditChain/Core-Smart-Contracts-v1-upgradable/contracts/Auditchain/MemberHelpers.sol",
  "compiler": {
    "name": "solc",
    "version": "0.8.0+commit.c7dfd78e.Emscripten.clang"
  },
  "schemaVersion": "3.4.1",
  "updatedAt": "2022-05-03T20:34:42.812Z",
  "networkType": "ethereum",
  "devdoc": {
    "kind": "dev",
    "methods": {
      "getRoleAdmin(bytes32)": {
        "details": "Returns the admin role that controls `role`. See {grantRole} and {revokeRole}. To change a role's admin, use {_setRoleAdmin}."
      },
      "getRoleMember(bytes32,uint256)": {
        "details": "Returns one of the accounts that have `role`. `index` must be a value between 0 and {getRoleMemberCount}, non-inclusive. Role bearers are not sorted in any particular way, and their ordering may change at any point. WARNING: When using {getRoleMember} and {getRoleMemberCount}, make sure you perform all queries on the same block. See the following https://forum.openzeppelin.com/t/iterating-over-elements-on-enumerableset-in-openzeppelin-contracts/2296[forum post] for more information."
      },
      "getRoleMemberCount(bytes32)": {
        "details": "Returns the number of accounts that have `role`. Can be used together with {getRoleMember} to enumerate all bearers of a role."
      },
      "grantRole(bytes32,address)": {
        "details": "Overload {grantRole} to track enumerable memberships"
      },
      "hasRole(bytes32,address)": {
        "details": "Returns `true` if `account` has been granted `role`."
      },
      "redeem(uint256)": {
        "details": "Function to redeem contribution.",
        "params": {
          "amount": "number of tokens being redeemed"
        }
      },
      "renounceRole(bytes32,address)": {
        "details": "Overload {renounceRole} to track enumerable memberships"
      },
      "revokeRole(bytes32,address)": {
        "details": "Overload {revokeRole} to track enumerable memberships"
      },
      "setValidation(address)": {
        "details": "to be called by administrator to set Validation address",
        "params": {
          "_validations": "validation contract address"
        }
      },
      "stake(uint256)": {
        "details": "Function to accept contribution to staking",
        "params": {
          "amount": "number of AUDT tokens sent to contract for staking"
        }
      },
      "supportsInterface(bytes4)": {
        "details": "See {IERC165-supportsInterface}."
      }
    },
    "title": "MemberHelpers Additional function for Members",
    "version": 1
  },
  "userdoc": {
    "kind": "user",
    "methods": {},
    "version": 1
  }
}