{
  "contractName": "Members",
  "abi": [
    {
      "anonymous": false,
      "inputs": [
        {
          "indexed": false,
          "internalType": "uint256",
          "name": "params",
          "type": "uint256"
        },
        {
          "indexed": true,
          "internalType": "string",
          "name": "action",
          "type": "string"
        }
      ],
      "name": "LogGovernanceUpdate",
      "type": "event"
    },
    {
      "anonymous": false,
      "inputs": [
        {
          "indexed": true,
          "internalType": "bytes32",
          "name": "role",
          "type": "bytes32"
        },
        {
          "indexed": true,
          "internalType": "bytes32",
          "name": "previousAdminRole",
          "type": "bytes32"
        },
        {
          "indexed": true,
          "internalType": "bytes32",
          "name": "newAdminRole",
          "type": "bytes32"
        }
      ],
      "name": "RoleAdminChanged",
      "type": "event"
    },
    {
      "anonymous": false,
      "inputs": [
        {
          "indexed": true,
          "internalType": "bytes32",
          "name": "role",
          "type": "bytes32"
        },
        {
          "indexed": true,
          "internalType": "address",
          "name": "account",
          "type": "address"
        },
        {
          "indexed": true,
          "internalType": "address",
          "name": "sender",
          "type": "address"
        }
      ],
      "name": "RoleGranted",
      "type": "event"
    },
    {
      "anonymous": false,
      "inputs": [
        {
          "indexed": true,
          "internalType": "bytes32",
          "name": "role",
          "type": "bytes32"
        },
        {
          "indexed": true,
          "internalType": "address",
          "name": "account",
          "type": "address"
        },
        {
          "indexed": true,
          "internalType": "address",
          "name": "sender",
          "type": "address"
        }
      ],
      "name": "RoleRevoked",
      "type": "event"
    },
    {
      "anonymous": false,
      "inputs": [
        {
          "indexed": true,
          "internalType": "address",
          "name": "user",
          "type": "address"
        },
        {
          "indexed": false,
          "internalType": "string",
          "name": "name",
          "type": "string"
        },
        {
          "indexed": true,
          "internalType": "enum Members.UserType",
          "name": "userType",
          "type": "uint8"
        }
      ],
      "name": "UserAdded",
      "type": "event"
    },
    {
      "inputs": [],
      "name": "CONTROLLER_ROLE",
      "outputs": [
        {
          "internalType": "bytes32",
          "name": "",
          "type": "bytes32"
        }
      ],
      "stateMutability": "view",
      "type": "function"
    },
    {
      "inputs": [],
      "name": "DEFAULT_ADMIN_ROLE",
      "outputs": [
        {
          "internalType": "bytes32",
          "name": "",
          "type": "bytes32"
        }
      ],
      "stateMutability": "view",
      "type": "function"
    },
    {
      "inputs": [],
      "name": "SETTER_ROLE",
      "outputs": [
        {
          "internalType": "bytes32",
          "name": "",
          "type": "bytes32"
        }
      ],
      "stateMutability": "view",
      "type": "function"
    },
    {
      "inputs": [],
      "name": "accessFee",
      "outputs": [
        {
          "internalType": "uint256",
          "name": "",
          "type": "uint256"
        }
      ],
      "stateMutability": "view",
      "type": "function"
    },
    {
      "inputs": [],
      "name": "amountTokensPerValidation",
      "outputs": [
        {
          "internalType": "uint256",
          "name": "",
          "type": "uint256"
        }
      ],
      "stateMutability": "view",
      "type": "function"
    },
    {
      "inputs": [],
      "name": "auditToken",
      "outputs": [
        {
          "internalType": "contract IAuditToken",
          "name": "",
          "type": "address"
        }
      ],
      "stateMutability": "view",
      "type": "function"
    },
    {
      "inputs": [
        {
          "internalType": "address",
          "name": "",
          "type": "address"
        },
        {
          "internalType": "address",
          "name": "",
          "type": "address"
        }
      ],
      "name": "dataSubscriberCohortMap",
      "outputs": [
        {
          "internalType": "bool",
          "name": "",
          "type": "bool"
        }
      ],
      "stateMutability": "view",
      "type": "function"
    },
    {
      "inputs": [
        {
          "internalType": "uint256",
          "name": "",
          "type": "uint256"
        }
      ],
      "name": "dataSubscribers",
      "outputs": [
        {
          "internalType": "address",
          "name": "",
          "type": "address"
        }
      ],
      "stateMutability": "view",
      "type": "function"
    },
    {
      "inputs": [
        {
          "internalType": "address",
          "name": "",
          "type": "address"
        }
      ],
      "name": "deposits",
      "outputs": [
        {
          "internalType": "uint256",
          "name": "",
          "type": "uint256"
        }
      ],
      "stateMutability": "view",
      "type": "function"
    },
    {
      "inputs": [],
      "name": "enterpriseMatch",
      "outputs": [
        {
          "internalType": "uint256",
          "name": "",
          "type": "uint256"
        }
      ],
      "stateMutability": "view",
      "type": "function"
    },
    {
      "inputs": [],
      "name": "enterpriseShareSubscriber",
      "outputs": [
        {
          "internalType": "uint256",
          "name": "",
          "type": "uint256"
        }
      ],
      "stateMutability": "view",
      "type": "function"
    },
    {
      "inputs": [
        {
          "internalType": "uint256",
          "name": "",
          "type": "uint256"
        }
      ],
      "name": "enterprises",
      "outputs": [
        {
          "internalType": "address",
          "name": "",
          "type": "address"
        }
      ],
      "stateMutability": "view",
      "type": "function"
    },
    {
      "inputs": [
        {
          "internalType": "bytes32",
          "name": "role",
          "type": "bytes32"
        }
      ],
      "name": "getRoleAdmin",
      "outputs": [
        {
          "internalType": "bytes32",
          "name": "",
          "type": "bytes32"
        }
      ],
      "stateMutability": "view",
      "type": "function"
    },
    {
      "inputs": [
        {
          "internalType": "bytes32",
          "name": "role",
          "type": "bytes32"
        },
        {
          "internalType": "uint256",
          "name": "index",
          "type": "uint256"
        }
      ],
      "name": "getRoleMember",
      "outputs": [
        {
          "internalType": "address",
          "name": "",
          "type": "address"
        }
      ],
      "stateMutability": "view",
      "type": "function"
    },
    {
      "inputs": [
        {
          "internalType": "bytes32",
          "name": "role",
          "type": "bytes32"
        }
      ],
      "name": "getRoleMemberCount",
      "outputs": [
        {
          "internalType": "uint256",
          "name": "",
          "type": "uint256"
        }
      ],
      "stateMutability": "view",
      "type": "function"
    },
    {
      "inputs": [
        {
          "internalType": "bytes32",
          "name": "role",
          "type": "bytes32"
        },
        {
          "internalType": "address",
          "name": "account",
          "type": "address"
        }
      ],
      "name": "grantRole",
      "outputs": [],
      "stateMutability": "nonpayable",
      "type": "function"
    },
    {
      "inputs": [
        {
          "internalType": "bytes32",
          "name": "role",
          "type": "bytes32"
        },
        {
          "internalType": "address",
          "name": "account",
          "type": "address"
        }
      ],
      "name": "hasRole",
      "outputs": [
        {
          "internalType": "bool",
          "name": "",
          "type": "bool"
        }
      ],
      "stateMutability": "view",
      "type": "function"
    },
    {
      "inputs": [],
      "name": "minDepositDays",
      "outputs": [
        {
          "internalType": "uint256",
          "name": "",
          "type": "uint256"
        }
      ],
      "stateMutability": "view",
      "type": "function"
    },
    {
      "inputs": [],
      "name": "platformAddress",
      "outputs": [
        {
          "internalType": "address",
          "name": "",
          "type": "address"
        }
      ],
      "stateMutability": "view",
      "type": "function"
    },
    {
      "inputs": [],
      "name": "platformShareValidation",
      "outputs": [
        {
          "internalType": "uint256",
          "name": "",
          "type": "uint256"
        }
      ],
      "stateMutability": "view",
      "type": "function"
    },
    {
      "inputs": [
        {
          "internalType": "bytes32",
          "name": "role",
          "type": "bytes32"
        },
        {
          "internalType": "address",
          "name": "account",
          "type": "address"
        }
      ],
      "name": "renounceRole",
      "outputs": [],
      "stateMutability": "nonpayable",
      "type": "function"
    },
    {
      "inputs": [],
      "name": "requiredQuorum",
      "outputs": [
        {
          "internalType": "uint256",
          "name": "",
          "type": "uint256"
        }
      ],
      "stateMutability": "view",
      "type": "function"
    },
    {
      "inputs": [
        {
          "internalType": "bytes32",
          "name": "role",
          "type": "bytes32"
        },
        {
          "internalType": "address",
          "name": "account",
          "type": "address"
        }
      ],
      "name": "revokeRole",
      "outputs": [],
      "stateMutability": "nonpayable",
      "type": "function"
    },
    {
      "inputs": [
        {
          "internalType": "bytes4",
          "name": "interfaceId",
          "type": "bytes4"
        }
      ],
      "name": "supportsInterface",
      "outputs": [
        {
          "internalType": "bool",
          "name": "",
          "type": "bool"
        }
      ],
      "stateMutability": "view",
      "type": "function"
    },
    {
      "inputs": [
        {
          "internalType": "address",
          "name": "",
          "type": "address"
        },
        {
          "internalType": "enum Members.UserType",
          "name": "",
          "type": "uint8"
        }
      ],
      "name": "user",
      "outputs": [
        {
          "internalType": "string",
          "name": "",
          "type": "string"
        }
      ],
      "stateMutability": "view",
      "type": "function"
    },
    {
      "inputs": [
        {
          "internalType": "address",
          "name": "",
          "type": "address"
        },
        {
          "internalType": "enum Members.UserType",
          "name": "",
          "type": "uint8"
        }
      ],
      "name": "userMap",
      "outputs": [
        {
          "internalType": "bool",
          "name": "",
          "type": "bool"
        }
      ],
      "stateMutability": "view",
      "type": "function"
    },
    {
      "inputs": [],
      "name": "validatorShareSubscriber",
      "outputs": [
        {
          "internalType": "uint256",
          "name": "",
          "type": "uint256"
        }
      ],
      "stateMutability": "view",
      "type": "function"
    },
    {
      "inputs": [
        {
          "internalType": "uint256",
          "name": "",
          "type": "uint256"
        }
      ],
      "name": "validators",
      "outputs": [
        {
          "internalType": "address",
          "name": "",
          "type": "address"
        }
      ],
      "stateMutability": "view",
      "type": "function"
    },
    {
      "inputs": [
        {
          "internalType": "address",
          "name": "_auditToken",
          "type": "address"
        },
        {
          "internalType": "address",
          "name": "_platformAddress",
          "type": "address"
        }
      ],
      "name": "initialize",
      "outputs": [],
      "stateMutability": "nonpayable",
      "type": "function"
    },
    {
      "inputs": [
        {
          "internalType": "uint256",
          "name": "_requiredQuorum",
          "type": "uint256"
        }
      ],
      "name": "updateQuorum",
      "outputs": [],
      "stateMutability": "nonpayable",
      "type": "function"
    },
    {
      "inputs": [
        {
          "internalType": "uint256",
          "name": "_newFee",
          "type": "uint256"
        }
      ],
      "name": "updatePlatformShareValidation",
      "outputs": [],
      "stateMutability": "nonpayable",
      "type": "function"
    },
    {
      "inputs": [
        {
          "internalType": "uint256",
          "name": "_accessFee",
          "type": "uint256"
        }
      ],
      "name": "updateAccessFee",
      "outputs": [],
      "stateMutability": "nonpayable",
      "type": "function"
    },
    {
      "inputs": [
        {
          "internalType": "uint256",
          "name": "_minDepositDays",
          "type": "uint256"
        }
      ],
      "name": "updateMinDepositDays",
      "outputs": [],
      "stateMutability": "nonpayable",
      "type": "function"
    },
    {
      "inputs": [
        {
          "internalType": "uint256",
          "name": "_amountTokensPerValidation",
          "type": "uint256"
        }
      ],
      "name": "updateTokensPerValidation",
      "outputs": [],
      "stateMutability": "nonpayable",
      "type": "function"
    },
    {
      "inputs": [
        {
          "internalType": "uint256",
          "name": "_enterpriseMatch",
          "type": "uint256"
        }
      ],
      "name": "updateEnterpriseMatch",
      "outputs": [],
      "stateMutability": "nonpayable",
      "type": "function"
    },
    {
      "inputs": [
        {
          "internalType": "uint256",
          "name": "_enterpriseShareSubscriber",
          "type": "uint256"
        },
        {
          "internalType": "uint256",
          "name": "_validatorShareSubscriber",
          "type": "uint256"
        }
      ],
      "name": "updateDataSubscriberShares",
      "outputs": [],
      "stateMutability": "nonpayable",
      "type": "function"
    },
    {
      "inputs": [
        {
          "internalType": "address",
          "name": "newUser",
          "type": "address"
        },
        {
          "internalType": "string",
          "name": "name",
          "type": "string"
        },
        {
          "internalType": "enum Members.UserType",
          "name": "userType",
          "type": "uint8"
        }
      ],
      "name": "addUser",
      "outputs": [],
      "stateMutability": "nonpayable",
      "type": "function"
    },
    {
      "inputs": [],
      "name": "returnValidators",
      "outputs": [
        {
          "internalType": "address[]",
          "name": "",
          "type": "address[]"
        }
      ],
      "stateMutability": "view",
      "type": "function"
    }
  ],
  "bytecode": "0x608060405234801561001057600080fd5b50613ca5806100206000396000f3fe608060405234801561001057600080fd5b50600436106102325760003560e01c806378f5a6ae11610130578063ca15c873116100b8578063e73541321161007c578063e7354132146106c7578063e9b6c975146106e3578063ebb33a8114610701578063f2c5722f1461071f578063fc7e286d1461073b57610232565b8063ca15c8731461060f578063d3156a851461063f578063d547741f1461066f578063dac95d411461068b578063dbe55e56146106a957610232565b80639fbae286116100ff5780639fbae28614610555578063a2011b3f14610585578063a217fddf146105a3578063a7579be8146105c1578063ba0e142f146105df57610232565b806378f5a6ae146104a75780639010d07c146104d757806391d148541461050757806398c3c1161461053757610232565b806336568abe116101be57806352e2b3711161018257806352e2b371146104035780635659ae581461041f5780636f9cf9851461043d5780637036014e1461046d57806374eb9cdb1461048b57610232565b806336568abe1461037357806340d268541461038f578063485cc955146103ab578063492b85cd146103c75780634d9c798c146103e557610232565b8063248a9ca311610205578063248a9ca3146102bd5780632f2ff15d146102ed5780633507abaf1461030957806335680dc21461032757806335aa2e441461034357610232565b806301ffc9a714610237578063092c5b3b146102675780630c13f833146102855780631612d06d146102a1575b600080fd5b610251600480360381019061024c9190612a48565b61076b565b60405161025e9190613612565b60405180910390f35b61026f6107e5565b60405161027c919061362d565b60405180910390f35b61029f600480360381019061029a9190612a71565b610809565b005b6102bb60048036038101906102b69190612a9a565b61090b565b005b6102d760048036038101906102d291906129a7565b610a2b565b6040516102e4919061362d565b60405180910390f35b610307600480360381019061030291906129d0565b610a4b565b005b610311610a7f565b60405161031e9190613865565b60405180910390f35b610341600480360381019061033c9190612a71565b610a85565b005b61035d60048036038101906103589190612a71565b610b87565b60405161036a91906135d5565b60405180910390f35b61038d600480360381019061038891906129d0565b610bc6565b005b6103a960048036038101906103a49190612940565b610bfa565b005b6103c560048036038101906103c091906128c8565b61124b565b005b6103cf6114e4565b6040516103dc9190613865565b60405180910390f35b6103ed6114ea565b6040516103fa9190613865565b60405180910390f35b61041d60048036038101906104189190612a71565b6114f0565b005b6104276115f2565b6040516104349190613865565b60405180910390f35b61045760048036038101906104529190612904565b6115f8565b6040516104649190613612565b60405180910390f35b610475611627565b6040516104829190613865565b60405180910390f35b6104a560048036038101906104a09190612a71565b61162d565b005b6104c160048036038101906104bc91906128c8565b61172f565b6040516104ce9190613612565b60405180910390f35b6104f160048036038101906104ec9190612a0c565b61175e565b6040516104fe91906135d5565b60405180910390f35b610521600480360381019061051c91906129d0565b61178d565b60405161052e9190613612565b60405180910390f35b61053f6117f8565b60405161054c9190613648565b60405180910390f35b61056f600480360381019061056a9190612a71565b61181e565b60405161057c91906135d5565b60405180910390f35b61058d61185d565b60405161059a919061362d565b60405180910390f35b6105ab611881565b6040516105b8919061362d565b60405180910390f35b6105c9611888565b6040516105d69190613865565b60405180910390f35b6105f960048036038101906105f49190612904565b61188e565b6040516106069190613663565b60405180910390f35b610629600480360381019061062491906129a7565b61193b565b6040516106369190613865565b60405180910390f35b61065960048036038101906106549190612a71565b61195f565b60405161066691906135d5565b60405180910390f35b610689600480360381019061068491906129d0565b61199e565b005b6106936119d2565b6040516106a09190613865565b60405180910390f35b6106b16119d8565b6040516106be91906135d5565b60405180910390f35b6106e160048036038101906106dc9190612a71565b6119fe565b005b6106eb611b00565b6040516106f89190613865565b60405180910390f35b610709611b06565b60405161071691906135f0565b60405180910390f35b61073960048036038101906107349190612a71565b611b94565b005b6107556004803603810190610750919061289f565b611c96565b6040516107629190613865565b60405180910390f35b60007f5a05180f000000000000000000000000000000000000000000000000000000007bffffffffffffffffffffffffffffffffffffffffffffffffffffffff1916827bffffffffffffffffffffffffffffffffffffffffffffffffffffffff191614806107de57506107dd82611cae565b5b9050919050565b7f7b765e0e932d348852a6f810bfa1ab891e259123f02db8cdcde614c57022335781565b6108337f61c92169ef077349011ff0b1383c894d86c5f0b41d986366b58a6cf31e93beda3361178d565b610872576040517f08c379a000000000000000000000000000000000000000000000000000000000815260040161086990613785565b60405180910390fd5b60008114156108b6576040517f08c379a00000000000000000000000000000000000000000000000000000000081526004016108ad906136a5565b60405180910390fd5b8060d2819055506040516108c99061351d565b60405180910390207ff99dba3a76085484eae2e89cc2e2ee5edffe3f1d25cdd1e6c5757447b9b5b473826040516109009190613865565b60405180910390a250565b6109357f61c92169ef077349011ff0b1383c894d86c5f0b41d986366b58a6cf31e93beda3361178d565b610974576040517f08c379a000000000000000000000000000000000000000000000000000000000815260040161096b90613785565b60405180910390fd5b605a61098b60cf5484611d2890919063ffffffff16565b11156109cc576040517f08c379a00000000000000000000000000000000000000000000000000000000081526004016109c390613765565b60405180910390fd5b8160ce819055508060cf819055506040516109e690613596565b60405180910390207ff99dba3a76085484eae2e89cc2e2ee5edffe3f1d25cdd1e6c5757447b9b5b47360ce54604051610a1f9190613865565b60405180910390a25050565b600060656000838152602001908152602001600020600101549050919050565b610a558282611d3e565b610a7a8160976000858152602001908152602001600020611d6790919063ffffffff16565b505050565b60d15481565b610aaf7f61c92169ef077349011ff0b1383c894d86c5f0b41d986366b58a6cf31e93beda3361178d565b610aee576040517f08c379a0000000000000000000000000000000000000000000000000000000008152600401610ae590613785565b60405180910390fd5b6000811415610b32576040517f08c379a0000000000000000000000000000000000000000000000000000000008152600401610b2990613805565b60405180910390fd5b8060d481905550604051610b4590613532565b60405180910390207ff99dba3a76085484eae2e89cc2e2ee5edffe3f1d25cdd1e6c5757447b9b5b47382604051610b7c9190613865565b60405180910390a250565b60d88181548110610b9757600080fd5b906000526020600020016000915054906101000a900473ffffffffffffffffffffffffffffffffffffffff1681565b610bd08282611d97565b610bf58160976000858152602001908152602001600020611e1a90919063ffffffff16565b505050565b610c247f7b765e0e932d348852a6f810bfa1ab891e259123f02db8cdcde614c5702233573361178d565b610c63576040517f08c379a0000000000000000000000000000000000000000000000000000000008152600401610c5a906137c5565b60405180910390fd5b60d660008473ffffffffffffffffffffffffffffffffffffffff1673ffffffffffffffffffffffffffffffffffffffff1681526020019081526020016000206000826002811115610cdd577f4e487b7100000000000000000000000000000000000000000000000000000000600052602160045260246000fd5b6002811115610d15577f4e487b7100000000000000000000000000000000000000000000000000000000600052602160045260246000fd5b815260200190815260200160002060009054906101000a900460ff1615610d71576040517f08c379a0000000000000000000000000000000000000000000000000000000008152600401610d6890613725565b60405180910390fd5b8160d560008573ffffffffffffffffffffffffffffffffffffffff1673ffffffffffffffffffffffffffffffffffffffff1681526020019081526020016000206000836002811115610dec577f4e487b7100000000000000000000000000000000000000000000000000000000600052602160045260246000fd5b6002811115610e24577f4e487b7100000000000000000000000000000000000000000000000000000000600052602160045260246000fd5b81526020019081526020016000209080519060200190610e4592919061272b565b50600160d660008573ffffffffffffffffffffffffffffffffffffffff1673ffffffffffffffffffffffffffffffffffffffff1681526020019081526020016000206000836002811115610ec2577f4e487b7100000000000000000000000000000000000000000000000000000000600052602160045260246000fd5b6002811115610efa577f4e487b7100000000000000000000000000000000000000000000000000000000600052602160045260246000fd5b815260200190815260200160002060006101000a81548160ff021916908315150217905550600280811115610f58577f4e487b7100000000000000000000000000000000000000000000000000000000600052602160045260246000fd5b816002811115610f91577f4e487b7100000000000000000000000000000000000000000000000000000000600052602160045260246000fd5b1415610fff5760d9839080600181540180825580915050600190039060005260206000200160009091909190916101000a81548173ffffffffffffffffffffffffffffffffffffffff021916908373ffffffffffffffffffffffffffffffffffffffff1602179055506111bf565b60016002811115611039577f4e487b7100000000000000000000000000000000000000000000000000000000600052602160045260246000fd5b816002811115611072577f4e487b7100000000000000000000000000000000000000000000000000000000600052602160045260246000fd5b14156110e05760d8839080600181540180825580915050600190039060005260206000200160009091909190916101000a81548173ffffffffffffffffffffffffffffffffffffffff021916908373ffffffffffffffffffffffffffffffffffffffff1602179055506111be565b6000600281111561111a577f4e487b7100000000000000000000000000000000000000000000000000000000600052602160045260246000fd5b816002811115611153577f4e487b7100000000000000000000000000000000000000000000000000000000600052602160045260246000fd5b14156111bd5760d7839080600181540180825580915050600190039060005260206000200160009091909190916101000a81548173ffffffffffffffffffffffffffffffffffffffff021916908373ffffffffffffffffffffffffffffffffffffffff1602179055505b5b5b8060028111156111f8577f4e487b7100000000000000000000000000000000000000000000000000000000600052602160045260246000fd5b8373ffffffffffffffffffffffffffffffffffffffff167f8897d4c16f6b907647cc92f3b2f80418ac81581b8e74f9dda595d3910b44c8628460405161123e9190613663565b60405180910390a3505050565b600060019054906101000a900460ff1680611271575060008054906101000a900460ff16155b6112b0576040517f08c379a00000000000000000000000000000000000000000000000000000000081526004016112a790613745565b60405180910390fd5b60008060019054906101000a900460ff161590508015611300576001600060016101000a81548160ff02191690831515021790555060016000806101000a81548160ff0219169083151502179055505b600073ffffffffffffffffffffffffffffffffffffffff168373ffffffffffffffffffffffffffffffffffffffff161415611370576040517f08c379a0000000000000000000000000000000000000000000000000000000008152600401611367906137a5565b60405180910390fd5b600073ffffffffffffffffffffffffffffffffffffffff168273ffffffffffffffffffffffffffffffffffffffff1614156113e0576040517f08c379a00000000000000000000000000000000000000000000000000000000081526004016113d7906137e5565b60405180910390fd5b8260c960006101000a81548173ffffffffffffffffffffffffffffffffffffffff021916908373ffffffffffffffffffffffffffffffffffffffff1602179055508160d060006101000a81548173ffffffffffffffffffffffffffffffffffffffff021916908373ffffffffffffffffffffffffffffffffffffffff160217905550670de0b6b3a764000060cc81905550683635c9adc5dea0000060cd81905550602860ce81905550602860cf81905550600f60d18190555060c860d281905550601e60d381905550605060d4819055506114be6000801b33611e4a565b80156114df5760008060016101000a81548160ff0219169083151502179055505b505050565b60cd5481565b60cc5481565b61151a7f61c92169ef077349011ff0b1383c894d86c5f0b41d986366b58a6cf31e93beda3361178d565b611559576040517f08c379a000000000000000000000000000000000000000000000000000000000815260040161155090613785565b60405180910390fd5b600081141561159d576040517f08c379a0000000000000000000000000000000000000000000000000000000008152600401611594906136c5565b60405180910390fd5b8060d1819055506040516115b0906135ab565b60405180910390207ff99dba3a76085484eae2e89cc2e2ee5edffe3f1d25cdd1e6c5757447b9b5b473826040516115e79190613865565b60405180910390a250565b60d35481565b60d66020528160005260406000206020528060005260406000206000915091509054906101000a900460ff1681565b60d45481565b6116577f61c92169ef077349011ff0b1383c894d86c5f0b41d986366b58a6cf31e93beda3361178d565b611696576040517f08c379a000000000000000000000000000000000000000000000000000000000815260040161168d90613785565b60405180910390fd5b60008114156116da576040517f08c379a00000000000000000000000000000000000000000000000000000000081526004016116d190613825565b60405180910390fd5b8060d3819055506040516116ed906135c0565b60405180910390207ff99dba3a76085484eae2e89cc2e2ee5edffe3f1d25cdd1e6c5757447b9b5b473826040516117249190613865565b60405180910390a250565b60cb6020528160005260406000206020528060005260406000206000915091509054906101000a900460ff1681565b60006117858260976000868152602001908152602001600020611e7e90919063ffffffff16565b905092915050565b60006065600084815260200190815260200160002060000160008373ffffffffffffffffffffffffffffffffffffffff1673ffffffffffffffffffffffffffffffffffffffff16815260200190815260200160002060009054906101000a900460ff16905092915050565b60c960009054906101000a900473ffffffffffffffffffffffffffffffffffffffff1681565b60d7818154811061182e57600080fd5b906000526020600020016000915054906101000a900473ffffffffffffffffffffffffffffffffffffffff1681565b7f61c92169ef077349011ff0b1383c894d86c5f0b41d986366b58a6cf31e93beda81565b6000801b81565b60d25481565b60d56020528160005260406000206020528060005260406000206000915091505080546118ba90613b33565b80601f01602080910402602001604051908101604052809291908181526020018280546118e690613b33565b80156119335780601f1061190857610100808354040283529160200191611933565b820191906000526020600020905b81548152906001019060200180831161191657829003601f168201915b505050505081565b600061195860976000848152602001908152602001600020611e98565b9050919050565b60d9818154811061196f57600080fd5b906000526020600020016000915054906101000a900473ffffffffffffffffffffffffffffffffffffffff1681565b6119a88282611ead565b6119cd8160976000858152602001908152602001600020611e1a90919063ffffffff16565b505050565b60ce5481565b60d060009054906101000a900473ffffffffffffffffffffffffffffffffffffffff1681565b611a287f61c92169ef077349011ff0b1383c894d86c5f0b41d986366b58a6cf31e93beda3361178d565b611a67576040517f08c379a0000000000000000000000000000000000000000000000000000000008152600401611a5e90613785565b60405180910390fd5b6000811415611aab576040517f08c379a0000000000000000000000000000000000000000000000000000000008152600401611aa2906136e5565b60405180910390fd5b8060cc81905550604051611abe90613508565b60405180910390207ff99dba3a76085484eae2e89cc2e2ee5edffe3f1d25cdd1e6c5757447b9b5b47382604051611af59190613865565b60405180910390a250565b60cf5481565b606060d8805480602002602001604051908101604052809291908181526020018280548015611b8a57602002820191906000526020600020905b8160009054906101000a900473ffffffffffffffffffffffffffffffffffffffff1673ffffffffffffffffffffffffffffffffffffffff1681526020019060010190808311611b40575b5050505050905090565b611bbe7f61c92169ef077349011ff0b1383c894d86c5f0b41d986366b58a6cf31e93beda3361178d565b611bfd576040517f08c379a0000000000000000000000000000000000000000000000000000000008152600401611bf490613785565b60405180910390fd5b6000811415611c41576040517f08c379a0000000000000000000000000000000000000000000000000000000008152600401611c3890613705565b60405180910390fd5b8060cd81905550604051611c5490613547565b60405180910390207ff99dba3a76085484eae2e89cc2e2ee5edffe3f1d25cdd1e6c5757447b9b5b47382604051611c8b9190613865565b60405180910390a250565b60ca6020528060005260406000206000915090505481565b60007f7965db0b000000000000000000000000000000000000000000000000000000007bffffffffffffffffffffffffffffffffffffffffffffffffffffffff1916827bffffffffffffffffffffffffffffffffffffffffffffffffffffffff19161480611d215750611d2082611ed6565b5b9050919050565b60008183611d369190613941565b905092915050565b611d4782610a2b565b611d5881611d53611f40565b611f48565b611d628383611fe5565b505050565b6000611d8f836000018373ffffffffffffffffffffffffffffffffffffffff1660001b6120c6565b905092915050565b611d9f611f40565b73ffffffffffffffffffffffffffffffffffffffff168173ffffffffffffffffffffffffffffffffffffffff1614611e0c576040517f08c379a0000000000000000000000000000000000000000000000000000000008152600401611e0390613845565b60405180910390fd5b611e168282612136565b5050565b6000611e42836000018373ffffffffffffffffffffffffffffffffffffffff1660001b612218565b905092915050565b611e54828261239e565b611e798160976000858152602001908152602001600020611d6790919063ffffffff16565b505050565b6000611e8d83600001836123ac565b60001c905092915050565b6000611ea6826000016123fd565b9050919050565b611eb682610a2b565b611ec781611ec2611f40565b611f48565b611ed18383612136565b505050565b60007f01ffc9a7000000000000000000000000000000000000000000000000000000007bffffffffffffffffffffffffffffffffffffffffffffffffffffffff1916827bffffffffffffffffffffffffffffffffffffffffffffffffffffffff1916149050919050565b600033905090565b611f52828261178d565b611fe157611f778173ffffffffffffffffffffffffffffffffffffffff16601461240e565b611f858360001c602061240e565b604051602001611f9692919061355c565b6040516020818303038152906040526040517f08c379a0000000000000000000000000000000000000000000000000000000008152600401611fd89190613663565b60405180910390fd5b5050565b611fef828261178d565b6120c25760016065600084815260200190815260200160002060000160008373ffffffffffffffffffffffffffffffffffffffff1673ffffffffffffffffffffffffffffffffffffffff16815260200190815260200160002060006101000a81548160ff021916908315150217905550612067611f40565b73ffffffffffffffffffffffffffffffffffffffff168173ffffffffffffffffffffffffffffffffffffffff16837f2f8788117e7eff1d82e926ec794901d17c78024a50270940304540a733656f0d60405160405180910390a45b5050565b60006120d28383612708565b61212b578260000182908060018154018082558091505060019003906000526020600020016000909190919091505582600001805490508360010160008481526020019081526020016000208190555060019050612130565b600090505b92915050565b612140828261178d565b156122145760006065600084815260200190815260200160002060000160008373ffffffffffffffffffffffffffffffffffffffff1673ffffffffffffffffffffffffffffffffffffffff16815260200190815260200160002060006101000a81548160ff0219169083151502179055506121b9611f40565b73ffffffffffffffffffffffffffffffffffffffff168173ffffffffffffffffffffffffffffffffffffffff16837ff6391f5c32d9c69d2a47ea670b442974b53935d1edc7fd64eb21e047a839171b60405160405180910390a45b5050565b6000808360010160008481526020019081526020016000205490506000811461239257600060018261224a91906139f1565b905060006001866000018054905061226291906139f1565b905081811461231d5760008660000182815481106122a9577f4e487b7100000000000000000000000000000000000000000000000000000000600052603260045260246000fd5b90600052602060002001549050808760000184815481106122f3577f4e487b7100000000000000000000000000000000000000000000000000000000600052603260045260246000fd5b90600052602060002001819055508387600101600083815260200190815260200160002081905550505b85600001805480612357577f4e487b7100000000000000000000000000000000000000000000000000000000600052603160045260246000fd5b600190038181906000526020600020016000905590558560010160008681526020019081526020016000206000905560019350505050612398565b60009150505b92915050565b6123a88282611fe5565b5050565b60008260000182815481106123ea577f4e487b7100000000000000000000000000000000000000000000000000000000600052603260045260246000fd5b9060005260206000200154905092915050565b600081600001805490509050919050565b6060600060028360026124219190613997565b61242b9190613941565b67ffffffffffffffff81111561246a577f4e487b7100000000000000000000000000000000000000000000000000000000600052604160045260246000fd5b6040519080825280601f01601f19166020018201604052801561249c5781602001600182028036833780820191505090505b5090507f3000000000000000000000000000000000000000000000000000000000000000816000815181106124fa577f4e487b7100000000000000000000000000000000000000000000000000000000600052603260045260246000fd5b60200101907effffffffffffffffffffffffffffffffffffffffffffffffffffffffffffff1916908160001a9053507f780000000000000000000000000000000000000000000000000000000000000081600181518110612584577f4e487b7100000000000000000000000000000000000000000000000000000000600052603260045260246000fd5b60200101907effffffffffffffffffffffffffffffffffffffffffffffffffffffffffffff1916908160001a905350600060018460026125c49190613997565b6125ce9190613941565b90505b60018111156126ba577f3031323334353637383961626364656600000000000000000000000000000000600f861660108110612636577f4e487b7100000000000000000000000000000000000000000000000000000000600052603260045260246000fd5b1a60f81b828281518110612673577f4e487b7100000000000000000000000000000000000000000000000000000000600052603260045260246000fd5b60200101907effffffffffffffffffffffffffffffffffffffffffffffffffffffffffffff1916908160001a905350600485901c9450806126b390613b09565b90506125d1565b50600084146126fe576040517f08c379a00000000000000000000000000000000000000000000000000000000081526004016126f590613685565b60405180910390fd5b8091505092915050565b600080836001016000848152602001908152602001600020541415905092915050565b82805461273790613b33565b90600052602060002090601f01602090048101928261275957600085556127a0565b82601f1061277257805160ff19168380011785556127a0565b828001600101855582156127a0579182015b8281111561279f578251825591602001919060010190612784565b5b5090506127ad91906127b1565b5090565b5b808211156127ca5760008160009055506001016127b2565b5090565b60006127e16127dc846138b1565b613880565b9050828152602081018484840111156127f957600080fd5b612804848285613ac7565b509392505050565b60008135905061281b81613c03565b92915050565b60008135905061283081613c1a565b92915050565b60008135905061284581613c31565b92915050565b60008135905061285a81613c48565b92915050565b600082601f83011261287157600080fd5b81356128818482602086016127ce565b91505092915050565b60008135905061289981613c58565b92915050565b6000602082840312156128b157600080fd5b60006128bf8482850161280c565b91505092915050565b600080604083850312156128db57600080fd5b60006128e98582860161280c565b92505060206128fa8582860161280c565b9150509250929050565b6000806040838503121561291757600080fd5b60006129258582860161280c565b92505060206129368582860161284b565b9150509250929050565b60008060006060848603121561295557600080fd5b60006129638682870161280c565b935050602084013567ffffffffffffffff81111561298057600080fd5b61298c86828701612860565b925050604061299d8682870161284b565b9150509250925092565b6000602082840312156129b957600080fd5b60006129c784828501612821565b91505092915050565b600080604083850312156129e357600080fd5b60006129f185828601612821565b9250506020612a028582860161280c565b9150509250929050565b60008060408385031215612a1f57600080fd5b6000612a2d85828601612821565b9250506020612a3e8582860161288a565b9150509250929050565b600060208284031215612a5a57600080fd5b6000612a6884828501612836565b91505092915050565b600060208284031215612a8357600080fd5b6000612a918482850161288a565b91505092915050565b60008060408385031215612aad57600080fd5b6000612abb8582860161288a565b9250506020612acc8582860161288a565b9150509250929050565b6000612ae28383612aee565b60208301905092915050565b612af781613a25565b82525050565b612b0681613a25565b82525050565b6000612b17826138f1565b612b218185613914565b9350612b2c836138e1565b8060005b83811015612b5d578151612b448882612ad6565b9750612b4f83613907565b925050600181019050612b30565b5085935050505092915050565b612b7381613a37565b82525050565b612b8281613a43565b82525050565b612b9181613aa3565b82525050565b6000612ba2826138fc565b612bac8185613925565b9350612bbc818560208601613ad6565b612bc581613bf2565b840191505092915050565b6000612bdb826138fc565b612be58185613936565b9350612bf5818560208601613ad6565b80840191505092915050565b6000612c0e602083613925565b91507f537472696e67733a20686578206c656e67746820696e73756666696369656e746000830152602082019050919050565b6000612c4e600d83613936565b91507f75706461746552657761726473000000000000000000000000000000000000006000830152600d82019050919050565b6000612c8e604d83613925565b91507f4d656d626572733a757064617465456e74657270726973654d61746368202d2060008301527f4e65772076616c756520666f722074686520656e7465727072697365206d617460208301527f63682063616e27742062652030000000000000000000000000000000000000006040830152606082019050919050565b6000612d1a605183613925565b91507f4d656d626572733a757064617465506c6174666f726d536861726556616c696460008301527f6174696f6e202d204e65772076616c756520666f722074686520706c6174666f60208301527f726d206665652063616e277420626520300000000000000000000000000000006040830152606082019050919050565b6000612da6601583613936565b91507f757064617465456e74657270726973654d6174636800000000000000000000006000830152601582019050919050565b6000612de6604783613925565b91507f4d656d626572733a757064617465546f6b656e7350657256616c69646174696f60008301527f6e202d204e65772076616c756520666f7220746865207265776172642063616e60208301527f27742062652030000000000000000000000000000000000000000000000000006040830152606082019050919050565b6000612e72604183613925565b91507f4d656d626572733a757064617465416363657373466565202d204e657720766160008301527f6c756520666f722074686520616363657373206665652063616e27742062652060208301527f30000000000000000000000000000000000000000000000000000000000000006040830152606082019050919050565b6000612efe602a83613925565b91507f4d656d626572733a61646455736572202d2054686973207573657220616c726560008301527f6164792065786973742e000000000000000000000000000000000000000000006020830152604082019050919050565b6000612f64602e83613925565b91507f496e697469616c697a61626c653a20636f6e747261637420697320616c72656160008301527f647920696e697469616c697a65640000000000000000000000000000000000006020830152604082019050919050565b6000612fca600c83613936565b91507f75706461746551756f72756d00000000000000000000000000000000000000006000830152600c82019050919050565b600061300a603783613925565b91507f456e746572707269736520616e642056616c696461746f72207368617265732060008301527f63616e2774206265206c6172676572207468616e2039300000000000000000006020830152604082019050919050565b6000613070602983613925565b91507f4d656d626572733a6973536574746572202d2043616c6c6572206973206e6f7460008301527f20612073657474657200000000000000000000000000000000000000000000006020830152604082019050919050565b60006130d6603483613925565b91507f4d656d626572733a636f6e7374727563746f72202d20417564697420746f6b6560008301527f6e20616464726573732063616e277420626520300000000000000000000000006020830152604082019050919050565b600061313c600f83613936565b91507f75706461746541636365737346656500000000000000000000000000000000006000830152600f82019050919050565b600061317c603183613925565b91507f4d656d626572733a4973436f6e74726f6c6c6572202d2043616c6c657220697360008301527f206e6f74206120636f6e74726f6c6c65720000000000000000000000000000006020830152604082019050919050565b60006131e2603183613925565b91507f4d656d626572733a636f6e7374727563746f72202d20506c6174666f726d206160008301527f6464726573732063616e277420626520300000000000000000000000000000006020830152604082019050919050565b6000613248601783613936565b91507f416363657373436f6e74726f6c3a206163636f756e74200000000000000000006000830152601782019050919050565b6000613288603283613925565b91507f4d656d626572733a75706461746551756f72756d202d204e65772071756f727560008301527f6d2076616c75652063616e2774206265203000000000000000000000000000006020830152604082019050919050565b60006132ee604c83613925565b91507f4d656d626572733a7570646174654d696e4465706f73697444617973202d204e60008301527f65772076616c756520666f7220746865206d696e206465706f7369742064617960208301527f732063616e2774206265203000000000000000000000000000000000000000006040830152606082019050919050565b600061337a602583613936565b91507f75706461746544617461537562736372696265725368617265733a456e74657260008301527f70726973650000000000000000000000000000000000000000000000000000006020830152602582019050919050565b60006133e0601d83613936565b91507f757064617465506c6174666f726d536861726556616c69646174696f6e0000006000830152601d82019050919050565b6000613420601483613936565b91507f7570646174654d696e4465706f736974446179730000000000000000000000006000830152601482019050919050565b6000613460601183613936565b91507f206973206d697373696e6720726f6c65200000000000000000000000000000006000830152601182019050919050565b60006134a0602f83613925565b91507f416363657373436f6e74726f6c3a2063616e206f6e6c792072656e6f756e636560008301527f20726f6c657320666f722073656c6600000000000000000000000000000000006020830152604082019050919050565b61350281613a99565b82525050565b600061351382612c41565b9150819050919050565b600061352882612d99565b9150819050919050565b600061353d82612fbd565b9150819050919050565b60006135528261312f565b9150819050919050565b60006135678261323b565b91506135738285612bd0565b915061357e82613453565b915061358a8284612bd0565b91508190509392505050565b60006135a18261336d565b9150819050919050565b60006135b6826133d3565b9150819050919050565b60006135cb82613413565b9150819050919050565b60006020820190506135ea6000830184612afd565b92915050565b6000602082019050818103600083015261360a8184612b0c565b905092915050565b60006020820190506136276000830184612b6a565b92915050565b60006020820190506136426000830184612b79565b92915050565b600060208201905061365d6000830184612b88565b92915050565b6000602082019050818103600083015261367d8184612b97565b905092915050565b6000602082019050818103600083015261369e81612c01565b9050919050565b600060208201905081810360008301526136be81612c81565b9050919050565b600060208201905081810360008301526136de81612d0d565b9050919050565b600060208201905081810360008301526136fe81612dd9565b9050919050565b6000602082019050818103600083015261371e81612e65565b9050919050565b6000602082019050818103600083015261373e81612ef1565b9050919050565b6000602082019050818103600083015261375e81612f57565b9050919050565b6000602082019050818103600083015261377e81612ffd565b9050919050565b6000602082019050818103600083015261379e81613063565b9050919050565b600060208201905081810360008301526137be816130c9565b9050919050565b600060208201905081810360008301526137de8161316f565b9050919050565b600060208201905081810360008301526137fe816131d5565b9050919050565b6000602082019050818103600083015261381e8161327b565b9050919050565b6000602082019050818103600083015261383e816132e1565b9050919050565b6000602082019050818103600083015261385e81613493565b9050919050565b600060208201905061387a60008301846134f9565b92915050565b6000604051905081810181811067ffffffffffffffff821117156138a7576138a6613bc3565b5b8060405250919050565b600067ffffffffffffffff8211156138cc576138cb613bc3565b5b601f19601f8301169050602081019050919050565b6000819050602082019050919050565b600081519050919050565b600081519050919050565b6000602082019050919050565b600082825260208201905092915050565b600082825260208201905092915050565b600081905092915050565b600061394c82613a99565b915061395783613a99565b9250827fffffffffffffffffffffffffffffffffffffffffffffffffffffffffffffffff0382111561398c5761398b613b65565b5b828201905092915050565b60006139a282613a99565b91506139ad83613a99565b9250817fffffffffffffffffffffffffffffffffffffffffffffffffffffffffffffffff04831182151516156139e6576139e5613b65565b5b828202905092915050565b60006139fc82613a99565b9150613a0783613a99565b925082821015613a1a57613a19613b65565b5b828203905092915050565b6000613a3082613a79565b9050919050565b60008115159050919050565b6000819050919050565b60007fffffffff0000000000000000000000000000000000000000000000000000000082169050919050565b600073ffffffffffffffffffffffffffffffffffffffff82169050919050565b6000819050919050565b6000613aae82613ab5565b9050919050565b6000613ac082613a79565b9050919050565b82818337600083830152505050565b60005b83811015613af4578082015181840152602081019050613ad9565b83811115613b03576000848401525b50505050565b6000613b1482613a99565b91506000821415613b2857613b27613b65565b5b600182039050919050565b60006002820490506001821680613b4b57607f821691505b60208210811415613b5f57613b5e613b94565b5b50919050565b7f4e487b7100000000000000000000000000000000000000000000000000000000600052601160045260246000fd5b7f4e487b7100000000000000000000000000000000000000000000000000000000600052602260045260246000fd5b7f4e487b7100000000000000000000000000000000000000000000000000000000600052604160045260246000fd5b6000601f19601f8301169050919050565b613c0c81613a25565b8114613c1757600080fd5b50565b613c2381613a43565b8114613c2e57600080fd5b50565b613c3a81613a4d565b8114613c4557600080fd5b50565b60038110613c5557600080fd5b50565b613c6181613a99565b8114613c6c57600080fd5b5056fea2646970667358221220941345ea66a4db5b89a38d5ad28551ade524d6f9a27b4c1bfd9c80431626d70864736f6c63430008000033",
  "immutableReferences": {},
  "source": "// SPDX-License-Identifier: MIT\npragma solidity =0.8.0;\npragma experimental ABIEncoderV2;\nimport \"@openzeppelin/contracts-upgradeable/access/AccessControlEnumerableUpgradeable.sol\";\nimport \"@openzeppelin/contracts-upgradeable/utils/math/SafeMathUpgradeable.sol\";\nimport \"@openzeppelin/contracts-upgradeable/token/ERC20/utils/SafeERC20Upgradeable.sol\";\nimport \"./../IAuditToken.sol\";\n\n/**\n * @title Members\n * Allows on creation of Enterprise and Validator accounts and staking of funds by validators\n * Validators and enterprises have ability to withdraw their staking and earnings \n * Contract also contains several update functions controlled by the Governance contracts\n */\n\ncontract Members is  AccessControlEnumerableUpgradeable {\n\n    using SafeMathUpgradeable for uint256;\n    // using SafeERC20 for AuditToken;\n\n    struct DataSubscriberTypes{\n        address cohort;\n        uint256 audits;\n    }\n\n    bytes32 public constant CONTROLLER_ROLE = keccak256(\"CONTROLLER_ROLE\");\n    bytes32 public constant SETTER_ROLE =  keccak256(\"SETTER_ROLE\");\n\n    IAuditToken public auditToken;                       //AUDT token \n    mapping(address => uint256) public deposits;        //track deposits per user\n    // mapping(address => DataSubscriberTypes[]) public dataSubscriberCohorts;\n    mapping(address => mapping(address => bool)) public dataSubscriberCohortMap;\n    uint256 public amountTokensPerValidation ;    //New minted amount per validation\n\n    uint256 public accessFee;\n    uint256 public enterpriseShareSubscriber;\n    uint256 public validatorShareSubscriber;\n    address public platformAddress;\n    uint256 public platformShareValidation;    \n    uint256 public enterpriseMatch;         \n    uint256 public minDepositDays;\n    uint256 public requiredQuorum;             // quorum required to consider validation valid\n\n     // Audit types to be used. Two types added for future expansion \n    mapping(address => mapping(UserType => string)) public user;\n    mapping(address => mapping(UserType => bool)) public userMap;\n    address[] public enterprises;\n    address[] public validators;\n    address[] public dataSubscribers;\n\n    enum UserType {Enterprise, Validator, DataSubscriber}  \n    \n    event UserAdded(address indexed user, string name, UserType indexed userType);\n    event LogGovernanceUpdate(uint256 params, string indexed action);\n\n    \n    /// @dev check if caller is a controller     \n    modifier isController {\n        require(hasRole(CONTROLLER_ROLE, msg.sender), \"Members:IsController - Caller is not a controller\");\n\n        _;\n    }\n\n    /// @dev check if caller is a setter     \n    modifier isSetter {\n        require(hasRole(SETTER_ROLE, msg.sender), \"Members:isSetter - Caller is not a setter\");\n\n        _;\n    }\n\n    function initialize(address _auditToken, address _platformAddress ) initializer external {\n\n\n        require(_auditToken != address(0), \"Members:constructor - Audit token address can't be 0\");\n        require(_platformAddress != address(0), \"Members:constructor - Platform address can't be 0\");\n        auditToken = IAuditToken(_auditToken);        \n        platformAddress = _platformAddress;\n        amountTokensPerValidation =  1e18;  \n        accessFee = 1000e18;\n        enterpriseShareSubscriber = 40;\n        validatorShareSubscriber = 40;\n        platformShareValidation = 15;    \n        enterpriseMatch = 200;       \n        minDepositDays = 30;\n        requiredQuorum = 80;\n        _setupRole(DEFAULT_ADMIN_ROLE, msg.sender);\n    }\n\n   \n     \n    /**\n     * @dev to be called by governance to update new amount for required quorum\n     * @param _requiredQuorum new value of required quorum\n     */\n    function updateQuorum(uint256 _requiredQuorum) external isSetter() {\n        require(_requiredQuorum != 0, \"Members:updateQuorum - New quorum value can't be 0\");\n        requiredQuorum = _requiredQuorum;\n        LogGovernanceUpdate(_requiredQuorum, \"updateQuorum\");\n    }\n\n\n    /**\n    * @dev to be called by Governance contract to update new value for the validation platform fee\n    * @param _newFee new value for data subscriber access fee\n    */\n    function updatePlatformShareValidation(uint256 _newFee) external isSetter() {\n\n        require(_newFee != 0, \"Members:updatePlatformShareValidation - New value for the platform fee can't be 0\");\n        platformShareValidation = _newFee;\n        emit LogGovernanceUpdate(_newFee, \"updatePlatformShareValidation\");\n    }\n\n    /**\n    * @dev to be called by Governance contract to update new value for data sub access fee\n    * @param _accessFee new value for data subscriber access fee\n    */\n    function updateAccessFee(uint256 _accessFee) external isSetter() {\n\n        require(_accessFee != 0, \"Members:updateAccessFee - New value for the access fee can't be 0\");\n        accessFee = _accessFee;\n        emit LogGovernanceUpdate(_accessFee, \"updateAccessFee\");\n    }\n\n     /**\n    * @dev to be called by Governance contract to update new amount for validation rewards\n    * @param _minDepositDays new value for minimum of days to calculate \n    */\n    function updateMinDepositDays(uint256 _minDepositDays) external isSetter() {\n\n        require(_minDepositDays != 0, \"Members:updateMinDepositDays - New value for the min deposit days can't be 0\");\n        minDepositDays = _minDepositDays;\n        emit LogGovernanceUpdate(_minDepositDays, \"updateMinDepositDays\");\n    }\n\n    /**\n    * @dev to be called by Governance contract to update new amount for validation rewards\n    * @param _amountTokensPerValidation new value of reward per validation\n    */\n    function updateTokensPerValidation(uint256 _amountTokensPerValidation) external isSetter() {\n\n        require(_amountTokensPerValidation != 0, \"Members:updateTokensPerValidation - New value for the reward can't be 0\");\n        amountTokensPerValidation = _amountTokensPerValidation;\n        emit LogGovernanceUpdate(_amountTokensPerValidation, \"updateRewards\");\n\n    }\n    \n    /**\n    * @dev to be called by Governance contract\n    * @param _enterpriseMatch new value of enterprise portion of enterprise value of validation cost\n    */\n    function updateEnterpriseMatch(uint256 _enterpriseMatch) external isSetter()  {\n\n        require(_enterpriseMatch != 0, \"Members:updateEnterpriseMatch - New value for the enterprise match can't be 0\");\n        enterpriseMatch = _enterpriseMatch;\n        emit LogGovernanceUpdate(_enterpriseMatch, \"updateEnterpriseMatch\");\n\n    }\n\n    /**\n    * @dev to be called by Governance contract to change enterprise and validators shares\n    * of data subscription fees. \n    * @param _enterpriseShareSubscriber  - share of the enterprise\n    * @param _validatorShareSubscriber - share of the subscribers\n    */\n    function updateDataSubscriberShares(uint256 _enterpriseShareSubscriber, uint256 _validatorShareSubscriber ) external isSetter()  {\n\n        // platform share should be at least 10%\n        require(_enterpriseShareSubscriber.add(validatorShareSubscriber) <=90, \"Enterprise and Validator shares can't be larger than 90\");\n        enterpriseShareSubscriber = _enterpriseShareSubscriber;\n        validatorShareSubscriber = _validatorShareSubscriber;\n        emit LogGovernanceUpdate(enterpriseShareSubscriber, \"updateDataSubscriberShares:Enterprise\");\n    }\n\n   \n    /** \n    * @dev add new platform user\n    * @param newUser to add\n    * @param name name of the user\n    * @param userType  type of the user, enterprise, validator or data subscriber\n    */\n    function addUser(address newUser, string memory name, UserType userType) external isController() {\n\n        require(!userMap[newUser][userType], \"Members:addUser - This user already exist.\");\n        user[newUser][userType] = name;\n        userMap[newUser][userType] = true;\n\n        if (userType == UserType.DataSubscriber) \n            dataSubscribers.push(newUser);\n        else if (userType == UserType.Validator)\n            validators.push(newUser);\n        else if (userType == UserType.Enterprise)\n            enterprises.push(newUser);\n     \n        emit UserAdded(newUser, name, userType);\n    }\n\n    function returnValidators() external view returns(address[] memory) {\n\n        return validators;\n    }\n\n}\n",
  "sourcePath": "/home/win2win/eth/projects/AuditChain/Core-Smart-Contracts-v1-upgradable/contracts/Auditchain/Members.sol",
  "compiler": {
    "name": "solc",
    "version": "0.8.0+commit.c7dfd78e.Emscripten.clang"
  },
  "schemaVersion": "3.4.1",
  "updatedAt": "2022-05-18T17:13:45.583Z",
  "devdoc": {
    "kind": "dev",
    "methods": {
      "addUser(address,string,uint8)": {
        "details": "add new platform user",
        "params": {
          "name": "name of the user",
          "newUser": "to add",
          "userType": "type of the user, enterprise, validator or data subscriber"
        }
      },
      "getRoleAdmin(bytes32)": {
        "details": "Returns the admin role that controls `role`. See {grantRole} and {revokeRole}. To change a role's admin, use {_setRoleAdmin}."
      },
      "getRoleMember(bytes32,uint256)": {
        "details": "Returns one of the accounts that have `role`. `index` must be a value between 0 and {getRoleMemberCount}, non-inclusive. Role bearers are not sorted in any particular way, and their ordering may change at any point. WARNING: When using {getRoleMember} and {getRoleMemberCount}, make sure you perform all queries on the same block. See the following https://forum.openzeppelin.com/t/iterating-over-elements-on-enumerableset-in-openzeppelin-contracts/2296[forum post] for more information."
      },
      "getRoleMemberCount(bytes32)": {
        "details": "Returns the number of accounts that have `role`. Can be used together with {getRoleMember} to enumerate all bearers of a role."
      },
      "grantRole(bytes32,address)": {
        "details": "Overload {grantRole} to track enumerable memberships"
      },
      "hasRole(bytes32,address)": {
        "details": "Returns `true` if `account` has been granted `role`."
      },
      "renounceRole(bytes32,address)": {
        "details": "Overload {renounceRole} to track enumerable memberships"
      },
      "revokeRole(bytes32,address)": {
        "details": "Overload {revokeRole} to track enumerable memberships"
      },
      "supportsInterface(bytes4)": {
        "details": "See {IERC165-supportsInterface}."
      },
      "updateAccessFee(uint256)": {
        "details": "to be called by Governance contract to update new value for data sub access fee",
        "params": {
          "_accessFee": "new value for data subscriber access fee"
        }
      },
      "updateDataSubscriberShares(uint256,uint256)": {
        "details": "to be called by Governance contract to change enterprise and validators shares of data subscription fees. ",
        "params": {
          "_enterpriseShareSubscriber": "- share of the enterprise",
          "_validatorShareSubscriber": "- share of the subscribers"
        }
      },
      "updateEnterpriseMatch(uint256)": {
        "details": "to be called by Governance contract",
        "params": {
          "_enterpriseMatch": "new value of enterprise portion of enterprise value of validation cost"
        }
      },
      "updateMinDepositDays(uint256)": {
        "details": "to be called by Governance contract to update new amount for validation rewards",
        "params": {
          "_minDepositDays": "new value for minimum of days to calculate "
        }
      },
      "updatePlatformShareValidation(uint256)": {
        "details": "to be called by Governance contract to update new value for the validation platform fee",
        "params": {
          "_newFee": "new value for data subscriber access fee"
        }
      },
      "updateQuorum(uint256)": {
        "details": "to be called by governance to update new amount for required quorum",
        "params": {
          "_requiredQuorum": "new value of required quorum"
        }
      },
      "updateTokensPerValidation(uint256)": {
        "details": "to be called by Governance contract to update new amount for validation rewards",
        "params": {
          "_amountTokensPerValidation": "new value of reward per validation"
        }
      }
    },
    "title": "Members Allows on creation of Enterprise and Validator accounts and staking of funds by validators Validators and enterprises have ability to withdraw their staking and earnings  Contract also contains several update functions controlled by the Governance contracts",
    "version": 1
  },
  "userdoc": {
    "kind": "user",
    "methods": {},
    "version": 1
  }
}