{
  "contractName": "Members",
  "abi": [
    {
      "anonymous": false,
      "inputs": [
        {
          "indexed": false,
          "internalType": "uint256",
          "name": "params",
          "type": "uint256"
        },
        {
          "indexed": true,
          "internalType": "string",
          "name": "action",
          "type": "string"
        }
      ],
      "name": "LogGovernanceUpdate",
      "type": "event"
    },
    {
      "anonymous": false,
      "inputs": [
        {
          "indexed": true,
          "internalType": "bytes32",
          "name": "role",
          "type": "bytes32"
        },
        {
          "indexed": true,
          "internalType": "bytes32",
          "name": "previousAdminRole",
          "type": "bytes32"
        },
        {
          "indexed": true,
          "internalType": "bytes32",
          "name": "newAdminRole",
          "type": "bytes32"
        }
      ],
      "name": "RoleAdminChanged",
      "type": "event"
    },
    {
      "anonymous": false,
      "inputs": [
        {
          "indexed": true,
          "internalType": "bytes32",
          "name": "role",
          "type": "bytes32"
        },
        {
          "indexed": true,
          "internalType": "address",
          "name": "account",
          "type": "address"
        },
        {
          "indexed": true,
          "internalType": "address",
          "name": "sender",
          "type": "address"
        }
      ],
      "name": "RoleGranted",
      "type": "event"
    },
    {
      "anonymous": false,
      "inputs": [
        {
          "indexed": true,
          "internalType": "bytes32",
          "name": "role",
          "type": "bytes32"
        },
        {
          "indexed": true,
          "internalType": "address",
          "name": "account",
          "type": "address"
        },
        {
          "indexed": true,
          "internalType": "address",
          "name": "sender",
          "type": "address"
        }
      ],
      "name": "RoleRevoked",
      "type": "event"
    },
    {
      "anonymous": false,
      "inputs": [
        {
          "indexed": true,
          "internalType": "address",
          "name": "user",
          "type": "address"
        },
        {
          "indexed": false,
          "internalType": "string",
          "name": "name",
          "type": "string"
        },
        {
          "indexed": true,
          "internalType": "enum Members.UserType",
          "name": "userType",
          "type": "uint8"
        }
      ],
      "name": "UserAdded",
      "type": "event"
    },
    {
      "inputs": [],
      "name": "CONTROLLER_ROLE",
      "outputs": [
        {
          "internalType": "bytes32",
          "name": "",
          "type": "bytes32"
        }
      ],
      "stateMutability": "view",
      "type": "function",
      "constant": true
    },
    {
      "inputs": [],
      "name": "DEFAULT_ADMIN_ROLE",
      "outputs": [
        {
          "internalType": "bytes32",
          "name": "",
          "type": "bytes32"
        }
      ],
      "stateMutability": "view",
      "type": "function",
      "constant": true
    },
    {
      "inputs": [],
      "name": "SETTER_ROLE",
      "outputs": [
        {
          "internalType": "bytes32",
          "name": "",
          "type": "bytes32"
        }
      ],
      "stateMutability": "view",
      "type": "function",
      "constant": true
    },
    {
      "inputs": [],
      "name": "accessFee",
      "outputs": [
        {
          "internalType": "uint256",
          "name": "",
          "type": "uint256"
        }
      ],
      "stateMutability": "view",
      "type": "function",
      "constant": true
    },
    {
      "inputs": [],
      "name": "amountTokensPerValidation",
      "outputs": [
        {
          "internalType": "uint256",
          "name": "",
          "type": "uint256"
        }
      ],
      "stateMutability": "view",
      "type": "function",
      "constant": true
    },
    {
      "inputs": [],
      "name": "auditToken",
      "outputs": [
        {
          "internalType": "contract IAuditToken",
          "name": "",
          "type": "address"
        }
      ],
      "stateMutability": "view",
      "type": "function",
      "constant": true
    },
    {
      "inputs": [],
      "name": "cohortFactory",
      "outputs": [
        {
          "internalType": "contract ICohortFactory",
          "name": "",
          "type": "address"
        }
      ],
      "stateMutability": "view",
      "type": "function",
      "constant": true
    },
    {
      "inputs": [
        {
          "internalType": "address",
          "name": "",
          "type": "address"
        },
        {
          "internalType": "address",
          "name": "",
          "type": "address"
        }
      ],
      "name": "dataSubscriberCohortMap",
      "outputs": [
        {
          "internalType": "bool",
          "name": "",
          "type": "bool"
        }
      ],
      "stateMutability": "view",
      "type": "function",
      "constant": true
    },
    {
      "inputs": [
        {
          "internalType": "address",
          "name": "",
          "type": "address"
        },
        {
          "internalType": "uint256",
          "name": "",
          "type": "uint256"
        }
      ],
      "name": "dataSubscriberCohorts",
      "outputs": [
        {
          "internalType": "address",
          "name": "cohort",
          "type": "address"
        },
        {
          "internalType": "uint256",
          "name": "audits",
          "type": "uint256"
        }
      ],
      "stateMutability": "view",
      "type": "function",
      "constant": true
    },
    {
      "inputs": [
        {
          "internalType": "uint256",
          "name": "",
          "type": "uint256"
        }
      ],
      "name": "dataSubscribers",
      "outputs": [
        {
          "internalType": "address",
          "name": "",
          "type": "address"
        }
      ],
      "stateMutability": "view",
      "type": "function",
      "constant": true
    },
    {
      "inputs": [
        {
          "internalType": "address",
          "name": "",
          "type": "address"
        }
      ],
      "name": "deposits",
      "outputs": [
        {
          "internalType": "uint256",
          "name": "",
          "type": "uint256"
        }
      ],
      "stateMutability": "view",
      "type": "function",
      "constant": true
    },
    {
      "inputs": [],
      "name": "enterpriseMatch",
      "outputs": [
        {
          "internalType": "uint256",
          "name": "",
          "type": "uint256"
        }
      ],
      "stateMutability": "view",
      "type": "function",
      "constant": true
    },
    {
      "inputs": [],
      "name": "enterpriseShareSubscriber",
      "outputs": [
        {
          "internalType": "uint256",
          "name": "",
          "type": "uint256"
        }
      ],
      "stateMutability": "view",
      "type": "function",
      "constant": true
    },
    {
      "inputs": [
        {
          "internalType": "uint256",
          "name": "",
          "type": "uint256"
        }
      ],
      "name": "enterprises",
      "outputs": [
        {
          "internalType": "address",
          "name": "",
          "type": "address"
        }
      ],
      "stateMutability": "view",
      "type": "function",
      "constant": true
    },
    {
      "inputs": [
        {
          "internalType": "bytes32",
          "name": "role",
          "type": "bytes32"
        }
      ],
      "name": "getRoleAdmin",
      "outputs": [
        {
          "internalType": "bytes32",
          "name": "",
          "type": "bytes32"
        }
      ],
      "stateMutability": "view",
      "type": "function",
      "constant": true
    },
    {
      "inputs": [
        {
          "internalType": "bytes32",
          "name": "role",
          "type": "bytes32"
        },
        {
          "internalType": "uint256",
          "name": "index",
          "type": "uint256"
        }
      ],
      "name": "getRoleMember",
      "outputs": [
        {
          "internalType": "address",
          "name": "",
          "type": "address"
        }
      ],
      "stateMutability": "view",
      "type": "function",
      "constant": true
    },
    {
      "inputs": [
        {
          "internalType": "bytes32",
          "name": "role",
          "type": "bytes32"
        }
      ],
      "name": "getRoleMemberCount",
      "outputs": [
        {
          "internalType": "uint256",
          "name": "",
          "type": "uint256"
        }
      ],
      "stateMutability": "view",
      "type": "function",
      "constant": true
    },
    {
      "inputs": [
        {
          "internalType": "bytes32",
          "name": "role",
          "type": "bytes32"
        },
        {
          "internalType": "address",
          "name": "account",
          "type": "address"
        }
      ],
      "name": "grantRole",
      "outputs": [],
      "stateMutability": "nonpayable",
      "type": "function"
    },
    {
      "inputs": [
        {
          "internalType": "bytes32",
          "name": "role",
          "type": "bytes32"
        },
        {
          "internalType": "address",
          "name": "account",
          "type": "address"
        }
      ],
      "name": "hasRole",
      "outputs": [
        {
          "internalType": "bool",
          "name": "",
          "type": "bool"
        }
      ],
      "stateMutability": "view",
      "type": "function",
      "constant": true
    },
    {
      "inputs": [],
      "name": "minDepositDays",
      "outputs": [
        {
          "internalType": "uint256",
          "name": "",
          "type": "uint256"
        }
      ],
      "stateMutability": "view",
      "type": "function",
      "constant": true
    },
    {
      "inputs": [],
      "name": "platformAddress",
      "outputs": [
        {
          "internalType": "address",
          "name": "",
          "type": "address"
        }
      ],
      "stateMutability": "view",
      "type": "function",
      "constant": true
    },
    {
      "inputs": [],
      "name": "platformShareValidation",
      "outputs": [
        {
          "internalType": "uint256",
          "name": "",
          "type": "uint256"
        }
      ],
      "stateMutability": "view",
      "type": "function",
      "constant": true
    },
    {
      "inputs": [
        {
          "internalType": "bytes32",
          "name": "role",
          "type": "bytes32"
        },
        {
          "internalType": "address",
          "name": "account",
          "type": "address"
        }
      ],
      "name": "renounceRole",
      "outputs": [],
      "stateMutability": "nonpayable",
      "type": "function"
    },
    {
      "inputs": [],
      "name": "requiredQuorum",
      "outputs": [
        {
          "internalType": "uint256",
          "name": "",
          "type": "uint256"
        }
      ],
      "stateMutability": "view",
      "type": "function",
      "constant": true
    },
    {
      "inputs": [
        {
          "internalType": "bytes32",
          "name": "role",
          "type": "bytes32"
        },
        {
          "internalType": "address",
          "name": "account",
          "type": "address"
        }
      ],
      "name": "revokeRole",
      "outputs": [],
      "stateMutability": "nonpayable",
      "type": "function"
    },
    {
      "inputs": [],
      "name": "stakedAmount",
      "outputs": [
        {
          "internalType": "uint256",
          "name": "",
          "type": "uint256"
        }
      ],
      "stateMutability": "view",
      "type": "function",
      "constant": true
    },
    {
      "inputs": [
        {
          "internalType": "bytes4",
          "name": "interfaceId",
          "type": "bytes4"
        }
      ],
      "name": "supportsInterface",
      "outputs": [
        {
          "internalType": "bool",
          "name": "",
          "type": "bool"
        }
      ],
      "stateMutability": "view",
      "type": "function",
      "constant": true
    },
    {
      "inputs": [
        {
          "internalType": "address",
          "name": "",
          "type": "address"
        },
        {
          "internalType": "enum Members.UserType",
          "name": "",
          "type": "uint8"
        }
      ],
      "name": "user",
      "outputs": [
        {
          "internalType": "string",
          "name": "",
          "type": "string"
        }
      ],
      "stateMutability": "view",
      "type": "function",
      "constant": true
    },
    {
      "inputs": [
        {
          "internalType": "address",
          "name": "",
          "type": "address"
        },
        {
          "internalType": "enum Members.UserType",
          "name": "",
          "type": "uint8"
        }
      ],
      "name": "userMap",
      "outputs": [
        {
          "internalType": "bool",
          "name": "",
          "type": "bool"
        }
      ],
      "stateMutability": "view",
      "type": "function",
      "constant": true
    },
    {
      "inputs": [],
      "name": "validatorShareSubscriber",
      "outputs": [
        {
          "internalType": "uint256",
          "name": "",
          "type": "uint256"
        }
      ],
      "stateMutability": "view",
      "type": "function",
      "constant": true
    },
    {
      "inputs": [
        {
          "internalType": "uint256",
          "name": "",
          "type": "uint256"
        }
      ],
      "name": "validators",
      "outputs": [
        {
          "internalType": "address",
          "name": "",
          "type": "address"
        }
      ],
      "stateMutability": "view",
      "type": "function",
      "constant": true
    },
    {
      "inputs": [
        {
          "internalType": "address",
          "name": "_auditToken",
          "type": "address"
        },
        {
          "internalType": "address",
          "name": "_platformAddress",
          "type": "address"
        }
      ],
      "name": "initialize",
      "outputs": [],
      "stateMutability": "nonpayable",
      "type": "function"
    },
    {
      "inputs": [
        {
          "internalType": "uint256",
          "name": "_requiredQuorum",
          "type": "uint256"
        }
      ],
      "name": "updateQuorum",
      "outputs": [],
      "stateMutability": "nonpayable",
      "type": "function"
    },
    {
      "inputs": [
        {
          "internalType": "uint256",
          "name": "_newFee",
          "type": "uint256"
        }
      ],
      "name": "updatePlatformShareValidation",
      "outputs": [],
      "stateMutability": "nonpayable",
      "type": "function"
    },
    {
      "inputs": [
        {
          "internalType": "uint256",
          "name": "_accessFee",
          "type": "uint256"
        }
      ],
      "name": "updateAccessFee",
      "outputs": [],
      "stateMutability": "nonpayable",
      "type": "function"
    },
    {
      "inputs": [
        {
          "internalType": "uint256",
          "name": "_minDepositDays",
          "type": "uint256"
        }
      ],
      "name": "updateMinDepositDays",
      "outputs": [],
      "stateMutability": "nonpayable",
      "type": "function"
    },
    {
      "inputs": [
        {
          "internalType": "uint256",
          "name": "_amountTokensPerValidation",
          "type": "uint256"
        }
      ],
      "name": "updateTokensPerValidation",
      "outputs": [],
      "stateMutability": "nonpayable",
      "type": "function"
    },
    {
      "inputs": [
        {
          "internalType": "uint256",
          "name": "_enterpriseMatch",
          "type": "uint256"
        }
      ],
      "name": "updateEnterpriseMatch",
      "outputs": [],
      "stateMutability": "nonpayable",
      "type": "function"
    },
    {
      "inputs": [
        {
          "internalType": "uint256",
          "name": "_enterpriseShareSubscriber",
          "type": "uint256"
        },
        {
          "internalType": "uint256",
          "name": "_validatorShareSubscriber",
          "type": "uint256"
        }
      ],
      "name": "updateDataSubscriberShares",
      "outputs": [],
      "stateMutability": "nonpayable",
      "type": "function"
    },
    {
      "inputs": [
        {
          "internalType": "address",
          "name": "newUser",
          "type": "address"
        },
        {
          "internalType": "string",
          "name": "name",
          "type": "string"
        },
        {
          "internalType": "enum Members.UserType",
          "name": "userType",
          "type": "uint8"
        }
      ],
      "name": "addUser",
      "outputs": [],
      "stateMutability": "nonpayable",
      "type": "function"
    },
    {
      "inputs": [],
      "name": "returnValidatorList",
      "outputs": [
        {
          "internalType": "address[]",
          "name": "",
          "type": "address[]"
        }
      ],
      "stateMutability": "view",
      "type": "function",
      "constant": true
    }
  ],
  "bytecode": "0x608060405234801561001057600080fd5b50613e73806100206000396000f3fe608060405234801561001057600080fd5b50600436106102535760003560e01c806374eb9cdb11610146578063ba0e142f116100c3578063dbe55e5611610087578063dbe55e5614610737578063e735413214610755578063e9b6c97514610771578063f2c5722f1461078f578063f89a32bf146107ab578063fc7e286d146107c957610253565b8063ba0e142f1461066d578063ca15c8731461069d578063d3156a85146106cd578063d547741f146106fd578063dac95d411461071957610253565b806398c3c1161161010a57806398c3c116146105c55780639fbae286146105e3578063a2011b3f14610613578063a217fddf14610631578063a7579be81461064f57610253565b806374eb9cdb146104e857806378f5a6ae1461050457806382d51ba8146105345780639010d07c1461056557806391d148541461059557610253565b8063373d6132116101d45780634d9c798c116101985780634d9c798c1461044257806352e2b371146104605780635659ae581461047c5780636f9cf9851461049a5780637036014e146104ca57610253565b8063373d6132146103b057806340d26854146103ce578063485cc955146103ea578063492b85cd146104065780634bd4545f1461042457610253565b80632f2ff15d1161021b5780632f2ff15d1461030e5780633507abaf1461032a57806335680dc21461034857806335aa2e441461036457806336568abe1461039457610253565b806301ffc9a714610258578063092c5b3b146102885780630c13f833146102a65780631612d06d146102c2578063248a9ca3146102de575b600080fd5b610272600480360381019061026d9190612b9f565b6107f9565b60405161027f91906137a1565b60405180910390f35b610290610873565b60405161029d91906137bc565b60405180910390f35b6102c060048036038101906102bb9190612bc8565b610897565b005b6102dc60048036038101906102d79190612bf1565b610999565b005b6102f860048036038101906102f39190612afe565b610ab9565b60405161030591906137bc565b60405180910390f35b61032860048036038101906103239190612b27565b610ad9565b005b610332610b0d565b60405161033f9190613a0f565b60405180910390f35b610362600480360381019061035d9190612bc8565b610b13565b005b61037e60048036038101906103799190612bc8565b610c15565b60405161038b919061373b565b60405180910390f35b6103ae60048036038101906103a99190612b27565b610c54565b005b6103b8610c88565b6040516103c59190613a0f565b60405180910390f35b6103e860048036038101906103e39190612a5b565b610c8e565b005b61040460048036038101906103ff91906129e3565b6112df565b005b61040e611578565b60405161041b9190613a0f565b60405180910390f35b61042c61157e565b60405161043991906137f2565b60405180910390f35b61044a6115a4565b6040516104579190613a0f565b60405180910390f35b61047a60048036038101906104759190612bc8565b6115aa565b005b6104846116ac565b6040516104919190613a0f565b60405180910390f35b6104b460048036038101906104af9190612a1f565b6116b2565b6040516104c191906137a1565b60405180910390f35b6104d26116e1565b6040516104df9190613a0f565b60405180910390f35b61050260048036038101906104fd9190612bc8565b6116e7565b005b61051e600480360381019061051991906129e3565b6117e9565b60405161052b91906137a1565b60405180910390f35b61054e60048036038101906105499190612ac2565b611818565b60405161055c929190613756565b60405180910390f35b61057f600480360381019061057a9190612b63565b611879565b60405161058c919061373b565b60405180910390f35b6105af60048036038101906105aa9190612b27565b6118a8565b6040516105bc91906137a1565b60405180910390f35b6105cd611913565b6040516105da91906137d7565b60405180910390f35b6105fd60048036038101906105f89190612bc8565b611939565b60405161060a919061373b565b60405180910390f35b61061b611978565b60405161062891906137bc565b60405180910390f35b61063961199c565b60405161064691906137bc565b60405180910390f35b6106576119a3565b6040516106649190613a0f565b60405180910390f35b61068760048036038101906106829190612a1f565b6119a9565b604051610694919061380d565b60405180910390f35b6106b760048036038101906106b29190612afe565b611a56565b6040516106c49190613a0f565b60405180910390f35b6106e760048036038101906106e29190612bc8565b611a7a565b6040516106f4919061373b565b60405180910390f35b61071760048036038101906107129190612b27565b611ab9565b005b610721611aed565b60405161072e9190613a0f565b60405180910390f35b61073f611af3565b60405161074c919061373b565b60405180910390f35b61076f600480360381019061076a9190612bc8565b611b19565b005b610779611c1b565b6040516107869190613a0f565b60405180910390f35b6107a960048036038101906107a49190612bc8565b611c21565b005b6107b3611d23565b6040516107c0919061377f565b60405180910390f35b6107e360048036038101906107de91906129ba565b611db1565b6040516107f09190613a0f565b60405180910390f35b60007f5a05180f000000000000000000000000000000000000000000000000000000007bffffffffffffffffffffffffffffffffffffffffffffffffffffffff1916827bffffffffffffffffffffffffffffffffffffffffffffffffffffffff1916148061086c575061086b82611dc9565b5b9050919050565b7f7b765e0e932d348852a6f810bfa1ab891e259123f02db8cdcde614c57022335781565b6108c17f61c92169ef077349011ff0b1383c894d86c5f0b41d986366b58a6cf31e93beda336118a8565b610900576040517f08c379a00000000000000000000000000000000000000000000000000000000081526004016108f79061392f565b60405180910390fd5b6000811415610944576040517f08c379a000000000000000000000000000000000000000000000000000000000815260040161093b9061384f565b60405180910390fd5b8060d58190555060405161095790613683565b60405180910390207ff99dba3a76085484eae2e89cc2e2ee5edffe3f1d25cdd1e6c5757447b9b5b4738260405161098e9190613a0f565b60405180910390a250565b6109c37f61c92169ef077349011ff0b1383c894d86c5f0b41d986366b58a6cf31e93beda336118a8565b610a02576040517f08c379a00000000000000000000000000000000000000000000000000000000081526004016109f99061392f565b60405180910390fd5b605a610a1960d25484611e4390919063ffffffff16565b1115610a5a576040517f08c379a0000000000000000000000000000000000000000000000000000000008152600401610a519061390f565b60405180910390fd5b8160d1819055508060d281905550604051610a74906136fc565b60405180910390207ff99dba3a76085484eae2e89cc2e2ee5edffe3f1d25cdd1e6c5757447b9b5b47360d154604051610aad9190613a0f565b60405180910390a25050565b600060656000838152602001908152602001600020600101549050919050565b610ae38282611e59565b610b088160976000858152602001908152602001600020611e8290919063ffffffff16565b505050565b60d45481565b610b3d7f61c92169ef077349011ff0b1383c894d86c5f0b41d986366b58a6cf31e93beda336118a8565b610b7c576040517f08c379a0000000000000000000000000000000000000000000000000000000008152600401610b739061392f565b60405180910390fd5b6000811415610bc0576040517f08c379a0000000000000000000000000000000000000000000000000000000008152600401610bb7906139af565b60405180910390fd5b8060d781905550604051610bd390613698565b60405180910390207ff99dba3a76085484eae2e89cc2e2ee5edffe3f1d25cdd1e6c5757447b9b5b47382604051610c0a9190613a0f565b60405180910390a250565b60db8181548110610c2557600080fd5b906000526020600020016000915054906101000a900473ffffffffffffffffffffffffffffffffffffffff1681565b610c5e8282611eb2565b610c838160976000858152602001908152602001600020611f3590919063ffffffff16565b505050565b60cb5481565b610cb87f7b765e0e932d348852a6f810bfa1ab891e259123f02db8cdcde614c570223357336118a8565b610cf7576040517f08c379a0000000000000000000000000000000000000000000000000000000008152600401610cee9061396f565b60405180910390fd5b60d960008473ffffffffffffffffffffffffffffffffffffffff1673ffffffffffffffffffffffffffffffffffffffff1681526020019081526020016000206000826002811115610d71577f4e487b7100000000000000000000000000000000000000000000000000000000600052602160045260246000fd5b6002811115610da9577f4e487b7100000000000000000000000000000000000000000000000000000000600052602160045260246000fd5b815260200190815260200160002060009054906101000a900460ff1615610e05576040517f08c379a0000000000000000000000000000000000000000000000000000000008152600401610dfc906138cf565b60405180910390fd5b8160d860008573ffffffffffffffffffffffffffffffffffffffff1673ffffffffffffffffffffffffffffffffffffffff1681526020019081526020016000206000836002811115610e80577f4e487b7100000000000000000000000000000000000000000000000000000000600052602160045260246000fd5b6002811115610eb8577f4e487b7100000000000000000000000000000000000000000000000000000000600052602160045260246000fd5b81526020019081526020016000209080519060200190610ed9929190612846565b50600160d960008573ffffffffffffffffffffffffffffffffffffffff1673ffffffffffffffffffffffffffffffffffffffff1681526020019081526020016000206000836002811115610f56577f4e487b7100000000000000000000000000000000000000000000000000000000600052602160045260246000fd5b6002811115610f8e577f4e487b7100000000000000000000000000000000000000000000000000000000600052602160045260246000fd5b815260200190815260200160002060006101000a81548160ff021916908315150217905550600280811115610fec577f4e487b7100000000000000000000000000000000000000000000000000000000600052602160045260246000fd5b816002811115611025577f4e487b7100000000000000000000000000000000000000000000000000000000600052602160045260246000fd5b14156110935760dc839080600181540180825580915050600190039060005260206000200160009091909190916101000a81548173ffffffffffffffffffffffffffffffffffffffff021916908373ffffffffffffffffffffffffffffffffffffffff160217905550611253565b600160028111156110cd577f4e487b7100000000000000000000000000000000000000000000000000000000600052602160045260246000fd5b816002811115611106577f4e487b7100000000000000000000000000000000000000000000000000000000600052602160045260246000fd5b14156111745760db839080600181540180825580915050600190039060005260206000200160009091909190916101000a81548173ffffffffffffffffffffffffffffffffffffffff021916908373ffffffffffffffffffffffffffffffffffffffff160217905550611252565b600060028111156111ae577f4e487b7100000000000000000000000000000000000000000000000000000000600052602160045260246000fd5b8160028111156111e7577f4e487b7100000000000000000000000000000000000000000000000000000000600052602160045260246000fd5b14156112515760da839080600181540180825580915050600190039060005260206000200160009091909190916101000a81548173ffffffffffffffffffffffffffffffffffffffff021916908373ffffffffffffffffffffffffffffffffffffffff1602179055505b5b5b80600281111561128c577f4e487b7100000000000000000000000000000000000000000000000000000000600052602160045260246000fd5b8373ffffffffffffffffffffffffffffffffffffffff167f8897d4c16f6b907647cc92f3b2f80418ac81581b8e74f9dda595d3910b44c862846040516112d2919061380d565b60405180910390a3505050565b600060019054906101000a900460ff1680611305575060008054906101000a900460ff16155b611344576040517f08c379a000000000000000000000000000000000000000000000000000000000815260040161133b906138ef565b60405180910390fd5b60008060019054906101000a900460ff161590508015611394576001600060016101000a81548160ff02191690831515021790555060016000806101000a81548160ff0219169083151502179055505b600073ffffffffffffffffffffffffffffffffffffffff168373ffffffffffffffffffffffffffffffffffffffff161415611404576040517f08c379a00000000000000000000000000000000000000000000000000000000081526004016113fb9061394f565b60405180910390fd5b600073ffffffffffffffffffffffffffffffffffffffff168273ffffffffffffffffffffffffffffffffffffffff161415611474576040517f08c379a000000000000000000000000000000000000000000000000000000000815260040161146b9061398f565b60405180910390fd5b8260c960006101000a81548173ffffffffffffffffffffffffffffffffffffffff021916908373ffffffffffffffffffffffffffffffffffffffff1602179055508160d360006101000a81548173ffffffffffffffffffffffffffffffffffffffff021916908373ffffffffffffffffffffffffffffffffffffffff160217905550670de0b6b3a764000060cf81905550683635c9adc5dea0000060d081905550602860d181905550602860d281905550600f60d48190555060c860d581905550601e60d681905550605060d7819055506115526000801b33611f65565b80156115735760008060016101000a81548160ff0219169083151502179055505b505050565b60d05481565b60ca60009054906101000a900473ffffffffffffffffffffffffffffffffffffffff1681565b60cf5481565b6115d47f61c92169ef077349011ff0b1383c894d86c5f0b41d986366b58a6cf31e93beda336118a8565b611613576040517f08c379a000000000000000000000000000000000000000000000000000000000815260040161160a9061392f565b60405180910390fd5b6000811415611657576040517f08c379a000000000000000000000000000000000000000000000000000000000815260040161164e9061386f565b60405180910390fd5b8060d48190555060405161166a90613711565b60405180910390207ff99dba3a76085484eae2e89cc2e2ee5edffe3f1d25cdd1e6c5757447b9b5b473826040516116a19190613a0f565b60405180910390a250565b60d65481565b60d96020528160005260406000206020528060005260406000206000915091509054906101000a900460ff1681565b60d75481565b6117117f61c92169ef077349011ff0b1383c894d86c5f0b41d986366b58a6cf31e93beda336118a8565b611750576040517f08c379a00000000000000000000000000000000000000000000000000000000081526004016117479061392f565b60405180910390fd5b6000811415611794576040517f08c379a000000000000000000000000000000000000000000000000000000000815260040161178b906139cf565b60405180910390fd5b8060d6819055506040516117a790613726565b60405180910390207ff99dba3a76085484eae2e89cc2e2ee5edffe3f1d25cdd1e6c5757447b9b5b473826040516117de9190613a0f565b60405180910390a250565b60ce6020528160005260406000206020528060005260406000206000915091509054906101000a900460ff1681565b60cd602052816000526040600020818154811061183457600080fd5b9060005260206000209060020201600091509150508060000160009054906101000a900473ffffffffffffffffffffffffffffffffffffffff16908060010154905082565b60006118a08260976000868152602001908152602001600020611f9990919063ffffffff16565b905092915050565b60006065600084815260200190815260200160002060000160008373ffffffffffffffffffffffffffffffffffffffff1673ffffffffffffffffffffffffffffffffffffffff16815260200190815260200160002060009054906101000a900460ff16905092915050565b60c960009054906101000a900473ffffffffffffffffffffffffffffffffffffffff1681565b60da818154811061194957600080fd5b906000526020600020016000915054906101000a900473ffffffffffffffffffffffffffffffffffffffff1681565b7f61c92169ef077349011ff0b1383c894d86c5f0b41d986366b58a6cf31e93beda81565b6000801b81565b60d55481565b60d86020528160005260406000206020528060005260406000206000915091505080546119d590613d01565b80601f0160208091040260200160405190810160405280929190818152602001828054611a0190613d01565b8015611a4e5780601f10611a2357610100808354040283529160200191611a4e565b820191906000526020600020905b815481529060010190602001808311611a3157829003601f168201915b505050505081565b6000611a7360976000848152602001908152602001600020611fb3565b9050919050565b60dc8181548110611a8a57600080fd5b906000526020600020016000915054906101000a900473ffffffffffffffffffffffffffffffffffffffff1681565b611ac38282611fc8565b611ae88160976000858152602001908152602001600020611f3590919063ffffffff16565b505050565b60d15481565b60d360009054906101000a900473ffffffffffffffffffffffffffffffffffffffff1681565b611b437f61c92169ef077349011ff0b1383c894d86c5f0b41d986366b58a6cf31e93beda336118a8565b611b82576040517f08c379a0000000000000000000000000000000000000000000000000000000008152600401611b799061392f565b60405180910390fd5b6000811415611bc6576040517f08c379a0000000000000000000000000000000000000000000000000000000008152600401611bbd9061388f565b60405180910390fd5b8060cf81905550604051611bd99061366e565b60405180910390207ff99dba3a76085484eae2e89cc2e2ee5edffe3f1d25cdd1e6c5757447b9b5b47382604051611c109190613a0f565b60405180910390a250565b60d25481565b611c4b7f61c92169ef077349011ff0b1383c894d86c5f0b41d986366b58a6cf31e93beda336118a8565b611c8a576040517f08c379a0000000000000000000000000000000000000000000000000000000008152600401611c819061392f565b60405180910390fd5b6000811415611cce576040517f08c379a0000000000000000000000000000000000000000000000000000000008152600401611cc5906138af565b60405180910390fd5b8060d081905550604051611ce1906136ad565b60405180910390207ff99dba3a76085484eae2e89cc2e2ee5edffe3f1d25cdd1e6c5757447b9b5b47382604051611d189190613a0f565b60405180910390a250565b606060db805480602002602001604051908101604052809291908181526020018280548015611da757602002820191906000526020600020905b8160009054906101000a900473ffffffffffffffffffffffffffffffffffffffff1673ffffffffffffffffffffffffffffffffffffffff1681526020019060010190808311611d5d575b5050505050905090565b60cc6020528060005260406000206000915090505481565b60007f7965db0b000000000000000000000000000000000000000000000000000000007bffffffffffffffffffffffffffffffffffffffffffffffffffffffff1916827bffffffffffffffffffffffffffffffffffffffffffffffffffffffff19161480611e3c5750611e3b82611ff1565b5b9050919050565b60008183611e519190613aeb565b905092915050565b611e6282610ab9565b611e7381611e6e61205b565b612063565b611e7d8383612100565b505050565b6000611eaa836000018373ffffffffffffffffffffffffffffffffffffffff1660001b6121e1565b905092915050565b611eba61205b565b73ffffffffffffffffffffffffffffffffffffffff168173ffffffffffffffffffffffffffffffffffffffff1614611f27576040517f08c379a0000000000000000000000000000000000000000000000000000000008152600401611f1e906139ef565b60405180910390fd5b611f318282612251565b5050565b6000611f5d836000018373ffffffffffffffffffffffffffffffffffffffff1660001b612333565b905092915050565b611f6f82826124b9565b611f948160976000858152602001908152602001600020611e8290919063ffffffff16565b505050565b6000611fa883600001836124c7565b60001c905092915050565b6000611fc182600001612518565b9050919050565b611fd182610ab9565b611fe281611fdd61205b565b612063565b611fec8383612251565b505050565b60007f01ffc9a7000000000000000000000000000000000000000000000000000000007bffffffffffffffffffffffffffffffffffffffffffffffffffffffff1916827bffffffffffffffffffffffffffffffffffffffffffffffffffffffff1916149050919050565b600033905090565b61206d82826118a8565b6120fc576120928173ffffffffffffffffffffffffffffffffffffffff166014612529565b6120a08360001c6020612529565b6040516020016120b19291906136c2565b6040516020818303038152906040526040517f08c379a00000000000000000000000000000000000000000000000000000000081526004016120f3919061380d565b60405180910390fd5b5050565b61210a82826118a8565b6121dd5760016065600084815260200190815260200160002060000160008373ffffffffffffffffffffffffffffffffffffffff1673ffffffffffffffffffffffffffffffffffffffff16815260200190815260200160002060006101000a81548160ff02191690831515021790555061218261205b565b73ffffffffffffffffffffffffffffffffffffffff168173ffffffffffffffffffffffffffffffffffffffff16837f2f8788117e7eff1d82e926ec794901d17c78024a50270940304540a733656f0d60405160405180910390a45b5050565b60006121ed8383612823565b61224657826000018290806001815401808255809150506001900390600052602060002001600090919091909150558260000180549050836001016000848152602001908152602001600020819055506001905061224b565b600090505b92915050565b61225b82826118a8565b1561232f5760006065600084815260200190815260200160002060000160008373ffffffffffffffffffffffffffffffffffffffff1673ffffffffffffffffffffffffffffffffffffffff16815260200190815260200160002060006101000a81548160ff0219169083151502179055506122d461205b565b73ffffffffffffffffffffffffffffffffffffffff168173ffffffffffffffffffffffffffffffffffffffff16837ff6391f5c32d9c69d2a47ea670b442974b53935d1edc7fd64eb21e047a839171b60405160405180910390a45b5050565b600080836001016000848152602001908152602001600020549050600081146124ad5760006001826123659190613b9b565b905060006001866000018054905061237d9190613b9b565b90508181146124385760008660000182815481106123c4577f4e487b7100000000000000000000000000000000000000000000000000000000600052603260045260246000fd5b906000526020600020015490508087600001848154811061240e577f4e487b7100000000000000000000000000000000000000000000000000000000600052603260045260246000fd5b90600052602060002001819055508387600101600083815260200190815260200160002081905550505b85600001805480612472577f4e487b7100000000000000000000000000000000000000000000000000000000600052603160045260246000fd5b6001900381819060005260206000200160009055905585600101600086815260200190815260200160002060009055600193505050506124b3565b60009150505b92915050565b6124c38282612100565b5050565b6000826000018281548110612505577f4e487b7100000000000000000000000000000000000000000000000000000000600052603260045260246000fd5b9060005260206000200154905092915050565b600081600001805490509050919050565b60606000600283600261253c9190613b41565b6125469190613aeb565b67ffffffffffffffff811115612585577f4e487b7100000000000000000000000000000000000000000000000000000000600052604160045260246000fd5b6040519080825280601f01601f1916602001820160405280156125b75781602001600182028036833780820191505090505b5090507f300000000000000000000000000000000000000000000000000000000000000081600081518110612615577f4e487b7100000000000000000000000000000000000000000000000000000000600052603260045260246000fd5b60200101907effffffffffffffffffffffffffffffffffffffffffffffffffffffffffffff1916908160001a9053507f78000000000000000000000000000000000000000000000000000000000000008160018151811061269f577f4e487b7100000000000000000000000000000000000000000000000000000000600052603260045260246000fd5b60200101907effffffffffffffffffffffffffffffffffffffffffffffffffffffffffffff1916908160001a905350600060018460026126df9190613b41565b6126e99190613aeb565b90505b60018111156127d5577f3031323334353637383961626364656600000000000000000000000000000000600f861660108110612751577f4e487b7100000000000000000000000000000000000000000000000000000000600052603260045260246000fd5b1a60f81b82828151811061278e577f4e487b7100000000000000000000000000000000000000000000000000000000600052603260045260246000fd5b60200101907effffffffffffffffffffffffffffffffffffffffffffffffffffffffffffff1916908160001a905350600485901c9450806127ce90613cd7565b90506126ec565b5060008414612819576040517f08c379a00000000000000000000000000000000000000000000000000000000081526004016128109061382f565b60405180910390fd5b8091505092915050565b600080836001016000848152602001908152602001600020541415905092915050565b82805461285290613d01565b90600052602060002090601f01602090048101928261287457600085556128bb565b82601f1061288d57805160ff19168380011785556128bb565b828001600101855582156128bb579182015b828111156128ba57825182559160200191906001019061289f565b5b5090506128c891906128cc565b5090565b5b808211156128e55760008160009055506001016128cd565b5090565b60006128fc6128f784613a5b565b613a2a565b90508281526020810184848401111561291457600080fd5b61291f848285613c95565b509392505050565b60008135905061293681613dd1565b92915050565b60008135905061294b81613de8565b92915050565b60008135905061296081613dff565b92915050565b60008135905061297581613e16565b92915050565b600082601f83011261298c57600080fd5b813561299c8482602086016128e9565b91505092915050565b6000813590506129b481613e26565b92915050565b6000602082840312156129cc57600080fd5b60006129da84828501612927565b91505092915050565b600080604083850312156129f657600080fd5b6000612a0485828601612927565b9250506020612a1585828601612927565b9150509250929050565b60008060408385031215612a3257600080fd5b6000612a4085828601612927565b9250506020612a5185828601612966565b9150509250929050565b600080600060608486031215612a7057600080fd5b6000612a7e86828701612927565b935050602084013567ffffffffffffffff811115612a9b57600080fd5b612aa78682870161297b565b9250506040612ab886828701612966565b9150509250925092565b60008060408385031215612ad557600080fd5b6000612ae385828601612927565b9250506020612af4858286016129a5565b9150509250929050565b600060208284031215612b1057600080fd5b6000612b1e8482850161293c565b91505092915050565b60008060408385031215612b3a57600080fd5b6000612b488582860161293c565b9250506020612b5985828601612927565b9150509250929050565b60008060408385031215612b7657600080fd5b6000612b848582860161293c565b9250506020612b95858286016129a5565b9150509250929050565b600060208284031215612bb157600080fd5b6000612bbf84828501612951565b91505092915050565b600060208284031215612bda57600080fd5b6000612be8848285016129a5565b91505092915050565b60008060408385031215612c0457600080fd5b6000612c12858286016129a5565b9250506020612c23858286016129a5565b9150509250929050565b6000612c398383612c45565b60208301905092915050565b612c4e81613bcf565b82525050565b612c5d81613bcf565b82525050565b6000612c6e82613a9b565b612c788185613abe565b9350612c8383613a8b565b8060005b83811015612cb4578151612c9b8882612c2d565b9750612ca683613ab1565b925050600181019050612c87565b5085935050505092915050565b612cca81613be1565b82525050565b612cd981613bed565b82525050565b612ce881613c4d565b82525050565b612cf781613c71565b82525050565b6000612d0882613aa6565b612d128185613acf565b9350612d22818560208601613ca4565b612d2b81613dc0565b840191505092915050565b6000612d4182613aa6565b612d4b8185613ae0565b9350612d5b818560208601613ca4565b80840191505092915050565b6000612d74602083613acf565b91507f537472696e67733a20686578206c656e67746820696e73756666696369656e746000830152602082019050919050565b6000612db4600d83613ae0565b91507f75706461746552657761726473000000000000000000000000000000000000006000830152600d82019050919050565b6000612df4604d83613acf565b91507f4d656d626572733a757064617465456e74657270726973654d61746368202d2060008301527f4e65772076616c756520666f722074686520656e7465727072697365206d617460208301527f63682063616e27742062652030000000000000000000000000000000000000006040830152606082019050919050565b6000612e80605183613acf565b91507f4d656d626572733a757064617465506c6174666f726d536861726556616c696460008301527f6174696f6e202d204e65772076616c756520666f722074686520706c6174666f60208301527f726d206665652063616e277420626520300000000000000000000000000000006040830152606082019050919050565b6000612f0c601583613ae0565b91507f757064617465456e74657270726973654d6174636800000000000000000000006000830152601582019050919050565b6000612f4c604783613acf565b91507f4d656d626572733a757064617465546f6b656e7350657256616c69646174696f60008301527f6e202d204e65772076616c756520666f7220746865207265776172642063616e60208301527f27742062652030000000000000000000000000000000000000000000000000006040830152606082019050919050565b6000612fd8604183613acf565b91507f4d656d626572733a757064617465416363657373466565202d204e657720766160008301527f6c756520666f722074686520616363657373206665652063616e27742062652060208301527f30000000000000000000000000000000000000000000000000000000000000006040830152606082019050919050565b6000613064602a83613acf565b91507f4d656d626572733a61646455736572202d2054686973207573657220616c726560008301527f6164792065786973742e000000000000000000000000000000000000000000006020830152604082019050919050565b60006130ca602e83613acf565b91507f496e697469616c697a61626c653a20636f6e747261637420697320616c72656160008301527f647920696e697469616c697a65640000000000000000000000000000000000006020830152604082019050919050565b6000613130600c83613ae0565b91507f75706461746551756f72756d00000000000000000000000000000000000000006000830152600c82019050919050565b6000613170603783613acf565b91507f456e746572707269736520616e642056616c696461746f72207368617265732060008301527f63616e2774206265206c6172676572207468616e2039300000000000000000006020830152604082019050919050565b60006131d6602983613acf565b91507f4d656d626572733a6973536574746572202d2043616c6c6572206973206e6f7460008301527f20612073657474657200000000000000000000000000000000000000000000006020830152604082019050919050565b600061323c603483613acf565b91507f4d656d626572733a636f6e7374727563746f72202d20417564697420746f6b6560008301527f6e20616464726573732063616e277420626520300000000000000000000000006020830152604082019050919050565b60006132a2600f83613ae0565b91507f75706461746541636365737346656500000000000000000000000000000000006000830152600f82019050919050565b60006132e2603183613acf565b91507f4d656d626572733a4973436f6e74726f6c6c6572202d2043616c6c657220697360008301527f206e6f74206120636f6e74726f6c6c65720000000000000000000000000000006020830152604082019050919050565b6000613348603183613acf565b91507f4d656d626572733a636f6e7374727563746f72202d20506c6174666f726d206160008301527f6464726573732063616e277420626520300000000000000000000000000000006020830152604082019050919050565b60006133ae601783613ae0565b91507f416363657373436f6e74726f6c3a206163636f756e74200000000000000000006000830152601782019050919050565b60006133ee603283613acf565b91507f4d656d626572733a75706461746551756f72756d202d204e65772071756f727560008301527f6d2076616c75652063616e2774206265203000000000000000000000000000006020830152604082019050919050565b6000613454604c83613acf565b91507f4d656d626572733a7570646174654d696e4465706f73697444617973202d204e60008301527f65772076616c756520666f7220746865206d696e206465706f7369742064617960208301527f732063616e2774206265203000000000000000000000000000000000000000006040830152606082019050919050565b60006134e0602583613ae0565b91507f75706461746544617461537562736372696265725368617265733a456e74657260008301527f70726973650000000000000000000000000000000000000000000000000000006020830152602582019050919050565b6000613546601d83613ae0565b91507f757064617465506c6174666f726d536861726556616c69646174696f6e0000006000830152601d82019050919050565b6000613586601483613ae0565b91507f7570646174654d696e4465706f736974446179730000000000000000000000006000830152601482019050919050565b60006135c6601183613ae0565b91507f206973206d697373696e6720726f6c65200000000000000000000000000000006000830152601182019050919050565b6000613606602f83613acf565b91507f416363657373436f6e74726f6c3a2063616e206f6e6c792072656e6f756e636560008301527f20726f6c657320666f722073656c6600000000000000000000000000000000006020830152604082019050919050565b61366881613c43565b82525050565b600061367982612da7565b9150819050919050565b600061368e82612eff565b9150819050919050565b60006136a382613123565b9150819050919050565b60006136b882613295565b9150819050919050565b60006136cd826133a1565b91506136d98285612d36565b91506136e4826135b9565b91506136f08284612d36565b91508190509392505050565b6000613707826134d3565b9150819050919050565b600061371c82613539565b9150819050919050565b600061373182613579565b9150819050919050565b60006020820190506137506000830184612c54565b92915050565b600060408201905061376b6000830185612c54565b613778602083018461365f565b9392505050565b600060208201905081810360008301526137998184612c63565b905092915050565b60006020820190506137b66000830184612cc1565b92915050565b60006020820190506137d16000830184612cd0565b92915050565b60006020820190506137ec6000830184612cdf565b92915050565b60006020820190506138076000830184612cee565b92915050565b600060208201905081810360008301526138278184612cfd565b905092915050565b6000602082019050818103600083015261384881612d67565b9050919050565b6000602082019050818103600083015261386881612de7565b9050919050565b6000602082019050818103600083015261388881612e73565b9050919050565b600060208201905081810360008301526138a881612f3f565b9050919050565b600060208201905081810360008301526138c881612fcb565b9050919050565b600060208201905081810360008301526138e881613057565b9050919050565b60006020820190508181036000830152613908816130bd565b9050919050565b6000602082019050818103600083015261392881613163565b9050919050565b60006020820190508181036000830152613948816131c9565b9050919050565b600060208201905081810360008301526139688161322f565b9050919050565b60006020820190508181036000830152613988816132d5565b9050919050565b600060208201905081810360008301526139a88161333b565b9050919050565b600060208201905081810360008301526139c8816133e1565b9050919050565b600060208201905081810360008301526139e881613447565b9050919050565b60006020820190508181036000830152613a08816135f9565b9050919050565b6000602082019050613a24600083018461365f565b92915050565b6000604051905081810181811067ffffffffffffffff82111715613a5157613a50613d91565b5b8060405250919050565b600067ffffffffffffffff821115613a7657613a75613d91565b5b601f19601f8301169050602081019050919050565b6000819050602082019050919050565b600081519050919050565b600081519050919050565b6000602082019050919050565b600082825260208201905092915050565b600082825260208201905092915050565b600081905092915050565b6000613af682613c43565b9150613b0183613c43565b9250827fffffffffffffffffffffffffffffffffffffffffffffffffffffffffffffffff03821115613b3657613b35613d33565b5b828201905092915050565b6000613b4c82613c43565b9150613b5783613c43565b9250817fffffffffffffffffffffffffffffffffffffffffffffffffffffffffffffffff0483118215151615613b9057613b8f613d33565b5b828202905092915050565b6000613ba682613c43565b9150613bb183613c43565b925082821015613bc457613bc3613d33565b5b828203905092915050565b6000613bda82613c23565b9050919050565b60008115159050919050565b6000819050919050565b60007fffffffff0000000000000000000000000000000000000000000000000000000082169050919050565b600073ffffffffffffffffffffffffffffffffffffffff82169050919050565b6000819050919050565b6000613c5882613c5f565b9050919050565b6000613c6a82613c23565b9050919050565b6000613c7c82613c83565b9050919050565b6000613c8e82613c23565b9050919050565b82818337600083830152505050565b60005b83811015613cc2578082015181840152602081019050613ca7565b83811115613cd1576000848401525b50505050565b6000613ce282613c43565b91506000821415613cf657613cf5613d33565b5b600182039050919050565b60006002820490506001821680613d1957607f821691505b60208210811415613d2d57613d2c613d62565b5b50919050565b7f4e487b7100000000000000000000000000000000000000000000000000000000600052601160045260246000fd5b7f4e487b7100000000000000000000000000000000000000000000000000000000600052602260045260246000fd5b7f4e487b7100000000000000000000000000000000000000000000000000000000600052604160045260246000fd5b6000601f19601f8301169050919050565b613dda81613bcf565b8114613de557600080fd5b50565b613df181613bed565b8114613dfc57600080fd5b50565b613e0881613bf7565b8114613e1357600080fd5b50565b60038110613e2357600080fd5b50565b613e2f81613c43565b8114613e3a57600080fd5b5056fea264697066735822122051ab55ff14318c59575db32738ca03212f047674097e977e0d1f93a986d6ee6664736f6c63430008000033",
  "immutableReferences": {},
  "source": "// SPDX-License-Identifier: MIT\npragma solidity =0.8.0;\npragma experimental ABIEncoderV2;\nimport \"@openzeppelin/contracts-upgradeable/access/AccessControlEnumerableUpgradeable.sol\";\n// import \"@openzeppelin/contracts-upgradeable/token/ERC20/IERC20Upgradeable.sol\";\nimport \"@openzeppelin/contracts-upgradeable/utils/math/SafeMathUpgradeable.sol\";\nimport \"@openzeppelin/contracts-upgradeable/token/ERC20/utils/SafeERC20Upgradeable.sol\";\n\nimport \"./ICohortFactory.sol\";\nimport \"./../IAuditToken.sol\";\n\n/**\n * @title Members\n * Allows on creation of Enterprise and Validator accounts and staking of funds by validators\n * Validators and enterprises have ability to withdraw their staking and earnings \n * Contract also contains several update functions controlled by the Governance contracts\n */\n\ncontract Members is  AccessControlEnumerableUpgradeable {\n\n    using SafeMathUpgradeable for uint256;\n    // using SafeERC20 for AuditToken;\n\n    struct DataSubscriberTypes{\n        address cohort;\n        uint256 audits;\n    }\n\n    bytes32 public constant CONTROLLER_ROLE = keccak256(\"CONTROLLER_ROLE\");\n    bytes32 public constant SETTER_ROLE =  keccak256(\"SETTER_ROLE\");\n\n    IAuditToken public auditToken;                       //AUDT token \n    ICohortFactory public cohortFactory;\n    uint256 public stakedAmount;                        //total number of staked tokens   \n    mapping(address => uint256) public deposits;        //track deposits per user\n    mapping(address => DataSubscriberTypes[]) public dataSubscriberCohorts;\n    mapping(address => mapping(address => bool)) public dataSubscriberCohortMap;\n    uint256 public amountTokensPerValidation ;    //New minted amount per validation\n\n    uint256 public accessFee;\n    uint256 public enterpriseShareSubscriber;\n    uint256 public validatorShareSubscriber;\n    address public platformAddress;\n    uint256 public platformShareValidation;    \n    uint256 public enterpriseMatch;         \n    uint256 public minDepositDays;\n    uint256 public requiredQuorum;             // quorum required to consider validation valid\n\n     // Audit types to be used. Two types added for future expansion \n    mapping(address => mapping(UserType => string)) public user;\n    mapping(address => mapping(UserType => bool)) public userMap;\n    address[] public enterprises;\n    address[] public validators;\n    address[] public dataSubscribers;\n\n    enum UserType {Enterprise, Validator, DataSubscriber}  \n    \n    event UserAdded(address indexed user, string name, UserType indexed userType);\n    event LogGovernanceUpdate(uint256 params, string indexed action);\n\n    \n    /// @dev check if caller is a controller     \n    modifier isController {\n        require(hasRole(CONTROLLER_ROLE, msg.sender), \"Members:IsController - Caller is not a controller\");\n\n        _;\n    }\n\n    /// @dev check if caller is a setter     \n    modifier isSetter {\n        require(hasRole(SETTER_ROLE, msg.sender), \"Members:isSetter - Caller is not a setter\");\n\n        _;\n    }\n\n    function initialize(address _auditToken, address _platformAddress ) initializer public {\n\n\n        require(_auditToken != address(0), \"Members:constructor - Audit token address can't be 0\");\n        require(_platformAddress != address(0), \"Members:constructor - Platform address can't be 0\");\n        auditToken = IAuditToken(_auditToken);        \n        platformAddress = _platformAddress;\n        amountTokensPerValidation =  1e18;  \n        accessFee = 1000e18;\n        enterpriseShareSubscriber = 40;\n        validatorShareSubscriber = 40;\n        platformShareValidation = 15;    \n        enterpriseMatch = 200;       \n        minDepositDays = 30;\n        requiredQuorum = 80;\n        _setupRole(DEFAULT_ADMIN_ROLE, msg.sender);\n    }\n\n   \n     \n    /**\n     * @dev to be called by governance to update new amount for required quorum\n     * @param _requiredQuorum new value of required quorum\n     */\n    function updateQuorum(uint256 _requiredQuorum) public isSetter() {\n        require(_requiredQuorum != 0, \"Members:updateQuorum - New quorum value can't be 0\");\n        requiredQuorum = _requiredQuorum;\n        LogGovernanceUpdate(_requiredQuorum, \"updateQuorum\");\n    }\n\n\n    /**\n    * @dev to be called by Governance contract to update new value for the validation platform fee\n    * @param _newFee new value for data subscriber access fee\n    */\n    function updatePlatformShareValidation(uint256 _newFee) public isSetter() {\n\n        require(_newFee != 0, \"Members:updatePlatformShareValidation - New value for the platform fee can't be 0\");\n        platformShareValidation = _newFee;\n        emit LogGovernanceUpdate(_newFee, \"updatePlatformShareValidation\");\n    }\n\n    /**\n    * @dev to be called by Governance contract to update new value for data sub access fee\n    * @param _accessFee new value for data subscriber access fee\n    */\n    function updateAccessFee(uint256 _accessFee) public isSetter() {\n\n        require(_accessFee != 0, \"Members:updateAccessFee - New value for the access fee can't be 0\");\n        accessFee = _accessFee;\n        emit LogGovernanceUpdate(_accessFee, \"updateAccessFee\");\n    }\n\n     /**\n    * @dev to be called by Governance contract to update new amount for validation rewards\n    * @param _minDepositDays new value for minimum of days to calculate \n    */\n    function updateMinDepositDays(uint256 _minDepositDays) public isSetter() {\n\n        require(_minDepositDays != 0, \"Members:updateMinDepositDays - New value for the min deposit days can't be 0\");\n        minDepositDays = _minDepositDays;\n        emit LogGovernanceUpdate(_minDepositDays, \"updateMinDepositDays\");\n    }\n\n    /**\n    * @dev to be called by Governance contract to update new amount for validation rewards\n    * @param _amountTokensPerValidation new value of reward per validation\n    */\n    function updateTokensPerValidation(uint256 _amountTokensPerValidation) public isSetter() {\n\n        require(_amountTokensPerValidation != 0, \"Members:updateTokensPerValidation - New value for the reward can't be 0\");\n        amountTokensPerValidation = _amountTokensPerValidation;\n        emit LogGovernanceUpdate(_amountTokensPerValidation, \"updateRewards\");\n\n    }\n    \n    /**\n    * @dev to be called by Governance contract\n    * @param _enterpriseMatch new value of enterprise portion of enterprise value of validation cost\n    */\n    function updateEnterpriseMatch(uint256 _enterpriseMatch) public isSetter()  {\n\n        require(_enterpriseMatch != 0, \"Members:updateEnterpriseMatch - New value for the enterprise match can't be 0\");\n        enterpriseMatch = _enterpriseMatch;\n        emit LogGovernanceUpdate(_enterpriseMatch, \"updateEnterpriseMatch\");\n\n    }\n\n    /**\n    * @dev to be called by Governance contract to change enterprise and validators shares\n    * of data subscription fees. \n    * @param _enterpriseShareSubscriber  - share of the enterprise\n    * @param _validatorShareSubscriber - share of the subscribers\n    */\n    function updateDataSubscriberShares(uint256 _enterpriseShareSubscriber, uint256 _validatorShareSubscriber ) public isSetter()  {\n\n        // platform share should be at least 10%\n        require(_enterpriseShareSubscriber.add(validatorShareSubscriber) <=90, \"Enterprise and Validator shares can't be larger than 90\");\n        enterpriseShareSubscriber = _enterpriseShareSubscriber;\n        validatorShareSubscriber = _validatorShareSubscriber;\n        emit LogGovernanceUpdate(enterpriseShareSubscriber, \"updateDataSubscriberShares:Enterprise\");\n    }\n\n   \n    /** \n    * @dev add new platform user\n    * @param newUser to add\n    * @param name name of the user\n    * @param userType  type of the user, enterprise, validator or data subscriber\n    */\n    function addUser(address newUser, string memory name, UserType userType) public isController() {\n\n        require(!userMap[newUser][userType], \"Members:addUser - This user already exist.\");\n        user[newUser][userType] = name;\n        userMap[newUser][userType] = true;\n\n        if (userType == UserType.DataSubscriber) \n            dataSubscribers.push(newUser);\n        else if (userType == UserType.Validator)\n            validators.push(newUser);\n        else if (userType == UserType.Enterprise)\n            enterprises.push(newUser);\n     \n        emit UserAdded(newUser, name, userType);\n    }\n\n    function returnValidatorList() public view returns(address[] memory) {\n\n        return validators;\n    }\n\n}\n",
  "sourcePath": "/home/win2win/eth/projects/AuditChain/Core-Smart-Contracts-v1-upgradable/contracts/Auditchain/Members.sol",
  "compiler": {
    "name": "solc",
    "version": "0.8.0+commit.c7dfd78e.Emscripten.clang"
  },
  "schemaVersion": "3.4.1",
  "updatedAt": "2022-05-03T20:34:42.717Z",
  "networkType": "ethereum",
  "devdoc": {
    "kind": "dev",
    "methods": {
      "addUser(address,string,uint8)": {
        "details": "add new platform user",
        "params": {
          "name": "name of the user",
          "newUser": "to add",
          "userType": "type of the user, enterprise, validator or data subscriber"
        }
      },
      "getRoleAdmin(bytes32)": {
        "details": "Returns the admin role that controls `role`. See {grantRole} and {revokeRole}. To change a role's admin, use {_setRoleAdmin}."
      },
      "getRoleMember(bytes32,uint256)": {
        "details": "Returns one of the accounts that have `role`. `index` must be a value between 0 and {getRoleMemberCount}, non-inclusive. Role bearers are not sorted in any particular way, and their ordering may change at any point. WARNING: When using {getRoleMember} and {getRoleMemberCount}, make sure you perform all queries on the same block. See the following https://forum.openzeppelin.com/t/iterating-over-elements-on-enumerableset-in-openzeppelin-contracts/2296[forum post] for more information."
      },
      "getRoleMemberCount(bytes32)": {
        "details": "Returns the number of accounts that have `role`. Can be used together with {getRoleMember} to enumerate all bearers of a role."
      },
      "grantRole(bytes32,address)": {
        "details": "Overload {grantRole} to track enumerable memberships"
      },
      "hasRole(bytes32,address)": {
        "details": "Returns `true` if `account` has been granted `role`."
      },
      "renounceRole(bytes32,address)": {
        "details": "Overload {renounceRole} to track enumerable memberships"
      },
      "revokeRole(bytes32,address)": {
        "details": "Overload {revokeRole} to track enumerable memberships"
      },
      "supportsInterface(bytes4)": {
        "details": "See {IERC165-supportsInterface}."
      },
      "updateAccessFee(uint256)": {
        "details": "to be called by Governance contract to update new value for data sub access fee",
        "params": {
          "_accessFee": "new value for data subscriber access fee"
        }
      },
      "updateDataSubscriberShares(uint256,uint256)": {
        "details": "to be called by Governance contract to change enterprise and validators shares of data subscription fees. ",
        "params": {
          "_enterpriseShareSubscriber": "- share of the enterprise",
          "_validatorShareSubscriber": "- share of the subscribers"
        }
      },
      "updateEnterpriseMatch(uint256)": {
        "details": "to be called by Governance contract",
        "params": {
          "_enterpriseMatch": "new value of enterprise portion of enterprise value of validation cost"
        }
      },
      "updateMinDepositDays(uint256)": {
        "details": "to be called by Governance contract to update new amount for validation rewards",
        "params": {
          "_minDepositDays": "new value for minimum of days to calculate "
        }
      },
      "updatePlatformShareValidation(uint256)": {
        "details": "to be called by Governance contract to update new value for the validation platform fee",
        "params": {
          "_newFee": "new value for data subscriber access fee"
        }
      },
      "updateQuorum(uint256)": {
        "details": "to be called by governance to update new amount for required quorum",
        "params": {
          "_requiredQuorum": "new value of required quorum"
        }
      },
      "updateTokensPerValidation(uint256)": {
        "details": "to be called by Governance contract to update new amount for validation rewards",
        "params": {
          "_amountTokensPerValidation": "new value of reward per validation"
        }
      }
    },
    "title": "Members Allows on creation of Enterprise and Validator accounts and staking of funds by validators Validators and enterprises have ability to withdraw their staking and earnings  Contract also contains several update functions controlled by the Governance contracts",
    "version": 1
  },
  "userdoc": {
    "kind": "user",
    "methods": {},
    "version": 1
  }
}