{
  "contractName": "MemberHelpers",
  "abi": [
    {
      "anonymous": false,
      "inputs": [
        {
          "indexed": false,
          "internalType": "address",
          "name": "user",
          "type": "address"
        },
        {
          "indexed": false,
          "internalType": "uint256",
          "name": "amount",
          "type": "uint256"
        }
      ],
      "name": "LogDecreaseDeposit",
      "type": "event"
    },
    {
      "anonymous": false,
      "inputs": [
        {
          "indexed": true,
          "internalType": "address",
          "name": "from",
          "type": "address"
        },
        {
          "indexed": false,
          "internalType": "uint256",
          "name": "amount",
          "type": "uint256"
        }
      ],
      "name": "LogDepositReceived",
      "type": "event"
    },
    {
      "anonymous": false,
      "inputs": [
        {
          "indexed": true,
          "internalType": "address",
          "name": "from",
          "type": "address"
        },
        {
          "indexed": false,
          "internalType": "uint256",
          "name": "amount",
          "type": "uint256"
        }
      ],
      "name": "LogDepositRedeemed",
      "type": "event"
    },
    {
      "anonymous": false,
      "inputs": [
        {
          "indexed": false,
          "internalType": "address",
          "name": "user",
          "type": "address"
        },
        {
          "indexed": false,
          "internalType": "uint256",
          "name": "amount",
          "type": "uint256"
        }
      ],
      "name": "LogIncreaseDeposit",
      "type": "event"
    },
    {
      "anonymous": false,
      "inputs": [
        {
          "indexed": true,
          "internalType": "bytes32",
          "name": "role",
          "type": "bytes32"
        },
        {
          "indexed": true,
          "internalType": "bytes32",
          "name": "previousAdminRole",
          "type": "bytes32"
        },
        {
          "indexed": true,
          "internalType": "bytes32",
          "name": "newAdminRole",
          "type": "bytes32"
        }
      ],
      "name": "RoleAdminChanged",
      "type": "event"
    },
    {
      "anonymous": false,
      "inputs": [
        {
          "indexed": true,
          "internalType": "bytes32",
          "name": "role",
          "type": "bytes32"
        },
        {
          "indexed": true,
          "internalType": "address",
          "name": "account",
          "type": "address"
        },
        {
          "indexed": true,
          "internalType": "address",
          "name": "sender",
          "type": "address"
        }
      ],
      "name": "RoleGranted",
      "type": "event"
    },
    {
      "anonymous": false,
      "inputs": [
        {
          "indexed": true,
          "internalType": "bytes32",
          "name": "role",
          "type": "bytes32"
        },
        {
          "indexed": true,
          "internalType": "address",
          "name": "account",
          "type": "address"
        },
        {
          "indexed": true,
          "internalType": "address",
          "name": "sender",
          "type": "address"
        }
      ],
      "name": "RoleRevoked",
      "type": "event"
    },
    {
      "inputs": [],
      "name": "CONTROLLER_ROLE",
      "outputs": [
        {
          "internalType": "bytes32",
          "name": "",
          "type": "bytes32"
        }
      ],
      "stateMutability": "view",
      "type": "function"
    },
    {
      "inputs": [],
      "name": "DEFAULT_ADMIN_ROLE",
      "outputs": [
        {
          "internalType": "bytes32",
          "name": "",
          "type": "bytes32"
        }
      ],
      "stateMutability": "view",
      "type": "function"
    },
    {
      "inputs": [],
      "name": "auditToken",
      "outputs": [
        {
          "internalType": "address",
          "name": "",
          "type": "address"
        }
      ],
      "stateMutability": "view",
      "type": "function"
    },
    {
      "inputs": [
        {
          "internalType": "address",
          "name": "",
          "type": "address"
        }
      ],
      "name": "deposits",
      "outputs": [
        {
          "internalType": "uint256",
          "name": "",
          "type": "uint256"
        }
      ],
      "stateMutability": "view",
      "type": "function"
    },
    {
      "inputs": [
        {
          "internalType": "bytes32",
          "name": "role",
          "type": "bytes32"
        }
      ],
      "name": "getRoleAdmin",
      "outputs": [
        {
          "internalType": "bytes32",
          "name": "",
          "type": "bytes32"
        }
      ],
      "stateMutability": "view",
      "type": "function"
    },
    {
      "inputs": [
        {
          "internalType": "bytes32",
          "name": "role",
          "type": "bytes32"
        },
        {
          "internalType": "uint256",
          "name": "index",
          "type": "uint256"
        }
      ],
      "name": "getRoleMember",
      "outputs": [
        {
          "internalType": "address",
          "name": "",
          "type": "address"
        }
      ],
      "stateMutability": "view",
      "type": "function"
    },
    {
      "inputs": [
        {
          "internalType": "bytes32",
          "name": "role",
          "type": "bytes32"
        }
      ],
      "name": "getRoleMemberCount",
      "outputs": [
        {
          "internalType": "uint256",
          "name": "",
          "type": "uint256"
        }
      ],
      "stateMutability": "view",
      "type": "function"
    },
    {
      "inputs": [
        {
          "internalType": "bytes32",
          "name": "role",
          "type": "bytes32"
        },
        {
          "internalType": "address",
          "name": "account",
          "type": "address"
        }
      ],
      "name": "grantRole",
      "outputs": [],
      "stateMutability": "nonpayable",
      "type": "function"
    },
    {
      "inputs": [
        {
          "internalType": "bytes32",
          "name": "role",
          "type": "bytes32"
        },
        {
          "internalType": "address",
          "name": "account",
          "type": "address"
        }
      ],
      "name": "hasRole",
      "outputs": [
        {
          "internalType": "bool",
          "name": "",
          "type": "bool"
        }
      ],
      "stateMutability": "view",
      "type": "function"
    },
    {
      "inputs": [],
      "name": "maxContribution",
      "outputs": [
        {
          "internalType": "uint256",
          "name": "",
          "type": "uint256"
        }
      ],
      "stateMutability": "view",
      "type": "function"
    },
    {
      "inputs": [],
      "name": "members",
      "outputs": [
        {
          "internalType": "contract Members",
          "name": "",
          "type": "address"
        }
      ],
      "stateMutability": "view",
      "type": "function"
    },
    {
      "inputs": [],
      "name": "minContribution",
      "outputs": [
        {
          "internalType": "uint256",
          "name": "",
          "type": "uint256"
        }
      ],
      "stateMutability": "view",
      "type": "function"
    },
    {
      "inputs": [
        {
          "internalType": "bytes32",
          "name": "role",
          "type": "bytes32"
        },
        {
          "internalType": "address",
          "name": "account",
          "type": "address"
        }
      ],
      "name": "renounceRole",
      "outputs": [],
      "stateMutability": "nonpayable",
      "type": "function"
    },
    {
      "inputs": [
        {
          "internalType": "bytes32",
          "name": "role",
          "type": "bytes32"
        },
        {
          "internalType": "address",
          "name": "account",
          "type": "address"
        }
      ],
      "name": "revokeRole",
      "outputs": [],
      "stateMutability": "nonpayable",
      "type": "function"
    },
    {
      "inputs": [
        {
          "internalType": "bytes4",
          "name": "interfaceId",
          "type": "bytes4"
        }
      ],
      "name": "supportsInterface",
      "outputs": [
        {
          "internalType": "bool",
          "name": "",
          "type": "bool"
        }
      ],
      "stateMutability": "view",
      "type": "function"
    },
    {
      "inputs": [],
      "name": "totalStaked",
      "outputs": [
        {
          "internalType": "uint256",
          "name": "",
          "type": "uint256"
        }
      ],
      "stateMutability": "view",
      "type": "function"
    },
    {
      "inputs": [],
      "name": "validations",
      "outputs": [
        {
          "internalType": "contract IValidations",
          "name": "",
          "type": "address"
        }
      ],
      "stateMutability": "view",
      "type": "function"
    },
    {
      "inputs": [
        {
          "internalType": "address",
          "name": "_members",
          "type": "address"
        },
        {
          "internalType": "address",
          "name": "_auditToken",
          "type": "address"
        }
      ],
      "name": "initialize",
      "outputs": [],
      "stateMutability": "nonpayable",
      "type": "function"
    },
    {
      "inputs": [
        {
          "internalType": "address",
          "name": "user",
          "type": "address"
        }
      ],
      "name": "returnDepositAmount",
      "outputs": [
        {
          "internalType": "uint256",
          "name": "",
          "type": "uint256"
        }
      ],
      "stateMutability": "view",
      "type": "function"
    },
    {
      "inputs": [
        {
          "internalType": "address",
          "name": "user",
          "type": "address"
        },
        {
          "internalType": "uint256",
          "name": "amount",
          "type": "uint256"
        }
      ],
      "name": "increaseDeposit",
      "outputs": [
        {
          "internalType": "bool",
          "name": "",
          "type": "bool"
        }
      ],
      "stateMutability": "nonpayable",
      "type": "function"
    },
    {
      "inputs": [
        {
          "internalType": "address",
          "name": "user",
          "type": "address"
        },
        {
          "internalType": "uint256",
          "name": "amount",
          "type": "uint256"
        }
      ],
      "name": "decreaseDeposit",
      "outputs": [
        {
          "internalType": "bool",
          "name": "",
          "type": "bool"
        }
      ],
      "stateMutability": "nonpayable",
      "type": "function"
    },
    {
      "inputs": [
        {
          "internalType": "uint256",
          "name": "amount",
          "type": "uint256"
        }
      ],
      "name": "stake",
      "outputs": [],
      "stateMutability": "nonpayable",
      "type": "function"
    },
    {
      "inputs": [
        {
          "internalType": "uint256",
          "name": "amount",
          "type": "uint256"
        }
      ],
      "name": "redeem",
      "outputs": [],
      "stateMutability": "nonpayable",
      "type": "function"
    },
    {
      "inputs": [
        {
          "internalType": "address",
          "name": "_validations",
          "type": "address"
        }
      ],
      "name": "setValidation",
      "outputs": [],
      "stateMutability": "nonpayable",
      "type": "function"
    }
  ],
  "bytecode": "0x608060405234801561001057600080fd5b506139af806100206000396000f3fe608060405234801561001057600080fd5b50600436106101585760003560e01c8063a217fddf116100c3578063ca15c8731161007c578063ca15c873146103db578063d417b7b31461040b578063d547741f1461043b578063db006a7514610457578063de17f72014610473578063fc7e286d1461049157610158565b8063a217fddf14610319578063a264c7cf14610337578063a694fc3a14610353578063aaffadf31461036f578063bdd4d18d1461038d578063c3fb1a6e146103ab57610158565b8063817b1cd211610115578063817b1cd21461022f5780638319d3901461024d5780638d3d65761461027d5780639010d07c1461029b57806391d14854146102cb57806398c3c116146102fb57610158565b806301ffc9a71461015d578063092c5b3b1461018d578063248a9ca3146101ab5780632f2ff15d146101db57806336568abe146101f7578063485cc95514610213575b600080fd5b61017760048036038101906101729190612a8e565b6104c1565b6040516101849190613351565b60405180910390f35b61019561053b565b6040516101a2919061336c565b60405180910390f35b6101c560048036038101906101c091906129ed565b61055f565b6040516101d2919061336c565b60405180910390f35b6101f560048036038101906101f09190612a16565b61057f565b005b610211600480360381019061020c9190612a16565b6105b3565b005b61022d6004803603810190610228919061294c565b6105e7565b005b61023761077d565b604051610244919061359f565b60405180910390f35b61026760048036038101906102629190612923565b610784565b604051610274919061359f565b60405180910390f35b6102856107cd565b604051610292919061359f565b60405180910390f35b6102b560048036038101906102b09190612a52565b6107d4565b6040516102c291906132ad565b60405180910390f35b6102e560048036038101906102e09190612a16565b610803565b6040516102f29190613351565b60405180910390f35b61030361086e565b60405161031091906132ad565b60405180910390f35b610321610894565b60405161032e919061336c565b60405180910390f35b610351600480360381019061034c9190612923565b61089b565b005b61036d60048036038101906103689190612ab7565b610a18565b005b61037761110c565b604051610384919061359f565b60405180910390f35b610395611112565b6040516103a291906133a2565b60405180910390f35b6103c560048036038101906103c09190612988565b611138565b6040516103d29190613351565b60405180910390f35b6103f560048036038101906103f091906129ed565b6112db565b604051610402919061359f565b60405180910390f35b61042560048036038101906104209190612988565b6112ff565b6040516104329190613351565b60405180910390f35b61045560048036038101906104509190612a16565b6114a2565b005b610471600480360381019061046c9190612ab7565b6114d6565b005b61047b611a2c565b6040516104889190613387565b60405180910390f35b6104ab60048036038101906104a69190612923565b611a52565b6040516104b8919061359f565b60405180910390f35b60007f5a05180f000000000000000000000000000000000000000000000000000000007bffffffffffffffffffffffffffffffffffffffffffffffffffffffff1916827bffffffffffffffffffffffffffffffffffffffffffffffffffffffff19161480610534575061053382611a6a565b5b9050919050565b7f7b765e0e932d348852a6f810bfa1ab891e259123f02db8cdcde614c57022335781565b600060656000838152602001908152602001600020600101549050919050565b6105898282611ae4565b6105ae8160976000858152602001908152602001600020611b0d90919063ffffffff16565b505050565b6105bd8282611b3d565b6105e28160976000858152602001908152602001600020611bc090919063ffffffff16565b505050565b600073ffffffffffffffffffffffffffffffffffffffff168273ffffffffffffffffffffffffffffffffffffffff161415610657576040517f08c379a000000000000000000000000000000000000000000000000000000000815260040161064e9061341f565b60405180910390fd5b600073ffffffffffffffffffffffffffffffffffffffff168173ffffffffffffffffffffffffffffffffffffffff1614156106c7576040517f08c379a00000000000000000000000000000000000000000000000000000000081526004016106be9061343f565b60405180910390fd5b69010f0cf064dd5920000060ff8190555069054b40b1f852bda00000610100819055508160fc60006101000a81548173ffffffffffffffffffffffffffffffffffffffff021916908373ffffffffffffffffffffffffffffffffffffffff1602179055508060fb60006101000a81548173ffffffffffffffffffffffffffffffffffffffff021916908373ffffffffffffffffffffffffffffffffffffffff1602179055506107796000801b33611bf0565b5050565b6101015481565b600060fe60008373ffffffffffffffffffffffffffffffffffffffff1673ffffffffffffffffffffffffffffffffffffffff168152602001908152602001600020549050919050565b6101005481565b60006107fb8260976000868152602001908152602001600020611c2490919063ffffffff16565b905092915050565b60006065600084815260200190815260200160002060000160008373ffffffffffffffffffffffffffffffffffffffff1673ffffffffffffffffffffffffffffffffffffffff16815260200190815260200160002060009054906101000a900460ff16905092915050565b60fb60009054906101000a900473ffffffffffffffffffffffffffffffffffffffff1681565b6000801b81565b6040518060400160405280600d81526020017f73657456616c69646174696f6e000000000000000000000000000000000000008152506000816040516020016108e49190613246565b604051602081830303815290604052905061091f7f7b765e0e932d348852a6f810bfa1ab891e259123f02db8cdcde614c57022335733610803565b8190610961576040517f08c379a000000000000000000000000000000000000000000000000000000000815260040161095891906133bd565b60405180910390fd5b50600073ffffffffffffffffffffffffffffffffffffffff168373ffffffffffffffffffffffffffffffffffffffff1614156109d2576040517f08c379a00000000000000000000000000000000000000000000000000000000081526004016109c9906133df565b60405180910390fd5b8260fd60006101000a81548173ffffffffffffffffffffffffffffffffffffffff021916908373ffffffffffffffffffffffffffffffffffffffff160217905550505050565b600260c9541415610a5e576040517f08c379a0000000000000000000000000000000000000000000000000000000008152600401610a559061355f565b60405180910390fd5b600260c98190555060008111610aa9576040517f08c379a0000000000000000000000000000000000000000000000000000000008152600401610aa09061349f565b60405180910390fd5b60fc60009054906101000a900473ffffffffffffffffffffffffffffffffffffffff1673ffffffffffffffffffffffffffffffffffffffff16636f9cf9853360016002811115610b22577f4e487b7100000000000000000000000000000000000000000000000000000000600052602160045260246000fd5b6040518363ffffffff1660e01b8152600401610b3f9291906132ff565b60206040518083038186803b158015610b5757600080fd5b505afa158015610b6b573d6000803e3d6000fd5b505050506040513d601f19601f82011682018060405250810190610b8f91906129c4565b15610cb45760ff5460fe60003373ffffffffffffffffffffffffffffffffffffffff1673ffffffffffffffffffffffffffffffffffffffff1681526020019081526020016000205482610be291906135f7565b1015610c23576040517f08c379a0000000000000000000000000000000000000000000000000000000008152600401610c1a9061351f565b60405180910390fd5b6101005460fe60003373ffffffffffffffffffffffffffffffffffffffff1673ffffffffffffffffffffffffffffffffffffffff1681526020019081526020016000205482610c7291906135f7565b1115610cb3576040517f08c379a0000000000000000000000000000000000000000000000000000000008152600401610caa906134bf565b60405180910390fd5b5b60fc60009054906101000a900473ffffffffffffffffffffffffffffffffffffffff1673ffffffffffffffffffffffffffffffffffffffff16636f9cf9853360006002811115610d2d577f4e487b7100000000000000000000000000000000000000000000000000000000600052602160045260246000fd5b6040518363ffffffff1660e01b8152600401610d4a9291906132ff565b60206040518083038186803b158015610d6257600080fd5b505afa158015610d76573d6000803e3d6000fd5b505050506040513d601f19601f82011682018060405250810190610d9a91906129c4565b80610e87575060fc60009054906101000a900473ffffffffffffffffffffffffffffffffffffffff1673ffffffffffffffffffffffffffffffffffffffff16636f9cf9853360016002811115610e19577f4e487b7100000000000000000000000000000000000000000000000000000000600052602160045260246000fd5b6040518363ffffffff1660e01b8152600401610e369291906132ff565b60206040518083038186803b158015610e4e57600080fd5b505afa158015610e62573d6000803e3d6000fd5b505050506040513d601f19601f82011682018060405250810190610e8691906129c4565b5b80610f73575060fc60009054906101000a900473ffffffffffffffffffffffffffffffffffffffff1673ffffffffffffffffffffffffffffffffffffffff16636f9cf98533600280811115610f05577f4e487b7100000000000000000000000000000000000000000000000000000000600052602160045260246000fd5b6040518363ffffffff1660e01b8152600401610f229291906132ff565b60206040518083038186803b158015610f3a57600080fd5b505afa158015610f4e573d6000803e3d6000fd5b505050506040513d601f19601f82011682018060405250810190610f7291906129c4565b5b610fb2576040517f08c379a0000000000000000000000000000000000000000000000000000000008152600401610fa99061345f565b60405180910390fd5b61100133308360fb60009054906101000a900473ffffffffffffffffffffffffffffffffffffffff1673ffffffffffffffffffffffffffffffffffffffff16611c3e909392919063ffffffff16565b6110538160fe60003373ffffffffffffffffffffffffffffffffffffffff1673ffffffffffffffffffffffffffffffffffffffff16815260200190815260200160002054611cc790919063ffffffff16565b60fe60003373ffffffffffffffffffffffffffffffffffffffff1673ffffffffffffffffffffffffffffffffffffffff168152602001908152602001600020819055506110ac8161010154611cc790919063ffffffff16565b610101819055503373ffffffffffffffffffffffffffffffffffffffff167f3916187166447a01764df803fb1147a37c55a4ca1c7271a7a75c0ab1079b2d95826040516110f9919061359f565b60405180910390a2600160c98190555050565b60ff5481565b60fc60009054906101000a900473ffffffffffffffffffffffffffffffffffffffff1681565b60006040518060400160405280600f81526020017f64656372656173654465706f69737400000000000000000000000000000000008152506000816040516020016111839190613246565b60405160208183030381529060405290506111be7f7b765e0e932d348852a6f810bfa1ab891e259123f02db8cdcde614c57022335733610803565b8190611200576040517f08c379a00000000000000000000000000000000000000000000000000000000081526004016111f791906133bd565b60405180910390fd5b506112538460fe60008873ffffffffffffffffffffffffffffffffffffffff1673ffffffffffffffffffffffffffffffffffffffff16815260200190815260200160002054611cdd90919063ffffffff16565b60fe60008773ffffffffffffffffffffffffffffffffffffffff1673ffffffffffffffffffffffffffffffffffffffff168152602001908152602001600020819055507fc712b41e0b9b7891d0d4ffebc1102bbe2f6ffa1ad4d8047cda3a6dd03ca6ed4285856040516112c7929190613328565b60405180910390a160019250505092915050565b60006112f860976000848152602001908152602001600020611cf3565b9050919050565b60006040518060400160405280600f81526020017f696e6372656173654465706f736974000000000000000000000000000000000081525060008160405160200161134a9190613246565b60405160208183030381529060405290506113857f7b765e0e932d348852a6f810bfa1ab891e259123f02db8cdcde614c57022335733610803565b81906113c7576040517f08c379a00000000000000000000000000000000000000000000000000000000081526004016113be91906133bd565b60405180910390fd5b5061141a8460fe60008873ffffffffffffffffffffffffffffffffffffffff1673ffffffffffffffffffffffffffffffffffffffff16815260200190815260200160002054611cc790919063ffffffff16565b60fe60008773ffffffffffffffffffffffffffffffffffffffff1673ffffffffffffffffffffffffffffffffffffffff168152602001908152602001600020819055507f6c5e7e4e203673af133e4db76883b962ff3faf782281e7bea6f78f2c7874dba0858560405161148e929190613328565b60405180910390a160019250505092915050565b6114ac8282611d08565b6114d18160976000858152602001908152602001600020611bc090919063ffffffff16565b505050565b600260c954141561151c576040517f08c379a00000000000000000000000000000000000000000000000000000000081526004016115139061355f565b60405180910390fd5b600260c98190555060fc60009054906101000a900473ffffffffffffffffffffffffffffffffffffffff1673ffffffffffffffffffffffffffffffffffffffff16636f9cf985336000600281111561159d577f4e487b7100000000000000000000000000000000000000000000000000000000600052602160045260246000fd5b6040518363ffffffff1660e01b81526004016115ba9291906132ff565b60206040518083038186803b1580156115d257600080fd5b505afa1580156115e6573d6000803e3d6000fd5b505050506040513d601f19601f8201168201806040525081019061160a91906129c4565b156118d457600060fd60009054906101000a900473ffffffffffffffffffffffffffffffffffffffff1673ffffffffffffffffffffffffffffffffffffffff1663f9e0853a336040518263ffffffff1660e01b815260040161166c91906132ad565b60206040518083038186803b15801561168457600080fd5b505afa158015611698573d6000803e3d6000fd5b505050506040513d601f19601f820116820180604052508101906116bc9190612ae0565b905060008111156118d257816118906118426127106118348561182660fc60009054906101000a900473ffffffffffffffffffffffffffffffffffffffff1673ffffffffffffffffffffffffffffffffffffffff16634d9c798c6040518163ffffffff1660e01b815260040160206040518083038186803b15801561174057600080fd5b505afa158015611754573d6000803e3d6000fd5b505050506040513d601f19601f820116820180604052508101906117789190612ae0565b60fc60009054906101000a900473ffffffffffffffffffffffffffffffffffffffff1673ffffffffffffffffffffffffffffffffffffffff1663a7579be86040518163ffffffff1660e01b815260040160206040518083038186803b1580156117e057600080fd5b505afa1580156117f4573d6000803e3d6000fd5b505050506040513d601f19601f820116820180604052508101906118189190612ae0565b611d3190919063ffffffff16565b611d3190919063ffffffff16565b611d4790919063ffffffff16565b60fe60003373ffffffffffffffffffffffffffffffffffffffff1673ffffffffffffffffffffffffffffffffffffffff16815260200190815260200160002054611cdd90919063ffffffff16565b10156118d1576040517f08c379a00000000000000000000000000000000000000000000000000000000081526004016118c8906134df565b60405180910390fd5b5b505b6119268160fe60003373ffffffffffffffffffffffffffffffffffffffff1673ffffffffffffffffffffffffffffffffffffffff16815260200190815260200160002054611cdd90919063ffffffff16565b60fe60003373ffffffffffffffffffffffffffffffffffffffff1673ffffffffffffffffffffffffffffffffffffffff1681526020019081526020016000208190555061197f8161010154611cdd90919063ffffffff16565b610101819055506119d3338260fb60009054906101000a900473ffffffffffffffffffffffffffffffffffffffff1673ffffffffffffffffffffffffffffffffffffffff16611d5d9092919063ffffffff16565b3373ffffffffffffffffffffffffffffffffffffffff167f20753e209c8b7c10296bc27da0f765febee7e5b7ef4056d315655b1687468b7d82604051611a19919061359f565b60405180910390a2600160c98190555050565b60fd60009054906101000a900473ffffffffffffffffffffffffffffffffffffffff1681565b60fe6020528060005260406000206000915090505481565b60007f7965db0b000000000000000000000000000000000000000000000000000000007bffffffffffffffffffffffffffffffffffffffffffffffffffffffff1916827bffffffffffffffffffffffffffffffffffffffffffffffffffffffff19161480611add5750611adc82611de3565b5b9050919050565b611aed8261055f565b611afe81611af9611e4d565b611e55565b611b088383611ef2565b505050565b6000611b35836000018373ffffffffffffffffffffffffffffffffffffffff1660001b611fd3565b905092915050565b611b45611e4d565b73ffffffffffffffffffffffffffffffffffffffff168173ffffffffffffffffffffffffffffffffffffffff1614611bb2576040517f08c379a0000000000000000000000000000000000000000000000000000000008152600401611ba99061357f565b60405180910390fd5b611bbc8282612043565b5050565b6000611be8836000018373ffffffffffffffffffffffffffffffffffffffff1660001b612125565b905092915050565b611bfa82826122ab565b611c1f8160976000858152602001908152602001600020611b0d90919063ffffffff16565b505050565b6000611c3383600001836122b9565b60001c905092915050565b611cc1846323b872dd60e01b858585604051602401611c5f939291906132c8565b604051602081830303815290604052907bffffffffffffffffffffffffffffffffffffffffffffffffffffffff19166020820180517bffffffffffffffffffffffffffffffffffffffffffffffffffffffff838183161783525050505061230a565b50505050565b60008183611cd591906135f7565b905092915050565b60008183611ceb91906136d8565b905092915050565b6000611d01826000016123d1565b9050919050565b611d118261055f565b611d2281611d1d611e4d565b611e55565b611d2c8383612043565b505050565b60008183611d3f919061367e565b905092915050565b60008183611d55919061364d565b905092915050565b611dde8363a9059cbb60e01b8484604051602401611d7c929190613328565b604051602081830303815290604052907bffffffffffffffffffffffffffffffffffffffffffffffffffffffff19166020820180517bffffffffffffffffffffffffffffffffffffffffffffffffffffffff838183161783525050505061230a565b505050565b60007f01ffc9a7000000000000000000000000000000000000000000000000000000007bffffffffffffffffffffffffffffffffffffffffffffffffffffffff1916827bffffffffffffffffffffffffffffffffffffffffffffffffffffffff1916149050919050565b600033905090565b611e5f8282610803565b611eee57611e848173ffffffffffffffffffffffffffffffffffffffff1660146123e2565b611e928360001c60206123e2565b604051602001611ea3929190613273565b6040516020818303038152906040526040517f08c379a0000000000000000000000000000000000000000000000000000000008152600401611ee591906133bd565b60405180910390fd5b5050565b611efc8282610803565b611fcf5760016065600084815260200190815260200160002060000160008373ffffffffffffffffffffffffffffffffffffffff1673ffffffffffffffffffffffffffffffffffffffff16815260200190815260200160002060006101000a81548160ff021916908315150217905550611f74611e4d565b73ffffffffffffffffffffffffffffffffffffffff168173ffffffffffffffffffffffffffffffffffffffff16837f2f8788117e7eff1d82e926ec794901d17c78024a50270940304540a733656f0d60405160405180910390a45b5050565b6000611fdf83836126dc565b61203857826000018290806001815401808255809150506001900390600052602060002001600090919091909150558260000180549050836001016000848152602001908152602001600020819055506001905061203d565b600090505b92915050565b61204d8282610803565b156121215760006065600084815260200190815260200160002060000160008373ffffffffffffffffffffffffffffffffffffffff1673ffffffffffffffffffffffffffffffffffffffff16815260200190815260200160002060006101000a81548160ff0219169083151502179055506120c6611e4d565b73ffffffffffffffffffffffffffffffffffffffff168173ffffffffffffffffffffffffffffffffffffffff16837ff6391f5c32d9c69d2a47ea670b442974b53935d1edc7fd64eb21e047a839171b60405160405180910390a45b5050565b6000808360010160008481526020019081526020016000205490506000811461229f57600060018261215791906136d8565b905060006001866000018054905061216f91906136d8565b905081811461222a5760008660000182815481106121b6577f4e487b7100000000000000000000000000000000000000000000000000000000600052603260045260246000fd5b9060005260206000200154905080876000018481548110612200577f4e487b7100000000000000000000000000000000000000000000000000000000600052603260045260246000fd5b90600052602060002001819055508387600101600083815260200190815260200160002081905550505b85600001805480612264577f4e487b7100000000000000000000000000000000000000000000000000000000600052603160045260246000fd5b6001900381819060005260206000200160009055905585600101600086815260200190815260200160002060009055600193505050506122a5565b60009150505b92915050565b6122b58282611ef2565b5050565b60008260000182815481106122f7577f4e487b7100000000000000000000000000000000000000000000000000000000600052603260045260246000fd5b9060005260206000200154905092915050565b600061236c826040518060400160405280602081526020017f5361666545524332303a206c6f772d6c6576656c2063616c6c206661696c65648152508573ffffffffffffffffffffffffffffffffffffffff166126ff9092919063ffffffff16565b90506000815111156123cc578080602001905181019061238c91906129c4565b6123cb576040517f08c379a00000000000000000000000000000000000000000000000000000000081526004016123c29061353f565b60405180910390fd5b5b505050565b600081600001805490509050919050565b6060600060028360026123f5919061367e565b6123ff91906135f7565b67ffffffffffffffff81111561243e577f4e487b7100000000000000000000000000000000000000000000000000000000600052604160045260246000fd5b6040519080825280601f01601f1916602001820160405280156124705781602001600182028036833780820191505090505b5090507f3000000000000000000000000000000000000000000000000000000000000000816000815181106124ce577f4e487b7100000000000000000000000000000000000000000000000000000000600052603260045260246000fd5b60200101907effffffffffffffffffffffffffffffffffffffffffffffffffffffffffffff1916908160001a9053507f780000000000000000000000000000000000000000000000000000000000000081600181518110612558577f4e487b7100000000000000000000000000000000000000000000000000000000600052603260045260246000fd5b60200101907effffffffffffffffffffffffffffffffffffffffffffffffffffffffffffff1916908160001a90535060006001846002612598919061367e565b6125a291906135f7565b90505b600181111561268e577f3031323334353637383961626364656600000000000000000000000000000000600f86166010811061260a577f4e487b7100000000000000000000000000000000000000000000000000000000600052603260045260246000fd5b1a60f81b828281518110612647577f4e487b7100000000000000000000000000000000000000000000000000000000600052603260045260246000fd5b60200101907effffffffffffffffffffffffffffffffffffffffffffffffffffffffffffff1916908160001a905350600485901c9450806126879061382a565b90506125a5565b50600084146126d2576040517f08c379a00000000000000000000000000000000000000000000000000000000081526004016126c9906133ff565b60405180910390fd5b8091505092915050565b600080836001016000848152602001908152602001600020541415905092915050565b606061270e8484600085612717565b90509392505050565b60608247101561275c576040517f08c379a00000000000000000000000000000000000000000000000000000000081526004016127539061347f565b60405180910390fd5b6127658561282b565b6127a4576040517f08c379a000000000000000000000000000000000000000000000000000000000815260040161279b906134ff565b60405180910390fd5b6000808673ffffffffffffffffffffffffffffffffffffffff1685876040516127cd919061322f565b60006040518083038185875af1925050503d806000811461280a576040519150601f19603f3d011682016040523d82523d6000602084013e61280f565b606091505b509150915061281f82828661283e565b92505050949350505050565b600080823b905060008111915050919050565b6060831561284e5782905061289e565b6000835111156128615782518084602001fd5b816040517f08c379a000000000000000000000000000000000000000000000000000000000815260040161289591906133bd565b60405180910390fd5b9392505050565b6000813590506128b481613906565b92915050565b6000815190506128c98161391d565b92915050565b6000813590506128de81613934565b92915050565b6000813590506128f38161394b565b92915050565b60008135905061290881613962565b92915050565b60008151905061291d81613962565b92915050565b60006020828403121561293557600080fd5b6000612943848285016128a5565b91505092915050565b6000806040838503121561295f57600080fd5b600061296d858286016128a5565b925050602061297e858286016128a5565b9150509250929050565b6000806040838503121561299b57600080fd5b60006129a9858286016128a5565b92505060206129ba858286016128f9565b9150509250929050565b6000602082840312156129d657600080fd5b60006129e4848285016128ba565b91505092915050565b6000602082840312156129ff57600080fd5b6000612a0d848285016128cf565b91505092915050565b60008060408385031215612a2957600080fd5b6000612a37858286016128cf565b9250506020612a48858286016128a5565b9150509250929050565b60008060408385031215612a6557600080fd5b6000612a73858286016128cf565b9250506020612a84858286016128f9565b9150509250929050565b600060208284031215612aa057600080fd5b6000612aae848285016128e4565b91505092915050565b600060208284031215612ac957600080fd5b6000612ad7848285016128f9565b91505092915050565b600060208284031215612af257600080fd5b6000612b008482850161290e565b91505092915050565b612b128161370c565b82525050565b612b218161371e565b82525050565b612b308161372a565b82525050565b6000612b41826135ba565b612b4b81856135d0565b9350612b5b8185602086016137f7565b80840191505092915050565b612b708161379d565b82525050565b612b7f816137c1565b82525050565b612b8e816137e5565b82525050565b6000612b9f826135c5565b612ba981856135db565b9350612bb98185602086016137f7565b612bc2816138e1565b840191505092915050565b6000612bd8826135c5565b612be281856135ec565b9350612bf28185602086016137f7565b80840191505092915050565b6000612c0b6030836135db565b91507f4d483a73657456616c69646174696f6e202d2056616c69646174696f6e20616460008301527f64726573732063616e27742062652030000000000000000000000000000000006020830152604082019050919050565b6000612c716020836135db565b91507f537472696e67733a20686578206c656e67746820696e73756666696369656e746000830152602082019050919050565b6000612cb16035836135db565b91507f4d656d62657248656c706572733a636f6e7374727563746f72202d204d656d6260008301527f657220616464726573732063616e2774206265203000000000000000000000006020830152604082019050919050565b6000612d176033836135db565b91507f4d656d62657248656c706572733a736574436f686f7274202d20436f686f727460008301527f20616464726573732063616e27742062652030000000000000000000000000006020830152604082019050919050565b6000612d7d602f836135db565b91507f4d483a7374616b65202d2055736572206973206e6f742076616c696461746f7260008301527f206f7220656e74657270726973652e00000000000000000000000000000000006020830152604082019050919050565b6000612de36026836135db565b91507f416464726573733a20696e73756666696369656e742062616c616e636520666f60008301527f722063616c6c00000000000000000000000000000000000000000000000000006020830152604082019050919050565b6000612e49601c836135db565b91507f4d483a7374616b65202d20416d6f756e742063616e27742062652030000000006000830152602082019050919050565b6000612e896034836135db565b91507f4d483a7374616b65202d204d6178696d756d20636f6e747269627574696f6e2060008301527f616d6f756e7420697320323530303020415544540000000000000000000000006020830152604082019050919050565b6000612eef6027836135ec565b91507f4d656d62657248656c70657273286973436f6e74726f6c6c6572202d204d6f6460008301527f6966696572293a000000000000000000000000000000000000000000000000006020830152602782019050919050565b6000612f556029836135db565b91507f4d483a72656465656d202d20596f7572206465706f7369742077696c6c20626560008301527f20746f6f206c6f772e00000000000000000000000000000000000000000000006020830152604082019050919050565b6000612fbb601d836135db565b91507f416464726573733a2063616c6c20746f206e6f6e2d636f6e74726163740000006000830152602082019050919050565b6000612ffb6033836135db565b91507f4d483a7374616b65202d204d696e696d756d20636f6e747269627574696f6e2060008301527f616d6f756e7420697320353030302041554454000000000000000000000000006020830152604082019050919050565b60006130616017836135ec565b91507f416363657373436f6e74726f6c3a206163636f756e74200000000000000000006000830152601782019050919050565b60006130a1602a836135db565b91507f5361666545524332303a204552433230206f7065726174696f6e20646964206e60008301527f6f742073756363656564000000000000000000000000000000000000000000006020830152604082019050919050565b6000613107601f836135db565b91507f5265656e7472616e637947756172643a207265656e7472616e742063616c6c006000830152602082019050919050565b60006131476011836135ec565b91507f206973206d697373696e6720726f6c65200000000000000000000000000000006000830152601182019050919050565b6000613187601c836135ec565b91507f2d2043616c6c6572206973206e6f74206120636f6e74726f6c6c6572000000006000830152601c82019050919050565b60006131c7602f836135db565b91507f416363657373436f6e74726f6c3a2063616e206f6e6c792072656e6f756e636560008301527f20726f6c657320666f722073656c6600000000000000000000000000000000006020830152604082019050919050565b61322981613793565b82525050565b600061323b8284612b36565b915081905092915050565b600061325182612ee2565b915061325d8284612bcd565b91506132688261317a565b915081905092915050565b600061327e82613054565b915061328a8285612bcd565b91506132958261313a565b91506132a18284612bcd565b91508190509392505050565b60006020820190506132c26000830184612b09565b92915050565b60006060820190506132dd6000830186612b09565b6132ea6020830185612b09565b6132f76040830184613220565b949350505050565b60006040820190506133146000830185612b09565b6133216020830184612b85565b9392505050565b600060408201905061333d6000830185612b09565b61334a6020830184613220565b9392505050565b60006020820190506133666000830184612b18565b92915050565b60006020820190506133816000830184612b27565b92915050565b600060208201905061339c6000830184612b67565b92915050565b60006020820190506133b76000830184612b76565b92915050565b600060208201905081810360008301526133d78184612b94565b905092915050565b600060208201905081810360008301526133f881612bfe565b9050919050565b6000602082019050818103600083015261341881612c64565b9050919050565b6000602082019050818103600083015261343881612ca4565b9050919050565b6000602082019050818103600083015261345881612d0a565b9050919050565b6000602082019050818103600083015261347881612d70565b9050919050565b6000602082019050818103600083015261349881612dd6565b9050919050565b600060208201905081810360008301526134b881612e3c565b9050919050565b600060208201905081810360008301526134d881612e7c565b9050919050565b600060208201905081810360008301526134f881612f48565b9050919050565b6000602082019050818103600083015261351881612fae565b9050919050565b6000602082019050818103600083015261353881612fee565b9050919050565b6000602082019050818103600083015261355881613094565b9050919050565b60006020820190508181036000830152613578816130fa565b9050919050565b60006020820190508181036000830152613598816131ba565b9050919050565b60006020820190506135b46000830184613220565b92915050565b600081519050919050565b600081519050919050565b600081905092915050565b600082825260208201905092915050565b600081905092915050565b600061360282613793565b915061360d83613793565b9250827fffffffffffffffffffffffffffffffffffffffffffffffffffffffffffffffff0382111561364257613641613854565b5b828201905092915050565b600061365882613793565b915061366383613793565b92508261367357613672613883565b5b828204905092915050565b600061368982613793565b915061369483613793565b9250817fffffffffffffffffffffffffffffffffffffffffffffffffffffffffffffffff04831182151516156136cd576136cc613854565b5b828202905092915050565b60006136e382613793565b91506136ee83613793565b92508282101561370157613700613854565b5b828203905092915050565b600061371782613773565b9050919050565b60008115159050919050565b6000819050919050565b60007fffffffff0000000000000000000000000000000000000000000000000000000082169050919050565b600081905061376e826138f2565b919050565b600073ffffffffffffffffffffffffffffffffffffffff82169050919050565b6000819050919050565b60006137a8826137af565b9050919050565b60006137ba82613773565b9050919050565b60006137cc826137d3565b9050919050565b60006137de82613773565b9050919050565b60006137f082613760565b9050919050565b60005b838110156138155780820151818401526020810190506137fa565b83811115613824576000848401525b50505050565b600061383582613793565b9150600082141561384957613848613854565b5b600182039050919050565b7f4e487b7100000000000000000000000000000000000000000000000000000000600052601160045260246000fd5b7f4e487b7100000000000000000000000000000000000000000000000000000000600052601260045260246000fd5b7f4e487b7100000000000000000000000000000000000000000000000000000000600052602160045260246000fd5b6000601f19601f8301169050919050565b60038110613903576139026138b2565b5b50565b61390f8161370c565b811461391a57600080fd5b50565b6139268161371e565b811461393157600080fd5b50565b61393d8161372a565b811461394857600080fd5b50565b61395481613734565b811461395f57600080fd5b50565b61396b81613793565b811461397657600080fd5b5056fea2646970667358221220e166221e577163853c28df9681d9d4fae3eeb40dcca80a78fdcdeb281ce5206764736f6c63430008000033",
  "immutableReferences": {},
  "source": "// SPDX-License-Identifier: MIT\npragma solidity =0.8.0;\nimport \"./Members.sol\";\nimport \"@openzeppelin/contracts-upgradeable/access/AccessControlEnumerableUpgradeable.sol\";\nimport \"@openzeppelin/contracts-upgradeable/token/ERC20/utils/SafeERC20Upgradeable.sol\";\nimport \"@openzeppelin/contracts-upgradeable/utils/math/SafeMathUpgradeable.sol\";\nimport \"@openzeppelin/contracts-upgradeable/security/ReentrancyGuardUpgradeable.sol\";\n\nimport \"./../IAuditToken.sol\";\nimport \"./IValidations.sol\";\n\n/**\n * @title MemberHelpers\n * Additional function for Members\n */\ncontract MemberHelpers is AccessControlEnumerableUpgradeable, ReentrancyGuardUpgradeable {\n    using SafeMathUpgradeable for uint256;\n    using SafeERC20Upgradeable for IERC20Upgradeable;\n\n        bytes32 public constant CONTROLLER_ROLE = keccak256(\"CONTROLLER_ROLE\");\n\n    address public auditToken; //AUDT token\n    Members public members; // Members contract\n    IValidations public validations; // Validation interface\n    mapping(address => uint256) public deposits; //track deposits per user\n    uint256 public minContribution;\n    uint256 public maxContribution;\n    uint256 public totalStaked;\n    \n\n    event LogDepositReceived(address indexed from, uint256 amount);\n    event LogDepositRedeemed(address indexed from, uint256 amount);\n    event LogIncreaseDeposit(address user, uint256 amount);\n    event LogDecreaseDeposit(address user, uint256 amount);\n\n    function initialize(address _members, address _auditToken) external {\n        require(_members != address(0),\"MemberHelpers:constructor - Member address can't be 0\");\n        require(_auditToken != address(0), \"MemberHelpers:setCohort - Cohort address can't be 0\");\n        minContribution = 5e21;\n        maxContribution = 25e21;\n        members = Members(_members);\n        auditToken = _auditToken;\n        _setupRole(DEFAULT_ADMIN_ROLE, msg.sender);\n    }\n\n   /// @dev check if caller is a controller\n    modifier isController(string memory source) {\n        string memory msgError = string(abi.encodePacked(\"MemberHelpers(isController - Modifier):\", source, \"- Caller is not a controller\"));\n        require(hasRole(CONTROLLER_ROLE, msg.sender),msgError);\n\n        _;\n    }\n\n\n     /// @dev check if user is validator\n    modifier isValidator(string memory source) {\n\n        string memory msgError = string(abi.encodePacked(\"NodeOperations(Modifier):\", source, \"- You are not a validator\"));\n        require( members.userMap(msg.sender, Members.UserType(1)), msgError);\n\n        _;\n    }\n\n    function returnDepositAmount(address user) external view returns (uint256) {\n        return deposits[user];\n    }\n\n   \n\n    function increaseDeposit(address user, uint256 amount) external isController(\"increaseDeposit\") returns(bool){\n        deposits[user] = deposits[user].add(amount);\n        emit LogIncreaseDeposit(user, amount);\n        return true;\n    }\n\n    function decreaseDeposit(address user, uint256 amount) external isController(\"decreaseDepoist\") returns (bool){\n        deposits[user] = deposits[user].sub(amount);\n        emit LogDecreaseDeposit(user, amount);\n        return true;\n    }\n\n    /**\n     * @dev Function to accept contribution to staking\n     * @param amount number of AUDT tokens sent to contract for staking\n     */\n    function stake(uint256 amount) external nonReentrant {\n        require(amount > 0, \"MH:stake - Amount can't be 0\");\n\n        if (members.userMap(msg.sender, Members.UserType(1))) {\n            require(\n                amount + deposits[msg.sender] >= minContribution,\n                \"MH:stake - Minimum contribution amount is 5000 AUDT\"\n            );\n            require(\n                amount + deposits[msg.sender] <= maxContribution,\n                \"MH:stake - Maximum contribution amount is 25000 AUDT\"\n            );\n        }\n        require(\n            members.userMap(msg.sender, Members.UserType(0)) ||\n                members.userMap(msg.sender, Members.UserType(1)) ||\n                members.userMap(msg.sender, Members.UserType(2)),\n            \"MH:stake - User is not validator or enterprise.\"\n        );\n        IERC20Upgradeable(auditToken).safeTransferFrom(msg.sender, address(this), amount);\n        deposits[msg.sender] = deposits[msg.sender].add(amount);\n        totalStaked = totalStaked.add(amount);\n        emit LogDepositReceived(msg.sender, amount);\n    }\n\n    /**\n     * @dev Function to redeem contribution.\n     * @param amount number of tokens being redeemed\n     */\n    function redeem(uint256 amount) external nonReentrant {\n        if (members.userMap(msg.sender, Members.UserType(0))) {\n            uint256 outstandingVal = validations.outstandingValidations(msg.sender);\n\n            if (outstandingVal > 0)\n                // div(1e4) to adjust for four decimal points\n                require(\n                    deposits[msg.sender].sub(\n                        members\n                            .enterpriseMatch()\n                            .mul(members.amountTokensPerValidation())\n                            .mul(outstandingVal)\n                            .div(1e4)\n                    ) >= amount,\n                    \"MH:redeem - Your deposit will be too low.\"\n                );\n        }\n\n        deposits[msg.sender] = deposits[msg.sender].sub(amount);\n        totalStaked = totalStaked.sub(amount);\n        IERC20Upgradeable(auditToken).safeTransfer(msg.sender, amount);\n        emit LogDepositRedeemed(msg.sender, amount);\n    }\n\n    /**\n     * @dev to be called by administrator to set Validation address\n     * @param _validations validation contract address\n     */\n    function setValidation(address _validations) external isController(\"setValidation\") {\n        require( _validations != address(0), \"MH:setValidation - Validation address can't be 0\");\n        validations = IValidations(_validations);\n    }\n\n}\n",
  "sourcePath": "/home/win2win/eth/projects/AuditChain/Core-Smart-Contracts-v1-upgradable/contracts/Auditchain/MemberHelpers.sol",
  "compiler": {
    "name": "solc",
    "version": "0.8.0+commit.c7dfd78e.Emscripten.clang"
  },
  "schemaVersion": "3.4.1",
  "updatedAt": "2022-05-18T17:13:45.577Z",
  "devdoc": {
    "kind": "dev",
    "methods": {
      "getRoleAdmin(bytes32)": {
        "details": "Returns the admin role that controls `role`. See {grantRole} and {revokeRole}. To change a role's admin, use {_setRoleAdmin}."
      },
      "getRoleMember(bytes32,uint256)": {
        "details": "Returns one of the accounts that have `role`. `index` must be a value between 0 and {getRoleMemberCount}, non-inclusive. Role bearers are not sorted in any particular way, and their ordering may change at any point. WARNING: When using {getRoleMember} and {getRoleMemberCount}, make sure you perform all queries on the same block. See the following https://forum.openzeppelin.com/t/iterating-over-elements-on-enumerableset-in-openzeppelin-contracts/2296[forum post] for more information."
      },
      "getRoleMemberCount(bytes32)": {
        "details": "Returns the number of accounts that have `role`. Can be used together with {getRoleMember} to enumerate all bearers of a role."
      },
      "grantRole(bytes32,address)": {
        "details": "Overload {grantRole} to track enumerable memberships"
      },
      "hasRole(bytes32,address)": {
        "details": "Returns `true` if `account` has been granted `role`."
      },
      "redeem(uint256)": {
        "details": "Function to redeem contribution.",
        "params": {
          "amount": "number of tokens being redeemed"
        }
      },
      "renounceRole(bytes32,address)": {
        "details": "Overload {renounceRole} to track enumerable memberships"
      },
      "revokeRole(bytes32,address)": {
        "details": "Overload {revokeRole} to track enumerable memberships"
      },
      "setValidation(address)": {
        "details": "to be called by administrator to set Validation address",
        "params": {
          "_validations": "validation contract address"
        }
      },
      "stake(uint256)": {
        "details": "Function to accept contribution to staking",
        "params": {
          "amount": "number of AUDT tokens sent to contract for staking"
        }
      },
      "supportsInterface(bytes4)": {
        "details": "See {IERC165-supportsInterface}."
      }
    },
    "title": "MemberHelpers Additional function for Members",
    "version": 1
  },
  "userdoc": {
    "kind": "user",
    "methods": {},
    "version": 1
  }
}