{
  "contractName": "NodeOperations",
  "abi": [
    {
      "anonymous": false,
      "inputs": [
        {
          "indexed": false,
          "internalType": "uint256",
          "name": "amount",
          "type": "uint256"
        },
        {
          "indexed": false,
          "internalType": "address",
          "name": "validator",
          "type": "address"
        }
      ],
      "name": "IncreasePOW",
      "type": "event"
    },
    {
      "anonymous": false,
      "inputs": [
        {
          "indexed": true,
          "internalType": "address",
          "name": "user",
          "type": "address"
        },
        {
          "indexed": false,
          "internalType": "string",
          "name": "action",
          "type": "string"
        }
      ],
      "name": "LogCPAToggled",
      "type": "event"
    },
    {
      "anonymous": false,
      "inputs": [
        {
          "indexed": true,
          "internalType": "address",
          "name": "delegating",
          "type": "address"
        },
        {
          "indexed": false,
          "internalType": "uint256",
          "name": "amount",
          "type": "uint256"
        }
      ],
      "name": "LogDelegatedStakeRewardsIncreased",
      "type": "event"
    },
    {
      "anonymous": false,
      "inputs": [
        {
          "indexed": true,
          "internalType": "address",
          "name": "delegating",
          "type": "address"
        },
        {
          "indexed": true,
          "internalType": "address",
          "name": "newDelegatee",
          "type": "address"
        }
      ],
      "name": "LogDelegation",
      "type": "event"
    },
    {
      "anonymous": false,
      "inputs": [
        {
          "indexed": false,
          "internalType": "uint256",
          "name": "params",
          "type": "uint256"
        },
        {
          "indexed": true,
          "internalType": "string",
          "name": "action",
          "type": "string"
        }
      ],
      "name": "LogGovernanceUpdate",
      "type": "event"
    },
    {
      "anonymous": false,
      "inputs": [
        {
          "indexed": true,
          "internalType": "address",
          "name": "user",
          "type": "address"
        },
        {
          "indexed": false,
          "internalType": "string",
          "name": "action",
          "type": "string"
        }
      ],
      "name": "LogNoDelegateToggled",
      "type": "event"
    },
    {
      "anonymous": false,
      "inputs": [
        {
          "indexed": true,
          "internalType": "address",
          "name": "user",
          "type": "address"
        },
        {
          "indexed": false,
          "internalType": "string",
          "name": "action",
          "type": "string"
        }
      ],
      "name": "LogNodeOperatorToggled",
      "type": "event"
    },
    {
      "anonymous": false,
      "inputs": [
        {
          "indexed": true,
          "internalType": "address",
          "name": "delegating",
          "type": "address"
        },
        {
          "indexed": false,
          "internalType": "uint256",
          "name": "amount",
          "type": "uint256"
        }
      ],
      "name": "LogReferralStakeRewardsIncreased",
      "type": "event"
    },
    {
      "anonymous": false,
      "inputs": [
        {
          "indexed": true,
          "internalType": "address",
          "name": "delegating",
          "type": "address"
        },
        {
          "indexed": true,
          "internalType": "address",
          "name": "delegatee",
          "type": "address"
        }
      ],
      "name": "LogRemoveDelegation",
      "type": "event"
    },
    {
      "anonymous": false,
      "inputs": [
        {
          "indexed": true,
          "internalType": "address",
          "name": "validator",
          "type": "address"
        },
        {
          "indexed": false,
          "internalType": "uint256",
          "name": "amount",
          "type": "uint256"
        }
      ],
      "name": "LogStakeRewardsIncreased",
      "type": "event"
    },
    {
      "anonymous": false,
      "inputs": [
        {
          "indexed": true,
          "internalType": "address",
          "name": "user",
          "type": "address"
        },
        {
          "indexed": false,
          "internalType": "uint256",
          "name": "amount",
          "type": "uint256"
        }
      ],
      "name": "LogStakingRewardsClaimed",
      "type": "event"
    },
    {
      "anonymous": false,
      "inputs": [
        {
          "indexed": true,
          "internalType": "address",
          "name": "user",
          "type": "address"
        },
        {
          "indexed": false,
          "internalType": "uint256",
          "name": "amount",
          "type": "uint256"
        }
      ],
      "name": "LogStakingRewardsTransferredOut",
      "type": "event"
    },
    {
      "anonymous": false,
      "inputs": [
        {
          "indexed": true,
          "internalType": "bytes32",
          "name": "role",
          "type": "bytes32"
        },
        {
          "indexed": true,
          "internalType": "bytes32",
          "name": "previousAdminRole",
          "type": "bytes32"
        },
        {
          "indexed": true,
          "internalType": "bytes32",
          "name": "newAdminRole",
          "type": "bytes32"
        }
      ],
      "name": "RoleAdminChanged",
      "type": "event"
    },
    {
      "anonymous": false,
      "inputs": [
        {
          "indexed": true,
          "internalType": "bytes32",
          "name": "role",
          "type": "bytes32"
        },
        {
          "indexed": true,
          "internalType": "address",
          "name": "account",
          "type": "address"
        },
        {
          "indexed": true,
          "internalType": "address",
          "name": "sender",
          "type": "address"
        }
      ],
      "name": "RoleGranted",
      "type": "event"
    },
    {
      "anonymous": false,
      "inputs": [
        {
          "indexed": true,
          "internalType": "bytes32",
          "name": "role",
          "type": "bytes32"
        },
        {
          "indexed": true,
          "internalType": "address",
          "name": "account",
          "type": "address"
        },
        {
          "indexed": true,
          "internalType": "address",
          "name": "sender",
          "type": "address"
        }
      ],
      "name": "RoleRevoked",
      "type": "event"
    },
    {
      "inputs": [],
      "name": "CONTROLLER_ROLE",
      "outputs": [
        {
          "internalType": "bytes32",
          "name": "",
          "type": "bytes32"
        }
      ],
      "stateMutability": "view",
      "type": "function"
    },
    {
      "inputs": [
        {
          "internalType": "uint256",
          "name": "",
          "type": "uint256"
        }
      ],
      "name": "CPAs",
      "outputs": [
        {
          "internalType": "address",
          "name": "",
          "type": "address"
        }
      ],
      "stateMutability": "view",
      "type": "function"
    },
    {
      "inputs": [],
      "name": "DEFAULT_ADMIN_ROLE",
      "outputs": [
        {
          "internalType": "bytes32",
          "name": "",
          "type": "bytes32"
        }
      ],
      "stateMutability": "view",
      "type": "function"
    },
    {
      "inputs": [],
      "name": "SETTER_ROLE",
      "outputs": [
        {
          "internalType": "bytes32",
          "name": "",
          "type": "bytes32"
        }
      ],
      "stateMutability": "view",
      "type": "function"
    },
    {
      "inputs": [],
      "name": "auditToken",
      "outputs": [
        {
          "internalType": "address",
          "name": "",
          "type": "address"
        }
      ],
      "stateMutability": "view",
      "type": "function"
    },
    {
      "inputs": [
        {
          "internalType": "bytes32",
          "name": "role",
          "type": "bytes32"
        }
      ],
      "name": "getRoleAdmin",
      "outputs": [
        {
          "internalType": "bytes32",
          "name": "",
          "type": "bytes32"
        }
      ],
      "stateMutability": "view",
      "type": "function"
    },
    {
      "inputs": [
        {
          "internalType": "bytes32",
          "name": "role",
          "type": "bytes32"
        },
        {
          "internalType": "address",
          "name": "account",
          "type": "address"
        }
      ],
      "name": "grantRole",
      "outputs": [],
      "stateMutability": "nonpayable",
      "type": "function"
    },
    {
      "inputs": [
        {
          "internalType": "bytes32",
          "name": "role",
          "type": "bytes32"
        },
        {
          "internalType": "address",
          "name": "account",
          "type": "address"
        }
      ],
      "name": "hasRole",
      "outputs": [
        {
          "internalType": "bool",
          "name": "",
          "type": "bool"
        }
      ],
      "stateMutability": "view",
      "type": "function"
    },
    {
      "inputs": [],
      "name": "memberHelpers",
      "outputs": [
        {
          "internalType": "contract MemberHelpers",
          "name": "",
          "type": "address"
        }
      ],
      "stateMutability": "view",
      "type": "function"
    },
    {
      "inputs": [],
      "name": "members",
      "outputs": [
        {
          "internalType": "contract Members",
          "name": "",
          "type": "address"
        }
      ],
      "stateMutability": "view",
      "type": "function"
    },
    {
      "inputs": [
        {
          "internalType": "address",
          "name": "",
          "type": "address"
        }
      ],
      "name": "nodeOpStruct",
      "outputs": [
        {
          "internalType": "bool",
          "name": "isNodeOperator",
          "type": "bool"
        },
        {
          "internalType": "uint256",
          "name": "stakeAmount",
          "type": "uint256"
        },
        {
          "internalType": "uint256",
          "name": "delegateAmount",
          "type": "uint256"
        },
        {
          "internalType": "uint256",
          "name": "referralAmount",
          "type": "uint256"
        },
        {
          "internalType": "uint256",
          "name": "POWAmount",
          "type": "uint256"
        },
        {
          "internalType": "address",
          "name": "delegatorLink",
          "type": "address"
        },
        {
          "internalType": "bool",
          "name": "noDelegations",
          "type": "bool"
        },
        {
          "internalType": "bool",
          "name": "isCPA",
          "type": "bool"
        }
      ],
      "stateMutability": "view",
      "type": "function"
    },
    {
      "inputs": [
        {
          "internalType": "uint256",
          "name": "",
          "type": "uint256"
        }
      ],
      "name": "nodeOperators",
      "outputs": [
        {
          "internalType": "address",
          "name": "",
          "type": "address"
        }
      ],
      "stateMutability": "view",
      "type": "function"
    },
    {
      "inputs": [
        {
          "internalType": "bytes32",
          "name": "role",
          "type": "bytes32"
        },
        {
          "internalType": "address",
          "name": "account",
          "type": "address"
        }
      ],
      "name": "renounceRole",
      "outputs": [],
      "stateMutability": "nonpayable",
      "type": "function"
    },
    {
      "inputs": [
        {
          "internalType": "bytes32",
          "name": "role",
          "type": "bytes32"
        },
        {
          "internalType": "address",
          "name": "account",
          "type": "address"
        }
      ],
      "name": "revokeRole",
      "outputs": [],
      "stateMutability": "nonpayable",
      "type": "function"
    },
    {
      "inputs": [],
      "name": "stakeRatio",
      "outputs": [
        {
          "internalType": "uint256",
          "name": "",
          "type": "uint256"
        }
      ],
      "stateMutability": "view",
      "type": "function"
    },
    {
      "inputs": [],
      "name": "stakeRatioDelegating",
      "outputs": [
        {
          "internalType": "uint256",
          "name": "",
          "type": "uint256"
        }
      ],
      "stateMutability": "view",
      "type": "function"
    },
    {
      "inputs": [],
      "name": "stakingRatioReferral",
      "outputs": [
        {
          "internalType": "uint256",
          "name": "",
          "type": "uint256"
        }
      ],
      "stateMutability": "view",
      "type": "function"
    },
    {
      "inputs": [
        {
          "internalType": "bytes4",
          "name": "interfaceId",
          "type": "bytes4"
        }
      ],
      "name": "supportsInterface",
      "outputs": [
        {
          "internalType": "bool",
          "name": "",
          "type": "bool"
        }
      ],
      "stateMutability": "view",
      "type": "function"
    },
    {
      "inputs": [
        {
          "internalType": "address",
          "name": "_memberHelpers",
          "type": "address"
        },
        {
          "internalType": "address",
          "name": "_auditToken",
          "type": "address"
        },
        {
          "internalType": "address",
          "name": "_members",
          "type": "address"
        }
      ],
      "name": "initialize",
      "outputs": [],
      "stateMutability": "nonpayable",
      "type": "function"
    },
    {
      "inputs": [
        {
          "internalType": "uint256",
          "name": "_newRatio",
          "type": "uint256"
        }
      ],
      "name": "updateStakeRatioDelegating",
      "outputs": [],
      "stateMutability": "nonpayable",
      "type": "function"
    },
    {
      "inputs": [
        {
          "internalType": "uint256",
          "name": "_newRatio",
          "type": "uint256"
        }
      ],
      "name": "updateStakingRatioReferral",
      "outputs": [],
      "stateMutability": "nonpayable",
      "type": "function"
    },
    {
      "inputs": [
        {
          "internalType": "uint256",
          "name": "_newRatio",
          "type": "uint256"
        }
      ],
      "name": "updateStakeRatio",
      "outputs": [],
      "stateMutability": "nonpayable",
      "type": "function"
    },
    {
      "inputs": [
        {
          "internalType": "address",
          "name": "operator",
          "type": "address"
        }
      ],
      "name": "returnDelegatorLink",
      "outputs": [
        {
          "internalType": "address",
          "name": "",
          "type": "address"
        }
      ],
      "stateMutability": "view",
      "type": "function"
    },
    {
      "inputs": [
        {
          "internalType": "address",
          "name": "operator",
          "type": "address"
        }
      ],
      "name": "isNodeOperator",
      "outputs": [
        {
          "internalType": "bool",
          "name": "",
          "type": "bool"
        }
      ],
      "stateMutability": "view",
      "type": "function"
    },
    {
      "inputs": [
        {
          "internalType": "address",
          "name": "poolOperator",
          "type": "address"
        }
      ],
      "name": "returnPoolList",
      "outputs": [
        {
          "internalType": "address[]",
          "name": "",
          "type": "address[]"
        },
        {
          "internalType": "uint256[]",
          "name": "",
          "type": "uint256[]"
        }
      ],
      "stateMutability": "view",
      "type": "function"
    },
    {
      "inputs": [],
      "name": "removeAlldelegations",
      "outputs": [],
      "stateMutability": "nonpayable",
      "type": "function"
    },
    {
      "inputs": [],
      "name": "toggleNodeOperator",
      "outputs": [],
      "stateMutability": "nonpayable",
      "type": "function"
    },
    {
      "inputs": [],
      "name": "toggleCPA",
      "outputs": [],
      "stateMutability": "nonpayable",
      "type": "function"
    },
    {
      "inputs": [],
      "name": "toggleNoDelegate",
      "outputs": [],
      "stateMutability": "nonpayable",
      "type": "function"
    },
    {
      "inputs": [],
      "name": "returnNodeOperators",
      "outputs": [
        {
          "internalType": "address[]",
          "name": "",
          "type": "address[]"
        }
      ],
      "stateMutability": "view",
      "type": "function"
    },
    {
      "inputs": [],
      "name": "returnNodeOperatorsCount",
      "outputs": [
        {
          "internalType": "uint256",
          "name": "",
          "type": "uint256"
        }
      ],
      "stateMutability": "view",
      "type": "function"
    },
    {
      "inputs": [],
      "name": "returnCPAs",
      "outputs": [
        {
          "internalType": "address[]",
          "name": "",
          "type": "address[]"
        }
      ],
      "stateMutability": "view",
      "type": "function"
    },
    {
      "inputs": [],
      "name": "removeDelegation",
      "outputs": [],
      "stateMutability": "nonpayable",
      "type": "function"
    },
    {
      "inputs": [
        {
          "internalType": "address",
          "name": "delegatee",
          "type": "address"
        }
      ],
      "name": "delegate",
      "outputs": [],
      "stateMutability": "nonpayable",
      "type": "function"
    },
    {
      "inputs": [
        {
          "internalType": "address",
          "name": "validator",
          "type": "address"
        },
        {
          "internalType": "uint256",
          "name": "amount",
          "type": "uint256"
        }
      ],
      "name": "increasePOWRewards",
      "outputs": [
        {
          "internalType": "bool",
          "name": "",
          "type": "bool"
        }
      ],
      "stateMutability": "nonpayable",
      "type": "function"
    },
    {
      "inputs": [
        {
          "internalType": "address",
          "name": "validator",
          "type": "address"
        }
      ],
      "name": "increaseDelegatedStakeRewards",
      "outputs": [
        {
          "internalType": "bool",
          "name": "",
          "type": "bool"
        }
      ],
      "stateMutability": "nonpayable",
      "type": "function"
    },
    {
      "inputs": [
        {
          "internalType": "address",
          "name": "validator",
          "type": "address"
        }
      ],
      "name": "increaseStakeRewards",
      "outputs": [
        {
          "internalType": "bool",
          "name": "",
          "type": "bool"
        }
      ],
      "stateMutability": "nonpayable",
      "type": "function"
    },
    {
      "inputs": [
        {
          "internalType": "bool",
          "name": "deliver",
          "type": "bool"
        }
      ],
      "name": "claimStakeRewards",
      "outputs": [],
      "stateMutability": "nonpayable",
      "type": "function"
    }
  ],
  "bytecode": "0x608060405234801561001057600080fd5b50615f1a80620000216000396000f3fe608060405234801561001057600080fd5b50600436106102325760003560e01c806391d1485411610130578063cfe02b89116100b8578063e6ef7ada1161007c578063e6ef7ada14610697578063e7946f27146106b3578063ed1b4f9b146106bd578063f2d1745d146106ed578063fcccd1001461070b57610232565b8063cfe02b89146105e0578063d43448b814610610578063d525e67514610640578063d547741f14610671578063e20d2f8c1461068d57610232565b8063b90b3cb5116100ff578063b90b3cb514610547578063bce6294f14610551578063bdd4d18d14610588578063c0c53b8b146105a6578063cf4cc8bd146105c257610232565b806391d14854146104bd57806398c3c116146104ed578063a2011b3f1461050b578063a217fddf1461052957610232565b80633d666e8b116101be57806371d8c7a01161018257806371d8c7a01461041757806375416a6b14610435578063797a9cf2146104655780637e105bde146104815780638e00a8e81461049f57610232565b80633d666e8b146103875780633e10c4871461039157806342083e97146103ad57806350da3975146103dd5780635c19a95c146103fb57610232565b80632085b90c116102055780632085b90c146102d3578063248a9ca3146102ef5780632f2ff15d1461031f5780633373d32a1461033b57806336568abe1461036b57610232565b806301ffc9a714610237578063092c5b3b14610267578063105fd47014610285578063115cd5b9146102b5575b600080fd5b610251600480360381019061024c9190614c6b565b610715565b60405161025e9190615730565b60405180910390f35b61026f61078f565b60405161027c91906157c9565b60405180910390f35b61029f600480360381019061029a9190614b00565b6107b3565b6040516102ac9190615730565b60405180910390f35b6102bd61080c565b6040516102ca9190615a3c565b60405180910390f35b6102ed60048036038101906102e89190614bb4565b610812565b005b61030960048036038101906103049190614c06565b610de9565b60405161031691906157c9565b60405180910390f35b61033960048036038101906103349190614c2f565b610e08565b005b61035560048036038101906103509190614c94565b610e31565b604051610362919061566a565b60405180910390f35b61038560048036038101906103809190614c2f565b610e70565b005b61038f610ef3565b005b6103ab60048036038101906103a69190614c94565b611687565b005b6103c760048036038101906103c29190614b78565b611789565b6040516103d49190615730565b60405180910390f35b6103e5611909565b6040516103f291906156d7565b60405180910390f35b61041560048036038101906104109190614b00565b611997565b005b61041f611f08565b60405161042c91906157e4565b60405180910390f35b61044f600480360381019061044a9190614b00565b611f2e565b60405161045c9190615730565b60405180910390f35b61047f600480360381019061047a9190614c94565b612186565b005b610489612288565b6040516104969190615a3c565b60405180910390f35b6104a7612295565b6040516104b49190615a3c565b60405180910390f35b6104d760048036038101906104d29190614c2f565b61229b565b6040516104e49190615730565b60405180910390f35b6104f5612305565b604051610502919061566a565b60405180910390f35b61051361232b565b60405161052091906157c9565b60405180910390f35b61053161234f565b60405161053e91906157c9565b60405180910390f35b61054f612356565b005b61056b60048036038101906105669190614b00565b61285c565b60405161057f98979695949392919061574b565b60405180910390f35b6105906128eb565b60405161059d91906157ff565b60405180910390f35b6105c060048036038101906105bb9190614b29565b612911565b005b6105ca612ae1565b6040516105d791906156d7565b60405180910390f35b6105fa60048036038101906105f59190614b00565b612b6f565b604051610607919061566a565b60405180910390f35b61062a60048036038101906106259190614c94565b612bdb565b604051610637919061566a565b60405180910390f35b61065a60048036038101906106559190614b00565b612c1a565b6040516106689291906156f9565b60405180910390f35b61068b60048036038101906106869190614c2f565b613046565b005b61069561306f565b005b6106b160048036038101906106ac9190614c94565b61337e565b005b6106bb613480565b005b6106d760048036038101906106d29190614b00565b6137f2565b6040516106e49190615730565b60405180910390f35b6106f5613d24565b6040516107029190615a3c565b60405180910390f35b610713613d2a565b005b60007f7965db0b000000000000000000000000000000000000000000000000000000007bffffffffffffffffffffffffffffffffffffffffffffffffffffffff1916827bffffffffffffffffffffffffffffffffffffffffffffffffffffffff19161480610788575061078782614011565b5b9050919050565b7f7b765e0e932d348852a6f810bfa1ab891e259123f02db8cdcde614c57022335781565b6000600960008373ffffffffffffffffffffffffffffffffffffffff1673ffffffffffffffffffffffffffffffffffffffff16815260200190815260200160002060000160009054906101000a900460ff169050919050565b60085481565b6000600960003373ffffffffffffffffffffffffffffffffffffffff1673ffffffffffffffffffffffffffffffffffffffff1681526020019081526020016000206003015490506000600960003373ffffffffffffffffffffffffffffffffffffffff1673ffffffffffffffffffffffffffffffffffffffff1681526020019081526020016000206004015490506000600960003373ffffffffffffffffffffffffffffffffffffffff1673ffffffffffffffffffffffffffffffffffffffff1681526020019081526020016000206006015490506000600960003373ffffffffffffffffffffffffffffffffffffffff1673ffffffffffffffffffffffffffffffffffffffff1681526020019081526020016000206005015490506000610967846109598461094b878a61407b90919063ffffffff16565b61407b90919063ffffffff16565b61407b90919063ffffffff16565b90506000600960003373ffffffffffffffffffffffffffffffffffffffff1673ffffffffffffffffffffffffffffffffffffffff168152602001908152602001600020600301819055506000600960003373ffffffffffffffffffffffffffffffffffffffff1673ffffffffffffffffffffffffffffffffffffffff168152602001908152602001600020600401819055506000600960003373ffffffffffffffffffffffffffffffffffffffff1673ffffffffffffffffffffffffffffffffffffffff168152602001908152602001600020600601819055506000600960003373ffffffffffffffffffffffffffffffffffffffff1673ffffffffffffffffffffffffffffffffffffffff168152602001908152602001600020600501819055506000811115610de1578515610bcd573373ffffffffffffffffffffffffffffffffffffffff167f4fcc1f6709c7de29c80bcd44f92e9b5548613a2d8ebefacf9fa570d687cce28c82604051610ade9190615a3c565b60405180910390a2600260009054906101000a900473ffffffffffffffffffffffffffffffffffffffff1673ffffffffffffffffffffffffffffffffffffffff166340c10f1933836040518363ffffffff1660e01b8152600401610b439291906156ae565b602060405180830381600087803b158015610b5d57600080fd5b505af1158015610b71573d6000803e3d6000fd5b505050506040513d601f19601f82011682018060405250810190610b959190614bdd565b610bc8577f4e487b7100000000000000000000000000000000000000000000000000000000600052600160045260246000fd5b610de0565b3373ffffffffffffffffffffffffffffffffffffffff167f935cd710a2bc7a3db341f3f67ba6abdb9ea572d203b87642e2d359559152790582604051610c139190615a3c565b60405180910390a2600160009054906101000a900473ffffffffffffffffffffffffffffffffffffffff1673ffffffffffffffffffffffffffffffffffffffff1663d417b7b333836040518363ffffffff1660e01b8152600401610c789291906156ae565b602060405180830381600087803b158015610c9257600080fd5b505af1158015610ca6573d6000803e3d6000fd5b505050506040513d601f19601f82011682018060405250810190610cca9190614bdd565b610cfd577f4e487b7100000000000000000000000000000000000000000000000000000000600052600160045260246000fd5b600260009054906101000a900473ffffffffffffffffffffffffffffffffffffffff1673ffffffffffffffffffffffffffffffffffffffff166340c10f1930836040518363ffffffff1660e01b8152600401610d5a9291906156ae565b602060405180830381600087803b158015610d7457600080fd5b505af1158015610d88573d6000803e3d6000fd5b505050506040513d601f19601f82011682018060405250810190610dac9190614bdd565b610ddf577f4e487b7100000000000000000000000000000000000000000000000000000000600052600160045260246000fd5b5b5b505050505050565b6000806000838152602001908152602001600020600101549050919050565b610e1182610de9565b610e2281610e1d614091565b614099565b610e2c8383614136565b505050565b60058181548110610e4157600080fd5b906000526020600020016000915054906101000a900473ffffffffffffffffffffffffffffffffffffffff1681565b610e78614091565b73ffffffffffffffffffffffffffffffffffffffff168173ffffffffffffffffffffffffffffffffffffffff1614610ee5576040517f08c379a0000000000000000000000000000000000000000000000000000000008152600401610edc906159fc565b60405180910390fd5b610eef8282614216565b5050565b6040518060400160405280601081526020017f72656d6f766544656c65676174696f6e00000000000000000000000000000000815250600360009054906101000a900473ffffffffffffffffffffffffffffffffffffffff1673ffffffffffffffffffffffffffffffffffffffff16636f9cf9853360016002811115610fa2577f4e487b7100000000000000000000000000000000000000000000000000000000600052602160045260246000fd5b6040518363ffffffff1660e01b8152600401610fbf929190615685565b60206040518083038186803b158015610fd757600080fd5b505afa158015610feb573d6000803e3d6000fd5b505050506040513d601f19601f8201168201806040525081019061100f9190614bdd565b61104e576040517f08c379a0000000000000000000000000000000000000000000000000000000008152600401611045906158bc565b60405180910390fd5b6000600960003373ffffffffffffffffffffffffffffffffffffffff1673ffffffffffffffffffffffffffffffffffffffff16815260200190815260200160002060070160009054906101000a900473ffffffffffffffffffffffffffffffffffffffff169050600073ffffffffffffffffffffffffffffffffffffffff168173ffffffffffffffffffffffffffffffffffffffff161415611125576040517f08c379a000000000000000000000000000000000000000000000000000000000815260040161111c9061587c565b60405180910390fd5b60005b600960008373ffffffffffffffffffffffffffffffffffffffff1673ffffffffffffffffffffffffffffffffffffffff16815260200190815260200160002060010180549050811015611628573373ffffffffffffffffffffffffffffffffffffffff16600960008473ffffffffffffffffffffffffffffffffffffffff1673ffffffffffffffffffffffffffffffffffffffff1681526020019081526020016000206001018281548110611206577f4e487b7100000000000000000000000000000000000000000000000000000000600052603260045260246000fd5b9060005260206000200160009054906101000a900473ffffffffffffffffffffffffffffffffffffffff1673ffffffffffffffffffffffffffffffffffffffff16141561161557600960008373ffffffffffffffffffffffffffffffffffffffff1673ffffffffffffffffffffffffffffffffffffffff1681526020019081526020016000206001016001600960008573ffffffffffffffffffffffffffffffffffffffff1673ffffffffffffffffffffffffffffffffffffffff168152602001908152602001600020600101805490506112e19190615bfa565b81548110611318577f4e487b7100000000000000000000000000000000000000000000000000000000600052603260045260246000fd5b9060005260206000200160009054906101000a900473ffffffffffffffffffffffffffffffffffffffff16600960008473ffffffffffffffffffffffffffffffffffffffff1673ffffffffffffffffffffffffffffffffffffffff16815260200190815260200160002060010182815481106113bd577f4e487b7100000000000000000000000000000000000000000000000000000000600052603260045260246000fd5b9060005260206000200160006101000a81548173ffffffffffffffffffffffffffffffffffffffff021916908373ffffffffffffffffffffffffffffffffffffffff160217905550600960008373ffffffffffffffffffffffffffffffffffffffff1673ffffffffffffffffffffffffffffffffffffffff16815260200190815260200160002060010180548061147d577f4e487b7100000000000000000000000000000000000000000000000000000000600052603160045260246000fd5b6001900381819060005260206000200160006101000a81549073ffffffffffffffffffffffffffffffffffffffff021916905590556000600960008473ffffffffffffffffffffffffffffffffffffffff1673ffffffffffffffffffffffffffffffffffffffff16815260200190815260200160002060020160003373ffffffffffffffffffffffffffffffffffffffff1673ffffffffffffffffffffffffffffffffffffffff16815260200190815260200160002060006101000a81548160ff0219169083151502179055506000600960003373ffffffffffffffffffffffffffffffffffffffff1673ffffffffffffffffffffffffffffffffffffffff16815260200190815260200160002060070160006101000a81548173ffffffffffffffffffffffffffffffffffffffff021916908373ffffffffffffffffffffffffffffffffffffffff160217905550600960008373ffffffffffffffffffffffffffffffffffffffff1673ffffffffffffffffffffffffffffffffffffffff1681526020019081526020016000206001018054905090505b808061162090615d76565b915050611128565b508073ffffffffffffffffffffffffffffffffffffffff163373ffffffffffffffffffffffffffffffffffffffff167f1eceec0a0536d861c2e32af951fed5ce132e28eabd91abe6a89c9fdb3d13233c60405160405180910390a35050565b6116b17f61c92169ef077349011ff0b1383c894d86c5f0b41d986366b58a6cf31e93beda3361229b565b6116f0576040517f08c379a00000000000000000000000000000000000000000000000000000000081526004016116e79061585c565b60405180910390fd5b6000811415611734576040517f08c379a000000000000000000000000000000000000000000000000000000000815260040161172b9061593c565b60405180910390fd5b80600781905550604051611747906155f1565b60405180910390207ff99dba3a76085484eae2e89cc2e2ee5edffe3f1d25cdd1e6c5757447b9b5b4738260405161177e9190615a3c565b60405180910390a250565b60006040518060400160405280601281526020017f696e637265617365504f575265776172647300000000000000000000000000008152506117eb7f7b765e0e932d348852a6f810bfa1ab891e259123f02db8cdcde614c5702233573361229b565b61182a576040517f08c379a00000000000000000000000000000000000000000000000000000000081526004016118219061591c565b60405180910390fd5b61187f83600960008773ffffffffffffffffffffffffffffffffffffffff1673ffffffffffffffffffffffffffffffffffffffff1681526020019081526020016000206006015461407b90919063ffffffff16565b600960008673ffffffffffffffffffffffffffffffffffffffff1673ffffffffffffffffffffffffffffffffffffffff168152602001908152602001600020600601819055507fe591aa30cfe79f30882dbd1568d113f390c7a826623b8d2c209cc4ccc56f9cad83856040516118f6929190615a57565b60405180910390a1600191505092915050565b6060600480548060200260200160405190810160405280929190818152602001828054801561198d57602002820191906000526020600020905b8160009054906101000a900473ffffffffffffffffffffffffffffffffffffffff1673ffffffffffffffffffffffffffffffffffffffff1681526020019060010190808311611943575b5050505050905090565b6040518060400160405280600881526020017f44656c6567617465000000000000000000000000000000000000000000000000815250600360009054906101000a900473ffffffffffffffffffffffffffffffffffffffff1673ffffffffffffffffffffffffffffffffffffffff16636f9cf9853360016002811115611a46577f4e487b7100000000000000000000000000000000000000000000000000000000600052602160045260246000fd5b6040518363ffffffff1660e01b8152600401611a63929190615685565b60206040518083038186803b158015611a7b57600080fd5b505afa158015611a8f573d6000803e3d6000fd5b505050506040513d601f19601f82011682018060405250810190611ab39190614bdd565b611af2576040517f08c379a0000000000000000000000000000000000000000000000000000000008152600401611ae9906158bc565b60405180910390fd5b600960003373ffffffffffffffffffffffffffffffffffffffff1673ffffffffffffffffffffffffffffffffffffffff16815260200190815260200160002060000160009054906101000a900460ff1615611b82576040517f08c379a0000000000000000000000000000000000000000000000000000000008152600401611b799061595c565b60405180910390fd5b600960008373ffffffffffffffffffffffffffffffffffffffff1673ffffffffffffffffffffffffffffffffffffffff16815260200190815260200160002060020160003373ffffffffffffffffffffffffffffffffffffffff1673ffffffffffffffffffffffffffffffffffffffff16815260200190815260200160002060009054906101000a900460ff1615611c4f576040517f08c379a0000000000000000000000000000000000000000000000000000000008152600401611c46906159bc565b60405180910390fd5b600073ffffffffffffffffffffffffffffffffffffffff16600960003373ffffffffffffffffffffffffffffffffffffffff1673ffffffffffffffffffffffffffffffffffffffff16815260200190815260200160002060070160009054906101000a900473ffffffffffffffffffffffffffffffffffffffff1673ffffffffffffffffffffffffffffffffffffffff1614611cee57611ced610ef3565b5b600960008373ffffffffffffffffffffffffffffffffffffffff1673ffffffffffffffffffffffffffffffffffffffff168152602001908152602001600020600101339080600181540180825580915050600190039060005260206000200160009091909190916101000a81548173ffffffffffffffffffffffffffffffffffffffff021916908373ffffffffffffffffffffffffffffffffffffffff16021790555081600960003373ffffffffffffffffffffffffffffffffffffffff1673ffffffffffffffffffffffffffffffffffffffff16815260200190815260200160002060070160006101000a81548173ffffffffffffffffffffffffffffffffffffffff021916908373ffffffffffffffffffffffffffffffffffffffff1602179055506001600960008473ffffffffffffffffffffffffffffffffffffffff1673ffffffffffffffffffffffffffffffffffffffff16815260200190815260200160002060020160003373ffffffffffffffffffffffffffffffffffffffff1673ffffffffffffffffffffffffffffffffffffffff16815260200190815260200160002060006101000a81548160ff0219169083151502179055508173ffffffffffffffffffffffffffffffffffffffff163373ffffffffffffffffffffffffffffffffffffffff167f4c3b375b28d33f6da54f5db9f9e21f32e8dccce22c6b386a5ccd14acab659ad560405160405180910390a35050565b600160009054906101000a900473ffffffffffffffffffffffffffffffffffffffff1681565b60006040518060400160405280601481526020017f696e6372656173655374616b6552657761726473000000000000000000000000815250611f907f7b765e0e932d348852a6f810bfa1ab891e259123f02db8cdcde614c5702233573361229b565b611fcf576040517f08c379a0000000000000000000000000000000000000000000000000000000008152600401611fc69061591c565b60405180910390fd5b6000612090600654600160009054906101000a900473ffffffffffffffffffffffffffffffffffffffff1673ffffffffffffffffffffffffffffffffffffffff16638319d390876040518263ffffffff1660e01b8152600401612032919061566a565b60206040518083038186803b15801561204a57600080fd5b505afa15801561205e573d6000803e3d6000fd5b505050506040513d601f19601f820116820180604052508101906120829190614cbd565b6142f790919063ffffffff16565b90506120e781600960008773ffffffffffffffffffffffffffffffffffffffff1673ffffffffffffffffffffffffffffffffffffffff1681526020019081526020016000206003015461407b90919063ffffffff16565b600960008673ffffffffffffffffffffffffffffffffffffffff1673ffffffffffffffffffffffffffffffffffffffff168152602001908152602001600020600301819055508373ffffffffffffffffffffffffffffffffffffffff167f7f4591d6aa3e694b1ffc02f7762738dd3ca8e1d7357293b29833ef3136b213bd826040516121739190615a3c565b60405180910390a2600192505050919050565b6121b07f61c92169ef077349011ff0b1383c894d86c5f0b41d986366b58a6cf31e93beda3361229b565b6121ef576040517f08c379a00000000000000000000000000000000000000000000000000000000081526004016121e69061585c565b60405180910390fd5b6000811415612233576040517f08c379a000000000000000000000000000000000000000000000000000000000815260040161222a9061597c565b60405180910390fd5b8060068190555060405161224690615606565b60405180910390207ff99dba3a76085484eae2e89cc2e2ee5edffe3f1d25cdd1e6c5757447b9b5b4738260405161227d9190615a3c565b60405180910390a250565b6000600480549050905090565b60065481565b600080600084815260200190815260200160002060000160008373ffffffffffffffffffffffffffffffffffffffff1673ffffffffffffffffffffffffffffffffffffffff16815260200190815260200160002060009054906101000a900460ff16905092915050565b600260009054906101000a900473ffffffffffffffffffffffffffffffffffffffff1681565b7f61c92169ef077349011ff0b1383c894d86c5f0b41d986366b58a6cf31e93beda81565b6000801b81565b6040518060400160405280601281526020017f746f67676c654e6f64654f70657261746f720000000000000000000000000000815250600360009054906101000a900473ffffffffffffffffffffffffffffffffffffffff1673ffffffffffffffffffffffffffffffffffffffff16636f9cf9853360016002811115612405577f4e487b7100000000000000000000000000000000000000000000000000000000600052602160045260246000fd5b6040518363ffffffff1660e01b8152600401612422929190615685565b60206040518083038186803b15801561243a57600080fd5b505afa15801561244e573d6000803e3d6000fd5b505050506040513d601f19601f820116820180604052508101906124729190614bdd565b6124b1576040517f08c379a00000000000000000000000000000000000000000000000000000000081526004016124a8906158bc565b60405180910390fd5b600960003373ffffffffffffffffffffffffffffffffffffffff1673ffffffffffffffffffffffffffffffffffffffff16815260200190815260200160002060000160009054906101000a900460ff16156125c2576000600960003373ffffffffffffffffffffffffffffffffffffffff1673ffffffffffffffffffffffffffffffffffffffff16815260200190815260200160002060000160006101000a81548160ff02191690831515021790555061256961430d565b612571613d2a565b3373ffffffffffffffffffffffffffffffffffffffff167f865cebc4621af692efc5ecb87041bae7eced8c916f529795ddfc7368978d75f76040516125b5906158fc565b60405180910390a2612859565b600160009054906101000a900473ffffffffffffffffffffffffffffffffffffffff1673ffffffffffffffffffffffffffffffffffffffff1663aaffadf36040518163ffffffff1660e01b815260040160206040518083038186803b15801561262a57600080fd5b505afa15801561263e573d6000803e3d6000fd5b505050506040513d601f19601f820116820180604052508101906126629190614cbd565b600160009054906101000a900473ffffffffffffffffffffffffffffffffffffffff1673ffffffffffffffffffffffffffffffffffffffff16638319d390336040518263ffffffff1660e01b81526004016126bd919061566a565b60206040518083038186803b1580156126d557600080fd5b505afa1580156126e9573d6000803e3d6000fd5b505050506040513d601f19601f8201168201806040525081019061270d9190614cbd565b101561274e576040517f08c379a00000000000000000000000000000000000000000000000000000000081526004016127459061589c565b60405180910390fd5b6001600960003373ffffffffffffffffffffffffffffffffffffffff1673ffffffffffffffffffffffffffffffffffffffff16815260200190815260200160002060000160006101000a81548160ff0219169083151502179055506004339080600181540180825580915050600190039060005260206000200160009091909190916101000a81548173ffffffffffffffffffffffffffffffffffffffff021916908373ffffffffffffffffffffffffffffffffffffffff1602179055503373ffffffffffffffffffffffffffffffffffffffff167f865cebc4621af692efc5ecb87041bae7eced8c916f529795ddfc7368978d75f76040516128509061599c565b60405180910390a25b50565b60096020528060005260406000206000915090508060000160009054906101000a900460ff16908060030154908060040154908060050154908060060154908060070160009054906101000a900473ffffffffffffffffffffffffffffffffffffffff16908060070160149054906101000a900460ff16908060070160159054906101000a900460ff16905088565b600360009054906101000a900473ffffffffffffffffffffffffffffffffffffffff1681565b600073ffffffffffffffffffffffffffffffffffffffff168373ffffffffffffffffffffffffffffffffffffffff161415612981576040517f08c379a0000000000000000000000000000000000000000000000000000000008152600401612978906159dc565b60405180910390fd5b600073ffffffffffffffffffffffffffffffffffffffff168273ffffffffffffffffffffffffffffffffffffffff1614156129f1576040517f08c379a00000000000000000000000000000000000000000000000000000000081526004016129e8906158dc565b60405180910390fd5b82600160006101000a81548173ffffffffffffffffffffffffffffffffffffffff021916908373ffffffffffffffffffffffffffffffffffffffff16021790555081600260006101000a81548173ffffffffffffffffffffffffffffffffffffffff021916908373ffffffffffffffffffffffffffffffffffffffff16021790555080600360006101000a81548173ffffffffffffffffffffffffffffffffffffffff021916908373ffffffffffffffffffffffffffffffffffffffff1602179055506103e860068190555061044c60078190555061238c600881905550612adc6000801b33614539565b505050565b60606005805480602002602001604051908101604052809291908181526020018280548015612b6557602002820191906000526020600020905b8160009054906101000a900473ffffffffffffffffffffffffffffffffffffffff1673ffffffffffffffffffffffffffffffffffffffff1681526020019060010190808311612b1b575b5050505050905090565b6000600960008373ffffffffffffffffffffffffffffffffffffffff1673ffffffffffffffffffffffffffffffffffffffff16815260200190815260200160002060070160009054906101000a900473ffffffffffffffffffffffffffffffffffffffff169050919050565b60048181548110612beb57600080fd5b906000526020600020016000915054906101000a900473ffffffffffffffffffffffffffffffffffffffff1681565b6060806000600960008573ffffffffffffffffffffffffffffffffffffffff1673ffffffffffffffffffffffffffffffffffffffff1681526020019081526020016000206001018054905067ffffffffffffffff811115612ca4577f4e487b7100000000000000000000000000000000000000000000000000000000600052604160045260246000fd5b604051908082528060200260200182016040528015612cd25781602001602082028036833780820191505090505b5090506000600960008673ffffffffffffffffffffffffffffffffffffffff1673ffffffffffffffffffffffffffffffffffffffff1681526020019081526020016000206001018054905067ffffffffffffffff811115612d5c577f4e487b7100000000000000000000000000000000000000000000000000000000600052604160045260246000fd5b604051908082528060200260200182016040528015612d8a5781602001602082028036833780820191505090505b50905060005b600960008773ffffffffffffffffffffffffffffffffffffffff1673ffffffffffffffffffffffffffffffffffffffff1681526020019081526020016000206001018054905081101561303857600960008773ffffffffffffffffffffffffffffffffffffffff1673ffffffffffffffffffffffffffffffffffffffff1681526020019081526020016000206001018181548110612e57577f4e487b7100000000000000000000000000000000000000000000000000000000600052603260045260246000fd5b9060005260206000200160009054906101000a900473ffffffffffffffffffffffffffffffffffffffff16838281518110612ebb577f4e487b7100000000000000000000000000000000000000000000000000000000600052603260045260246000fd5b602002602001019073ffffffffffffffffffffffffffffffffffffffff16908173ffffffffffffffffffffffffffffffffffffffff1681525050600160009054906101000a900473ffffffffffffffffffffffffffffffffffffffff1673ffffffffffffffffffffffffffffffffffffffff16638319d390848381518110612f6c577f4e487b7100000000000000000000000000000000000000000000000000000000600052603260045260246000fd5b60200260200101516040518263ffffffff1660e01b8152600401612f90919061566a565b60206040518083038186803b158015612fa857600080fd5b505afa158015612fbc573d6000803e3d6000fd5b505050506040513d601f19601f82011682018060405250810190612fe09190614cbd565b828281518110613019577f4e487b7100000000000000000000000000000000000000000000000000000000600052603260045260246000fd5b602002602001018181525050808061303090615d76565b915050612d90565b508181935093505050915091565b61304f82610de9565b6130608161305b614091565b614099565b61306a8383614216565b505050565b6040518060400160405280601081526020017f746f67676c654e6f44656c656761746500000000000000000000000000000000815250600360009054906101000a900473ffffffffffffffffffffffffffffffffffffffff1673ffffffffffffffffffffffffffffffffffffffff16636f9cf985336001600281111561311e577f4e487b7100000000000000000000000000000000000000000000000000000000600052602160045260246000fd5b6040518363ffffffff1660e01b815260040161313b929190615685565b60206040518083038186803b15801561315357600080fd5b505afa158015613167573d6000803e3d6000fd5b505050506040513d601f19601f8201168201806040525081019061318b9190614bdd565b6131ca576040517f08c379a00000000000000000000000000000000000000000000000000000000081526004016131c1906158bc565b60405180910390fd5b600960003373ffffffffffffffffffffffffffffffffffffffff1673ffffffffffffffffffffffffffffffffffffffff16815260200190815260200160002060070160149054906101000a900460ff16156132cb576000600960003373ffffffffffffffffffffffffffffffffffffffff1673ffffffffffffffffffffffffffffffffffffffff16815260200190815260200160002060070160146101000a81548160ff0219169083151502179055503373ffffffffffffffffffffffffffffffffffffffff167ff513c01ff458e6e9c2d933630bffb2ed21fe264c8a1df87e350103c1d5249a926040516132be906158fc565b60405180910390a261337b565b6132d3613d2a565b6001600960003373ffffffffffffffffffffffffffffffffffffffff1673ffffffffffffffffffffffffffffffffffffffff16815260200190815260200160002060070160146101000a81548160ff0219169083151502179055503373ffffffffffffffffffffffffffffffffffffffff167ff513c01ff458e6e9c2d933630bffb2ed21fe264c8a1df87e350103c1d5249a926040516133729061599c565b60405180910390a25b50565b6133a87f61c92169ef077349011ff0b1383c894d86c5f0b41d986366b58a6cf31e93beda3361229b565b6133e7576040517f08c379a00000000000000000000000000000000000000000000000000000000081526004016133de9061585c565b60405180910390fd5b600081141561342b576040517f08c379a000000000000000000000000000000000000000000000000000000000815260040161342290615a1c565b60405180910390fd5b8060088190555060405161343e9061561b565b60405180910390207ff99dba3a76085484eae2e89cc2e2ee5edffe3f1d25cdd1e6c5757447b9b5b473826040516134759190615a3c565b60405180910390a250565b6040518060400160405280600981526020017f746f67676c654350410000000000000000000000000000000000000000000000815250600360009054906101000a900473ffffffffffffffffffffffffffffffffffffffff1673ffffffffffffffffffffffffffffffffffffffff16636f9cf985336001600281111561352f577f4e487b7100000000000000000000000000000000000000000000000000000000600052602160045260246000fd5b6040518363ffffffff1660e01b815260040161354c929190615685565b60206040518083038186803b15801561356457600080fd5b505afa158015613578573d6000803e3d6000fd5b505050506040513d601f19601f8201168201806040525081019061359c9190614bdd565b6135db576040517f08c379a00000000000000000000000000000000000000000000000000000000081526004016135d2906158bc565b60405180910390fd5b600960003373ffffffffffffffffffffffffffffffffffffffff1673ffffffffffffffffffffffffffffffffffffffff16815260200190815260200160002060070160159054906101000a900460ff16156136e4576000600960003373ffffffffffffffffffffffffffffffffffffffff1673ffffffffffffffffffffffffffffffffffffffff16815260200190815260200160002060070160156101000a81548160ff021916908315150217905550613693614547565b3373ffffffffffffffffffffffffffffffffffffffff167f4b8d562d356022e8b61f63ef35522204f80493a3470e8054809edb86e2c7cc296040516136d7906158fc565b60405180910390a26137ef565b6001600960003373ffffffffffffffffffffffffffffffffffffffff1673ffffffffffffffffffffffffffffffffffffffff16815260200190815260200160002060070160156101000a81548160ff0219169083151502179055506005339080600181540180825580915050600190039060005260206000200160009091909190916101000a81548173ffffffffffffffffffffffffffffffffffffffff021916908373ffffffffffffffffffffffffffffffffffffffff1602179055503373ffffffffffffffffffffffffffffffffffffffff167f4b8d562d356022e8b61f63ef35522204f80493a3470e8054809edb86e2c7cc296040516137e69061599c565b60405180910390a25b50565b60006040518060400160405280601d81526020017f696e63726561736544656c6567617465645374616b65526577617264730000008152506138547f7b765e0e932d348852a6f810bfa1ab891e259123f02db8cdcde614c5702233573361229b565b613893576040517f08c379a000000000000000000000000000000000000000000000000000000000815260040161388a9061591c565b60405180910390fd5b600080600090505b600960008673ffffffffffffffffffffffffffffffffffffffff1673ffffffffffffffffffffffffffffffffffffffff16815260200190815260200160002060010180549050811015613c25576000600960008773ffffffffffffffffffffffffffffffffffffffff1673ffffffffffffffffffffffffffffffffffffffff1681526020019081526020016000206001018281548110613964577f4e487b7100000000000000000000000000000000000000000000000000000000600052603260045260246000fd5b9060005260206000200160009054906101000a900473ffffffffffffffffffffffffffffffffffffffff1690506000613a52600754600160009054906101000a900473ffffffffffffffffffffffffffffffffffffffff1673ffffffffffffffffffffffffffffffffffffffff16638319d390856040518263ffffffff1660e01b81526004016139f4919061566a565b60206040518083038186803b158015613a0c57600080fd5b505afa158015613a20573d6000803e3d6000fd5b505050506040513d601f19601f82011682018060405250810190613a449190614cbd565b6142f790919063ffffffff16565b9050613aa981600960008573ffffffffffffffffffffffffffffffffffffffff1673ffffffffffffffffffffffffffffffffffffffff1681526020019081526020016000206004015461407b90919063ffffffff16565b600960008473ffffffffffffffffffffffffffffffffffffffff1673ffffffffffffffffffffffffffffffffffffffff16815260200190815260200160002060040181905550613bc0613bb1600854600160009054906101000a900473ffffffffffffffffffffffffffffffffffffffff1673ffffffffffffffffffffffffffffffffffffffff16638319d390866040518263ffffffff1660e01b8152600401613b53919061566a565b60206040518083038186803b158015613b6b57600080fd5b505afa158015613b7f573d6000803e3d6000fd5b505050506040513d601f19601f82011682018060405250810190613ba39190614cbd565b6142f790919063ffffffff16565b8561407b90919063ffffffff16565b93508173ffffffffffffffffffffffffffffffffffffffff167f91e762b6a3379646d3eb7b17dc3d73070be2f226797f2120f8df1fd23ceea33182604051613c089190615a3c565b60405180910390a250508080613c1d90615d76565b91505061389b565b506000811115613d1957613c8481600960008773ffffffffffffffffffffffffffffffffffffffff1673ffffffffffffffffffffffffffffffffffffffff1681526020019081526020016000206005015461407b90919063ffffffff16565b600960008673ffffffffffffffffffffffffffffffffffffffff1673ffffffffffffffffffffffffffffffffffffffff168152602001908152602001600020600501819055508373ffffffffffffffffffffffffffffffffffffffff167faf09fd05a4dac80c46aefb0d434552d1ff107640d2b30ed5fbd9fedb3f99942f82604051613d109190615a3c565b60405180910390a25b600192505050919050565b60075481565b6000600960003373ffffffffffffffffffffffffffffffffffffffff1673ffffffffffffffffffffffffffffffffffffffff1681526020019081526020016000206001018054905090505b600081111561400e576000600960003373ffffffffffffffffffffffffffffffffffffffff1673ffffffffffffffffffffffffffffffffffffffff168152602001908152602001600020600101600183613dcf9190615bfa565b81548110613e06577f4e487b7100000000000000000000000000000000000000000000000000000000600052603260045260246000fd5b9060005260206000200160009054906101000a900473ffffffffffffffffffffffffffffffffffffffff169050600960003373ffffffffffffffffffffffffffffffffffffffff1673ffffffffffffffffffffffffffffffffffffffff168152602001908152602001600020600101805480613eab577f4e487b7100000000000000000000000000000000000000000000000000000000600052603160045260246000fd5b6001900381819060005260206000200160006101000a81549073ffffffffffffffffffffffffffffffffffffffff021916905590556000600960003373ffffffffffffffffffffffffffffffffffffffff1673ffffffffffffffffffffffffffffffffffffffff16815260200190815260200160002060020160008373ffffffffffffffffffffffffffffffffffffffff1673ffffffffffffffffffffffffffffffffffffffff16815260200190815260200160002060006101000a81548160ff0219169083151502179055506000600960008373ffffffffffffffffffffffffffffffffffffffff1673ffffffffffffffffffffffffffffffffffffffff16815260200190815260200160002060070160006101000a81548173ffffffffffffffffffffffffffffffffffffffff021916908373ffffffffffffffffffffffffffffffffffffffff16021790555050808061400690615d4c565b915050613d75565b50565b60007f01ffc9a7000000000000000000000000000000000000000000000000000000007bffffffffffffffffffffffffffffffffffffffffffffffffffffffff1916827bffffffffffffffffffffffffffffffffffffffffffffffffffffffff1916149050919050565b600081836140899190615b19565b905092915050565b600033905090565b6140a3828261229b565b614132576140c88173ffffffffffffffffffffffffffffffffffffffff166014614773565b6140d68360001c6020614773565b6040516020016140e7929190615630565b6040516020818303038152906040526040517f08c379a0000000000000000000000000000000000000000000000000000000008152600401614129919061581a565b60405180910390fd5b5050565b614140828261229b565b61421257600160008084815260200190815260200160002060000160008373ffffffffffffffffffffffffffffffffffffffff1673ffffffffffffffffffffffffffffffffffffffff16815260200190815260200160002060006101000a81548160ff0219169083151502179055506141b7614091565b73ffffffffffffffffffffffffffffffffffffffff168173ffffffffffffffffffffffffffffffffffffffff16837f2f8788117e7eff1d82e926ec794901d17c78024a50270940304540a733656f0d60405160405180910390a45b5050565b614220828261229b565b156142f357600080600084815260200190815260200160002060000160008373ffffffffffffffffffffffffffffffffffffffff1673ffffffffffffffffffffffffffffffffffffffff16815260200190815260200160002060006101000a81548160ff021916908315150217905550614298614091565b73ffffffffffffffffffffffffffffffffffffffff168173ffffffffffffffffffffffffffffffffffffffff16837ff6391f5c32d9c69d2a47ea670b442974b53935d1edc7fd64eb21e047a839171b60405160405180910390a45b5050565b600081836143059190615b6f565b905092915050565b60005b600480549050811015614536573373ffffffffffffffffffffffffffffffffffffffff166004828154811061436e577f4e487b7100000000000000000000000000000000000000000000000000000000600052603260045260246000fd5b9060005260206000200160009054906101000a900473ffffffffffffffffffffffffffffffffffffffff1673ffffffffffffffffffffffffffffffffffffffff16141561452357600460016004805490506143c99190615bfa565b81548110614400577f4e487b7100000000000000000000000000000000000000000000000000000000600052603260045260246000fd5b9060005260206000200160009054906101000a900473ffffffffffffffffffffffffffffffffffffffff1660048281548110614465577f4e487b7100000000000000000000000000000000000000000000000000000000600052603260045260246000fd5b9060005260206000200160006101000a81548173ffffffffffffffffffffffffffffffffffffffff021916908373ffffffffffffffffffffffffffffffffffffffff16021790555060048054806144e5577f4e487b7100000000000000000000000000000000000000000000000000000000600052603160045260246000fd5b6001900381819060005260206000200160006101000a81549073ffffffffffffffffffffffffffffffffffffffff0219169055905560048054905090505b808061452e90615d76565b915050614310565b50565b6145438282614136565b5050565b60005b600580549050811015614770573373ffffffffffffffffffffffffffffffffffffffff16600582815481106145a8577f4e487b7100000000000000000000000000000000000000000000000000000000600052603260045260246000fd5b9060005260206000200160009054906101000a900473ffffffffffffffffffffffffffffffffffffffff1673ffffffffffffffffffffffffffffffffffffffff16141561475d57600560016005805490506146039190615bfa565b8154811061463a577f4e487b7100000000000000000000000000000000000000000000000000000000600052603260045260246000fd5b9060005260206000200160009054906101000a900473ffffffffffffffffffffffffffffffffffffffff166005828154811061469f577f4e487b7100000000000000000000000000000000000000000000000000000000600052603260045260246000fd5b9060005260206000200160006101000a81548173ffffffffffffffffffffffffffffffffffffffff021916908373ffffffffffffffffffffffffffffffffffffffff160217905550600580548061471f577f4e487b7100000000000000000000000000000000000000000000000000000000600052603160045260246000fd5b6001900381819060005260206000200160006101000a81549073ffffffffffffffffffffffffffffffffffffffff0219169055905560058054905090505b808061476890615d76565b91505061454a565b50565b6060600060028360026147869190615ba0565b6147909190615b19565b67ffffffffffffffff8111156147cf577f4e487b7100000000000000000000000000000000000000000000000000000000600052604160045260246000fd5b6040519080825280601f01601f1916602001820160405280156148015781602001600182028036833780820191505090505b5090507f30000000000000000000000000000000000000000000000000000000000000008160008151811061485f577f4e487b7100000000000000000000000000000000000000000000000000000000600052603260045260246000fd5b60200101907effffffffffffffffffffffffffffffffffffffffffffffffffffffffffffff1916908160001a9053507f7800000000000000000000000000000000000000000000000000000000000000816001815181106148e9577f4e487b7100000000000000000000000000000000000000000000000000000000600052603260045260246000fd5b60200101907effffffffffffffffffffffffffffffffffffffffffffffffffffffffffffff1916908160001a905350600060018460026149299190615ba0565b6149339190615b19565b90505b6001811115614a1f577f3031323334353637383961626364656600000000000000000000000000000000600f86166010811061499b577f4e487b7100000000000000000000000000000000000000000000000000000000600052603260045260246000fd5b1a60f81b8282815181106149d8577f4e487b7100000000000000000000000000000000000000000000000000000000600052603260045260246000fd5b60200101907effffffffffffffffffffffffffffffffffffffffffffffffffffffffffffff1916908160001a905350600485901c945080614a1890615d4c565b9050614936565b5060008414614a63576040517f08c379a0000000000000000000000000000000000000000000000000000000008152600401614a5a9061583c565b60405180910390fd5b8091505092915050565b600081359050614a7c81615e71565b92915050565b600081359050614a9181615e88565b92915050565b600081519050614aa681615e88565b92915050565b600081359050614abb81615e9f565b92915050565b600081359050614ad081615eb6565b92915050565b600081359050614ae581615ecd565b92915050565b600081519050614afa81615ecd565b92915050565b600060208284031215614b1257600080fd5b6000614b2084828501614a6d565b91505092915050565b600080600060608486031215614b3e57600080fd5b6000614b4c86828701614a6d565b9350506020614b5d86828701614a6d565b9250506040614b6e86828701614a6d565b9150509250925092565b60008060408385031215614b8b57600080fd5b6000614b9985828601614a6d565b9250506020614baa85828601614ad6565b9150509250929050565b600060208284031215614bc657600080fd5b6000614bd484828501614a82565b91505092915050565b600060208284031215614bef57600080fd5b6000614bfd84828501614a97565b91505092915050565b600060208284031215614c1857600080fd5b6000614c2684828501614aac565b91505092915050565b60008060408385031215614c4257600080fd5b6000614c5085828601614aac565b9250506020614c6185828601614a6d565b9150509250929050565b600060208284031215614c7d57600080fd5b6000614c8b84828501614ac1565b91505092915050565b600060208284031215614ca657600080fd5b6000614cb484828501614ad6565b91505092915050565b600060208284031215614ccf57600080fd5b6000614cdd84828501614aeb565b91505092915050565b6000614cf28383614d16565b60208301905092915050565b6000614d0a83836155d3565b60208301905092915050565b614d1f81615c2e565b82525050565b614d2e81615c2e565b82525050565b6000614d3f82615aa0565b614d498185615adb565b9350614d5483615a80565b8060005b83811015614d85578151614d6c8882614ce6565b9750614d7783615ac1565b925050600181019050614d58565b5085935050505092915050565b6000614d9d82615aab565b614da78185615aec565b9350614db283615a90565b8060005b83811015614de3578151614dca8882614cfe565b9750614dd583615ace565b925050600181019050614db6565b5085935050505092915050565b614df981615c40565b82525050565b614e0881615c4c565b82525050565b614e1781615cbf565b82525050565b614e2681615ce3565b82525050565b614e3581615d07565b82525050565b6000614e4682615ab6565b614e508185615afd565b9350614e60818560208601615d19565b614e6981615e4c565b840191505092915050565b6000614e7f82615ab6565b614e898185615b0e565b9350614e99818560208601615d19565b80840191505092915050565b6000614eb2601a83615b0e565b91507f7570646174655374616b65526174696f44656c65676174696e670000000000006000830152601a82019050919050565b6000614ef2602083615afd565b91507f537472696e67733a20686578206c656e67746820696e73756666696369656e746000830152602082019050919050565b6000614f32602683615afd565b91507f4e4f202d206973536574746572202d2043616c6c6572206973206e6f7420612060008301527f73657474657200000000000000000000000000000000000000000000000000006020830152604082019050919050565b6000614f98602783615afd565b91507f4e4f3a72656d6f766544656c65676174696f6e204e6f742064656c656761746960008301527f6e67207965742e000000000000000000000000000000000000000000000000006020830152604082019050919050565b6000614ffe603583615afd565b91507f4e4f3a746f6767656c4e6f64654f70657261746f72202d204d696e696d756d2060008301527f7374616b6520616d6f756e74206e6f74206d65742e00000000000000000000006020830152604082019050919050565b6000615064602483615afd565b91507f697356616c696461746f723a2063616c6c6572206973206e6f742076616c696460008301527f61746f72000000000000000000000000000000000000000000000000000000006020830152604082019050919050565b60006150ca601083615b0e565b91507f5570646174655374616b65526174696f000000000000000000000000000000006000830152601082019050919050565b600061510a601a83615b0e565b91507f7570646174655374616b696e67526174696f526566657272616c0000000000006000830152601a82019050919050565b600061514a602883615afd565b91507f4e4f3a736574436f686f7274202d20436f686f7274206164647265737320636160008301527f6e277420626520300000000000000000000000000000000000000000000000006020830152604082019050919050565b60006151b0600383615afd565b91507f4f464600000000000000000000000000000000000000000000000000000000006000830152602082019050919050565b60006151f0602b83615afd565b91507f4e4f202d206973436f6e74726f6c6c65723a2063616c6c6572206973206e6f7460008301527f20636f6e74726f6c6c65720000000000000000000000000000000000000000006020830152604082019050919050565b6000615256603483615afd565b91507f4e4f3a7570646174655374616b65526174696f44656c65676174696e67202d2060008301527f4e657720726174696f2063616e277420626520300000000000000000000000006020830152604082019050919050565b60006152bc601783615b0e565b91507f416363657373436f6e74726f6c3a206163636f756e74200000000000000000006000830152601782019050919050565b60006152fc603583615afd565b91507f4e4f3a64656c656761677465202d2043616e27742064656c656761746520776860008301527f696c652061206e6f6465206f70657261746f722e2000000000000000000000006020830152604082019050919050565b6000615362602a83615afd565b91507f4e4f3a7570646174655374616b65526174696f202d204e657720726174696f2060008301527f63616e27742062652030000000000000000000000000000000000000000000006020830152604082019050919050565b60006153c8600283615afd565b91507f4f4e0000000000000000000000000000000000000000000000000000000000006000830152602082019050919050565b6000615408603583615afd565b91507f4e4f3a64656c6567617465202d20596f752061726520616c726561647920646560008301527f6c65676174696e6720746f2074686973207573657200000000000000000000006020830152604082019050919050565b600061546e603183615afd565b91507f4e4f3a636f6e7374727563746f72202d204d656d62657248656c70657273206160008301527f6464726573732063616e277420626520300000000000000000000000000000006020830152604082019050919050565b60006154d4601183615b0e565b91507f206973206d697373696e6720726f6c65200000000000000000000000000000006000830152601182019050919050565b6000615514602f83615afd565b91507f416363657373436f6e74726f6c3a2063616e206f6e6c792072656e6f756e636560008301527f20726f6c657320666f722073656c6600000000000000000000000000000000006020830152604082019050919050565b600061557a603483615afd565b91507f4e4f3a7570646174655374616b696e67526174696f526566657272616c202d2060008301527f4e657720726174696f2063616e277420626520300000000000000000000000006020830152604082019050919050565b6155dc81615cb5565b82525050565b6155eb81615cb5565b82525050565b60006155fc82614ea5565b9150819050919050565b6000615611826150bd565b9150819050919050565b6000615626826150fd565b9150819050919050565b600061563b826152af565b91506156478285614e74565b9150615652826154c7565b915061565e8284614e74565b91508190509392505050565b600060208201905061567f6000830184614d25565b92915050565b600060408201905061569a6000830185614d25565b6156a76020830184614e2c565b9392505050565b60006040820190506156c36000830185614d25565b6156d060208301846155e2565b9392505050565b600060208201905081810360008301526156f18184614d34565b905092915050565b600060408201905081810360008301526157138185614d34565b905081810360208301526157278184614d92565b90509392505050565b60006020820190506157456000830184614df0565b92915050565b600061010082019050615761600083018b614df0565b61576e602083018a6155e2565b61577b60408301896155e2565b61578860608301886155e2565b61579560808301876155e2565b6157a260a0830186614d25565b6157af60c0830185614df0565b6157bc60e0830184614df0565b9998505050505050505050565b60006020820190506157de6000830184614dff565b92915050565b60006020820190506157f96000830184614e0e565b92915050565b60006020820190506158146000830184614e1d565b92915050565b600060208201905081810360008301526158348184614e3b565b905092915050565b6000602082019050818103600083015261585581614ee5565b9050919050565b6000602082019050818103600083015261587581614f25565b9050919050565b6000602082019050818103600083015261589581614f8b565b9050919050565b600060208201905081810360008301526158b581614ff1565b9050919050565b600060208201905081810360008301526158d581615057565b9050919050565b600060208201905081810360008301526158f58161513d565b9050919050565b60006020820190508181036000830152615915816151a3565b9050919050565b60006020820190508181036000830152615935816151e3565b9050919050565b6000602082019050818103600083015261595581615249565b9050919050565b60006020820190508181036000830152615975816152ef565b9050919050565b6000602082019050818103600083015261599581615355565b9050919050565b600060208201905081810360008301526159b5816153bb565b9050919050565b600060208201905081810360008301526159d5816153fb565b9050919050565b600060208201905081810360008301526159f581615461565b9050919050565b60006020820190508181036000830152615a1581615507565b9050919050565b60006020820190508181036000830152615a358161556d565b9050919050565b6000602082019050615a5160008301846155e2565b92915050565b6000604082019050615a6c60008301856155e2565b615a796020830184614d25565b9392505050565b6000819050602082019050919050565b6000819050602082019050919050565b600081519050919050565b600081519050919050565b600081519050919050565b6000602082019050919050565b6000602082019050919050565b600082825260208201905092915050565b600082825260208201905092915050565b600082825260208201905092915050565b600081905092915050565b6000615b2482615cb5565b9150615b2f83615cb5565b9250827fffffffffffffffffffffffffffffffffffffffffffffffffffffffffffffffff03821115615b6457615b63615dbf565b5b828201905092915050565b6000615b7a82615cb5565b9150615b8583615cb5565b925082615b9557615b94615dee565b5b828204905092915050565b6000615bab82615cb5565b9150615bb683615cb5565b9250817fffffffffffffffffffffffffffffffffffffffffffffffffffffffffffffffff0483118215151615615bef57615bee615dbf565b5b828202905092915050565b6000615c0582615cb5565b9150615c1083615cb5565b925082821015615c2357615c22615dbf565b5b828203905092915050565b6000615c3982615c95565b9050919050565b60008115159050919050565b6000819050919050565b60007fffffffff0000000000000000000000000000000000000000000000000000000082169050919050565b6000819050615c9082615e5d565b919050565b600073ffffffffffffffffffffffffffffffffffffffff82169050919050565b6000819050919050565b6000615cca82615cd1565b9050919050565b6000615cdc82615c95565b9050919050565b6000615cee82615cf5565b9050919050565b6000615d0082615c95565b9050919050565b6000615d1282615c82565b9050919050565b60005b83811015615d37578082015181840152602081019050615d1c565b83811115615d46576000848401525b50505050565b6000615d5782615cb5565b91506000821415615d6b57615d6a615dbf565b5b600182039050919050565b6000615d8182615cb5565b91507fffffffffffffffffffffffffffffffffffffffffffffffffffffffffffffffff821415615db457615db3615dbf565b5b600182019050919050565b7f4e487b7100000000000000000000000000000000000000000000000000000000600052601160045260246000fd5b7f4e487b7100000000000000000000000000000000000000000000000000000000600052601260045260246000fd5b7f4e487b7100000000000000000000000000000000000000000000000000000000600052602160045260246000fd5b6000601f19601f8301169050919050565b60038110615e6e57615e6d615e1d565b5b50565b615e7a81615c2e565b8114615e8557600080fd5b50565b615e9181615c40565b8114615e9c57600080fd5b50565b615ea881615c4c565b8114615eb357600080fd5b50565b615ebf81615c56565b8114615eca57600080fd5b50565b615ed681615cb5565b8114615ee157600080fd5b5056fea2646970667358221220d13acd1be0c3ee902f5c430d48aa180fa8bd57a98c0e14482596b85a6fea8bcc64736f6c63430008000033",
  "immutableReferences": {},
  "source": "// SPDX-License-Identifier: MIT\npragma solidity =0.8.0;\nimport \"@openzeppelin/contracts/access/AccessControl.sol\";\nimport \"@openzeppelin/contracts/utils/math/SafeMath.sol\";\nimport \"./../IAuditToken.sol\";\nimport \"./MemberHelpers.sol\";\n\n\n\n/**\n * @title NodeOperations\n * Functions for Node Operators\n */\ncontract NodeOperations is AccessControl {\n\n    using SafeMath for uint256;\n\n    MemberHelpers public memberHelpers;\n    address public auditToken;          \n    Members public members;\n\n    address[] public nodeOperators;\n    address[] public CPAs;\n\n    uint256 public stakeRatio;\n    uint256 public stakeRatioDelegating;\n    uint256 public stakingRatioReferral;\n\n\n    struct nodeOperator {\n\n        bool isNodeOperator;\n        address[] delegations;\n        mapping(address => bool) isDelegating;\n        uint256 stakeAmount;\n        uint256 delegateAmount;\n        uint256 referralAmount;\n        uint256 POWAmount;\n        address delegatorLink;\n        bool noDelegations;\n        bool isCPA;\n    }\n\n\n    mapping(address => nodeOperator) public nodeOpStruct;\n\n\n\n    bytes32 public constant CONTROLLER_ROLE = keccak256(\"CONTROLLER_ROLE\");\n    bytes32 public constant SETTER_ROLE =  keccak256(\"SETTER_ROLE\");\n\n\n    event LogNodeOperatorToggled(address indexed user, string action);\n    event LogCPAToggled(address indexed user, string action);\n    event LogNoDelegateToggled(address indexed user, string action);\n    event LogRemoveDelegation(address indexed delegating, address indexed delegatee);\n    event LogDelegation(address indexed delegating, address indexed newDelegatee);\n    event LogDelegatedStakeRewardsIncreased(address indexed delegating, uint256 amount);\n    event LogReferralStakeRewardsIncreased(address indexed delegating, uint256 amount);\n    event LogStakingRewardsTransferredOut(address indexed user, uint256 amount);\n    event LogStakingRewardsClaimed(address indexed user, uint256 amount);\n    event LogStakeRewardsIncreased(address indexed validator, uint256 amount);\n    event LogGovernanceUpdate(uint256 params, string indexed action);\n    event IncreasePOW(uint256 amount, address validator);\n\n    function initialize(address _memberHelpers, address _auditToken, address _members) external  { \n        require(_memberHelpers != address(0), \"NO:constructor - MemberHelpers address can't be 0\");\n        require( _auditToken != address(0), \"NO:setCohort - Cohort address can't be 0\");\n        memberHelpers = MemberHelpers(_memberHelpers);\n        auditToken = _auditToken;\n        members = Members(_members);    \n        stakeRatio = 1000;\n        stakeRatioDelegating = 1100;\n        stakingRatioReferral = 9100;\n        _setupRole(DEFAULT_ADMIN_ROLE, msg.sender);\n    }\n\n\n\n     /// @dev check if caller is a controller\n    modifier isController(string memory source) {\n        // string memory msgError = string(abi.encodePacked(\"NodeOperations(isController - Modifier):\", source, \"- Caller is not a controller\"));\n        require(hasRole(CONTROLLER_ROLE, msg.sender), \"NO - isController: caller is not controller\");\n\n        _;\n    }\n\n\n    /// @dev check if caller is a setter     \n    modifier isSetter {\n        require(hasRole(SETTER_ROLE, msg.sender), \"NO - isSetter - Caller is not a setter\");\n\n        _;\n    }\n\n    /// @dev check if user is validator\n    modifier isValidator(string memory source) {\n\n        // string memory msgError = string(abi.encodePacked(\"NodeOperations(isValidator- Modifier):\", source, \"- You are not a validator\"));\n        require( members.userMap(msg.sender, Members.UserType(1)), \"isValidator: caller is not validator\");\n\n        _;\n    }\n\n    function updateStakeRatioDelegating(uint256 _newRatio) external isSetter() {\n\n        require(_newRatio != 0, \"NO:updateStakeRatioDelegating - New ratio can't be 0\");\n        stakeRatioDelegating = _newRatio;\n\n        emit LogGovernanceUpdate(_newRatio, \"updateStakeRatioDelegating\");\n    }\n\n    function updateStakingRatioReferral(uint256 _newRatio) external isSetter() {\n\n        require(_newRatio != 0, \"NO:updateStakingRatioReferral - New ratio can't be 0\");\n        stakingRatioReferral = _newRatio;\n        emit LogGovernanceUpdate(_newRatio, \"updateStakingRatioReferral\");\n    }\n\n    function updateStakeRatio(uint256 _newRatio) external isSetter() {\n\n        require(_newRatio != 0, \"NO:updateStakeRatio - New ratio can't be 0\");\n        stakeRatio = _newRatio;\n        emit LogGovernanceUpdate(_newRatio, \"UpdateStakeRatio\");\n    }\n\n    // function updatePOWFee(uint256 _newFee) external isSetter() {\n\n    //     require(_newFee != 0, \"NO:updatePOWFee - New value for the POWFee can't be 0\");\n    //     POWFee = _newFee;\n    //     emit LogGovernanceUpdate(_newFee, \"updatePOWFee\");\n    // }\n\n    function returnDelegatorLink(address operator) external view returns (address){\n\n        return nodeOpStruct[operator].delegatorLink;\n    }\n\n    function isNodeOperator(address operator) external view returns (bool) {\n\n        return nodeOpStruct[operator].isNodeOperator;\n\n    }\n\n\n\n    /*** \n    * @dev return members of the staking pool\n    * @param poolOperator - owner of the pool\n    * @param name name of the user\n    * @return array of users with their deposit values\n    */\n\n    function returnPoolList(address poolOperator)external view returns (address[] memory, uint256[] memory) {\n\n        address[] memory poolUsers = new address[](nodeOpStruct[poolOperator].delegations.length  );\n        uint256[] memory poolUsersStakes = new uint256[](nodeOpStruct[poolOperator].delegations.length );\n\n        for (uint256 i = 0; i< nodeOpStruct[poolOperator].delegations.length ;i++) {\n            poolUsers[i]= nodeOpStruct[poolOperator].delegations[i];\n            poolUsersStakes[i] = memberHelpers.returnDepositAmount(poolUsers[i]);\n\n        }\n        return (poolUsers, poolUsersStakes);\n    }\n\n    /// remove all delegations for specific pool operator\n    function removeAlldelegations() public {\n\n        for (uint256 i = nodeOpStruct[msg.sender].delegations.length  ; i > 0; i--) {\n            address delegating = nodeOpStruct[msg.sender].delegations[i-1];\n            nodeOpStruct[msg.sender].delegations.pop();   \n            nodeOpStruct[msg.sender].isDelegating[delegating] = false;\n            nodeOpStruct[delegating].delegatorLink = address(0x0);\n        }\n    }\n    \n    /// @dev change Node operator status from on to off or the vice versa \n    function toggleNodeOperator( ) external isValidator(\"toggleNodeOperator\") {\n\n\n        if (nodeOpStruct[msg.sender].isNodeOperator){\n            nodeOpStruct[msg.sender].isNodeOperator = false;\n            removeNodeOperator();\n            removeAlldelegations();\n            emit LogNodeOperatorToggled(msg.sender, \"OFF\");\n        }\n        else{\n            require(memberHelpers.returnDepositAmount(msg.sender) >= memberHelpers.minContribution(), \"NO:toggelNodeOperator - Minimum stake amount not met.\");\n            nodeOpStruct[msg.sender].isNodeOperator = true;\n            nodeOperators.push(msg.sender);\n            emit LogNodeOperatorToggled(msg.sender, \"ON\");\n        }\n    }\n\n    /// @dev change CPA status from on to off or vice versa\n    function toggleCPA( ) external isValidator(\"toggleCPA\") {\n\n        if (nodeOpStruct[msg.sender].isCPA){\n            nodeOpStruct[msg.sender].isCPA = false;\n            removeCPA();\n            emit LogCPAToggled(msg.sender,\"OFF\");\n        }\n        else{\n            nodeOpStruct[msg.sender].isCPA = true;\n            CPAs.push(msg.sender);\n            emit LogCPAToggled(msg.sender,\"ON\");\n        }\n    }\n\n    /// @dev change no delegate flag from on to off or vice versa\n    function toggleNoDelegate( ) isValidator(\"toggleNoDelegate\") external {\n\n        if (nodeOpStruct[msg.sender].noDelegations){\n            nodeOpStruct[msg.sender].noDelegations = false;\n            emit LogNoDelegateToggled(msg.sender, \"OFF\");\n        }\n        else{\n            removeAlldelegations();\n            nodeOpStruct[msg.sender].noDelegations = true;\n            emit LogNoDelegateToggled(msg.sender, \"ON\");\n        }\n    }\n\n    /// @dev remove CPA status\n    function removeCPA() internal {\n\n        for (uint256 i= 0; i < CPAs.length; i++) {\n\n            if (CPAs[i] == msg.sender){\n\n                CPAs[i] = CPAs[CPAs.length - 1];\n                CPAs.pop();\n                i = CPAs.length;\n            }\n        }\n    }\n\n    /// @dev remove Node operator status \n    function removeNodeOperator() internal {\n\n        for (uint256 i= 0; i < nodeOperators.length; i++) {\n\n            if (nodeOperators[i] == msg.sender){\n\n                nodeOperators[i] = nodeOperators[nodeOperators.length - 1];\n                nodeOperators.pop();\n                i = nodeOperators.length;\n            }\n        }\n    }\n\n    /// return all node operators\n    function returnNodeOperators() external view returns (address[] memory) {\n\n        return nodeOperators;\n    }\n\n    function returnNodeOperatorsCount() external view returns(uint256){\n\n        return nodeOperators.length;\n    }\n\n    /// return all CPAs\n    function returnCPAs() external view returns (address[] memory) {\n\n        return CPAs;\n    }\n    \n    \n\n    /// remove delegation for pool member \n    function removeDelegation() public isValidator(\"removeDelegation\") {\n\n        address oldDelegatee = nodeOpStruct[msg.sender].delegatorLink;\n\n        require(oldDelegatee != address(0x0), \"NO:removeDelegation Not delegating yet.\");\n\n\n        for (uint256 i = 0; i < nodeOpStruct[oldDelegatee].delegations.length; i++) {\n            if (nodeOpStruct[oldDelegatee].delegations[i] == msg.sender) {\n                nodeOpStruct[oldDelegatee].delegations[i] = nodeOpStruct[oldDelegatee].delegations[nodeOpStruct[oldDelegatee].delegations.length - 1];\n                nodeOpStruct[oldDelegatee].delegations.pop();\n                nodeOpStruct[oldDelegatee].isDelegating[msg.sender] = false;\n                nodeOpStruct[msg.sender].delegatorLink = address(0x0);\n                i= nodeOpStruct[oldDelegatee].delegations.length;\n            }\n        }\n\n        emit LogRemoveDelegation(msg.sender, oldDelegatee);\n    }\n\n    /*** \n    * @dev delegate stake to the pool \n    * @param delegatee - owner of the pool \n    */\n\n     function delegate(address delegatee) external isValidator(\"Delegate\") {\n\n        require(!nodeOpStruct[msg.sender].isNodeOperator, \"NO:delegagte - Can't delegate while a node operator. \");\n        require(!nodeOpStruct[delegatee].isDelegating[msg.sender], \"NO:delegate - You are already delegating to this user\");\n\n        if (nodeOpStruct[msg.sender].delegatorLink != address(0x0)) \n            removeDelegation();\n\n        nodeOpStruct[delegatee].delegations.push(msg.sender);\n        nodeOpStruct[msg.sender].delegatorLink = delegatee;\n        nodeOpStruct[delegatee].isDelegating[msg.sender] = true;\n\n        emit LogDelegation(msg.sender, delegatee);\n    }\n\n\n    /*** \n    * @dev called by the Validations contract to increase POW amount of winning validator\n    * @param validator - winner of the validation task\n    * @param amount to aword to validator\n    */\n    function increasePOWRewards(address validator, uint256 amount) external isController(\"increasePOWRewards\") returns(bool) {\n            nodeOpStruct[validator].POWAmount = nodeOpStruct[validator].POWAmount.add(amount);\n            emit IncreasePOW(amount, validator);\n            return true;\n    }\n\n\n    /*** \n    * @dev called by the Validations contract to increase delegated stake rewards and referral rewards\n    * @param validator - validator for whom values are increased\n    */\n    function increaseDelegatedStakeRewards(address validator) external isController(\"increaseDelegatedStakeRewards\") returns(bool) {\n        uint256 referringReward;\n\n        for (uint256 i = 0; i < nodeOpStruct[validator].delegations.length ; i++) {\n            address delegating = nodeOpStruct[validator].delegations[i];\n            uint256 amount = memberHelpers.returnDepositAmount(delegating).div(stakeRatioDelegating);\n            nodeOpStruct[delegating].delegateAmount = nodeOpStruct[delegating].delegateAmount.add(amount);\n            referringReward = referringReward.add(memberHelpers.returnDepositAmount(delegating).div(stakingRatioReferral));\n            emit LogDelegatedStakeRewardsIncreased(delegating, amount);\n\n        }\n        // referringReward =  referringReward.div(stakingRatioReferral);\n        if (referringReward > 0) {\n            nodeOpStruct[validator].referralAmount = nodeOpStruct[validator].referralAmount.add(referringReward);\n            emit LogReferralStakeRewardsIncreased(validator, referringReward);\n        }\n        return true;\n    }\n\n    /*** \n    * @dev called by the Validations contract to increase pool operator stake reward amount\n    * @param validator - validator for whom values are increased\n    */\n    function increaseStakeRewards(address validator) external isController(\"increaseStakeRewards\") returns(bool) {\n        uint256 amount = memberHelpers.returnDepositAmount(validator).div(stakeRatio);\n        nodeOpStruct[validator].stakeAmount = nodeOpStruct[validator].stakeAmount.add(amount);\n        emit LogStakeRewardsIncreased(validator, amount);\n        return true;\n    }\n\n\n    /*** \n    * @dev called by the Validator to claim their reward\n    * @param deliver - true if amount should be delivered into the wallet or stake deposit\n    */\n    function claimStakeRewards(bool deliver) external {\n        uint256 stakeRewards = nodeOpStruct[msg.sender].stakeAmount;\n        uint256 delegateRewards = nodeOpStruct[msg.sender].delegateAmount;\n        uint256 powRewards = nodeOpStruct[msg.sender].POWAmount;\n        uint256 refRewards = nodeOpStruct[msg.sender].referralAmount;\n\n\n        uint256 payment = stakeRewards.add(powRewards).add(refRewards).add(delegateRewards);\n        nodeOpStruct[msg.sender].stakeAmount= 0;\n        nodeOpStruct[msg.sender].delegateAmount = 0;\n        nodeOpStruct[msg.sender].POWAmount = 0;\n        nodeOpStruct[msg.sender].referralAmount = 0;\n\n        if (payment > 0)\n            if (deliver) {\n                emit LogStakingRewardsTransferredOut(msg.sender, payment);\n                assert(IAuditToken(auditToken).mint(msg.sender, payment));\n            } else {\n                emit LogStakingRewardsClaimed(msg.sender, payment);\n                assert(memberHelpers.increaseDeposit(msg.sender, payment));\n                assert(IAuditToken(auditToken).mint(address(this), payment));\n            }\n    }\n}",
  "sourcePath": "/home/win2win/eth/projects/AuditChain/Core-Smart-Contracts-v1-upgradable/contracts/Auditchain/NodeOperations.sol",
  "compiler": {
    "name": "solc",
    "version": "0.8.0+commit.c7dfd78e.Emscripten.clang"
  },
  "schemaVersion": "3.4.1",
  "updatedAt": "2022-05-18T17:13:45.588Z",
  "devdoc": {
    "kind": "dev",
    "methods": {
      "getRoleAdmin(bytes32)": {
        "details": "Returns the admin role that controls `role`. See {grantRole} and {revokeRole}. To change a role's admin, use {_setRoleAdmin}."
      },
      "grantRole(bytes32,address)": {
        "details": "Grants `role` to `account`. If `account` had not been already granted `role`, emits a {RoleGranted} event. Requirements: - the caller must have ``role``'s admin role."
      },
      "hasRole(bytes32,address)": {
        "details": "Returns `true` if `account` has been granted `role`."
      },
      "renounceRole(bytes32,address)": {
        "details": "Revokes `role` from the calling account. Roles are often managed via {grantRole} and {revokeRole}: this function's purpose is to provide a mechanism for accounts to lose their privileges if they are compromised (such as when a trusted device is misplaced). If the calling account had been granted `role`, emits a {RoleRevoked} event. Requirements: - the caller must be `account`."
      },
      "revokeRole(bytes32,address)": {
        "details": "Revokes `role` from `account`. If `account` had been granted `role`, emits a {RoleRevoked} event. Requirements: - the caller must have ``role``'s admin role."
      },
      "supportsInterface(bytes4)": {
        "details": "See {IERC165-supportsInterface}."
      },
      "toggleCPA()": {
        "details": "change CPA status from on to off or vice versa"
      },
      "toggleNoDelegate()": {
        "details": "change no delegate flag from on to off or vice versa"
      },
      "toggleNodeOperator()": {
        "details": "change Node operator status from on to off or the vice versa "
      }
    },
    "title": "NodeOperations Functions for Node Operators",
    "version": 1
  },
  "userdoc": {
    "kind": "user",
    "methods": {
      "removeAlldelegations()": {
        "notice": "remove all delegations for specific pool operator"
      },
      "removeDelegation()": {
        "notice": "remove delegation for pool member "
      },
      "returnCPAs()": {
        "notice": "return all CPAs"
      },
      "returnNodeOperators()": {
        "notice": "return all node operators"
      }
    },
    "version": 1
  }
}