{
  "contractName": "NodeOperations",
  "abi": [
    {
      "anonymous": false,
      "inputs": [
        {
          "indexed": false,
          "internalType": "uint256",
          "name": "amount",
          "type": "uint256"
        },
        {
          "indexed": false,
          "internalType": "address",
          "name": "validator",
          "type": "address"
        }
      ],
      "name": "IncreasePOW",
      "type": "event"
    },
    {
      "anonymous": false,
      "inputs": [
        {
          "indexed": true,
          "internalType": "address",
          "name": "user",
          "type": "address"
        },
        {
          "indexed": false,
          "internalType": "string",
          "name": "action",
          "type": "string"
        }
      ],
      "name": "LogCPAToggled",
      "type": "event"
    },
    {
      "anonymous": false,
      "inputs": [
        {
          "indexed": true,
          "internalType": "address",
          "name": "delegating",
          "type": "address"
        },
        {
          "indexed": false,
          "internalType": "uint256",
          "name": "amount",
          "type": "uint256"
        }
      ],
      "name": "LogDelegatedStakeRewardsIncreased",
      "type": "event"
    },
    {
      "anonymous": false,
      "inputs": [
        {
          "indexed": true,
          "internalType": "address",
          "name": "delegating",
          "type": "address"
        },
        {
          "indexed": true,
          "internalType": "address",
          "name": "newDelegatee",
          "type": "address"
        }
      ],
      "name": "LogDelegation",
      "type": "event"
    },
    {
      "anonymous": false,
      "inputs": [
        {
          "indexed": false,
          "internalType": "uint256",
          "name": "params",
          "type": "uint256"
        },
        {
          "indexed": true,
          "internalType": "string",
          "name": "action",
          "type": "string"
        }
      ],
      "name": "LogGovernanceUpdate",
      "type": "event"
    },
    {
      "anonymous": false,
      "inputs": [
        {
          "indexed": true,
          "internalType": "address",
          "name": "user",
          "type": "address"
        },
        {
          "indexed": false,
          "internalType": "string",
          "name": "action",
          "type": "string"
        }
      ],
      "name": "LogNoDelegateToggled",
      "type": "event"
    },
    {
      "anonymous": false,
      "inputs": [
        {
          "indexed": true,
          "internalType": "address",
          "name": "user",
          "type": "address"
        },
        {
          "indexed": false,
          "internalType": "string",
          "name": "action",
          "type": "string"
        }
      ],
      "name": "LogNodeOperatorToggled",
      "type": "event"
    },
    {
      "anonymous": false,
      "inputs": [
        {
          "indexed": true,
          "internalType": "address",
          "name": "delegating",
          "type": "address"
        },
        {
          "indexed": false,
          "internalType": "uint256",
          "name": "amount",
          "type": "uint256"
        }
      ],
      "name": "LogReferralStakeRewardsIncreased",
      "type": "event"
    },
    {
      "anonymous": false,
      "inputs": [
        {
          "indexed": true,
          "internalType": "address",
          "name": "delegating",
          "type": "address"
        },
        {
          "indexed": true,
          "internalType": "address",
          "name": "delegatee",
          "type": "address"
        }
      ],
      "name": "LogRemoveDelegation",
      "type": "event"
    },
    {
      "anonymous": false,
      "inputs": [
        {
          "indexed": true,
          "internalType": "address",
          "name": "validator",
          "type": "address"
        },
        {
          "indexed": false,
          "internalType": "uint256",
          "name": "amount",
          "type": "uint256"
        }
      ],
      "name": "LogStakeRewardsIncreased",
      "type": "event"
    },
    {
      "anonymous": false,
      "inputs": [
        {
          "indexed": true,
          "internalType": "address",
          "name": "user",
          "type": "address"
        },
        {
          "indexed": false,
          "internalType": "uint256",
          "name": "amount",
          "type": "uint256"
        }
      ],
      "name": "LogStakingRewardsClaimed",
      "type": "event"
    },
    {
      "anonymous": false,
      "inputs": [
        {
          "indexed": true,
          "internalType": "address",
          "name": "user",
          "type": "address"
        },
        {
          "indexed": false,
          "internalType": "uint256",
          "name": "amount",
          "type": "uint256"
        }
      ],
      "name": "LogStakingRewardsTransferredOut",
      "type": "event"
    },
    {
      "anonymous": false,
      "inputs": [
        {
          "indexed": true,
          "internalType": "bytes32",
          "name": "role",
          "type": "bytes32"
        },
        {
          "indexed": true,
          "internalType": "bytes32",
          "name": "previousAdminRole",
          "type": "bytes32"
        },
        {
          "indexed": true,
          "internalType": "bytes32",
          "name": "newAdminRole",
          "type": "bytes32"
        }
      ],
      "name": "RoleAdminChanged",
      "type": "event"
    },
    {
      "anonymous": false,
      "inputs": [
        {
          "indexed": true,
          "internalType": "bytes32",
          "name": "role",
          "type": "bytes32"
        },
        {
          "indexed": true,
          "internalType": "address",
          "name": "account",
          "type": "address"
        },
        {
          "indexed": true,
          "internalType": "address",
          "name": "sender",
          "type": "address"
        }
      ],
      "name": "RoleGranted",
      "type": "event"
    },
    {
      "anonymous": false,
      "inputs": [
        {
          "indexed": true,
          "internalType": "bytes32",
          "name": "role",
          "type": "bytes32"
        },
        {
          "indexed": true,
          "internalType": "address",
          "name": "account",
          "type": "address"
        },
        {
          "indexed": true,
          "internalType": "address",
          "name": "sender",
          "type": "address"
        }
      ],
      "name": "RoleRevoked",
      "type": "event"
    },
    {
      "inputs": [],
      "name": "CONTROLLER_ROLE",
      "outputs": [
        {
          "internalType": "bytes32",
          "name": "",
          "type": "bytes32"
        }
      ],
      "stateMutability": "view",
      "type": "function",
      "constant": true
    },
    {
      "inputs": [
        {
          "internalType": "uint256",
          "name": "",
          "type": "uint256"
        }
      ],
      "name": "CPAs",
      "outputs": [
        {
          "internalType": "address",
          "name": "",
          "type": "address"
        }
      ],
      "stateMutability": "view",
      "type": "function",
      "constant": true
    },
    {
      "inputs": [],
      "name": "DEFAULT_ADMIN_ROLE",
      "outputs": [
        {
          "internalType": "bytes32",
          "name": "",
          "type": "bytes32"
        }
      ],
      "stateMutability": "view",
      "type": "function",
      "constant": true
    },
    {
      "inputs": [],
      "name": "SETTER_ROLE",
      "outputs": [
        {
          "internalType": "bytes32",
          "name": "",
          "type": "bytes32"
        }
      ],
      "stateMutability": "view",
      "type": "function",
      "constant": true
    },
    {
      "inputs": [],
      "name": "auditToken",
      "outputs": [
        {
          "internalType": "address",
          "name": "",
          "type": "address"
        }
      ],
      "stateMutability": "view",
      "type": "function",
      "constant": true
    },
    {
      "inputs": [
        {
          "internalType": "bytes32",
          "name": "role",
          "type": "bytes32"
        }
      ],
      "name": "getRoleAdmin",
      "outputs": [
        {
          "internalType": "bytes32",
          "name": "",
          "type": "bytes32"
        }
      ],
      "stateMutability": "view",
      "type": "function",
      "constant": true
    },
    {
      "inputs": [
        {
          "internalType": "bytes32",
          "name": "role",
          "type": "bytes32"
        },
        {
          "internalType": "address",
          "name": "account",
          "type": "address"
        }
      ],
      "name": "grantRole",
      "outputs": [],
      "stateMutability": "nonpayable",
      "type": "function"
    },
    {
      "inputs": [
        {
          "internalType": "bytes32",
          "name": "role",
          "type": "bytes32"
        },
        {
          "internalType": "address",
          "name": "account",
          "type": "address"
        }
      ],
      "name": "hasRole",
      "outputs": [
        {
          "internalType": "bool",
          "name": "",
          "type": "bool"
        }
      ],
      "stateMutability": "view",
      "type": "function",
      "constant": true
    },
    {
      "inputs": [],
      "name": "memberHelpers",
      "outputs": [
        {
          "internalType": "contract MemberHelpers",
          "name": "",
          "type": "address"
        }
      ],
      "stateMutability": "view",
      "type": "function",
      "constant": true
    },
    {
      "inputs": [],
      "name": "members",
      "outputs": [
        {
          "internalType": "contract Members",
          "name": "",
          "type": "address"
        }
      ],
      "stateMutability": "view",
      "type": "function",
      "constant": true
    },
    {
      "inputs": [
        {
          "internalType": "address",
          "name": "",
          "type": "address"
        }
      ],
      "name": "nodeOpStruct",
      "outputs": [
        {
          "internalType": "bool",
          "name": "isNodeOperator",
          "type": "bool"
        },
        {
          "internalType": "uint256",
          "name": "stakeAmount",
          "type": "uint256"
        },
        {
          "internalType": "uint256",
          "name": "delegateAmount",
          "type": "uint256"
        },
        {
          "internalType": "uint256",
          "name": "referralAmount",
          "type": "uint256"
        },
        {
          "internalType": "uint256",
          "name": "POWAmount",
          "type": "uint256"
        },
        {
          "internalType": "address",
          "name": "delegatorLink",
          "type": "address"
        },
        {
          "internalType": "bool",
          "name": "noDelegations",
          "type": "bool"
        },
        {
          "internalType": "bool",
          "name": "isCPA",
          "type": "bool"
        }
      ],
      "stateMutability": "view",
      "type": "function",
      "constant": true
    },
    {
      "inputs": [
        {
          "internalType": "uint256",
          "name": "",
          "type": "uint256"
        }
      ],
      "name": "nodeOperators",
      "outputs": [
        {
          "internalType": "address",
          "name": "",
          "type": "address"
        }
      ],
      "stateMutability": "view",
      "type": "function",
      "constant": true
    },
    {
      "inputs": [
        {
          "internalType": "bytes32",
          "name": "role",
          "type": "bytes32"
        },
        {
          "internalType": "address",
          "name": "account",
          "type": "address"
        }
      ],
      "name": "renounceRole",
      "outputs": [],
      "stateMutability": "nonpayable",
      "type": "function"
    },
    {
      "inputs": [
        {
          "internalType": "bytes32",
          "name": "role",
          "type": "bytes32"
        },
        {
          "internalType": "address",
          "name": "account",
          "type": "address"
        }
      ],
      "name": "revokeRole",
      "outputs": [],
      "stateMutability": "nonpayable",
      "type": "function"
    },
    {
      "inputs": [],
      "name": "stakeRatio",
      "outputs": [
        {
          "internalType": "uint256",
          "name": "",
          "type": "uint256"
        }
      ],
      "stateMutability": "view",
      "type": "function",
      "constant": true
    },
    {
      "inputs": [],
      "name": "stakeRatioDelegating",
      "outputs": [
        {
          "internalType": "uint256",
          "name": "",
          "type": "uint256"
        }
      ],
      "stateMutability": "view",
      "type": "function",
      "constant": true
    },
    {
      "inputs": [],
      "name": "stakingRatioReferral",
      "outputs": [
        {
          "internalType": "uint256",
          "name": "",
          "type": "uint256"
        }
      ],
      "stateMutability": "view",
      "type": "function",
      "constant": true
    },
    {
      "inputs": [
        {
          "internalType": "bytes4",
          "name": "interfaceId",
          "type": "bytes4"
        }
      ],
      "name": "supportsInterface",
      "outputs": [
        {
          "internalType": "bool",
          "name": "",
          "type": "bool"
        }
      ],
      "stateMutability": "view",
      "type": "function",
      "constant": true
    },
    {
      "inputs": [
        {
          "internalType": "address",
          "name": "_memberHelpers",
          "type": "address"
        },
        {
          "internalType": "address",
          "name": "_auditToken",
          "type": "address"
        },
        {
          "internalType": "address",
          "name": "_members",
          "type": "address"
        }
      ],
      "name": "initialize",
      "outputs": [],
      "stateMutability": "nonpayable",
      "type": "function"
    },
    {
      "inputs": [
        {
          "internalType": "uint256",
          "name": "_newRatio",
          "type": "uint256"
        }
      ],
      "name": "updateStakeRatioDelegating",
      "outputs": [],
      "stateMutability": "nonpayable",
      "type": "function"
    },
    {
      "inputs": [
        {
          "internalType": "uint256",
          "name": "_newRatio",
          "type": "uint256"
        }
      ],
      "name": "updateStakingRatioReferral",
      "outputs": [],
      "stateMutability": "nonpayable",
      "type": "function"
    },
    {
      "inputs": [
        {
          "internalType": "uint256",
          "name": "_newRatio",
          "type": "uint256"
        }
      ],
      "name": "updateStakeRatio",
      "outputs": [],
      "stateMutability": "nonpayable",
      "type": "function"
    },
    {
      "inputs": [
        {
          "internalType": "address",
          "name": "operator",
          "type": "address"
        }
      ],
      "name": "returnDelegatorLink",
      "outputs": [
        {
          "internalType": "address",
          "name": "",
          "type": "address"
        }
      ],
      "stateMutability": "view",
      "type": "function",
      "constant": true
    },
    {
      "inputs": [
        {
          "internalType": "address",
          "name": "operator",
          "type": "address"
        }
      ],
      "name": "isNodeOperator",
      "outputs": [
        {
          "internalType": "bool",
          "name": "",
          "type": "bool"
        }
      ],
      "stateMutability": "view",
      "type": "function",
      "constant": true
    },
    {
      "inputs": [
        {
          "internalType": "address",
          "name": "poolOperator",
          "type": "address"
        }
      ],
      "name": "returnPoolList",
      "outputs": [
        {
          "internalType": "address[]",
          "name": "",
          "type": "address[]"
        },
        {
          "internalType": "uint256[]",
          "name": "",
          "type": "uint256[]"
        }
      ],
      "stateMutability": "view",
      "type": "function",
      "constant": true
    },
    {
      "inputs": [],
      "name": "toggleNodeOperator",
      "outputs": [],
      "stateMutability": "nonpayable",
      "type": "function"
    },
    {
      "inputs": [],
      "name": "toggleCPA",
      "outputs": [],
      "stateMutability": "nonpayable",
      "type": "function"
    },
    {
      "inputs": [],
      "name": "toggleNoDelegate",
      "outputs": [],
      "stateMutability": "nonpayable",
      "type": "function"
    },
    {
      "inputs": [],
      "name": "returnNodeOperators",
      "outputs": [
        {
          "internalType": "address[]",
          "name": "",
          "type": "address[]"
        }
      ],
      "stateMutability": "view",
      "type": "function",
      "constant": true
    },
    {
      "inputs": [],
      "name": "returnNodeOperatorsCount",
      "outputs": [
        {
          "internalType": "uint256",
          "name": "",
          "type": "uint256"
        }
      ],
      "stateMutability": "view",
      "type": "function",
      "constant": true
    },
    {
      "inputs": [],
      "name": "returnCPAs",
      "outputs": [
        {
          "internalType": "address[]",
          "name": "",
          "type": "address[]"
        }
      ],
      "stateMutability": "view",
      "type": "function",
      "constant": true
    },
    {
      "inputs": [],
      "name": "removeAlldelegations",
      "outputs": [],
      "stateMutability": "nonpayable",
      "type": "function"
    },
    {
      "inputs": [],
      "name": "removeDelegation",
      "outputs": [],
      "stateMutability": "nonpayable",
      "type": "function"
    },
    {
      "inputs": [
        {
          "internalType": "address",
          "name": "delegatee",
          "type": "address"
        }
      ],
      "name": "delegate",
      "outputs": [],
      "stateMutability": "nonpayable",
      "type": "function"
    },
    {
      "inputs": [
        {
          "internalType": "address",
          "name": "validator",
          "type": "address"
        },
        {
          "internalType": "uint256",
          "name": "amount",
          "type": "uint256"
        }
      ],
      "name": "increasePOWRewards",
      "outputs": [],
      "stateMutability": "nonpayable",
      "type": "function"
    },
    {
      "inputs": [
        {
          "internalType": "address",
          "name": "validator",
          "type": "address"
        }
      ],
      "name": "increaseDelegatedStakeRewards",
      "outputs": [],
      "stateMutability": "nonpayable",
      "type": "function"
    },
    {
      "inputs": [
        {
          "internalType": "address",
          "name": "validator",
          "type": "address"
        }
      ],
      "name": "increaseStakeRewards",
      "outputs": [],
      "stateMutability": "nonpayable",
      "type": "function"
    },
    {
      "inputs": [
        {
          "internalType": "bool",
          "name": "deliver",
          "type": "bool"
        }
      ],
      "name": "claimStakeRewards",
      "outputs": [],
      "stateMutability": "nonpayable",
      "type": "function"
    }
  ],
  "bytecode": "0x608060405234801561001057600080fd5b50615e0580620000216000396000f3fe608060405234801561001057600080fd5b50600436106102325760003560e01c806391d1485411610130578063cfe02b89116100b8578063e6ef7ada1161007c578063e6ef7ada1461066f578063e7946f271461068b578063ed1b4f9b14610695578063f2d1745d146106b1578063fcccd100146106cf57610232565b8063cfe02b89146105b8578063d43448b8146105e8578063d525e67514610618578063d547741f14610649578063e20d2f8c1461066557610232565b8063b90b3cb5116100ff578063b90b3cb51461051f578063bce6294f14610529578063bdd4d18d14610560578063c0c53b8b1461057e578063cf4cc8bd1461059a57610232565b806391d148541461049557806398c3c116146104c5578063a2011b3f146104e3578063a217fddf1461050157610232565b80633d666e8b116101be57806371d8c7a01161018257806371d8c7a01461040357806375416a6b14610421578063797a9cf21461043d5780637e105bde146104595780638e00a8e81461047757610232565b80633d666e8b146103875780633e10c4871461039157806342083e97146103ad57806350da3975146103c95780635c19a95c146103e757610232565b80632085b90c116102055780632085b90c146102d3578063248a9ca3146102ef5780632f2ff15d1461031f5780633373d32a1461033b57806336568abe1461036b57610232565b806301ffc9a714610237578063092c5b3b14610267578063105fd47014610285578063115cd5b9146102b5575b600080fd5b610251600480360381019061024c9190614b56565b6106d9565b60405161025e919061561b565b60405180910390f35b61026f610753565b60405161027c91906156b4565b60405180910390f35b61029f600480360381019061029a91906149eb565b610777565b6040516102ac919061561b565b60405180910390f35b6102bd6107d0565b6040516102ca9190615927565b60405180910390f35b6102ed60048036038101906102e89190614a9f565b6107d6565b005b61030960048036038101906103049190614af1565b610cec565b60405161031691906156b4565b60405180910390f35b61033960048036038101906103349190614b1a565b610d0b565b005b61035560048036038101906103509190614b7f565b610d34565b6040516103629190615555565b60405180910390f35b61038560048036038101906103809190614b1a565b610d73565b005b61038f610df6565b005b6103ab60048036038101906103a69190614b7f565b61158a565b005b6103c760048036038101906103c29190614a63565b61168c565b005b6103d1611804565b6040516103de91906155c2565b60405180910390f35b61040160048036038101906103fc91906149eb565b611892565b005b61040b611e03565b60405161041891906156cf565b60405180910390f35b61043b600480360381019061043691906149eb565b611e29565b005b61045760048036038101906104529190614b7f565b612079565b005b61046161217b565b60405161046e9190615927565b60405180910390f35b61047f612188565b60405161048c9190615927565b60405180910390f35b6104af60048036038101906104aa9190614b1a565b61218e565b6040516104bc919061561b565b60405180910390f35b6104cd6121f8565b6040516104da9190615555565b60405180910390f35b6104eb61221e565b6040516104f891906156b4565b60405180910390f35b610509612242565b60405161051691906156b4565b60405180910390f35b610527612249565b005b610543600480360381019061053e91906149eb565b61274f565b604051610557989796959493929190615636565b60405180910390f35b6105686127de565b60405161057591906156ea565b60405180910390f35b61059860048036038101906105939190614a14565b612804565b005b6105a26129d4565b6040516105af91906155c2565b60405180910390f35b6105d260048036038101906105cd91906149eb565b612a62565b6040516105df9190615555565b60405180910390f35b61060260048036038101906105fd9190614b7f565b612ace565b60405161060f9190615555565b60405180910390f35b610632600480360381019061062d91906149eb565b612b0d565b6040516106409291906155e4565b60405180910390f35b610663600480360381019061065e9190614b1a565b612f39565b005b61066d612f62565b005b61068960048036038101906106849190614b7f565b613271565b005b610693613373565b005b6106af60048036038101906106aa91906149eb565b6136e5565b005b6106b9613c0f565b6040516106c69190615927565b60405180910390f35b6106d7613c15565b005b60007f7965db0b000000000000000000000000000000000000000000000000000000007bffffffffffffffffffffffffffffffffffffffffffffffffffffffff1916827bffffffffffffffffffffffffffffffffffffffffffffffffffffffff1916148061074c575061074b82613efc565b5b9050919050565b7f7b765e0e932d348852a6f810bfa1ab891e259123f02db8cdcde614c57022335781565b6000600960008373ffffffffffffffffffffffffffffffffffffffff1673ffffffffffffffffffffffffffffffffffffffff16815260200190815260200160002060000160009054906101000a900460ff169050919050565b60085481565b6000600960003373ffffffffffffffffffffffffffffffffffffffff1673ffffffffffffffffffffffffffffffffffffffff1681526020019081526020016000206003015490506000600960003373ffffffffffffffffffffffffffffffffffffffff1673ffffffffffffffffffffffffffffffffffffffff1681526020019081526020016000206004015490506000600960003373ffffffffffffffffffffffffffffffffffffffff1673ffffffffffffffffffffffffffffffffffffffff1681526020019081526020016000206006015490506000600960003373ffffffffffffffffffffffffffffffffffffffff1673ffffffffffffffffffffffffffffffffffffffff168152602001908152602001600020600501549050600061092b8461091d8461090f878a613f6690919063ffffffff16565b613f6690919063ffffffff16565b613f6690919063ffffffff16565b90506000600960003373ffffffffffffffffffffffffffffffffffffffff1673ffffffffffffffffffffffffffffffffffffffff168152602001908152602001600020600301819055506000600960003373ffffffffffffffffffffffffffffffffffffffff1673ffffffffffffffffffffffffffffffffffffffff168152602001908152602001600020600401819055506000600960003373ffffffffffffffffffffffffffffffffffffffff1673ffffffffffffffffffffffffffffffffffffffff168152602001908152602001600020600601819055506000600960003373ffffffffffffffffffffffffffffffffffffffff1673ffffffffffffffffffffffffffffffffffffffff168152602001908152602001600020600501819055508515610b5657600260009054906101000a900473ffffffffffffffffffffffffffffffffffffffff1673ffffffffffffffffffffffffffffffffffffffff166340c10f1933836040518363ffffffff1660e01b8152600401610ab0929190615599565b602060405180830381600087803b158015610aca57600080fd5b505af1158015610ade573d6000803e3d6000fd5b505050506040513d601f19601f82011682018060405250810190610b029190614ac8565b503373ffffffffffffffffffffffffffffffffffffffff167f4fcc1f6709c7de29c80bcd44f92e9b5548613a2d8ebefacf9fa570d687cce28c82604051610b499190615927565b60405180910390a2610ce4565b600160009054906101000a900473ffffffffffffffffffffffffffffffffffffffff1673ffffffffffffffffffffffffffffffffffffffff1663d417b7b333836040518363ffffffff1660e01b8152600401610bb3929190615599565b600060405180830381600087803b158015610bcd57600080fd5b505af1158015610be1573d6000803e3d6000fd5b50505050600260009054906101000a900473ffffffffffffffffffffffffffffffffffffffff1673ffffffffffffffffffffffffffffffffffffffff166340c10f1930836040518363ffffffff1660e01b8152600401610c42929190615599565b602060405180830381600087803b158015610c5c57600080fd5b505af1158015610c70573d6000803e3d6000fd5b505050506040513d601f19601f82011682018060405250810190610c949190614ac8565b503373ffffffffffffffffffffffffffffffffffffffff167f935cd710a2bc7a3db341f3f67ba6abdb9ea572d203b87642e2d359559152790582604051610cdb9190615927565b60405180910390a25b505050505050565b6000806000838152602001908152602001600020600101549050919050565b610d1482610cec565b610d2581610d20613f7c565b613f84565b610d2f8383614021565b505050565b60058181548110610d4457600080fd5b906000526020600020016000915054906101000a900473ffffffffffffffffffffffffffffffffffffffff1681565b610d7b613f7c565b73ffffffffffffffffffffffffffffffffffffffff168173ffffffffffffffffffffffffffffffffffffffff1614610de8576040517f08c379a0000000000000000000000000000000000000000000000000000000008152600401610ddf906158e7565b60405180910390fd5b610df28282614101565b5050565b6040518060400160405280601081526020017f72656d6f766544656c65676174696f6e00000000000000000000000000000000815250600360009054906101000a900473ffffffffffffffffffffffffffffffffffffffff1673ffffffffffffffffffffffffffffffffffffffff16636f9cf9853360016002811115610ea5577f4e487b7100000000000000000000000000000000000000000000000000000000600052602160045260246000fd5b6040518363ffffffff1660e01b8152600401610ec2929190615570565b60206040518083038186803b158015610eda57600080fd5b505afa158015610eee573d6000803e3d6000fd5b505050506040513d601f19601f82011682018060405250810190610f129190614ac8565b610f51576040517f08c379a0000000000000000000000000000000000000000000000000000000008152600401610f48906157a7565b60405180910390fd5b6000600960003373ffffffffffffffffffffffffffffffffffffffff1673ffffffffffffffffffffffffffffffffffffffff16815260200190815260200160002060070160009054906101000a900473ffffffffffffffffffffffffffffffffffffffff169050600073ffffffffffffffffffffffffffffffffffffffff168173ffffffffffffffffffffffffffffffffffffffff161415611028576040517f08c379a000000000000000000000000000000000000000000000000000000000815260040161101f90615767565b60405180910390fd5b60005b600960008373ffffffffffffffffffffffffffffffffffffffff1673ffffffffffffffffffffffffffffffffffffffff1681526020019081526020016000206001018054905081101561152b573373ffffffffffffffffffffffffffffffffffffffff16600960008473ffffffffffffffffffffffffffffffffffffffff1673ffffffffffffffffffffffffffffffffffffffff1681526020019081526020016000206001018281548110611109577f4e487b7100000000000000000000000000000000000000000000000000000000600052603260045260246000fd5b9060005260206000200160009054906101000a900473ffffffffffffffffffffffffffffffffffffffff1673ffffffffffffffffffffffffffffffffffffffff16141561151857600960008373ffffffffffffffffffffffffffffffffffffffff1673ffffffffffffffffffffffffffffffffffffffff1681526020019081526020016000206001016001600960008573ffffffffffffffffffffffffffffffffffffffff1673ffffffffffffffffffffffffffffffffffffffff168152602001908152602001600020600101805490506111e49190615ae5565b8154811061121b577f4e487b7100000000000000000000000000000000000000000000000000000000600052603260045260246000fd5b9060005260206000200160009054906101000a900473ffffffffffffffffffffffffffffffffffffffff16600960008473ffffffffffffffffffffffffffffffffffffffff1673ffffffffffffffffffffffffffffffffffffffff16815260200190815260200160002060010182815481106112c0577f4e487b7100000000000000000000000000000000000000000000000000000000600052603260045260246000fd5b9060005260206000200160006101000a81548173ffffffffffffffffffffffffffffffffffffffff021916908373ffffffffffffffffffffffffffffffffffffffff160217905550600960008373ffffffffffffffffffffffffffffffffffffffff1673ffffffffffffffffffffffffffffffffffffffff168152602001908152602001600020600101805480611380577f4e487b7100000000000000000000000000000000000000000000000000000000600052603160045260246000fd5b6001900381819060005260206000200160006101000a81549073ffffffffffffffffffffffffffffffffffffffff021916905590556000600960008473ffffffffffffffffffffffffffffffffffffffff1673ffffffffffffffffffffffffffffffffffffffff16815260200190815260200160002060020160003373ffffffffffffffffffffffffffffffffffffffff1673ffffffffffffffffffffffffffffffffffffffff16815260200190815260200160002060006101000a81548160ff0219169083151502179055506000600960003373ffffffffffffffffffffffffffffffffffffffff1673ffffffffffffffffffffffffffffffffffffffff16815260200190815260200160002060070160006101000a81548173ffffffffffffffffffffffffffffffffffffffff021916908373ffffffffffffffffffffffffffffffffffffffff160217905550600960008373ffffffffffffffffffffffffffffffffffffffff1673ffffffffffffffffffffffffffffffffffffffff1681526020019081526020016000206001018054905090505b808061152390615c61565b91505061102b565b508073ffffffffffffffffffffffffffffffffffffffff163373ffffffffffffffffffffffffffffffffffffffff167f1eceec0a0536d861c2e32af951fed5ce132e28eabd91abe6a89c9fdb3d13233c60405160405180910390a35050565b6115b47f61c92169ef077349011ff0b1383c894d86c5f0b41d986366b58a6cf31e93beda3361218e565b6115f3576040517f08c379a00000000000000000000000000000000000000000000000000000000081526004016115ea90615747565b60405180910390fd5b6000811415611637576040517f08c379a000000000000000000000000000000000000000000000000000000000815260040161162e90615827565b60405180910390fd5b8060078190555060405161164a906154dc565b60405180910390207ff99dba3a76085484eae2e89cc2e2ee5edffe3f1d25cdd1e6c5757447b9b5b473826040516116819190615927565b60405180910390a250565b6040518060400160405280601281526020017f696e637265617365504f575265776172647300000000000000000000000000008152506116ec7f7b765e0e932d348852a6f810bfa1ab891e259123f02db8cdcde614c5702233573361218e565b61172b576040517f08c379a000000000000000000000000000000000000000000000000000000000815260040161172290615807565b60405180910390fd5b61178082600960008673ffffffffffffffffffffffffffffffffffffffff1673ffffffffffffffffffffffffffffffffffffffff16815260200190815260200160002060060154613f6690919063ffffffff16565b600960008573ffffffffffffffffffffffffffffffffffffffff1673ffffffffffffffffffffffffffffffffffffffff168152602001908152602001600020600601819055507fe591aa30cfe79f30882dbd1568d113f390c7a826623b8d2c209cc4ccc56f9cad82846040516117f7929190615942565b60405180910390a1505050565b6060600480548060200260200160405190810160405280929190818152602001828054801561188857602002820191906000526020600020905b8160009054906101000a900473ffffffffffffffffffffffffffffffffffffffff1673ffffffffffffffffffffffffffffffffffffffff168152602001906001019080831161183e575b5050505050905090565b6040518060400160405280600881526020017f44656c6567617465000000000000000000000000000000000000000000000000815250600360009054906101000a900473ffffffffffffffffffffffffffffffffffffffff1673ffffffffffffffffffffffffffffffffffffffff16636f9cf9853360016002811115611941577f4e487b7100000000000000000000000000000000000000000000000000000000600052602160045260246000fd5b6040518363ffffffff1660e01b815260040161195e929190615570565b60206040518083038186803b15801561197657600080fd5b505afa15801561198a573d6000803e3d6000fd5b505050506040513d601f19601f820116820180604052508101906119ae9190614ac8565b6119ed576040517f08c379a00000000000000000000000000000000000000000000000000000000081526004016119e4906157a7565b60405180910390fd5b600960003373ffffffffffffffffffffffffffffffffffffffff1673ffffffffffffffffffffffffffffffffffffffff16815260200190815260200160002060000160009054906101000a900460ff1615611a7d576040517f08c379a0000000000000000000000000000000000000000000000000000000008152600401611a7490615847565b60405180910390fd5b600960008373ffffffffffffffffffffffffffffffffffffffff1673ffffffffffffffffffffffffffffffffffffffff16815260200190815260200160002060020160003373ffffffffffffffffffffffffffffffffffffffff1673ffffffffffffffffffffffffffffffffffffffff16815260200190815260200160002060009054906101000a900460ff1615611b4a576040517f08c379a0000000000000000000000000000000000000000000000000000000008152600401611b41906158a7565b60405180910390fd5b600073ffffffffffffffffffffffffffffffffffffffff16600960003373ffffffffffffffffffffffffffffffffffffffff1673ffffffffffffffffffffffffffffffffffffffff16815260200190815260200160002060070160009054906101000a900473ffffffffffffffffffffffffffffffffffffffff1673ffffffffffffffffffffffffffffffffffffffff1614611be957611be8610df6565b5b600960008373ffffffffffffffffffffffffffffffffffffffff1673ffffffffffffffffffffffffffffffffffffffff168152602001908152602001600020600101339080600181540180825580915050600190039060005260206000200160009091909190916101000a81548173ffffffffffffffffffffffffffffffffffffffff021916908373ffffffffffffffffffffffffffffffffffffffff16021790555081600960003373ffffffffffffffffffffffffffffffffffffffff1673ffffffffffffffffffffffffffffffffffffffff16815260200190815260200160002060070160006101000a81548173ffffffffffffffffffffffffffffffffffffffff021916908373ffffffffffffffffffffffffffffffffffffffff1602179055506001600960008473ffffffffffffffffffffffffffffffffffffffff1673ffffffffffffffffffffffffffffffffffffffff16815260200190815260200160002060020160003373ffffffffffffffffffffffffffffffffffffffff1673ffffffffffffffffffffffffffffffffffffffff16815260200190815260200160002060006101000a81548160ff0219169083151502179055508173ffffffffffffffffffffffffffffffffffffffff163373ffffffffffffffffffffffffffffffffffffffff167f4c3b375b28d33f6da54f5db9f9e21f32e8dccce22c6b386a5ccd14acab659ad560405160405180910390a35050565b600160009054906101000a900473ffffffffffffffffffffffffffffffffffffffff1681565b6040518060400160405280601481526020017f696e6372656173655374616b6552657761726473000000000000000000000000815250611e897f7b765e0e932d348852a6f810bfa1ab891e259123f02db8cdcde614c5702233573361218e565b611ec8576040517f08c379a0000000000000000000000000000000000000000000000000000000008152600401611ebf90615807565b60405180910390fd5b6000611f89600654600160009054906101000a900473ffffffffffffffffffffffffffffffffffffffff1673ffffffffffffffffffffffffffffffffffffffff16638319d390866040518263ffffffff1660e01b8152600401611f2b9190615555565b60206040518083038186803b158015611f4357600080fd5b505afa158015611f57573d6000803e3d6000fd5b505050506040513d601f19601f82011682018060405250810190611f7b9190614ba8565b6141e290919063ffffffff16565b9050611fe081600960008673ffffffffffffffffffffffffffffffffffffffff1673ffffffffffffffffffffffffffffffffffffffff16815260200190815260200160002060030154613f6690919063ffffffff16565b600960008573ffffffffffffffffffffffffffffffffffffffff1673ffffffffffffffffffffffffffffffffffffffff168152602001908152602001600020600301819055508273ffffffffffffffffffffffffffffffffffffffff167f7f4591d6aa3e694b1ffc02f7762738dd3ca8e1d7357293b29833ef3136b213bd8260405161206c9190615927565b60405180910390a2505050565b6120a37f61c92169ef077349011ff0b1383c894d86c5f0b41d986366b58a6cf31e93beda3361218e565b6120e2576040517f08c379a00000000000000000000000000000000000000000000000000000000081526004016120d990615747565b60405180910390fd5b6000811415612126576040517f08c379a000000000000000000000000000000000000000000000000000000000815260040161211d90615867565b60405180910390fd5b80600681905550604051612139906154f1565b60405180910390207ff99dba3a76085484eae2e89cc2e2ee5edffe3f1d25cdd1e6c5757447b9b5b473826040516121709190615927565b60405180910390a250565b6000600480549050905090565b60065481565b600080600084815260200190815260200160002060000160008373ffffffffffffffffffffffffffffffffffffffff1673ffffffffffffffffffffffffffffffffffffffff16815260200190815260200160002060009054906101000a900460ff16905092915050565b600260009054906101000a900473ffffffffffffffffffffffffffffffffffffffff1681565b7f61c92169ef077349011ff0b1383c894d86c5f0b41d986366b58a6cf31e93beda81565b6000801b81565b6040518060400160405280601281526020017f746f67676c654e6f64654f70657261746f720000000000000000000000000000815250600360009054906101000a900473ffffffffffffffffffffffffffffffffffffffff1673ffffffffffffffffffffffffffffffffffffffff16636f9cf98533600160028111156122f8577f4e487b7100000000000000000000000000000000000000000000000000000000600052602160045260246000fd5b6040518363ffffffff1660e01b8152600401612315929190615570565b60206040518083038186803b15801561232d57600080fd5b505afa158015612341573d6000803e3d6000fd5b505050506040513d601f19601f820116820180604052508101906123659190614ac8565b6123a4576040517f08c379a000000000000000000000000000000000000000000000000000000000815260040161239b906157a7565b60405180910390fd5b600960003373ffffffffffffffffffffffffffffffffffffffff1673ffffffffffffffffffffffffffffffffffffffff16815260200190815260200160002060000160009054906101000a900460ff16156124b5576000600960003373ffffffffffffffffffffffffffffffffffffffff1673ffffffffffffffffffffffffffffffffffffffff16815260200190815260200160002060000160006101000a81548160ff02191690831515021790555061245c6141f8565b612464613c15565b3373ffffffffffffffffffffffffffffffffffffffff167f865cebc4621af692efc5ecb87041bae7eced8c916f529795ddfc7368978d75f76040516124a8906157e7565b60405180910390a261274c565b600160009054906101000a900473ffffffffffffffffffffffffffffffffffffffff1673ffffffffffffffffffffffffffffffffffffffff1663aaffadf36040518163ffffffff1660e01b815260040160206040518083038186803b15801561251d57600080fd5b505afa158015612531573d6000803e3d6000fd5b505050506040513d601f19601f820116820180604052508101906125559190614ba8565b600160009054906101000a900473ffffffffffffffffffffffffffffffffffffffff1673ffffffffffffffffffffffffffffffffffffffff16638319d390336040518263ffffffff1660e01b81526004016125b09190615555565b60206040518083038186803b1580156125c857600080fd5b505afa1580156125dc573d6000803e3d6000fd5b505050506040513d601f19601f820116820180604052508101906126009190614ba8565b1015612641576040517f08c379a000000000000000000000000000000000000000000000000000000000815260040161263890615787565b60405180910390fd5b6001600960003373ffffffffffffffffffffffffffffffffffffffff1673ffffffffffffffffffffffffffffffffffffffff16815260200190815260200160002060000160006101000a81548160ff0219169083151502179055506004339080600181540180825580915050600190039060005260206000200160009091909190916101000a81548173ffffffffffffffffffffffffffffffffffffffff021916908373ffffffffffffffffffffffffffffffffffffffff1602179055503373ffffffffffffffffffffffffffffffffffffffff167f865cebc4621af692efc5ecb87041bae7eced8c916f529795ddfc7368978d75f760405161274390615887565b60405180910390a25b50565b60096020528060005260406000206000915090508060000160009054906101000a900460ff16908060030154908060040154908060050154908060060154908060070160009054906101000a900473ffffffffffffffffffffffffffffffffffffffff16908060070160149054906101000a900460ff16908060070160159054906101000a900460ff16905088565b600360009054906101000a900473ffffffffffffffffffffffffffffffffffffffff1681565b600073ffffffffffffffffffffffffffffffffffffffff168373ffffffffffffffffffffffffffffffffffffffff161415612874576040517f08c379a000000000000000000000000000000000000000000000000000000000815260040161286b906158c7565b60405180910390fd5b600073ffffffffffffffffffffffffffffffffffffffff168273ffffffffffffffffffffffffffffffffffffffff1614156128e4576040517f08c379a00000000000000000000000000000000000000000000000000000000081526004016128db906157c7565b60405180910390fd5b82600160006101000a81548173ffffffffffffffffffffffffffffffffffffffff021916908373ffffffffffffffffffffffffffffffffffffffff16021790555081600260006101000a81548173ffffffffffffffffffffffffffffffffffffffff021916908373ffffffffffffffffffffffffffffffffffffffff16021790555080600360006101000a81548173ffffffffffffffffffffffffffffffffffffffff021916908373ffffffffffffffffffffffffffffffffffffffff1602179055506103e860068190555061044c60078190555061238c6008819055506129cf6000801b33614424565b505050565b60606005805480602002602001604051908101604052809291908181526020018280548015612a5857602002820191906000526020600020905b8160009054906101000a900473ffffffffffffffffffffffffffffffffffffffff1673ffffffffffffffffffffffffffffffffffffffff1681526020019060010190808311612a0e575b5050505050905090565b6000600960008373ffffffffffffffffffffffffffffffffffffffff1673ffffffffffffffffffffffffffffffffffffffff16815260200190815260200160002060070160009054906101000a900473ffffffffffffffffffffffffffffffffffffffff169050919050565b60048181548110612ade57600080fd5b906000526020600020016000915054906101000a900473ffffffffffffffffffffffffffffffffffffffff1681565b6060806000600960008573ffffffffffffffffffffffffffffffffffffffff1673ffffffffffffffffffffffffffffffffffffffff1681526020019081526020016000206001018054905067ffffffffffffffff811115612b97577f4e487b7100000000000000000000000000000000000000000000000000000000600052604160045260246000fd5b604051908082528060200260200182016040528015612bc55781602001602082028036833780820191505090505b5090506000600960008673ffffffffffffffffffffffffffffffffffffffff1673ffffffffffffffffffffffffffffffffffffffff1681526020019081526020016000206001018054905067ffffffffffffffff811115612c4f577f4e487b7100000000000000000000000000000000000000000000000000000000600052604160045260246000fd5b604051908082528060200260200182016040528015612c7d5781602001602082028036833780820191505090505b50905060005b600960008773ffffffffffffffffffffffffffffffffffffffff1673ffffffffffffffffffffffffffffffffffffffff16815260200190815260200160002060010180549050811015612f2b57600960008773ffffffffffffffffffffffffffffffffffffffff1673ffffffffffffffffffffffffffffffffffffffff1681526020019081526020016000206001018181548110612d4a577f4e487b7100000000000000000000000000000000000000000000000000000000600052603260045260246000fd5b9060005260206000200160009054906101000a900473ffffffffffffffffffffffffffffffffffffffff16838281518110612dae577f4e487b7100000000000000000000000000000000000000000000000000000000600052603260045260246000fd5b602002602001019073ffffffffffffffffffffffffffffffffffffffff16908173ffffffffffffffffffffffffffffffffffffffff1681525050600160009054906101000a900473ffffffffffffffffffffffffffffffffffffffff1673ffffffffffffffffffffffffffffffffffffffff16638319d390848381518110612e5f577f4e487b7100000000000000000000000000000000000000000000000000000000600052603260045260246000fd5b60200260200101516040518263ffffffff1660e01b8152600401612e839190615555565b60206040518083038186803b158015612e9b57600080fd5b505afa158015612eaf573d6000803e3d6000fd5b505050506040513d601f19601f82011682018060405250810190612ed39190614ba8565b828281518110612f0c577f4e487b7100000000000000000000000000000000000000000000000000000000600052603260045260246000fd5b6020026020010181815250508080612f2390615c61565b915050612c83565b508181935093505050915091565b612f4282610cec565b612f5381612f4e613f7c565b613f84565b612f5d8383614101565b505050565b6040518060400160405280601081526020017f746f67676c654e6f44656c656761746500000000000000000000000000000000815250600360009054906101000a900473ffffffffffffffffffffffffffffffffffffffff1673ffffffffffffffffffffffffffffffffffffffff16636f9cf9853360016002811115613011577f4e487b7100000000000000000000000000000000000000000000000000000000600052602160045260246000fd5b6040518363ffffffff1660e01b815260040161302e929190615570565b60206040518083038186803b15801561304657600080fd5b505afa15801561305a573d6000803e3d6000fd5b505050506040513d601f19601f8201168201806040525081019061307e9190614ac8565b6130bd576040517f08c379a00000000000000000000000000000000000000000000000000000000081526004016130b4906157a7565b60405180910390fd5b600960003373ffffffffffffffffffffffffffffffffffffffff1673ffffffffffffffffffffffffffffffffffffffff16815260200190815260200160002060070160149054906101000a900460ff16156131be576000600960003373ffffffffffffffffffffffffffffffffffffffff1673ffffffffffffffffffffffffffffffffffffffff16815260200190815260200160002060070160146101000a81548160ff0219169083151502179055503373ffffffffffffffffffffffffffffffffffffffff167ff513c01ff458e6e9c2d933630bffb2ed21fe264c8a1df87e350103c1d5249a926040516131b1906157e7565b60405180910390a261326e565b6131c6613c15565b6001600960003373ffffffffffffffffffffffffffffffffffffffff1673ffffffffffffffffffffffffffffffffffffffff16815260200190815260200160002060070160146101000a81548160ff0219169083151502179055503373ffffffffffffffffffffffffffffffffffffffff167ff513c01ff458e6e9c2d933630bffb2ed21fe264c8a1df87e350103c1d5249a9260405161326590615887565b60405180910390a25b50565b61329b7f61c92169ef077349011ff0b1383c894d86c5f0b41d986366b58a6cf31e93beda3361218e565b6132da576040517f08c379a00000000000000000000000000000000000000000000000000000000081526004016132d190615747565b60405180910390fd5b600081141561331e576040517f08c379a000000000000000000000000000000000000000000000000000000000815260040161331590615907565b60405180910390fd5b8060088190555060405161333190615506565b60405180910390207ff99dba3a76085484eae2e89cc2e2ee5edffe3f1d25cdd1e6c5757447b9b5b473826040516133689190615927565b60405180910390a250565b6040518060400160405280600981526020017f746f67676c654350410000000000000000000000000000000000000000000000815250600360009054906101000a900473ffffffffffffffffffffffffffffffffffffffff1673ffffffffffffffffffffffffffffffffffffffff16636f9cf9853360016002811115613422577f4e487b7100000000000000000000000000000000000000000000000000000000600052602160045260246000fd5b6040518363ffffffff1660e01b815260040161343f929190615570565b60206040518083038186803b15801561345757600080fd5b505afa15801561346b573d6000803e3d6000fd5b505050506040513d601f19601f8201168201806040525081019061348f9190614ac8565b6134ce576040517f08c379a00000000000000000000000000000000000000000000000000000000081526004016134c5906157a7565b60405180910390fd5b600960003373ffffffffffffffffffffffffffffffffffffffff1673ffffffffffffffffffffffffffffffffffffffff16815260200190815260200160002060070160159054906101000a900460ff16156135d7576000600960003373ffffffffffffffffffffffffffffffffffffffff1673ffffffffffffffffffffffffffffffffffffffff16815260200190815260200160002060070160156101000a81548160ff021916908315150217905550613586614432565b3373ffffffffffffffffffffffffffffffffffffffff167f4b8d562d356022e8b61f63ef35522204f80493a3470e8054809edb86e2c7cc296040516135ca906157e7565b60405180910390a26136e2565b6001600960003373ffffffffffffffffffffffffffffffffffffffff1673ffffffffffffffffffffffffffffffffffffffff16815260200190815260200160002060070160156101000a81548160ff0219169083151502179055506005339080600181540180825580915050600190039060005260206000200160009091909190916101000a81548173ffffffffffffffffffffffffffffffffffffffff021916908373ffffffffffffffffffffffffffffffffffffffff1602179055503373ffffffffffffffffffffffffffffffffffffffff167f4b8d562d356022e8b61f63ef35522204f80493a3470e8054809edb86e2c7cc296040516136d990615887565b60405180910390a25b50565b6040518060400160405280601d81526020017f696e63726561736544656c6567617465645374616b65526577617264730000008152506137457f7b765e0e932d348852a6f810bfa1ab891e259123f02db8cdcde614c5702233573361218e565b613784576040517f08c379a000000000000000000000000000000000000000000000000000000000815260040161377b90615807565b60405180910390fd5b600080600090505b600960008573ffffffffffffffffffffffffffffffffffffffff1673ffffffffffffffffffffffffffffffffffffffff16815260200190815260200160002060010180549050811015613b16576000600960008673ffffffffffffffffffffffffffffffffffffffff1673ffffffffffffffffffffffffffffffffffffffff1681526020019081526020016000206001018281548110613855577f4e487b7100000000000000000000000000000000000000000000000000000000600052603260045260246000fd5b9060005260206000200160009054906101000a900473ffffffffffffffffffffffffffffffffffffffff1690506000613943600754600160009054906101000a900473ffffffffffffffffffffffffffffffffffffffff1673ffffffffffffffffffffffffffffffffffffffff16638319d390856040518263ffffffff1660e01b81526004016138e59190615555565b60206040518083038186803b1580156138fd57600080fd5b505afa158015613911573d6000803e3d6000fd5b505050506040513d601f19601f820116820180604052508101906139359190614ba8565b6141e290919063ffffffff16565b905061399a81600960008573ffffffffffffffffffffffffffffffffffffffff1673ffffffffffffffffffffffffffffffffffffffff16815260200190815260200160002060040154613f6690919063ffffffff16565b600960008473ffffffffffffffffffffffffffffffffffffffff1673ffffffffffffffffffffffffffffffffffffffff16815260200190815260200160002060040181905550613ab1613aa2600854600160009054906101000a900473ffffffffffffffffffffffffffffffffffffffff1673ffffffffffffffffffffffffffffffffffffffff16638319d390866040518263ffffffff1660e01b8152600401613a449190615555565b60206040518083038186803b158015613a5c57600080fd5b505afa158015613a70573d6000803e3d6000fd5b505050506040513d601f19601f82011682018060405250810190613a949190614ba8565b6141e290919063ffffffff16565b85613f6690919063ffffffff16565b93508173ffffffffffffffffffffffffffffffffffffffff167f91e762b6a3379646d3eb7b17dc3d73070be2f226797f2120f8df1fd23ceea33182604051613af99190615927565b60405180910390a250508080613b0e90615c61565b91505061378c565b506000811115613c0a57613b7581600960008673ffffffffffffffffffffffffffffffffffffffff1673ffffffffffffffffffffffffffffffffffffffff16815260200190815260200160002060050154613f6690919063ffffffff16565b600960008573ffffffffffffffffffffffffffffffffffffffff1673ffffffffffffffffffffffffffffffffffffffff168152602001908152602001600020600501819055508273ffffffffffffffffffffffffffffffffffffffff167faf09fd05a4dac80c46aefb0d434552d1ff107640d2b30ed5fbd9fedb3f99942f82604051613c019190615927565b60405180910390a25b505050565b60075481565b6000600960003373ffffffffffffffffffffffffffffffffffffffff1673ffffffffffffffffffffffffffffffffffffffff1681526020019081526020016000206001018054905090505b6000811115613ef9576000600960003373ffffffffffffffffffffffffffffffffffffffff1673ffffffffffffffffffffffffffffffffffffffff168152602001908152602001600020600101600183613cba9190615ae5565b81548110613cf1577f4e487b7100000000000000000000000000000000000000000000000000000000600052603260045260246000fd5b9060005260206000200160009054906101000a900473ffffffffffffffffffffffffffffffffffffffff169050600960003373ffffffffffffffffffffffffffffffffffffffff1673ffffffffffffffffffffffffffffffffffffffff168152602001908152602001600020600101805480613d96577f4e487b7100000000000000000000000000000000000000000000000000000000600052603160045260246000fd5b6001900381819060005260206000200160006101000a81549073ffffffffffffffffffffffffffffffffffffffff021916905590556000600960003373ffffffffffffffffffffffffffffffffffffffff1673ffffffffffffffffffffffffffffffffffffffff16815260200190815260200160002060020160008373ffffffffffffffffffffffffffffffffffffffff1673ffffffffffffffffffffffffffffffffffffffff16815260200190815260200160002060006101000a81548160ff0219169083151502179055506000600960008373ffffffffffffffffffffffffffffffffffffffff1673ffffffffffffffffffffffffffffffffffffffff16815260200190815260200160002060070160006101000a81548173ffffffffffffffffffffffffffffffffffffffff021916908373ffffffffffffffffffffffffffffffffffffffff160217905550508080613ef190615c37565b915050613c60565b50565b60007f01ffc9a7000000000000000000000000000000000000000000000000000000007bffffffffffffffffffffffffffffffffffffffffffffffffffffffff1916827bffffffffffffffffffffffffffffffffffffffffffffffffffffffff1916149050919050565b60008183613f749190615a04565b905092915050565b600033905090565b613f8e828261218e565b61401d57613fb38173ffffffffffffffffffffffffffffffffffffffff16601461465e565b613fc18360001c602061465e565b604051602001613fd292919061551b565b6040516020818303038152906040526040517f08c379a00000000000000000000000000000000000000000000000000000000081526004016140149190615705565b60405180910390fd5b5050565b61402b828261218e565b6140fd57600160008084815260200190815260200160002060000160008373ffffffffffffffffffffffffffffffffffffffff1673ffffffffffffffffffffffffffffffffffffffff16815260200190815260200160002060006101000a81548160ff0219169083151502179055506140a2613f7c565b73ffffffffffffffffffffffffffffffffffffffff168173ffffffffffffffffffffffffffffffffffffffff16837f2f8788117e7eff1d82e926ec794901d17c78024a50270940304540a733656f0d60405160405180910390a45b5050565b61410b828261218e565b156141de57600080600084815260200190815260200160002060000160008373ffffffffffffffffffffffffffffffffffffffff1673ffffffffffffffffffffffffffffffffffffffff16815260200190815260200160002060006101000a81548160ff021916908315150217905550614183613f7c565b73ffffffffffffffffffffffffffffffffffffffff168173ffffffffffffffffffffffffffffffffffffffff16837ff6391f5c32d9c69d2a47ea670b442974b53935d1edc7fd64eb21e047a839171b60405160405180910390a45b5050565b600081836141f09190615a5a565b905092915050565b60005b600480549050811015614421573373ffffffffffffffffffffffffffffffffffffffff1660048281548110614259577f4e487b7100000000000000000000000000000000000000000000000000000000600052603260045260246000fd5b9060005260206000200160009054906101000a900473ffffffffffffffffffffffffffffffffffffffff1673ffffffffffffffffffffffffffffffffffffffff16141561440e57600460016004805490506142b49190615ae5565b815481106142eb577f4e487b7100000000000000000000000000000000000000000000000000000000600052603260045260246000fd5b9060005260206000200160009054906101000a900473ffffffffffffffffffffffffffffffffffffffff1660048281548110614350577f4e487b7100000000000000000000000000000000000000000000000000000000600052603260045260246000fd5b9060005260206000200160006101000a81548173ffffffffffffffffffffffffffffffffffffffff021916908373ffffffffffffffffffffffffffffffffffffffff16021790555060048054806143d0577f4e487b7100000000000000000000000000000000000000000000000000000000600052603160045260246000fd5b6001900381819060005260206000200160006101000a81549073ffffffffffffffffffffffffffffffffffffffff0219169055905560048054905090505b808061441990615c61565b9150506141fb565b50565b61442e8282614021565b5050565b60005b60058054905081101561465b573373ffffffffffffffffffffffffffffffffffffffff1660058281548110614493577f4e487b7100000000000000000000000000000000000000000000000000000000600052603260045260246000fd5b9060005260206000200160009054906101000a900473ffffffffffffffffffffffffffffffffffffffff1673ffffffffffffffffffffffffffffffffffffffff16141561464857600560016005805490506144ee9190615ae5565b81548110614525577f4e487b7100000000000000000000000000000000000000000000000000000000600052603260045260246000fd5b9060005260206000200160009054906101000a900473ffffffffffffffffffffffffffffffffffffffff166005828154811061458a577f4e487b7100000000000000000000000000000000000000000000000000000000600052603260045260246000fd5b9060005260206000200160006101000a81548173ffffffffffffffffffffffffffffffffffffffff021916908373ffffffffffffffffffffffffffffffffffffffff160217905550600580548061460a577f4e487b7100000000000000000000000000000000000000000000000000000000600052603160045260246000fd5b6001900381819060005260206000200160006101000a81549073ffffffffffffffffffffffffffffffffffffffff0219169055905560058054905090505b808061465390615c61565b915050614435565b50565b6060600060028360026146719190615a8b565b61467b9190615a04565b67ffffffffffffffff8111156146ba577f4e487b7100000000000000000000000000000000000000000000000000000000600052604160045260246000fd5b6040519080825280601f01601f1916602001820160405280156146ec5781602001600182028036833780820191505090505b5090507f30000000000000000000000000000000000000000000000000000000000000008160008151811061474a577f4e487b7100000000000000000000000000000000000000000000000000000000600052603260045260246000fd5b60200101907effffffffffffffffffffffffffffffffffffffffffffffffffffffffffffff1916908160001a9053507f7800000000000000000000000000000000000000000000000000000000000000816001815181106147d4577f4e487b7100000000000000000000000000000000000000000000000000000000600052603260045260246000fd5b60200101907effffffffffffffffffffffffffffffffffffffffffffffffffffffffffffff1916908160001a905350600060018460026148149190615a8b565b61481e9190615a04565b90505b600181111561490a577f3031323334353637383961626364656600000000000000000000000000000000600f861660108110614886577f4e487b7100000000000000000000000000000000000000000000000000000000600052603260045260246000fd5b1a60f81b8282815181106148c3577f4e487b7100000000000000000000000000000000000000000000000000000000600052603260045260246000fd5b60200101907effffffffffffffffffffffffffffffffffffffffffffffffffffffffffffff1916908160001a905350600485901c94508061490390615c37565b9050614821565b506000841461494e576040517f08c379a000000000000000000000000000000000000000000000000000000000815260040161494590615727565b60405180910390fd5b8091505092915050565b60008135905061496781615d5c565b92915050565b60008135905061497c81615d73565b92915050565b60008151905061499181615d73565b92915050565b6000813590506149a681615d8a565b92915050565b6000813590506149bb81615da1565b92915050565b6000813590506149d081615db8565b92915050565b6000815190506149e581615db8565b92915050565b6000602082840312156149fd57600080fd5b6000614a0b84828501614958565b91505092915050565b600080600060608486031215614a2957600080fd5b6000614a3786828701614958565b9350506020614a4886828701614958565b9250506040614a5986828701614958565b9150509250925092565b60008060408385031215614a7657600080fd5b6000614a8485828601614958565b9250506020614a95858286016149c1565b9150509250929050565b600060208284031215614ab157600080fd5b6000614abf8482850161496d565b91505092915050565b600060208284031215614ada57600080fd5b6000614ae884828501614982565b91505092915050565b600060208284031215614b0357600080fd5b6000614b1184828501614997565b91505092915050565b60008060408385031215614b2d57600080fd5b6000614b3b85828601614997565b9250506020614b4c85828601614958565b9150509250929050565b600060208284031215614b6857600080fd5b6000614b76848285016149ac565b91505092915050565b600060208284031215614b9157600080fd5b6000614b9f848285016149c1565b91505092915050565b600060208284031215614bba57600080fd5b6000614bc8848285016149d6565b91505092915050565b6000614bdd8383614c01565b60208301905092915050565b6000614bf583836154be565b60208301905092915050565b614c0a81615b19565b82525050565b614c1981615b19565b82525050565b6000614c2a8261598b565b614c3481856159c6565b9350614c3f8361596b565b8060005b83811015614c70578151614c578882614bd1565b9750614c62836159ac565b925050600181019050614c43565b5085935050505092915050565b6000614c8882615996565b614c9281856159d7565b9350614c9d8361597b565b8060005b83811015614cce578151614cb58882614be9565b9750614cc0836159b9565b925050600181019050614ca1565b5085935050505092915050565b614ce481615b2b565b82525050565b614cf381615b37565b82525050565b614d0281615baa565b82525050565b614d1181615bce565b82525050565b614d2081615bf2565b82525050565b6000614d31826159a1565b614d3b81856159e8565b9350614d4b818560208601615c04565b614d5481615d37565b840191505092915050565b6000614d6a826159a1565b614d7481856159f9565b9350614d84818560208601615c04565b80840191505092915050565b6000614d9d601a836159f9565b91507f7570646174655374616b65526174696f44656c65676174696e670000000000006000830152601a82019050919050565b6000614ddd6020836159e8565b91507f537472696e67733a20686578206c656e67746820696e73756666696369656e746000830152602082019050919050565b6000614e1d6026836159e8565b91507f4e4f202d206973536574746572202d2043616c6c6572206973206e6f7420612060008301527f73657474657200000000000000000000000000000000000000000000000000006020830152604082019050919050565b6000614e836027836159e8565b91507f4e4f3a72656d6f766544656c65676174696f6e204e6f742064656c656761746960008301527f6e67207965742e000000000000000000000000000000000000000000000000006020830152604082019050919050565b6000614ee96035836159e8565b91507f4e4f3a746f6767656c4e6f64654f70657261746f72202d204d696e696d756d2060008301527f7374616b6520616d6f756e74206e6f74206d65742e00000000000000000000006020830152604082019050919050565b6000614f4f6024836159e8565b91507f697356616c696461746f723a2063616c6c6572206973206e6f742076616c696460008301527f61746f72000000000000000000000000000000000000000000000000000000006020830152604082019050919050565b6000614fb56010836159f9565b91507f5570646174655374616b65526174696f000000000000000000000000000000006000830152601082019050919050565b6000614ff5601a836159f9565b91507f7570646174655374616b696e67526174696f526566657272616c0000000000006000830152601a82019050919050565b60006150356028836159e8565b91507f4e4f3a736574436f686f7274202d20436f686f7274206164647265737320636160008301527f6e277420626520300000000000000000000000000000000000000000000000006020830152604082019050919050565b600061509b6003836159e8565b91507f4f464600000000000000000000000000000000000000000000000000000000006000830152602082019050919050565b60006150db602b836159e8565b91507f4e4f202d206973436f6e74726f6c6c65723a2063616c6c6572206973206e6f7460008301527f20636f6e74726f6c6c65720000000000000000000000000000000000000000006020830152604082019050919050565b60006151416034836159e8565b91507f4e4f3a7570646174655374616b65526174696f44656c65676174696e67202d2060008301527f4e657720726174696f2063616e277420626520300000000000000000000000006020830152604082019050919050565b60006151a76017836159f9565b91507f416363657373436f6e74726f6c3a206163636f756e74200000000000000000006000830152601782019050919050565b60006151e76035836159e8565b91507f4e4f3a64656c656761677465202d2043616e27742064656c656761746520776860008301527f696c652061206e6f6465206f70657261746f722e2000000000000000000000006020830152604082019050919050565b600061524d602a836159e8565b91507f4e4f3a7570646174655374616b65526174696f202d204e657720726174696f2060008301527f63616e27742062652030000000000000000000000000000000000000000000006020830152604082019050919050565b60006152b36002836159e8565b91507f4f4e0000000000000000000000000000000000000000000000000000000000006000830152602082019050919050565b60006152f36035836159e8565b91507f4e4f3a64656c6567617465202d20596f752061726520616c726561647920646560008301527f6c65676174696e6720746f2074686973207573657200000000000000000000006020830152604082019050919050565b60006153596031836159e8565b91507f4e4f3a636f6e7374727563746f72202d204d656d62657248656c70657273206160008301527f6464726573732063616e277420626520300000000000000000000000000000006020830152604082019050919050565b60006153bf6011836159f9565b91507f206973206d697373696e6720726f6c65200000000000000000000000000000006000830152601182019050919050565b60006153ff602f836159e8565b91507f416363657373436f6e74726f6c3a2063616e206f6e6c792072656e6f756e636560008301527f20726f6c657320666f722073656c6600000000000000000000000000000000006020830152604082019050919050565b60006154656034836159e8565b91507f4e4f3a7570646174655374616b696e67526174696f526566657272616c202d2060008301527f4e657720726174696f2063616e277420626520300000000000000000000000006020830152604082019050919050565b6154c781615ba0565b82525050565b6154d681615ba0565b82525050565b60006154e782614d90565b9150819050919050565b60006154fc82614fa8565b9150819050919050565b600061551182614fe8565b9150819050919050565b60006155268261519a565b91506155328285614d5f565b915061553d826153b2565b91506155498284614d5f565b91508190509392505050565b600060208201905061556a6000830184614c10565b92915050565b60006040820190506155856000830185614c10565b6155926020830184614d17565b9392505050565b60006040820190506155ae6000830185614c10565b6155bb60208301846154cd565b9392505050565b600060208201905081810360008301526155dc8184614c1f565b905092915050565b600060408201905081810360008301526155fe8185614c1f565b905081810360208301526156128184614c7d565b90509392505050565b60006020820190506156306000830184614cdb565b92915050565b60006101008201905061564c600083018b614cdb565b615659602083018a6154cd565b61566660408301896154cd565b61567360608301886154cd565b61568060808301876154cd565b61568d60a0830186614c10565b61569a60c0830185614cdb565b6156a760e0830184614cdb565b9998505050505050505050565b60006020820190506156c96000830184614cea565b92915050565b60006020820190506156e46000830184614cf9565b92915050565b60006020820190506156ff6000830184614d08565b92915050565b6000602082019050818103600083015261571f8184614d26565b905092915050565b6000602082019050818103600083015261574081614dd0565b9050919050565b6000602082019050818103600083015261576081614e10565b9050919050565b6000602082019050818103600083015261578081614e76565b9050919050565b600060208201905081810360008301526157a081614edc565b9050919050565b600060208201905081810360008301526157c081614f42565b9050919050565b600060208201905081810360008301526157e081615028565b9050919050565b600060208201905081810360008301526158008161508e565b9050919050565b60006020820190508181036000830152615820816150ce565b9050919050565b6000602082019050818103600083015261584081615134565b9050919050565b60006020820190508181036000830152615860816151da565b9050919050565b6000602082019050818103600083015261588081615240565b9050919050565b600060208201905081810360008301526158a0816152a6565b9050919050565b600060208201905081810360008301526158c0816152e6565b9050919050565b600060208201905081810360008301526158e08161534c565b9050919050565b60006020820190508181036000830152615900816153f2565b9050919050565b6000602082019050818103600083015261592081615458565b9050919050565b600060208201905061593c60008301846154cd565b92915050565b600060408201905061595760008301856154cd565b6159646020830184614c10565b9392505050565b6000819050602082019050919050565b6000819050602082019050919050565b600081519050919050565b600081519050919050565b600081519050919050565b6000602082019050919050565b6000602082019050919050565b600082825260208201905092915050565b600082825260208201905092915050565b600082825260208201905092915050565b600081905092915050565b6000615a0f82615ba0565b9150615a1a83615ba0565b9250827fffffffffffffffffffffffffffffffffffffffffffffffffffffffffffffffff03821115615a4f57615a4e615caa565b5b828201905092915050565b6000615a6582615ba0565b9150615a7083615ba0565b925082615a8057615a7f615cd9565b5b828204905092915050565b6000615a9682615ba0565b9150615aa183615ba0565b9250817fffffffffffffffffffffffffffffffffffffffffffffffffffffffffffffffff0483118215151615615ada57615ad9615caa565b5b828202905092915050565b6000615af082615ba0565b9150615afb83615ba0565b925082821015615b0e57615b0d615caa565b5b828203905092915050565b6000615b2482615b80565b9050919050565b60008115159050919050565b6000819050919050565b60007fffffffff0000000000000000000000000000000000000000000000000000000082169050919050565b6000819050615b7b82615d48565b919050565b600073ffffffffffffffffffffffffffffffffffffffff82169050919050565b6000819050919050565b6000615bb582615bbc565b9050919050565b6000615bc782615b80565b9050919050565b6000615bd982615be0565b9050919050565b6000615beb82615b80565b9050919050565b6000615bfd82615b6d565b9050919050565b60005b83811015615c22578082015181840152602081019050615c07565b83811115615c31576000848401525b50505050565b6000615c4282615ba0565b91506000821415615c5657615c55615caa565b5b600182039050919050565b6000615c6c82615ba0565b91507fffffffffffffffffffffffffffffffffffffffffffffffffffffffffffffffff821415615c9f57615c9e615caa565b5b600182019050919050565b7f4e487b7100000000000000000000000000000000000000000000000000000000600052601160045260246000fd5b7f4e487b7100000000000000000000000000000000000000000000000000000000600052601260045260246000fd5b7f4e487b7100000000000000000000000000000000000000000000000000000000600052602160045260246000fd5b6000601f19601f8301169050919050565b60038110615d5957615d58615d08565b5b50565b615d6581615b19565b8114615d7057600080fd5b50565b615d7c81615b2b565b8114615d8757600080fd5b50565b615d9381615b37565b8114615d9e57600080fd5b50565b615daa81615b41565b8114615db557600080fd5b50565b615dc181615ba0565b8114615dcc57600080fd5b5056fea26469706673582212205175640d3603b237509ea4a0a887e94ee4eddba3cc1f6503ae980235779b590b64736f6c63430008000033",
  "immutableReferences": {},
  "source": "// SPDX-License-Identifier: MIT\npragma solidity =0.8.0;\nimport \"@openzeppelin/contracts/access/AccessControl.sol\";\nimport \"@openzeppelin/contracts/utils/math/SafeMath.sol\";\nimport \"./../IAuditToken.sol\";\nimport \"./MemberHelpers.sol\";\n\n\n\n/**\n * @title NodeOperations\n * Functions for Node Operators\n */\ncontract NodeOperations is AccessControl {\n\n    using SafeMath for uint256;\n\n    MemberHelpers public memberHelpers;\n    address public auditToken;          \n    Members public members;\n\n    address[] public nodeOperators;\n    address[] public CPAs;\n\n    uint256 public stakeRatio;\n    uint256 public stakeRatioDelegating;\n    uint256 public stakingRatioReferral;\n\n\n    struct nodeOperator {\n\n        bool isNodeOperator;\n        address[] delegations;\n        mapping(address => bool) isDelegating;\n        uint256 stakeAmount;\n        uint256 delegateAmount;\n        uint256 referralAmount;\n        uint256 POWAmount;\n        address delegatorLink;\n        bool noDelegations;\n        bool isCPA;\n    }\n\n\n    mapping(address => nodeOperator) public nodeOpStruct;\n\n\n\n    bytes32 public constant CONTROLLER_ROLE = keccak256(\"CONTROLLER_ROLE\");\n    bytes32 public constant SETTER_ROLE =  keccak256(\"SETTER_ROLE\");\n\n\n    event LogNodeOperatorToggled(address indexed user, string action);\n    event LogCPAToggled(address indexed user, string action);\n    event LogNoDelegateToggled(address indexed user, string action);\n    event LogRemoveDelegation(address indexed delegating, address indexed delegatee);\n    event LogDelegation(address indexed delegating, address indexed newDelegatee);\n    event LogDelegatedStakeRewardsIncreased(address indexed delegating, uint256 amount);\n    event LogReferralStakeRewardsIncreased(address indexed delegating, uint256 amount);\n    event LogStakingRewardsTransferredOut(address indexed user, uint256 amount);\n    event LogStakingRewardsClaimed(address indexed user, uint256 amount);\n    event LogStakeRewardsIncreased(address indexed validator, uint256 amount);\n    event LogGovernanceUpdate(uint256 params, string indexed action);\n    event IncreasePOW(uint256 amount, address validator);\n\n    function initialize(address _memberHelpers, address _auditToken, address _members) public  { \n        require(_memberHelpers != address(0), \"NO:constructor - MemberHelpers address can't be 0\");\n        require( _auditToken != address(0), \"NO:setCohort - Cohort address can't be 0\");\n        memberHelpers = MemberHelpers(_memberHelpers);\n        auditToken = _auditToken;\n        members = Members(_members);    \n        stakeRatio = 1000;\n        stakeRatioDelegating = 1100;\n        stakingRatioReferral = 9100;\n        _setupRole(DEFAULT_ADMIN_ROLE, msg.sender);\n    }\n\n\n\n     /// @dev check if caller is a controller\n    modifier isController(string memory source) {\n        // string memory msgError = string(abi.encodePacked(\"NodeOperations(isController - Modifier):\", source, \"- Caller is not a controller\"));\n        require(hasRole(CONTROLLER_ROLE, msg.sender), \"NO - isController: caller is not controller\");\n\n        _;\n    }\n\n\n    /// @dev check if caller is a setter     \n    modifier isSetter {\n        require(hasRole(SETTER_ROLE, msg.sender), \"NO - isSetter - Caller is not a setter\");\n\n        _;\n    }\n\n    /// @dev check if user is validator\n    modifier isValidator(string memory source) {\n\n        // string memory msgError = string(abi.encodePacked(\"NodeOperations(isValidator- Modifier):\", source, \"- You are not a validator\"));\n        require( members.userMap(msg.sender, Members.UserType(1)), \"isValidator: caller is not validator\");\n\n        _;\n    }\n\n    function updateStakeRatioDelegating(uint256 _newRatio) public isSetter() {\n\n        require(_newRatio != 0, \"NO:updateStakeRatioDelegating - New ratio can't be 0\");\n        stakeRatioDelegating = _newRatio;\n\n        emit LogGovernanceUpdate(_newRatio, \"updateStakeRatioDelegating\");\n    }\n\n    function updateStakingRatioReferral(uint256 _newRatio) public isSetter() {\n\n        require(_newRatio != 0, \"NO:updateStakingRatioReferral - New ratio can't be 0\");\n        stakingRatioReferral = _newRatio;\n        emit LogGovernanceUpdate(_newRatio, \"updateStakingRatioReferral\");\n    }\n\n    function updateStakeRatio(uint256 _newRatio) public isSetter() {\n\n        require(_newRatio != 0, \"NO:updateStakeRatio - New ratio can't be 0\");\n        stakeRatio = _newRatio;\n        emit LogGovernanceUpdate(_newRatio, \"UpdateStakeRatio\");\n    }\n\n    // function updatePOWFee(uint256 _newFee) public isSetter() {\n\n    //     require(_newFee != 0, \"NO:updatePOWFee - New value for the POWFee can't be 0\");\n    //     POWFee = _newFee;\n    //     emit LogGovernanceUpdate(_newFee, \"updatePOWFee\");\n    // }\n\n    function returnDelegatorLink(address operator) public view returns (address){\n\n        return nodeOpStruct[operator].delegatorLink;\n    }\n\n    function isNodeOperator(address operator) public view returns (bool) {\n\n        return nodeOpStruct[operator].isNodeOperator;\n\n    }\n\n\n\n    /*** \n    * @dev return members of the staking pool\n    * @param poolOperator - owner of the pool\n    * @param name name of the user\n    * @return array of users with their deposit values\n    */\n\n    function returnPoolList(address poolOperator)public view returns (address[] memory, uint256[] memory) {\n\n        address[] memory poolUsers = new address[](nodeOpStruct[poolOperator].delegations.length  );\n        uint256[] memory poolUsersStakes = new uint256[](nodeOpStruct[poolOperator].delegations.length );\n\n        for (uint256 i = 0; i< nodeOpStruct[poolOperator].delegations.length ;i++) {\n            poolUsers[i]= nodeOpStruct[poolOperator].delegations[i];\n            poolUsersStakes[i] = memberHelpers.returnDepositAmount(poolUsers[i]);\n\n        }\n        return (poolUsers, poolUsersStakes);\n    }\n\n    \n    /// @dev change Node operator status from on to off or the vice versa \n    function toggleNodeOperator( ) public isValidator(\"toggleNodeOperator\") {\n\n\n        if (nodeOpStruct[msg.sender].isNodeOperator){\n            nodeOpStruct[msg.sender].isNodeOperator = false;\n            removeNodeOperator();\n            removeAlldelegations();\n            emit LogNodeOperatorToggled(msg.sender, \"OFF\");\n        }\n        else{\n            require(memberHelpers.returnDepositAmount(msg.sender) >= memberHelpers.minContribution(), \"NO:toggelNodeOperator - Minimum stake amount not met.\");\n            nodeOpStruct[msg.sender].isNodeOperator = true;\n            nodeOperators.push(msg.sender);\n            emit LogNodeOperatorToggled(msg.sender, \"ON\");\n        }\n    }\n\n    /// @dev change CPA status from on to off or vice versa\n    function toggleCPA( ) public isValidator(\"toggleCPA\") {\n\n        if (nodeOpStruct[msg.sender].isCPA){\n            nodeOpStruct[msg.sender].isCPA = false;\n            removeCPA();\n            emit LogCPAToggled(msg.sender,\"OFF\");\n        }\n        else{\n            nodeOpStruct[msg.sender].isCPA = true;\n            CPAs.push(msg.sender);\n            emit LogCPAToggled(msg.sender,\"ON\");\n        }\n    }\n\n    /// @dev change no delegate flag from on to off or vice versa\n    function toggleNoDelegate( ) isValidator(\"toggleNoDelegate\") public {\n\n        if (nodeOpStruct[msg.sender].noDelegations){\n            nodeOpStruct[msg.sender].noDelegations = false;\n            emit LogNoDelegateToggled(msg.sender, \"OFF\");\n        }\n        else{\n            removeAlldelegations();\n            nodeOpStruct[msg.sender].noDelegations = true;\n            emit LogNoDelegateToggled(msg.sender, \"ON\");\n        }\n    }\n\n    /// @dev remove CPA status\n    function removeCPA() internal {\n\n        for (uint256 i= 0; i < CPAs.length; i++) {\n\n            if (CPAs[i] == msg.sender){\n\n                CPAs[i] = CPAs[CPAs.length - 1];\n                CPAs.pop();\n                i = CPAs.length;\n            }\n        }\n    }\n\n    /// @dev remove Node operator status \n    function removeNodeOperator() internal {\n\n        for (uint256 i= 0; i < nodeOperators.length; i++) {\n\n            if (nodeOperators[i] == msg.sender){\n\n                nodeOperators[i] = nodeOperators[nodeOperators.length - 1];\n                nodeOperators.pop();\n                i = nodeOperators.length;\n            }\n        }\n    }\n\n    /// return all node operators\n    function returnNodeOperators() public view returns (address[] memory) {\n\n        return nodeOperators;\n    }\n\n    function returnNodeOperatorsCount() public view returns(uint256){\n\n        return nodeOperators.length;\n    }\n\n    /// return all CPAs\n    function returnCPAs() public view returns (address[] memory) {\n\n        return CPAs;\n    }\n    \n    /// remove all delegations for specific pool operator\n    function removeAlldelegations() public {\n\n        for (uint256 i = nodeOpStruct[msg.sender].delegations.length  ; i > 0; i--) {\n            address delegating = nodeOpStruct[msg.sender].delegations[i-1];\n            nodeOpStruct[msg.sender].delegations.pop();   \n            nodeOpStruct[msg.sender].isDelegating[delegating] = false;\n            nodeOpStruct[delegating].delegatorLink = address(0x0);\n        }\n    }\n\n    /// remove delegation for pool member \n    function removeDelegation() public isValidator(\"removeDelegation\") {\n\n        address oldDelegatee = nodeOpStruct[msg.sender].delegatorLink;\n\n        require(oldDelegatee != address(0x0), \"NO:removeDelegation Not delegating yet.\");\n\n\n        for (uint256 i = 0; i < nodeOpStruct[oldDelegatee].delegations.length; i++) {\n            if (nodeOpStruct[oldDelegatee].delegations[i] == msg.sender) {\n                nodeOpStruct[oldDelegatee].delegations[i] = nodeOpStruct[oldDelegatee].delegations[nodeOpStruct[oldDelegatee].delegations.length - 1];\n                nodeOpStruct[oldDelegatee].delegations.pop();\n                nodeOpStruct[oldDelegatee].isDelegating[msg.sender] = false;\n                nodeOpStruct[msg.sender].delegatorLink = address(0x0);\n                i= nodeOpStruct[oldDelegatee].delegations.length;\n            }\n        }\n\n        emit LogRemoveDelegation(msg.sender, oldDelegatee);\n    }\n\n    /*** \n    * @dev delegate stake to the pool \n    * @param delegatee - owner of the pool \n    */\n\n     function delegate(address delegatee) public isValidator(\"Delegate\") {\n\n        require(!nodeOpStruct[msg.sender].isNodeOperator, \"NO:delegagte - Can't delegate while a node operator. \");\n        require(!nodeOpStruct[delegatee].isDelegating[msg.sender], \"NO:delegate - You are already delegating to this user\");\n\n        if (nodeOpStruct[msg.sender].delegatorLink != address(0x0)) \n            removeDelegation();\n\n        nodeOpStruct[delegatee].delegations.push(msg.sender);\n        nodeOpStruct[msg.sender].delegatorLink = delegatee;\n        nodeOpStruct[delegatee].isDelegating[msg.sender] = true;\n\n        emit LogDelegation(msg.sender, delegatee);\n    }\n\n\n    /*** \n    * @dev called by the Validations contract to increase POW amount of winning validator\n    * @param validator - winner of the validation task\n    * @param amount to aword to validator\n    */\n    function increasePOWRewards(address validator, uint256 amount) public isController(\"increasePOWRewards\") {\n            nodeOpStruct[validator].POWAmount = nodeOpStruct[validator].POWAmount.add(amount);\n            emit IncreasePOW(amount, validator);\n    }\n\n\n    /*** \n    * @dev called by the Validations contract to increase delegated stake rewards and referral rewards\n    * @param validator - validator for whom values are increased\n    */\n    function increaseDelegatedStakeRewards(address validator) public isController(\"increaseDelegatedStakeRewards\") {\n        uint256 referringReward;\n\n        for (uint256 i = 0; i < nodeOpStruct[validator].delegations.length ; i++) {\n            address delegating = nodeOpStruct[validator].delegations[i];\n            uint256 amount = memberHelpers.returnDepositAmount(delegating).div(stakeRatioDelegating);\n            nodeOpStruct[delegating].delegateAmount = nodeOpStruct[delegating].delegateAmount.add(amount);\n            referringReward = referringReward.add(memberHelpers.returnDepositAmount(delegating).div(stakingRatioReferral));\n            emit LogDelegatedStakeRewardsIncreased(delegating, amount);\n\n        }\n        // referringReward =  referringReward.div(stakingRatioReferral);\n        if (referringReward > 0) {\n            nodeOpStruct[validator].referralAmount = nodeOpStruct[validator].referralAmount.add(referringReward);\n            emit LogReferralStakeRewardsIncreased(validator, referringReward);\n        }\n    }\n\n    /*** \n    * @dev called by the Validations contract to increase pool operator stake reward amount\n    * @param validator - validator for whom values are increased\n    */\n    function increaseStakeRewards(address validator) public isController(\"increaseStakeRewards\") {\n        uint256 amount = memberHelpers.returnDepositAmount(validator).div(stakeRatio);\n        nodeOpStruct[validator].stakeAmount = nodeOpStruct[validator].stakeAmount.add(amount);\n        emit LogStakeRewardsIncreased(validator, amount);\n    }\n\n\n    /*** \n    * @dev called by the Validator to claim their reward\n    * @param deliver - true if amount should be delivered into the wallet or stake deposit\n    */\n    function claimStakeRewards(bool deliver) public {\n        uint256 stakeRewards = nodeOpStruct[msg.sender].stakeAmount;\n        uint256 delegateRewards = nodeOpStruct[msg.sender].delegateAmount;\n        uint256 powRewards = nodeOpStruct[msg.sender].POWAmount;\n        uint256 refRewards = nodeOpStruct[msg.sender].referralAmount;\n\n\n        uint256 payment = stakeRewards.add(powRewards).add(refRewards).add(delegateRewards);\n        nodeOpStruct[msg.sender].stakeAmount= 0;\n        nodeOpStruct[msg.sender].delegateAmount = 0;\n        nodeOpStruct[msg.sender].POWAmount = 0;\n        nodeOpStruct[msg.sender].referralAmount = 0;\n\n\n        if (deliver) {\n            IAuditToken(auditToken).mint(msg.sender, payment);\n            emit LogStakingRewardsTransferredOut(msg.sender, payment);\n        } else {\n            memberHelpers.increaseDeposit(msg.sender, payment);\n            IAuditToken(auditToken).mint(address(this), payment);\n            emit LogStakingRewardsClaimed(msg.sender, payment);\n        }\n    }\n}",
  "sourcePath": "/home/win2win/eth/projects/AuditChain/Core-Smart-Contracts-v1-upgradable/contracts/Auditchain/NodeOperations.sol",
  "compiler": {
    "name": "solc",
    "version": "0.8.0+commit.c7dfd78e.Emscripten.clang"
  },
  "schemaVersion": "3.4.1",
  "updatedAt": "2022-05-03T20:34:42.848Z",
  "networkType": "ethereum",
  "devdoc": {
    "kind": "dev",
    "methods": {
      "getRoleAdmin(bytes32)": {
        "details": "Returns the admin role that controls `role`. See {grantRole} and {revokeRole}. To change a role's admin, use {_setRoleAdmin}."
      },
      "grantRole(bytes32,address)": {
        "details": "Grants `role` to `account`. If `account` had not been already granted `role`, emits a {RoleGranted} event. Requirements: - the caller must have ``role``'s admin role."
      },
      "hasRole(bytes32,address)": {
        "details": "Returns `true` if `account` has been granted `role`."
      },
      "renounceRole(bytes32,address)": {
        "details": "Revokes `role` from the calling account. Roles are often managed via {grantRole} and {revokeRole}: this function's purpose is to provide a mechanism for accounts to lose their privileges if they are compromised (such as when a trusted device is misplaced). If the calling account had been granted `role`, emits a {RoleRevoked} event. Requirements: - the caller must be `account`."
      },
      "revokeRole(bytes32,address)": {
        "details": "Revokes `role` from `account`. If `account` had been granted `role`, emits a {RoleRevoked} event. Requirements: - the caller must have ``role``'s admin role."
      },
      "supportsInterface(bytes4)": {
        "details": "See {IERC165-supportsInterface}."
      },
      "toggleCPA()": {
        "details": "change CPA status from on to off or vice versa"
      },
      "toggleNoDelegate()": {
        "details": "change no delegate flag from on to off or vice versa"
      },
      "toggleNodeOperator()": {
        "details": "change Node operator status from on to off or the vice versa "
      }
    },
    "title": "NodeOperations Functions for Node Operators",
    "version": 1
  },
  "userdoc": {
    "kind": "user",
    "methods": {
      "removeAlldelegations()": {
        "notice": "remove all delegations for specific pool operator"
      },
      "removeDelegation()": {
        "notice": "remove delegation for pool member "
      },
      "returnCPAs()": {
        "notice": "return all CPAs"
      },
      "returnNodeOperators()": {
        "notice": "return all node operators"
      }
    },
    "version": 1
  }
}