{
  "contractName": "NodeOperationsHelpers",
  "abi": [
    {
      "anonymous": false,
      "inputs": [
        {
          "indexed": false,
          "internalType": "uint256",
          "name": "params",
          "type": "uint256"
        },
        {
          "indexed": true,
          "internalType": "string",
          "name": "action",
          "type": "string"
        }
      ],
      "name": "LogGovernanceUpdate",
      "type": "event"
    },
    {
      "anonymous": false,
      "inputs": [
        {
          "indexed": true,
          "internalType": "bytes32",
          "name": "role",
          "type": "bytes32"
        },
        {
          "indexed": true,
          "internalType": "bytes32",
          "name": "previousAdminRole",
          "type": "bytes32"
        },
        {
          "indexed": true,
          "internalType": "bytes32",
          "name": "newAdminRole",
          "type": "bytes32"
        }
      ],
      "name": "RoleAdminChanged",
      "type": "event"
    },
    {
      "anonymous": false,
      "inputs": [
        {
          "indexed": true,
          "internalType": "bytes32",
          "name": "role",
          "type": "bytes32"
        },
        {
          "indexed": true,
          "internalType": "address",
          "name": "account",
          "type": "address"
        },
        {
          "indexed": true,
          "internalType": "address",
          "name": "sender",
          "type": "address"
        }
      ],
      "name": "RoleGranted",
      "type": "event"
    },
    {
      "anonymous": false,
      "inputs": [
        {
          "indexed": true,
          "internalType": "bytes32",
          "name": "role",
          "type": "bytes32"
        },
        {
          "indexed": true,
          "internalType": "address",
          "name": "account",
          "type": "address"
        },
        {
          "indexed": true,
          "internalType": "address",
          "name": "sender",
          "type": "address"
        }
      ],
      "name": "RoleRevoked",
      "type": "event"
    },
    {
      "inputs": [],
      "name": "DEFAULT_ADMIN_ROLE",
      "outputs": [
        {
          "internalType": "bytes32",
          "name": "",
          "type": "bytes32"
        }
      ],
      "stateMutability": "view",
      "type": "function"
    },
    {
      "inputs": [],
      "name": "POWFee",
      "outputs": [
        {
          "internalType": "uint256",
          "name": "",
          "type": "uint256"
        }
      ],
      "stateMutability": "view",
      "type": "function"
    },
    {
      "inputs": [],
      "name": "SETTER_ROLE",
      "outputs": [
        {
          "internalType": "bytes32",
          "name": "",
          "type": "bytes32"
        }
      ],
      "stateMutability": "view",
      "type": "function"
    },
    {
      "inputs": [
        {
          "internalType": "bytes32",
          "name": "role",
          "type": "bytes32"
        }
      ],
      "name": "getRoleAdmin",
      "outputs": [
        {
          "internalType": "bytes32",
          "name": "",
          "type": "bytes32"
        }
      ],
      "stateMutability": "view",
      "type": "function"
    },
    {
      "inputs": [
        {
          "internalType": "bytes32",
          "name": "role",
          "type": "bytes32"
        },
        {
          "internalType": "uint256",
          "name": "index",
          "type": "uint256"
        }
      ],
      "name": "getRoleMember",
      "outputs": [
        {
          "internalType": "address",
          "name": "",
          "type": "address"
        }
      ],
      "stateMutability": "view",
      "type": "function"
    },
    {
      "inputs": [
        {
          "internalType": "bytes32",
          "name": "role",
          "type": "bytes32"
        }
      ],
      "name": "getRoleMemberCount",
      "outputs": [
        {
          "internalType": "uint256",
          "name": "",
          "type": "uint256"
        }
      ],
      "stateMutability": "view",
      "type": "function"
    },
    {
      "inputs": [
        {
          "internalType": "bytes32",
          "name": "role",
          "type": "bytes32"
        },
        {
          "internalType": "address",
          "name": "account",
          "type": "address"
        }
      ],
      "name": "grantRole",
      "outputs": [],
      "stateMutability": "nonpayable",
      "type": "function"
    },
    {
      "inputs": [
        {
          "internalType": "bytes32",
          "name": "role",
          "type": "bytes32"
        },
        {
          "internalType": "address",
          "name": "account",
          "type": "address"
        }
      ],
      "name": "hasRole",
      "outputs": [
        {
          "internalType": "bool",
          "name": "",
          "type": "bool"
        }
      ],
      "stateMutability": "view",
      "type": "function"
    },
    {
      "inputs": [
        {
          "internalType": "bytes32",
          "name": "role",
          "type": "bytes32"
        },
        {
          "internalType": "address",
          "name": "account",
          "type": "address"
        }
      ],
      "name": "renounceRole",
      "outputs": [],
      "stateMutability": "nonpayable",
      "type": "function"
    },
    {
      "inputs": [
        {
          "internalType": "bytes32",
          "name": "role",
          "type": "bytes32"
        },
        {
          "internalType": "address",
          "name": "account",
          "type": "address"
        }
      ],
      "name": "revokeRole",
      "outputs": [],
      "stateMutability": "nonpayable",
      "type": "function"
    },
    {
      "inputs": [],
      "name": "stakeRatio",
      "outputs": [
        {
          "internalType": "uint256",
          "name": "",
          "type": "uint256"
        }
      ],
      "stateMutability": "view",
      "type": "function"
    },
    {
      "inputs": [],
      "name": "stakeRatioDelegating",
      "outputs": [
        {
          "internalType": "uint256",
          "name": "",
          "type": "uint256"
        }
      ],
      "stateMutability": "view",
      "type": "function"
    },
    {
      "inputs": [],
      "name": "stakingRatioReferral",
      "outputs": [
        {
          "internalType": "uint256",
          "name": "",
          "type": "uint256"
        }
      ],
      "stateMutability": "view",
      "type": "function"
    },
    {
      "inputs": [
        {
          "internalType": "bytes4",
          "name": "interfaceId",
          "type": "bytes4"
        }
      ],
      "name": "supportsInterface",
      "outputs": [
        {
          "internalType": "bool",
          "name": "",
          "type": "bool"
        }
      ],
      "stateMutability": "view",
      "type": "function"
    },
    {
      "inputs": [],
      "name": "initialize",
      "outputs": [],
      "stateMutability": "nonpayable",
      "type": "function"
    },
    {
      "inputs": [
        {
          "internalType": "uint256",
          "name": "_newRatio",
          "type": "uint256"
        }
      ],
      "name": "updateStakeRatioDelegating",
      "outputs": [],
      "stateMutability": "nonpayable",
      "type": "function"
    },
    {
      "inputs": [
        {
          "internalType": "uint256",
          "name": "_newRatio",
          "type": "uint256"
        }
      ],
      "name": "updateStakingRatioReferral",
      "outputs": [],
      "stateMutability": "nonpayable",
      "type": "function"
    },
    {
      "inputs": [
        {
          "internalType": "uint256",
          "name": "_newRatio",
          "type": "uint256"
        }
      ],
      "name": "updateStakeRatio",
      "outputs": [],
      "stateMutability": "nonpayable",
      "type": "function"
    },
    {
      "inputs": [
        {
          "internalType": "uint256",
          "name": "_newFee",
          "type": "uint256"
        }
      ],
      "name": "updatePOWFee",
      "outputs": [],
      "stateMutability": "nonpayable",
      "type": "function"
    }
  ],
  "bytecode": "0x608060405234801561001057600080fd5b50611fd4806100206000396000f3fe608060405234801561001057600080fd5b50600436106101215760003560e01c80638129fc1c116100ad578063a217fddf11610071578063a217fddf146102f4578063ca15c87314610312578063d547741f14610342578063e6ef7ada1461035e578063f2d1745d1461037a57610121565b80638129fc1c1461024e5780638e00a8e8146102585780639010d07c1461027657806391d14854146102a6578063a2011b3f146102d657610121565b80632f2ff15d116100f45780632f2ff15d146101c057806336568abe146101dc5780633e10c487146101f85780636f875c4d14610214578063797a9cf21461023257610121565b806301ffc9a714610126578063115cd5b9146101565780631665217d14610174578063248a9ca314610190575b600080fd5b610140600480360381019061013b919061156c565b610398565b60405161014d9190611bc9565b60405180910390f35b61015e610412565b60405161016b9190611d01565b60405180910390f35b61018e60048036038101906101899190611595565b610418565b005b6101aa60048036038101906101a591906114cb565b61051a565b6040516101b79190611be4565b60405180910390f35b6101da60048036038101906101d591906114f4565b61053a565b005b6101f660048036038101906101f191906114f4565b61056e565b005b610212600480360381019061020d9190611595565b6105a2565b005b61021c6106a4565b6040516102299190611d01565b60405180910390f35b61024c60048036038101906102479190611595565b6106aa565b005b6102566107ac565b005b6102606107e5565b60405161026d9190611d01565b60405180910390f35b610290600480360381019061028b9190611530565b6107eb565b60405161029d9190611bae565b60405180910390f35b6102c060048036038101906102bb91906114f4565b61081a565b6040516102cd9190611bc9565b60405180910390f35b6102de610885565b6040516102eb9190611be4565b60405180910390f35b6102fc6108a9565b6040516103099190611be4565b60405180910390f35b61032c600480360381019061032791906114cb565b6108b0565b6040516103399190611d01565b60405180910390f35b61035c600480360381019061035791906114f4565b6108d4565b005b61037860048036038101906103739190611595565b610908565b005b610382610a0a565b60405161038f9190611d01565b60405180910390f35b60007f5a05180f000000000000000000000000000000000000000000000000000000007bffffffffffffffffffffffffffffffffffffffffffffffffffffffff1916827bffffffffffffffffffffffffffffffffffffffffffffffffffffffff1916148061040b575061040a82610a10565b5b9050919050565b60cb5481565b6104427f61c92169ef077349011ff0b1383c894d86c5f0b41d986366b58a6cf31e93beda3361081a565b610481576040517f08c379a000000000000000000000000000000000000000000000000000000000815260040161047890611c21565b60405180910390fd5b60008114156104c5576040517f08c379a00000000000000000000000000000000000000000000000000000000081526004016104bc90611c61565b60405180910390fd5b8060cc819055506040516104d890611b4a565b60405180910390207ff99dba3a76085484eae2e89cc2e2ee5edffe3f1d25cdd1e6c5757447b9b5b4738260405161050f9190611d01565b60405180910390a250565b600060656000838152602001908152602001600020600101549050919050565b6105448282610a8a565b6105698160976000858152602001908152602001600020610ab390919063ffffffff16565b505050565b6105788282610ae3565b61059d8160976000858152602001908152602001600020610b6690919063ffffffff16565b505050565b6105cc7f61c92169ef077349011ff0b1383c894d86c5f0b41d986366b58a6cf31e93beda3361081a565b61060b576040517f08c379a000000000000000000000000000000000000000000000000000000000815260040161060290611c21565b60405180910390fd5b600081141561064f576040517f08c379a000000000000000000000000000000000000000000000000000000000815260040161064690611cc1565b60405180910390fd5b8060ca8190555060405161066290611b20565b60405180910390207ff99dba3a76085484eae2e89cc2e2ee5edffe3f1d25cdd1e6c5757447b9b5b473826040516106999190611d01565b60405180910390a250565b60cc5481565b6106d47f61c92169ef077349011ff0b1383c894d86c5f0b41d986366b58a6cf31e93beda3361081a565b610713576040517f08c379a000000000000000000000000000000000000000000000000000000000815260040161070a90611c21565b60405180910390fd5b6000811415610757576040517f08c379a000000000000000000000000000000000000000000000000000000000815260040161074e90611ca1565b60405180910390fd5b8060c98190555060405161076a90611b35565b60405180910390207ff99dba3a76085484eae2e89cc2e2ee5edffe3f1d25cdd1e6c5757447b9b5b473826040516107a19190611d01565b60405180910390a250565b6103e860c98190555061044c60ca8190555061238c60cb81905550670de0b6b3a764000060cc819055506107e36000801b33610b96565b565b60c95481565b60006108128260976000868152602001908152602001600020610bca90919063ffffffff16565b905092915050565b60006065600084815260200190815260200160002060000160008373ffffffffffffffffffffffffffffffffffffffff1673ffffffffffffffffffffffffffffffffffffffff16815260200190815260200160002060009054906101000a900460ff16905092915050565b7f61c92169ef077349011ff0b1383c894d86c5f0b41d986366b58a6cf31e93beda81565b6000801b81565b60006108cd60976000848152602001908152602001600020610be4565b9050919050565b6108de8282610bf9565b6109038160976000858152602001908152602001600020610b6690919063ffffffff16565b505050565b6109327f61c92169ef077349011ff0b1383c894d86c5f0b41d986366b58a6cf31e93beda3361081a565b610971576040517f08c379a000000000000000000000000000000000000000000000000000000000815260040161096890611c21565b60405180910390fd5b60008114156109b5576040517f08c379a00000000000000000000000000000000000000000000000000000000081526004016109ac90611c81565b60405180910390fd5b8060cb819055506040516109c890611b5f565b60405180910390207ff99dba3a76085484eae2e89cc2e2ee5edffe3f1d25cdd1e6c5757447b9b5b473826040516109ff9190611d01565b60405180910390a250565b60ca5481565b60007f7965db0b000000000000000000000000000000000000000000000000000000007bffffffffffffffffffffffffffffffffffffffffffffffffffffffff1916827bffffffffffffffffffffffffffffffffffffffffffffffffffffffff19161480610a835750610a8282610c22565b5b9050919050565b610a938261051a565b610aa481610a9f610c8c565b610c94565b610aae8383610d31565b505050565b6000610adb836000018373ffffffffffffffffffffffffffffffffffffffff1660001b610e12565b905092915050565b610aeb610c8c565b73ffffffffffffffffffffffffffffffffffffffff168173ffffffffffffffffffffffffffffffffffffffff1614610b58576040517f08c379a0000000000000000000000000000000000000000000000000000000008152600401610b4f90611ce1565b60405180910390fd5b610b628282610e82565b5050565b6000610b8e836000018373ffffffffffffffffffffffffffffffffffffffff1660001b610f64565b905092915050565b610ba082826110ea565b610bc58160976000858152602001908152602001600020610ab390919063ffffffff16565b505050565b6000610bd983600001836110f8565b60001c905092915050565b6000610bf282600001611149565b9050919050565b610c028261051a565b610c1381610c0e610c8c565b610c94565b610c1d8383610e82565b505050565b60007f01ffc9a7000000000000000000000000000000000000000000000000000000007bffffffffffffffffffffffffffffffffffffffffffffffffffffffff1916827bffffffffffffffffffffffffffffffffffffffffffffffffffffffff1916149050919050565b600033905090565b610c9e828261081a565b610d2d57610cc38173ffffffffffffffffffffffffffffffffffffffff16601461115a565b610cd18360001c602061115a565b604051602001610ce2929190611b74565b6040516020818303038152906040526040517f08c379a0000000000000000000000000000000000000000000000000000000008152600401610d249190611bff565b60405180910390fd5b5050565b610d3b828261081a565b610e0e5760016065600084815260200190815260200160002060000160008373ffffffffffffffffffffffffffffffffffffffff1673ffffffffffffffffffffffffffffffffffffffff16815260200190815260200160002060006101000a81548160ff021916908315150217905550610db3610c8c565b73ffffffffffffffffffffffffffffffffffffffff168173ffffffffffffffffffffffffffffffffffffffff16837f2f8788117e7eff1d82e926ec794901d17c78024a50270940304540a733656f0d60405160405180910390a45b5050565b6000610e1e8383611454565b610e77578260000182908060018154018082558091505060019003906000526020600020016000909190919091505582600001805490508360010160008481526020019081526020016000208190555060019050610e7c565b600090505b92915050565b610e8c828261081a565b15610f605760006065600084815260200190815260200160002060000160008373ffffffffffffffffffffffffffffffffffffffff1673ffffffffffffffffffffffffffffffffffffffff16815260200190815260200160002060006101000a81548160ff021916908315150217905550610f05610c8c565b73ffffffffffffffffffffffffffffffffffffffff168173ffffffffffffffffffffffffffffffffffffffff16837ff6391f5c32d9c69d2a47ea670b442974b53935d1edc7fd64eb21e047a839171b60405160405180910390a45b5050565b600080836001016000848152602001908152602001600020549050600081146110de576000600182610f969190611df3565b9050600060018660000180549050610fae9190611df3565b9050818114611069576000866000018281548110610ff5577f4e487b7100000000000000000000000000000000000000000000000000000000600052603260045260246000fd5b906000526020600020015490508087600001848154811061103f577f4e487b7100000000000000000000000000000000000000000000000000000000600052603260045260246000fd5b90600052602060002001819055508387600101600083815260200190815260200160002081905550505b856000018054806110a3577f4e487b7100000000000000000000000000000000000000000000000000000000600052603160045260246000fd5b6001900381819060005260206000200160009055905585600101600086815260200190815260200160002060009055600193505050506110e4565b60009150505b92915050565b6110f48282610d31565b5050565b6000826000018281548110611136577f4e487b7100000000000000000000000000000000000000000000000000000000600052603260045260246000fd5b9060005260206000200154905092915050565b600081600001805490509050919050565b60606000600283600261116d9190611d99565b6111779190611d43565b67ffffffffffffffff8111156111b6577f4e487b7100000000000000000000000000000000000000000000000000000000600052604160045260246000fd5b6040519080825280601f01601f1916602001820160405280156111e85781602001600182028036833780820191505090505b5090507f300000000000000000000000000000000000000000000000000000000000000081600081518110611246577f4e487b7100000000000000000000000000000000000000000000000000000000600052603260045260246000fd5b60200101907effffffffffffffffffffffffffffffffffffffffffffffffffffffffffffff1916908160001a9053507f7800000000000000000000000000000000000000000000000000000000000000816001815181106112d0577f4e487b7100000000000000000000000000000000000000000000000000000000600052603260045260246000fd5b60200101907effffffffffffffffffffffffffffffffffffffffffffffffffffffffffffff1916908160001a905350600060018460026113109190611d99565b61131a9190611d43565b90505b6001811115611406577f3031323334353637383961626364656600000000000000000000000000000000600f861660108110611382577f4e487b7100000000000000000000000000000000000000000000000000000000600052603260045260246000fd5b1a60f81b8282815181106113bf577f4e487b7100000000000000000000000000000000000000000000000000000000600052603260045260246000fd5b60200101907effffffffffffffffffffffffffffffffffffffffffffffffffffffffffffff1916908160001a905350600485901c9450806113ff90611ed8565b905061131d565b506000841461144a576040517f08c379a000000000000000000000000000000000000000000000000000000000815260040161144190611c41565b60405180910390fd5b8091505092915050565b600080836001016000848152602001908152602001600020541415905092915050565b60008135905061148681611f42565b92915050565b60008135905061149b81611f59565b92915050565b6000813590506114b081611f70565b92915050565b6000813590506114c581611f87565b92915050565b6000602082840312156114dd57600080fd5b60006114eb8482850161148c565b91505092915050565b6000806040838503121561150757600080fd5b60006115158582860161148c565b925050602061152685828601611477565b9150509250929050565b6000806040838503121561154357600080fd5b60006115518582860161148c565b9250506020611562858286016114b6565b9150509250929050565b60006020828403121561157e57600080fd5b600061158c848285016114a1565b91505092915050565b6000602082840312156115a757600080fd5b60006115b5848285016114b6565b91505092915050565b6115c781611e27565b82525050565b6115d681611e39565b82525050565b6115e581611e45565b82525050565b60006115f682611d1c565b6116008185611d27565b9350611610818560208601611ea5565b61161981611f31565b840191505092915050565b600061162f82611d1c565b6116398185611d38565b9350611649818560208601611ea5565b80840191505092915050565b6000611662601a83611d38565b91507f7570646174655374616b65526174696f44656c65676174696e670000000000006000830152601a82019050919050565b60006116a2603083611d27565b91507f4e6f64654f7065726174696f6e733a6973536574746572202d2043616c6c657260008301527f206973206e6f74206120736574746572000000000000000000000000000000006020830152604082019050919050565b6000611708602083611d27565b91507f537472696e67733a20686578206c656e67746820696e73756666696369656e746000830152602082019050919050565b6000611748601083611d38565b91507f5570646174655374616b65526174696f000000000000000000000000000000006000830152601082019050919050565b6000611788604183611d27565b91507f4e6f64654f7065726174696f6e733a757064617465504f57466565202d204e6560008301527f772076616c756520666f722074686520504f574665652063616e27742062652060208301527f30000000000000000000000000000000000000000000000000000000000000006040830152606082019050919050565b6000611814600c83611d38565b91507f757064617465504f5746656500000000000000000000000000000000000000006000830152600c82019050919050565b6000611854601a83611d38565b91507f7570646174655374616b696e67526174696f526566657272616c0000000000006000830152601a82019050919050565b6000611894605483611d27565b91507f4e6f64654f7065726174696f6e733a7570646174655374616b696e675261746960008301527f6f526566657272616c202d204e65772076616c756520666f722074686520737460208301527f616b6520726174696f2063616e277420626520300000000000000000000000006040830152606082019050919050565b6000611920601783611d38565b91507f416363657373436f6e74726f6c3a206163636f756e74200000000000000000006000830152601782019050919050565b6000611960604a83611d27565b91507f4e6f64654f7065726174696f6e733a7570646174655374616b65526174696f2060008301527f2d204e65772076616c756520666f7220746865207374616b6520726174696f2060208301527f63616e27742062652030000000000000000000000000000000000000000000006040830152606082019050919050565b60006119ec605f83611d27565b91507f4e6f64654f7065726174696f6e733a7570646174655374616b65526174696f4460008301527f656c65676174696e67202d204e65772076616c756520666f722074686520737460208301527f616b652064656c65676174696e6720726174696f2063616e27742062652030006040830152606082019050919050565b6000611a78601183611d38565b91507f206973206d697373696e6720726f6c65200000000000000000000000000000006000830152601182019050919050565b6000611ab8602f83611d27565b91507f416363657373436f6e74726f6c3a2063616e206f6e6c792072656e6f756e636560008301527f20726f6c657320666f722073656c6600000000000000000000000000000000006020830152604082019050919050565b611b1a81611e9b565b82525050565b6000611b2b82611655565b9150819050919050565b6000611b408261173b565b9150819050919050565b6000611b5582611807565b9150819050919050565b6000611b6a82611847565b9150819050919050565b6000611b7f82611913565b9150611b8b8285611624565b9150611b9682611a6b565b9150611ba28284611624565b91508190509392505050565b6000602082019050611bc360008301846115be565b92915050565b6000602082019050611bde60008301846115cd565b92915050565b6000602082019050611bf960008301846115dc565b92915050565b60006020820190508181036000830152611c1981846115eb565b905092915050565b60006020820190508181036000830152611c3a81611695565b9050919050565b60006020820190508181036000830152611c5a816116fb565b9050919050565b60006020820190508181036000830152611c7a8161177b565b9050919050565b60006020820190508181036000830152611c9a81611887565b9050919050565b60006020820190508181036000830152611cba81611953565b9050919050565b60006020820190508181036000830152611cda816119df565b9050919050565b60006020820190508181036000830152611cfa81611aab565b9050919050565b6000602082019050611d166000830184611b11565b92915050565b600081519050919050565b600082825260208201905092915050565b600081905092915050565b6000611d4e82611e9b565b9150611d5983611e9b565b9250827fffffffffffffffffffffffffffffffffffffffffffffffffffffffffffffffff03821115611d8e57611d8d611f02565b5b828201905092915050565b6000611da482611e9b565b9150611daf83611e9b565b9250817fffffffffffffffffffffffffffffffffffffffffffffffffffffffffffffffff0483118215151615611de857611de7611f02565b5b828202905092915050565b6000611dfe82611e9b565b9150611e0983611e9b565b925082821015611e1c57611e1b611f02565b5b828203905092915050565b6000611e3282611e7b565b9050919050565b60008115159050919050565b6000819050919050565b60007fffffffff0000000000000000000000000000000000000000000000000000000082169050919050565b600073ffffffffffffffffffffffffffffffffffffffff82169050919050565b6000819050919050565b60005b83811015611ec3578082015181840152602081019050611ea8565b83811115611ed2576000848401525b50505050565b6000611ee382611e9b565b91506000821415611ef757611ef6611f02565b5b600182039050919050565b7f4e487b7100000000000000000000000000000000000000000000000000000000600052601160045260246000fd5b6000601f19601f8301169050919050565b611f4b81611e27565b8114611f5657600080fd5b50565b611f6281611e45565b8114611f6d57600080fd5b50565b611f7981611e4f565b8114611f8457600080fd5b50565b611f9081611e9b565b8114611f9b57600080fd5b5056fea26469706673582212201b58bae6c50b1479cff5e82f2c93f1b1f24f7d27b5693446b07ee5ccab7feb9764736f6c63430008000033",
  "immutableReferences": {},
  "source": "// SPDX-License-Identifier: MIT\npragma solidity =0.8.0;\nimport \"@openzeppelin/contracts-upgradeable/access/AccessControlEnumerableUpgradeable.sol\";\n\n\n/**\n * @title NodeOperations\n * Additional function for Members\n */\ncontract NodeOperationsHelpers is AccessControlEnumerableUpgradeable {\n\n    uint256 public stakeRatio;\n    uint256 public stakeRatioDelegating;\n    uint256 public stakingRatioReferral;\n    uint256 public POWFee;\n\n\n    bytes32 public constant SETTER_ROLE =  keccak256(\"SETTER_ROLE\");\n    event LogGovernanceUpdate(uint256 params, string indexed action);\n\n\n    function initialize() public {\n       \n        stakeRatio = 1000;\n        stakeRatioDelegating = 1100;\n        stakingRatioReferral = 9100;\n        POWFee = 1e18;\n        _setupRole(DEFAULT_ADMIN_ROLE, msg.sender);\n    }\n\n        /// @dev check if caller is a setter     \n    modifier isSetter {\n        require(hasRole(SETTER_ROLE, msg.sender), \"NodeOperations:isSetter - Caller is not a setter\");\n\n        _;\n    }\n\n    function updateStakeRatioDelegating(uint256 _newRatio) public isSetter() {\n\n        require(_newRatio != 0, \"NodeOperations:updateStakeRatioDelegating - New value for the stake delegating ratio can't be 0\");\n        stakeRatioDelegating = _newRatio;\n\n        emit LogGovernanceUpdate(_newRatio, \"updateStakeRatioDelegating\");\n    }\n\n    function updateStakingRatioReferral(uint256 _newRatio) public isSetter() {\n\n        require(_newRatio != 0, \"NodeOperations:updateStakingRatioReferral - New value for the stake ratio can't be 0\");\n        stakingRatioReferral = _newRatio;\n        emit LogGovernanceUpdate(_newRatio, \"updateStakingRatioReferral\");\n    }\n\n    function updateStakeRatio(uint256 _newRatio) public isSetter() {\n\n        require(_newRatio != 0, \"NodeOperations:updateStakeRatio - New value for the stake ratio can't be 0\");\n        stakeRatio = _newRatio;\n        emit LogGovernanceUpdate(_newRatio, \"UpdateStakeRatio\");\n    }\n\n    function updatePOWFee(uint256 _newFee) public isSetter() {\n\n        require(_newFee != 0, \"NodeOperations:updatePOWFee - New value for the POWFee can't be 0\");\n        POWFee = _newFee;\n        emit LogGovernanceUpdate(_newFee, \"updatePOWFee\");\n    }\n\n}",
  "sourcePath": "/home/win2win/eth/projects/AuditChain/Core-Smart-Contracts-v1-upgradable/contracts/Auditchain/NodeOperationsHelpers.sol",
  "compiler": {
    "name": "solc",
    "version": "0.8.0+commit.c7dfd78e.Emscripten.clang"
  },
  "schemaVersion": "3.4.1",
  "updatedAt": "2022-05-03T19:20:41.688Z",
  "devdoc": {
    "kind": "dev",
    "methods": {
      "getRoleAdmin(bytes32)": {
        "details": "Returns the admin role that controls `role`. See {grantRole} and {revokeRole}. To change a role's admin, use {_setRoleAdmin}."
      },
      "getRoleMember(bytes32,uint256)": {
        "details": "Returns one of the accounts that have `role`. `index` must be a value between 0 and {getRoleMemberCount}, non-inclusive. Role bearers are not sorted in any particular way, and their ordering may change at any point. WARNING: When using {getRoleMember} and {getRoleMemberCount}, make sure you perform all queries on the same block. See the following https://forum.openzeppelin.com/t/iterating-over-elements-on-enumerableset-in-openzeppelin-contracts/2296[forum post] for more information."
      },
      "getRoleMemberCount(bytes32)": {
        "details": "Returns the number of accounts that have `role`. Can be used together with {getRoleMember} to enumerate all bearers of a role."
      },
      "grantRole(bytes32,address)": {
        "details": "Overload {grantRole} to track enumerable memberships"
      },
      "hasRole(bytes32,address)": {
        "details": "Returns `true` if `account` has been granted `role`."
      },
      "renounceRole(bytes32,address)": {
        "details": "Overload {renounceRole} to track enumerable memberships"
      },
      "revokeRole(bytes32,address)": {
        "details": "Overload {revokeRole} to track enumerable memberships"
      },
      "supportsInterface(bytes4)": {
        "details": "See {IERC165-supportsInterface}."
      }
    },
    "title": "NodeOperations Additional function for Members",
    "version": 1
  },
  "userdoc": {
    "kind": "user",
    "methods": {},
    "version": 1
  }
}