{
  "contractName": "Queue",
  "abi": [
    {
      "anonymous": false,
      "inputs": [
        {
          "indexed": false,
          "internalType": "uint256",
          "name": "id",
          "type": "uint256"
        }
      ],
      "name": "NewHead",
      "type": "event"
    },
    {
      "anonymous": false,
      "inputs": [
        {
          "indexed": false,
          "internalType": "uint256",
          "name": "id",
          "type": "uint256"
        },
        {
          "indexed": false,
          "internalType": "uint256",
          "name": "price",
          "type": "uint256"
        },
        {
          "indexed": false,
          "internalType": "bytes32",
          "name": "validationHash",
          "type": "bytes32"
        }
      ],
      "name": "ObjectCreated",
      "type": "event"
    },
    {
      "anonymous": false,
      "inputs": [
        {
          "indexed": false,
          "internalType": "uint256",
          "name": "id",
          "type": "uint256"
        }
      ],
      "name": "ObjectRemoved",
      "type": "event"
    },
    {
      "anonymous": false,
      "inputs": [
        {
          "indexed": false,
          "internalType": "uint256",
          "name": "prev",
          "type": "uint256"
        },
        {
          "indexed": false,
          "internalType": "uint256",
          "name": "next",
          "type": "uint256"
        }
      ],
      "name": "ObjectsLinked",
      "type": "event"
    },
    {
      "anonymous": false,
      "inputs": [
        {
          "indexed": true,
          "internalType": "bytes32",
          "name": "role",
          "type": "bytes32"
        },
        {
          "indexed": true,
          "internalType": "bytes32",
          "name": "previousAdminRole",
          "type": "bytes32"
        },
        {
          "indexed": true,
          "internalType": "bytes32",
          "name": "newAdminRole",
          "type": "bytes32"
        }
      ],
      "name": "RoleAdminChanged",
      "type": "event"
    },
    {
      "anonymous": false,
      "inputs": [
        {
          "indexed": true,
          "internalType": "bytes32",
          "name": "role",
          "type": "bytes32"
        },
        {
          "indexed": true,
          "internalType": "address",
          "name": "account",
          "type": "address"
        },
        {
          "indexed": true,
          "internalType": "address",
          "name": "sender",
          "type": "address"
        }
      ],
      "name": "RoleGranted",
      "type": "event"
    },
    {
      "anonymous": false,
      "inputs": [
        {
          "indexed": true,
          "internalType": "bytes32",
          "name": "role",
          "type": "bytes32"
        },
        {
          "indexed": true,
          "internalType": "address",
          "name": "account",
          "type": "address"
        },
        {
          "indexed": true,
          "internalType": "address",
          "name": "sender",
          "type": "address"
        }
      ],
      "name": "RoleRevoked",
      "type": "event"
    },
    {
      "inputs": [],
      "name": "CONTROLLER_ROLE",
      "outputs": [
        {
          "internalType": "bytes32",
          "name": "",
          "type": "bytes32"
        }
      ],
      "stateMutability": "view",
      "type": "function",
      "constant": true
    },
    {
      "inputs": [],
      "name": "DEFAULT_ADMIN_ROLE",
      "outputs": [
        {
          "internalType": "bytes32",
          "name": "",
          "type": "bytes32"
        }
      ],
      "stateMutability": "view",
      "type": "function",
      "constant": true
    },
    {
      "inputs": [
        {
          "internalType": "bytes32",
          "name": "role",
          "type": "bytes32"
        }
      ],
      "name": "getRoleAdmin",
      "outputs": [
        {
          "internalType": "bytes32",
          "name": "",
          "type": "bytes32"
        }
      ],
      "stateMutability": "view",
      "type": "function",
      "constant": true
    },
    {
      "inputs": [
        {
          "internalType": "bytes32",
          "name": "role",
          "type": "bytes32"
        },
        {
          "internalType": "uint256",
          "name": "index",
          "type": "uint256"
        }
      ],
      "name": "getRoleMember",
      "outputs": [
        {
          "internalType": "address",
          "name": "",
          "type": "address"
        }
      ],
      "stateMutability": "view",
      "type": "function",
      "constant": true
    },
    {
      "inputs": [
        {
          "internalType": "bytes32",
          "name": "role",
          "type": "bytes32"
        }
      ],
      "name": "getRoleMemberCount",
      "outputs": [
        {
          "internalType": "uint256",
          "name": "",
          "type": "uint256"
        }
      ],
      "stateMutability": "view",
      "type": "function",
      "constant": true
    },
    {
      "inputs": [
        {
          "internalType": "bytes32",
          "name": "role",
          "type": "bytes32"
        },
        {
          "internalType": "address",
          "name": "account",
          "type": "address"
        }
      ],
      "name": "grantRole",
      "outputs": [],
      "stateMutability": "nonpayable",
      "type": "function"
    },
    {
      "inputs": [
        {
          "internalType": "bytes32",
          "name": "role",
          "type": "bytes32"
        },
        {
          "internalType": "address",
          "name": "account",
          "type": "address"
        }
      ],
      "name": "hasRole",
      "outputs": [
        {
          "internalType": "bool",
          "name": "",
          "type": "bool"
        }
      ],
      "stateMutability": "view",
      "type": "function",
      "constant": true
    },
    {
      "inputs": [],
      "name": "head",
      "outputs": [
        {
          "internalType": "uint256",
          "name": "",
          "type": "uint256"
        }
      ],
      "stateMutability": "view",
      "type": "function",
      "constant": true
    },
    {
      "inputs": [],
      "name": "idCounter",
      "outputs": [
        {
          "internalType": "uint256",
          "name": "",
          "type": "uint256"
        }
      ],
      "stateMutability": "view",
      "type": "function",
      "constant": true
    },
    {
      "inputs": [
        {
          "internalType": "uint256",
          "name": "",
          "type": "uint256"
        }
      ],
      "name": "objects",
      "outputs": [
        {
          "internalType": "uint256",
          "name": "id",
          "type": "uint256"
        },
        {
          "internalType": "uint256",
          "name": "next",
          "type": "uint256"
        },
        {
          "internalType": "uint256",
          "name": "price",
          "type": "uint256"
        },
        {
          "internalType": "bytes32",
          "name": "validationHash",
          "type": "bytes32"
        },
        {
          "internalType": "bool",
          "name": "executed",
          "type": "bool"
        }
      ],
      "stateMutability": "view",
      "type": "function",
      "constant": true
    },
    {
      "inputs": [],
      "name": "queueCount",
      "outputs": [
        {
          "internalType": "uint256",
          "name": "",
          "type": "uint256"
        }
      ],
      "stateMutability": "view",
      "type": "function",
      "constant": true
    },
    {
      "inputs": [
        {
          "internalType": "bytes32",
          "name": "role",
          "type": "bytes32"
        },
        {
          "internalType": "address",
          "name": "account",
          "type": "address"
        }
      ],
      "name": "renounceRole",
      "outputs": [],
      "stateMutability": "nonpayable",
      "type": "function"
    },
    {
      "inputs": [
        {
          "internalType": "bytes32",
          "name": "role",
          "type": "bytes32"
        },
        {
          "internalType": "address",
          "name": "account",
          "type": "address"
        }
      ],
      "name": "revokeRole",
      "outputs": [],
      "stateMutability": "nonpayable",
      "type": "function"
    },
    {
      "inputs": [
        {
          "internalType": "bytes4",
          "name": "interfaceId",
          "type": "bytes4"
        }
      ],
      "name": "supportsInterface",
      "outputs": [
        {
          "internalType": "bool",
          "name": "",
          "type": "bool"
        }
      ],
      "stateMutability": "view",
      "type": "function",
      "constant": true
    },
    {
      "inputs": [],
      "name": "initialize",
      "outputs": [],
      "stateMutability": "nonpayable",
      "type": "function"
    },
    {
      "inputs": [
        {
          "internalType": "uint256",
          "name": "_id",
          "type": "uint256"
        }
      ],
      "name": "get",
      "outputs": [
        {
          "internalType": "uint256",
          "name": "id",
          "type": "uint256"
        },
        {
          "internalType": "uint256",
          "name": "next",
          "type": "uint256"
        },
        {
          "internalType": "uint256",
          "name": "price",
          "type": "uint256"
        },
        {
          "internalType": "bytes32",
          "name": "validationHash",
          "type": "bytes32"
        },
        {
          "internalType": "bool",
          "name": "executed",
          "type": "bool"
        }
      ],
      "stateMutability": "view",
      "type": "function",
      "constant": true
    },
    {
      "inputs": [
        {
          "internalType": "uint256",
          "name": "_id",
          "type": "uint256"
        }
      ],
      "name": "findPrevId",
      "outputs": [
        {
          "internalType": "uint256",
          "name": "",
          "type": "uint256"
        }
      ],
      "stateMutability": "view",
      "type": "function",
      "constant": true
    },
    {
      "inputs": [],
      "name": "findTailId",
      "outputs": [
        {
          "internalType": "uint256",
          "name": "",
          "type": "uint256"
        }
      ],
      "stateMutability": "view",
      "type": "function",
      "constant": true
    },
    {
      "inputs": [
        {
          "internalType": "uint256",
          "name": "_price",
          "type": "uint256"
        }
      ],
      "name": "findIdForData",
      "outputs": [
        {
          "internalType": "uint256",
          "name": "",
          "type": "uint256"
        }
      ],
      "stateMutability": "view",
      "type": "function",
      "constant": true
    },
    {
      "inputs": [
        {
          "internalType": "bytes32",
          "name": "_validationHash",
          "type": "bytes32"
        }
      ],
      "name": "findIdForValidationHash",
      "outputs": [
        {
          "internalType": "uint256",
          "name": "",
          "type": "uint256"
        }
      ],
      "stateMutability": "view",
      "type": "function",
      "constant": true
    },
    {
      "inputs": [
        {
          "internalType": "uint256",
          "name": "_price",
          "type": "uint256"
        }
      ],
      "name": "findIdForLesserPrice",
      "outputs": [
        {
          "internalType": "uint256",
          "name": "",
          "type": "uint256"
        }
      ],
      "stateMutability": "view",
      "type": "function",
      "constant": true
    },
    {
      "inputs": [
        {
          "internalType": "uint256",
          "name": "_price",
          "type": "uint256"
        },
        {
          "internalType": "bytes32",
          "name": "_validationHash",
          "type": "bytes32"
        }
      ],
      "name": "addToQueue",
      "outputs": [],
      "stateMutability": "nonpayable",
      "type": "function"
    },
    {
      "inputs": [
        {
          "internalType": "bytes32",
          "name": "_lastValidationHash",
          "type": "bytes32"
        }
      ],
      "name": "getValidationToVote",
      "outputs": [
        {
          "internalType": "bytes32",
          "name": "",
          "type": "bytes32"
        }
      ],
      "stateMutability": "view",
      "type": "function",
      "constant": true
    },
    {
      "inputs": [],
      "name": "getNextValidationToVote",
      "outputs": [
        {
          "internalType": "bytes32",
          "name": "validationHash",
          "type": "bytes32"
        }
      ],
      "stateMutability": "view",
      "type": "function",
      "constant": true
    },
    {
      "inputs": [
        {
          "internalType": "bytes32",
          "name": "_lastValidationHash",
          "type": "bytes32"
        }
      ],
      "name": "getValidationToProcess",
      "outputs": [
        {
          "internalType": "bytes32",
          "name": "validationHash",
          "type": "bytes32"
        }
      ],
      "stateMutability": "view",
      "type": "function",
      "constant": true
    },
    {
      "inputs": [],
      "name": "getNextValidation",
      "outputs": [
        {
          "internalType": "bytes32",
          "name": "",
          "type": "bytes32"
        }
      ],
      "stateMutability": "view",
      "type": "function",
      "constant": true
    },
    {
      "inputs": [
        {
          "internalType": "bytes32",
          "name": "_valHash",
          "type": "bytes32"
        }
      ],
      "name": "removeFromQueue",
      "outputs": [],
      "stateMutability": "nonpayable",
      "type": "function"
    },
    {
      "inputs": [
        {
          "internalType": "bytes32",
          "name": "_valHash",
          "type": "bytes32"
        }
      ],
      "name": "setValidatedFlag",
      "outputs": [],
      "stateMutability": "nonpayable",
      "type": "function"
    },
    {
      "inputs": [],
      "name": "returnQueueSize",
      "outputs": [
        {
          "internalType": "uint256",
          "name": "",
          "type": "uint256"
        }
      ],
      "stateMutability": "view",
      "type": "function",
      "constant": true
    },
    {
      "inputs": [
        {
          "internalType": "uint256",
          "name": "newPrice",
          "type": "uint256"
        },
        {
          "internalType": "bytes32",
          "name": "_valHash",
          "type": "bytes32"
        }
      ],
      "name": "replaceValidation",
      "outputs": [],
      "stateMutability": "nonpayable",
      "type": "function"
    }
  ],
  "bytecode": "0x608060405234801561001057600080fd5b50612a41806100206000396000f3fe608060405234801561001057600080fd5b50600436106101da5760003560e01c806391d1485411610104578063ca15c873116100a2578063eb08ab2811610071578063eb08ab2814610595578063ed175850146105b3578063f7c15fc8146105e7578063fad9fdd514610603576101da565b8063ca15c873146104e9578063cd48e3b914610519578063d4d7675414610549578063d547741f14610579576101da565b8063a217fddf116100de578063a217fddf14610461578063aed142671461047f578063b771cf9b146104af578063c4a2e369146104cd576101da565b806391d14854146103df5780639507d39a1461040f5780639ef36bd114610443576101da565b8063479d95751161017c5780638129fc1c1161014b5780638129fc1c146103575780638f7dcfa3146103615780639010d07c1461037f5780639057e605146103af576101da565b8063479d9575146102cf57806348792674146102ff5780636b2b35941461031b5780637108614a14610339576101da565b80632f2ff15d116101b85780632f2ff15d1461025d57806335fda3ae1461027957806336568abe14610295578063469d7c4a146102b1576101da565b806301ffc9a7146101df578063092c5b3b1461020f578063248a9ca31461022d575b600080fd5b6101f960048036038101906101f4919061221f565b610633565b604051610206919061259a565b60405180910390f35b6102176106ad565b60405161022491906125b5565b60405180910390f35b6102476004803603810190610242919061217e565b6106d1565b60405161025491906125b5565b60405180910390f35b610277600480360381019061027291906121a7565b6106f1565b005b610293600480360381019061028e919061217e565b610725565b005b6102af60048036038101906102aa91906121a7565b6107ce565b005b6102b9610802565b6040516102c691906125b5565b60405180910390f35b6102e960048036038101906102e49190612248565b61081d565b6040516102f69190612672565b60405180910390f35b6103196004803603810190610314919061217e565b610944565b005b6103236109c7565b6040516103309190612672565b60405180910390f35b6103416109d1565b60405161034e9190612672565b60405180910390f35b61035f610abd565b005b610369610bb3565b6040516103769190612672565b60405180910390f35b610399600480360381019061039491906121e3565b610bb9565b6040516103a6919061257f565b60405180910390f35b6103c960048036038101906103c49190612248565b610be8565b6040516103d69190612672565b60405180910390f35b6103f960048036038101906103f491906121a7565b610cd5565b604051610406919061259a565b60405180910390f35b61042960048036038101906104249190612248565b610d40565b60405161043a9594939291906126ed565b60405180910390f35b61044b610dd9565b6040516104589190612672565b60405180910390f35b610469610ddf565b60405161047691906125b5565b60405180910390f35b6104996004803603810190610494919061217e565b610de6565b6040516104a691906125b5565b60405180910390f35b6104b7610e61565b6040516104c491906125b5565b60405180910390f35b6104e760048036038101906104e29190612271565b610eb9565b005b61050360048036038101906104fe919061217e565b610f39565b6040516105109190612672565b60405180910390f35b610533600480360381019061052e9190612248565b610f5d565b6040516105409190612672565b60405180910390f35b610563600480360381019061055e919061217e565b61104a565b60405161057091906125b5565b60405180910390f35b610593600480360381019061058e91906121a7565b6110a6565b005b61059d6110da565b6040516105aa9190612672565b60405180910390f35b6105cd60048036038101906105c89190612248565b6110e0565b6040516105de9594939291906126ed565b60405180910390f35b61060160048036038101906105fc9190612271565b611123565b005b61061d6004803603810190610618919061217e565b6111c1565b60405161062a9190612672565b60405180910390f35b60007f5a05180f000000000000000000000000000000000000000000000000000000007bffffffffffffffffffffffffffffffffffffffffffffffffffffffff1916827bffffffffffffffffffffffffffffffffffffffffffffffffffffffff191614806106a657506106a5826112eb565b5b9050919050565b7f7b765e0e932d348852a6f810bfa1ab891e259123f02db8cdcde614c57022335781565b600060656000838152602001908152602001600020600101549050919050565b6106fb8282611365565b610720816097600085815260200190815260200160002061138e90919063ffffffff16565b505050565b61074f7f7b765e0e932d348852a6f810bfa1ab891e259123f02db8cdcde614c57022335733610cd5565b61078e576040517f08c379a000000000000000000000000000000000000000000000000000000000815260040161078590612632565b60405180910390fd5b6000610799826111c1565b9050600160cc600083815260200190815260200160002060040160006101000a81548160ff0219169083151502179055505050565b6107d882826113be565b6107fd816097600085815260200190815260200160002061144190919063ffffffff16565b505050565b60008061081060c954610d40565b5093505050508091505090565b600060c954821415610832576000905061093f565b600060019050600060cc600060c95481526020019081526020016000206040518060a0016040529081600082015481526020016001820154815260200160028201548152602001600382015481526020016004820160009054906101000a900460ff16151515158152505090505b838160200151141580156108b6575060cb548211155b156109355760cc6000826020015181526020019081526020016000206040518060a0016040529081600082015481526020016001820154815260200160028201548152602001600382015481526020016004820160009054906101000a900460ff1615151515815250509050818061092d90612926565b9250506108a0565b8060000151925050505b919050565b61096e7f7b765e0e932d348852a6f810bfa1ab891e259123f02db8cdcde614c57022335733610cd5565b6109ad576040517f08c379a00000000000000000000000000000000000000000000000000000000081526004016109a490612632565b60405180910390fd5b60006109b8826111c1565b90506109c381611471565b5050565b600060cb54905090565b60008060cc600060c95481526020019081526020016000206040518060a0016040529081600082015481526020016001820154815260200160028201548152602001600382015481526020016004820160009054906101000a900460ff16151515158152505090505b6000816020015114610ab25760cc6000826020015181526020019081526020016000206040518060a0016040529081600082015481526020016001820154815260200160028201548152602001600382015481526020016004820160009054906101000a900460ff1615151515815250509050610a3a565b806000015191505090565b600060019054906101000a900460ff1680610ae3575060008054906101000a900460ff16155b610b22576040517f08c379a0000000000000000000000000000000000000000000000000000000008152600401610b1990612612565b60405180910390fd5b60008060019054906101000a900460ff161590508015610b72576001600060016101000a81548160ff02191690831515021790555060016000806101000a81548160ff0219169083151502179055505b600060c981905550600160ca81905550610b8f6000801b336115b0565b8015610bb05760008060016101000a81548160ff0219169083151502179055505b50565b60c95481565b6000610be082609760008681526020019081526020016000206115e490919063ffffffff16565b905092915050565b60008060cc600060c95481526020019081526020016000206040518060a0016040529081600082015481526020016001820154815260200160028201548152602001600382015481526020016004820160009054906101000a900460ff16151515158152505090505b82816040015114610cc85760cc6000826020015181526020019081526020016000206040518060a0016040529081600082015481526020016001820154815260200160028201548152602001600382015481526020016004820160009054906101000a900460ff1615151515815250509050610c51565b8060000151915050919050565b60006065600084815260200190815260200160002060000160008373ffffffffffffffffffffffffffffffffffffffff1673ffffffffffffffffffffffffffffffffffffffff16815260200190815260200160002060009054906101000a900460ff16905092915050565b60008060008060008060cc60008881526020019081526020016000206040518060a0016040529081600082015481526020016001820154815260200160028201548152602001600382015481526020016004820160009054906101000a900460ff161515151581525050905080600001518160200151826040015183606001518460800151955095509550955095505091939590929450565b60cb5481565b6000801b81565b600080610df2836111c1565b90506000610dff82610d40565b505050915050600060cc600083815260200190815260200160002060040160009054906101000a900460ff1615610e4f57610e3982610d40565b9091929350909192509091505080915050610e56565b6000801b90505b809350505050919050565b600060cc600060c954815260200190815260200160002060040160009054906101000a900460ff1615610eaf57610e9960c954610d40565b9091929350909192509091505080915050610eb6565b6000801b90505b90565b610ee37f7b765e0e932d348852a6f810bfa1ab891e259123f02db8cdcde614c57022335733610cd5565b610f22576040517f08c379a0000000000000000000000000000000000000000000000000000000008152600401610f1990612632565b60405180910390fd5b610f2b81610944565b610f358282611123565b5050565b6000610f56609760008481526020019081526020016000206115fe565b9050919050565b60008060cc600060c95481526020019081526020016000206040518060a0016040529081600082015481526020016001820154815260200160028201548152602001600382015481526020016004820160009054906101000a900460ff16151515158152505090505b8281604001511061103d5760cc6000826020015181526020019081526020016000206040518060a0016040529081600082015481526020016001820154815260200160028201548152602001600382015481526020016004820160009054906101000a900460ff1615151515815250509050610fc6565b8060000151915050919050565b600080611056836111c1565b9050600061106382610d40565b505050915050600081141561107d576000801b925061109e565b61108681610d40565b909192935090919250909150508093505050506110a1565b50505b919050565b6110b08282611613565b6110d5816097600085815260200190815260200160002061144190919063ffffffff16565b505050565b60ca5481565b60cc6020528060005260406000206000915090508060000154908060010154908060020154908060030154908060040160009054906101000a900460ff16905085565b61114d7f7b765e0e932d348852a6f810bfa1ab891e259123f02db8cdcde614c57022335733610cd5565b61118c576040517f08c379a000000000000000000000000000000000000000000000000000000000815260040161118390612632565b60405180910390fd5b600061119783610f5d565b90506111a481848461163c565b60cb60008154809291906111b790612926565b9190505550505050565b60008060cc600060c95481526020019081526020016000206040518060a0016040529081600082015481526020016001820154815260200160028201548152602001600382015481526020016004820160009054906101000a900460ff16151515158152505090506000600190505b83826060015114158015611246575060cb548111155b156112c55760cc6000836020015181526020019081526020016000206040518060a0016040529081600082015481526020016001820154815260200160028201548152602001600382015481526020016004820160009054906101000a900460ff161515151581525050915080806112bd90612926565b915050611230565b83826060015114156112df578160000151925050506112e6565b6000925050505b919050565b60007f7965db0b000000000000000000000000000000000000000000000000000000007bffffffffffffffffffffffffffffffffffffffffffffffffffffffff1916827bffffffffffffffffffffffffffffffffffffffffffffffffffffffff1916148061135e575061135d82611674565b5b9050919050565b61136e826106d1565b61137f8161137a6116de565b6116e6565b6113898383611783565b505050565b60006113b6836000018373ffffffffffffffffffffffffffffffffffffffff1660001b611864565b905092915050565b6113c66116de565b73ffffffffffffffffffffffffffffffffffffffff168173ffffffffffffffffffffffffffffffffffffffff1614611433576040517f08c379a000000000000000000000000000000000000000000000000000000000815260040161142a90612652565b60405180910390fd5b61143d82826118d4565b5050565b6000611469836000018373ffffffffffffffffffffffffffffffffffffffff1660001b6119b6565b905092915050565b600060cc60008381526020019081526020016000206040518060a0016040529081600082015481526020016001820154815260200160028201548152602001600382015481526020016004820160009054906101000a900460ff16151515158152505090508160c95414156114f2576114ed8160200151611b3c565b61150f565b60006114fd8361081d565b905061150d818360200151611b7d565b505b60cc6000826000015181526020019081526020016000206000808201600090556001820160009055600282016000905560038201600090556004820160006101000a81549060ff0219169055505060cb6000815480929190611570906128fc565b91905055507fe1919cab237081e04a387d81704c769f832679b068e9b87b1d6a27eb5102b956826040516115a49190612672565b60405180910390a15050565b6115ba8282611bd5565b6115df816097600085815260200190815260200160002061138e90919063ffffffff16565b505050565b60006115f38360000183611be3565b60001c905092915050565b600061160c82600001611c34565b9050919050565b61161c826106d1565b61162d816116286116de565b6116e6565b61163783836118d4565b505050565b60c954831415611655576116508282611c45565b61166f565b60006116608461081d565b905061166d818484611c6d565b505b505050565b60007f01ffc9a7000000000000000000000000000000000000000000000000000000007bffffffffffffffffffffffffffffffffffffffffffffffffffffffff1916827bffffffffffffffffffffffffffffffffffffffffffffffffffffffff1916149050919050565b600033905090565b6116f08282610cd5565b61177f576117158173ffffffffffffffffffffffffffffffffffffffff166014611d03565b6117238360001c6020611d03565b604051602001611734929190612545565b6040516020818303038152906040526040517f08c379a000000000000000000000000000000000000000000000000000000000815260040161177691906125d0565b60405180910390fd5b5050565b61178d8282610cd5565b6118605760016065600084815260200190815260200160002060000160008373ffffffffffffffffffffffffffffffffffffffff1673ffffffffffffffffffffffffffffffffffffffff16815260200190815260200160002060006101000a81548160ff0219169083151502179055506118056116de565b73ffffffffffffffffffffffffffffffffffffffff168173ffffffffffffffffffffffffffffffffffffffff16837f2f8788117e7eff1d82e926ec794901d17c78024a50270940304540a733656f0d60405160405180910390a45b5050565b60006118708383611ffd565b6118c95782600001829080600181540180825580915050600190039060005260206000200160009091909190915055826000018054905083600101600084815260200190815260200160002081905550600190506118ce565b600090505b92915050565b6118de8282610cd5565b156119b25760006065600084815260200190815260200160002060000160008373ffffffffffffffffffffffffffffffffffffffff1673ffffffffffffffffffffffffffffffffffffffff16815260200190815260200160002060006101000a81548160ff0219169083151502179055506119576116de565b73ffffffffffffffffffffffffffffffffffffffff168173ffffffffffffffffffffffffffffffffffffffff16837ff6391f5c32d9c69d2a47ea670b442974b53935d1edc7fd64eb21e047a839171b60405160405180910390a45b5050565b60008083600101600084815260200190815260200160002054905060008114611b305760006001826119e89190612817565b9050600060018660000180549050611a009190612817565b9050818114611abb576000866000018281548110611a47577f4e487b7100000000000000000000000000000000000000000000000000000000600052603260045260246000fd5b9060005260206000200154905080876000018481548110611a91577f4e487b7100000000000000000000000000000000000000000000000000000000600052603260045260246000fd5b90600052602060002001819055508387600101600083815260200190815260200160002081905550505b85600001805480611af5577f4e487b7100000000000000000000000000000000000000000000000000000000600052603160045260246000fd5b600190038181906000526020600020016000905590558560010160008681526020019081526020016000206000905560019350505050611b36565b60009150505b92915050565b8060c9819055507f58b81d35330cc08b909b14dbf5bcf7c3e769206cd0be7dd65e76e95a815439e181604051611b729190612672565b60405180910390a150565b8060cc6000848152602001908152602001600020600101819055507fbe1f66c94cc2553f09c996e2153854d4b74a747e3c2648161fb8daa3bfe983028282604051611bc992919061268d565b60405180910390a15050565b611bdf8282611783565b5050565b6000826000018281548110611c21577f4e487b7100000000000000000000000000000000000000000000000000000000600052603260045260246000fd5b9060005260206000200154905092915050565b600081600001805490509050919050565b6000611c518383612020565b9050611c5f8160c954611b7d565b611c6881611b3c565b505050565b600060cc60008581526020019081526020016000206040518060a0016040529081600082015481526020016001820154815260200160028201548152602001600382015481526020016004820160009054906101000a900460ff16151515158152505090506000611cde8484612020565b9050611cee818360200151611b7d565b611cfc826000015182611b7d565b5050505050565b606060006002836002611d1691906127bd565b611d209190612767565b67ffffffffffffffff811115611d5f577f4e487b7100000000000000000000000000000000000000000000000000000000600052604160045260246000fd5b6040519080825280601f01601f191660200182016040528015611d915781602001600182028036833780820191505090505b5090507f300000000000000000000000000000000000000000000000000000000000000081600081518110611def577f4e487b7100000000000000000000000000000000000000000000000000000000600052603260045260246000fd5b60200101907effffffffffffffffffffffffffffffffffffffffffffffffffffffffffffff1916908160001a9053507f780000000000000000000000000000000000000000000000000000000000000081600181518110611e79577f4e487b7100000000000000000000000000000000000000000000000000000000600052603260045260246000fd5b60200101907effffffffffffffffffffffffffffffffffffffffffffffffffffffffffffff1916908160001a90535060006001846002611eb991906127bd565b611ec39190612767565b90505b6001811115611faf577f3031323334353637383961626364656600000000000000000000000000000000600f861660108110611f2b577f4e487b7100000000000000000000000000000000000000000000000000000000600052603260045260246000fd5b1a60f81b828281518110611f68577f4e487b7100000000000000000000000000000000000000000000000000000000600052603260045260246000fd5b60200101907effffffffffffffffffffffffffffffffffffffffffffffffffffffffffffff1916908160001a905350600485901c945080611fa8906128fc565b9050611ec6565b5060008414611ff3576040517f08c379a0000000000000000000000000000000000000000000000000000000008152600401611fea906125f2565b60405180910390fd5b8091505092915050565b600080836001016000848152602001908152602001600020541415905092915050565b60008060ca549050600160ca600082825461203b9190612767565b9250508190555060006040518060a00160405280838152602001600081526020018681526020018581526020016000151581525090508060cc6000836000015181526020019081526020016000206000820151816000015560208201518160010155604082015181600201556060820151816003015560808201518160040160006101000a81548160ff0219169083151502179055509050507fae3fa14712358fd14ea9daaa663953bb097578df220e6c81d698b842db789f2f816000015182604001518360600151604051612113939291906126b6565b60405180910390a180600001519250505092915050565b600081359050612139816129af565b92915050565b60008135905061214e816129c6565b92915050565b600081359050612163816129dd565b92915050565b600081359050612178816129f4565b92915050565b60006020828403121561219057600080fd5b600061219e8482850161213f565b91505092915050565b600080604083850312156121ba57600080fd5b60006121c88582860161213f565b92505060206121d98582860161212a565b9150509250929050565b600080604083850312156121f657600080fd5b60006122048582860161213f565b925050602061221585828601612169565b9150509250929050565b60006020828403121561223157600080fd5b600061223f84828501612154565b91505092915050565b60006020828403121561225a57600080fd5b600061226884828501612169565b91505092915050565b6000806040838503121561228457600080fd5b600061229285828601612169565b92505060206122a38582860161213f565b9150509250929050565b6122b68161284b565b82525050565b6122c58161285d565b82525050565b6122d481612869565b82525050565b60006122e582612740565b6122ef818561274b565b93506122ff8185602086016128c9565b6123088161299e565b840191505092915050565b600061231e82612740565b612328818561275c565b93506123388185602086016128c9565b80840191505092915050565b600061235160208361274b565b91507f537472696e67733a20686578206c656e67746820696e73756666696369656e746000830152602082019050919050565b6000612391602e8361274b565b91507f496e697469616c697a61626c653a20636f6e747261637420697320616c72656160008301527f647920696e697469616c697a65640000000000000000000000000000000000006020830152604082019050919050565b60006123f760178361275c565b91507f416363657373436f6e74726f6c3a206163636f756e74200000000000000000006000830152601782019050919050565b6000612437602f8361274b565b91507f51756575653a4973436f6e74726f6c6c6572202d2043616c6c6572206973206e60008301527f6f74206120636f6e74726f6c6c657200000000000000000000000000000000006020830152604082019050919050565b600061249d60118361275c565b91507f206973206d697373696e6720726f6c65200000000000000000000000000000006000830152601182019050919050565b60006124dd602f8361274b565b91507f416363657373436f6e74726f6c3a2063616e206f6e6c792072656e6f756e636560008301527f20726f6c657320666f722073656c6600000000000000000000000000000000006020830152604082019050919050565b61253f816128bf565b82525050565b6000612550826123ea565b915061255c8285612313565b915061256782612490565b91506125738284612313565b91508190509392505050565b600060208201905061259460008301846122ad565b92915050565b60006020820190506125af60008301846122bc565b92915050565b60006020820190506125ca60008301846122cb565b92915050565b600060208201905081810360008301526125ea81846122da565b905092915050565b6000602082019050818103600083015261260b81612344565b9050919050565b6000602082019050818103600083015261262b81612384565b9050919050565b6000602082019050818103600083015261264b8161242a565b9050919050565b6000602082019050818103600083015261266b816124d0565b9050919050565b60006020820190506126876000830184612536565b92915050565b60006040820190506126a26000830185612536565b6126af6020830184612536565b9392505050565b60006060820190506126cb6000830186612536565b6126d86020830185612536565b6126e560408301846122cb565b949350505050565b600060a0820190506127026000830188612536565b61270f6020830187612536565b61271c6040830186612536565b61272960608301856122cb565b61273660808301846122bc565b9695505050505050565b600081519050919050565b600082825260208201905092915050565b600081905092915050565b6000612772826128bf565b915061277d836128bf565b9250827fffffffffffffffffffffffffffffffffffffffffffffffffffffffffffffffff038211156127b2576127b161296f565b5b828201905092915050565b60006127c8826128bf565b91506127d3836128bf565b9250817fffffffffffffffffffffffffffffffffffffffffffffffffffffffffffffffff048311821515161561280c5761280b61296f565b5b828202905092915050565b6000612822826128bf565b915061282d836128bf565b9250828210156128405761283f61296f565b5b828203905092915050565b60006128568261289f565b9050919050565b60008115159050919050565b6000819050919050565b60007fffffffff0000000000000000000000000000000000000000000000000000000082169050919050565b600073ffffffffffffffffffffffffffffffffffffffff82169050919050565b6000819050919050565b60005b838110156128e75780820151818401526020810190506128cc565b838111156128f6576000848401525b50505050565b6000612907826128bf565b9150600082141561291b5761291a61296f565b5b600182039050919050565b6000612931826128bf565b91507fffffffffffffffffffffffffffffffffffffffffffffffffffffffffffffffff8214156129645761296361296f565b5b600182019050919050565b7f4e487b7100000000000000000000000000000000000000000000000000000000600052601160045260246000fd5b6000601f19601f8301169050919050565b6129b88161284b565b81146129c357600080fd5b50565b6129cf81612869565b81146129da57600080fd5b50565b6129e681612873565b81146129f157600080fd5b50565b6129fd816128bf565b8114612a0857600080fd5b5056fea2646970667358221220d5dd00e99d646163e1abb6b6343c4680ab09ec634992ceb3d7a63b2e1e6a3be764736f6c63430008000033",
  "immutableReferences": {},
  "source": "pragma solidity =0.8.0;\n// SPDX-License-Identifier: MIT\n\n// import \"@openzeppelin/contracts/access/AccessControl.sol\";\nimport \"@openzeppelin/contracts-upgradeable/access/AccessControlEnumerableUpgradeable.sol\";\n\n\n\n/**\n * @title LinkedList\n * @dev Data structure\n * @author Alberto Cuesta Caada\n */\ncontract Queue is AccessControlEnumerableUpgradeable{\n\n    event ObjectCreated(uint256 id, uint256 price, bytes32 validationHash);\n    event ObjectsLinked(uint256 prev, uint256 next);\n    event ObjectRemoved(uint256 id);\n    event NewHead(uint256 id);\n\n    struct Object{\n        uint256 id;\n        uint256 next;\n        uint256 price;\n        bytes32 validationHash;\n        bool executed;\n    }\n\n    uint256 public head;\n    uint256 public idCounter;\n    uint256 public queueCount;\n    mapping (uint256 => Object) public objects;\n\n    /**\n     * @dev Creates an empty list.\n     */\n    // constructor() {\n    //     head = 0;\n    //     idCounter = 1;\n    //     _setupRole(DEFAULT_ADMIN_ROLE, msg.sender);\n    // }\n\n\n    function initialize() initializer public {\n\n        head = 0;\n        idCounter = 1;\n        _setupRole(DEFAULT_ADMIN_ROLE, msg.sender);\n    }\n\n\n    bytes32 public constant CONTROLLER_ROLE = keccak256(\"CONTROLLER_ROLE\");\n\n    /// @dev check if caller is a controller     \n    modifier isController {\n        require(hasRole(CONTROLLER_ROLE, msg.sender), \"Queue:IsController - Caller is not a controller\");\n\n        _;\n    }\n\n\n    /**\n     * @dev Retrieves the Object denoted by `_id`.\n     */\n    function get(uint256 _id)\n        public\n        virtual\n        view\n        returns (uint256 id, uint256 next, uint256 price, bytes32 validationHash, bool executed)\n    {\n        Object memory object = objects[_id];\n        return (object.id, object.next, object.price, object.validationHash, object.executed);\n    }\n\n    /**\n     * @dev Given an Object, denoted by `_id`, returns the id of the Object that points to it, or 0 if `_id` refers to the Head.\n     */\n    function findPrevId(uint256 _id)\n        public\n        virtual\n        view\n        returns (uint256)\n    {\n        if (_id == head) return 0;\n        uint256 count=1;\n        Object memory prevObject = objects[head];\n        while (prevObject.next != _id && count <= queueCount) {\n            prevObject = objects[prevObject.next];\n            count++;\n        }\n        return prevObject.id;\n    }\n\n    /**\n     * @dev Returns the id for the Tail.\n     */\n    function findTailId()\n        public\n        virtual\n        view\n        returns (uint256)\n    {\n        Object memory oldTailObject = objects[head];\n        while (oldTailObject.next != 0) {\n            oldTailObject = objects[oldTailObject.next];    \n        }\n        return oldTailObject.id;\n    }\n\n    /**\n     * @dev Return the id of the first Object matching `_price` in the data field.\n     */\n    function findIdForData(uint256 _price)\n        public\n        virtual\n        view\n        returns (uint256)\n    {\n        Object memory object = objects[head];\n        while (object.price != _price) {\n            object = objects[object.next];\n        }\n        return object.id;\n    }\n\n    function findIdForValidationHash(bytes32 _validationHash)public view returns (uint256) {\n        Object memory object = objects[head];\n        uint256 count=1;\n\n            while (object.validationHash != _validationHash && count <= queueCount) {\n                object = objects[object.next];\n                count++;\n            }\n\n            if (object.validationHash == _validationHash)\n                return object.id;\n            else \n                return 0;\n    }\n\n    /**\n     * @dev Return the id of the first Object matching `_price` in the data field.\n     */\n    function findIdForLesserPrice(uint256 _price)\n        public\n        virtual\n        view\n        returns (uint256)\n    {\n        Object memory object = objects[head];\n        while (object.price >= _price) {\n            object = objects[object.next];\n        }\n        return object.id;\n    }\n\n    /**\n     * @dev Insert a new Object as the new Head with `_price` in the data field.\n     */\n    function addHead(uint256 _price, bytes32 _validationHash)\n        internal\n        virtual\n    {\n        uint256 objectId = _createObject(_price, _validationHash);\n        _link(objectId, head);\n        _setHead(objectId);\n    }\n\n    /**\n     * @dev Insert a new Object as the new Tail with `_price` in the data field.\n     */\n    function addTail(uint256 _price, bytes32 _validationHash)\n        internal\n        virtual\n    {\n        if (head == 0) {\n            addHead(_price, _validationHash);\n        }\n        else {\n            uint256 oldTailId = findTailId();\n            uint256 newTailId = _createObject(_price, _validationHash);\n            _link(oldTailId, newTailId);\n        }\n    }\n\n    /**\n     * @dev Remove the Object denoted by `_id` from the List.\n     */\n    function remove(uint256 _id)\n        internal\n        virtual\n    {\n        Object memory removeObject = objects[_id];\n        if (head == _id) {\n            _setHead(removeObject.next);\n        }\n        else {\n            uint256 prevObjectId = findPrevId(_id);\n            _link(prevObjectId, removeObject.next);\n        }\n        delete objects[removeObject.id];\n        queueCount--;\n        emit ObjectRemoved(_id);\n    }\n\n    /**\n     * @dev Insert a new Object after the Object denoted by `_id` with `_price` in the data field.\n     */\n    function insertAfter(uint256 _prevId, uint256 _price, bytes32 validationHash)\n        internal\n        virtual\n    {\n        Object memory prevObject = objects[_prevId];\n        uint256 newObjectId = _createObject(_price, validationHash);\n        _link(newObjectId, prevObject.next);\n        _link(prevObject.id, newObjectId);\n    }\n\n    /**\n     * @dev Insert a new Object before the Object denoted by `_id` with `_price` in the data field.\n     */\n    function insertBefore(uint256 _nextId, uint256 _price, bytes32 validatioHash)\n        internal\n        virtual\n    {\n        if (_nextId == head) {\n            addHead(_price, validatioHash);\n        }\n        else {\n            uint256 prevId = findPrevId(_nextId);\n            insertAfter(prevId, _price, validatioHash);\n        }\n    }\n\n    /**\n     * @dev Internal function to update the Head pointer.\n     */\n    function _setHead(uint256 _id)\n        internal\n    {\n        head = _id;\n        emit NewHead(_id);\n    }\n\n    /**\n     * @dev Internal function to create an unlinked Object.\n     */\n    function _createObject(uint256 _price, bytes32 _validationHash)\n        internal\n        returns (uint256)\n    {\n        uint256 newId = idCounter;\n        idCounter += 1;\n        \n        Object memory object = Object(newId, 0, _price, _validationHash, false);\n        objects[object.id] = object;\n        emit ObjectCreated(\n            object.id,\n            object.price,\n            object.validationHash\n        );\n        return object.id;\n    }\n\n    /**\n     * @dev Internal function to link an Object to another.\n     */\n    function _link(uint256 _prevId, uint256 _nextId)\n        internal\n    {\n        objects[_prevId].next = _nextId;\n        emit ObjectsLinked(_prevId, _nextId);\n    }\n\n\n    function addToQueue(uint256 _price, bytes32 _validationHash) public isController() {\n        \n\n       uint256 id = findIdForLesserPrice(_price);\n       insertBefore(id, _price, _validationHash);\n       queueCount++;\n\n    }\n\n\n    function getValidationToVote(bytes32 _lastValidationHash) public view returns (bytes32) {\n\n        uint256 id = findIdForValidationHash(_lastValidationHash);\n        (,uint256 prevId,,,) = get(id);\n\n        bytes32 validationHash;\n\n            if (objects[prevId].executed){\n                (,,,validationHash,) =   get(prevId);\n            } else\n                validationHash =  0x0;\n\n        \n        return validationHash;\n    }\n\n\n    function getNextValidationToVote() public view returns(bytes32 validationHash) {\n\n        if (objects[head].executed){\n                (,,,validationHash,) =   get(head);\n            } else\n                validationHash =  0x0;\n        return validationHash;\n    }\n\n    function getValidationToProcess(bytes32 _lastValidationHash) public view returns(bytes32 validationHash) {\n\n\n        uint256 id = findIdForValidationHash(_lastValidationHash);\n        (,uint256 prevId,,,) = get(id);\n\n        if (prevId == 0)\n            validationHash = 0x0;\n        else{\n            (,,,validationHash,) =   get(prevId);\n            return validationHash;\n        }\n    }\n\n    function getNextValidation() public view returns(bytes32) {\n\n        (,,,bytes32 validationHash,) = get(head);\n        return validationHash;\n    }\n\n\n\n    function removeFromQueue(bytes32 _valHash) public isController() {\n        uint256 id = findIdForValidationHash(_valHash);\n        remove(id);\n       \n    }\n\n    function setValidatedFlag(bytes32 _valHash) public isController() {\n\n        uint256 id = findIdForValidationHash(_valHash);\n        objects[id].executed = true;\n    }\n\n    function returnQueueSize() public view returns(uint256) {\n        return queueCount;\n    }\n\n    function replaceValidation(uint256 newPrice, bytes32 _valHash) public isController(){\n        removeFromQueue(_valHash);\n        addToQueue(newPrice, _valHash); \n    }\n\n\n}",
  "sourcePath": "/home/win2win/eth/projects/AuditChain/Core-Smart-Contracts-v1-upgradable/contracts/Auditchain/Queue.sol",
  "compiler": {
    "name": "solc",
    "version": "0.8.0+commit.c7dfd78e.Emscripten.clang"
  },
  "schemaVersion": "3.4.1",
  "updatedAt": "2022-05-03T20:34:42.865Z",
  "networkType": "ethereum",
  "devdoc": {
    "author": "Alberto Cuesta Caada",
    "details": "Data structure",
    "kind": "dev",
    "methods": {
      "findIdForData(uint256)": {
        "details": "Return the id of the first Object matching `_price` in the data field."
      },
      "findIdForLesserPrice(uint256)": {
        "details": "Return the id of the first Object matching `_price` in the data field."
      },
      "findPrevId(uint256)": {
        "details": "Given an Object, denoted by `_id`, returns the id of the Object that points to it, or 0 if `_id` refers to the Head."
      },
      "findTailId()": {
        "details": "Returns the id for the Tail."
      },
      "get(uint256)": {
        "details": "Retrieves the Object denoted by `_id`."
      },
      "getRoleAdmin(bytes32)": {
        "details": "Returns the admin role that controls `role`. See {grantRole} and {revokeRole}. To change a role's admin, use {_setRoleAdmin}."
      },
      "getRoleMember(bytes32,uint256)": {
        "details": "Returns one of the accounts that have `role`. `index` must be a value between 0 and {getRoleMemberCount}, non-inclusive. Role bearers are not sorted in any particular way, and their ordering may change at any point. WARNING: When using {getRoleMember} and {getRoleMemberCount}, make sure you perform all queries on the same block. See the following https://forum.openzeppelin.com/t/iterating-over-elements-on-enumerableset-in-openzeppelin-contracts/2296[forum post] for more information."
      },
      "getRoleMemberCount(bytes32)": {
        "details": "Returns the number of accounts that have `role`. Can be used together with {getRoleMember} to enumerate all bearers of a role."
      },
      "grantRole(bytes32,address)": {
        "details": "Overload {grantRole} to track enumerable memberships"
      },
      "hasRole(bytes32,address)": {
        "details": "Returns `true` if `account` has been granted `role`."
      },
      "initialize()": {
        "details": "Creates an empty list."
      },
      "renounceRole(bytes32,address)": {
        "details": "Overload {renounceRole} to track enumerable memberships"
      },
      "revokeRole(bytes32,address)": {
        "details": "Overload {revokeRole} to track enumerable memberships"
      },
      "supportsInterface(bytes4)": {
        "details": "See {IERC165-supportsInterface}."
      }
    },
    "title": "LinkedList",
    "version": 1
  },
  "userdoc": {
    "kind": "user",
    "methods": {},
    "version": 1
  }
}