{
  "contractName": "Queue",
  "abi": [
    {
      "anonymous": false,
      "inputs": [
        {
          "indexed": false,
          "internalType": "uint256",
          "name": "id",
          "type": "uint256"
        }
      ],
      "name": "NewHead",
      "type": "event"
    },
    {
      "anonymous": false,
      "inputs": [
        {
          "indexed": false,
          "internalType": "uint256",
          "name": "id",
          "type": "uint256"
        },
        {
          "indexed": false,
          "internalType": "uint256",
          "name": "price",
          "type": "uint256"
        },
        {
          "indexed": false,
          "internalType": "bytes32",
          "name": "validationHash",
          "type": "bytes32"
        }
      ],
      "name": "ObjectCreated",
      "type": "event"
    },
    {
      "anonymous": false,
      "inputs": [
        {
          "indexed": false,
          "internalType": "uint256",
          "name": "id",
          "type": "uint256"
        }
      ],
      "name": "ObjectRemoved",
      "type": "event"
    },
    {
      "anonymous": false,
      "inputs": [
        {
          "indexed": false,
          "internalType": "uint256",
          "name": "prev",
          "type": "uint256"
        },
        {
          "indexed": false,
          "internalType": "uint256",
          "name": "next",
          "type": "uint256"
        }
      ],
      "name": "ObjectsLinked",
      "type": "event"
    },
    {
      "anonymous": false,
      "inputs": [
        {
          "indexed": true,
          "internalType": "bytes32",
          "name": "role",
          "type": "bytes32"
        },
        {
          "indexed": true,
          "internalType": "bytes32",
          "name": "previousAdminRole",
          "type": "bytes32"
        },
        {
          "indexed": true,
          "internalType": "bytes32",
          "name": "newAdminRole",
          "type": "bytes32"
        }
      ],
      "name": "RoleAdminChanged",
      "type": "event"
    },
    {
      "anonymous": false,
      "inputs": [
        {
          "indexed": true,
          "internalType": "bytes32",
          "name": "role",
          "type": "bytes32"
        },
        {
          "indexed": true,
          "internalType": "address",
          "name": "account",
          "type": "address"
        },
        {
          "indexed": true,
          "internalType": "address",
          "name": "sender",
          "type": "address"
        }
      ],
      "name": "RoleGranted",
      "type": "event"
    },
    {
      "anonymous": false,
      "inputs": [
        {
          "indexed": true,
          "internalType": "bytes32",
          "name": "role",
          "type": "bytes32"
        },
        {
          "indexed": true,
          "internalType": "address",
          "name": "account",
          "type": "address"
        },
        {
          "indexed": true,
          "internalType": "address",
          "name": "sender",
          "type": "address"
        }
      ],
      "name": "RoleRevoked",
      "type": "event"
    },
    {
      "inputs": [],
      "name": "CONTROLLER_ROLE",
      "outputs": [
        {
          "internalType": "bytes32",
          "name": "",
          "type": "bytes32"
        }
      ],
      "stateMutability": "view",
      "type": "function"
    },
    {
      "inputs": [],
      "name": "DEFAULT_ADMIN_ROLE",
      "outputs": [
        {
          "internalType": "bytes32",
          "name": "",
          "type": "bytes32"
        }
      ],
      "stateMutability": "view",
      "type": "function"
    },
    {
      "inputs": [
        {
          "internalType": "bytes32",
          "name": "role",
          "type": "bytes32"
        }
      ],
      "name": "getRoleAdmin",
      "outputs": [
        {
          "internalType": "bytes32",
          "name": "",
          "type": "bytes32"
        }
      ],
      "stateMutability": "view",
      "type": "function"
    },
    {
      "inputs": [
        {
          "internalType": "bytes32",
          "name": "role",
          "type": "bytes32"
        },
        {
          "internalType": "uint256",
          "name": "index",
          "type": "uint256"
        }
      ],
      "name": "getRoleMember",
      "outputs": [
        {
          "internalType": "address",
          "name": "",
          "type": "address"
        }
      ],
      "stateMutability": "view",
      "type": "function"
    },
    {
      "inputs": [
        {
          "internalType": "bytes32",
          "name": "role",
          "type": "bytes32"
        }
      ],
      "name": "getRoleMemberCount",
      "outputs": [
        {
          "internalType": "uint256",
          "name": "",
          "type": "uint256"
        }
      ],
      "stateMutability": "view",
      "type": "function"
    },
    {
      "inputs": [
        {
          "internalType": "bytes32",
          "name": "role",
          "type": "bytes32"
        },
        {
          "internalType": "address",
          "name": "account",
          "type": "address"
        }
      ],
      "name": "grantRole",
      "outputs": [],
      "stateMutability": "nonpayable",
      "type": "function"
    },
    {
      "inputs": [
        {
          "internalType": "bytes32",
          "name": "role",
          "type": "bytes32"
        },
        {
          "internalType": "address",
          "name": "account",
          "type": "address"
        }
      ],
      "name": "hasRole",
      "outputs": [
        {
          "internalType": "bool",
          "name": "",
          "type": "bool"
        }
      ],
      "stateMutability": "view",
      "type": "function"
    },
    {
      "inputs": [],
      "name": "head",
      "outputs": [
        {
          "internalType": "uint256",
          "name": "",
          "type": "uint256"
        }
      ],
      "stateMutability": "view",
      "type": "function"
    },
    {
      "inputs": [],
      "name": "idCounter",
      "outputs": [
        {
          "internalType": "uint256",
          "name": "",
          "type": "uint256"
        }
      ],
      "stateMutability": "view",
      "type": "function"
    },
    {
      "inputs": [
        {
          "internalType": "uint256",
          "name": "",
          "type": "uint256"
        }
      ],
      "name": "objects",
      "outputs": [
        {
          "internalType": "uint256",
          "name": "id",
          "type": "uint256"
        },
        {
          "internalType": "uint256",
          "name": "next",
          "type": "uint256"
        },
        {
          "internalType": "uint256",
          "name": "price",
          "type": "uint256"
        },
        {
          "internalType": "bytes32",
          "name": "validationHash",
          "type": "bytes32"
        },
        {
          "internalType": "bool",
          "name": "executed",
          "type": "bool"
        }
      ],
      "stateMutability": "view",
      "type": "function"
    },
    {
      "inputs": [],
      "name": "queueCount",
      "outputs": [
        {
          "internalType": "uint256",
          "name": "",
          "type": "uint256"
        }
      ],
      "stateMutability": "view",
      "type": "function"
    },
    {
      "inputs": [
        {
          "internalType": "bytes32",
          "name": "role",
          "type": "bytes32"
        },
        {
          "internalType": "address",
          "name": "account",
          "type": "address"
        }
      ],
      "name": "renounceRole",
      "outputs": [],
      "stateMutability": "nonpayable",
      "type": "function"
    },
    {
      "inputs": [
        {
          "internalType": "bytes32",
          "name": "role",
          "type": "bytes32"
        },
        {
          "internalType": "address",
          "name": "account",
          "type": "address"
        }
      ],
      "name": "revokeRole",
      "outputs": [],
      "stateMutability": "nonpayable",
      "type": "function"
    },
    {
      "inputs": [
        {
          "internalType": "bytes4",
          "name": "interfaceId",
          "type": "bytes4"
        }
      ],
      "name": "supportsInterface",
      "outputs": [
        {
          "internalType": "bool",
          "name": "",
          "type": "bool"
        }
      ],
      "stateMutability": "view",
      "type": "function"
    },
    {
      "inputs": [],
      "name": "initialize",
      "outputs": [],
      "stateMutability": "nonpayable",
      "type": "function"
    },
    {
      "inputs": [
        {
          "internalType": "uint256",
          "name": "_id",
          "type": "uint256"
        }
      ],
      "name": "get",
      "outputs": [
        {
          "internalType": "uint256",
          "name": "id",
          "type": "uint256"
        },
        {
          "internalType": "uint256",
          "name": "next",
          "type": "uint256"
        },
        {
          "internalType": "uint256",
          "name": "price",
          "type": "uint256"
        },
        {
          "internalType": "bytes32",
          "name": "validationHash",
          "type": "bytes32"
        },
        {
          "internalType": "bool",
          "name": "executed",
          "type": "bool"
        }
      ],
      "stateMutability": "view",
      "type": "function"
    },
    {
      "inputs": [
        {
          "internalType": "uint256",
          "name": "_id",
          "type": "uint256"
        }
      ],
      "name": "findPrevId",
      "outputs": [
        {
          "internalType": "uint256",
          "name": "",
          "type": "uint256"
        }
      ],
      "stateMutability": "view",
      "type": "function"
    },
    {
      "inputs": [],
      "name": "findTailId",
      "outputs": [
        {
          "internalType": "uint256",
          "name": "",
          "type": "uint256"
        }
      ],
      "stateMutability": "view",
      "type": "function"
    },
    {
      "inputs": [
        {
          "internalType": "uint256",
          "name": "_price",
          "type": "uint256"
        }
      ],
      "name": "findIdForData",
      "outputs": [
        {
          "internalType": "uint256",
          "name": "",
          "type": "uint256"
        }
      ],
      "stateMutability": "view",
      "type": "function"
    },
    {
      "inputs": [
        {
          "internalType": "bytes32",
          "name": "_validationHash",
          "type": "bytes32"
        }
      ],
      "name": "findIdForValidationHash",
      "outputs": [
        {
          "internalType": "uint256",
          "name": "",
          "type": "uint256"
        }
      ],
      "stateMutability": "view",
      "type": "function"
    },
    {
      "inputs": [
        {
          "internalType": "uint256",
          "name": "_price",
          "type": "uint256"
        }
      ],
      "name": "findIdForLesserPrice",
      "outputs": [
        {
          "internalType": "uint256",
          "name": "",
          "type": "uint256"
        }
      ],
      "stateMutability": "view",
      "type": "function"
    },
    {
      "inputs": [
        {
          "internalType": "uint256",
          "name": "_price",
          "type": "uint256"
        },
        {
          "internalType": "bytes32",
          "name": "_validationHash",
          "type": "bytes32"
        }
      ],
      "name": "addToQueue",
      "outputs": [
        {
          "internalType": "bool",
          "name": "",
          "type": "bool"
        }
      ],
      "stateMutability": "nonpayable",
      "type": "function"
    },
    {
      "inputs": [
        {
          "internalType": "bytes32",
          "name": "_lastValidationHash",
          "type": "bytes32"
        }
      ],
      "name": "getValidationToVote",
      "outputs": [
        {
          "internalType": "bytes32",
          "name": "",
          "type": "bytes32"
        }
      ],
      "stateMutability": "view",
      "type": "function"
    },
    {
      "inputs": [],
      "name": "getNextValidationToVote",
      "outputs": [
        {
          "internalType": "bytes32",
          "name": "validationHash",
          "type": "bytes32"
        }
      ],
      "stateMutability": "view",
      "type": "function"
    },
    {
      "inputs": [
        {
          "internalType": "bytes32",
          "name": "_lastValidationHash",
          "type": "bytes32"
        }
      ],
      "name": "getValidationToProcess",
      "outputs": [
        {
          "internalType": "bytes32",
          "name": "validationHash",
          "type": "bytes32"
        }
      ],
      "stateMutability": "view",
      "type": "function"
    },
    {
      "inputs": [],
      "name": "getNextValidation",
      "outputs": [
        {
          "internalType": "bytes32",
          "name": "",
          "type": "bytes32"
        }
      ],
      "stateMutability": "view",
      "type": "function"
    },
    {
      "inputs": [
        {
          "internalType": "bytes32",
          "name": "_valHash",
          "type": "bytes32"
        }
      ],
      "name": "removeFromQueue",
      "outputs": [
        {
          "internalType": "bool",
          "name": "",
          "type": "bool"
        }
      ],
      "stateMutability": "nonpayable",
      "type": "function"
    },
    {
      "inputs": [
        {
          "internalType": "bytes32",
          "name": "_valHash",
          "type": "bytes32"
        }
      ],
      "name": "setValidatedFlag",
      "outputs": [
        {
          "internalType": "bool",
          "name": "",
          "type": "bool"
        }
      ],
      "stateMutability": "nonpayable",
      "type": "function"
    },
    {
      "inputs": [],
      "name": "returnQueueSize",
      "outputs": [
        {
          "internalType": "uint256",
          "name": "",
          "type": "uint256"
        }
      ],
      "stateMutability": "view",
      "type": "function"
    },
    {
      "inputs": [
        {
          "internalType": "uint256",
          "name": "newPrice",
          "type": "uint256"
        },
        {
          "internalType": "bytes32",
          "name": "_valHash",
          "type": "bytes32"
        }
      ],
      "name": "replaceValidation",
      "outputs": [
        {
          "internalType": "bool",
          "name": "",
          "type": "bool"
        }
      ],
      "stateMutability": "nonpayable",
      "type": "function"
    }
  ],
  "bytecode": "0x608060405234801561001057600080fd5b50612ab3806100206000396000f3fe608060405234801561001057600080fd5b50600436106101da5760003560e01c806391d1485411610104578063ca15c873116100a2578063eb08ab2811610071578063eb08ab28146105d1578063ed175850146105ef578063f7c15fc814610623578063fad9fdd514610653576101da565b8063ca15c87314610525578063cd48e3b914610555578063d4d7675414610585578063d547741f146105b5576101da565b8063a217fddf116100de578063a217fddf14610489578063aed14267146104a7578063b771cf9b146104d7578063c4a2e369146104f5576101da565b806391d14854146104075780639507d39a146104375780639ef36bd11461046b576101da565b8063479d95751161017c5780638129fc1c1161014b5780638129fc1c1461037f5780638f7dcfa3146103895780639010d07c146103a75780639057e605146103d7576101da565b8063479d9575146102e357806348792674146103135780636b2b3594146103435780637108614a14610361576101da565b80632f2ff15d116101b85780632f2ff15d1461025d57806335fda3ae1461027957806336568abe146102a9578063469d7c4a146102c5576101da565b806301ffc9a7146101df578063092c5b3b1461020f578063248a9ca31461022d575b600080fd5b6101f960048036038101906101f49190612291565b610683565b604051610206919061260c565b60405180910390f35b6102176106fd565b6040516102249190612627565b60405180910390f35b610247600480360381019061024291906121f0565b610721565b6040516102549190612627565b60405180910390f35b61027760048036038101906102729190612219565b610741565b005b610293600480360381019061028e91906121f0565b610775565b6040516102a0919061260c565b60405180910390f35b6102c360048036038101906102be9190612219565b610826565b005b6102cd61085a565b6040516102da9190612627565b60405180910390f35b6102fd60048036038101906102f891906122ba565b610875565b60405161030a91906126e4565b60405180910390f35b61032d600480360381019061032891906121f0565b61099c565b60405161033a919061260c565b60405180910390f35b61034b610a27565b60405161035891906126e4565b60405180910390f35b610369610a31565b60405161037691906126e4565b60405180910390f35b610387610b1d565b005b610391610c13565b60405161039e91906126e4565b60405180910390f35b6103c160048036038101906103bc9190612255565b610c19565b6040516103ce91906125f1565b60405180910390f35b6103f160048036038101906103ec91906122ba565b610c48565b6040516103fe91906126e4565b60405180910390f35b610421600480360381019061041c9190612219565b610d35565b60405161042e919061260c565b60405180910390f35b610451600480360381019061044c91906122ba565b610da0565b60405161046295949392919061275f565b60405180910390f35b610473610e39565b60405161048091906126e4565b60405180910390f35b610491610e3f565b60405161049e9190612627565b60405180910390f35b6104c160048036038101906104bc91906121f0565b610e46565b6040516104ce9190612627565b60405180910390f35b6104df610ec1565b6040516104ec9190612627565b60405180910390f35b61050f600480360381019061050a91906122e3565b610f19565b60405161051c919061260c565b60405180910390f35b61053f600480360381019061053a91906121f0565b610fa3565b60405161054c91906126e4565b60405180910390f35b61056f600480360381019061056a91906122ba565b610fc7565b60405161057c91906126e4565b60405180910390f35b61059f600480360381019061059a91906121f0565b6110b4565b6040516105ac9190612627565b60405180910390f35b6105cf60048036038101906105ca9190612219565b611110565b005b6105d9611144565b6040516105e691906126e4565b60405180910390f35b610609600480360381019061060491906122ba565b61114a565b60405161061a95949392919061275f565b60405180910390f35b61063d600480360381019061063891906122e3565b61118d565b60405161064a919061260c565b60405180910390f35b61066d600480360381019061066891906121f0565b611233565b60405161067a91906126e4565b60405180910390f35b60007f5a05180f000000000000000000000000000000000000000000000000000000007bffffffffffffffffffffffffffffffffffffffffffffffffffffffff1916827bffffffffffffffffffffffffffffffffffffffffffffffffffffffff191614806106f657506106f58261135d565b5b9050919050565b7f7b765e0e932d348852a6f810bfa1ab891e259123f02db8cdcde614c57022335781565b600060656000838152602001908152602001600020600101549050919050565b61074b82826113d7565b610770816097600085815260200190815260200160002061140090919063ffffffff16565b505050565b60006107a17f7b765e0e932d348852a6f810bfa1ab891e259123f02db8cdcde614c57022335733610d35565b6107e0576040517f08c379a00000000000000000000000000000000000000000000000000000000081526004016107d7906126a4565b60405180910390fd5b60006107eb83611233565b9050600160cc600083815260200190815260200160002060040160006101000a81548160ff0219169083151502179055506001915050919050565b6108308282611430565b61085581609760008581526020019081526020016000206114b390919063ffffffff16565b505050565b60008061086860c954610da0565b5093505050508091505090565b600060c95482141561088a5760009050610997565b600060019050600060cc600060c95481526020019081526020016000206040518060a0016040529081600082015481526020016001820154815260200160028201548152602001600382015481526020016004820160009054906101000a900460ff16151515158152505090505b8381602001511415801561090e575060cb548211155b1561098d5760cc6000826020015181526020019081526020016000206040518060a0016040529081600082015481526020016001820154815260200160028201548152602001600382015481526020016004820160009054906101000a900460ff1615151515815250509050818061098590612998565b9250506108f8565b8060000151925050505b919050565b60006109c87f7b765e0e932d348852a6f810bfa1ab891e259123f02db8cdcde614c57022335733610d35565b610a07576040517f08c379a00000000000000000000000000000000000000000000000000000000081526004016109fe906126a4565b60405180910390fd5b6000610a1283611233565b9050610a1d816114e3565b6001915050919050565b600060cb54905090565b60008060cc600060c95481526020019081526020016000206040518060a0016040529081600082015481526020016001820154815260200160028201548152602001600382015481526020016004820160009054906101000a900460ff16151515158152505090505b6000816020015114610b125760cc6000826020015181526020019081526020016000206040518060a0016040529081600082015481526020016001820154815260200160028201548152602001600382015481526020016004820160009054906101000a900460ff1615151515815250509050610a9a565b806000015191505090565b600060019054906101000a900460ff1680610b43575060008054906101000a900460ff16155b610b82576040517f08c379a0000000000000000000000000000000000000000000000000000000008152600401610b7990612684565b60405180910390fd5b60008060019054906101000a900460ff161590508015610bd2576001600060016101000a81548160ff02191690831515021790555060016000806101000a81548160ff0219169083151502179055505b600060c981905550600160ca81905550610bef6000801b33611622565b8015610c105760008060016101000a81548160ff0219169083151502179055505b50565b60c95481565b6000610c40826097600086815260200190815260200160002061165690919063ffffffff16565b905092915050565b60008060cc600060c95481526020019081526020016000206040518060a0016040529081600082015481526020016001820154815260200160028201548152602001600382015481526020016004820160009054906101000a900460ff16151515158152505090505b82816040015114610d285760cc6000826020015181526020019081526020016000206040518060a0016040529081600082015481526020016001820154815260200160028201548152602001600382015481526020016004820160009054906101000a900460ff1615151515815250509050610cb1565b8060000151915050919050565b60006065600084815260200190815260200160002060000160008373ffffffffffffffffffffffffffffffffffffffff1673ffffffffffffffffffffffffffffffffffffffff16815260200190815260200160002060009054906101000a900460ff16905092915050565b60008060008060008060cc60008881526020019081526020016000206040518060a0016040529081600082015481526020016001820154815260200160028201548152602001600382015481526020016004820160009054906101000a900460ff161515151581525050905080600001518160200151826040015183606001518460800151955095509550955095505091939590929450565b60cb5481565b6000801b81565b600080610e5283611233565b90506000610e5f82610da0565b505050915050600060cc600083815260200190815260200160002060040160009054906101000a900460ff1615610eaf57610e9982610da0565b9091929350909192509091505080915050610eb6565b6000801b90505b809350505050919050565b600060cc600060c954815260200190815260200160002060040160009054906101000a900460ff1615610f0f57610ef960c954610da0565b9091929350909192509091505080915050610f16565b6000801b90505b90565b6000610f457f7b765e0e932d348852a6f810bfa1ab891e259123f02db8cdcde614c57022335733610d35565b610f84576040517f08c379a0000000000000000000000000000000000000000000000000000000008152600401610f7b906126a4565b60405180910390fd5b610f8d8261099c565b50610f98838361118d565b506001905092915050565b6000610fc060976000848152602001908152602001600020611670565b9050919050565b60008060cc600060c95481526020019081526020016000206040518060a0016040529081600082015481526020016001820154815260200160028201548152602001600382015481526020016004820160009054906101000a900460ff16151515158152505090505b828160400151106110a75760cc6000826020015181526020019081526020016000206040518060a0016040529081600082015481526020016001820154815260200160028201548152602001600382015481526020016004820160009054906101000a900460ff1615151515815250509050611030565b8060000151915050919050565b6000806110c083611233565b905060006110cd82610da0565b50505091505060008114156110e7576000801b9250611108565b6110f081610da0565b9091929350909192509091505080935050505061110b565b50505b919050565b61111a8282611685565b61113f81609760008581526020019081526020016000206114b390919063ffffffff16565b505050565b60ca5481565b60cc6020528060005260406000206000915090508060000154908060010154908060020154908060030154908060040160009054906101000a900460ff16905085565b60006111b97f7b765e0e932d348852a6f810bfa1ab891e259123f02db8cdcde614c57022335733610d35565b6111f8576040517f08c379a00000000000000000000000000000000000000000000000000000000081526004016111ef906126a4565b60405180910390fd5b600061120384610fc7565b90506112108185856116ae565b60cb600081548092919061122390612998565b9190505550600191505092915050565b60008060cc600060c95481526020019081526020016000206040518060a0016040529081600082015481526020016001820154815260200160028201548152602001600382015481526020016004820160009054906101000a900460ff16151515158152505090506000600190505b838260600151141580156112b8575060cb548111155b156113375760cc6000836020015181526020019081526020016000206040518060a0016040529081600082015481526020016001820154815260200160028201548152602001600382015481526020016004820160009054906101000a900460ff1615151515815250509150808061132f90612998565b9150506112a2565b838260600151141561135157816000015192505050611358565b6000925050505b919050565b60007f7965db0b000000000000000000000000000000000000000000000000000000007bffffffffffffffffffffffffffffffffffffffffffffffffffffffff1916827bffffffffffffffffffffffffffffffffffffffffffffffffffffffff191614806113d057506113cf826116e6565b5b9050919050565b6113e082610721565b6113f1816113ec611750565b611758565b6113fb83836117f5565b505050565b6000611428836000018373ffffffffffffffffffffffffffffffffffffffff1660001b6118d6565b905092915050565b611438611750565b73ffffffffffffffffffffffffffffffffffffffff168173ffffffffffffffffffffffffffffffffffffffff16146114a5576040517f08c379a000000000000000000000000000000000000000000000000000000000815260040161149c906126c4565b60405180910390fd5b6114af8282611946565b5050565b60006114db836000018373ffffffffffffffffffffffffffffffffffffffff1660001b611a28565b905092915050565b600060cc60008381526020019081526020016000206040518060a0016040529081600082015481526020016001820154815260200160028201548152602001600382015481526020016004820160009054906101000a900460ff16151515158152505090508160c95414156115645761155f8160200151611bae565b611581565b600061156f83610875565b905061157f818360200151611bef565b505b60cc6000826000015181526020019081526020016000206000808201600090556001820160009055600282016000905560038201600090556004820160006101000a81549060ff0219169055505060cb60008154809291906115e29061296e565b91905055507fe1919cab237081e04a387d81704c769f832679b068e9b87b1d6a27eb5102b9568260405161161691906126e4565b60405180910390a15050565b61162c8282611c47565b611651816097600085815260200190815260200160002061140090919063ffffffff16565b505050565b60006116658360000183611c55565b60001c905092915050565b600061167e82600001611ca6565b9050919050565b61168e82610721565b61169f8161169a611750565b611758565b6116a98383611946565b505050565b60c9548314156116c7576116c28282611cb7565b6116e1565b60006116d284610875565b90506116df818484611cdf565b505b505050565b60007f01ffc9a7000000000000000000000000000000000000000000000000000000007bffffffffffffffffffffffffffffffffffffffffffffffffffffffff1916827bffffffffffffffffffffffffffffffffffffffffffffffffffffffff1916149050919050565b600033905090565b6117628282610d35565b6117f1576117878173ffffffffffffffffffffffffffffffffffffffff166014611d75565b6117958360001c6020611d75565b6040516020016117a69291906125b7565b6040516020818303038152906040526040517f08c379a00000000000000000000000000000000000000000000000000000000081526004016117e89190612642565b60405180910390fd5b5050565b6117ff8282610d35565b6118d25760016065600084815260200190815260200160002060000160008373ffffffffffffffffffffffffffffffffffffffff1673ffffffffffffffffffffffffffffffffffffffff16815260200190815260200160002060006101000a81548160ff021916908315150217905550611877611750565b73ffffffffffffffffffffffffffffffffffffffff168173ffffffffffffffffffffffffffffffffffffffff16837f2f8788117e7eff1d82e926ec794901d17c78024a50270940304540a733656f0d60405160405180910390a45b5050565b60006118e2838361206f565b61193b578260000182908060018154018082558091505060019003906000526020600020016000909190919091505582600001805490508360010160008481526020019081526020016000208190555060019050611940565b600090505b92915050565b6119508282610d35565b15611a245760006065600084815260200190815260200160002060000160008373ffffffffffffffffffffffffffffffffffffffff1673ffffffffffffffffffffffffffffffffffffffff16815260200190815260200160002060006101000a81548160ff0219169083151502179055506119c9611750565b73ffffffffffffffffffffffffffffffffffffffff168173ffffffffffffffffffffffffffffffffffffffff16837ff6391f5c32d9c69d2a47ea670b442974b53935d1edc7fd64eb21e047a839171b60405160405180910390a45b5050565b60008083600101600084815260200190815260200160002054905060008114611ba2576000600182611a5a9190612889565b9050600060018660000180549050611a729190612889565b9050818114611b2d576000866000018281548110611ab9577f4e487b7100000000000000000000000000000000000000000000000000000000600052603260045260246000fd5b9060005260206000200154905080876000018481548110611b03577f4e487b7100000000000000000000000000000000000000000000000000000000600052603260045260246000fd5b90600052602060002001819055508387600101600083815260200190815260200160002081905550505b85600001805480611b67577f4e487b7100000000000000000000000000000000000000000000000000000000600052603160045260246000fd5b600190038181906000526020600020016000905590558560010160008681526020019081526020016000206000905560019350505050611ba8565b60009150505b92915050565b8060c9819055507f58b81d35330cc08b909b14dbf5bcf7c3e769206cd0be7dd65e76e95a815439e181604051611be491906126e4565b60405180910390a150565b8060cc6000848152602001908152602001600020600101819055507fbe1f66c94cc2553f09c996e2153854d4b74a747e3c2648161fb8daa3bfe983028282604051611c3b9291906126ff565b60405180910390a15050565b611c5182826117f5565b5050565b6000826000018281548110611c93577f4e487b7100000000000000000000000000000000000000000000000000000000600052603260045260246000fd5b9060005260206000200154905092915050565b600081600001805490509050919050565b6000611cc38383612092565b9050611cd18160c954611bef565b611cda81611bae565b505050565b600060cc60008581526020019081526020016000206040518060a0016040529081600082015481526020016001820154815260200160028201548152602001600382015481526020016004820160009054906101000a900460ff16151515158152505090506000611d508484612092565b9050611d60818360200151611bef565b611d6e826000015182611bef565b5050505050565b606060006002836002611d88919061282f565b611d9291906127d9565b67ffffffffffffffff811115611dd1577f4e487b7100000000000000000000000000000000000000000000000000000000600052604160045260246000fd5b6040519080825280601f01601f191660200182016040528015611e035781602001600182028036833780820191505090505b5090507f300000000000000000000000000000000000000000000000000000000000000081600081518110611e61577f4e487b7100000000000000000000000000000000000000000000000000000000600052603260045260246000fd5b60200101907effffffffffffffffffffffffffffffffffffffffffffffffffffffffffffff1916908160001a9053507f780000000000000000000000000000000000000000000000000000000000000081600181518110611eeb577f4e487b7100000000000000000000000000000000000000000000000000000000600052603260045260246000fd5b60200101907effffffffffffffffffffffffffffffffffffffffffffffffffffffffffffff1916908160001a90535060006001846002611f2b919061282f565b611f3591906127d9565b90505b6001811115612021577f3031323334353637383961626364656600000000000000000000000000000000600f861660108110611f9d577f4e487b7100000000000000000000000000000000000000000000000000000000600052603260045260246000fd5b1a60f81b828281518110611fda577f4e487b7100000000000000000000000000000000000000000000000000000000600052603260045260246000fd5b60200101907effffffffffffffffffffffffffffffffffffffffffffffffffffffffffffff1916908160001a905350600485901c94508061201a9061296e565b9050611f38565b5060008414612065576040517f08c379a000000000000000000000000000000000000000000000000000000000815260040161205c90612664565b60405180910390fd5b8091505092915050565b600080836001016000848152602001908152602001600020541415905092915050565b60008060ca549050600160ca60008282546120ad91906127d9565b9250508190555060006040518060a00160405280838152602001600081526020018681526020018581526020016000151581525090508060cc6000836000015181526020019081526020016000206000820151816000015560208201518160010155604082015181600201556060820151816003015560808201518160040160006101000a81548160ff0219169083151502179055509050507fae3fa14712358fd14ea9daaa663953bb097578df220e6c81d698b842db789f2f81600001518260400151836060015160405161218593929190612728565b60405180910390a180600001519250505092915050565b6000813590506121ab81612a21565b92915050565b6000813590506121c081612a38565b92915050565b6000813590506121d581612a4f565b92915050565b6000813590506121ea81612a66565b92915050565b60006020828403121561220257600080fd5b6000612210848285016121b1565b91505092915050565b6000806040838503121561222c57600080fd5b600061223a858286016121b1565b925050602061224b8582860161219c565b9150509250929050565b6000806040838503121561226857600080fd5b6000612276858286016121b1565b9250506020612287858286016121db565b9150509250929050565b6000602082840312156122a357600080fd5b60006122b1848285016121c6565b91505092915050565b6000602082840312156122cc57600080fd5b60006122da848285016121db565b91505092915050565b600080604083850312156122f657600080fd5b6000612304858286016121db565b9250506020612315858286016121b1565b9150509250929050565b612328816128bd565b82525050565b612337816128cf565b82525050565b612346816128db565b82525050565b6000612357826127b2565b61236181856127bd565b935061237181856020860161293b565b61237a81612a10565b840191505092915050565b6000612390826127b2565b61239a81856127ce565b93506123aa81856020860161293b565b80840191505092915050565b60006123c36020836127bd565b91507f537472696e67733a20686578206c656e67746820696e73756666696369656e746000830152602082019050919050565b6000612403602e836127bd565b91507f496e697469616c697a61626c653a20636f6e747261637420697320616c72656160008301527f647920696e697469616c697a65640000000000000000000000000000000000006020830152604082019050919050565b60006124696017836127ce565b91507f416363657373436f6e74726f6c3a206163636f756e74200000000000000000006000830152601782019050919050565b60006124a9602f836127bd565b91507f51756575653a4973436f6e74726f6c6c6572202d2043616c6c6572206973206e60008301527f6f74206120636f6e74726f6c6c657200000000000000000000000000000000006020830152604082019050919050565b600061250f6011836127ce565b91507f206973206d697373696e6720726f6c65200000000000000000000000000000006000830152601182019050919050565b600061254f602f836127bd565b91507f416363657373436f6e74726f6c3a2063616e206f6e6c792072656e6f756e636560008301527f20726f6c657320666f722073656c6600000000000000000000000000000000006020830152604082019050919050565b6125b181612931565b82525050565b60006125c28261245c565b91506125ce8285612385565b91506125d982612502565b91506125e58284612385565b91508190509392505050565b6000602082019050612606600083018461231f565b92915050565b6000602082019050612621600083018461232e565b92915050565b600060208201905061263c600083018461233d565b92915050565b6000602082019050818103600083015261265c818461234c565b905092915050565b6000602082019050818103600083015261267d816123b6565b9050919050565b6000602082019050818103600083015261269d816123f6565b9050919050565b600060208201905081810360008301526126bd8161249c565b9050919050565b600060208201905081810360008301526126dd81612542565b9050919050565b60006020820190506126f960008301846125a8565b92915050565b600060408201905061271460008301856125a8565b61272160208301846125a8565b9392505050565b600060608201905061273d60008301866125a8565b61274a60208301856125a8565b612757604083018461233d565b949350505050565b600060a08201905061277460008301886125a8565b61278160208301876125a8565b61278e60408301866125a8565b61279b606083018561233d565b6127a8608083018461232e565b9695505050505050565b600081519050919050565b600082825260208201905092915050565b600081905092915050565b60006127e482612931565b91506127ef83612931565b9250827fffffffffffffffffffffffffffffffffffffffffffffffffffffffffffffffff03821115612824576128236129e1565b5b828201905092915050565b600061283a82612931565b915061284583612931565b9250817fffffffffffffffffffffffffffffffffffffffffffffffffffffffffffffffff048311821515161561287e5761287d6129e1565b5b828202905092915050565b600061289482612931565b915061289f83612931565b9250828210156128b2576128b16129e1565b5b828203905092915050565b60006128c882612911565b9050919050565b60008115159050919050565b6000819050919050565b60007fffffffff0000000000000000000000000000000000000000000000000000000082169050919050565b600073ffffffffffffffffffffffffffffffffffffffff82169050919050565b6000819050919050565b60005b8381101561295957808201518184015260208101905061293e565b83811115612968576000848401525b50505050565b600061297982612931565b9150600082141561298d5761298c6129e1565b5b600182039050919050565b60006129a382612931565b91507fffffffffffffffffffffffffffffffffffffffffffffffffffffffffffffffff8214156129d6576129d56129e1565b5b600182019050919050565b7f4e487b7100000000000000000000000000000000000000000000000000000000600052601160045260246000fd5b6000601f19601f8301169050919050565b612a2a816128bd565b8114612a3557600080fd5b50565b612a41816128db565b8114612a4c57600080fd5b50565b612a58816128e5565b8114612a6357600080fd5b50565b612a6f81612931565b8114612a7a57600080fd5b5056fea2646970667358221220d264ec076929da2894b56238257b9b9f522c391c08115ba4a0f41848b13ef96e64736f6c63430008000033",
  "immutableReferences": {},
  "source": "pragma solidity =0.8.0;\n// SPDX-License-Identifier: MIT\n\n// import \"@openzeppelin/contracts/access/AccessControl.sol\";\nimport \"@openzeppelin/contracts-upgradeable/access/AccessControlEnumerableUpgradeable.sol\";\n\n\n\n/**\n * @title LinkedList\n * @dev Data structure\n * @author Alberto Cuesta Caada\n */\ncontract Queue is AccessControlEnumerableUpgradeable{\n\n    event ObjectCreated(uint256 id, uint256 price, bytes32 validationHash);\n    event ObjectsLinked(uint256 prev, uint256 next);\n    event ObjectRemoved(uint256 id);\n    event NewHead(uint256 id);\n\n    struct Object{\n        uint256 id;\n        uint256 next;\n        uint256 price;\n        bytes32 validationHash;\n        bool executed;\n    }\n\n    uint256 public head;\n    uint256 public idCounter;\n    uint256 public queueCount;\n    mapping (uint256 => Object) public objects;\n\n    /**\n     * @dev Creates an empty list.\n     */\n    // constructor() {\n    //     head = 0;\n    //     idCounter = 1;\n    //     _setupRole(DEFAULT_ADMIN_ROLE, msg.sender);\n    // }\n\n    bytes32 public constant CONTROLLER_ROLE = keccak256(\"CONTROLLER_ROLE\");\n\n    function initialize() initializer external {\n\n        head = 0;\n        idCounter = 1;\n        _setupRole(DEFAULT_ADMIN_ROLE, msg.sender);\n    }\n\n\n\n    /// @dev check if caller is a controller     \n    modifier isController {\n        require(hasRole(CONTROLLER_ROLE, msg.sender), \"Queue:IsController - Caller is not a controller\");\n\n        _;\n    }\n\n\n    /**\n     * @dev Retrieves the Object denoted by `_id`.\n     */\n    function get(uint256 _id)\n        public\n        virtual\n        view\n        returns (uint256 id, uint256 next, uint256 price, bytes32 validationHash, bool executed)\n    {\n        Object memory object = objects[_id];\n        return (object.id, object.next, object.price, object.validationHash, object.executed);\n    }\n\n    /**\n     * @dev Given an Object, denoted by `_id`, returns the id of the Object that points to it, or 0 if `_id` refers to the Head.\n     */\n    function findPrevId(uint256 _id)\n        public\n        virtual\n        view\n        returns (uint256)\n    {\n        if (_id == head) return 0;\n        uint256 count=1;\n        Object memory prevObject = objects[head];\n        while (prevObject.next != _id && count <= queueCount) {\n            prevObject = objects[prevObject.next];\n            count++;\n        }\n        return prevObject.id;\n    }\n\n    /**\n     * @dev Returns the id for the Tail.\n     */\n    function findTailId()\n        public\n        virtual\n        view\n        returns (uint256)\n    {\n        Object memory oldTailObject = objects[head];\n        while (oldTailObject.next != 0) {\n            oldTailObject = objects[oldTailObject.next];    \n        }\n        return oldTailObject.id;\n    }\n\n    /**\n     * @dev Return the id of the first Object matching `_price` in the data field.\n     */\n    function findIdForData(uint256 _price)\n        external\n        virtual\n        view\n        returns (uint256)\n    {\n        Object memory object = objects[head];\n        while (object.price != _price) {\n            object = objects[object.next];\n        }\n        return object.id;\n    }\n\n    function findIdForValidationHash(bytes32 _validationHash)public view returns (uint256) {\n        Object memory object = objects[head];\n        uint256 count=1;\n\n            while (object.validationHash != _validationHash && count <= queueCount) {\n                object = objects[object.next];\n                count++;\n            }\n\n            if (object.validationHash == _validationHash)\n                return object.id;\n            else \n                return 0;\n    }\n\n    /**\n     * @dev Return the id of the first Object matching `_price` in the data field.\n     */\n    function findIdForLesserPrice(uint256 _price)\n        public\n        virtual\n        view\n        returns (uint256)\n    {\n        Object memory object = objects[head];\n        while (object.price >= _price) {\n            object = objects[object.next];\n        }\n        return object.id;\n    }\n\n    /**\n     * @dev Insert a new Object as the new Head with `_price` in the data field.\n     */\n    function addHead(uint256 _price, bytes32 _validationHash)\n        internal\n        virtual\n    {\n        uint256 objectId = _createObject(_price, _validationHash);\n        _link(objectId, head);\n        _setHead(objectId);\n    }\n\n    /**\n     * @dev Insert a new Object as the new Tail with `_price` in the data field.\n     */\n    function addTail(uint256 _price, bytes32 _validationHash)\n        internal\n        virtual\n    {\n        if (head == 0) {\n            addHead(_price, _validationHash);\n        }\n        else {\n            uint256 oldTailId = findTailId();\n            uint256 newTailId = _createObject(_price, _validationHash);\n            _link(oldTailId, newTailId);\n        }\n    }\n\n    /**\n     * @dev Remove the Object denoted by `_id` from the List.\n     */\n    function remove(uint256 _id)\n        internal\n        virtual\n    {\n        Object memory removeObject = objects[_id];\n        if (head == _id) {\n            _setHead(removeObject.next);\n        }\n        else {\n            uint256 prevObjectId = findPrevId(_id);\n            _link(prevObjectId, removeObject.next);\n        }\n        delete objects[removeObject.id];\n        queueCount--;\n        emit ObjectRemoved(_id);\n    }\n\n    /**\n     * @dev Insert a new Object after the Object denoted by `_id` with `_price` in the data field.\n     */\n    function insertAfter(uint256 _prevId, uint256 _price, bytes32 validationHash)\n        internal\n        virtual\n    {\n        Object memory prevObject = objects[_prevId];\n        uint256 newObjectId = _createObject(_price, validationHash);\n        _link(newObjectId, prevObject.next);\n        _link(prevObject.id, newObjectId);\n    }\n\n    /**\n     * @dev Insert a new Object before the Object denoted by `_id` with `_price` in the data field.\n     */\n    function insertBefore(uint256 _nextId, uint256 _price, bytes32 validatioHash)\n        internal\n        virtual\n    {\n        if (_nextId == head) {\n            addHead(_price, validatioHash);\n        }\n        else {\n            uint256 prevId = findPrevId(_nextId);\n            insertAfter(prevId, _price, validatioHash);\n        }\n    }\n\n    /**\n     * @dev Internal function to update the Head pointer.\n     */\n    function _setHead(uint256 _id)\n        internal\n    {\n        head = _id;\n        emit NewHead(_id);\n    }\n\n    /**\n     * @dev Internal function to create an unlinked Object.\n     */\n    function _createObject(uint256 _price, bytes32 _validationHash)\n        internal\n        returns (uint256)\n    {\n        uint256 newId = idCounter;\n        idCounter += 1;\n        \n        Object memory object = Object(newId, 0, _price, _validationHash, false);\n        objects[object.id] = object;\n        emit ObjectCreated(\n            object.id,\n            object.price,\n            object.validationHash\n        );\n        return object.id;\n    }\n\n    /**\n     * @dev Internal function to link an Object to another.\n     */\n    function _link(uint256 _prevId, uint256 _nextId)\n        internal\n    {\n        objects[_prevId].next = _nextId;\n        emit ObjectsLinked(_prevId, _nextId);\n    }\n\n\n    function addToQueue(uint256 _price, bytes32 _validationHash) public isController() returns(bool){\n        \n\n       uint256 id = findIdForLesserPrice(_price);\n       insertBefore(id, _price, _validationHash);\n       queueCount++;\n       return true;\n\n    }\n\n\n    function getValidationToVote(bytes32 _lastValidationHash) external view returns (bytes32) {\n\n        uint256 id = findIdForValidationHash(_lastValidationHash);\n        (,uint256 prevId,,,) = get(id);\n\n        bytes32 validationHash;\n\n            if (objects[prevId].executed){\n                (,,,validationHash,) =   get(prevId);\n            } else\n                validationHash =  0x0;\n\n        \n        return validationHash;\n    }\n\n\n    function getNextValidationToVote() external view returns(bytes32 validationHash) {\n\n        if (objects[head].executed){\n                (,,,validationHash,) =   get(head);\n            } else\n                validationHash =  0x0;\n        return validationHash;\n    }\n\n    function getValidationToProcess(bytes32 _lastValidationHash) external view returns(bytes32 validationHash) {\n\n\n        uint256 id = findIdForValidationHash(_lastValidationHash);\n        (,uint256 prevId,,,) = get(id);\n\n        if (prevId == 0)\n            validationHash = 0x0;\n        else{\n            (,,,validationHash,) =   get(prevId);\n            return validationHash;\n        }\n    }\n\n    function getNextValidation() external view returns(bytes32) {\n\n        (,,,bytes32 validationHash,) = get(head);\n        return validationHash;\n    }\n\n\n\n    function removeFromQueue(bytes32 _valHash) public isController() returns (bool){\n        uint256 id = findIdForValidationHash(_valHash);\n        remove(id);\n        return true;\n       \n    }\n\n    function setValidatedFlag(bytes32 _valHash) external isController() returns (bool) {\n\n        uint256 id = findIdForValidationHash(_valHash);\n        objects[id].executed = true;\n        return true;\n    }\n\n    function returnQueueSize() external view returns(uint256) {\n        return queueCount;\n    }\n\n    function replaceValidation(uint256 newPrice, bytes32 _valHash) external isController() returns (bool){\n        removeFromQueue(_valHash);\n        addToQueue(newPrice, _valHash); \n        return true;\n    }\n\n\n}",
  "sourcePath": "/home/win2win/eth/projects/AuditChain/Core-Smart-Contracts-v1-upgradable/contracts/Auditchain/Queue.sol",
  "compiler": {
    "name": "solc",
    "version": "0.8.0+commit.c7dfd78e.Emscripten.clang"
  },
  "schemaVersion": "3.4.1",
  "updatedAt": "2022-05-18T17:13:45.601Z",
  "devdoc": {
    "author": "Alberto Cuesta Caada",
    "details": "Data structure",
    "kind": "dev",
    "methods": {
      "findIdForData(uint256)": {
        "details": "Return the id of the first Object matching `_price` in the data field."
      },
      "findIdForLesserPrice(uint256)": {
        "details": "Return the id of the first Object matching `_price` in the data field."
      },
      "findPrevId(uint256)": {
        "details": "Given an Object, denoted by `_id`, returns the id of the Object that points to it, or 0 if `_id` refers to the Head."
      },
      "findTailId()": {
        "details": "Returns the id for the Tail."
      },
      "get(uint256)": {
        "details": "Retrieves the Object denoted by `_id`."
      },
      "getRoleAdmin(bytes32)": {
        "details": "Returns the admin role that controls `role`. See {grantRole} and {revokeRole}. To change a role's admin, use {_setRoleAdmin}."
      },
      "getRoleMember(bytes32,uint256)": {
        "details": "Returns one of the accounts that have `role`. `index` must be a value between 0 and {getRoleMemberCount}, non-inclusive. Role bearers are not sorted in any particular way, and their ordering may change at any point. WARNING: When using {getRoleMember} and {getRoleMemberCount}, make sure you perform all queries on the same block. See the following https://forum.openzeppelin.com/t/iterating-over-elements-on-enumerableset-in-openzeppelin-contracts/2296[forum post] for more information."
      },
      "getRoleMemberCount(bytes32)": {
        "details": "Returns the number of accounts that have `role`. Can be used together with {getRoleMember} to enumerate all bearers of a role."
      },
      "grantRole(bytes32,address)": {
        "details": "Overload {grantRole} to track enumerable memberships"
      },
      "hasRole(bytes32,address)": {
        "details": "Returns `true` if `account` has been granted `role`."
      },
      "renounceRole(bytes32,address)": {
        "details": "Overload {renounceRole} to track enumerable memberships"
      },
      "revokeRole(bytes32,address)": {
        "details": "Overload {revokeRole} to track enumerable memberships"
      },
      "supportsInterface(bytes4)": {
        "details": "See {IERC165-supportsInterface}."
      }
    },
    "stateVariables": {
      "CONTROLLER_ROLE": {
        "details": "Creates an empty list."
      }
    },
    "title": "LinkedList",
    "version": 1
  },
  "userdoc": {
    "kind": "user",
    "methods": {},
    "version": 1
  }
}