{
  "contractName": "RulesERC721Token",
  "abi": [
    {
      "anonymous": false,
      "inputs": [
        {
          "indexed": true,
          "internalType": "address",
          "name": "owner",
          "type": "address"
        },
        {
          "indexed": true,
          "internalType": "address",
          "name": "approved",
          "type": "address"
        },
        {
          "indexed": true,
          "internalType": "uint256",
          "name": "tokenId",
          "type": "uint256"
        }
      ],
      "name": "Approval",
      "type": "event"
    },
    {
      "anonymous": false,
      "inputs": [
        {
          "indexed": true,
          "internalType": "address",
          "name": "owner",
          "type": "address"
        },
        {
          "indexed": true,
          "internalType": "address",
          "name": "operator",
          "type": "address"
        },
        {
          "indexed": false,
          "internalType": "bool",
          "name": "approved",
          "type": "bool"
        }
      ],
      "name": "ApprovalForAll",
      "type": "event"
    },
    {
      "anonymous": false,
      "inputs": [
        {
          "indexed": false,
          "internalType": "uint256",
          "name": "tokenId",
          "type": "uint256"
        },
        {
          "indexed": false,
          "internalType": "address",
          "name": "recipient",
          "type": "address"
        }
      ],
      "name": "Mint",
      "type": "event"
    },
    {
      "anonymous": false,
      "inputs": [
        {
          "indexed": true,
          "internalType": "address",
          "name": "from",
          "type": "address"
        },
        {
          "indexed": true,
          "internalType": "address",
          "name": "to",
          "type": "address"
        },
        {
          "indexed": true,
          "internalType": "uint256",
          "name": "tokenId",
          "type": "uint256"
        }
      ],
      "name": "Transfer",
      "type": "event"
    },
    {
      "inputs": [
        {
          "internalType": "bytes32",
          "name": "",
          "type": "bytes32"
        }
      ],
      "name": "NFTCompleted",
      "outputs": [
        {
          "internalType": "bool",
          "name": "",
          "type": "bool"
        }
      ],
      "stateMutability": "view",
      "type": "function"
    },
    {
      "inputs": [
        {
          "internalType": "address",
          "name": "to",
          "type": "address"
        },
        {
          "internalType": "uint256",
          "name": "tokenId",
          "type": "uint256"
        }
      ],
      "name": "approve",
      "outputs": [],
      "stateMutability": "nonpayable",
      "type": "function"
    },
    {
      "inputs": [
        {
          "internalType": "address",
          "name": "owner",
          "type": "address"
        }
      ],
      "name": "balanceOf",
      "outputs": [
        {
          "internalType": "uint256",
          "name": "",
          "type": "uint256"
        }
      ],
      "stateMutability": "view",
      "type": "function"
    },
    {
      "inputs": [
        {
          "internalType": "uint256",
          "name": "tokenId",
          "type": "uint256"
        }
      ],
      "name": "getApproved",
      "outputs": [
        {
          "internalType": "address",
          "name": "",
          "type": "address"
        }
      ],
      "stateMutability": "view",
      "type": "function"
    },
    {
      "inputs": [
        {
          "internalType": "address",
          "name": "owner",
          "type": "address"
        },
        {
          "internalType": "address",
          "name": "operator",
          "type": "address"
        }
      ],
      "name": "isApprovedForAll",
      "outputs": [
        {
          "internalType": "bool",
          "name": "",
          "type": "bool"
        }
      ],
      "stateMutability": "view",
      "type": "function"
    },
    {
      "inputs": [],
      "name": "name",
      "outputs": [
        {
          "internalType": "string",
          "name": "",
          "type": "string"
        }
      ],
      "stateMutability": "view",
      "type": "function"
    },
    {
      "inputs": [
        {
          "internalType": "uint256",
          "name": "tokenId",
          "type": "uint256"
        }
      ],
      "name": "ownerOf",
      "outputs": [
        {
          "internalType": "address",
          "name": "",
          "type": "address"
        }
      ],
      "stateMutability": "view",
      "type": "function"
    },
    {
      "inputs": [
        {
          "internalType": "address",
          "name": "from",
          "type": "address"
        },
        {
          "internalType": "address",
          "name": "to",
          "type": "address"
        },
        {
          "internalType": "uint256",
          "name": "tokenId",
          "type": "uint256"
        }
      ],
      "name": "safeTransferFrom",
      "outputs": [],
      "stateMutability": "nonpayable",
      "type": "function"
    },
    {
      "inputs": [
        {
          "internalType": "address",
          "name": "from",
          "type": "address"
        },
        {
          "internalType": "address",
          "name": "to",
          "type": "address"
        },
        {
          "internalType": "uint256",
          "name": "tokenId",
          "type": "uint256"
        },
        {
          "internalType": "bytes",
          "name": "_data",
          "type": "bytes"
        }
      ],
      "name": "safeTransferFrom",
      "outputs": [],
      "stateMutability": "nonpayable",
      "type": "function"
    },
    {
      "inputs": [
        {
          "internalType": "address",
          "name": "operator",
          "type": "address"
        },
        {
          "internalType": "bool",
          "name": "approved",
          "type": "bool"
        }
      ],
      "name": "setApprovalForAll",
      "outputs": [],
      "stateMutability": "nonpayable",
      "type": "function"
    },
    {
      "inputs": [],
      "name": "symbol",
      "outputs": [
        {
          "internalType": "string",
          "name": "",
          "type": "string"
        }
      ],
      "stateMutability": "view",
      "type": "function"
    },
    {
      "inputs": [
        {
          "internalType": "uint256",
          "name": "index",
          "type": "uint256"
        }
      ],
      "name": "tokenByIndex",
      "outputs": [
        {
          "internalType": "uint256",
          "name": "",
          "type": "uint256"
        }
      ],
      "stateMutability": "view",
      "type": "function"
    },
    {
      "inputs": [
        {
          "internalType": "address",
          "name": "owner",
          "type": "address"
        },
        {
          "internalType": "uint256",
          "name": "index",
          "type": "uint256"
        }
      ],
      "name": "tokenOfOwnerByIndex",
      "outputs": [
        {
          "internalType": "uint256",
          "name": "",
          "type": "uint256"
        }
      ],
      "stateMutability": "view",
      "type": "function"
    },
    {
      "inputs": [],
      "name": "totalSupply",
      "outputs": [
        {
          "internalType": "uint256",
          "name": "",
          "type": "uint256"
        }
      ],
      "stateMutability": "view",
      "type": "function"
    },
    {
      "inputs": [
        {
          "internalType": "address",
          "name": "from",
          "type": "address"
        },
        {
          "internalType": "address",
          "name": "to",
          "type": "address"
        },
        {
          "internalType": "uint256",
          "name": "tokenId",
          "type": "uint256"
        }
      ],
      "name": "transferFrom",
      "outputs": [],
      "stateMutability": "nonpayable",
      "type": "function"
    },
    {
      "inputs": [],
      "name": "validation",
      "outputs": [
        {
          "internalType": "contract ValidationsNoCohort",
          "name": "",
          "type": "address"
        }
      ],
      "stateMutability": "view",
      "type": "function"
    },
    {
      "inputs": [
        {
          "internalType": "string",
          "name": "_name",
          "type": "string"
        },
        {
          "internalType": "string",
          "name": "_symbol",
          "type": "string"
        },
        {
          "internalType": "address",
          "name": "_validation",
          "type": "address"
        }
      ],
      "name": "initialize",
      "outputs": [],
      "stateMutability": "nonpayable",
      "type": "function"
    },
    {
      "inputs": [
        {
          "internalType": "uint256",
          "name": "tokenId",
          "type": "uint256"
        }
      ],
      "name": "tokenURI",
      "outputs": [
        {
          "internalType": "string",
          "name": "",
          "type": "string"
        }
      ],
      "stateMutability": "view",
      "type": "function"
    },
    {
      "inputs": [
        {
          "internalType": "bytes4",
          "name": "interfaceId",
          "type": "bytes4"
        }
      ],
      "name": "supportsInterface",
      "outputs": [
        {
          "internalType": "bool",
          "name": "",
          "type": "bool"
        }
      ],
      "stateMutability": "view",
      "type": "function"
    },
    {
      "inputs": [
        {
          "internalType": "bytes32",
          "name": "_hash",
          "type": "bytes32"
        }
      ],
      "name": "mintTo",
      "outputs": [
        {
          "internalType": "uint256",
          "name": "",
          "type": "uint256"
        }
      ],
      "stateMutability": "nonpayable",
      "type": "function"
    },
    {
      "inputs": [
        {
          "internalType": "address",
          "name": "user",
          "type": "address"
        },
        {
          "internalType": "string",
          "name": "url",
          "type": "string"
        }
      ],
      "name": "mintToPure",
      "outputs": [
        {
          "internalType": "uint256",
          "name": "",
          "type": "uint256"
        }
      ],
      "stateMutability": "nonpayable",
      "type": "function"
    }
  ],
  "bytecode": "0x608060405234801561001057600080fd5b5061410b806100206000396000f3fe608060405234801561001057600080fd5b50600436106101375760003560e01c80636352211e116100b8578063a22cb4651161007c578063a22cb46514610386578063ae4b37e4146103a2578063b88d4fde146103c0578063c87b56dd146103dc578063e985e9c51461040c578063f5622dda1461043c57610137565b80636352211e146102a857806365b0bce0146102d857806370a0823114610308578063923326461461033857806395d89b411461036857610137565b806318160ddd116100ff57806318160ddd146101f257806323b872dd146102105780632f745c591461022c57806342842e0e1461025c5780634f6ccce71461027857610137565b806301ffc9a71461013c57806306fdde031461016c578063077f224a1461018a578063081812fc146101a6578063095ea7b3146101d6575b600080fd5b61015660048036038101906101519190612d63565b61046c565b60405161016391906138b4565b60405180910390f35b61017461047e565b6040516101819190613905565b60405180910390f35b6101a4600480360381019061019f9190612db5565b610510565b005b6101c060048036038101906101bb9190612e34565b610560565b6040516101cd919061384d565b60405180910390f35b6101f060048036038101906101eb9190612c0b565b6105e5565b005b6101fa6106fd565b6040516102079190613c07565b60405180910390f35b61022a60048036038101906102259190612ab1565b61070a565b005b61024660048036038101906102419190612c0b565b61076a565b6040516102539190613c07565b60405180910390f35b61027660048036038101906102719190612ab1565b61080f565b005b610292600480360381019061028d9190612e34565b61082f565b60405161029f9190613c07565b60405180910390f35b6102c260048036038101906102bd9190612e34565b6108c6565b6040516102cf919061384d565b60405180910390f35b6102f260048036038101906102ed9190612bb7565b610978565b6040516102ff9190613c07565b60405180910390f35b610322600480360381019061031d9190612a4c565b6109a3565b60405161032f9190613c07565b60405180910390f35b610352600480360381019061034d9190612d3a565b610a5b565b60405161035f9190613c07565b60405180910390f35b610370610d0a565b60405161037d9190613905565b60405180910390f35b6103a0600480360381019061039b9190612b7b565b610d9c565b005b6103aa610f1d565b6040516103b791906138ea565b60405180910390f35b6103da60048036038101906103d59190612b00565b610f43565b005b6103f660048036038101906103f19190612e34565b610fa5565b6040516104039190613905565b60405180910390f35b61042660048036038101906104219190612a75565b610fb7565b60405161043391906138b4565b60405180910390f35b61045660048036038101906104519190612d3a565b61104b565b60405161046391906138b4565b60405180910390f35b60006104778261106b565b9050919050565b60606065805461048d90613ed2565b80601f01602080910402602001604051908101604052809291908181526020018280546104b990613ed2565b80156105065780601f106104db57610100808354040283529160200191610506565b820191906000526020600020905b8154815290600101906020018083116104e957829003601f168201915b5050505050905090565b61051a83836110e5565b8060fb60006101000a81548173ffffffffffffffffffffffffffffffffffffffff021916908373ffffffffffffffffffffffffffffffffffffffff160217905550505050565b600061056b826111da565b6105aa576040517f08c379a00000000000000000000000000000000000000000000000000000000081526004016105a190613ae7565b60405180910390fd5b6069600083815260200190815260200160002060009054906101000a900473ffffffffffffffffffffffffffffffffffffffff169050919050565b60006105f0826108c6565b90508073ffffffffffffffffffffffffffffffffffffffff168373ffffffffffffffffffffffffffffffffffffffff161415610661576040517f08c379a000000000000000000000000000000000000000000000000000000000815260040161065890613b47565b60405180910390fd5b8073ffffffffffffffffffffffffffffffffffffffff16610680611246565b73ffffffffffffffffffffffffffffffffffffffff1614806106af57506106ae816106a9611246565b610fb7565b5b6106ee576040517f08c379a00000000000000000000000000000000000000000000000000000000081526004016106e590613a07565b60405180910390fd5b6106f8838361124e565b505050565b600060cb80549050905090565b61071b610715611246565b82611307565b61075a576040517f08c379a000000000000000000000000000000000000000000000000000000000815260040161075190613b67565b60405180910390fd5b6107658383836113e5565b505050565b6000610775836109a3565b82106107b6576040517f08c379a00000000000000000000000000000000000000000000000000000000081526004016107ad90613927565b60405180910390fd5b60c960008473ffffffffffffffffffffffffffffffffffffffff1673ffffffffffffffffffffffffffffffffffffffff168152602001908152602001600020600083815260200190815260200160002054905092915050565b61082a83838360405180602001604052806000815250610f43565b505050565b60006108396106fd565b821061087a576040517f08c379a000000000000000000000000000000000000000000000000000000000815260040161087190613b87565b60405180910390fd5b60cb82815481106108b4577f4e487b7100000000000000000000000000000000000000000000000000000000600052603260045260246000fd5b90600052602060002001549050919050565b6000806067600084815260200190815260200160002060009054906101000a900473ffffffffffffffffffffffffffffffffffffffff169050600073ffffffffffffffffffffffffffffffffffffffff168173ffffffffffffffffffffffffffffffffffffffff16141561096f576040517f08c379a000000000000000000000000000000000000000000000000000000000815260040161096690613a47565b60405180910390fd5b80915050919050565b600080610983611641565b905061098f8482611663565b6109998184611681565b8091505092915050565b60008073ffffffffffffffffffffffffffffffffffffffff168273ffffffffffffffffffffffffffffffffffffffff161415610a14576040517f08c379a0000000000000000000000000000000000000000000000000000000008152600401610a0b90613a27565b60405180910390fd5b606860008373ffffffffffffffffffffffffffffffffffffffff1673ffffffffffffffffffffffffffffffffffffffff168152602001908152602001600020549050919050565b600080600080600060fb60009054906101000a900473ffffffffffffffffffffffffffffffffffffffff1673ffffffffffffffffffffffffffffffffffffffff166356756cd7876040518263ffffffff1660e01b8152600401610abe91906138cf565b60006040518083038186803b158015610ad657600080fd5b505afa158015610aea573d6000803e3d6000fd5b505050506040513d6000823e3d601f19601f82011682018060405250810190610b139190612c47565b5050505095509550955050945050600073ffffffffffffffffffffffffffffffffffffffff168473ffffffffffffffffffffffffffffffffffffffff161415610b91576040517f08c379a0000000000000000000000000000000000000000000000000000000008152600401610b8890613be7565b60405180910390fd5b60008311610bd4576040517f08c379a0000000000000000000000000000000000000000000000000000000008152600401610bcb90613ba7565b60405180910390fd5b60018114610c17576040517f08c379a0000000000000000000000000000000000000000000000000000000008152600401610c0e90613bc7565b60405180910390fd5b60fc600087815260200190815260200160002060009054906101000a900460ff1615610c78576040517f08c379a0000000000000000000000000000000000000000000000000000000008152600401610c6f906139c7565b60405180910390fd5b6000610c82611641565b9050600160fc600089815260200190815260200160002060006101000a81548160ff021916908315150217905550610cba8582611663565b610cc48184611681565b7ff3cea5493d790af0133817606f7350a91d7f154ea52eaa79d179d4d231e501028186604051610cf5929190613c22565b60405180910390a18095505050505050919050565b606060668054610d1990613ed2565b80601f0160208091040260200160405190810160405280929190818152602001828054610d4590613ed2565b8015610d925780601f10610d6757610100808354040283529160200191610d92565b820191906000526020600020905b815481529060010190602001808311610d7557829003601f168201915b5050505050905090565b610da4611246565b73ffffffffffffffffffffffffffffffffffffffff168273ffffffffffffffffffffffffffffffffffffffff161415610e12576040517f08c379a0000000000000000000000000000000000000000000000000000000008152600401610e09906139a7565b60405180910390fd5b80606a6000610e1f611246565b73ffffffffffffffffffffffffffffffffffffffff1673ffffffffffffffffffffffffffffffffffffffff16815260200190815260200160002060008473ffffffffffffffffffffffffffffffffffffffff1673ffffffffffffffffffffffffffffffffffffffff16815260200190815260200160002060006101000a81548160ff0219169083151502179055508173ffffffffffffffffffffffffffffffffffffffff16610ecc611246565b73ffffffffffffffffffffffffffffffffffffffff167f17307eab39ab6107e8899845ad3d59bd9653f200f220920489ca2b5937696c3183604051610f1191906138b4565b60405180910390a35050565b60fb60009054906101000a900473ffffffffffffffffffffffffffffffffffffffff1681565b610f54610f4e611246565b83611307565b610f93576040517f08c379a0000000000000000000000000000000000000000000000000000000008152600401610f8a90613b67565b60405180910390fd5b610f9f848484846116f5565b50505050565b6060610fb082611751565b9050919050565b6000606a60008473ffffffffffffffffffffffffffffffffffffffff1673ffffffffffffffffffffffffffffffffffffffff16815260200190815260200160002060008373ffffffffffffffffffffffffffffffffffffffff1673ffffffffffffffffffffffffffffffffffffffff16815260200190815260200160002060009054906101000a900460ff16905092915050565b60fc6020528060005260406000206000915054906101000a900460ff1681565b60007f780e9d63000000000000000000000000000000000000000000000000000000007bffffffffffffffffffffffffffffffffffffffffffffffffffffffff1916827bffffffffffffffffffffffffffffffffffffffffffffffffffffffff191614806110de57506110dd826118a3565b5b9050919050565b600060019054906101000a900460ff168061110b575060008054906101000a900460ff16155b61114a576040517f08c379a000000000000000000000000000000000000000000000000000000000815260040161114190613a87565b60405180910390fd5b60008060019054906101000a900460ff16159050801561119a576001600060016101000a81548160ff02191690831515021790555060016000806101000a81548160ff0219169083151502179055505b6111a2611985565b6111aa611a5e565b6111b48383611b37565b80156111d55760008060016101000a81548160ff0219169083151502179055505b505050565b60008073ffffffffffffffffffffffffffffffffffffffff166067600084815260200190815260200160002060009054906101000a900473ffffffffffffffffffffffffffffffffffffffff1673ffffffffffffffffffffffffffffffffffffffff1614159050919050565b600033905090565b816069600083815260200190815260200160002060006101000a81548173ffffffffffffffffffffffffffffffffffffffff021916908373ffffffffffffffffffffffffffffffffffffffff160217905550808273ffffffffffffffffffffffffffffffffffffffff166112c1836108c6565b73ffffffffffffffffffffffffffffffffffffffff167f8c5be1e5ebec7d5bd14f71427d1e84f3dd0314c0f7b2291e5b200ac8c7c3b92560405160405180910390a45050565b6000611312826111da565b611351576040517f08c379a0000000000000000000000000000000000000000000000000000000008152600401611348906139e7565b60405180910390fd5b600061135c836108c6565b90508073ffffffffffffffffffffffffffffffffffffffff168473ffffffffffffffffffffffffffffffffffffffff1614806113cb57508373ffffffffffffffffffffffffffffffffffffffff166113b384610560565b73ffffffffffffffffffffffffffffffffffffffff16145b806113dc57506113db8185610fb7565b5b91505092915050565b8273ffffffffffffffffffffffffffffffffffffffff16611405826108c6565b73ffffffffffffffffffffffffffffffffffffffff161461145b576040517f08c379a000000000000000000000000000000000000000000000000000000000815260040161145290613b07565b60405180910390fd5b600073ffffffffffffffffffffffffffffffffffffffff168273ffffffffffffffffffffffffffffffffffffffff1614156114cb576040517f08c379a00000000000000000000000000000000000000000000000000000000081526004016114c290613987565b60405180910390fd5b6114d6838383611c40565b6114e160008261124e565b6001606860008573ffffffffffffffffffffffffffffffffffffffff1673ffffffffffffffffffffffffffffffffffffffff16815260200190815260200160002060008282546115319190613da6565b925050819055506001606860008473ffffffffffffffffffffffffffffffffffffffff1673ffffffffffffffffffffffffffffffffffffffff16815260200190815260200160002060008282546115889190613d1f565b92505081905550816067600083815260200190815260200160002060006101000a81548173ffffffffffffffffffffffffffffffffffffffff021916908373ffffffffffffffffffffffffffffffffffffffff160217905550808273ffffffffffffffffffffffffffffffffffffffff168473ffffffffffffffffffffffffffffffffffffffff167fddf252ad1be2c89b69c2b068fc378daa952ba7f163c4a11628f55a4df523b3ef60405160405180910390a4505050565b600061165e60016116506106fd565b611c5090919063ffffffff16565b905090565b61167d828260405180602001604052806000815250611c66565b5050565b61168a826111da565b6116c9576040517f08c379a00000000000000000000000000000000000000000000000000000000081526004016116c090613a67565b60405180910390fd5b806097600084815260200190815260200160002090805190602001906116f092919061279f565b505050565b6117008484846113e5565b61170c84848484611cc1565b61174b576040517f08c379a000000000000000000000000000000000000000000000000000000000815260040161174290613947565b60405180910390fd5b50505050565b606061175c826111da565b61179b576040517f08c379a000000000000000000000000000000000000000000000000000000000815260040161179290613ac7565b60405180910390fd5b60006097600084815260200190815260200160002080546117bb90613ed2565b80601f01602080910402602001604051908101604052809291908181526020018280546117e790613ed2565b80156118345780601f1061180957610100808354040283529160200191611834565b820191906000526020600020905b81548152906001019060200180831161181757829003601f168201915b505050505090506000611845611e58565b905060008151141561185b57819250505061189e565b600082511115611890578082604051602001611878929190613829565b6040516020818303038152906040529250505061189e565b61189984611e6f565b925050505b919050565b60007f80ac58cd000000000000000000000000000000000000000000000000000000007bffffffffffffffffffffffffffffffffffffffffffffffffffffffff1916827bffffffffffffffffffffffffffffffffffffffffffffffffffffffff1916148061196e57507f5b5e139f000000000000000000000000000000000000000000000000000000007bffffffffffffffffffffffffffffffffffffffffffffffffffffffff1916827bffffffffffffffffffffffffffffffffffffffffffffffffffffffff1916145b8061197e575061197d82611f16565b5b9050919050565b600060019054906101000a900460ff16806119ab575060008054906101000a900460ff16155b6119ea576040517f08c379a00000000000000000000000000000000000000000000000000000000081526004016119e190613a87565b60405180910390fd5b60008060019054906101000a900460ff161590508015611a3a576001600060016101000a81548160ff02191690831515021790555060016000806101000a81548160ff0219169083151502179055505b8015611a5b5760008060016101000a81548160ff0219169083151502179055505b50565b600060019054906101000a900460ff1680611a84575060008054906101000a900460ff16155b611ac3576040517f08c379a0000000000000000000000000000000000000000000000000000000008152600401611aba90613a87565b60405180910390fd5b60008060019054906101000a900460ff161590508015611b13576001600060016101000a81548160ff02191690831515021790555060016000806101000a81548160ff0219169083151502179055505b8015611b345760008060016101000a81548160ff0219169083151502179055505b50565b600060019054906101000a900460ff1680611b5d575060008054906101000a900460ff16155b611b9c576040517f08c379a0000000000000000000000000000000000000000000000000000000008152600401611b9390613a87565b60405180910390fd5b60008060019054906101000a900460ff161590508015611bec576001600060016101000a81548160ff02191690831515021790555060016000806101000a81548160ff0219169083151502179055505b8260659080519060200190611c0292919061279f565b508160669080519060200190611c1992919061279f565b508015611c3b5760008060016101000a81548160ff0219169083151502179055505b505050565b611c4b838383611f80565b505050565b60008183611c5e9190613d1f565b905092915050565b611c708383612094565b611c7d6000848484611cc1565b611cbc576040517f08c379a0000000000000000000000000000000000000000000000000000000008152600401611cb390613947565b60405180910390fd5b505050565b6000611ce28473ffffffffffffffffffffffffffffffffffffffff16612262565b15611e4b578373ffffffffffffffffffffffffffffffffffffffff1663150b7a02611d0b611246565b8786866040518563ffffffff1660e01b8152600401611d2d9493929190613868565b602060405180830381600087803b158015611d4757600080fd5b505af1925050508015611d7857506040513d601f19601f82011682018060405250810190611d759190612d8c565b60015b611dfb573d8060008114611da8576040519150601f19603f3d011682016040523d82523d6000602084013e611dad565b606091505b50600081511415611df3576040517f08c379a0000000000000000000000000000000000000000000000000000000008152600401611dea90613947565b60405180910390fd5b805181602001fd5b63150b7a0260e01b7bffffffffffffffffffffffffffffffffffffffffffffffffffffffff1916817bffffffffffffffffffffffffffffffffffffffffffffffffffffffff191614915050611e50565b600190505b949350505050565b606060405180602001604052806000815250905090565b6060611e7a826111da565b611eb9576040517f08c379a0000000000000000000000000000000000000000000000000000000008152600401611eb090613b27565b60405180910390fd5b6000611ec3611e58565b90506000815111611ee35760405180602001604052806000815250611f0e565b80611eed84612275565b604051602001611efe929190613829565b6040516020818303038152906040525b915050919050565b60007f01ffc9a7000000000000000000000000000000000000000000000000000000007bffffffffffffffffffffffffffffffffffffffffffffffffffffffff1916827bffffffffffffffffffffffffffffffffffffffffffffffffffffffff1916149050919050565b611f8b838383612422565b600073ffffffffffffffffffffffffffffffffffffffff168373ffffffffffffffffffffffffffffffffffffffff161415611fce57611fc981612427565b61200d565b8173ffffffffffffffffffffffffffffffffffffffff168373ffffffffffffffffffffffffffffffffffffffff161461200c5761200b8382612470565b5b5b600073ffffffffffffffffffffffffffffffffffffffff168273ffffffffffffffffffffffffffffffffffffffff1614156120505761204b816125dd565b61208f565b8273ffffffffffffffffffffffffffffffffffffffff168273ffffffffffffffffffffffffffffffffffffffff161461208e5761208d8282612720565b5b5b505050565b600073ffffffffffffffffffffffffffffffffffffffff168273ffffffffffffffffffffffffffffffffffffffff161415612104576040517f08c379a00000000000000000000000000000000000000000000000000000000081526004016120fb90613aa7565b60405180910390fd5b61210d816111da565b1561214d576040517f08c379a000000000000000000000000000000000000000000000000000000000815260040161214490613967565b60405180910390fd5b61215960008383611c40565b6001606860008473ffffffffffffffffffffffffffffffffffffffff1673ffffffffffffffffffffffffffffffffffffffff16815260200190815260200160002060008282546121a99190613d1f565b92505081905550816067600083815260200190815260200160002060006101000a81548173ffffffffffffffffffffffffffffffffffffffff021916908373ffffffffffffffffffffffffffffffffffffffff160217905550808273ffffffffffffffffffffffffffffffffffffffff16600073ffffffffffffffffffffffffffffffffffffffff167fddf252ad1be2c89b69c2b068fc378daa952ba7f163c4a11628f55a4df523b3ef60405160405180910390a45050565b600080823b905060008111915050919050565b606060008214156122bd576040518060400160405280600181526020017f3000000000000000000000000000000000000000000000000000000000000000815250905061241d565b600082905060005b600082146122ef5780806122d890613f04565b915050600a826122e89190613d75565b91506122c5565b60008167ffffffffffffffff811115612331577f4e487b7100000000000000000000000000000000000000000000000000000000600052604160045260246000fd5b6040519080825280601f01601f1916602001820160405280156123635781602001600182028036833780820191505090505b5090505b600085146124165760018261237c9190613da6565b9150600a8561238b9190613f4d565b60306123979190613d1f565b60f81b8183815181106123d3577f4e487b7100000000000000000000000000000000000000000000000000000000600052603260045260246000fd5b60200101907effffffffffffffffffffffffffffffffffffffffffffffffffffffffffffff1916908160001a905350600a8561240f9190613d75565b9450612367565b8093505050505b919050565b505050565b60cb8054905060cc60008381526020019081526020016000208190555060cb81908060018154018082558091505060019003906000526020600020016000909190919091505550565b6000600161247d846109a3565b6124879190613da6565b9050600060ca600084815260200190815260200160002054905081811461256c57600060c960008673ffffffffffffffffffffffffffffffffffffffff1673ffffffffffffffffffffffffffffffffffffffff16815260200190815260200160002060008481526020019081526020016000205490508060c960008773ffffffffffffffffffffffffffffffffffffffff1673ffffffffffffffffffffffffffffffffffffffff1681526020019081526020016000206000848152602001908152602001600020819055508160ca600083815260200190815260200160002081905550505b60ca60008481526020019081526020016000206000905560c960008573ffffffffffffffffffffffffffffffffffffffff1673ffffffffffffffffffffffffffffffffffffffff16815260200190815260200160002060008381526020019081526020016000206000905550505050565b6000600160cb805490506125f19190613da6565b9050600060cc6000848152602001908152602001600020549050600060cb8381548110612647577f4e487b7100000000000000000000000000000000000000000000000000000000600052603260045260246000fd5b906000526020600020015490508060cb838154811061268f577f4e487b7100000000000000000000000000000000000000000000000000000000600052603260045260246000fd5b90600052602060002001819055508160cc60008381526020019081526020016000208190555060cc60008581526020019081526020016000206000905560cb805480612704577f4e487b7100000000000000000000000000000000000000000000000000000000600052603160045260246000fd5b6001900381819060005260206000200160009055905550505050565b600061272b836109a3565b90508160c960008573ffffffffffffffffffffffffffffffffffffffff1673ffffffffffffffffffffffffffffffffffffffff1681526020019081526020016000206000838152602001908152602001600020819055508060ca600084815260200190815260200160002081905550505050565b8280546127ab90613ed2565b90600052602060002090601f0160209004810192826127cd5760008555612814565b82601f106127e657805160ff1916838001178555612814565b82800160010185558215612814579182015b828111156128135782518255916020019190600101906127f8565b5b5090506128219190612825565b5090565b5b8082111561283e576000816000905550600101612826565b5090565b600061285561285084613c7c565b613c4b565b90508281526020810184848401111561286d57600080fd5b612878848285613e90565b509392505050565b600061289361288e84613cac565b613c4b565b9050828152602081018484840111156128ab57600080fd5b6128b6848285613e90565b509392505050565b60006128d16128cc84613cac565b613c4b565b9050828152602081018484840111156128e957600080fd5b6128f4848285613e9f565b509392505050565b60008135905061290b8161404b565b92915050565b6000815190506129208161404b565b92915050565b60008135905061293581614062565b92915050565b60008151905061294a81614062565b92915050565b60008135905061295f81614079565b92915050565b60008135905061297481614090565b92915050565b60008151905061298981614090565b92915050565b600082601f8301126129a057600080fd5b81356129b0848260208601612842565b91505092915050565b600082601f8301126129ca57600080fd5b81356129da848260208601612880565b91505092915050565b600082601f8301126129f457600080fd5b8151612a048482602086016128be565b91505092915050565b600081359050612a1c816140a7565b92915050565b600081519050612a31816140a7565b92915050565b600081519050612a46816140be565b92915050565b600060208284031215612a5e57600080fd5b6000612a6c848285016128fc565b91505092915050565b60008060408385031215612a8857600080fd5b6000612a96858286016128fc565b9250506020612aa7858286016128fc565b9150509250929050565b600080600060608486031215612ac657600080fd5b6000612ad4868287016128fc565b9350506020612ae5868287016128fc565b9250506040612af686828701612a0d565b9150509250925092565b60008060008060808587031215612b1657600080fd5b6000612b24878288016128fc565b9450506020612b35878288016128fc565b9350506040612b4687828801612a0d565b925050606085013567ffffffffffffffff811115612b6357600080fd5b612b6f8782880161298f565b91505092959194509250565b60008060408385031215612b8e57600080fd5b6000612b9c858286016128fc565b9250506020612bad85828601612926565b9150509250929050565b60008060408385031215612bca57600080fd5b6000612bd8858286016128fc565b925050602083013567ffffffffffffffff811115612bf557600080fd5b612c01858286016129b9565b9150509250929050565b60008060408385031215612c1e57600080fd5b6000612c2c858286016128fc565b9250506020612c3d85828601612a0d565b9150509250929050565b6000806000806000806000806000806101408b8d031215612c6757600080fd5b6000612c758d828e0161293b565b9a50506020612c868d828e01612911565b9950506040612c978d828e01612a22565b9850506060612ca88d828e01612a22565b97505060808b015167ffffffffffffffff811115612cc557600080fd5b612cd18d828e016129e3565b96505060a0612ce28d828e01612a22565b95505060c0612cf38d828e01612a22565b94505060e0612d048d828e01612a37565b935050610100612d168d828e0161293b565b925050610120612d288d828e01612911565b9150509295989b9194979a5092959850565b600060208284031215612d4c57600080fd5b6000612d5a84828501612950565b91505092915050565b600060208284031215612d7557600080fd5b6000612d8384828501612965565b91505092915050565b600060208284031215612d9e57600080fd5b6000612dac8482850161297a565b91505092915050565b600080600060608486031215612dca57600080fd5b600084013567ffffffffffffffff811115612de457600080fd5b612df0868287016129b9565b935050602084013567ffffffffffffffff811115612e0d57600080fd5b612e19868287016129b9565b9250506040612e2a868287016128fc565b9150509250925092565b600060208284031215612e4657600080fd5b6000612e5484828501612a0d565b91505092915050565b612e6681613dda565b82525050565b612e7581613dec565b82525050565b612e8481613df8565b82525050565b6000612e9582613cdc565b612e9f8185613cf2565b9350612eaf818560208601613e9f565b612eb88161403a565b840191505092915050565b612ecc81613e6c565b82525050565b6000612edd82613ce7565b612ee78185613d03565b9350612ef7818560208601613e9f565b612f008161403a565b840191505092915050565b6000612f1682613ce7565b612f208185613d14565b9350612f30818560208601613e9f565b80840191505092915050565b6000612f49602b83613d03565b91507f455243373231456e756d657261626c653a206f776e657220696e646578206f7560008301527f74206f6620626f756e64730000000000000000000000000000000000000000006020830152604082019050919050565b6000612faf603283613d03565b91507f4552433732313a207472616e7366657220746f206e6f6e20455243373231526560008301527f63656976657220696d706c656d656e74657200000000000000000000000000006020830152604082019050919050565b6000613015601c83613d03565b91507f4552433732313a20746f6b656e20616c7265616479206d696e746564000000006000830152602082019050919050565b6000613055602483613d03565b91507f4552433732313a207472616e7366657220746f20746865207a65726f2061646460008301527f72657373000000000000000000000000000000000000000000000000000000006020830152604082019050919050565b60006130bb601983613d03565b91507f4552433732313a20617070726f766520746f2063616c6c6572000000000000006000830152602082019050919050565b60006130fb603e83613d03565b91507f52756c6573455243373231546f6b656e3a6d696e74546f20202d20546869732060008301527f746f6b656e20686173206265656e20616c726561647920636c61696d656400006020830152604082019050919050565b6000613161602c83613d03565b91507f4552433732313a206f70657261746f7220717565727920666f72206e6f6e657860008301527f697374656e7420746f6b656e00000000000000000000000000000000000000006020830152604082019050919050565b60006131c7603883613d03565b91507f4552433732313a20617070726f76652063616c6c6572206973206e6f74206f7760008301527f6e6572206e6f7220617070726f76656420666f7220616c6c00000000000000006020830152604082019050919050565b600061322d602a83613d03565b91507f4552433732313a2062616c616e636520717565727920666f7220746865207a6560008301527f726f2061646472657373000000000000000000000000000000000000000000006020830152604082019050919050565b6000613293602983613d03565b91507f4552433732313a206f776e657220717565727920666f72206e6f6e657869737460008301527f656e7420746f6b656e00000000000000000000000000000000000000000000006020830152604082019050919050565b60006132f9602e83613d03565b91507f45524337323155524953746f726167653a2055524920736574206f66206e6f6e60008301527f6578697374656e7420746f6b656e0000000000000000000000000000000000006020830152604082019050919050565b600061335f602e83613d03565b91507f496e697469616c697a61626c653a20636f6e747261637420697320616c72656160008301527f647920696e697469616c697a65640000000000000000000000000000000000006020830152604082019050919050565b60006133c5602083613d03565b91507f4552433732313a206d696e7420746f20746865207a65726f20616464726573736000830152602082019050919050565b6000613405603183613d03565b91507f45524337323155524953746f726167653a2055524920717565727920666f722060008301527f6e6f6e6578697374656e7420746f6b656e0000000000000000000000000000006020830152604082019050919050565b600061346b602c83613d03565b91507f4552433732313a20617070726f76656420717565727920666f72206e6f6e657860008301527f697374656e7420746f6b656e00000000000000000000000000000000000000006020830152604082019050919050565b60006134d1602983613d03565b91507f4552433732313a207472616e73666572206f6620746f6b656e2074686174206960008301527f73206e6f74206f776e00000000000000000000000000000000000000000000006020830152604082019050919050565b6000613537602f83613d03565b91507f4552433732314d657461646174613a2055524920717565727920666f72206e6f60008301527f6e6578697374656e7420746f6b656e00000000000000000000000000000000006020830152604082019050919050565b600061359d602183613d03565b91507f4552433732313a20617070726f76616c20746f2063757272656e74206f776e6560008301527f72000000000000000000000000000000000000000000000000000000000000006020830152604082019050919050565b6000613603603183613d03565b91507f4552433732313a207472616e736665722063616c6c6572206973206e6f74206f60008301527f776e6572206e6f7220617070726f7665640000000000000000000000000000006020830152604082019050919050565b6000613669602c83613d03565b91507f455243373231456e756d657261626c653a20676c6f62616c20696e646578206f60008301527f7574206f6620626f756e647300000000000000000000000000000000000000006020830152604082019050919050565b60006136cf603c83613d03565b91507f52756c6573455243373231546f6b656e3a6d696e74546f202d2054686973207260008301527f756c65206861736e2774206265656e20617070726f76656420796574000000006020830152604082019050919050565b6000613735604983613d03565b91507f52756c6573455243373231546f6b656e3a6d696e74546f202d2054686973207260008301527f756c65206861736e27742072656365697665642073756666696369656e74207160208301527f756f72756d2079657400000000000000000000000000000000000000000000006040830152606082019050919050565b60006137c1603683613d03565b91507f52756c6573455243373231546f6b656e3a6d696e74546f202d2052656369706960008301527f656e7420616464726573732063616e27742062652030000000000000000000006020830152604082019050919050565b61382381613e4e565b82525050565b60006138358285612f0b565b91506138418284612f0b565b91508190509392505050565b60006020820190506138626000830184612e5d565b92915050565b600060808201905061387d6000830187612e5d565b61388a6020830186612e5d565b613897604083018561381a565b81810360608301526138a98184612e8a565b905095945050505050565b60006020820190506138c96000830184612e6c565b92915050565b60006020820190506138e46000830184612e7b565b92915050565b60006020820190506138ff6000830184612ec3565b92915050565b6000602082019050818103600083015261391f8184612ed2565b905092915050565b6000602082019050818103600083015261394081612f3c565b9050919050565b6000602082019050818103600083015261396081612fa2565b9050919050565b6000602082019050818103600083015261398081613008565b9050919050565b600060208201905081810360008301526139a081613048565b9050919050565b600060208201905081810360008301526139c0816130ae565b9050919050565b600060208201905081810360008301526139e0816130ee565b9050919050565b60006020820190508181036000830152613a0081613154565b9050919050565b60006020820190508181036000830152613a20816131ba565b9050919050565b60006020820190508181036000830152613a4081613220565b9050919050565b60006020820190508181036000830152613a6081613286565b9050919050565b60006020820190508181036000830152613a80816132ec565b9050919050565b60006020820190508181036000830152613aa081613352565b9050919050565b60006020820190508181036000830152613ac0816133b8565b9050919050565b60006020820190508181036000830152613ae0816133f8565b9050919050565b60006020820190508181036000830152613b008161345e565b9050919050565b60006020820190508181036000830152613b20816134c4565b9050919050565b60006020820190508181036000830152613b408161352a565b9050919050565b60006020820190508181036000830152613b6081613590565b9050919050565b60006020820190508181036000830152613b80816135f6565b9050919050565b60006020820190508181036000830152613ba08161365c565b9050919050565b60006020820190508181036000830152613bc0816136c2565b9050919050565b60006020820190508181036000830152613be081613728565b9050919050565b60006020820190508181036000830152613c00816137b4565b9050919050565b6000602082019050613c1c600083018461381a565b92915050565b6000604082019050613c37600083018561381a565b613c446020830184612e5d565b9392505050565b6000604051905081810181811067ffffffffffffffff82111715613c7257613c7161400b565b5b8060405250919050565b600067ffffffffffffffff821115613c9757613c9661400b565b5b601f19601f8301169050602081019050919050565b600067ffffffffffffffff821115613cc757613cc661400b565b5b601f19601f8301169050602081019050919050565b600081519050919050565b600081519050919050565b600082825260208201905092915050565b600082825260208201905092915050565b600081905092915050565b6000613d2a82613e4e565b9150613d3583613e4e565b9250827fffffffffffffffffffffffffffffffffffffffffffffffffffffffffffffffff03821115613d6a57613d69613f7e565b5b828201905092915050565b6000613d8082613e4e565b9150613d8b83613e4e565b925082613d9b57613d9a613fad565b5b828204905092915050565b6000613db182613e4e565b9150613dbc83613e4e565b925082821015613dcf57613dce613f7e565b5b828203905092915050565b6000613de582613e2e565b9050919050565b60008115159050919050565b6000819050919050565b60007fffffffff0000000000000000000000000000000000000000000000000000000082169050919050565b600073ffffffffffffffffffffffffffffffffffffffff82169050919050565b6000819050919050565b600067ffffffffffffffff82169050919050565b6000613e7782613e7e565b9050919050565b6000613e8982613e2e565b9050919050565b82818337600083830152505050565b60005b83811015613ebd578082015181840152602081019050613ea2565b83811115613ecc576000848401525b50505050565b60006002820490506001821680613eea57607f821691505b60208210811415613efe57613efd613fdc565b5b50919050565b6000613f0f82613e4e565b91507fffffffffffffffffffffffffffffffffffffffffffffffffffffffffffffffff821415613f4257613f41613f7e565b5b600182019050919050565b6000613f5882613e4e565b9150613f6383613e4e565b925082613f7357613f72613fad565b5b828206905092915050565b7f4e487b7100000000000000000000000000000000000000000000000000000000600052601160045260246000fd5b7f4e487b7100000000000000000000000000000000000000000000000000000000600052601260045260246000fd5b7f4e487b7100000000000000000000000000000000000000000000000000000000600052602260045260246000fd5b7f4e487b7100000000000000000000000000000000000000000000000000000000600052604160045260246000fd5b6000601f19601f8301169050919050565b61405481613dda565b811461405f57600080fd5b50565b61406b81613dec565b811461407657600080fd5b50565b61408281613df8565b811461408d57600080fd5b50565b61409981613e02565b81146140a457600080fd5b50565b6140b081613e4e565b81146140bb57600080fd5b50565b6140c781613e58565b81146140d257600080fd5b5056fea2646970667358221220f0d6719f96e58388496d811b0249d9eab9248ac1bcc8107a7fb74c5ba41c805f64736f6c63430008000033",
  "immutableReferences": {},
  "source": "// SPDX-License-Identifier: MIT\npragma solidity =0.8.0;\n\nimport \"@openzeppelin/contracts-upgradeable/token/ERC721/ERC721Upgradeable.sol\";\nimport \"@openzeppelin/contracts-upgradeable/utils/math/SafeMathUpgradeable.sol\";\nimport \"@openzeppelin/contracts-upgradeable/token/ERC721/extensions/ERC721URIStorageUpgradeable.sol\";\nimport \"@openzeppelin/contracts-upgradeable/token/ERC721/extensions/ERC721EnumerableUpgradeable.sol\";\nimport \"../Auditchain/ValidationsNoCohort.sol\";\n\n\n/**\n * @title RulesERC721Token\n * RulesERC721Token - ERC721Upgradeable contract that and has minting functionality.\n */\ncontract RulesERC721Token is ERC721Upgradeable,  ERC721URIStorageUpgradeable, ERC721EnumerableUpgradeable\n{\n    using SafeMathUpgradeable for uint256;\n    ValidationsNoCohort public validation;\n\n    mapping(bytes32 => bool) public NFTCompleted;\n    event Mint(uint256 tokenId, address recipient);\n\n    function initialize(string memory _name, string memory _symbol, address _validation) public\n        \n    {\n        __ERC721_init(_name, _symbol);\n        validation = ValidationsNoCohort(_validation);\n    }\n\n\n   function tokenURI(uint256 tokenId) public view virtual override(ERC721URIStorageUpgradeable, ERC721Upgradeable) returns (string memory) {\n       \n        return super.tokenURI(tokenId);\n    }\n     \n    function _beforeTokenTransfer(address from, address to, uint256 tokenId) internal virtual override(ERC721EnumerableUpgradeable, ERC721Upgradeable) {\n        super._beforeTokenTransfer(from, to, tokenId);\n    }\n\n\n    function supportsInterface(bytes4 interfaceId) public view virtual override(ERC721EnumerableUpgradeable, ERC721Upgradeable) returns (bool) {\n       return super.supportsInterface(interfaceId);\n\n    }\n\n    function _burn(uint256 tokenId) internal virtual override(ERC721URIStorageUpgradeable, ERC721Upgradeable) {\n        super._burn(tokenId);\n    }\n\n\n    /**\n     * @dev Mints a token to an enterprise/rule creator with a given validation hashvalidation\n     * @param _hash of the validated document\n     * @return newTokenId\n     */\n    function mintTo(bytes32 _hash)\n        public\n        returns (uint256)\n    {\n        (,address requestor,, uint256 executionTime , string memory url, uint256 consensus, , , , ) = validation.returnValidationRecord(_hash);\n        require(requestor != address(0), \"RulesERC721Token:mintTo - Recipient address can't be 0\");\n        require(executionTime > 0 , \"RulesERC721Token:mintTo - This rule hasn't been approved yet\");\n        require(consensus == 1,  \"RulesERC721Token:mintTo - This rule hasn't received sufficient quorum yet\");\n        require(!NFTCompleted[_hash], \"RulesERC721Token:mintTo  - This token has been already claimed\");\n        uint256 newTokenId = _getNextTokenId();\n        NFTCompleted[_hash] = true;\n        _safeMint(requestor, newTokenId);\n        _setTokenURI(newTokenId, url);\n        emit Mint(newTokenId, requestor);\n        return newTokenId;\n    }\n\n    function mintToPure(address user, string memory url) public returns (uint256) {\n\n        uint256 newTokenId = _getNextTokenId();\n\n        _safeMint(user, newTokenId);\n        _setTokenURI(newTokenId, url);\n        return newTokenId;\n\n    }\n\n    function _getNextTokenId() private view returns (uint256) {\n        return totalSupply().add(1);\n    }\n\n\n}\n",
  "sourcePath": "/home/win2win/eth/projects/AuditChain/Core-Smart-Contracts-v1-upgradable/contracts/NFT/RulesERC721Token.sol",
  "compiler": {
    "name": "solc",
    "version": "0.8.0+commit.c7dfd78e.Emscripten.clang"
  },
  "schemaVersion": "3.4.1",
  "updatedAt": "2022-05-18T17:13:45.673Z",
  "devdoc": {
    "kind": "dev",
    "methods": {
      "approve(address,uint256)": {
        "details": "See {IERC721-approve}."
      },
      "balanceOf(address)": {
        "details": "See {IERC721-balanceOf}."
      },
      "getApproved(uint256)": {
        "details": "See {IERC721-getApproved}."
      },
      "isApprovedForAll(address,address)": {
        "details": "See {IERC721-isApprovedForAll}."
      },
      "mintTo(bytes32)": {
        "details": "Mints a token to an enterprise/rule creator with a given validation hashvalidation",
        "params": {
          "_hash": "of the validated document"
        },
        "returns": {
          "_0": "newTokenId"
        }
      },
      "name()": {
        "details": "See {IERC721Metadata-name}."
      },
      "ownerOf(uint256)": {
        "details": "See {IERC721-ownerOf}."
      },
      "safeTransferFrom(address,address,uint256)": {
        "details": "See {IERC721-safeTransferFrom}."
      },
      "safeTransferFrom(address,address,uint256,bytes)": {
        "details": "See {IERC721-safeTransferFrom}."
      },
      "setApprovalForAll(address,bool)": {
        "details": "See {IERC721-setApprovalForAll}."
      },
      "symbol()": {
        "details": "See {IERC721Metadata-symbol}."
      },
      "tokenByIndex(uint256)": {
        "details": "See {IERC721Enumerable-tokenByIndex}."
      },
      "tokenOfOwnerByIndex(address,uint256)": {
        "details": "See {IERC721Enumerable-tokenOfOwnerByIndex}."
      },
      "totalSupply()": {
        "details": "See {IERC721Enumerable-totalSupply}."
      },
      "transferFrom(address,address,uint256)": {
        "details": "See {IERC721-transferFrom}."
      }
    },
    "title": "RulesERC721Token RulesERC721Token - ERC721Upgradeable contract that and has minting functionality.",
    "version": 1
  },
  "userdoc": {
    "kind": "user",
    "methods": {},
    "version": 1
  }
}