{
  "contractName": "RulesERC721Token",
  "abi": [
    {
      "anonymous": false,
      "inputs": [
        {
          "indexed": true,
          "internalType": "address",
          "name": "owner",
          "type": "address"
        },
        {
          "indexed": true,
          "internalType": "address",
          "name": "approved",
          "type": "address"
        },
        {
          "indexed": true,
          "internalType": "uint256",
          "name": "tokenId",
          "type": "uint256"
        }
      ],
      "name": "Approval",
      "type": "event"
    },
    {
      "anonymous": false,
      "inputs": [
        {
          "indexed": true,
          "internalType": "address",
          "name": "owner",
          "type": "address"
        },
        {
          "indexed": true,
          "internalType": "address",
          "name": "operator",
          "type": "address"
        },
        {
          "indexed": false,
          "internalType": "bool",
          "name": "approved",
          "type": "bool"
        }
      ],
      "name": "ApprovalForAll",
      "type": "event"
    },
    {
      "anonymous": false,
      "inputs": [
        {
          "indexed": false,
          "internalType": "uint256",
          "name": "tokenId",
          "type": "uint256"
        },
        {
          "indexed": false,
          "internalType": "address",
          "name": "recipient",
          "type": "address"
        }
      ],
      "name": "Mint",
      "type": "event"
    },
    {
      "anonymous": false,
      "inputs": [
        {
          "indexed": true,
          "internalType": "address",
          "name": "from",
          "type": "address"
        },
        {
          "indexed": true,
          "internalType": "address",
          "name": "to",
          "type": "address"
        },
        {
          "indexed": true,
          "internalType": "uint256",
          "name": "tokenId",
          "type": "uint256"
        }
      ],
      "name": "Transfer",
      "type": "event"
    },
    {
      "inputs": [
        {
          "internalType": "bytes32",
          "name": "",
          "type": "bytes32"
        }
      ],
      "name": "NFTCompleted",
      "outputs": [
        {
          "internalType": "bool",
          "name": "",
          "type": "bool"
        }
      ],
      "stateMutability": "view",
      "type": "function",
      "constant": true
    },
    {
      "inputs": [
        {
          "internalType": "address",
          "name": "to",
          "type": "address"
        },
        {
          "internalType": "uint256",
          "name": "tokenId",
          "type": "uint256"
        }
      ],
      "name": "approve",
      "outputs": [],
      "stateMutability": "nonpayable",
      "type": "function"
    },
    {
      "inputs": [
        {
          "internalType": "address",
          "name": "owner",
          "type": "address"
        }
      ],
      "name": "balanceOf",
      "outputs": [
        {
          "internalType": "uint256",
          "name": "",
          "type": "uint256"
        }
      ],
      "stateMutability": "view",
      "type": "function",
      "constant": true
    },
    {
      "inputs": [
        {
          "internalType": "uint256",
          "name": "tokenId",
          "type": "uint256"
        }
      ],
      "name": "getApproved",
      "outputs": [
        {
          "internalType": "address",
          "name": "",
          "type": "address"
        }
      ],
      "stateMutability": "view",
      "type": "function",
      "constant": true
    },
    {
      "inputs": [
        {
          "internalType": "address",
          "name": "owner",
          "type": "address"
        },
        {
          "internalType": "address",
          "name": "operator",
          "type": "address"
        }
      ],
      "name": "isApprovedForAll",
      "outputs": [
        {
          "internalType": "bool",
          "name": "",
          "type": "bool"
        }
      ],
      "stateMutability": "view",
      "type": "function",
      "constant": true
    },
    {
      "inputs": [],
      "name": "name",
      "outputs": [
        {
          "internalType": "string",
          "name": "",
          "type": "string"
        }
      ],
      "stateMutability": "view",
      "type": "function",
      "constant": true
    },
    {
      "inputs": [
        {
          "internalType": "uint256",
          "name": "tokenId",
          "type": "uint256"
        }
      ],
      "name": "ownerOf",
      "outputs": [
        {
          "internalType": "address",
          "name": "",
          "type": "address"
        }
      ],
      "stateMutability": "view",
      "type": "function",
      "constant": true
    },
    {
      "inputs": [
        {
          "internalType": "address",
          "name": "from",
          "type": "address"
        },
        {
          "internalType": "address",
          "name": "to",
          "type": "address"
        },
        {
          "internalType": "uint256",
          "name": "tokenId",
          "type": "uint256"
        }
      ],
      "name": "safeTransferFrom",
      "outputs": [],
      "stateMutability": "nonpayable",
      "type": "function"
    },
    {
      "inputs": [
        {
          "internalType": "address",
          "name": "from",
          "type": "address"
        },
        {
          "internalType": "address",
          "name": "to",
          "type": "address"
        },
        {
          "internalType": "uint256",
          "name": "tokenId",
          "type": "uint256"
        },
        {
          "internalType": "bytes",
          "name": "_data",
          "type": "bytes"
        }
      ],
      "name": "safeTransferFrom",
      "outputs": [],
      "stateMutability": "nonpayable",
      "type": "function"
    },
    {
      "inputs": [
        {
          "internalType": "address",
          "name": "operator",
          "type": "address"
        },
        {
          "internalType": "bool",
          "name": "approved",
          "type": "bool"
        }
      ],
      "name": "setApprovalForAll",
      "outputs": [],
      "stateMutability": "nonpayable",
      "type": "function"
    },
    {
      "inputs": [],
      "name": "symbol",
      "outputs": [
        {
          "internalType": "string",
          "name": "",
          "type": "string"
        }
      ],
      "stateMutability": "view",
      "type": "function",
      "constant": true
    },
    {
      "inputs": [
        {
          "internalType": "uint256",
          "name": "index",
          "type": "uint256"
        }
      ],
      "name": "tokenByIndex",
      "outputs": [
        {
          "internalType": "uint256",
          "name": "",
          "type": "uint256"
        }
      ],
      "stateMutability": "view",
      "type": "function",
      "constant": true
    },
    {
      "inputs": [
        {
          "internalType": "address",
          "name": "owner",
          "type": "address"
        },
        {
          "internalType": "uint256",
          "name": "index",
          "type": "uint256"
        }
      ],
      "name": "tokenOfOwnerByIndex",
      "outputs": [
        {
          "internalType": "uint256",
          "name": "",
          "type": "uint256"
        }
      ],
      "stateMutability": "view",
      "type": "function",
      "constant": true
    },
    {
      "inputs": [],
      "name": "totalSupply",
      "outputs": [
        {
          "internalType": "uint256",
          "name": "",
          "type": "uint256"
        }
      ],
      "stateMutability": "view",
      "type": "function",
      "constant": true
    },
    {
      "inputs": [
        {
          "internalType": "address",
          "name": "from",
          "type": "address"
        },
        {
          "internalType": "address",
          "name": "to",
          "type": "address"
        },
        {
          "internalType": "uint256",
          "name": "tokenId",
          "type": "uint256"
        }
      ],
      "name": "transferFrom",
      "outputs": [],
      "stateMutability": "nonpayable",
      "type": "function"
    },
    {
      "inputs": [
        {
          "internalType": "string",
          "name": "_name",
          "type": "string"
        },
        {
          "internalType": "string",
          "name": "_symbol",
          "type": "string"
        },
        {
          "internalType": "address",
          "name": "_validation",
          "type": "address"
        }
      ],
      "name": "initialize",
      "outputs": [],
      "stateMutability": "nonpayable",
      "type": "function"
    },
    {
      "inputs": [
        {
          "internalType": "uint256",
          "name": "tokenId",
          "type": "uint256"
        }
      ],
      "name": "tokenURI",
      "outputs": [
        {
          "internalType": "string",
          "name": "",
          "type": "string"
        }
      ],
      "stateMutability": "view",
      "type": "function",
      "constant": true
    },
    {
      "inputs": [
        {
          "internalType": "bytes4",
          "name": "interfaceId",
          "type": "bytes4"
        }
      ],
      "name": "supportsInterface",
      "outputs": [
        {
          "internalType": "bool",
          "name": "",
          "type": "bool"
        }
      ],
      "stateMutability": "view",
      "type": "function",
      "constant": true
    },
    {
      "inputs": [
        {
          "internalType": "bytes32",
          "name": "_hash",
          "type": "bytes32"
        }
      ],
      "name": "mintTo",
      "outputs": [
        {
          "internalType": "uint256",
          "name": "",
          "type": "uint256"
        }
      ],
      "stateMutability": "nonpayable",
      "type": "function"
    },
    {
      "inputs": [
        {
          "internalType": "address",
          "name": "user",
          "type": "address"
        },
        {
          "internalType": "string",
          "name": "url",
          "type": "string"
        }
      ],
      "name": "mintToPure",
      "outputs": [
        {
          "internalType": "uint256",
          "name": "",
          "type": "uint256"
        }
      ],
      "stateMutability": "nonpayable",
      "type": "function"
    }
  ],
  "bytecode": "0x608060405234801561001057600080fd5b5061406e806100206000396000f3fe608060405234801561001057600080fd5b506004361061012c5760003560e01c80636352211e116100ad578063a22cb46511610071578063a22cb4651461037b578063b88d4fde14610397578063c87b56dd146103b3578063e985e9c5146103e3578063f5622dda146104135761012c565b80636352211e1461029d57806365b0bce0146102cd57806370a08231146102fd578063923326461461032d57806395d89b411461035d5761012c565b806318160ddd116100f457806318160ddd146101e757806323b872dd146102055780632f745c591461022157806342842e0e146102515780634f6ccce71461026d5761012c565b806301ffc9a71461013157806306fdde0314610161578063077f224a1461017f578063081812fc1461019b578063095ea7b3146101cb575b600080fd5b61014b60048036038101906101469190612d14565b610443565b6040516101589190613856565b60405180910390f35b610169610455565b604051610176919061388c565b60405180910390f35b61019960048036038101906101949190612d66565b6104e7565b005b6101b560048036038101906101b09190612de5565b610537565b6040516101c291906137ef565b60405180910390f35b6101e560048036038101906101e09190612bbc565b6105bc565b005b6101ef6106d4565b6040516101fc9190613b8e565b60405180910390f35b61021f600480360381019061021a9190612a62565b6106e1565b005b61023b60048036038101906102369190612bbc565b610741565b6040516102489190613b8e565b60405180910390f35b61026b60048036038101906102669190612a62565b6107e6565b005b61028760048036038101906102829190612de5565b610806565b6040516102949190613b8e565b60405180910390f35b6102b760048036038101906102b29190612de5565b61089d565b6040516102c491906137ef565b60405180910390f35b6102e760048036038101906102e29190612b68565b61094f565b6040516102f49190613b8e565b60405180910390f35b610317600480360381019061031291906129fd565b61097a565b6040516103249190613b8e565b60405180910390f35b61034760048036038101906103429190612ceb565b610a32565b6040516103549190613b8e565b60405180910390f35b610365610ce1565b604051610372919061388c565b60405180910390f35b61039560048036038101906103909190612b2c565b610d73565b005b6103b160048036038101906103ac9190612ab1565b610ef4565b005b6103cd60048036038101906103c89190612de5565b610f56565b6040516103da919061388c565b60405180910390f35b6103fd60048036038101906103f89190612a26565b610f68565b60405161040a9190613856565b60405180910390f35b61042d60048036038101906104289190612ceb565b610ffc565b60405161043a9190613856565b60405180910390f35b600061044e8261101c565b9050919050565b60606065805461046490613e35565b80601f016020809104026020016040519081016040528092919081815260200182805461049090613e35565b80156104dd5780601f106104b2576101008083540402835291602001916104dd565b820191906000526020600020905b8154815290600101906020018083116104c057829003601f168201915b5050505050905090565b6104f18383611096565b8060fb60006101000a81548173ffffffffffffffffffffffffffffffffffffffff021916908373ffffffffffffffffffffffffffffffffffffffff160217905550505050565b60006105428261118b565b610581576040517f08c379a000000000000000000000000000000000000000000000000000000000815260040161057890613a6e565b60405180910390fd5b6069600083815260200190815260200160002060009054906101000a900473ffffffffffffffffffffffffffffffffffffffff169050919050565b60006105c78261089d565b90508073ffffffffffffffffffffffffffffffffffffffff168373ffffffffffffffffffffffffffffffffffffffff161415610638576040517f08c379a000000000000000000000000000000000000000000000000000000000815260040161062f90613ace565b60405180910390fd5b8073ffffffffffffffffffffffffffffffffffffffff166106576111f7565b73ffffffffffffffffffffffffffffffffffffffff1614806106865750610685816106806111f7565b610f68565b5b6106c5576040517f08c379a00000000000000000000000000000000000000000000000000000000081526004016106bc9061398e565b60405180910390fd5b6106cf83836111ff565b505050565b600060cb80549050905090565b6106f26106ec6111f7565b826112b8565b610731576040517f08c379a000000000000000000000000000000000000000000000000000000000815260040161072890613aee565b60405180910390fd5b61073c838383611396565b505050565b600061074c8361097a565b821061078d576040517f08c379a0000000000000000000000000000000000000000000000000000000008152600401610784906138ae565b60405180910390fd5b60c960008473ffffffffffffffffffffffffffffffffffffffff1673ffffffffffffffffffffffffffffffffffffffff168152602001908152602001600020600083815260200190815260200160002054905092915050565b61080183838360405180602001604052806000815250610ef4565b505050565b60006108106106d4565b8210610851576040517f08c379a000000000000000000000000000000000000000000000000000000000815260040161084890613b0e565b60405180910390fd5b60cb828154811061088b577f4e487b7100000000000000000000000000000000000000000000000000000000600052603260045260246000fd5b90600052602060002001549050919050565b6000806067600084815260200190815260200160002060009054906101000a900473ffffffffffffffffffffffffffffffffffffffff169050600073ffffffffffffffffffffffffffffffffffffffff168173ffffffffffffffffffffffffffffffffffffffff161415610946576040517f08c379a000000000000000000000000000000000000000000000000000000000815260040161093d906139ce565b60405180910390fd5b80915050919050565b60008061095a6115f2565b90506109668482611614565b6109708184611632565b8091505092915050565b60008073ffffffffffffffffffffffffffffffffffffffff168273ffffffffffffffffffffffffffffffffffffffff1614156109eb576040517f08c379a00000000000000000000000000000000000000000000000000000000081526004016109e2906139ae565b60405180910390fd5b606860008373ffffffffffffffffffffffffffffffffffffffff1673ffffffffffffffffffffffffffffffffffffffff168152602001908152602001600020549050919050565b600080600080600060fb60009054906101000a900473ffffffffffffffffffffffffffffffffffffffff1673ffffffffffffffffffffffffffffffffffffffff166356756cd7876040518263ffffffff1660e01b8152600401610a959190613871565b60006040518083038186803b158015610aad57600080fd5b505afa158015610ac1573d6000803e3d6000fd5b505050506040513d6000823e3d601f19601f82011682018060405250810190610aea9190612bf8565b5050505095509550955050945050600073ffffffffffffffffffffffffffffffffffffffff168473ffffffffffffffffffffffffffffffffffffffff161415610b68576040517f08c379a0000000000000000000000000000000000000000000000000000000008152600401610b5f90613b6e565b60405180910390fd5b60008311610bab576040517f08c379a0000000000000000000000000000000000000000000000000000000008152600401610ba290613b2e565b60405180910390fd5b60018114610bee576040517f08c379a0000000000000000000000000000000000000000000000000000000008152600401610be590613b4e565b60405180910390fd5b60fc600087815260200190815260200160002060009054906101000a900460ff1615610c4f576040517f08c379a0000000000000000000000000000000000000000000000000000000008152600401610c469061394e565b60405180910390fd5b6000610c596115f2565b9050600160fc600089815260200190815260200160002060006101000a81548160ff021916908315150217905550610c918582611614565b610c9b8184611632565b7ff3cea5493d790af0133817606f7350a91d7f154ea52eaa79d179d4d231e501028186604051610ccc929190613ba9565b60405180910390a18095505050505050919050565b606060668054610cf090613e35565b80601f0160208091040260200160405190810160405280929190818152602001828054610d1c90613e35565b8015610d695780601f10610d3e57610100808354040283529160200191610d69565b820191906000526020600020905b815481529060010190602001808311610d4c57829003601f168201915b5050505050905090565b610d7b6111f7565b73ffffffffffffffffffffffffffffffffffffffff168273ffffffffffffffffffffffffffffffffffffffff161415610de9576040517f08c379a0000000000000000000000000000000000000000000000000000000008152600401610de09061392e565b60405180910390fd5b80606a6000610df66111f7565b73ffffffffffffffffffffffffffffffffffffffff1673ffffffffffffffffffffffffffffffffffffffff16815260200190815260200160002060008473ffffffffffffffffffffffffffffffffffffffff1673ffffffffffffffffffffffffffffffffffffffff16815260200190815260200160002060006101000a81548160ff0219169083151502179055508173ffffffffffffffffffffffffffffffffffffffff16610ea36111f7565b73ffffffffffffffffffffffffffffffffffffffff167f17307eab39ab6107e8899845ad3d59bd9653f200f220920489ca2b5937696c3183604051610ee89190613856565b60405180910390a35050565b610f05610eff6111f7565b836112b8565b610f44576040517f08c379a0000000000000000000000000000000000000000000000000000000008152600401610f3b90613aee565b60405180910390fd5b610f50848484846116a6565b50505050565b6060610f6182611702565b9050919050565b6000606a60008473ffffffffffffffffffffffffffffffffffffffff1673ffffffffffffffffffffffffffffffffffffffff16815260200190815260200160002060008373ffffffffffffffffffffffffffffffffffffffff1673ffffffffffffffffffffffffffffffffffffffff16815260200190815260200160002060009054906101000a900460ff16905092915050565b60fc6020528060005260406000206000915054906101000a900460ff1681565b60007f780e9d63000000000000000000000000000000000000000000000000000000007bffffffffffffffffffffffffffffffffffffffffffffffffffffffff1916827bffffffffffffffffffffffffffffffffffffffffffffffffffffffff1916148061108f575061108e82611854565b5b9050919050565b600060019054906101000a900460ff16806110bc575060008054906101000a900460ff16155b6110fb576040517f08c379a00000000000000000000000000000000000000000000000000000000081526004016110f290613a0e565b60405180910390fd5b60008060019054906101000a900460ff16159050801561114b576001600060016101000a81548160ff02191690831515021790555060016000806101000a81548160ff0219169083151502179055505b611153611936565b61115b611a0f565b6111658383611ae8565b80156111865760008060016101000a81548160ff0219169083151502179055505b505050565b60008073ffffffffffffffffffffffffffffffffffffffff166067600084815260200190815260200160002060009054906101000a900473ffffffffffffffffffffffffffffffffffffffff1673ffffffffffffffffffffffffffffffffffffffff1614159050919050565b600033905090565b816069600083815260200190815260200160002060006101000a81548173ffffffffffffffffffffffffffffffffffffffff021916908373ffffffffffffffffffffffffffffffffffffffff160217905550808273ffffffffffffffffffffffffffffffffffffffff166112728361089d565b73ffffffffffffffffffffffffffffffffffffffff167f8c5be1e5ebec7d5bd14f71427d1e84f3dd0314c0f7b2291e5b200ac8c7c3b92560405160405180910390a45050565b60006112c38261118b565b611302576040517f08c379a00000000000000000000000000000000000000000000000000000000081526004016112f99061396e565b60405180910390fd5b600061130d8361089d565b90508073ffffffffffffffffffffffffffffffffffffffff168473ffffffffffffffffffffffffffffffffffffffff16148061137c57508373ffffffffffffffffffffffffffffffffffffffff1661136484610537565b73ffffffffffffffffffffffffffffffffffffffff16145b8061138d575061138c8185610f68565b5b91505092915050565b8273ffffffffffffffffffffffffffffffffffffffff166113b68261089d565b73ffffffffffffffffffffffffffffffffffffffff161461140c576040517f08c379a000000000000000000000000000000000000000000000000000000000815260040161140390613a8e565b60405180910390fd5b600073ffffffffffffffffffffffffffffffffffffffff168273ffffffffffffffffffffffffffffffffffffffff16141561147c576040517f08c379a00000000000000000000000000000000000000000000000000000000081526004016114739061390e565b60405180910390fd5b611487838383611bf1565b6114926000826111ff565b6001606860008573ffffffffffffffffffffffffffffffffffffffff1673ffffffffffffffffffffffffffffffffffffffff16815260200190815260200160002060008282546114e29190613d2d565b925050819055506001606860008473ffffffffffffffffffffffffffffffffffffffff1673ffffffffffffffffffffffffffffffffffffffff16815260200190815260200160002060008282546115399190613ca6565b92505081905550816067600083815260200190815260200160002060006101000a81548173ffffffffffffffffffffffffffffffffffffffff021916908373ffffffffffffffffffffffffffffffffffffffff160217905550808273ffffffffffffffffffffffffffffffffffffffff168473ffffffffffffffffffffffffffffffffffffffff167fddf252ad1be2c89b69c2b068fc378daa952ba7f163c4a11628f55a4df523b3ef60405160405180910390a4505050565b600061160f60016116016106d4565b611c0190919063ffffffff16565b905090565b61162e828260405180602001604052806000815250611c17565b5050565b61163b8261118b565b61167a576040517f08c379a0000000000000000000000000000000000000000000000000000000008152600401611671906139ee565b60405180910390fd5b806097600084815260200190815260200160002090805190602001906116a1929190612750565b505050565b6116b1848484611396565b6116bd84848484611c72565b6116fc576040517f08c379a00000000000000000000000000000000000000000000000000000000081526004016116f3906138ce565b60405180910390fd5b50505050565b606061170d8261118b565b61174c576040517f08c379a000000000000000000000000000000000000000000000000000000000815260040161174390613a4e565b60405180910390fd5b600060976000848152602001908152602001600020805461176c90613e35565b80601f016020809104026020016040519081016040528092919081815260200182805461179890613e35565b80156117e55780601f106117ba576101008083540402835291602001916117e5565b820191906000526020600020905b8154815290600101906020018083116117c857829003601f168201915b5050505050905060006117f6611e09565b905060008151141561180c57819250505061184f565b6000825111156118415780826040516020016118299291906137cb565b6040516020818303038152906040529250505061184f565b61184a84611e20565b925050505b919050565b60007f80ac58cd000000000000000000000000000000000000000000000000000000007bffffffffffffffffffffffffffffffffffffffffffffffffffffffff1916827bffffffffffffffffffffffffffffffffffffffffffffffffffffffff1916148061191f57507f5b5e139f000000000000000000000000000000000000000000000000000000007bffffffffffffffffffffffffffffffffffffffffffffffffffffffff1916827bffffffffffffffffffffffffffffffffffffffffffffffffffffffff1916145b8061192f575061192e82611ec7565b5b9050919050565b600060019054906101000a900460ff168061195c575060008054906101000a900460ff16155b61199b576040517f08c379a000000000000000000000000000000000000000000000000000000000815260040161199290613a0e565b60405180910390fd5b60008060019054906101000a900460ff1615905080156119eb576001600060016101000a81548160ff02191690831515021790555060016000806101000a81548160ff0219169083151502179055505b8015611a0c5760008060016101000a81548160ff0219169083151502179055505b50565b600060019054906101000a900460ff1680611a35575060008054906101000a900460ff16155b611a74576040517f08c379a0000000000000000000000000000000000000000000000000000000008152600401611a6b90613a0e565b60405180910390fd5b60008060019054906101000a900460ff161590508015611ac4576001600060016101000a81548160ff02191690831515021790555060016000806101000a81548160ff0219169083151502179055505b8015611ae55760008060016101000a81548160ff0219169083151502179055505b50565b600060019054906101000a900460ff1680611b0e575060008054906101000a900460ff16155b611b4d576040517f08c379a0000000000000000000000000000000000000000000000000000000008152600401611b4490613a0e565b60405180910390fd5b60008060019054906101000a900460ff161590508015611b9d576001600060016101000a81548160ff02191690831515021790555060016000806101000a81548160ff0219169083151502179055505b8260659080519060200190611bb3929190612750565b508160669080519060200190611bca929190612750565b508015611bec5760008060016101000a81548160ff0219169083151502179055505b505050565b611bfc838383611f31565b505050565b60008183611c0f9190613ca6565b905092915050565b611c218383612045565b611c2e6000848484611c72565b611c6d576040517f08c379a0000000000000000000000000000000000000000000000000000000008152600401611c64906138ce565b60405180910390fd5b505050565b6000611c938473ffffffffffffffffffffffffffffffffffffffff16612213565b15611dfc578373ffffffffffffffffffffffffffffffffffffffff1663150b7a02611cbc6111f7565b8786866040518563ffffffff1660e01b8152600401611cde949392919061380a565b602060405180830381600087803b158015611cf857600080fd5b505af1925050508015611d2957506040513d601f19601f82011682018060405250810190611d269190612d3d565b60015b611dac573d8060008114611d59576040519150601f19603f3d011682016040523d82523d6000602084013e611d5e565b606091505b50600081511415611da4576040517f08c379a0000000000000000000000000000000000000000000000000000000008152600401611d9b906138ce565b60405180910390fd5b805181602001fd5b63150b7a0260e01b7bffffffffffffffffffffffffffffffffffffffffffffffffffffffff1916817bffffffffffffffffffffffffffffffffffffffffffffffffffffffff191614915050611e01565b600190505b949350505050565b606060405180602001604052806000815250905090565b6060611e2b8261118b565b611e6a576040517f08c379a0000000000000000000000000000000000000000000000000000000008152600401611e6190613aae565b60405180910390fd5b6000611e74611e09565b90506000815111611e945760405180602001604052806000815250611ebf565b80611e9e84612226565b604051602001611eaf9291906137cb565b6040516020818303038152906040525b915050919050565b60007f01ffc9a7000000000000000000000000000000000000000000000000000000007bffffffffffffffffffffffffffffffffffffffffffffffffffffffff1916827bffffffffffffffffffffffffffffffffffffffffffffffffffffffff1916149050919050565b611f3c8383836123d3565b600073ffffffffffffffffffffffffffffffffffffffff168373ffffffffffffffffffffffffffffffffffffffff161415611f7f57611f7a816123d8565b611fbe565b8173ffffffffffffffffffffffffffffffffffffffff168373ffffffffffffffffffffffffffffffffffffffff1614611fbd57611fbc8382612421565b5b5b600073ffffffffffffffffffffffffffffffffffffffff168273ffffffffffffffffffffffffffffffffffffffff16141561200157611ffc8161258e565b612040565b8273ffffffffffffffffffffffffffffffffffffffff168273ffffffffffffffffffffffffffffffffffffffff161461203f5761203e82826126d1565b5b5b505050565b600073ffffffffffffffffffffffffffffffffffffffff168273ffffffffffffffffffffffffffffffffffffffff1614156120b5576040517f08c379a00000000000000000000000000000000000000000000000000000000081526004016120ac90613a2e565b60405180910390fd5b6120be8161118b565b156120fe576040517f08c379a00000000000000000000000000000000000000000000000000000000081526004016120f5906138ee565b60405180910390fd5b61210a60008383611bf1565b6001606860008473ffffffffffffffffffffffffffffffffffffffff1673ffffffffffffffffffffffffffffffffffffffff168152602001908152602001600020600082825461215a9190613ca6565b92505081905550816067600083815260200190815260200160002060006101000a81548173ffffffffffffffffffffffffffffffffffffffff021916908373ffffffffffffffffffffffffffffffffffffffff160217905550808273ffffffffffffffffffffffffffffffffffffffff16600073ffffffffffffffffffffffffffffffffffffffff167fddf252ad1be2c89b69c2b068fc378daa952ba7f163c4a11628f55a4df523b3ef60405160405180910390a45050565b600080823b905060008111915050919050565b6060600082141561226e576040518060400160405280600181526020017f300000000000000000000000000000000000000000000000000000000000000081525090506123ce565b600082905060005b600082146122a057808061228990613e67565b915050600a826122999190613cfc565b9150612276565b60008167ffffffffffffffff8111156122e2577f4e487b7100000000000000000000000000000000000000000000000000000000600052604160045260246000fd5b6040519080825280601f01601f1916602001820160405280156123145781602001600182028036833780820191505090505b5090505b600085146123c75760018261232d9190613d2d565b9150600a8561233c9190613eb0565b60306123489190613ca6565b60f81b818381518110612384577f4e487b7100000000000000000000000000000000000000000000000000000000600052603260045260246000fd5b60200101907effffffffffffffffffffffffffffffffffffffffffffffffffffffffffffff1916908160001a905350600a856123c09190613cfc565b9450612318565b8093505050505b919050565b505050565b60cb8054905060cc60008381526020019081526020016000208190555060cb81908060018154018082558091505060019003906000526020600020016000909190919091505550565b6000600161242e8461097a565b6124389190613d2d565b9050600060ca600084815260200190815260200160002054905081811461251d57600060c960008673ffffffffffffffffffffffffffffffffffffffff1673ffffffffffffffffffffffffffffffffffffffff16815260200190815260200160002060008481526020019081526020016000205490508060c960008773ffffffffffffffffffffffffffffffffffffffff1673ffffffffffffffffffffffffffffffffffffffff1681526020019081526020016000206000848152602001908152602001600020819055508160ca600083815260200190815260200160002081905550505b60ca60008481526020019081526020016000206000905560c960008573ffffffffffffffffffffffffffffffffffffffff1673ffffffffffffffffffffffffffffffffffffffff16815260200190815260200160002060008381526020019081526020016000206000905550505050565b6000600160cb805490506125a29190613d2d565b9050600060cc6000848152602001908152602001600020549050600060cb83815481106125f8577f4e487b7100000000000000000000000000000000000000000000000000000000600052603260045260246000fd5b906000526020600020015490508060cb8381548110612640577f4e487b7100000000000000000000000000000000000000000000000000000000600052603260045260246000fd5b90600052602060002001819055508160cc60008381526020019081526020016000208190555060cc60008581526020019081526020016000206000905560cb8054806126b5577f4e487b7100000000000000000000000000000000000000000000000000000000600052603160045260246000fd5b6001900381819060005260206000200160009055905550505050565b60006126dc8361097a565b90508160c960008573ffffffffffffffffffffffffffffffffffffffff1673ffffffffffffffffffffffffffffffffffffffff1681526020019081526020016000206000838152602001908152602001600020819055508060ca600084815260200190815260200160002081905550505050565b82805461275c90613e35565b90600052602060002090601f01602090048101928261277e57600085556127c5565b82601f1061279757805160ff19168380011785556127c5565b828001600101855582156127c5579182015b828111156127c45782518255916020019190600101906127a9565b5b5090506127d291906127d6565b5090565b5b808211156127ef5760008160009055506001016127d7565b5090565b600061280661280184613c03565b613bd2565b90508281526020810184848401111561281e57600080fd5b612829848285613df3565b509392505050565b600061284461283f84613c33565b613bd2565b90508281526020810184848401111561285c57600080fd5b612867848285613df3565b509392505050565b600061288261287d84613c33565b613bd2565b90508281526020810184848401111561289a57600080fd5b6128a5848285613e02565b509392505050565b6000813590506128bc81613fae565b92915050565b6000815190506128d181613fae565b92915050565b6000813590506128e681613fc5565b92915050565b6000815190506128fb81613fc5565b92915050565b60008135905061291081613fdc565b92915050565b60008135905061292581613ff3565b92915050565b60008151905061293a81613ff3565b92915050565b600082601f83011261295157600080fd5b81356129618482602086016127f3565b91505092915050565b600082601f83011261297b57600080fd5b813561298b848260208601612831565b91505092915050565b600082601f8301126129a557600080fd5b81516129b584826020860161286f565b91505092915050565b6000813590506129cd8161400a565b92915050565b6000815190506129e28161400a565b92915050565b6000815190506129f781614021565b92915050565b600060208284031215612a0f57600080fd5b6000612a1d848285016128ad565b91505092915050565b60008060408385031215612a3957600080fd5b6000612a47858286016128ad565b9250506020612a58858286016128ad565b9150509250929050565b600080600060608486031215612a7757600080fd5b6000612a85868287016128ad565b9350506020612a96868287016128ad565b9250506040612aa7868287016129be565b9150509250925092565b60008060008060808587031215612ac757600080fd5b6000612ad5878288016128ad565b9450506020612ae6878288016128ad565b9350506040612af7878288016129be565b925050606085013567ffffffffffffffff811115612b1457600080fd5b612b2087828801612940565b91505092959194509250565b60008060408385031215612b3f57600080fd5b6000612b4d858286016128ad565b9250506020612b5e858286016128d7565b9150509250929050565b60008060408385031215612b7b57600080fd5b6000612b89858286016128ad565b925050602083013567ffffffffffffffff811115612ba657600080fd5b612bb28582860161296a565b9150509250929050565b60008060408385031215612bcf57600080fd5b6000612bdd858286016128ad565b9250506020612bee858286016129be565b9150509250929050565b6000806000806000806000806000806101408b8d031215612c1857600080fd5b6000612c268d828e016128ec565b9a50506020612c378d828e016128c2565b9950506040612c488d828e016129d3565b9850506060612c598d828e016129d3565b97505060808b015167ffffffffffffffff811115612c7657600080fd5b612c828d828e01612994565b96505060a0612c938d828e016129d3565b95505060c0612ca48d828e016129d3565b94505060e0612cb58d828e016129e8565b935050610100612cc78d828e016128ec565b925050610120612cd98d828e016128c2565b9150509295989b9194979a5092959850565b600060208284031215612cfd57600080fd5b6000612d0b84828501612901565b91505092915050565b600060208284031215612d2657600080fd5b6000612d3484828501612916565b91505092915050565b600060208284031215612d4f57600080fd5b6000612d5d8482850161292b565b91505092915050565b600080600060608486031215612d7b57600080fd5b600084013567ffffffffffffffff811115612d9557600080fd5b612da18682870161296a565b935050602084013567ffffffffffffffff811115612dbe57600080fd5b612dca8682870161296a565b9250506040612ddb868287016128ad565b9150509250925092565b600060208284031215612df757600080fd5b6000612e05848285016129be565b91505092915050565b612e1781613d61565b82525050565b612e2681613d73565b82525050565b612e3581613d7f565b82525050565b6000612e4682613c63565b612e508185613c79565b9350612e60818560208601613e02565b612e6981613f9d565b840191505092915050565b6000612e7f82613c6e565b612e898185613c8a565b9350612e99818560208601613e02565b612ea281613f9d565b840191505092915050565b6000612eb882613c6e565b612ec28185613c9b565b9350612ed2818560208601613e02565b80840191505092915050565b6000612eeb602b83613c8a565b91507f455243373231456e756d657261626c653a206f776e657220696e646578206f7560008301527f74206f6620626f756e64730000000000000000000000000000000000000000006020830152604082019050919050565b6000612f51603283613c8a565b91507f4552433732313a207472616e7366657220746f206e6f6e20455243373231526560008301527f63656976657220696d706c656d656e74657200000000000000000000000000006020830152604082019050919050565b6000612fb7601c83613c8a565b91507f4552433732313a20746f6b656e20616c7265616479206d696e746564000000006000830152602082019050919050565b6000612ff7602483613c8a565b91507f4552433732313a207472616e7366657220746f20746865207a65726f2061646460008301527f72657373000000000000000000000000000000000000000000000000000000006020830152604082019050919050565b600061305d601983613c8a565b91507f4552433732313a20617070726f766520746f2063616c6c6572000000000000006000830152602082019050919050565b600061309d603e83613c8a565b91507f52756c6573455243373231546f6b656e3a6d696e74546f20202d20546869732060008301527f746f6b656e20686173206265656e20616c726561647920636c61696d656400006020830152604082019050919050565b6000613103602c83613c8a565b91507f4552433732313a206f70657261746f7220717565727920666f72206e6f6e657860008301527f697374656e7420746f6b656e00000000000000000000000000000000000000006020830152604082019050919050565b6000613169603883613c8a565b91507f4552433732313a20617070726f76652063616c6c6572206973206e6f74206f7760008301527f6e6572206e6f7220617070726f76656420666f7220616c6c00000000000000006020830152604082019050919050565b60006131cf602a83613c8a565b91507f4552433732313a2062616c616e636520717565727920666f7220746865207a6560008301527f726f2061646472657373000000000000000000000000000000000000000000006020830152604082019050919050565b6000613235602983613c8a565b91507f4552433732313a206f776e657220717565727920666f72206e6f6e657869737460008301527f656e7420746f6b656e00000000000000000000000000000000000000000000006020830152604082019050919050565b600061329b602e83613c8a565b91507f45524337323155524953746f726167653a2055524920736574206f66206e6f6e60008301527f6578697374656e7420746f6b656e0000000000000000000000000000000000006020830152604082019050919050565b6000613301602e83613c8a565b91507f496e697469616c697a61626c653a20636f6e747261637420697320616c72656160008301527f647920696e697469616c697a65640000000000000000000000000000000000006020830152604082019050919050565b6000613367602083613c8a565b91507f4552433732313a206d696e7420746f20746865207a65726f20616464726573736000830152602082019050919050565b60006133a7603183613c8a565b91507f45524337323155524953746f726167653a2055524920717565727920666f722060008301527f6e6f6e6578697374656e7420746f6b656e0000000000000000000000000000006020830152604082019050919050565b600061340d602c83613c8a565b91507f4552433732313a20617070726f76656420717565727920666f72206e6f6e657860008301527f697374656e7420746f6b656e00000000000000000000000000000000000000006020830152604082019050919050565b6000613473602983613c8a565b91507f4552433732313a207472616e73666572206f6620746f6b656e2074686174206960008301527f73206e6f74206f776e00000000000000000000000000000000000000000000006020830152604082019050919050565b60006134d9602f83613c8a565b91507f4552433732314d657461646174613a2055524920717565727920666f72206e6f60008301527f6e6578697374656e7420746f6b656e00000000000000000000000000000000006020830152604082019050919050565b600061353f602183613c8a565b91507f4552433732313a20617070726f76616c20746f2063757272656e74206f776e6560008301527f72000000000000000000000000000000000000000000000000000000000000006020830152604082019050919050565b60006135a5603183613c8a565b91507f4552433732313a207472616e736665722063616c6c6572206973206e6f74206f60008301527f776e6572206e6f7220617070726f7665640000000000000000000000000000006020830152604082019050919050565b600061360b602c83613c8a565b91507f455243373231456e756d657261626c653a20676c6f62616c20696e646578206f60008301527f7574206f6620626f756e647300000000000000000000000000000000000000006020830152604082019050919050565b6000613671603c83613c8a565b91507f52756c6573455243373231546f6b656e3a6d696e74546f202d2054686973207260008301527f756c65206861736e2774206265656e20617070726f76656420796574000000006020830152604082019050919050565b60006136d7604983613c8a565b91507f52756c6573455243373231546f6b656e3a6d696e74546f202d2054686973207260008301527f756c65206861736e27742072656365697665642073756666696369656e74207160208301527f756f72756d2079657400000000000000000000000000000000000000000000006040830152606082019050919050565b6000613763603683613c8a565b91507f52756c6573455243373231546f6b656e3a6d696e74546f202d2052656369706960008301527f656e7420616464726573732063616e27742062652030000000000000000000006020830152604082019050919050565b6137c581613dd5565b82525050565b60006137d78285612ead565b91506137e38284612ead565b91508190509392505050565b60006020820190506138046000830184612e0e565b92915050565b600060808201905061381f6000830187612e0e565b61382c6020830186612e0e565b61383960408301856137bc565b818103606083015261384b8184612e3b565b905095945050505050565b600060208201905061386b6000830184612e1d565b92915050565b60006020820190506138866000830184612e2c565b92915050565b600060208201905081810360008301526138a68184612e74565b905092915050565b600060208201905081810360008301526138c781612ede565b9050919050565b600060208201905081810360008301526138e781612f44565b9050919050565b6000602082019050818103600083015261390781612faa565b9050919050565b6000602082019050818103600083015261392781612fea565b9050919050565b6000602082019050818103600083015261394781613050565b9050919050565b6000602082019050818103600083015261396781613090565b9050919050565b60006020820190508181036000830152613987816130f6565b9050919050565b600060208201905081810360008301526139a78161315c565b9050919050565b600060208201905081810360008301526139c7816131c2565b9050919050565b600060208201905081810360008301526139e781613228565b9050919050565b60006020820190508181036000830152613a078161328e565b9050919050565b60006020820190508181036000830152613a27816132f4565b9050919050565b60006020820190508181036000830152613a478161335a565b9050919050565b60006020820190508181036000830152613a678161339a565b9050919050565b60006020820190508181036000830152613a8781613400565b9050919050565b60006020820190508181036000830152613aa781613466565b9050919050565b60006020820190508181036000830152613ac7816134cc565b9050919050565b60006020820190508181036000830152613ae781613532565b9050919050565b60006020820190508181036000830152613b0781613598565b9050919050565b60006020820190508181036000830152613b27816135fe565b9050919050565b60006020820190508181036000830152613b4781613664565b9050919050565b60006020820190508181036000830152613b67816136ca565b9050919050565b60006020820190508181036000830152613b8781613756565b9050919050565b6000602082019050613ba360008301846137bc565b92915050565b6000604082019050613bbe60008301856137bc565b613bcb6020830184612e0e565b9392505050565b6000604051905081810181811067ffffffffffffffff82111715613bf957613bf8613f6e565b5b8060405250919050565b600067ffffffffffffffff821115613c1e57613c1d613f6e565b5b601f19601f8301169050602081019050919050565b600067ffffffffffffffff821115613c4e57613c4d613f6e565b5b601f19601f8301169050602081019050919050565b600081519050919050565b600081519050919050565b600082825260208201905092915050565b600082825260208201905092915050565b600081905092915050565b6000613cb182613dd5565b9150613cbc83613dd5565b9250827fffffffffffffffffffffffffffffffffffffffffffffffffffffffffffffffff03821115613cf157613cf0613ee1565b5b828201905092915050565b6000613d0782613dd5565b9150613d1283613dd5565b925082613d2257613d21613f10565b5b828204905092915050565b6000613d3882613dd5565b9150613d4383613dd5565b925082821015613d5657613d55613ee1565b5b828203905092915050565b6000613d6c82613db5565b9050919050565b60008115159050919050565b6000819050919050565b60007fffffffff0000000000000000000000000000000000000000000000000000000082169050919050565b600073ffffffffffffffffffffffffffffffffffffffff82169050919050565b6000819050919050565b600067ffffffffffffffff82169050919050565b82818337600083830152505050565b60005b83811015613e20578082015181840152602081019050613e05565b83811115613e2f576000848401525b50505050565b60006002820490506001821680613e4d57607f821691505b60208210811415613e6157613e60613f3f565b5b50919050565b6000613e7282613dd5565b91507fffffffffffffffffffffffffffffffffffffffffffffffffffffffffffffffff821415613ea557613ea4613ee1565b5b600182019050919050565b6000613ebb82613dd5565b9150613ec683613dd5565b925082613ed657613ed5613f10565b5b828206905092915050565b7f4e487b7100000000000000000000000000000000000000000000000000000000600052601160045260246000fd5b7f4e487b7100000000000000000000000000000000000000000000000000000000600052601260045260246000fd5b7f4e487b7100000000000000000000000000000000000000000000000000000000600052602260045260246000fd5b7f4e487b7100000000000000000000000000000000000000000000000000000000600052604160045260246000fd5b6000601f19601f8301169050919050565b613fb781613d61565b8114613fc257600080fd5b50565b613fce81613d73565b8114613fd957600080fd5b50565b613fe581613d7f565b8114613ff057600080fd5b50565b613ffc81613d89565b811461400757600080fd5b50565b61401381613dd5565b811461401e57600080fd5b50565b61402a81613ddf565b811461403557600080fd5b5056fea2646970667358221220a0e38c7002893a4618d9edcd52c5135073fbd4fc499394878cf37731282823c664736f6c63430008000033",
  "immutableReferences": {},
  "source": "// SPDX-License-Identifier: MIT\npragma solidity =0.8.0;\n\nimport \"@openzeppelin/contracts-upgradeable/token/ERC721/ERC721Upgradeable.sol\";\nimport \"@openzeppelin/contracts-upgradeable/utils/math/SafeMathUpgradeable.sol\";\nimport \"@openzeppelin/contracts-upgradeable/token/ERC721/extensions/ERC721URIStorageUpgradeable.sol\";\nimport \"@openzeppelin/contracts-upgradeable/token/ERC721/extensions/ERC721EnumerableUpgradeable.sol\";\nimport \"../Auditchain/ValidationsNoCohort.sol\";\n\n\n/**\n * @title RulesERC721Token\n * RulesERC721Token - ERC721Upgradeable contract that and has minting functionality.\n */\ncontract RulesERC721Token is ERC721Upgradeable,  ERC721URIStorageUpgradeable, ERC721EnumerableUpgradeable\n{\n    using SafeMathUpgradeable for uint256;\n    ValidationsNoCohort validation;\n\n    mapping(bytes32 => bool) public NFTCompleted;\n    event Mint(uint256 tokenId, address recipient);\n\n    function initialize(string memory _name, string memory _symbol, address _validation) public\n        \n    {\n        __ERC721_init(_name, _symbol);\n        validation = ValidationsNoCohort(_validation);\n    }\n\n\n   function tokenURI(uint256 tokenId) public view virtual override(ERC721URIStorageUpgradeable, ERC721Upgradeable) returns (string memory) {\n       \n        return super.tokenURI(tokenId);\n    }\n     \n    function _beforeTokenTransfer(address from, address to, uint256 tokenId) internal virtual override(ERC721EnumerableUpgradeable, ERC721Upgradeable) {\n        super._beforeTokenTransfer(from, to, tokenId);\n    }\n\n\n    function supportsInterface(bytes4 interfaceId) public view virtual override(ERC721EnumerableUpgradeable, ERC721Upgradeable) returns (bool) {\n       return super.supportsInterface(interfaceId);\n\n    }\n\n    function _burn(uint256 tokenId) internal virtual override(ERC721URIStorageUpgradeable, ERC721Upgradeable) {\n        super._burn(tokenId);\n    }\n\n\n    /**\n     * @dev Mints a token to an enterprise/rule creator with a given validation hashvalidation\n     * @param _hash of the validated document\n     * @return newTokenId\n     */\n    function mintTo(bytes32 _hash)\n        public\n        returns (uint256)\n    {\n        (,address requestor,, uint256 executionTime , string memory url, uint256 consensus, , , , ) = validation.returnValidationRecord(_hash);\n        require(requestor != address(0), \"RulesERC721Token:mintTo - Recipient address can't be 0\");\n        require(executionTime > 0 , \"RulesERC721Token:mintTo - This rule hasn't been approved yet\");\n        require(consensus == 1,  \"RulesERC721Token:mintTo - This rule hasn't received sufficient quorum yet\");\n        require(!NFTCompleted[_hash], \"RulesERC721Token:mintTo  - This token has been already claimed\");\n        uint256 newTokenId = _getNextTokenId();\n        NFTCompleted[_hash] = true;\n        _safeMint(requestor, newTokenId);\n        _setTokenURI(newTokenId, url);\n        emit Mint(newTokenId, requestor);\n        return newTokenId;\n    }\n\n    function mintToPure(address user, string memory url) public returns (uint256) {\n\n        uint256 newTokenId = _getNextTokenId();\n\n        _safeMint(user, newTokenId);\n        _setTokenURI(newTokenId, url);\n        return newTokenId;\n\n    }\n\n    function _getNextTokenId() private view returns (uint256) {\n        return totalSupply().add(1);\n    }\n\n\n}\n",
  "sourcePath": "/home/win2win/eth/projects/AuditChain/Core-Smart-Contracts-v1-upgradable/contracts/NFT/RulesERC721Token.sol",
  "compiler": {
    "name": "solc",
    "version": "0.8.0+commit.c7dfd78e.Emscripten.clang"
  },
  "schemaVersion": "3.4.1",
  "updatedAt": "2022-05-03T20:34:42.837Z",
  "networkType": "ethereum",
  "devdoc": {
    "kind": "dev",
    "methods": {
      "approve(address,uint256)": {
        "details": "See {IERC721-approve}."
      },
      "balanceOf(address)": {
        "details": "See {IERC721-balanceOf}."
      },
      "getApproved(uint256)": {
        "details": "See {IERC721-getApproved}."
      },
      "isApprovedForAll(address,address)": {
        "details": "See {IERC721-isApprovedForAll}."
      },
      "mintTo(bytes32)": {
        "details": "Mints a token to an enterprise/rule creator with a given validation hashvalidation",
        "params": {
          "_hash": "of the validated document"
        },
        "returns": {
          "_0": "newTokenId"
        }
      },
      "name()": {
        "details": "See {IERC721Metadata-name}."
      },
      "ownerOf(uint256)": {
        "details": "See {IERC721-ownerOf}."
      },
      "safeTransferFrom(address,address,uint256)": {
        "details": "See {IERC721-safeTransferFrom}."
      },
      "safeTransferFrom(address,address,uint256,bytes)": {
        "details": "See {IERC721-safeTransferFrom}."
      },
      "setApprovalForAll(address,bool)": {
        "details": "See {IERC721-setApprovalForAll}."
      },
      "symbol()": {
        "details": "See {IERC721Metadata-symbol}."
      },
      "tokenByIndex(uint256)": {
        "details": "See {IERC721Enumerable-tokenByIndex}."
      },
      "tokenOfOwnerByIndex(address,uint256)": {
        "details": "See {IERC721Enumerable-tokenOfOwnerByIndex}."
      },
      "totalSupply()": {
        "details": "See {IERC721Enumerable-totalSupply}."
      },
      "transferFrom(address,address,uint256)": {
        "details": "See {IERC721-transferFrom}."
      }
    },
    "title": "RulesERC721Token RulesERC721Token - ERC721Upgradeable contract that and has minting functionality.",
    "version": 1
  },
  "userdoc": {
    "kind": "user",
    "methods": {},
    "version": 1
  }
}