{
  "contractName": "ValidationsCohort",
  "abi": [
    {
      "anonymous": false,
      "inputs": [
        {
          "indexed": false,
          "internalType": "bytes32",
          "name": "validationHash",
          "type": "bytes32"
        },
        {
          "indexed": false,
          "internalType": "address",
          "name": "winner",
          "type": "address"
        },
        {
          "indexed": false,
          "internalType": "uint256",
          "name": "pointsPlus",
          "type": "uint256"
        },
        {
          "indexed": false,
          "internalType": "uint256",
          "name": "pointsMinus",
          "type": "uint256"
        }
      ],
      "name": "PaymentProcessed",
      "type": "event"
    },
    {
      "anonymous": false,
      "inputs": [
        {
          "indexed": true,
          "internalType": "uint256",
          "name": "audits",
          "type": "uint256"
        },
        {
          "indexed": true,
          "internalType": "address",
          "name": "requestor",
          "type": "address"
        },
        {
          "indexed": true,
          "internalType": "bytes32",
          "name": "validationHash",
          "type": "bytes32"
        },
        {
          "indexed": false,
          "internalType": "bytes32",
          "name": "documentHash",
          "type": "bytes32"
        },
        {
          "indexed": false,
          "internalType": "uint256",
          "name": "consensus",
          "type": "uint256"
        },
        {
          "indexed": false,
          "internalType": "uint256",
          "name": "quorum",
          "type": "uint256"
        },
        {
          "indexed": false,
          "internalType": "uint256",
          "name": "timeExecuted",
          "type": "uint256"
        },
        {
          "indexed": false,
          "internalType": "string",
          "name": "url",
          "type": "string"
        },
        {
          "indexed": false,
          "internalType": "address[]",
          "name": "winners",
          "type": "address[]"
        }
      ],
      "name": "RequestExecuted",
      "type": "event"
    },
    {
      "anonymous": false,
      "inputs": [
        {
          "indexed": true,
          "internalType": "address",
          "name": "user",
          "type": "address"
        },
        {
          "indexed": true,
          "internalType": "bytes32",
          "name": "validationHash",
          "type": "bytes32"
        },
        {
          "indexed": false,
          "internalType": "uint256",
          "name": "initTime",
          "type": "uint256"
        },
        {
          "indexed": false,
          "internalType": "bytes32",
          "name": "documentHash",
          "type": "bytes32"
        },
        {
          "indexed": false,
          "internalType": "string",
          "name": "url",
          "type": "string"
        },
        {
          "indexed": true,
          "internalType": "enum Validations.AuditTypes",
          "name": "auditType",
          "type": "uint8"
        }
      ],
      "name": "ValidationInitialized",
      "type": "event"
    },
    {
      "anonymous": false,
      "inputs": [
        {
          "indexed": true,
          "internalType": "address",
          "name": "validator",
          "type": "address"
        },
        {
          "indexed": true,
          "internalType": "bytes32",
          "name": "documentHash",
          "type": "bytes32"
        },
        {
          "indexed": true,
          "internalType": "uint256",
          "name": "validationTime",
          "type": "uint256"
        },
        {
          "indexed": false,
          "internalType": "enum Validations.ValidationStatus",
          "name": "decision",
          "type": "uint8"
        },
        {
          "indexed": false,
          "internalType": "string",
          "name": "valUrl",
          "type": "string"
        }
      ],
      "name": "ValidatorValidated",
      "type": "event"
    },
    {
      "anonymous": false,
      "inputs": [
        {
          "indexed": false,
          "internalType": "address",
          "name": "validator",
          "type": "address"
        },
        {
          "indexed": false,
          "internalType": "address",
          "name": "winner",
          "type": "address"
        },
        {
          "indexed": false,
          "internalType": "bool",
          "name": "isValid",
          "type": "bool"
        }
      ],
      "name": "WinnerVoted",
      "type": "event"
    },
    {
      "inputs": [
        {
          "internalType": "uint256",
          "name": "",
          "type": "uint256"
        },
        {
          "internalType": "bytes32",
          "name": "",
          "type": "bytes32"
        }
      ],
      "name": "activeOperatorsStake",
      "outputs": [
        {
          "internalType": "uint256",
          "name": "",
          "type": "uint256"
        }
      ],
      "stateMutability": "view",
      "type": "function"
    },
    {
      "inputs": [],
      "name": "audits",
      "outputs": [
        {
          "internalType": "enum Validations.AuditTypes",
          "name": "",
          "type": "uint8"
        }
      ],
      "stateMutability": "view",
      "type": "function"
    },
    {
      "inputs": [],
      "name": "cohortFactory",
      "outputs": [
        {
          "internalType": "contract ICohortFactory",
          "name": "",
          "type": "address"
        }
      ],
      "stateMutability": "view",
      "type": "function"
    },
    {
      "inputs": [
        {
          "internalType": "bytes32",
          "name": "validationHash",
          "type": "bytes32"
        }
      ],
      "name": "collectValidationResults",
      "outputs": [
        {
          "internalType": "address[]",
          "name": "",
          "type": "address[]"
        },
        {
          "internalType": "uint256[]",
          "name": "",
          "type": "uint256[]"
        },
        {
          "internalType": "uint256[]",
          "name": "",
          "type": "uint256[]"
        },
        {
          "internalType": "uint256[]",
          "name": "",
          "type": "uint256[]"
        },
        {
          "internalType": "string[]",
          "name": "",
          "type": "string[]"
        },
        {
          "internalType": "bytes32[]",
          "name": "",
          "type": "bytes32[]"
        }
      ],
      "stateMutability": "view",
      "type": "function"
    },
    {
      "inputs": [],
      "name": "depositModifiers",
      "outputs": [
        {
          "internalType": "contract DepositModifiers",
          "name": "",
          "type": "address"
        }
      ],
      "stateMutability": "view",
      "type": "function"
    },
    {
      "inputs": [
        {
          "internalType": "bytes32",
          "name": "validationHash",
          "type": "bytes32"
        }
      ],
      "name": "hasVoted",
      "outputs": [
        {
          "internalType": "bool",
          "name": "",
          "type": "bool"
        }
      ],
      "stateMutability": "view",
      "type": "function"
    },
    {
      "inputs": [
        {
          "internalType": "bytes32",
          "name": "validationHash",
          "type": "bytes32"
        }
      ],
      "name": "isValidated",
      "outputs": [
        {
          "internalType": "enum Validations.ValidationStatus",
          "name": "",
          "type": "uint8"
        }
      ],
      "stateMutability": "view",
      "type": "function"
    },
    {
      "inputs": [],
      "name": "memberHelpers",
      "outputs": [
        {
          "internalType": "contract MemberHelpers",
          "name": "",
          "type": "address"
        }
      ],
      "stateMutability": "view",
      "type": "function"
    },
    {
      "inputs": [],
      "name": "members",
      "outputs": [
        {
          "internalType": "contract IMembers",
          "name": "",
          "type": "address"
        }
      ],
      "stateMutability": "view",
      "type": "function"
    },
    {
      "inputs": [],
      "name": "nodeOperations",
      "outputs": [
        {
          "internalType": "contract INodeOperations",
          "name": "",
          "type": "address"
        }
      ],
      "stateMutability": "view",
      "type": "function"
    },
    {
      "inputs": [
        {
          "internalType": "address",
          "name": "",
          "type": "address"
        }
      ],
      "name": "outstandingValidations",
      "outputs": [
        {
          "internalType": "uint256",
          "name": "",
          "type": "uint256"
        }
      ],
      "stateMutability": "view",
      "type": "function"
    },
    {
      "inputs": [],
      "name": "queue",
      "outputs": [
        {
          "internalType": "contract IQueue",
          "name": "",
          "type": "address"
        }
      ],
      "stateMutability": "view",
      "type": "function"
    },
    {
      "inputs": [],
      "name": "quorum",
      "outputs": [
        {
          "internalType": "uint256",
          "name": "",
          "type": "uint256"
        }
      ],
      "stateMutability": "view",
      "type": "function"
    },
    {
      "inputs": [],
      "name": "recentTimestamp",
      "outputs": [
        {
          "internalType": "uint256",
          "name": "",
          "type": "uint256"
        }
      ],
      "stateMutability": "view",
      "type": "function"
    },
    {
      "inputs": [],
      "name": "recentValidationHash",
      "outputs": [
        {
          "internalType": "bytes32",
          "name": "",
          "type": "bytes32"
        }
      ],
      "stateMutability": "view",
      "type": "function"
    },
    {
      "inputs": [
        {
          "internalType": "bytes32",
          "name": "validationHash",
          "type": "bytes32"
        }
      ],
      "name": "returnValidationRecord",
      "outputs": [
        {
          "internalType": "bool",
          "name": "cohort",
          "type": "bool"
        },
        {
          "internalType": "address",
          "name": "requestor",
          "type": "address"
        },
        {
          "internalType": "uint256",
          "name": "validationTime",
          "type": "uint256"
        },
        {
          "internalType": "uint256",
          "name": "executionTime",
          "type": "uint256"
        },
        {
          "internalType": "string",
          "name": "url",
          "type": "string"
        },
        {
          "internalType": "uint256",
          "name": "consensus",
          "type": "uint256"
        },
        {
          "internalType": "uint256",
          "name": "validationsCompleted",
          "type": "uint256"
        },
        {
          "internalType": "uint64",
          "name": "winnerConfirmations",
          "type": "uint64"
        },
        {
          "internalType": "bool",
          "name": "paymentSent",
          "type": "bool"
        },
        {
          "internalType": "address",
          "name": "winner",
          "type": "address"
        }
      ],
      "stateMutability": "view",
      "type": "function"
    },
    {
      "inputs": [
        {
          "internalType": "bytes32",
          "name": "validationHash",
          "type": "bytes32"
        },
        {
          "internalType": "address",
          "name": "user",
          "type": "address"
        }
      ],
      "name": "returnValidationUrl",
      "outputs": [
        {
          "internalType": "string",
          "name": "url",
          "type": "string"
        }
      ],
      "stateMutability": "view",
      "type": "function"
    },
    {
      "inputs": [
        {
          "internalType": "bytes32",
          "name": "validationHash",
          "type": "bytes32"
        },
        {
          "internalType": "address",
          "name": "user",
          "type": "address"
        }
      ],
      "name": "returnWinnerPoints",
      "outputs": [
        {
          "internalType": "uint256",
          "name": "plus",
          "type": "uint256"
        },
        {
          "internalType": "uint256",
          "name": "minus",
          "type": "uint256"
        }
      ],
      "stateMutability": "view",
      "type": "function"
    },
    {
      "inputs": [],
      "name": "validationHelpers",
      "outputs": [
        {
          "internalType": "contract IValidatinosHelpers",
          "name": "",
          "type": "address"
        }
      ],
      "stateMutability": "view",
      "type": "function"
    },
    {
      "inputs": [
        {
          "internalType": "bytes32",
          "name": "",
          "type": "bytes32"
        }
      ],
      "name": "validations",
      "outputs": [
        {
          "internalType": "bool",
          "name": "cohort",
          "type": "bool"
        },
        {
          "internalType": "address",
          "name": "requestor",
          "type": "address"
        },
        {
          "internalType": "uint256",
          "name": "validationTime",
          "type": "uint256"
        },
        {
          "internalType": "uint256",
          "name": "executionTime",
          "type": "uint256"
        },
        {
          "internalType": "string",
          "name": "url",
          "type": "string"
        },
        {
          "internalType": "uint256",
          "name": "consensus",
          "type": "uint256"
        },
        {
          "internalType": "uint256",
          "name": "validationsCompleted",
          "type": "uint256"
        },
        {
          "internalType": "enum Validations.AuditTypes",
          "name": "auditType",
          "type": "uint8"
        },
        {
          "internalType": "uint64",
          "name": "winnerConfirmations",
          "type": "uint64"
        },
        {
          "internalType": "address",
          "name": "winner",
          "type": "address"
        },
        {
          "internalType": "uint256",
          "name": "price",
          "type": "uint256"
        }
      ],
      "stateMutability": "view",
      "type": "function"
    },
    {
      "inputs": [
        {
          "internalType": "address[]",
          "name": "winners",
          "type": "address[]"
        },
        {
          "internalType": "bool[]",
          "name": "vote",
          "type": "bool[]"
        },
        {
          "internalType": "bytes32",
          "name": "validationHash",
          "type": "bytes32"
        }
      ],
      "name": "voteWinner",
      "outputs": [],
      "stateMutability": "nonpayable",
      "type": "function"
    },
    {
      "inputs": [
        {
          "internalType": "address",
          "name": "",
          "type": "address"
        },
        {
          "internalType": "bytes32",
          "name": "",
          "type": "bytes32"
        }
      ],
      "name": "votes",
      "outputs": [
        {
          "internalType": "bool",
          "name": "",
          "type": "bool"
        }
      ],
      "stateMutability": "view",
      "type": "function"
    },
    {
      "inputs": [
        {
          "internalType": "address",
          "name": "_members",
          "type": "address"
        },
        {
          "internalType": "address",
          "name": "_memberHelpers",
          "type": "address"
        },
        {
          "internalType": "address",
          "name": "_cohortFactory",
          "type": "address"
        },
        {
          "internalType": "address",
          "name": "_depositModifiers",
          "type": "address"
        },
        {
          "internalType": "address",
          "name": "_nodeOperations",
          "type": "address"
        },
        {
          "internalType": "address",
          "name": "_validationHelpers",
          "type": "address"
        },
        {
          "internalType": "address",
          "name": "_queue",
          "type": "address"
        }
      ],
      "name": "initialize",
      "outputs": [],
      "stateMutability": "nonpayable",
      "type": "function"
    },
    {
      "inputs": [
        {
          "internalType": "bytes32",
          "name": "documentHash",
          "type": "bytes32"
        },
        {
          "internalType": "string",
          "name": "url",
          "type": "string"
        },
        {
          "internalType": "enum Validations.AuditTypes",
          "name": "auditType",
          "type": "uint8"
        },
        {
          "internalType": "uint256",
          "name": "price",
          "type": "uint256"
        }
      ],
      "name": "initializeValidationCohort",
      "outputs": [],
      "stateMutability": "nonpayable",
      "type": "function"
    },
    {
      "inputs": [
        {
          "internalType": "address",
          "name": "requestor",
          "type": "address"
        },
        {
          "internalType": "uint256",
          "name": "price",
          "type": "uint256"
        }
      ],
      "name": "checkIfRequestorHasFunds",
      "outputs": [
        {
          "internalType": "bool",
          "name": "",
          "type": "bool"
        }
      ],
      "stateMutability": "nonpayable",
      "type": "function"
    },
    {
      "inputs": [
        {
          "internalType": "bytes32",
          "name": "validationHash",
          "type": "bytes32"
        }
      ],
      "name": "returnValidatorList",
      "outputs": [
        {
          "internalType": "address[]",
          "name": "",
          "type": "address[]"
        }
      ],
      "stateMutability": "view",
      "type": "function"
    },
    {
      "inputs": [
        {
          "internalType": "bytes32",
          "name": "documentHash",
          "type": "bytes32"
        },
        {
          "internalType": "uint256",
          "name": "validationTime",
          "type": "uint256"
        },
        {
          "internalType": "address",
          "name": "subscriber",
          "type": "address"
        },
        {
          "internalType": "enum Validations.ValidationStatus",
          "name": "decision",
          "type": "uint8"
        },
        {
          "internalType": "string",
          "name": "valUrl",
          "type": "string"
        },
        {
          "internalType": "bytes32",
          "name": "reportHash",
          "type": "bytes32"
        }
      ],
      "name": "validate",
      "outputs": [],
      "stateMutability": "nonpayable",
      "type": "function"
    },
    {
      "inputs": [
        {
          "internalType": "bytes32",
          "name": "validationHash",
          "type": "bytes32"
        }
      ],
      "name": "returnValidatorCount",
      "outputs": [
        {
          "internalType": "uint256",
          "name": "",
          "type": "uint256"
        }
      ],
      "stateMutability": "nonpayable",
      "type": "function"
    }
  ],
  "bytecode": "0x608060405234801561001057600080fd5b50615e3680620000216000396000f3fe608060405234801561001057600080fd5b50600436106101c45760003560e01c806371d8c7a0116100f9578063bf1db71e11610097578063e10d29ee11610071578063e10d29ee14610554578063e28c380214610572578063ee5c17d7146105ac578063f9e0853a146105dc576101c4565b8063bf1db71e146104ea578063d4632bcf1461051a578063d577832c14610536576101c4565b806399ae444a116100d357806399ae444a14610449578063b08e5d8014610467578063b39fd6cf14610497578063bdd4d18d146104cc576101c4565b806371d8c7a0146103dd578063813a4652146103fb57806395d1ca4d1461042b576101c4565b806341035f2a1161016657806356756cd71161014057806356756cd7146103255780635b3c5c4a1461035e578063613c28a11461038e57806362e23f27146103ac576101c4565b806341035f2a146102bb57806342d47412146102eb5780634bd4545f14610307576101c4565b806320120ffa116101a257806320120ffa14610247578063220dd75e1461026557806335876476146102815780633a2eb80b1461029d576101c4565b80631703a018146101c95780631b4613cb146101e75780631db5ade814610217575b600080fd5b6101d161060c565b6040516101de9190615530565b60405180910390f35b61020160048036038101906101fc919061447a565b610612565b60405161020e919061503c565b60405180910390f35b610231600480360381019061022c9190614289565b610679565b60405161023e919061503c565b60405180910390f35b61024f6106a8565b60405161025c91906152fc565b60405180910390f35b61027f600480360381019061027a91906144df565b6106ce565b005b61029b600480360381019061029691906141eb565b61084f565b005b6102a5610867565b6040516102b29190615332565b60405180910390f35b6102d560048036038101906102d0919061447a565b61088d565b6040516102e29190614f8f565b60405180910390f35b61030560048036038101906103009190614342565b6109d3565b005b61030f6111a3565b60405161031c91906152c6565b60405180910390f35b61033f600480360381019061033a919061447a565b6111c9565b6040516103559a99989796959493929190615109565b60405180910390f35b610378600480360381019061037391906144a3565b611358565b60405161038591906153ce565b60405180910390f35b610396611444565b6040516103a391906151ac565b60405180910390f35b6103c660048036038101906103c191906144a3565b61144a565b6040516103d49291906155b2565b60405180910390f35b6103e56114f4565b6040516103f2919061534d565b60405180910390f35b610415600480360381019061041091906142c5565b61151a565b604051610422919061503c565b60405180910390f35b610433611896565b60405161044091906152ab565b60405180910390f35b6104516118bc565b60405161045e9190615368565b60405180910390f35b610481600480360381019061047c9190614624565b6118cf565b60405161048e9190615530565b60405180910390f35b6104b160048036038101906104ac919061447a565b6118f4565b6040516104c396959493929190614fb1565b60405180910390f35b6104d4612316565b6040516104e191906152e1565b60405180910390f35b61050460048036038101906104ff919061447a565b61233c565b6040516105119190615383565b60405180910390f35b610534600480360381019061052f919061455a565b6123a6565b005b61053e612571565b60405161054b9190615530565b60405180910390f35b61055c612577565b6040516105699190615317565b60405180910390f35b61058c6004803603810190610587919061447a565b61259d565b6040516105a39b9a99989796959493929190615057565b60405180910390f35b6105c660048036038101906105c1919061447a565b6126ed565b6040516105d39190615530565b60405180910390f35b6105f660048036038101906105f19190614199565b612833565b6040516106039190615530565b60405180910390f35b60405481565b6000603c60003373ffffffffffffffffffffffffffffffffffffffff1673ffffffffffffffffffffffffffffffffffffffff168152602001908152602001600020600083815260200190815260200160002060009054906101000a900460ff169050919050565b603c6020528160005260406000206020528060005260406000206000915091509054906101000a900460ff1681565b603860009054906101000a900473ffffffffffffffffffffffffffffffffffffffff1681565b6106d8338261151a565b610717576040517f08c379a000000000000000000000000000000000000000000000000000000000815260040161070e90615510565b60405180910390fd5b603760009054906101000a900473ffffffffffffffffffffffffffffffffffffffff1673ffffffffffffffffffffffffffffffffffffffff1663df03d0813384600681111561078f577f4e487b7100000000000000000000000000000000000000000000000000000000600052602160045260246000fd5b6040518363ffffffff1660e01b81526004016107ac929190614f66565b60206040518083038186803b1580156107c457600080fd5b505afa1580156107d8573d6000803e3d6000fd5b505050506040513d601f19601f820116820180604052508101906107fc9190614415565b61083b576040517f08c379a0000000000000000000000000000000000000000000000000000000008152600401610832906154d0565b60405180910390fd5b61084984848460018561284b565b50505050565b61085e87878787878787612b86565b50505050505050565b603960009054906101000a900473ffffffffffffffffffffffffffffffffffffffff1681565b606060006041600084815260200190815260200160002090506000603760009054906101000a900473ffffffffffffffffffffffffffffffffffffffff1673ffffffffffffffffffffffffffffffffffffffff166302495c598360000160019054906101000a900473ffffffffffffffffffffffffffffffffffffffff168460060160009054906101000a900460ff166006811115610955577f4e487b7100000000000000000000000000000000000000000000000000000000600052602160045260246000fd5b6040518363ffffffff1660e01b8152600401610972929190614f66565b60006040518083038186803b15801561098a57600080fd5b505afa15801561099e573d6000803e3d6000fd5b505050506040513d6000823e3d601f19601f820116820180604052508101906109c79190614301565b90508092505050919050565b60026001541415610a19576040517f08c379a0000000000000000000000000000000000000000000000000000000008152600401610a10906154f0565b60405180910390fd5b6002600181905550600060416000838152602001908152602001600020905060005b84518160ff161015610e1357838160ff1681518110610a83577f4e487b7100000000000000000000000000000000000000000000000000000000600052603260045260246000fd5b602002602001015115610bb557610b28600183600a016000888560ff1681518110610ad7577f4e487b7100000000000000000000000000000000000000000000000000000000600052603260045260246000fd5b602002602001015173ffffffffffffffffffffffffffffffffffffffff1673ffffffffffffffffffffffffffffffffffffffff16815260200190815260200160002054612d5e90919063ffffffff16565b82600a016000878460ff1681518110610b6a577f4e487b7100000000000000000000000000000000000000000000000000000000600052603260045260246000fd5b602002602001015173ffffffffffffffffffffffffffffffffffffffff1673ffffffffffffffffffffffffffffffffffffffff16815260200190815260200160002081905550610cd6565b610c4d600183600b016000888560ff1681518110610bfc577f4e487b7100000000000000000000000000000000000000000000000000000000600052603260045260246000fd5b602002602001015173ffffffffffffffffffffffffffffffffffffffff1673ffffffffffffffffffffffffffffffffffffffff16815260200190815260200160002054612d5e90919063ffffffff16565b82600b016000878460ff1681518110610c8f577f4e487b7100000000000000000000000000000000000000000000000000000000600052603260045260246000fd5b602002602001015173ffffffffffffffffffffffffffffffffffffffff1673ffffffffffffffffffffffffffffffffffffffff168152602001908152602001600020819055505b6001603c60003373ffffffffffffffffffffffffffffffffffffffff1673ffffffffffffffffffffffffffffffffffffffff168152602001908152602001600020600085815260200190815260200160002060006101000a81548160ff0219169083151502179055507f7bfe96c39755f2a1ee6120326dcd0a14a7f1931a8ce8f4f08675b9d74f7ca93633868360ff1681518110610d9d577f4e487b7100000000000000000000000000000000000000000000000000000000600052603260045260246000fd5b6020026020010151868460ff1681518110610de1577f4e487b7100000000000000000000000000000000000000000000000000000000600052603260045260246000fd5b6020026020010151604051610df893929190614e98565b60405180910390a18080610e0b90615bdd565b915050610a3b565b5080600d01600081819054906101000a900467ffffffffffffffff1680929190610e3c90615bac565b91906101000a81548167ffffffffffffffff021916908367ffffffffffffffff160217905550506000610e6e836126ed565b9050600081606484600d0160009054906101000a900467ffffffffffffffff16610e98919061589b565b67ffffffffffffffff16610eac9190615810565b9050603360009054906101000a900473ffffffffffffffffffffffffffffffffffffffff1673ffffffffffffffffffffffffffffffffffffffff16637036014e6040518163ffffffff1660e01b8152600401602060405180830381600087803b158015610f1857600080fd5b505af1158015610f2c573d6000803e3d6000fd5b505050506040513d601f19601f82011682018060405250810190610f5091906145fb565b8110158015610faf5750600073ffffffffffffffffffffffffffffffffffffffff1683600d0160089054906101000a900473ffffffffffffffffffffffffffffffffffffffff1673ffffffffffffffffffffffffffffffffffffffff16145b15611194576000603960009054906101000a900473ffffffffffffffffffffffffffffffffffffffff1673ffffffffffffffffffffffffffffffffffffffff16639dd4640286896040518363ffffffff1660e01b815260040161101392919061520c565b60206040518083038186803b15801561102b57600080fd5b505afa15801561103f573d6000803e3d6000fd5b505050506040513d601f19601f8201168201806040525081019061106391906141c2565b90508084600d0160086101000a81548173ffffffffffffffffffffffffffffffffffffffff021916908373ffffffffffffffffffffffffffffffffffffffff1602179055506110b28582612d74565b603460009054906101000a900473ffffffffffffffffffffffffffffffffffffffff1673ffffffffffffffffffffffffffffffffffffffff166348792674866040518263ffffffff1660e01b815260040161110d91906151ac565b602060405180830381600087803b15801561112757600080fd5b505af115801561113b573d6000803e3d6000fd5b505050506040513d601f19601f8201168201806040525081019061115f9190614415565b611192577f4e487b7100000000000000000000000000000000000000000000000000000000600052600160045260246000fd5b505b50505060018081905550505050565b603760009054906101000a900473ffffffffffffffffffffffffffffffffffffffff1681565b6000806000806060600080600080600080604160008d815260200190815260200160002090508060000160009054906101000a900460ff169a508060000160019054906101000a900473ffffffffffffffffffffffffffffffffffffffff169950806001015498508060020154975080600301805461124790615b31565b80601f016020809104026020016040519081016040528092919081815260200182805461127390615b31565b80156112c05780601f10611295576101008083540402835291602001916112c0565b820191906000526020600020905b8154815290600101906020018083116112a357829003601f168201915b50505050509650806004015495508060050154945080600d0160009054906101000a900467ffffffffffffffff16935080600d0160089054906101000a900473ffffffffffffffffffffffffffffffffffffffff169150600073ffffffffffffffffffffffffffffffffffffffff168273ffffffffffffffffffffffffffffffffffffffff1614159250509193959799509193959799565b606060006041600085815260200190815260200160002090508060090160008473ffffffffffffffffffffffffffffffffffffffff1673ffffffffffffffffffffffffffffffffffffffff16815260200190815260200160002080546113bd90615b31565b80601f01602080910402602001604051908101604052809291908181526020018280546113e990615b31565b80156114365780601f1061140b57610100808354040283529160200191611436565b820191906000526020600020905b81548152906001019060200180831161141957829003601f168201915b505050505091505092915050565b603f5481565b600080600060416000868152602001908152602001600020905080600a0160008573ffffffffffffffffffffffffffffffffffffffff1673ffffffffffffffffffffffffffffffffffffffff16815260200190815260200160002054925080600b0160008573ffffffffffffffffffffffffffffffffffffffff1673ffffffffffffffffffffffffffffffffffffffff168152602001908152602001600020549150509250929050565b603560009054906101000a900473ffffffffffffffffffffffffffffffffffffffff1681565b600080603a60008573ffffffffffffffffffffffffffffffffffffffff1673ffffffffffffffffffffffffffffffffffffffff1681526020019081526020016000205411156117cf5761171c606461170e603360009054906101000a900473ffffffffffffffffffffffffffffffffffffffff1673ffffffffffffffffffffffffffffffffffffffff1663a7579be86040518163ffffffff1660e01b8152600401602060405180830381600087803b1580156115d557600080fd5b505af11580156115e9573d6000803e3d6000fd5b505050506040513d601f19601f8201168201806040525081019061160d91906145fb565b611700603a60008973ffffffffffffffffffffffffffffffffffffffff1673ffffffffffffffffffffffffffffffffffffffff16815260200190815260200160002054603360009054906101000a900473ffffffffffffffffffffffffffffffffffffffff1673ffffffffffffffffffffffffffffffffffffffff16634d9c798c6040518163ffffffff1660e01b8152600401602060405180830381600087803b1580156116ba57600080fd5b505af11580156116ce573d6000803e3d6000fd5b505050506040513d601f19601f820116820180604052508101906116f291906145fb565b612fe290919063ffffffff16565b612fe290919063ffffffff16565b612ff890919063ffffffff16565b603560009054906101000a900473ffffffffffffffffffffffffffffffffffffffff1673ffffffffffffffffffffffffffffffffffffffff1663fc7e286d856040518263ffffffff1660e01b81526004016117779190614e7d565b60206040518083038186803b15801561178f57600080fd5b505afa1580156117a3573d6000803e3d6000fd5b505050506040513d601f19601f820116820180604052508101906117c791906145fb565b119050611890565b6000603560009054906101000a900473ffffffffffffffffffffffffffffffffffffffff1673ffffffffffffffffffffffffffffffffffffffff1663fc7e286d856040518263ffffffff1660e01b815260040161182c9190614e7d565b60206040518083038186803b15801561184457600080fd5b505afa158015611858573d6000803e3d6000fd5b505050506040513d601f19601f8201168201806040525081019061187c91906145fb565b141561188b5760009050611890565b600190505b92915050565b603660009054906101000a900473ffffffffffffffffffffffffffffffffffffffff1681565b603b60009054906101000a900460ff1681565b603d602052816000526040600020602052806000526040600020600091509150505481565b606080606080606080600080604160008a8152602001908152602001600020905060006119208a61088d565b90506000826005015467ffffffffffffffff811115611968577f4e487b7100000000000000000000000000000000000000000000000000000000600052604160045260246000fd5b6040519080825280602002602001820160405280156119965781602001602082028036833780820191505090505b5090506000836005015467ffffffffffffffff8111156119df577f4e487b7100000000000000000000000000000000000000000000000000000000600052604160045260246000fd5b604051908082528060200260200182016040528015611a0d5781602001602082028036833780820191505090505b5090506000846005015467ffffffffffffffff811115611a56577f4e487b7100000000000000000000000000000000000000000000000000000000600052604160045260246000fd5b604051908082528060200260200182016040528015611a845781602001602082028036833780820191505090505b5090506000856005015467ffffffffffffffff811115611acd577f4e487b7100000000000000000000000000000000000000000000000000000000600052604160045260246000fd5b604051908082528060200260200182016040528015611afb5781602001602082028036833780820191505090505b5090506000866005015467ffffffffffffffff811115611b44577f4e487b7100000000000000000000000000000000000000000000000000000000600052604160045260246000fd5b604051908082528060200260200182016040528015611b7757816020015b6060815260200190600190039081611b625790505b5090506000876005015467ffffffffffffffff811115611bc0577f4e487b7100000000000000000000000000000000000000000000000000000000600052604160045260246000fd5b604051908082528060200260200182016040528015611bee5781602001602082028036833780820191505090505b50905060005b87518110156122f15760006002811115611c37577f4e487b7100000000000000000000000000000000000000000000000000000000600052602160045260246000fd5b8960070160008a8481518110611c76577f4e487b7100000000000000000000000000000000000000000000000000000000600052603260045260246000fd5b602002602001015173ffffffffffffffffffffffffffffffffffffffff1673ffffffffffffffffffffffffffffffffffffffff16815260200190815260200160002060009054906101000a900460ff166002811115611cfe577f4e487b7100000000000000000000000000000000000000000000000000000000600052602160045260246000fd5b146122de57603560009054906101000a900473ffffffffffffffffffffffffffffffffffffffff1673ffffffffffffffffffffffffffffffffffffffff16638319d390898381518110611d7a577f4e487b7100000000000000000000000000000000000000000000000000000000600052603260045260246000fd5b60200260200101516040518263ffffffff1660e01b8152600401611d9e9190614e7d565b60206040518083038186803b158015611db657600080fd5b505afa158015611dca573d6000803e3d6000fd5b505050506040513d601f19601f82011682018060405250810190611dee91906145fb565b868b81518110611e27577f4e487b7100000000000000000000000000000000000000000000000000000000600052603260045260246000fd5b602002602001018181525050886007016000898381518110611e72577f4e487b7100000000000000000000000000000000000000000000000000000000600052603260045260246000fd5b602002602001015173ffffffffffffffffffffffffffffffffffffffff1673ffffffffffffffffffffffffffffffffffffffff16815260200190815260200160002060009054906101000a900460ff166002811115611efa577f4e487b7100000000000000000000000000000000000000000000000000000000600052602160045260246000fd5b858b81518110611f33577f4e487b7100000000000000000000000000000000000000000000000000000000600052603260045260246000fd5b602002602001018181525050886008016000898381518110611f7e577f4e487b7100000000000000000000000000000000000000000000000000000000600052603260045260246000fd5b602002602001015173ffffffffffffffffffffffffffffffffffffffff1673ffffffffffffffffffffffffffffffffffffffff16815260200190815260200160002054848b81518110611ffa577f4e487b7100000000000000000000000000000000000000000000000000000000600052603260045260246000fd5b602002602001018181525050886009016000898381518110612045577f4e487b7100000000000000000000000000000000000000000000000000000000600052603260045260246000fd5b602002602001015173ffffffffffffffffffffffffffffffffffffffff1673ffffffffffffffffffffffffffffffffffffffff168152602001908152602001600020805461209290615b31565b80601f01602080910402602001604051908101604052809291908181526020018280546120be90615b31565b801561210b5780601f106120e05761010080835404028352916020019161210b565b820191906000526020600020905b8154815290600101906020018083116120ee57829003601f168201915b5050505050838b81518110612149577f4e487b7100000000000000000000000000000000000000000000000000000000600052603260045260246000fd5b602002602001018190525087818151811061218d577f4e487b7100000000000000000000000000000000000000000000000000000000600052603260045260246000fd5b6020026020010151878b815181106121ce577f4e487b7100000000000000000000000000000000000000000000000000000000600052603260045260246000fd5b602002602001019073ffffffffffffffffffffffffffffffffffffffff16908173ffffffffffffffffffffffffffffffffffffffff168152505088600c016000898381518110612247577f4e487b7100000000000000000000000000000000000000000000000000000000600052603260045260246000fd5b602002602001015173ffffffffffffffffffffffffffffffffffffffff1673ffffffffffffffffffffffffffffffffffffffff16815260200190815260200160002054828b815181106122c3577f4e487b7100000000000000000000000000000000000000000000000000000000600052603260045260246000fd5b60200260200101818152505089806122da90615b63565b9a50505b80806122e990615b63565b915050611bf4565b508585858585859e509e509e509e509e509e5050505050505050505091939550919395565b603360009054906101000a900473ffffffffffffffffffffffffffffffffffffffff1681565b60006041600083815260200190815260200160002060070160003373ffffffffffffffffffffffffffffffffffffffff1673ffffffffffffffffffffffffffffffffffffffff16815260200190815260200160002060009054906101000a900460ff169050919050565b60008686866040516020016123bd93929190614e40565b6040516020818303038152906040528051906020012090506000604160008381526020019081526020016000209050600080603760009054906101000a900473ffffffffffffffffffffffffffffffffffffffff1673ffffffffffffffffffffffffffffffffffffffff16636df853458460000160019054906101000a900473ffffffffffffffffffffffffffffffffffffffff16338660060160009054906101000a900460ff16600681111561249d577f4e487b7100000000000000000000000000000000000000000000000000000000600052602160045260246000fd5b6040518463ffffffff1660e01b81526004016124bb93929190614f06565b604080518083038186803b1580156124d257600080fd5b505afa1580156124e6573d6000803e3d6000fd5b505050506040513d601f19601f8201168201806040525081019061250a919061443e565b915091508180156125185750805b612557576040517f08c379a000000000000000000000000000000000000000000000000000000000815260040161254e90615490565b60405180910390fd5b6125658a8a8a8a8a8a61300e565b50505050505050505050565b603e5481565b603460009054906101000a900473ffffffffffffffffffffffffffffffffffffffff1681565b60416020528060005260406000206000915090508060000160009054906101000a900460ff16908060000160019054906101000a900473ffffffffffffffffffffffffffffffffffffffff169080600101549080600201549080600301805461260590615b31565b80601f016020809104026020016040519081016040528092919081815260200182805461263190615b31565b801561267e5780601f106126535761010080835404028352916020019161267e565b820191906000526020600020905b81548152906001019060200180831161266157829003601f168201915b5050505050908060040154908060050154908060060160009054906101000a900460ff169080600d0160009054906101000a900467ffffffffffffffff169080600d0160089054906101000a900473ffffffffffffffffffffffffffffffffffffffff169080600e015490508b565b6000806041600084815260200190815260200160002090506000603760009054906101000a900473ffffffffffffffffffffffffffffffffffffffff1673ffffffffffffffffffffffffffffffffffffffff166302495c598360000160019054906101000a900473ffffffffffffffffffffffffffffffffffffffff168460060160009054906101000a900460ff1660068111156127b4577f4e487b7100000000000000000000000000000000000000000000000000000000600052602160045260246000fd5b6040518363ffffffff1660e01b81526004016127d1929190614f66565b60006040518083038186803b1580156127e957600080fd5b505afa1580156127fd573d6000803e3d6000fd5b505050506040513d6000823e3d601f19601f820116820180604052508101906128269190614301565b9050805192505050919050565b603a6020528060005260406000206000915090505481565b6000602060ff1611612892576040517f08c379a000000000000000000000000000000000000000000000000000000000815260040161288990615410565b60405180910390fd5b600042905060008682336040516020016128ae93929190614e40565b604051602081830303815290604052805190602001209050603a60003373ffffffffffffffffffffffffffffffffffffffff1673ffffffffffffffffffffffffffffffffffffffff168152602001908152602001600020600081548092919061291690615b63565b919050555060006041600083815260200190815260200160002090508681600301908051906020019061294a929190613e0f565b50828160010181905550338160000160016101000a81548173ffffffffffffffffffffffffffffffffffffffff021916908373ffffffffffffffffffffffffffffffffffffffff160217905550858160060160006101000a81548160ff021916908360068111156129e4577f4e487b7100000000000000000000000000000000000000000000000000000000600052602160045260246000fd5b0217905550848160000160006101000a81548160ff0219169083151502179055508381600e0181905550603460009054906101000a900473ffffffffffffffffffffffffffffffffffffffff1673ffffffffffffffffffffffffffffffffffffffff1663f7c15fc885846040518363ffffffff1660e01b8152600401612a6b92919061554b565b602060405180830381600087803b158015612a8557600080fd5b505af1158015612a99573d6000803e3d6000fd5b505050506040513d601f19601f82011682018060405250810190612abd9190614415565b612af0577f4e487b7100000000000000000000000000000000000000000000000000000000600052600160045260246000fd5b856006811115612b29577f4e487b7100000000000000000000000000000000000000000000000000000000600052602160045260246000fd5b823373ffffffffffffffffffffffffffffffffffffffff167f0dbeddfe9d39098957269db428a8da4b30b5f27a77cce961d530be73e35879d3868c8c604051612b7493929190615574565b60405180910390a45050505050505050565b86603360006101000a81548173ffffffffffffffffffffffffffffffffffffffff021916908373ffffffffffffffffffffffffffffffffffffffff16021790555085603560006101000a81548173ffffffffffffffffffffffffffffffffffffffff021916908373ffffffffffffffffffffffffffffffffffffffff16021790555084603760006101000a81548173ffffffffffffffffffffffffffffffffffffffff021916908373ffffffffffffffffffffffffffffffffffffffff16021790555083603660006101000a81548173ffffffffffffffffffffffffffffffffffffffff021916908373ffffffffffffffffffffffffffffffffffffffff16021790555082603860006101000a81548173ffffffffffffffffffffffffffffffffffffffff021916908373ffffffffffffffffffffffffffffffffffffffff16021790555081603960006101000a81548173ffffffffffffffffffffffffffffffffffffffff021916908373ffffffffffffffffffffffffffffffffffffffff16021790555080603460006101000a81548173ffffffffffffffffffffffffffffffffffffffff021916908373ffffffffffffffffffffffffffffffffffffffff160217905550606460408190555050505050505050565b60008183612d6c91906157ba565b905092915050565b6000604160008481526020019081526020016000209050612e026001603a60008460000160019054906101000a900473ffffffffffffffffffffffffffffffffffffffff1673ffffffffffffffffffffffffffffffffffffffff1673ffffffffffffffffffffffffffffffffffffffff16815260200190815260200160002054613b5590919063ffffffff16565b603a60008360000160019054906101000a900473ffffffffffffffffffffffffffffffffffffffff1673ffffffffffffffffffffffffffffffffffffffff1673ffffffffffffffffffffffffffffffffffffffff16815260200190815260200160002081905550603660009054906101000a900473ffffffffffffffffffffffffffffffffffffffff1673ffffffffffffffffffffffffffffffffffffffff1663a5cfbb31838360000160019054906101000a900473ffffffffffffffffffffffffffffffffffffffff16866040518463ffffffff1660e01b8152600401612eec93929190614ecf565b600060405180830381600087803b158015612f0657600080fd5b505af1158015612f1a573d6000803e3d6000fd5b505050507f9a856ce2140763bf5c60c4782eca2bb7700a1492350b575c4455066ce05bfe9c838383600a0160008673ffffffffffffffffffffffffffffffffffffffff1673ffffffffffffffffffffffffffffffffffffffff1681526020019081526020016000205484600b0160008773ffffffffffffffffffffffffffffffffffffffff1673ffffffffffffffffffffffffffffffffffffffff16815260200190815260200160002054604051612fd594939291906151c7565b60405180910390a1505050565b60008183612ff09190615841565b905092915050565b600081836130069190615810565b905092915050565b60026001541415613054576040517f08c379a000000000000000000000000000000000000000000000000000000000815260040161304b906154f0565b60405180910390fd5b6002600181905550600086868660405160200161307393929190614e40565b6040516020818303038152906040528051906020012090506000604160008381526020019081526020016000209050603360009054906101000a900473ffffffffffffffffffffffffffffffffffffffff1673ffffffffffffffffffffffffffffffffffffffff16636f9cf985336001600281111561311b577f4e487b7100000000000000000000000000000000000000000000000000000000600052602160045260246000fd5b6040518363ffffffff1660e01b8152600401613138929190614f3d565b602060405180830381600087803b15801561315257600080fd5b505af1158015613166573d6000803e3d6000fd5b505050506040513d601f19601f8201168201806040525081019061318a9190614415565b6131c9576040517f08c379a00000000000000000000000000000000000000000000000000000000081526004016131c0906153f0565b60405180910390fd5b8681600101541461320f576040517f08c379a000000000000000000000000000000000000000000000000000000000815260040161320690615470565b60405180910390fd5b60006002811115613249577f4e487b7100000000000000000000000000000000000000000000000000000000600052602160045260246000fd5b8160070160003373ffffffffffffffffffffffffffffffffffffffff1673ffffffffffffffffffffffffffffffffffffffff16815260200190815260200160002060009054906101000a900460ff1660028111156132d0577f4e487b7100000000000000000000000000000000000000000000000000000000600052602160045260246000fd5b14613310576040517f08c379a000000000000000000000000000000000000000000000000000000000815260040161330790615450565b60405180910390fd5b600073ffffffffffffffffffffffffffffffffffffffff16603860009054906101000a900473ffffffffffffffffffffffffffffffffffffffff1673ffffffffffffffffffffffffffffffffffffffff1663cfe02b89336040518263ffffffff1660e01b81526004016133839190614e7d565b60206040518083038186803b15801561339b57600080fd5b505afa1580156133af573d6000803e3d6000fd5b505050506040513d601f19601f820116820180604052508101906133d391906141c2565b73ffffffffffffffffffffffffffffffffffffffff1614613429576040517f08c379a000000000000000000000000000000000000000000000000000000000815260040161342090615430565b60405180910390fd5b603860009054906101000a900473ffffffffffffffffffffffffffffffffffffffff1673ffffffffffffffffffffffffffffffffffffffff1663105fd470336040518263ffffffff1660e01b81526004016134849190614e7d565b60206040518083038186803b15801561349c57600080fd5b505afa1580156134b0573d6000803e3d6000fd5b505050506040513d601f19601f820116820180604052508101906134d49190614415565b613513576040517f08c379a000000000000000000000000000000000000000000000000000000000815260040161350a906154b0565b60405180910390fd5b848160070160003373ffffffffffffffffffffffffffffffffffffffff1673ffffffffffffffffffffffffffffffffffffffff16815260200190815260200160002060006101000a81548160ff0219169083600281111561359d577f4e487b7100000000000000000000000000000000000000000000000000000000600052602160045260246000fd5b0217905550428160080160003373ffffffffffffffffffffffffffffffffffffffff1673ffffffffffffffffffffffffffffffffffffffff16815260200190815260200160002081905550838160090160003373ffffffffffffffffffffffffffffffffffffffff1673ffffffffffffffffffffffffffffffffffffffff168152602001908152602001600020908051906020019061363d929190613e0f565b508281600c0160003373ffffffffffffffffffffffffffffffffffffffff1673ffffffffffffffffffffffffffffffffffffffff1681526020019081526020016000208190555080600501600081548092919061369990615b63565b91905055506000603560009054906101000a900473ffffffffffffffffffffffffffffffffffffffff1673ffffffffffffffffffffffffffffffffffffffff16638319d390336040518263ffffffff1660e01b81526004016136fb9190614e7d565b60206040518083038186803b15801561371357600080fd5b505afa158015613727573d6000803e3d6000fd5b505050506040513d601f19601f8201168201806040525081019061374b91906145fb565b905080603d6000846001015481526020019081526020016000206000858152602001908152602001600020600082825461378591906157ba565b925050819055508160080160003373ffffffffffffffffffffffffffffffffffffffff1673ffffffffffffffffffffffffffffffffffffffff16815260200190815260200160002054893373ffffffffffffffffffffffffffffffffffffffff167f4b29a3ed7e349f58641b48e385088f3e9ac94e5d63b51319f463ba16e6e6ba73898960405161381792919061539e565b60405180910390a46000603e54118015613835575060008260020154145b156138ac576138a5603d6000603e5481526020019081526020016000206000603f548152602001908152602001600020546064603d60008c81526020019081526020016000206000878152602001908152602001600020546138979190615841565b612ff890919063ffffffff16565b6040819055505b603360009054906101000a900473ffffffffffffffffffffffffffffffffffffffff1673ffffffffffffffffffffffffffffffffffffffff16637036014e6040518163ffffffff1660e01b8152600401602060405180830381600087803b15801561391657600080fd5b505af115801561392a573d6000803e3d6000fd5b505050506040513d601f19601f8201168201806040525081019061394e91906145fb565b60405410158061396057506064604054145b8015613970575060008260020154145b1561398357613982838a604054613b6b565b5b603860009054906101000a900473ffffffffffffffffffffffffffffffffffffffff1673ffffffffffffffffffffffffffffffffffffffff166375416a6b336040518263ffffffff1660e01b81526004016139de9190614e7d565b602060405180830381600087803b1580156139f857600080fd5b505af1158015613a0c573d6000803e3d6000fd5b505050506040513d601f19601f82011682018060405250810190613a309190614415565b613a63577f4e487b7100000000000000000000000000000000000000000000000000000000600052600160045260246000fd5b603860009054906101000a900473ffffffffffffffffffffffffffffffffffffffff1673ffffffffffffffffffffffffffffffffffffffff1663ed1b4f9b336040518263ffffffff1660e01b8152600401613abe9190614e7d565b602060405180830381600087803b158015613ad857600080fd5b505af1158015613aec573d6000803e3d6000fd5b505050506040513d601f19601f82011682018060405250810190613b109190614415565b613b43577f4e487b7100000000000000000000000000000000000000000000000000000000600052600160045260246000fd5b50505060018081905550505050505050565b60008183613b6391906158dd565b905092915050565b6000604160008581526020019081526020016000209050428160020181905550600080603960009054906101000a900473ffffffffffffffffffffffffffffffffffffffff1673ffffffffffffffffffffffffffffffffffffffff1663a4c46cc0876040518263ffffffff1660e01b8152600401613be991906151ac565b60006040518083038186803b158015613c0157600080fd5b505afa158015613c15573d6000803e3d6000fd5b505050506040513d6000823e3d601f19601f82011682018060405250810190613c3e91906143c1565b915091508083600401819055508260010154603e8190555085603f81905550603460009054906101000a900473ffffffffffffffffffffffffffffffffffffffff1673ffffffffffffffffffffffffffffffffffffffff166335fda3ae876040518263ffffffff1660e01b8152600401613cb891906151ac565b602060405180830381600087803b158015613cd257600080fd5b505af1158015613ce6573d6000803e3d6000fd5b505050506040513d601f19601f82011682018060405250810190613d0a9190614415565b613d3d577f4e487b7100000000000000000000000000000000000000000000000000000000600052600160045260246000fd5b858360000160019054906101000a900473ffffffffffffffffffffffffffffffffffffffff1673ffffffffffffffffffffffffffffffffffffffff168460060160009054906101000a900460ff166006811115613dc3577f4e487b7100000000000000000000000000000000000000000000000000000000600052602160045260246000fd5b7fe03e992493c423b331e1dad96e612b25875b27d3b641b9bea71da12a87863514888589428a6003018a604051613dff9695949392919061523c565b60405180910390a4505050505050565b828054613e1b90615b31565b90600052602060002090601f016020900481019282613e3d5760008555613e84565b82601f10613e5657805160ff1916838001178555613e84565b82800160010185558215613e84579182015b82811115613e83578251825591602001919060010190613e68565b5b509050613e919190613e95565b5090565b5b80821115613eae576000816000905550600101613e96565b5090565b6000613ec5613ec08461560c565b6155db565b90508083825260208201905082856020860282011115613ee457600080fd5b60005b85811015613f145781613efa8882614034565b845260208401935060208301925050600181019050613ee7565b5050509392505050565b6000613f31613f2c8461560c565b6155db565b90508083825260208201905082856020860282011115613f5057600080fd5b60005b85811015613f805781613f668882614049565b845260208401935060208301925050600181019050613f53565b5050509392505050565b6000613f9d613f9884615638565b6155db565b90508083825260208201905082856020860282011115613fbc57600080fd5b60005b85811015613fec5781613fd288826140dc565b845260208401935060208301925050600181019050613fbf565b5050509392505050565b600061400961400484615664565b6155db565b90508281526020810184848401111561402157600080fd5b61402c848285615aef565b509392505050565b60008135905061404381615d84565b92915050565b60008151905061405881615d84565b92915050565b600082601f83011261406f57600080fd5b813561407f848260208601613eb2565b91505092915050565b600082601f83011261409957600080fd5b81516140a9848260208601613f1e565b91505092915050565b600082601f8301126140c357600080fd5b81356140d3848260208601613f8a565b91505092915050565b6000813590506140eb81615d9b565b92915050565b60008151905061410081615d9b565b92915050565b60008135905061411581615db2565b92915050565b60008135905061412a81615dc9565b92915050565b60008135905061413f81615dd9565b92915050565b600082601f83011261415657600080fd5b8135614166848260208601613ff6565b91505092915050565b60008135905061417e81615de9565b92915050565b60008151905061419381615de9565b92915050565b6000602082840312156141ab57600080fd5b60006141b984828501614034565b91505092915050565b6000602082840312156141d457600080fd5b60006141e284828501614049565b91505092915050565b600080600080600080600060e0888a03121561420657600080fd5b60006142148a828b01614034565b97505060206142258a828b01614034565b96505060406142368a828b01614034565b95505060606142478a828b01614034565b94505060806142588a828b01614034565b93505060a06142698a828b01614034565b92505060c061427a8a828b01614034565b91505092959891949750929550565b6000806040838503121561429c57600080fd5b60006142aa85828601614034565b92505060206142bb85828601614106565b9150509250929050565b600080604083850312156142d857600080fd5b60006142e685828601614034565b92505060206142f78582860161416f565b9150509250929050565b60006020828403121561431357600080fd5b600082015167ffffffffffffffff81111561432d57600080fd5b61433984828501614088565b91505092915050565b60008060006060848603121561435757600080fd5b600084013567ffffffffffffffff81111561437157600080fd5b61437d8682870161405e565b935050602084013567ffffffffffffffff81111561439a57600080fd5b6143a6868287016140b2565b92505060406143b786828701614106565b9150509250925092565b600080604083850312156143d457600080fd5b600083015167ffffffffffffffff8111156143ee57600080fd5b6143fa85828601614088565b925050602061440b85828601614184565b9150509250929050565b60006020828403121561442757600080fd5b6000614435848285016140f1565b91505092915050565b6000806040838503121561445157600080fd5b600061445f858286016140f1565b9250506020614470858286016140f1565b9150509250929050565b60006020828403121561448c57600080fd5b600061449a84828501614106565b91505092915050565b600080604083850312156144b657600080fd5b60006144c485828601614106565b92505060206144d585828601614034565b9150509250929050565b600080600080608085870312156144f557600080fd5b600061450387828801614106565b945050602085013567ffffffffffffffff81111561452057600080fd5b61452c87828801614145565b935050604061453d8782880161411b565b925050606061454e8782880161416f565b91505092959194509250565b60008060008060008060c0878903121561457357600080fd5b600061458189828a01614106565b965050602061459289828a0161416f565b95505060406145a389828a01614034565b94505060606145b489828a01614130565b935050608087013567ffffffffffffffff8111156145d157600080fd5b6145dd89828a01614145565b92505060a06145ee89828a01614106565b9150509295509295509295565b60006020828403121561460d57600080fd5b600061461b84828501614184565b91505092915050565b6000806040838503121561463757600080fd5b60006146458582860161416f565b925050602061465685828601614106565b9150509250929050565b600061466c83836146bc565b60208301905092915050565b6000614684838361488f565b60208301905092915050565b600061469c838361495a565b905092915050565b60006146b08383614dfc565b60208301905092915050565b6146c581615911565b82525050565b6146d481615911565b82525050565b6146eb6146e682615911565b615c07565b82525050565b60006146fc826156e9565b6147068185615754565b935061471183615694565b8060005b838110156147425781516147298882614660565b975061473483615720565b925050600181019050614715565b5085935050505092915050565b600061475a826156f4565b6147648185615765565b935061476f836156a4565b8060005b838110156147a05781516147878882614678565b97506147928361572d565b925050600181019050614773565b5085935050505092915050565b60006147b8826156ff565b6147c28185615776565b9350836020820285016147d4856156b4565b8060005b8581101561481057848403895281516147f18582614690565b94506147fc8361573a565b925060208a019950506001810190506147d8565b50829750879550505050505092915050565b600061482d8261570a565b6148378185615787565b9350614842836156c4565b8060005b8381101561487357815161485a88826146a4565b975061486583615747565b925050600181019050614846565b5085935050505092915050565b61488981615923565b82525050565b6148988161592f565b82525050565b6148a78161592f565b82525050565b6148be6148b98261592f565b615c19565b82525050565b6148cd816159bd565b82525050565b6148dc816159e1565b82525050565b6148eb81615a05565b82525050565b6148fa81615a29565b82525050565b61490981615a4d565b82525050565b61491881615a71565b82525050565b61492781615a95565b82525050565b61493681615ab9565b82525050565b61494581615acb565b82525050565b61495481615add565b82525050565b600061496582615715565b61496f8185615798565b935061497f818560208601615afe565b61498881615d2a565b840191505092915050565b600061499e82615715565b6149a881856157a9565b93506149b8818560208601615afe565b6149c181615d2a565b840191505092915050565b600081546149d981615b31565b6149e381866157a9565b945060018216600081146149fe5760018114614a1057614a43565b60ff1983168652602086019350614a43565b614a19856156d4565b60005b83811015614a3b57815481890152600182019150602081019050614a1c565b808801955050505b50505092915050565b6000614a59601c836157a9565b91507f563a76616c6964617465202d206e6f7420617574686f72697a65642e000000006000830152602082019050919050565b6000614a996037836157a9565b91507f563a696e697469616c697a6556616c69646174696f6e202d20446f63756d656e60008301527f7420686173682076616c75652063616e277420626520300000000000000000006020830152604082019050919050565b6000614aff602c836157a9565b91507f563a76616c6964617465202d2064656c656761746564207374616b652c20636160008301527f6e27742076616c696461746500000000000000000000000000000000000000006020830152604082019050919050565b6000614b65601f836157a9565b91507f563a76616c6964617465202d2076616c69646174656420616c72656164792e006000830152602082019050919050565b6000614ba56020836157a9565b91507f563a76616c6964617465202d20706172616d7320646f6e2774206d617463682e6000830152602082019050919050565b6000614be56052836157a9565b91507f436f686f72743a76616c6964617465202d2056616c696461746f72206973206e60008301527f6f742070617274206f662074686520636f686f7274206f7220646f63756d656e60208301527f74204861736820697320696e76616c69642e00000000000000000000000000006040830152606082019050919050565b6000614c716020836157a9565b91507f563a76616c6964617465202d206e6f742061206e6f6465206f70657261746f726000830152602082019050919050565b6000614cb16055836157a9565b91507f436f686f72743a696e7469616c697a6556616c69646174696f6e202d204f6e6c60008301527f7920656e7465727072697365206f77696e67207468697320636f686f7274206360208301527f616e2063616c6c20746869732066756e6374696f6e00000000000000000000006040830152606082019050919050565b6000614d3d601f836157a9565b91507f5265656e7472616e637947756172643a207265656e7472616e742063616c6c006000830152602082019050919050565b6000614d7d604f836157a9565b91507f4e6f436f686f72743a696e697469616c697a6556616c69646174696f6e202d2060008301527f4e6f742073756666696369656e742066756e64732e204465706f73697420616460208301527f646974696f6e616c2066756e64732e00000000000000000000000000000000006040830152606082019050919050565b614e0581615992565b82525050565b614e1481615992565b82525050565b614e2b614e2682615992565b615c35565b82525050565b614e3a8161599c565b82525050565b6000614e4c82866148ad565b602082019150614e5c8285614e1a565b602082019150614e6c82846146da565b601482019150819050949350505050565b6000602082019050614e9260008301846146cb565b92915050565b6000606082019050614ead60008301866146cb565b614eba60208301856146cb565b614ec76040830184614880565b949350505050565b6000606082019050614ee460008301866146cb565b614ef160208301856146cb565b614efe604083018461489e565b949350505050565b6000606082019050614f1b60008301866146cb565b614f2860208301856146cb565b614f356040830184614e0b565b949350505050565b6000604082019050614f5260008301856146cb565b614f5f602083018461493c565b9392505050565b6000604082019050614f7b60008301856146cb565b614f886020830184614e0b565b9392505050565b60006020820190508181036000830152614fa981846146f1565b905092915050565b600060c0820190508181036000830152614fcb81896146f1565b90508181036020830152614fdf8188614822565b90508181036040830152614ff38187614822565b905081810360608301526150078186614822565b9050818103608083015261501b81856147ad565b905081810360a083015261502f818461474f565b9050979650505050505050565b60006020820190506150516000830184614880565b92915050565b60006101608201905061506d600083018e614880565b61507a602083018d6146cb565b615087604083018c614e0b565b615094606083018b614e0b565b81810360808301526150a6818a614993565b90506150b560a0830189614e0b565b6150c260c0830188614e0b565b6150cf60e083018761492d565b6150dd610100830186614e31565b6150eb6101208301856146cb565b6150f9610140830184614e0b565b9c9b505050505050505050505050565b60006101408201905061511f600083018d614880565b61512c602083018c6146cb565b615139604083018b614e0b565b615146606083018a614e0b565b81810360808301526151588189614993565b905061516760a0830188614e0b565b61517460c0830187614e0b565b61518160e0830186614e31565b61518f610100830185614880565b61519d6101208301846146cb565b9b9a5050505050505050505050565b60006020820190506151c1600083018461489e565b92915050565b60006080820190506151dc600083018761489e565b6151e960208301866146cb565b6151f66040830185614e0b565b6152036060830184614e0b565b95945050505050565b6000604082019050615221600083018561489e565b818103602083015261523381846146f1565b90509392505050565b600060c082019050615251600083018961489e565b61525e6020830188614e0b565b61526b6040830187614e0b565b6152786060830186614e0b565b818103608083015261528a81856149cc565b905081810360a083015261529e81846146f1565b9050979650505050505050565b60006020820190506152c060008301846148c4565b92915050565b60006020820190506152db60008301846148d3565b92915050565b60006020820190506152f660008301846148e2565b92915050565b600060208201905061531160008301846148f1565b92915050565b600060208201905061532c6000830184614900565b92915050565b6000602082019050615347600083018461490f565b92915050565b6000602082019050615362600083018461491e565b92915050565b600060208201905061537d600083018461492d565b92915050565b6000602082019050615398600083018461494b565b92915050565b60006040820190506153b3600083018561494b565b81810360208301526153c58184614993565b90509392505050565b600060208201905081810360008301526153e88184614993565b905092915050565b6000602082019050818103600083015261540981614a4c565b9050919050565b6000602082019050818103600083015261542981614a8c565b9050919050565b6000602082019050818103600083015261544981614af2565b9050919050565b6000602082019050818103600083015261546981614b58565b9050919050565b6000602082019050818103600083015261548981614b98565b9050919050565b600060208201905081810360008301526154a981614bd8565b9050919050565b600060208201905081810360008301526154c981614c64565b9050919050565b600060208201905081810360008301526154e981614ca4565b9050919050565b6000602082019050818103600083015261550981614d30565b9050919050565b6000602082019050818103600083015261552981614d70565b9050919050565b60006020820190506155456000830184614e0b565b92915050565b60006040820190506155606000830185614e0b565b61556d602083018461489e565b9392505050565b60006060820190506155896000830186614e0b565b615596602083018561489e565b81810360408301526155a88184614993565b9050949350505050565b60006040820190506155c76000830185614e0b565b6155d46020830184614e0b565b9392505050565b6000604051905081810181811067ffffffffffffffff8211171561560257615601615cfb565b5b8060405250919050565b600067ffffffffffffffff82111561562757615626615cfb565b5b602082029050602081019050919050565b600067ffffffffffffffff82111561565357615652615cfb565b5b602082029050602081019050919050565b600067ffffffffffffffff82111561567f5761567e615cfb565b5b601f19601f8301169050602081019050919050565b6000819050602082019050919050565b6000819050602082019050919050565b6000819050602082019050919050565b6000819050602082019050919050565b60008190508160005260206000209050919050565b600081519050919050565b600081519050919050565b600081519050919050565b600081519050919050565b600081519050919050565b6000602082019050919050565b6000602082019050919050565b6000602082019050919050565b6000602082019050919050565b600082825260208201905092915050565b600082825260208201905092915050565b600082825260208201905092915050565b600082825260208201905092915050565b600082825260208201905092915050565b600082825260208201905092915050565b60006157c582615992565b91506157d083615992565b9250827fffffffffffffffffffffffffffffffffffffffffffffffffffffffffffffffff0382111561580557615804615c3f565b5b828201905092915050565b600061581b82615992565b915061582683615992565b92508261583657615835615c6e565b5b828204905092915050565b600061584c82615992565b915061585783615992565b9250817fffffffffffffffffffffffffffffffffffffffffffffffffffffffffffffffff04831182151516156158905761588f615c3f565b5b828202905092915050565b60006158a68261599c565b91506158b18361599c565b92508167ffffffffffffffff04831182151516156158d2576158d1615c3f565b5b828202905092915050565b60006158e882615992565b91506158f383615992565b92508282101561590657615905615c3f565b5b828203905092915050565b600061591c82615972565b9050919050565b60008115159050919050565b6000819050919050565b600081905061594782615d48565b919050565b600081905061595a82615d5c565b919050565b600081905061596d82615d70565b919050565b600073ffffffffffffffffffffffffffffffffffffffff82169050919050565b6000819050919050565b600067ffffffffffffffff82169050919050565b600060ff82169050919050565b60006159c8826159cf565b9050919050565b60006159da82615972565b9050919050565b60006159ec826159f3565b9050919050565b60006159fe82615972565b9050919050565b6000615a1082615a17565b9050919050565b6000615a2282615972565b9050919050565b6000615a3482615a3b565b9050919050565b6000615a4682615972565b9050919050565b6000615a5882615a5f565b9050919050565b6000615a6a82615972565b9050919050565b6000615a7c82615a83565b9050919050565b6000615a8e82615972565b9050919050565b6000615aa082615aa7565b9050919050565b6000615ab282615972565b9050919050565b6000615ac482615939565b9050919050565b6000615ad68261594c565b9050919050565b6000615ae88261595f565b9050919050565b82818337600083830152505050565b60005b83811015615b1c578082015181840152602081019050615b01565b83811115615b2b576000848401525b50505050565b60006002820490506001821680615b4957607f821691505b60208210811415615b5d57615b5c615ccc565b5b50919050565b6000615b6e82615992565b91507fffffffffffffffffffffffffffffffffffffffffffffffffffffffffffffffff821415615ba157615ba0615c3f565b5b600182019050919050565b6000615bb78261599c565b915067ffffffffffffffff821415615bd257615bd1615c3f565b5b600182019050919050565b6000615be8826159b0565b915060ff821415615bfc57615bfb615c3f565b5b600182019050919050565b6000615c1282615c23565b9050919050565b6000819050919050565b6000615c2e82615d3b565b9050919050565b6000819050919050565b7f4e487b7100000000000000000000000000000000000000000000000000000000600052601160045260246000fd5b7f4e487b7100000000000000000000000000000000000000000000000000000000600052601260045260246000fd5b7f4e487b7100000000000000000000000000000000000000000000000000000000600052602160045260246000fd5b7f4e487b7100000000000000000000000000000000000000000000000000000000600052602260045260246000fd5b7f4e487b7100000000000000000000000000000000000000000000000000000000600052604160045260246000fd5b6000601f19601f8301169050919050565b60008160601b9050919050565b60078110615d5957615d58615c9d565b5b50565b60038110615d6d57615d6c615c9d565b5b50565b60038110615d8157615d80615c9d565b5b50565b615d8d81615911565b8114615d9857600080fd5b50565b615da481615923565b8114615daf57600080fd5b50565b615dbb8161592f565b8114615dc657600080fd5b50565b60078110615dd657600080fd5b50565b60038110615de657600080fd5b50565b615df281615992565b8114615dfd57600080fd5b5056fea26469706673582212209aaf05170950023f607e95cf7a21df356478a73065e1ae72aa671f3a19be358264736f6c63430008000033",
  "immutableReferences": {},
  "source": "// SPDX-License-Identifier: MIT\npragma solidity =0.8.0;\n\nimport \"./Validations.sol\";\n// import \"@openzeppelin/contracts-upgradeable/utils/math/SafeMathUpgradeable.sol\";\n\n\n\ncontract ValidationsCohort is Validations {\n    using SafeMathUpgradeable for uint256;\n\n    function initialize(address _members, address _memberHelpers, address _cohortFactory, address _depositModifiers,   address _nodeOperations, address _validationHelpers, address _queue) public override\n    {\n            super.initialize(_members, _memberHelpers, _cohortFactory, _depositModifiers, _nodeOperations, _validationHelpers, _queue);\n\n    }\n\n\n   /**\n    * @dev to be called by Enterprise to initiate new validation\n    * @param documentHash - hash of unique identifier of validated transaction\n    * @param url - locatoin of the file on IPFS or other decentralized file storage\n    * @param auditType - type of auditing \n    */\n    function initializeValidationCohort(bytes32 documentHash, string memory url, AuditTypes auditType, uint256 price) public {\n\n        require(checkIfRequestorHasFunds(msg.sender, price), \"NoCohort:initializeValidation - Not sufficient funds. Deposit additional funds.\");\n        require(cohortFactory.cohortMap(msg.sender, uint256(auditType)), \"Cohort:intializeValidation - Only enterprise owing this cohort can call this function\");\n        super.initializeValidation(documentHash, url, auditType, true, price);\n        \n    }\n\n\n   /**\n   * @dev verify if requesting party has sufficient funds\n   * @param requestor a user whos funds are checked\n   * @return true or false \n   */\n   function checkIfRequestorHasFunds(address requestor, uint256 price) public override returns (bool) {\n\n       if (outstandingValidations[requestor] > 0 )\n        return ( memberHelpers.deposits(requestor) > members.amountTokensPerValidation()\n                    .mul(outstandingValidations[requestor])\n                    .mul(members.enterpriseMatch())\n                    .div(1e2));\n        else if (memberHelpers.deposits(requestor) == 0)\n            return false;\n        else\n            return true;\n    }\n\n\n    function processPayments(bytes32 validationHash, address winner) internal override {\n\n        Validation storage validation = validations[validationHash];\n        outstandingValidations[validation.requestor] = outstandingValidations[validation.requestor].sub(1);\n        depositModifiers.processPayment(winner, validation.requestor, validationHash);\n        emit PaymentProcessed(validationHash, winner, validation.winnerVotesPlus[winner], validation.winnerVotesMinus[winner]);\n    }\n\n    function returnValidatorList(bytes32 validationHash) public view override returns (address[] memory){\n\n        Validation storage validation = validations[validationHash];\n        address[] memory validatorsList = cohortFactory.returnValidatorList(validation.requestor, uint256(validation.auditType));\n        return validatorsList;\n    }\n\n\n\n     function validate(bytes32 documentHash, uint256 validationTime, address subscriber, ValidationStatus decision, string memory valUrl, bytes32 reportHash) public override {\n\n        bytes32 validationHash = keccak256(abi.encodePacked(documentHash, validationTime, subscriber));\n        Validation storage validation = validations[validationHash];\n        (bool ivited, bool accepted) = cohortFactory.isValidatorInvited(validation.requestor, msg.sender, uint256(validation.auditType));\n        require(ivited && accepted, \"Cohort:validate - Validator is not part of the cohort or document Hash is invalid.\");\n\n        super.validate(documentHash, validationTime, subscriber, decision, valUrl, reportHash);\n        \n    }\n\n     function returnValidatorCount(bytes32 validationHash) public override returns (uint256){\n\n        Validation storage validation = validations[validationHash];\n        address[] memory validatorsList = cohortFactory.returnValidatorList(validation.requestor, uint256(validation.auditType));\n\n        return validatorsList.length;\n    }\n\n\n\n\n}",
  "sourcePath": "/home/win2win/eth/projects/AuditChain/Core-Smart-Contracts-v1-upgradable/contracts/Auditchain/ValidationsCohort.sol",
  "compiler": {
    "name": "solc",
    "version": "0.8.0+commit.c7dfd78e.Emscripten.clang"
  },
  "schemaVersion": "3.4.1",
  "updatedAt": "2022-05-18T17:13:45.621Z",
  "devdoc": {
    "kind": "dev",
    "methods": {
      "checkIfRequestorHasFunds(address,uint256)": {
        "details": "verify if requesting party has sufficient funds",
        "params": {
          "requestor": "a user whos funds are checked"
        },
        "returns": {
          "_0": "true or false "
        }
      },
      "collectValidationResults(bytes32)": {
        "details": "Review the validation results",
        "params": {
          "validationHash": "- consist of hash of hashed document and timestamp"
        },
        "returns": {
          "_0": "array  of validators",
          "_1": "array of stakes of each validatoralidation.requestor",
          "_2": "array of validation choices for each validator"
        }
      },
      "initializeValidationCohort(bytes32,string,uint8,uint256)": {
        "details": "to be called by Enterprise to initiate new validation",
        "params": {
          "auditType": "- type of auditing ",
          "documentHash": "- hash of unique identifier of validated transaction",
          "url": "- locatoin of the file on IPFS or other decentralized file storage"
        }
      },
      "isValidated(bytes32)": {
        "details": "validators can check if specific document has been already validated by them",
        "params": {
          "validationHash": "- consist of hash of hashed document and timestamp"
        },
        "returns": {
          "_0": "validation choices used by validator"
        }
      },
      "validate(bytes32,uint256,address,uint8,string,bytes32)": {
        "details": "called by validator to approve or disapprove this validation",
        "params": {
          "decision": "- one of the ValidationStatus choices cast by validator",
          "documentHash": "- hash of validated document",
          "validationTime": "- this is the time when validation has been initialized"
        }
      }
    },
    "version": 1
  },
  "userdoc": {
    "kind": "user",
    "methods": {},
    "version": 1
  }
}