{
  "contractName": "ValidationsNoCohort",
  "abi": [
    {
      "anonymous": false,
      "inputs": [
        {
          "indexed": false,
          "internalType": "bytes32",
          "name": "validationHash",
          "type": "bytes32"
        },
        {
          "indexed": false,
          "internalType": "address",
          "name": "winner",
          "type": "address"
        },
        {
          "indexed": false,
          "internalType": "uint256",
          "name": "pointsPlus",
          "type": "uint256"
        },
        {
          "indexed": false,
          "internalType": "uint256",
          "name": "pointsMinus",
          "type": "uint256"
        }
      ],
      "name": "PaymentProcessed",
      "type": "event"
    },
    {
      "anonymous": false,
      "inputs": [
        {
          "indexed": true,
          "internalType": "uint256",
          "name": "audits",
          "type": "uint256"
        },
        {
          "indexed": true,
          "internalType": "address",
          "name": "requestor",
          "type": "address"
        },
        {
          "indexed": true,
          "internalType": "bytes32",
          "name": "validationHash",
          "type": "bytes32"
        },
        {
          "indexed": false,
          "internalType": "bytes32",
          "name": "documentHash",
          "type": "bytes32"
        },
        {
          "indexed": false,
          "internalType": "uint256",
          "name": "consensus",
          "type": "uint256"
        },
        {
          "indexed": false,
          "internalType": "uint256",
          "name": "quorum",
          "type": "uint256"
        },
        {
          "indexed": false,
          "internalType": "uint256",
          "name": "timeExecuted",
          "type": "uint256"
        },
        {
          "indexed": false,
          "internalType": "string",
          "name": "url",
          "type": "string"
        },
        {
          "indexed": false,
          "internalType": "address[]",
          "name": "winners",
          "type": "address[]"
        }
      ],
      "name": "RequestExecuted",
      "type": "event"
    },
    {
      "anonymous": false,
      "inputs": [
        {
          "indexed": true,
          "internalType": "address",
          "name": "user",
          "type": "address"
        },
        {
          "indexed": true,
          "internalType": "bytes32",
          "name": "validationHash",
          "type": "bytes32"
        },
        {
          "indexed": false,
          "internalType": "uint256",
          "name": "initTime",
          "type": "uint256"
        },
        {
          "indexed": false,
          "internalType": "bytes32",
          "name": "documentHash",
          "type": "bytes32"
        },
        {
          "indexed": false,
          "internalType": "string",
          "name": "url",
          "type": "string"
        },
        {
          "indexed": true,
          "internalType": "enum Validations.AuditTypes",
          "name": "auditType",
          "type": "uint8"
        }
      ],
      "name": "ValidationInitialized",
      "type": "event"
    },
    {
      "anonymous": false,
      "inputs": [
        {
          "indexed": true,
          "internalType": "address",
          "name": "validator",
          "type": "address"
        },
        {
          "indexed": true,
          "internalType": "bytes32",
          "name": "documentHash",
          "type": "bytes32"
        },
        {
          "indexed": true,
          "internalType": "uint256",
          "name": "validationTime",
          "type": "uint256"
        },
        {
          "indexed": false,
          "internalType": "enum Validations.ValidationStatus",
          "name": "decision",
          "type": "uint8"
        },
        {
          "indexed": false,
          "internalType": "string",
          "name": "valUrl",
          "type": "string"
        }
      ],
      "name": "ValidatorValidated",
      "type": "event"
    },
    {
      "anonymous": false,
      "inputs": [
        {
          "indexed": false,
          "internalType": "address",
          "name": "validator",
          "type": "address"
        },
        {
          "indexed": false,
          "internalType": "address",
          "name": "winner",
          "type": "address"
        },
        {
          "indexed": false,
          "internalType": "bool",
          "name": "isValid",
          "type": "bool"
        }
      ],
      "name": "WinnerVoted",
      "type": "event"
    },
    {
      "inputs": [
        {
          "internalType": "uint256",
          "name": "",
          "type": "uint256"
        },
        {
          "internalType": "bytes32",
          "name": "",
          "type": "bytes32"
        }
      ],
      "name": "activeOperatorsStake",
      "outputs": [
        {
          "internalType": "uint256",
          "name": "",
          "type": "uint256"
        }
      ],
      "stateMutability": "view",
      "type": "function",
      "constant": true
    },
    {
      "inputs": [],
      "name": "audits",
      "outputs": [
        {
          "internalType": "enum Validations.AuditTypes",
          "name": "",
          "type": "uint8"
        }
      ],
      "stateMutability": "view",
      "type": "function",
      "constant": true
    },
    {
      "inputs": [],
      "name": "cohortFactory",
      "outputs": [
        {
          "internalType": "contract ICohortFactory",
          "name": "",
          "type": "address"
        }
      ],
      "stateMutability": "view",
      "type": "function",
      "constant": true
    },
    {
      "inputs": [
        {
          "internalType": "bytes32",
          "name": "validationHash",
          "type": "bytes32"
        }
      ],
      "name": "collectValidationResults",
      "outputs": [
        {
          "internalType": "address[]",
          "name": "",
          "type": "address[]"
        },
        {
          "internalType": "uint256[]",
          "name": "",
          "type": "uint256[]"
        },
        {
          "internalType": "uint256[]",
          "name": "",
          "type": "uint256[]"
        },
        {
          "internalType": "uint256[]",
          "name": "",
          "type": "uint256[]"
        },
        {
          "internalType": "string[]",
          "name": "",
          "type": "string[]"
        },
        {
          "internalType": "bytes32[]",
          "name": "",
          "type": "bytes32[]"
        }
      ],
      "stateMutability": "view",
      "type": "function",
      "constant": true
    },
    {
      "inputs": [],
      "name": "depositModifiers",
      "outputs": [
        {
          "internalType": "contract DepositModifiers",
          "name": "",
          "type": "address"
        }
      ],
      "stateMutability": "view",
      "type": "function",
      "constant": true
    },
    {
      "inputs": [
        {
          "internalType": "bytes32",
          "name": "validationHash",
          "type": "bytes32"
        }
      ],
      "name": "hasVoted",
      "outputs": [
        {
          "internalType": "bool",
          "name": "",
          "type": "bool"
        }
      ],
      "stateMutability": "view",
      "type": "function",
      "constant": true
    },
    {
      "inputs": [
        {
          "internalType": "bytes32",
          "name": "validationHash",
          "type": "bytes32"
        }
      ],
      "name": "isValidated",
      "outputs": [
        {
          "internalType": "enum Validations.ValidationStatus",
          "name": "",
          "type": "uint8"
        }
      ],
      "stateMutability": "view",
      "type": "function",
      "constant": true
    },
    {
      "inputs": [],
      "name": "memberHelpers",
      "outputs": [
        {
          "internalType": "contract MemberHelpers",
          "name": "",
          "type": "address"
        }
      ],
      "stateMutability": "view",
      "type": "function",
      "constant": true
    },
    {
      "inputs": [],
      "name": "members",
      "outputs": [
        {
          "internalType": "contract IMembers",
          "name": "",
          "type": "address"
        }
      ],
      "stateMutability": "view",
      "type": "function",
      "constant": true
    },
    {
      "inputs": [],
      "name": "nodeOperations",
      "outputs": [
        {
          "internalType": "contract INodeOperations",
          "name": "",
          "type": "address"
        }
      ],
      "stateMutability": "view",
      "type": "function",
      "constant": true
    },
    {
      "inputs": [
        {
          "internalType": "address",
          "name": "",
          "type": "address"
        }
      ],
      "name": "outstandingValidations",
      "outputs": [
        {
          "internalType": "uint256",
          "name": "",
          "type": "uint256"
        }
      ],
      "stateMutability": "view",
      "type": "function",
      "constant": true
    },
    {
      "inputs": [],
      "name": "queue",
      "outputs": [
        {
          "internalType": "contract IQueue",
          "name": "",
          "type": "address"
        }
      ],
      "stateMutability": "view",
      "type": "function",
      "constant": true
    },
    {
      "inputs": [],
      "name": "quorum",
      "outputs": [
        {
          "internalType": "uint256",
          "name": "",
          "type": "uint256"
        }
      ],
      "stateMutability": "view",
      "type": "function",
      "constant": true
    },
    {
      "inputs": [],
      "name": "recentTimestamp",
      "outputs": [
        {
          "internalType": "uint256",
          "name": "",
          "type": "uint256"
        }
      ],
      "stateMutability": "view",
      "type": "function",
      "constant": true
    },
    {
      "inputs": [],
      "name": "recentValidationHash",
      "outputs": [
        {
          "internalType": "bytes32",
          "name": "",
          "type": "bytes32"
        }
      ],
      "stateMutability": "view",
      "type": "function",
      "constant": true
    },
    {
      "inputs": [
        {
          "internalType": "bytes32",
          "name": "validationHash",
          "type": "bytes32"
        }
      ],
      "name": "returnValidationRecord",
      "outputs": [
        {
          "internalType": "bool",
          "name": "cohort",
          "type": "bool"
        },
        {
          "internalType": "address",
          "name": "requestor",
          "type": "address"
        },
        {
          "internalType": "uint256",
          "name": "validationTime",
          "type": "uint256"
        },
        {
          "internalType": "uint256",
          "name": "executionTime",
          "type": "uint256"
        },
        {
          "internalType": "string",
          "name": "url",
          "type": "string"
        },
        {
          "internalType": "uint256",
          "name": "consensus",
          "type": "uint256"
        },
        {
          "internalType": "uint256",
          "name": "validationsCompleted",
          "type": "uint256"
        },
        {
          "internalType": "uint64",
          "name": "winnerConfirmations",
          "type": "uint64"
        },
        {
          "internalType": "bool",
          "name": "paymentSent",
          "type": "bool"
        },
        {
          "internalType": "address",
          "name": "winner",
          "type": "address"
        }
      ],
      "stateMutability": "view",
      "type": "function",
      "constant": true
    },
    {
      "inputs": [
        {
          "internalType": "bytes32",
          "name": "validationHash",
          "type": "bytes32"
        },
        {
          "internalType": "address",
          "name": "user",
          "type": "address"
        }
      ],
      "name": "returnValidationUrl",
      "outputs": [
        {
          "internalType": "string",
          "name": "url",
          "type": "string"
        }
      ],
      "stateMutability": "view",
      "type": "function",
      "constant": true
    },
    {
      "inputs": [
        {
          "internalType": "bytes32",
          "name": "validationHash",
          "type": "bytes32"
        },
        {
          "internalType": "address",
          "name": "user",
          "type": "address"
        }
      ],
      "name": "returnWinnerPoints",
      "outputs": [
        {
          "internalType": "uint256",
          "name": "plus",
          "type": "uint256"
        },
        {
          "internalType": "uint256",
          "name": "minus",
          "type": "uint256"
        }
      ],
      "stateMutability": "view",
      "type": "function",
      "constant": true
    },
    {
      "inputs": [],
      "name": "validationHelpers",
      "outputs": [
        {
          "internalType": "contract IValidatinosHelpers",
          "name": "",
          "type": "address"
        }
      ],
      "stateMutability": "view",
      "type": "function",
      "constant": true
    },
    {
      "inputs": [
        {
          "internalType": "bytes32",
          "name": "",
          "type": "bytes32"
        }
      ],
      "name": "validations",
      "outputs": [
        {
          "internalType": "bool",
          "name": "cohort",
          "type": "bool"
        },
        {
          "internalType": "address",
          "name": "requestor",
          "type": "address"
        },
        {
          "internalType": "uint256",
          "name": "validationTime",
          "type": "uint256"
        },
        {
          "internalType": "uint256",
          "name": "executionTime",
          "type": "uint256"
        },
        {
          "internalType": "string",
          "name": "url",
          "type": "string"
        },
        {
          "internalType": "uint256",
          "name": "consensus",
          "type": "uint256"
        },
        {
          "internalType": "uint256",
          "name": "validationsCompleted",
          "type": "uint256"
        },
        {
          "internalType": "enum Validations.AuditTypes",
          "name": "auditType",
          "type": "uint8"
        },
        {
          "internalType": "uint64",
          "name": "winnerConfirmations",
          "type": "uint64"
        },
        {
          "internalType": "address",
          "name": "winner",
          "type": "address"
        },
        {
          "internalType": "uint256",
          "name": "price",
          "type": "uint256"
        }
      ],
      "stateMutability": "view",
      "type": "function",
      "constant": true
    },
    {
      "inputs": [
        {
          "internalType": "address[]",
          "name": "winners",
          "type": "address[]"
        },
        {
          "internalType": "bool[]",
          "name": "vote",
          "type": "bool[]"
        },
        {
          "internalType": "bytes32",
          "name": "validationHash",
          "type": "bytes32"
        }
      ],
      "name": "voteWinner",
      "outputs": [],
      "stateMutability": "nonpayable",
      "type": "function"
    },
    {
      "inputs": [
        {
          "internalType": "address",
          "name": "",
          "type": "address"
        },
        {
          "internalType": "bytes32",
          "name": "",
          "type": "bytes32"
        }
      ],
      "name": "votes",
      "outputs": [
        {
          "internalType": "bool",
          "name": "",
          "type": "bool"
        }
      ],
      "stateMutability": "view",
      "type": "function",
      "constant": true
    },
    {
      "inputs": [
        {
          "internalType": "address",
          "name": "_members",
          "type": "address"
        },
        {
          "internalType": "address",
          "name": "_memberHelpers",
          "type": "address"
        },
        {
          "internalType": "address",
          "name": "_cohortFactory",
          "type": "address"
        },
        {
          "internalType": "address",
          "name": "_depositModifiers",
          "type": "address"
        },
        {
          "internalType": "address",
          "name": "_nodeOperations",
          "type": "address"
        },
        {
          "internalType": "address",
          "name": "_validationHelpers",
          "type": "address"
        },
        {
          "internalType": "address",
          "name": "_queue",
          "type": "address"
        }
      ],
      "name": "initialize",
      "outputs": [],
      "stateMutability": "nonpayable",
      "type": "function"
    },
    {
      "inputs": [
        {
          "internalType": "bytes32",
          "name": "documentHash",
          "type": "bytes32"
        },
        {
          "internalType": "string",
          "name": "url",
          "type": "string"
        },
        {
          "internalType": "enum Validations.AuditTypes",
          "name": "auditType",
          "type": "uint8"
        },
        {
          "internalType": "uint256",
          "name": "price",
          "type": "uint256"
        }
      ],
      "name": "initializeValidationNoCohort",
      "outputs": [],
      "stateMutability": "nonpayable",
      "type": "function"
    },
    {
      "inputs": [
        {
          "internalType": "address",
          "name": "requestor",
          "type": "address"
        },
        {
          "internalType": "uint256",
          "name": "price",
          "type": "uint256"
        }
      ],
      "name": "checkIfRequestorHasFunds",
      "outputs": [
        {
          "internalType": "bool",
          "name": "",
          "type": "bool"
        }
      ],
      "stateMutability": "view",
      "type": "function",
      "constant": true
    },
    {
      "inputs": [
        {
          "internalType": "bytes32",
          "name": "documentHash",
          "type": "bytes32"
        },
        {
          "internalType": "uint256",
          "name": "validationTime",
          "type": "uint256"
        },
        {
          "internalType": "address",
          "name": "subscriber",
          "type": "address"
        },
        {
          "internalType": "enum Validations.ValidationStatus",
          "name": "decision",
          "type": "uint8"
        },
        {
          "internalType": "string",
          "name": "valUrl",
          "type": "string"
        },
        {
          "internalType": "bytes32",
          "name": "reportHash",
          "type": "bytes32"
        }
      ],
      "name": "validate",
      "outputs": [],
      "stateMutability": "nonpayable",
      "type": "function"
    },
    {
      "inputs": [
        {
          "internalType": "bytes32",
          "name": "recentValidationHash",
          "type": "bytes32"
        }
      ],
      "name": "returnValidatorCount",
      "outputs": [
        {
          "internalType": "uint256",
          "name": "",
          "type": "uint256"
        }
      ],
      "stateMutability": "view",
      "type": "function",
      "constant": true
    },
    {
      "inputs": [
        {
          "internalType": "bytes32",
          "name": "validationHash",
          "type": "bytes32"
        }
      ],
      "name": "returnValidatorList",
      "outputs": [
        {
          "internalType": "address[]",
          "name": "",
          "type": "address[]"
        }
      ],
      "stateMutability": "view",
      "type": "function",
      "constant": true
    },
    {
      "inputs": [
        {
          "internalType": "bytes32",
          "name": "validationHash",
          "type": "bytes32"
        }
      ],
      "name": "returnValidatorListActual",
      "outputs": [
        {
          "internalType": "address[]",
          "name": "",
          "type": "address[]"
        }
      ],
      "stateMutability": "view",
      "type": "function",
      "constant": true
    }
  ],
  "bytecode": "0x608060405234801561001057600080fd5b506159c180620000216000396000f3fe608060405234801561001057600080fd5b50600436106101cf5760003560e01c806371d8c7a011610104578063bdd4d18d116100a2578063e10d29ee11610071578063e10d29ee1461058f578063e28c3802146105ad578063ee5c17d7146105e7578063f9e0853a14610617576101cf565b8063bdd4d18d14610507578063bf1db71e14610525578063d4632bcf14610555578063d577832c14610571576101cf565b806395d1ca4d116100de57806395d1ca4d1461046657806399ae444a14610484578063b08e5d80146104a2578063b39fd6cf146104d2576101cf565b806371d8c7a0146103e857806371df6ae814610406578063813a465214610436576101cf565b806341035f2a1161017157806356756cd71161014b57806356756cd7146103305780635b3c5c4a14610369578063613c28a11461039957806362e23f27146103b7576101cf565b806341035f2a146102c657806342d47412146102f65780634bd4545f14610312576101cf565b806320120ffa116101ad57806320120ffa1461025257806335876476146102705780633a06c09a1461028c5780633a2eb80b146102a8576101cf565b80631703a018146101d45780631b4613cb146101f25780631db5ade814610222575b600080fd5b6101dc610647565b6040516101e991906150bb565b60405180910390f35b61020c6004803603810190610207919061401f565b61064d565b6040516102199190614be7565b60405180910390f35b61023c60048036038101906102379190613e6a565b6106b4565b6040516102499190614be7565b60405180910390f35b61025a6106e3565b6040516102679190614ea7565b60405180910390f35b61028a60048036038101906102859190613dcc565b610709565b005b6102a660048036038101906102a19190614084565b610721565b005b6102b06108a4565b6040516102bd9190614edd565b60405180910390f35b6102e060048036038101906102db919061401f565b6108ca565b6040516102ed9190614b3a565b60405180910390f35b610310600480360381019061030b9190613f23565b61097e565b005b61031a6110a6565b6040516103279190614e71565b60405180910390f35b61034a6004803603810190610345919061401f565b6110cc565b6040516103609a99989796959493929190614cb4565b60405180910390f35b610383600480360381019061037e9190614048565b61125b565b6040516103909190614f79565b60405180910390f35b6103a1611347565b6040516103ae9190614d57565b60405180910390f35b6103d160048036038101906103cc9190614048565b61134d565b6040516103df92919061513d565b60405180910390f35b6103f06113f7565b6040516103fd9190614ef8565b60405180910390f35b610420600480360381019061041b919061401f565b61141d565b60405161042d9190614b3a565b60405180910390f35b610450600480360381019061044b9190613ea6565b61174c565b60405161045d9190614be7565b60405180910390f35b61046e611867565b60405161047b9190614e56565b60405180910390f35b61048c61188d565b6040516104999190614f13565b60405180910390f35b6104bc60048036038101906104b791906141c9565b6118a0565b6040516104c991906150bb565b60405180910390f35b6104ec60048036038101906104e7919061401f565b6118c5565b6040516104fe96959493929190614b5c565b60405180910390f35b61050f6122e7565b60405161051c9190614e8c565b60405180910390f35b61053f600480360381019061053a919061401f565b61230d565b60405161054c9190614f2e565b60405180910390f35b61056f600480360381019061056a91906140ff565b612377565b005b61057961238d565b60405161058691906150bb565b60405180910390f35b610597612393565b6040516105a49190614ec2565b60405180910390f35b6105c760048036038101906105c2919061401f565b6123b9565b6040516105de9b9a99989796959493929190614c02565b60405180910390f35b61060160048036038101906105fc919061401f565b612509565b60405161060e91906150bb565b60405180910390f35b610631600480360381019061062c9190613d7a565b612526565b60405161063e91906150bb565b60405180910390f35b60405481565b6000603c60003373ffffffffffffffffffffffffffffffffffffffff1673ffffffffffffffffffffffffffffffffffffffff168152602001908152602001600020600083815260200190815260200160002060009054906101000a900460ff169050919050565b603c6020528160005260406000206020528060005260406000206000915091509054906101000a900460ff1681565b603860009054906101000a900473ffffffffffffffffffffffffffffffffffffffff1681565b6107188787878787878761253e565b50505050505050565b61072b338261174c565b61076a576040517f08c379a000000000000000000000000000000000000000000000000000000000815260040161076190614ffb565b60405180910390fd5b603360009054906101000a900473ffffffffffffffffffffffffffffffffffffffff1673ffffffffffffffffffffffffffffffffffffffff16636f9cf985336002808111156107e2577f4e487b7100000000000000000000000000000000000000000000000000000000600052602160045260246000fd5b6040518363ffffffff1660e01b81526004016107ff929190614b11565b602060405180830381600087803b15801561081957600080fd5b505af115801561082d573d6000803e3d6000fd5b505050506040513d601f19601f820116820180604052508101906108519190613ff6565b610890576040517f08c379a00000000000000000000000000000000000000000000000000000000081526004016108879061509b565b60405180910390fd5b61089e848484600085612716565b50505050565b603960009054906101000a900473ffffffffffffffffffffffffffffffffffffffff1681565b60606000603860009054906101000a900473ffffffffffffffffffffffffffffffffffffffff1673ffffffffffffffffffffffffffffffffffffffff166350da39756040518163ffffffff1660e01b815260040160006040518083038186803b15801561093657600080fd5b505afa15801561094a573d6000803e3d6000fd5b505050506040513d6000823e3d601f19601f820116820180604052508101906109739190613ee2565b905080915050919050565b600060416000838152602001908152602001600020905060005b84518160ff161015610d7057838160ff16815181106109e0577f4e487b7100000000000000000000000000000000000000000000000000000000600052603260045260246000fd5b602002602001015115610b1257610a85600183600a016000888560ff1681518110610a34577f4e487b7100000000000000000000000000000000000000000000000000000000600052603260045260246000fd5b602002602001015173ffffffffffffffffffffffffffffffffffffffff1673ffffffffffffffffffffffffffffffffffffffff168152602001908152602001600020546129fe90919063ffffffff16565b82600a016000878460ff1681518110610ac7577f4e487b7100000000000000000000000000000000000000000000000000000000600052603260045260246000fd5b602002602001015173ffffffffffffffffffffffffffffffffffffffff1673ffffffffffffffffffffffffffffffffffffffff16815260200190815260200160002081905550610c33565b610baa600183600b016000888560ff1681518110610b59577f4e487b7100000000000000000000000000000000000000000000000000000000600052603260045260246000fd5b602002602001015173ffffffffffffffffffffffffffffffffffffffff1673ffffffffffffffffffffffffffffffffffffffff168152602001908152602001600020546129fe90919063ffffffff16565b82600b016000878460ff1681518110610bec577f4e487b7100000000000000000000000000000000000000000000000000000000600052603260045260246000fd5b602002602001015173ffffffffffffffffffffffffffffffffffffffff1673ffffffffffffffffffffffffffffffffffffffff168152602001908152602001600020819055505b6001603c60003373ffffffffffffffffffffffffffffffffffffffff1673ffffffffffffffffffffffffffffffffffffffff168152602001908152602001600020600085815260200190815260200160002060006101000a81548160ff0219169083151502179055507f7bfe96c39755f2a1ee6120326dcd0a14a7f1931a8ce8f4f08675b9d74f7ca93633868360ff1681518110610cfa577f4e487b7100000000000000000000000000000000000000000000000000000000600052603260045260246000fd5b6020026020010151868460ff1681518110610d3e577f4e487b7100000000000000000000000000000000000000000000000000000000600052603260045260246000fd5b6020026020010151604051610d5593929190614a95565b60405180910390a18080610d6890615768565b915050610998565b5080600d01600081819054906101000a900467ffffffffffffffff1680929190610d9990615737565b91906101000a81548167ffffffffffffffff021916908367ffffffffffffffff160217905550506000610dcb83612509565b9050600081606484600d0160009054906101000a900467ffffffffffffffff16610df59190615426565b67ffffffffffffffff16610e09919061539b565b9050603360009054906101000a900473ffffffffffffffffffffffffffffffffffffffff1673ffffffffffffffffffffffffffffffffffffffff16637036014e6040518163ffffffff1660e01b8152600401602060405180830381600087803b158015610e7557600080fd5b505af1158015610e89573d6000803e3d6000fd5b505050506040513d601f19601f82011682018060405250810190610ead91906141a0565b8110158015610f0c5750600073ffffffffffffffffffffffffffffffffffffffff1683600d0160089054906101000a900473ffffffffffffffffffffffffffffffffffffffff1673ffffffffffffffffffffffffffffffffffffffff16145b1561109e576000603960009054906101000a900473ffffffffffffffffffffffffffffffffffffffff1673ffffffffffffffffffffffffffffffffffffffff16639dd4640286896040518363ffffffff1660e01b8152600401610f70929190614db7565b60206040518083038186803b158015610f8857600080fd5b505afa158015610f9c573d6000803e3d6000fd5b505050506040513d601f19601f82011682018060405250810190610fc09190613da3565b90508084600d0160086101000a81548173ffffffffffffffffffffffffffffffffffffffff021916908373ffffffffffffffffffffffffffffffffffffffff16021790555061100f8582612a14565b603460009054906101000a900473ffffffffffffffffffffffffffffffffffffffff1673ffffffffffffffffffffffffffffffffffffffff166348792674866040518263ffffffff1660e01b815260040161106a9190614d57565b600060405180830381600087803b15801561108457600080fd5b505af1158015611098573d6000803e3d6000fd5b50505050505b505050505050565b603760009054906101000a900473ffffffffffffffffffffffffffffffffffffffff1681565b6000806000806060600080600080600080604160008d815260200190815260200160002090508060000160009054906101000a900460ff169a508060000160019054906101000a900473ffffffffffffffffffffffffffffffffffffffff169950806001015498508060020154975080600301805461114a906156bc565b80601f0160208091040260200160405190810160405280929190818152602001828054611176906156bc565b80156111c35780601f10611198576101008083540402835291602001916111c3565b820191906000526020600020905b8154815290600101906020018083116111a657829003601f168201915b50505050509650806004015495508060050154945080600d0160009054906101000a900467ffffffffffffffff16935080600d0160089054906101000a900473ffffffffffffffffffffffffffffffffffffffff169150600073ffffffffffffffffffffffffffffffffffffffff168273ffffffffffffffffffffffffffffffffffffffff1614159250509193959799509193959799565b606060006041600085815260200190815260200160002090508060090160008473ffffffffffffffffffffffffffffffffffffffff1673ffffffffffffffffffffffffffffffffffffffff16815260200190815260200160002080546112c0906156bc565b80601f01602080910402602001604051908101604052809291908181526020018280546112ec906156bc565b80156113395780601f1061130e57610100808354040283529160200191611339565b820191906000526020600020905b81548152906001019060200180831161131c57829003601f168201915b505050505091505092915050565b603f5481565b600080600060416000868152602001908152602001600020905080600a0160008573ffffffffffffffffffffffffffffffffffffffff1673ffffffffffffffffffffffffffffffffffffffff16815260200190815260200160002054925080600b0160008573ffffffffffffffffffffffffffffffffffffffff1673ffffffffffffffffffffffffffffffffffffffff168152602001908152602001600020549150509250929050565b603560009054906101000a900473ffffffffffffffffffffffffffffffffffffffff1681565b60606000604160008481526020019081526020016000209050600080826005015467ffffffffffffffff81111561147d577f4e487b7100000000000000000000000000000000000000000000000000000000600052604160045260246000fd5b6040519080825280602002602001820160405280156114ab5781602001602082028036833780820191505090505b5090506000603860009054906101000a900473ffffffffffffffffffffffffffffffffffffffff1673ffffffffffffffffffffffffffffffffffffffff166350da39756040518163ffffffff1660e01b815260040160006040518083038186803b15801561151857600080fd5b505afa15801561152c573d6000803e3d6000fd5b505050506040513d6000823e3d601f19601f820116820180604052508101906115559190613ee2565b905060005b815181101561173f576000600281111561159d577f4e487b7100000000000000000000000000000000000000000000000000000000600052602160045260246000fd5b8560070160008484815181106115dc577f4e487b7100000000000000000000000000000000000000000000000000000000600052603260045260246000fd5b602002602001015173ffffffffffffffffffffffffffffffffffffffff1673ffffffffffffffffffffffffffffffffffffffff16815260200190815260200160002060009054906101000a900460ff166002811115611664577f4e487b7100000000000000000000000000000000000000000000000000000000600052602160045260246000fd5b1461172c578181815181106116a2577f4e487b7100000000000000000000000000000000000000000000000000000000600052603260045260246000fd5b60200260200101518385815181106116e3577f4e487b7100000000000000000000000000000000000000000000000000000000600052603260045260246000fd5b602002602001019073ffffffffffffffffffffffffffffffffffffffff16908173ffffffffffffffffffffffffffffffffffffffff16815250508380611728906156ee565b9450505b8080611737906156ee565b91505061155a565b5081945050505050919050565b60006117b36117a46001603a60008773ffffffffffffffffffffffffffffffffffffffff1673ffffffffffffffffffffffffffffffffffffffff168152602001908152602001600020546129fe90919063ffffffff16565b83612c8890919063ffffffff16565b603560009054906101000a900473ffffffffffffffffffffffffffffffffffffffff1673ffffffffffffffffffffffffffffffffffffffff1663fc7e286d856040518263ffffffff1660e01b815260040161180e9190614a7a565b60206040518083038186803b15801561182657600080fd5b505afa15801561183a573d6000803e3d6000fd5b505050506040513d601f19601f8201168201806040525081019061185e91906141a0565b11905092915050565b603660009054906101000a900473ffffffffffffffffffffffffffffffffffffffff1681565b603b60009054906101000a900460ff1681565b603d602052816000526040600020602052806000526040600020600091509150505481565b606080606080606080600080604160008a8152602001908152602001600020905060006118f18a6108ca565b90506000826005015467ffffffffffffffff811115611939577f4e487b7100000000000000000000000000000000000000000000000000000000600052604160045260246000fd5b6040519080825280602002602001820160405280156119675781602001602082028036833780820191505090505b5090506000836005015467ffffffffffffffff8111156119b0577f4e487b7100000000000000000000000000000000000000000000000000000000600052604160045260246000fd5b6040519080825280602002602001820160405280156119de5781602001602082028036833780820191505090505b5090506000846005015467ffffffffffffffff811115611a27577f4e487b7100000000000000000000000000000000000000000000000000000000600052604160045260246000fd5b604051908082528060200260200182016040528015611a555781602001602082028036833780820191505090505b5090506000856005015467ffffffffffffffff811115611a9e577f4e487b7100000000000000000000000000000000000000000000000000000000600052604160045260246000fd5b604051908082528060200260200182016040528015611acc5781602001602082028036833780820191505090505b5090506000866005015467ffffffffffffffff811115611b15577f4e487b7100000000000000000000000000000000000000000000000000000000600052604160045260246000fd5b604051908082528060200260200182016040528015611b4857816020015b6060815260200190600190039081611b335790505b5090506000876005015467ffffffffffffffff811115611b91577f4e487b7100000000000000000000000000000000000000000000000000000000600052604160045260246000fd5b604051908082528060200260200182016040528015611bbf5781602001602082028036833780820191505090505b50905060005b87518110156122c25760006002811115611c08577f4e487b7100000000000000000000000000000000000000000000000000000000600052602160045260246000fd5b8960070160008a8481518110611c47577f4e487b7100000000000000000000000000000000000000000000000000000000600052603260045260246000fd5b602002602001015173ffffffffffffffffffffffffffffffffffffffff1673ffffffffffffffffffffffffffffffffffffffff16815260200190815260200160002060009054906101000a900460ff166002811115611ccf577f4e487b7100000000000000000000000000000000000000000000000000000000600052602160045260246000fd5b146122af57603560009054906101000a900473ffffffffffffffffffffffffffffffffffffffff1673ffffffffffffffffffffffffffffffffffffffff16638319d390898381518110611d4b577f4e487b7100000000000000000000000000000000000000000000000000000000600052603260045260246000fd5b60200260200101516040518263ffffffff1660e01b8152600401611d6f9190614a7a565b60206040518083038186803b158015611d8757600080fd5b505afa158015611d9b573d6000803e3d6000fd5b505050506040513d601f19601f82011682018060405250810190611dbf91906141a0565b868b81518110611df8577f4e487b7100000000000000000000000000000000000000000000000000000000600052603260045260246000fd5b602002602001018181525050886007016000898381518110611e43577f4e487b7100000000000000000000000000000000000000000000000000000000600052603260045260246000fd5b602002602001015173ffffffffffffffffffffffffffffffffffffffff1673ffffffffffffffffffffffffffffffffffffffff16815260200190815260200160002060009054906101000a900460ff166002811115611ecb577f4e487b7100000000000000000000000000000000000000000000000000000000600052602160045260246000fd5b858b81518110611f04577f4e487b7100000000000000000000000000000000000000000000000000000000600052603260045260246000fd5b602002602001018181525050886008016000898381518110611f4f577f4e487b7100000000000000000000000000000000000000000000000000000000600052603260045260246000fd5b602002602001015173ffffffffffffffffffffffffffffffffffffffff1673ffffffffffffffffffffffffffffffffffffffff16815260200190815260200160002054848b81518110611fcb577f4e487b7100000000000000000000000000000000000000000000000000000000600052603260045260246000fd5b602002602001018181525050886009016000898381518110612016577f4e487b7100000000000000000000000000000000000000000000000000000000600052603260045260246000fd5b602002602001015173ffffffffffffffffffffffffffffffffffffffff1673ffffffffffffffffffffffffffffffffffffffff1681526020019081526020016000208054612063906156bc565b80601f016020809104026020016040519081016040528092919081815260200182805461208f906156bc565b80156120dc5780601f106120b1576101008083540402835291602001916120dc565b820191906000526020600020905b8154815290600101906020018083116120bf57829003601f168201915b5050505050838b8151811061211a577f4e487b7100000000000000000000000000000000000000000000000000000000600052603260045260246000fd5b602002602001018190525087818151811061215e577f4e487b7100000000000000000000000000000000000000000000000000000000600052603260045260246000fd5b6020026020010151878b8151811061219f577f4e487b7100000000000000000000000000000000000000000000000000000000600052603260045260246000fd5b602002602001019073ffffffffffffffffffffffffffffffffffffffff16908173ffffffffffffffffffffffffffffffffffffffff168152505088600c016000898381518110612218577f4e487b7100000000000000000000000000000000000000000000000000000000600052603260045260246000fd5b602002602001015173ffffffffffffffffffffffffffffffffffffffff1673ffffffffffffffffffffffffffffffffffffffff16815260200190815260200160002054828b81518110612294577f4e487b7100000000000000000000000000000000000000000000000000000000600052603260045260246000fd5b60200260200101818152505089806122ab906156ee565b9a50505b80806122ba906156ee565b915050611bc5565b508585858585859e509e509e509e509e509e5050505050505050505091939550919395565b603360009054906101000a900473ffffffffffffffffffffffffffffffffffffffff1681565b60006041600083815260200190815260200160002060070160003373ffffffffffffffffffffffffffffffffffffffff1673ffffffffffffffffffffffffffffffffffffffff16815260200190815260200160002060009054906101000a900460ff169050919050565b612385868686868686612c9e565b505050505050565b603e5481565b603460009054906101000a900473ffffffffffffffffffffffffffffffffffffffff1681565b60416020528060005260406000206000915090508060000160009054906101000a900460ff16908060000160019054906101000a900473ffffffffffffffffffffffffffffffffffffffff1690806001015490806002015490806003018054612421906156bc565b80601f016020809104026020016040519081016040528092919081815260200182805461244d906156bc565b801561249a5780601f1061246f5761010080835404028352916020019161249a565b820191906000526020600020905b81548152906001019060200180831161247d57829003601f168201915b5050505050908060040154908060050154908060060160009054906101000a900460ff169080600d0160009054906101000a900467ffffffffffffffff169080600d0160089054906101000a900473ffffffffffffffffffffffffffffffffffffffff169080600e015490508b565b600080612515836118c5565b505050505090508051915050919050565b603a6020528060005260406000206000915090505481565b86603360006101000a81548173ffffffffffffffffffffffffffffffffffffffff021916908373ffffffffffffffffffffffffffffffffffffffff16021790555085603560006101000a81548173ffffffffffffffffffffffffffffffffffffffff021916908373ffffffffffffffffffffffffffffffffffffffff16021790555084603760006101000a81548173ffffffffffffffffffffffffffffffffffffffff021916908373ffffffffffffffffffffffffffffffffffffffff16021790555083603660006101000a81548173ffffffffffffffffffffffffffffffffffffffff021916908373ffffffffffffffffffffffffffffffffffffffff16021790555082603860006101000a81548173ffffffffffffffffffffffffffffffffffffffff021916908373ffffffffffffffffffffffffffffffffffffffff16021790555081603960006101000a81548173ffffffffffffffffffffffffffffffffffffffff021916908373ffffffffffffffffffffffffffffffffffffffff16021790555080603460006101000a81548173ffffffffffffffffffffffffffffffffffffffff021916908373ffffffffffffffffffffffffffffffffffffffff160217905550606460408190555050505050505050565b6000602060ff161161275d576040517f08c379a00000000000000000000000000000000000000000000000000000000081526004016127549061503b565b60405180910390fd5b6000429050600086823360405160200161277993929190614a3d565b604051602081830303815290604052805190602001209050603a60003373ffffffffffffffffffffffffffffffffffffffff1673ffffffffffffffffffffffffffffffffffffffff16815260200190815260200160002060008154809291906127e1906156ee565b91905055506000604160008381526020019081526020016000209050868160030190805190602001906128159291906139f0565b50828160010181905550338160000160016101000a81548173ffffffffffffffffffffffffffffffffffffffff021916908373ffffffffffffffffffffffffffffffffffffffff160217905550858160060160006101000a81548160ff021916908360068111156128af577f4e487b7100000000000000000000000000000000000000000000000000000000600052602160045260246000fd5b0217905550848160000160006101000a81548160ff0219169083151502179055508381600e0181905550603460009054906101000a900473ffffffffffffffffffffffffffffffffffffffff1673ffffffffffffffffffffffffffffffffffffffff1663f7c15fc885846040518363ffffffff1660e01b81526004016129369291906150d6565b600060405180830381600087803b15801561295057600080fd5b505af1158015612964573d6000803e3d6000fd5b505050508560068111156129a1577f4e487b7100000000000000000000000000000000000000000000000000000000600052602160045260246000fd5b823373ffffffffffffffffffffffffffffffffffffffff167f0dbeddfe9d39098957269db428a8da4b30b5f27a77cce961d530be73e35879d3868c8c6040516129ec939291906150ff565b60405180910390a45050505050505050565b60008183612a0c9190615345565b905092915050565b6000604160008481526020019081526020016000209050612aa26001603a60008460000160019054906101000a900473ffffffffffffffffffffffffffffffffffffffff1673ffffffffffffffffffffffffffffffffffffffff1673ffffffffffffffffffffffffffffffffffffffff168152602001908152602001600020546136ba90919063ffffffff16565b603a60008360000160019054906101000a900473ffffffffffffffffffffffffffffffffffffffff1673ffffffffffffffffffffffffffffffffffffffff1673ffffffffffffffffffffffffffffffffffffffff16815260200190815260200160002081905550603660009054906101000a900473ffffffffffffffffffffffffffffffffffffffff1673ffffffffffffffffffffffffffffffffffffffff166373c16b9d838360000160019054906101000a900473ffffffffffffffffffffffffffffffffffffffff168685600e01546040518563ffffffff1660e01b8152600401612b929493929190614acc565b600060405180830381600087803b158015612bac57600080fd5b505af1158015612bc0573d6000803e3d6000fd5b505050507f9a856ce2140763bf5c60c4782eca2bb7700a1492350b575c4455066ce05bfe9c838383600a0160008673ffffffffffffffffffffffffffffffffffffffff1673ffffffffffffffffffffffffffffffffffffffff1681526020019081526020016000205484600b0160008773ffffffffffffffffffffffffffffffffffffffff1673ffffffffffffffffffffffffffffffffffffffff16815260200190815260200160002054604051612c7b9493929190614d72565b60405180910390a1505050565b60008183612c9691906153cc565b905092915050565b6000868686604051602001612cb593929190614a3d565b6040516020818303038152906040528051906020012090506000604160008381526020019081526020016000209050603360009054906101000a900473ffffffffffffffffffffffffffffffffffffffff1673ffffffffffffffffffffffffffffffffffffffff16636f9cf9853360016002811115612d5d577f4e487b7100000000000000000000000000000000000000000000000000000000600052602160045260246000fd5b6040518363ffffffff1660e01b8152600401612d7a929190614b11565b602060405180830381600087803b158015612d9457600080fd5b505af1158015612da8573d6000803e3d6000fd5b505050506040513d601f19601f82011682018060405250810190612dcc9190613ff6565b612e0b576040517f08c379a0000000000000000000000000000000000000000000000000000000008152600401612e029061501b565b60405180910390fd5b86816001015414612e51576040517f08c379a0000000000000000000000000000000000000000000000000000000008152600401612e4890614fdb565b60405180910390fd5b60006002811115612e8b577f4e487b7100000000000000000000000000000000000000000000000000000000600052602160045260246000fd5b8160070160003373ffffffffffffffffffffffffffffffffffffffff1673ffffffffffffffffffffffffffffffffffffffff16815260200190815260200160002060009054906101000a900460ff166002811115612f12577f4e487b7100000000000000000000000000000000000000000000000000000000600052602160045260246000fd5b14612f52576040517f08c379a0000000000000000000000000000000000000000000000000000000008152600401612f4990614f9b565b60405180910390fd5b600073ffffffffffffffffffffffffffffffffffffffff16603860009054906101000a900473ffffffffffffffffffffffffffffffffffffffff1673ffffffffffffffffffffffffffffffffffffffff1663cfe02b89336040518263ffffffff1660e01b8152600401612fc59190614a7a565b60206040518083038186803b158015612fdd57600080fd5b505afa158015612ff1573d6000803e3d6000fd5b505050506040513d601f19601f820116820180604052508101906130159190613da3565b73ffffffffffffffffffffffffffffffffffffffff161461306b576040517f08c379a00000000000000000000000000000000000000000000000000000000081526004016130629061505b565b60405180910390fd5b603860009054906101000a900473ffffffffffffffffffffffffffffffffffffffff1673ffffffffffffffffffffffffffffffffffffffff1663105fd470336040518263ffffffff1660e01b81526004016130c69190614a7a565b60206040518083038186803b1580156130de57600080fd5b505afa1580156130f2573d6000803e3d6000fd5b505050506040513d601f19601f820116820180604052508101906131169190613ff6565b613155576040517f08c379a000000000000000000000000000000000000000000000000000000000815260040161314c90614fbb565b60405180910390fd5b848160070160003373ffffffffffffffffffffffffffffffffffffffff1673ffffffffffffffffffffffffffffffffffffffff16815260200190815260200160002060006101000a81548160ff021916908360028111156131df577f4e487b7100000000000000000000000000000000000000000000000000000000600052602160045260246000fd5b0217905550428160080160003373ffffffffffffffffffffffffffffffffffffffff1673ffffffffffffffffffffffffffffffffffffffff16815260200190815260200160002081905550838160090160003373ffffffffffffffffffffffffffffffffffffffff1673ffffffffffffffffffffffffffffffffffffffff168152602001908152602001600020908051906020019061327f9291906139f0565b508281600c0160003373ffffffffffffffffffffffffffffffffffffffff1673ffffffffffffffffffffffffffffffffffffffff168152602001908152602001600020819055508060050160008154809291906132db906156ee565b9190505550603860009054906101000a900473ffffffffffffffffffffffffffffffffffffffff1673ffffffffffffffffffffffffffffffffffffffff166375416a6b336040518263ffffffff1660e01b815260040161333b9190614a7a565b600060405180830381600087803b15801561335557600080fd5b505af1158015613369573d6000803e3d6000fd5b50505050603860009054906101000a900473ffffffffffffffffffffffffffffffffffffffff1673ffffffffffffffffffffffffffffffffffffffff1663ed1b4f9b336040518263ffffffff1660e01b81526004016133c89190614a7a565b600060405180830381600087803b1580156133e257600080fd5b505af11580156133f6573d6000803e3d6000fd5b505050506000603560009054906101000a900473ffffffffffffffffffffffffffffffffffffffff1673ffffffffffffffffffffffffffffffffffffffff16638319d390336040518263ffffffff1660e01b81526004016134579190614a7a565b60206040518083038186803b15801561346f57600080fd5b505afa158015613483573d6000803e3d6000fd5b505050506040513d601f19601f820116820180604052508101906134a791906141a0565b90506134b8838284600101546136d0565b8160080160003373ffffffffffffffffffffffffffffffffffffffff1673ffffffffffffffffffffffffffffffffffffffff16815260200190815260200160002054893373ffffffffffffffffffffffffffffffffffffffff167f4b29a3ed7e349f58641b48e385088f3e9ac94e5d63b51319f463ba16e6e6ba738989604051613543929190614f49565b60405180910390a46000603e54118015613561575060008260020154145b156135d8576135d1603d6000603e5481526020019081526020016000206000603f548152602001908152602001600020546064603d60008c81526020019081526020016000206000878152602001908152602001600020546135c391906153cc565b61373490919063ffffffff16565b6040819055505b603360009054906101000a900473ffffffffffffffffffffffffffffffffffffffff1673ffffffffffffffffffffffffffffffffffffffff16637036014e6040518163ffffffff1660e01b8152600401602060405180830381600087803b15801561364257600080fd5b505af1158015613656573d6000803e3d6000fd5b505050506040513d601f19601f8201168201806040525081019061367a91906141a0565b60405410158061368c57506064604054145b801561369c575060008260020154145b156136af576136ae838a60405461374a565b5b505050505050505050565b600081836136c89190615468565b905092915050565b61370782603d60008481526020019081526020016000206000868152602001908152602001600020546129fe90919063ffffffff16565b603d6000838152602001908152602001600020600085815260200190815260200160002081905550505050565b60008183613742919061539b565b905092915050565b60026001541415613790576040517f08c379a00000000000000000000000000000000000000000000000000000000081526004016137879061507b565b60405180910390fd5b60026001819055506000604160008581526020019081526020016000209050428160020181905550600080603960009054906101000a900473ffffffffffffffffffffffffffffffffffffffff1673ffffffffffffffffffffffffffffffffffffffff1663a4c46cc0876040518263ffffffff1660e01b81526004016138169190614d57565b60006040518083038186803b15801561382e57600080fd5b505afa158015613842573d6000803e3d6000fd5b505050506040513d6000823e3d601f19601f8201168201806040525081019061386b9190613fa2565b915091508083600401819055508260010154603e8190555085603f81905550603460009054906101000a900473ffffffffffffffffffffffffffffffffffffffff1673ffffffffffffffffffffffffffffffffffffffff166335fda3ae876040518263ffffffff1660e01b81526004016138e59190614d57565b600060405180830381600087803b1580156138ff57600080fd5b505af1158015613913573d6000803e3d6000fd5b50505050858360000160019054906101000a900473ffffffffffffffffffffffffffffffffffffffff1673ffffffffffffffffffffffffffffffffffffffff168460060160009054906101000a900460ff16600681111561399d577f4e487b7100000000000000000000000000000000000000000000000000000000600052602160045260246000fd5b7fe03e992493c423b331e1dad96e612b25875b27d3b641b9bea71da12a87863514888589428a6003018a6040516139d996959493929190614de7565b60405180910390a450505060018081905550505050565b8280546139fc906156bc565b90600052602060002090601f016020900481019282613a1e5760008555613a65565b82601f10613a3757805160ff1916838001178555613a65565b82800160010185558215613a65579182015b82811115613a64578251825591602001919060010190613a49565b5b509050613a729190613a76565b5090565b5b80821115613a8f576000816000905550600101613a77565b5090565b6000613aa6613aa184615197565b615166565b90508083825260208201905082856020860282011115613ac557600080fd5b60005b85811015613af55781613adb8882613c15565b845260208401935060208301925050600181019050613ac8565b5050509392505050565b6000613b12613b0d84615197565b615166565b90508083825260208201905082856020860282011115613b3157600080fd5b60005b85811015613b615781613b478882613c2a565b845260208401935060208301925050600181019050613b34565b5050509392505050565b6000613b7e613b79846151c3565b615166565b90508083825260208201905082856020860282011115613b9d57600080fd5b60005b85811015613bcd5781613bb38882613cbd565b845260208401935060208301925050600181019050613ba0565b5050509392505050565b6000613bea613be5846151ef565b615166565b905082815260208101848484011115613c0257600080fd5b613c0d84828561567a565b509392505050565b600081359050613c248161590f565b92915050565b600081519050613c398161590f565b92915050565b600082601f830112613c5057600080fd5b8135613c60848260208601613a93565b91505092915050565b600082601f830112613c7a57600080fd5b8151613c8a848260208601613aff565b91505092915050565b600082601f830112613ca457600080fd5b8135613cb4848260208601613b6b565b91505092915050565b600081359050613ccc81615926565b92915050565b600081519050613ce181615926565b92915050565b600081359050613cf68161593d565b92915050565b600081359050613d0b81615954565b92915050565b600081359050613d2081615964565b92915050565b600082601f830112613d3757600080fd5b8135613d47848260208601613bd7565b91505092915050565b600081359050613d5f81615974565b92915050565b600081519050613d7481615974565b92915050565b600060208284031215613d8c57600080fd5b6000613d9a84828501613c15565b91505092915050565b600060208284031215613db557600080fd5b6000613dc384828501613c2a565b91505092915050565b600080600080600080600060e0888a031215613de757600080fd5b6000613df58a828b01613c15565b9750506020613e068a828b01613c15565b9650506040613e178a828b01613c15565b9550506060613e288a828b01613c15565b9450506080613e398a828b01613c15565b93505060a0613e4a8a828b01613c15565b92505060c0613e5b8a828b01613c15565b91505092959891949750929550565b60008060408385031215613e7d57600080fd5b6000613e8b85828601613c15565b9250506020613e9c85828601613ce7565b9150509250929050565b60008060408385031215613eb957600080fd5b6000613ec785828601613c15565b9250506020613ed885828601613d50565b9150509250929050565b600060208284031215613ef457600080fd5b600082015167ffffffffffffffff811115613f0e57600080fd5b613f1a84828501613c69565b91505092915050565b600080600060608486031215613f3857600080fd5b600084013567ffffffffffffffff811115613f5257600080fd5b613f5e86828701613c3f565b935050602084013567ffffffffffffffff811115613f7b57600080fd5b613f8786828701613c93565b9250506040613f9886828701613ce7565b9150509250925092565b60008060408385031215613fb557600080fd5b600083015167ffffffffffffffff811115613fcf57600080fd5b613fdb85828601613c69565b9250506020613fec85828601613d65565b9150509250929050565b60006020828403121561400857600080fd5b600061401684828501613cd2565b91505092915050565b60006020828403121561403157600080fd5b600061403f84828501613ce7565b91505092915050565b6000806040838503121561405b57600080fd5b600061406985828601613ce7565b925050602061407a85828601613c15565b9150509250929050565b6000806000806080858703121561409a57600080fd5b60006140a887828801613ce7565b945050602085013567ffffffffffffffff8111156140c557600080fd5b6140d187828801613d26565b93505060406140e287828801613cfc565b92505060606140f387828801613d50565b91505092959194509250565b60008060008060008060c0878903121561411857600080fd5b600061412689828a01613ce7565b965050602061413789828a01613d50565b955050604061414889828a01613c15565b945050606061415989828a01613d11565b935050608087013567ffffffffffffffff81111561417657600080fd5b61418289828a01613d26565b92505060a061419389828a01613ce7565b9150509295509295509295565b6000602082840312156141b257600080fd5b60006141c084828501613d65565b91505092915050565b600080604083850312156141dc57600080fd5b60006141ea85828601613d50565b92505060206141fb85828601613ce7565b9150509250929050565b60006142118383614261565b60208301905092915050565b60006142298383614434565b60208301905092915050565b600061424183836144ff565b905092915050565b600061425583836149f9565b60208301905092915050565b61426a8161549c565b82525050565b6142798161549c565b82525050565b61429061428b8261549c565b615792565b82525050565b60006142a182615274565b6142ab81856152df565b93506142b68361521f565b8060005b838110156142e75781516142ce8882614205565b97506142d9836152ab565b9250506001810190506142ba565b5085935050505092915050565b60006142ff8261527f565b61430981856152f0565b93506143148361522f565b8060005b8381101561434557815161432c888261421d565b9750614337836152b8565b925050600181019050614318565b5085935050505092915050565b600061435d8261528a565b6143678185615301565b9350836020820285016143798561523f565b8060005b858110156143b557848403895281516143968582614235565b94506143a1836152c5565b925060208a0199505060018101905061437d565b50829750879550505050505092915050565b60006143d282615295565b6143dc8185615312565b93506143e78361524f565b8060005b838110156144185781516143ff8882614249565b975061440a836152d2565b9250506001810190506143eb565b5085935050505092915050565b61442e816154ae565b82525050565b61443d816154ba565b82525050565b61444c816154ba565b82525050565b61446361445e826154ba565b6157a4565b82525050565b61447281615548565b82525050565b6144818161556c565b82525050565b61449081615590565b82525050565b61449f816155b4565b82525050565b6144ae816155d8565b82525050565b6144bd816155fc565b82525050565b6144cc81615620565b82525050565b6144db81615644565b82525050565b6144ea81615656565b82525050565b6144f981615668565b82525050565b600061450a826152a0565b6145148185615323565b9350614524818560208601615689565b61452d816158b5565b840191505092915050565b6000614543826152a0565b61454d8185615334565b935061455d818560208601615689565b614566816158b5565b840191505092915050565b6000815461457e816156bc565b6145888186615334565b945060018216600081146145a357600181146145b5576145e8565b60ff19831686526020860193506145e8565b6145be8561525f565b60005b838110156145e0578154818901526001820191506020810190506145c1565b808801955050505b50505092915050565b60006145fe603f83615334565b91507f56616c69646174696f6e3a76616c6964617465202d205468697320646f63756d60008301527f656e7420686173206265656e2076616c69646174656420616c72656164792e006020830152604082019050919050565b6000614664603283615334565b91507f56616c69646174696f6e733a76616c6964617465202d20796f7520617265206e60008301527f6f742061206e6f6465206f70657261746f7200000000000000000000000000006020830152604082019050919050565b60006146ca603883615334565b91507f56616c69646174696f6e3a76616c6964617465202d207468652076616c69646160008301527f74696f6e20706172616d7320646f6e2774206d617463682e00000000000000006020830152604082019050919050565b6000614730606283615334565b91507f56616c69646174696f6e734e6f436f686f72743a696e697469616c697a65566160008301527f6c69646174696f6e4e6f436f686f7274202d204e6f742073756666696369656e60208301527f742066756e64732e204465706f736974206164646974696f6e616c2066756e6460408301527f732e0000000000000000000000000000000000000000000000000000000000006060830152608082019050919050565b60006147e2603283615334565b91507f56616c69646174696f6e3a76616c6964617465202d2056616c696461746f722060008301527f6973206e6f7420617574686f72697a65642e00000000000000000000000000006020830152604082019050919050565b6000614848604083615334565b91507f56616c69646174696f6e3a696e697469616c697a6556616c69646174696f6e2060008301527f2d20446f63756d656e7420686173682076616c75652063616e277420626520306020830152604082019050919050565b60006148ae605083615334565b91507f56616c69646174696f6e733a76616c6964617465202d20796f752063616e277460008301527f2076616c696461746564206265636175736520796f7520686176652064656c6560208301527f676174656420796f7572207374616b65000000000000000000000000000000006040830152606082019050919050565b600061493a601f83615334565b91507f5265656e7472616e637947756172643a207265656e7472616e742063616c6c006000830152602082019050919050565b600061497a605a83615334565b91507f56616c69646174696f6e734e6f436f686f72743a696e697469616c697a65566160008301527f6c69646174696f6e4e6f436f686f7274202d20596f75206861766520746f207260208301527f65676973746572206173206461746120737562736372696265720000000000006040830152606082019050919050565b614a028161551d565b82525050565b614a118161551d565b82525050565b614a28614a238261551d565b6157c0565b82525050565b614a3781615527565b82525050565b6000614a498286614452565b602082019150614a598285614a17565b602082019150614a69828461427f565b601482019150819050949350505050565b6000602082019050614a8f6000830184614270565b92915050565b6000606082019050614aaa6000830186614270565b614ab76020830185614270565b614ac46040830184614425565b949350505050565b6000608082019050614ae16000830187614270565b614aee6020830186614270565b614afb6040830185614443565b614b086060830184614a08565b95945050505050565b6000604082019050614b266000830185614270565b614b3360208301846144e1565b9392505050565b60006020820190508181036000830152614b548184614296565b905092915050565b600060c0820190508181036000830152614b768189614296565b90508181036020830152614b8a81886143c7565b90508181036040830152614b9e81876143c7565b90508181036060830152614bb281866143c7565b90508181036080830152614bc68185614352565b905081810360a0830152614bda81846142f4565b9050979650505050505050565b6000602082019050614bfc6000830184614425565b92915050565b600061016082019050614c18600083018e614425565b614c25602083018d614270565b614c32604083018c614a08565b614c3f606083018b614a08565b8181036080830152614c51818a614538565b9050614c6060a0830189614a08565b614c6d60c0830188614a08565b614c7a60e08301876144d2565b614c88610100830186614a2e565b614c96610120830185614270565b614ca4610140830184614a08565b9c9b505050505050505050505050565b600061014082019050614cca600083018d614425565b614cd7602083018c614270565b614ce4604083018b614a08565b614cf1606083018a614a08565b8181036080830152614d038189614538565b9050614d1260a0830188614a08565b614d1f60c0830187614a08565b614d2c60e0830186614a2e565b614d3a610100830185614425565b614d48610120830184614270565b9b9a5050505050505050505050565b6000602082019050614d6c6000830184614443565b92915050565b6000608082019050614d876000830187614443565b614d946020830186614270565b614da16040830185614a08565b614dae6060830184614a08565b95945050505050565b6000604082019050614dcc6000830185614443565b8181036020830152614dde8184614296565b90509392505050565b600060c082019050614dfc6000830189614443565b614e096020830188614a08565b614e166040830187614a08565b614e236060830186614a08565b8181036080830152614e358185614571565b905081810360a0830152614e498184614296565b9050979650505050505050565b6000602082019050614e6b6000830184614469565b92915050565b6000602082019050614e866000830184614478565b92915050565b6000602082019050614ea16000830184614487565b92915050565b6000602082019050614ebc6000830184614496565b92915050565b6000602082019050614ed760008301846144a5565b92915050565b6000602082019050614ef260008301846144b4565b92915050565b6000602082019050614f0d60008301846144c3565b92915050565b6000602082019050614f2860008301846144d2565b92915050565b6000602082019050614f4360008301846144f0565b92915050565b6000604082019050614f5e60008301856144f0565b8181036020830152614f708184614538565b90509392505050565b60006020820190508181036000830152614f938184614538565b905092915050565b60006020820190508181036000830152614fb4816145f1565b9050919050565b60006020820190508181036000830152614fd481614657565b9050919050565b60006020820190508181036000830152614ff4816146bd565b9050919050565b6000602082019050818103600083015261501481614723565b9050919050565b60006020820190508181036000830152615034816147d5565b9050919050565b600060208201905081810360008301526150548161483b565b9050919050565b60006020820190508181036000830152615074816148a1565b9050919050565b600060208201905081810360008301526150948161492d565b9050919050565b600060208201905081810360008301526150b48161496d565b9050919050565b60006020820190506150d06000830184614a08565b92915050565b60006040820190506150eb6000830185614a08565b6150f86020830184614443565b9392505050565b60006060820190506151146000830186614a08565b6151216020830185614443565b81810360408301526151338184614538565b9050949350505050565b60006040820190506151526000830185614a08565b61515f6020830184614a08565b9392505050565b6000604051905081810181811067ffffffffffffffff8211171561518d5761518c615886565b5b8060405250919050565b600067ffffffffffffffff8211156151b2576151b1615886565b5b602082029050602081019050919050565b600067ffffffffffffffff8211156151de576151dd615886565b5b602082029050602081019050919050565b600067ffffffffffffffff82111561520a57615209615886565b5b601f19601f8301169050602081019050919050565b6000819050602082019050919050565b6000819050602082019050919050565b6000819050602082019050919050565b6000819050602082019050919050565b60008190508160005260206000209050919050565b600081519050919050565b600081519050919050565b600081519050919050565b600081519050919050565b600081519050919050565b6000602082019050919050565b6000602082019050919050565b6000602082019050919050565b6000602082019050919050565b600082825260208201905092915050565b600082825260208201905092915050565b600082825260208201905092915050565b600082825260208201905092915050565b600082825260208201905092915050565b600082825260208201905092915050565b60006153508261551d565b915061535b8361551d565b9250827fffffffffffffffffffffffffffffffffffffffffffffffffffffffffffffffff038211156153905761538f6157ca565b5b828201905092915050565b60006153a68261551d565b91506153b18361551d565b9250826153c1576153c06157f9565b5b828204905092915050565b60006153d78261551d565b91506153e28361551d565b9250817fffffffffffffffffffffffffffffffffffffffffffffffffffffffffffffffff048311821515161561541b5761541a6157ca565b5b828202905092915050565b600061543182615527565b915061543c83615527565b92508167ffffffffffffffff048311821515161561545d5761545c6157ca565b5b828202905092915050565b60006154738261551d565b915061547e8361551d565b925082821015615491576154906157ca565b5b828203905092915050565b60006154a7826154fd565b9050919050565b60008115159050919050565b6000819050919050565b60008190506154d2826158d3565b919050565b60008190506154e5826158e7565b919050565b60008190506154f8826158fb565b919050565b600073ffffffffffffffffffffffffffffffffffffffff82169050919050565b6000819050919050565b600067ffffffffffffffff82169050919050565b600060ff82169050919050565b60006155538261555a565b9050919050565b6000615565826154fd565b9050919050565b60006155778261557e565b9050919050565b6000615589826154fd565b9050919050565b600061559b826155a2565b9050919050565b60006155ad826154fd565b9050919050565b60006155bf826155c6565b9050919050565b60006155d1826154fd565b9050919050565b60006155e3826155ea565b9050919050565b60006155f5826154fd565b9050919050565b60006156078261560e565b9050919050565b6000615619826154fd565b9050919050565b600061562b82615632565b9050919050565b600061563d826154fd565b9050919050565b600061564f826154c4565b9050919050565b6000615661826154d7565b9050919050565b6000615673826154ea565b9050919050565b82818337600083830152505050565b60005b838110156156a757808201518184015260208101905061568c565b838111156156b6576000848401525b50505050565b600060028204905060018216806156d457607f821691505b602082108114156156e8576156e7615857565b5b50919050565b60006156f98261551d565b91507fffffffffffffffffffffffffffffffffffffffffffffffffffffffffffffffff82141561572c5761572b6157ca565b5b600182019050919050565b600061574282615527565b915067ffffffffffffffff82141561575d5761575c6157ca565b5b600182019050919050565b60006157738261553b565b915060ff821415615787576157866157ca565b5b600182019050919050565b600061579d826157ae565b9050919050565b6000819050919050565b60006157b9826158c6565b9050919050565b6000819050919050565b7f4e487b7100000000000000000000000000000000000000000000000000000000600052601160045260246000fd5b7f4e487b7100000000000000000000000000000000000000000000000000000000600052601260045260246000fd5b7f4e487b7100000000000000000000000000000000000000000000000000000000600052602160045260246000fd5b7f4e487b7100000000000000000000000000000000000000000000000000000000600052602260045260246000fd5b7f4e487b7100000000000000000000000000000000000000000000000000000000600052604160045260246000fd5b6000601f19601f8301169050919050565b60008160601b9050919050565b600781106158e4576158e3615828565b5b50565b600381106158f8576158f7615828565b5b50565b6003811061590c5761590b615828565b5b50565b6159188161549c565b811461592357600080fd5b50565b61592f816154ae565b811461593a57600080fd5b50565b615946816154ba565b811461595157600080fd5b50565b6007811061596157600080fd5b50565b6003811061597157600080fd5b50565b61597d8161551d565b811461598857600080fd5b5056fea2646970667358221220ceb45d37e4fb9879d17e538a092fc9c5b140043520aea73901dbd5ec66850b2764736f6c63430008000033",
  "immutableReferences": {},
  "source": "// SPDX-License-Identifier: MIT\npragma solidity =0.8.0;\n\nimport \"./Validations.sol\";\nimport \"@openzeppelin/contracts-upgradeable/utils/math/SafeMathUpgradeable.sol\";\n\n\n\ncontract ValidationsNoCohort is Validations {\n    using SafeMathUpgradeable for uint256;\n\n    function initialize(address _members, address _memberHelpers, address _cohortFactory, address _depositModifiers, address _nodeOperations,  address _validationHelpers, address _queue) public override {\n        super.initialize(_members, _memberHelpers, _cohortFactory, _depositModifiers, _nodeOperations, _validationHelpers, _queue);\n\n    }\n\n    /**\n    * @dev to be called by data subscriber to initiate new validation\n    * @param documentHash - hash of unique identifier of validated transaction\n    * @param url - locatoin of the file on IPFS or   function returnValidatorList(bytes32 validationHash) public view override  returns (address[] memory){\n    * @param auditType - type of auditing \n    */\n    function initializeValidationNoCohort(bytes32 documentHash, string memory url, AuditTypes auditType, uint256 price) public {\n\n        require(checkIfRequestorHasFunds(msg.sender, price), \"ValidationsNoCohort:initializeValidationNoCohort - Not sufficient funds. Deposit additional funds.\");\n        require(members.userMap(msg.sender, IMembers.UserType(2)), \"ValidationsNoCohort:initializeValidationNoCohort - You have to register as data subscriber\");\n        super.initializeValidation(documentHash, url, auditType, false, price);\n        \n    }\n\n   /**\n   * @dev verify if requesting party has sufficient funds\n   * @param requestor a user whos funds are checked\n   * @return true or false \n   */\n      function checkIfRequestorHasFunds(address requestor, uint256 price) public override view returns (bool) {\n\n          return ( memberHelpers.deposits(requestor) > price.mul(outstandingValidations[requestor].add(1)));\n    }\n\n\n    function processPayments(bytes32 validationHash, address winner) internal override { \n\n        Validation storage validation = validations[validationHash];\n        outstandingValidations[validation.requestor] = outstandingValidations[validation.requestor].sub(1);\n        depositModifiers.processNonChortPayment(winner, validation.requestor, validationHash, validation.price);\n        emit PaymentProcessed(validationHash, winner, validation.winnerVotesPlus[winner], validation.winnerVotesMinus[winner]);\n    }\n\n    function validate(bytes32 documentHash, uint256 validationTime, address subscriber, ValidationStatus decision, string memory valUrl, bytes32 reportHash) public override {\n        super.validate(documentHash, validationTime, subscriber, decision, valUrl, reportHash);\n    }\n\n    function returnValidatorCount(bytes32 recentValidationHash) public view override returns (uint256){\n        // return nodeOperations.returnNodeOperatorsCount();\n\n        (address[] memory nodeOperators,,,,,) = collectValidationResults(recentValidationHash);\n        return nodeOperators.length;\n        \n    }\n\n    function returnValidatorList(bytes32 validationHash) public view override  returns (address[] memory){\n\n        address[] memory validatorsList = nodeOperations.returnNodeOperators();\n        return validatorsList;\n    }\n\n\n       function returnValidatorListActual(bytes32 validationHash) public view returns (address[] memory){\n\n        //  (address[] memory nodeOperators,,,,,)  = collectValidationResults(validationHash);\n        Validation storage validation = validations[validationHash];\n        uint256 j=0;\n\n        address[] memory validatorListActive = new address[](validation.validationsCompleted);\n        address[] memory validatorsList = nodeOperations.returnNodeOperators();\n\n         for (uint256 i = 0; i < validatorsList.length; i++) {\n            if(validation.validatorChoice[validatorsList[i]] != ValidationStatus.Undefined) {\n                validatorListActive[j] = validatorsList[i];\n                j++;\n            }\n        }\n        return validatorListActive;\n    }\n\n\n\n}",
  "sourcePath": "/home/win2win/eth/projects/AuditChain/Core-Smart-Contracts-v1-upgradable/contracts/Auditchain/ValidationsNoCohort.sol",
  "compiler": {
    "name": "solc",
    "version": "0.8.0+commit.c7dfd78e.Emscripten.clang"
  },
  "schemaVersion": "3.4.1",
  "updatedAt": "2022-05-03T20:34:42.745Z",
  "networkType": "ethereum",
  "devdoc": {
    "kind": "dev",
    "methods": {
      "checkIfRequestorHasFunds(address,uint256)": {
        "details": "verify if requesting party has sufficient funds",
        "params": {
          "requestor": "a user whos funds are checked"
        },
        "returns": {
          "_0": "true or false "
        }
      },
      "collectValidationResults(bytes32)": {
        "details": "Review the validation results",
        "params": {
          "validationHash": "- consist of hash of hashed document and timestamp"
        },
        "returns": {
          "_0": "array  of validators",
          "_1": "array of stakes of each validatoralidation.requestor",
          "_2": "array of validation choices for each validator"
        }
      },
      "initializeValidationNoCohort(bytes32,string,uint8,uint256)": {
        "details": "to be called by data subscriber to initiate new validation",
        "params": {
          "auditType": "- type of auditing ",
          "documentHash": "- hash of unique identifier of validated transaction",
          "url": "- locatoin of the file on IPFS or   function returnValidatorList(bytes32 validationHash) public view override  returns (address[] memory){"
        }
      },
      "isValidated(bytes32)": {
        "details": "validators can check if specific document has been already validated by them",
        "params": {
          "validationHash": "- consist of hash of hashed document and timestamp"
        },
        "returns": {
          "_0": "validation choices used by validator"
        }
      },
      "validate(bytes32,uint256,address,uint8,string,bytes32)": {
        "details": "called by validator to approve or disapprove this validation",
        "params": {
          "decision": "- one of the ValidationStatus choices cast by validator",
          "documentHash": "- hash of validated document",
          "validationTime": "- this is the time when validation has been initialized"
        }
      }
    },
    "version": 1
  },
  "userdoc": {
    "kind": "user",
    "methods": {},
    "version": 1
  }
}