{
  "contractName": "ValidationHelpers",
  "abi": [
    {
      "anonymous": false,
      "inputs": [
        {
          "indexed": true,
          "internalType": "address",
          "name": "user",
          "type": "address"
        },
        {
          "indexed": false,
          "internalType": "bytes32",
          "name": "validationHash",
          "type": "bytes32"
        },
        {
          "indexed": false,
          "internalType": "uint256",
          "name": "price",
          "type": "uint256"
        }
      ],
      "name": "ReplaceCancelValidation",
      "type": "event"
    },
    {
      "inputs": [],
      "name": "queue",
      "outputs": [
        {
          "internalType": "contract IQueue",
          "name": "",
          "type": "address"
        }
      ],
      "stateMutability": "view",
      "type": "function",
      "constant": true
    },
    {
      "inputs": [
        {
          "internalType": "address",
          "name": "_memberHelpers",
          "type": "address"
        },
        {
          "internalType": "address",
          "name": "_queue",
          "type": "address"
        }
      ],
      "name": "initialize",
      "outputs": [],
      "stateMutability": "nonpayable",
      "type": "function"
    },
    {
      "inputs": [
        {
          "internalType": "bytes32",
          "name": "documentHash",
          "type": "bytes32"
        },
        {
          "internalType": "uint256",
          "name": "_validationTime",
          "type": "uint256"
        }
      ],
      "name": "isHashAndTimeCorrect",
      "outputs": [
        {
          "internalType": "bool",
          "name": "",
          "type": "bool"
        }
      ],
      "stateMutability": "view",
      "type": "function",
      "constant": true
    },
    {
      "inputs": [
        {
          "internalType": "bytes32",
          "name": "validationHash",
          "type": "bytes32"
        },
        {
          "internalType": "address",
          "name": "contractAddress",
          "type": "address"
        }
      ],
      "name": "returnWinnerStruct",
      "outputs": [
        {
          "internalType": "string",
          "name": "valUrl",
          "type": "string"
        },
        {
          "internalType": "address",
          "name": "winner",
          "type": "address"
        },
        {
          "internalType": "uint256",
          "name": "validationTime",
          "type": "uint256"
        }
      ],
      "stateMutability": "view",
      "type": "function",
      "constant": true
    },
    {
      "inputs": [
        {
          "internalType": "uint256",
          "name": "price",
          "type": "uint256"
        },
        {
          "internalType": "bytes32",
          "name": "validationHash",
          "type": "bytes32"
        },
        {
          "internalType": "address",
          "name": "contractAddress",
          "type": "address"
        }
      ],
      "name": "replaceCancelValidation",
      "outputs": [],
      "stateMutability": "nonpayable",
      "type": "function"
    },
    {
      "inputs": [
        {
          "internalType": "bytes32",
          "name": "validationHash",
          "type": "bytes32"
        },
        {
          "internalType": "address[]",
          "name": "winners",
          "type": "address[]"
        }
      ],
      "name": "selectWinner",
      "outputs": [
        {
          "internalType": "address",
          "name": "",
          "type": "address"
        }
      ],
      "stateMutability": "view",
      "type": "function",
      "constant": true
    },
    {
      "inputs": [
        {
          "internalType": "bytes32",
          "name": "validationHash",
          "type": "bytes32"
        }
      ],
      "name": "determineWinners",
      "outputs": [
        {
          "internalType": "address[]",
          "name": "",
          "type": "address[]"
        },
        {
          "internalType": "uint256",
          "name": "",
          "type": "uint256"
        }
      ],
      "stateMutability": "view",
      "type": "function",
      "constant": true
    },
    {
      "inputs": [
        {
          "internalType": "uint256[]",
          "name": "validation",
          "type": "uint256[]"
        }
      ],
      "name": "determineConsensus",
      "outputs": [
        {
          "internalType": "uint256",
          "name": "",
          "type": "uint256"
        }
      ],
      "stateMutability": "pure",
      "type": "function",
      "constant": true
    },
    {
      "inputs": [
        {
          "internalType": "bytes32",
          "name": "validationHash",
          "type": "bytes32"
        },
        {
          "internalType": "address",
          "name": "validationContract",
          "type": "address"
        }
      ],
      "name": "calculateVoteQuorum",
      "outputs": [
        {
          "internalType": "uint256",
          "name": "",
          "type": "uint256"
        }
      ],
      "stateMutability": "view",
      "type": "function",
      "constant": true
    }
  ],
  "bytecode": "0x608060405234801561001057600080fd5b50612d70806100206000396000f3fe608060405234801561001057600080fd5b50600436106100935760003560e01c8063a415b96a11610066578063a415b96a14610132578063a4c46cc014610162578063ab6c77a714610193578063b4636696146101c3578063e10d29ee146101f357610093565b8063311b093e14610098578063485cc955146100ca578063533e0d47146100e65780639dd4640214610102575b600080fd5b6100b260048036038101906100ad91906121b3565b610211565b6040516100c19392919061271d565b60405180910390f35b6100e460048036038101906100df9190611ec0565b610373565b005b61010060048036038101906100fb91906122e9565b6103f8565b005b61011c600480360381019061011791906121ef565b6106c8565b604051610129919061262f565b60405180910390f35b61014c600480360381019061014791906121b3565b610974565b60405161015991906127bb565b60405180910390f35b61017c6004803603810190610177919061218a565b610e0c565b60405161018a92919061264a565b60405180910390f35b6101ad60048036038101906101a89190612243565b6111d1565b6040516101ba919061267a565b60405180910390f35b6101dd60048036038101906101d89190612056565b6112ba565b6040516101ea91906127bb565b60405180910390f35b6101fb6113b7565b6040516102089190612702565b60405180910390f35b60606000808373ffffffffffffffffffffffffffffffffffffffff166356756cd7866040518263ffffffff1660e01b815260040161024f9190612695565b60006040518083038186803b15801561026757600080fd5b505afa15801561027b573d6000803e3d6000fd5b505050506040513d6000823e3d601f19601f820116820180604052508101906102a49190612097565b9091929394959697985090919293949596975090919293949550909192939450909192935090919250909150905080935081925050508373ffffffffffffffffffffffffffffffffffffffff16635b3c5c4a86846040518363ffffffff1660e01b81526004016103159291906126b0565b60006040518083038186803b15801561032d57600080fd5b505afa158015610341573d6000803e3d6000fd5b505050506040513d6000823e3d601f19601f8201168201806040525081019061036a919061227f565b92509250925092565b816000806101000a81548173ffffffffffffffffffffffffffffffffffffffff021916908373ffffffffffffffffffffffffffffffffffffffff16021790555080600160006101000a81548173ffffffffffffffffffffffffffffffffffffffff021916908373ffffffffffffffffffffffffffffffffffffffff1602179055505050565b6000801b82141561043e576040517f08c379a00000000000000000000000000000000000000000000000000000000081526004016104359061275b565b60405180910390fd5b60008173ffffffffffffffffffffffffffffffffffffffff166356756cd7846040518263ffffffff1660e01b81526004016104799190612695565b60006040518083038186803b15801561049157600080fd5b505afa1580156104a5573d6000803e3d6000fd5b505050506040513d6000823e3d601f19601f820116820180604052508101906104ce9190612097565b50505050505050509150508073ffffffffffffffffffffffffffffffffffffffff163373ffffffffffffffffffffffffffffffffffffffff1614610547576040517f08c379a000000000000000000000000000000000000000000000000000000000815260040161053e9061279b565b60405180910390fd5b60008414156105e257600160009054906101000a900473ffffffffffffffffffffffffffffffffffffffff1673ffffffffffffffffffffffffffffffffffffffff166348792674846040518263ffffffff1660e01b81526004016105ab9190612695565b600060405180830381600087803b1580156105c557600080fd5b505af11580156105d9573d6000803e3d6000fd5b50505050610672565b600160009054906101000a900473ffffffffffffffffffffffffffffffffffffffff1673ffffffffffffffffffffffffffffffffffffffff1663c4a2e36985856040518363ffffffff1660e01b815260040161063f9291906127d6565b600060405180830381600087803b15801561065957600080fd5b505af115801561066d573d6000803e3d6000fd5b505050505b3373ffffffffffffffffffffffffffffffffffffffff167f3ece483bb25cfe1e97ad6181550c95eda40cd9f214be0eb309424300d7e5506584866040516106ba9291906126d9565b60405180910390a250505050565b60008082600081518110610705577f4e487b7100000000000000000000000000000000000000000000000000000000600052603260045260246000fd5b602002602001015190506000600190505b83518160ff161015610969576000803373ffffffffffffffffffffffffffffffffffffffff166362e23f2788888660ff168151811061077e577f4e487b7100000000000000000000000000000000000000000000000000000000600052603260045260246000fd5b60200260200101516040518363ffffffff1660e01b81526004016107a39291906126b0565b604080518083038186803b1580156107ba57600080fd5b505afa1580156107ce573d6000803e3d6000fd5b505050506040513d601f19601f820116820180604052508101906107f29190612338565b915091506000803373ffffffffffffffffffffffffffffffffffffffff166362e23f278a8a6001896108249190612a7a565b60ff168151811061085e577f4e487b7100000000000000000000000000000000000000000000000000000000600052603260045260246000fd5b60200260200101516040518363ffffffff1660e01b81526004016108839291906126b0565b604080518083038186803b15801561089a57600080fd5b505afa1580156108ae573d6000803e3d6000fd5b505050506040513d601f19601f820116820180604052508101906108d29190612338565b9150915082841115610952576108f181836113dd90919063ffffffff16565b61090484866113dd90919063ffffffff16565b111561095157878560ff1681518110610946577f4e487b7100000000000000000000000000000000000000000000000000000000600052603260045260246000fd5b602002602001015195505b5b50505050808061096190612beb565b915050610716565b508091505092915050565b6000806000808473ffffffffffffffffffffffffffffffffffffffff166341035f2a876040518263ffffffff1660e01b81526004016109b39190612695565b60006040518083038186803b1580156109cb57600080fd5b505afa1580156109df573d6000803e3d6000fd5b505050506040513d6000823e3d601f19601f82011682018060405250810190610a089190611efc565b90506000815111610a4e576040517f08c379a0000000000000000000000000000000000000000000000000000000008152600401610a459061277b565b60405180910390fd5b6000808673ffffffffffffffffffffffffffffffffffffffff1663b39fd6cf896040518263ffffffff1660e01b8152600401610a8a9190612695565b60006040518083038186803b158015610aa257600080fd5b505afa158015610ab6573d6000803e3d6000fd5b505050506040513d6000823e3d601f19601f82011682018060405250810190610adf9190611f3d565b505050925050915060005b8351811015610dc75760008054906101000a900473ffffffffffffffffffffffffffffffffffffffff1673ffffffffffffffffffffffffffffffffffffffff16638319d390858381518110610b68577f4e487b7100000000000000000000000000000000000000000000000000000000600052603260045260246000fd5b60200260200101516040518263ffffffff1660e01b8152600401610b8c919061262f565b60206040518083038186803b158015610ba457600080fd5b505afa158015610bb8573d6000803e3d6000fd5b505050506040513d601f19601f82011682018060405250810190610bdc91906122c0565b86610be79190612965565b955060005b8251811015610db357838181518110610c2e577f4e487b7100000000000000000000000000000000000000000000000000000000600052603260045260246000fd5b602002602001015173ffffffffffffffffffffffffffffffffffffffff16858381518110610c85577f4e487b7100000000000000000000000000000000000000000000000000000000600052603260045260246000fd5b602002602001015173ffffffffffffffffffffffffffffffffffffffff161415610da05760008054906101000a900473ffffffffffffffffffffffffffffffffffffffff1673ffffffffffffffffffffffffffffffffffffffff16638319d390868481518110610d1e577f4e487b7100000000000000000000000000000000000000000000000000000000600052603260045260246000fd5b60200260200101516040518263ffffffff1660e01b8152600401610d42919061262f565b60206040518083038186803b158015610d5a57600080fd5b505afa158015610d6e573d6000803e3d6000fd5b505050506040513d601f19601f82011682018060405250810190610d9291906122c0565b86610d9d9190612965565b95505b8080610dab90612ba2565b915050610bec565b508080610dbf90612ba2565b915050610aea565b506000841415610ddf57600095505050505050610e06565b610dfe85606486610df091906129ec565b6113f390919063ffffffff16565b955050505050505b92915050565b6060600080600080610e1d86611409565b9250925092506000610e2e836112ba565b90506000845167ffffffffffffffff811115610e73577f4e487b7100000000000000000000000000000000000000000000000000000000600052604160045260246000fd5b604051908082528060200260200182016040528015610ea15781602001602082028036833780820191505090505b50905060008060009050600085600081518110610ee7577f4e487b7100000000000000000000000000000000000000000000000000000000600052603260045260246000fd5b6020026020010151905060005b8361101a5785888481518110610f33577f4e487b7100000000000000000000000000000000000000000000000000000000600052603260045260246000fd5b6020026020010151148015610f87575081878481518110610f7d577f4e487b7100000000000000000000000000000000000000000000000000000000600052603260045260246000fd5b6020026020010151145b15610fe8576001858481518110610fc7577f4e487b7100000000000000000000000000000000000000000000000000000000600052603260045260246000fd5b6020026020010190151590811515815250508080610fe490612ba2565b9150505b8851600184610ff79190612965565b14156110065760019350611015565b828061101190612ba2565b9350505b610ef4565b60008167ffffffffffffffff81111561105c577f4e487b7100000000000000000000000000000000000000000000000000000000600052604160045260246000fd5b60405190808252806020026020018201604052801561108a5781602001602082028036833780820191505090505b509050600080600090505b8b518110156111ba578781815181106110d7577f4e487b7100000000000000000000000000000000000000000000000000000000600052603260045260246000fd5b6020026020010151156111a7578b818151811061111d577f4e487b7100000000000000000000000000000000000000000000000000000000600052603260045260246000fd5b602002602001015183838151811061115e577f4e487b7100000000000000000000000000000000000000000000000000000000600052603260045260246000fd5b602002602001019073ffffffffffffffffffffffffffffffffffffffff16908173ffffffffffffffffffffffffffffffffffffffff168152505081806111a390612ba2565b9250505b80806111b290612ba2565b915050611095565b5081889c509c505050505050505050505050915091565b60008083836040516020016111e7929190612603565b60405160208183030381529060405280519060200120905060003373ffffffffffffffffffffffffffffffffffffffff166356756cd7836040518263ffffffff1660e01b815260040161123a9190612695565b60006040518083038186803b15801561125257600080fd5b505afa158015611266573d6000803e3d6000fd5b505050506040513d6000823e3d601f19601f8201168201806040525081019061128f9190612097565b5050505050505092505050838114156112ad576001925050506112b4565b6000925050505b92915050565b600080600080600090505b84518110156113845760016002811115611308577f4e487b7100000000000000000000000000000000000000000000000000000000600052602160045260246000fd5b858281518110611341577f4e487b7100000000000000000000000000000000000000000000000000000000600052603260045260246000fd5b6020026020010151141561136257828061135a90612ba2565b935050611371565b818061136d90612ba2565b9250505b808061137c90612ba2565b9150506112c5565b5080821115611398576001925050506113b2565b818111156113ab576002925050506113b2565b6002925050505b919050565b600160009054906101000a900473ffffffffffffffffffffffffffffffffffffffff1681565b600081836113eb9190612a46565b905092915050565b6000818361140191906129bb565b905092915050565b606080606060008060003373ffffffffffffffffffffffffffffffffffffffff1663b39fd6cf886040518263ffffffff1660e01b815260040161144c9190612695565b60006040518083038186803b15801561146457600080fd5b505afa158015611478573d6000803e3d6000fd5b505050506040513d6000823e3d601f19601f820116820180604052508101906114a19190611f3d565b5050935093505092506000815190506000600190505b81811015611a265760008382815181106114fa577f4e487b7100000000000000000000000000000000000000000000000000000000600052603260045260246000fd5b60200260200101519050600086838151811061153f577f4e487b7100000000000000000000000000000000000000000000000000000000600052603260045260246000fd5b602002602001015190506000868481518110611584577f4e487b7100000000000000000000000000000000000000000000000000000000600052603260045260246000fd5b60200260200101519050600060018561159d9190612a46565b90505b6000811380156115ef5750838782815181106115e5577f4e487b7100000000000000000000000000000000000000000000000000000000600052603260045260246000fd5b6020026020010151115b156118eb5786818151811061162d577f4e487b7100000000000000000000000000000000000000000000000000000000600052603260045260246000fd5b602002602001015187868151811061166e577f4e487b7100000000000000000000000000000000000000000000000000000000600052603260045260246000fd5b60200260200101818152505083876001876116899190612a46565b815181106116c0577f4e487b7100000000000000000000000000000000000000000000000000000000600052603260045260246000fd5b602002602001018181525050888181518110611705577f4e487b7100000000000000000000000000000000000000000000000000000000600052603260045260246000fd5b6020026020010151898681518110611746577f4e487b7100000000000000000000000000000000000000000000000000000000600052603260045260246000fd5b602002602001019073ffffffffffffffffffffffffffffffffffffffff16908173ffffffffffffffffffffffffffffffffffffffff1681525050828960018761178f9190612a46565b815181106117c6577f4e487b7100000000000000000000000000000000000000000000000000000000600052603260045260246000fd5b602002602001019073ffffffffffffffffffffffffffffffffffffffff16908173ffffffffffffffffffffffffffffffffffffffff1681525050878181518110611839577f4e487b7100000000000000000000000000000000000000000000000000000000600052603260045260246000fd5b602002602001015188868151811061187a577f4e487b7100000000000000000000000000000000000000000000000000000000600052603260045260246000fd5b60200260200101818152505081886001876118959190612a46565b815181106118cc577f4e487b7100000000000000000000000000000000000000000000000000000000600052603260045260246000fd5b60200260200101818152505080806118e390612b78565b9150506115a0565b83876001836118fa9190612965565b81518110611931577f4e487b7100000000000000000000000000000000000000000000000000000000600052603260045260246000fd5b602002602001018181525050828960018361194c9190612965565b81518110611983577f4e487b7100000000000000000000000000000000000000000000000000000000600052603260045260246000fd5b602002602001019073ffffffffffffffffffffffffffffffffffffffff16908173ffffffffffffffffffffffffffffffffffffffff168152505081886001836119cc9190612965565b81518110611a03577f4e487b7100000000000000000000000000000000000000000000000000000000600052603260045260246000fd5b602002602001018181525050505050508080611a1e90612ba2565b9150506114b7565b50838383965096509650505050509193909250565b6000611a4e611a4984612830565b6127ff565b90508083825260208201905082856020860282011115611a6d57600080fd5b60005b85811015611a9d5781611a838882611cf2565b845260208401935060208301925050600181019050611a70565b5050509392505050565b6000611aba611ab584612830565b6127ff565b90508083825260208201905082856020860282011115611ad957600080fd5b60005b85811015611b095781611aef8882611d07565b845260208401935060208301925050600181019050611adc565b5050509392505050565b6000611b26611b218461285c565b6127ff565b90508083825260208201905082856020860282011115611b4557600080fd5b60005b85811015611b755781611b5b8882611e42565b845260208401935060208301925050600181019050611b48565b5050509392505050565b6000611b92611b8d84612888565b6127ff565b9050808382526020820190508260005b85811015611bd25781518501611bb88882611e57565b845260208401935060208301925050600181019050611ba2565b5050509392505050565b6000611bef611bea846128b4565b6127ff565b90508083825260208201905082856020860282011115611c0e57600080fd5b60005b85811015611c3e5781611c248882611e81565b845260208401935060208301925050600181019050611c11565b5050509392505050565b6000611c5b611c56846128b4565b6127ff565b90508083825260208201905082856020860282011115611c7a57600080fd5b60005b85811015611caa5781611c908882611e96565b845260208401935060208301925050600181019050611c7d565b5050509392505050565b6000611cc7611cc2846128e0565b6127ff565b905082815260208101848484011115611cdf57600080fd5b611cea848285612b45565b509392505050565b600081359050611d0181612cc7565b92915050565b600081519050611d1681612cc7565b92915050565b600082601f830112611d2d57600080fd5b8135611d3d848260208601611a3b565b91505092915050565b600082601f830112611d5757600080fd5b8151611d67848260208601611aa7565b91505092915050565b600082601f830112611d8157600080fd5b8151611d91848260208601611b13565b91505092915050565b600082601f830112611dab57600080fd5b8151611dbb848260208601611b7f565b91505092915050565b600082601f830112611dd557600080fd5b8135611de5848260208601611bdc565b91505092915050565b600082601f830112611dff57600080fd5b8151611e0f848260208601611c48565b91505092915050565b600081519050611e2781612cde565b92915050565b600081359050611e3c81612cf5565b92915050565b600081519050611e5181612cf5565b92915050565b600082601f830112611e6857600080fd5b8151611e78848260208601611cb4565b91505092915050565b600081359050611e9081612d0c565b92915050565b600081519050611ea581612d0c565b92915050565b600081519050611eba81612d23565b92915050565b60008060408385031215611ed357600080fd5b6000611ee185828601611cf2565b9250506020611ef285828601611cf2565b9150509250929050565b600060208284031215611f0e57600080fd5b600082015167ffffffffffffffff811115611f2857600080fd5b611f3484828501611d46565b91505092915050565b60008060008060008060c08789031215611f5657600080fd5b600087015167ffffffffffffffff811115611f7057600080fd5b611f7c89828a01611d46565b965050602087015167ffffffffffffffff811115611f9957600080fd5b611fa589828a01611dee565b955050604087015167ffffffffffffffff811115611fc257600080fd5b611fce89828a01611dee565b945050606087015167ffffffffffffffff811115611feb57600080fd5b611ff789828a01611dee565b935050608087015167ffffffffffffffff81111561201457600080fd5b61202089828a01611d9a565b92505060a087015167ffffffffffffffff81111561203d57600080fd5b61204989828a01611d70565b9150509295509295509295565b60006020828403121561206857600080fd5b600082013567ffffffffffffffff81111561208257600080fd5b61208e84828501611dc4565b91505092915050565b6000806000806000806000806000806101408b8d0312156120b757600080fd5b60006120c58d828e01611e18565b9a505060206120d68d828e01611d07565b99505060406120e78d828e01611e96565b98505060606120f88d828e01611e96565b97505060808b015167ffffffffffffffff81111561211557600080fd5b6121218d828e01611e57565b96505060a06121328d828e01611e96565b95505060c06121438d828e01611e96565b94505060e06121548d828e01611eab565b9350506101006121668d828e01611e18565b9250506101206121788d828e01611d07565b9150509295989b9194979a5092959850565b60006020828403121561219c57600080fd5b60006121aa84828501611e2d565b91505092915050565b600080604083850312156121c657600080fd5b60006121d485828601611e2d565b92505060206121e585828601611cf2565b9150509250929050565b6000806040838503121561220257600080fd5b600061221085828601611e2d565b925050602083013567ffffffffffffffff81111561222d57600080fd5b61223985828601611d1c565b9150509250929050565b6000806040838503121561225657600080fd5b600061226485828601611e2d565b925050602061227585828601611e81565b9150509250929050565b60006020828403121561229157600080fd5b600082015167ffffffffffffffff8111156122ab57600080fd5b6122b784828501611e57565b91505092915050565b6000602082840312156122d257600080fd5b60006122e084828501611e96565b91505092915050565b6000806000606084860312156122fe57600080fd5b600061230c86828701611e81565b935050602061231d86828701611e2d565b925050604061232e86828701611cf2565b9150509250925092565b6000806040838503121561234b57600080fd5b600061235985828601611e96565b925050602061236a85828601611e96565b9150509250929050565b6000612380838361238c565b60208301905092915050565b61239581612aae565b82525050565b6123a481612aae565b82525050565b60006123b582612920565b6123bf8185612943565b93506123ca83612910565b8060005b838110156123fb5781516123e28882612374565b97506123ed83612936565b9250506001810190506123ce565b5085935050505092915050565b61241181612ac0565b82525050565b61242081612acc565b82525050565b61243761243282612acc565b612c15565b82525050565b61244681612b21565b82525050565b60006124578261292b565b6124618185612954565b9350612471818560208601612b45565b61247a81612cb6565b840191505092915050565b6000612492603283612954565b91507f56616c3a7265706c61636556616c69646174696f6e2d202056616c696461746960008301527f6f6e20486173682063616e2774206265203000000000000000000000000000006020830152604082019050919050565b60006124f8605483612954565b91507f56616c69646174696f6e48656c706572733a63616c63756c617465566f74655160008301527f756f72756d202d205468657265206973206e6f2076616c696461746f7273206f60208301527f7220686173682077617320696e636f72726563740000000000000000000000006040830152606082019050919050565b6000612584602183612954565b91507f56616c3a7265706c61636556616c69646174696f6e202d206e6f7420796f757260008301527f73000000000000000000000000000000000000000000000000000000000000006020830152604082019050919050565b6125e681612af6565b82525050565b6125fd6125f882612af6565b612c1f565b82525050565b600061260f8285612426565b60208201915061261f82846125ec565b6020820191508190509392505050565b6000602082019050612644600083018461239b565b92915050565b6000604082019050818103600083015261266481856123aa565b905061267360208301846125dd565b9392505050565b600060208201905061268f6000830184612408565b92915050565b60006020820190506126aa6000830184612417565b92915050565b60006040820190506126c56000830185612417565b6126d2602083018461239b565b9392505050565b60006040820190506126ee6000830185612417565b6126fb60208301846125dd565b9392505050565b6000602082019050612717600083018461243d565b92915050565b60006060820190508181036000830152612737818661244c565b9050612746602083018561239b565b61275360408301846125dd565b949350505050565b6000602082019050818103600083015261277481612485565b9050919050565b60006020820190508181036000830152612794816124eb565b9050919050565b600060208201905081810360008301526127b481612577565b9050919050565b60006020820190506127d060008301846125dd565b92915050565b60006040820190506127eb60008301856125dd565b6127f86020830184612417565b9392505050565b6000604051905081810181811067ffffffffffffffff8211171561282657612825612c87565b5b8060405250919050565b600067ffffffffffffffff82111561284b5761284a612c87565b5b602082029050602081019050919050565b600067ffffffffffffffff82111561287757612876612c87565b5b602082029050602081019050919050565b600067ffffffffffffffff8211156128a3576128a2612c87565b5b602082029050602081019050919050565b600067ffffffffffffffff8211156128cf576128ce612c87565b5b602082029050602081019050919050565b600067ffffffffffffffff8211156128fb576128fa612c87565b5b601f19601f8301169050602081019050919050565b6000819050602082019050919050565b600081519050919050565b600081519050919050565b6000602082019050919050565b600082825260208201905092915050565b600082825260208201905092915050565b600061297082612af6565b915061297b83612af6565b9250827fffffffffffffffffffffffffffffffffffffffffffffffffffffffffffffffff038211156129b0576129af612c29565b5b828201905092915050565b60006129c682612af6565b91506129d183612af6565b9250826129e1576129e0612c58565b5b828204905092915050565b60006129f782612af6565b9150612a0283612af6565b9250817fffffffffffffffffffffffffffffffffffffffffffffffffffffffffffffffff0483118215151615612a3b57612a3a612c29565b5b828202905092915050565b6000612a5182612af6565b9150612a5c83612af6565b925082821015612a6f57612a6e612c29565b5b828203905092915050565b6000612a8582612b14565b9150612a9083612b14565b925082821015612aa357612aa2612c29565b5b828203905092915050565b6000612ab982612ad6565b9050919050565b60008115159050919050565b6000819050919050565b600073ffffffffffffffffffffffffffffffffffffffff82169050919050565b6000819050919050565b600067ffffffffffffffff82169050919050565b600060ff82169050919050565b6000612b2c82612b33565b9050919050565b6000612b3e82612ad6565b9050919050565b60005b83811015612b63578082015181840152602081019050612b48565b83811115612b72576000848401525b50505050565b6000612b8382612af6565b91506000821415612b9757612b96612c29565b5b600182039050919050565b6000612bad82612af6565b91507fffffffffffffffffffffffffffffffffffffffffffffffffffffffffffffffff821415612be057612bdf612c29565b5b600182019050919050565b6000612bf682612b14565b915060ff821415612c0a57612c09612c29565b5b600182019050919050565b6000819050919050565b6000819050919050565b7f4e487b7100000000000000000000000000000000000000000000000000000000600052601160045260246000fd5b7f4e487b7100000000000000000000000000000000000000000000000000000000600052601260045260246000fd5b7f4e487b7100000000000000000000000000000000000000000000000000000000600052604160045260246000fd5b6000601f19601f8301169050919050565b612cd081612aae565b8114612cdb57600080fd5b50565b612ce781612ac0565b8114612cf257600080fd5b50565b612cfe81612acc565b8114612d0957600080fd5b50565b612d1581612af6565b8114612d2057600080fd5b50565b612d2c81612b00565b8114612d3757600080fd5b5056fea26469706673582212209b3d7469007e0d86e86864cae49c6fb890cf176b2756a147fe88c77814fcf64f64736f6c63430008000033",
  "immutableReferences": {},
  "source": "// SPDX-License-Identifier: MIT\npragma solidity =0.8.0;\n\nimport \"./IValidations.sol\";\nimport \"@openzeppelin/contracts-upgradeable/utils/math/SafeMathUpgradeable.sol\";\nimport \"./MemberHelpers.sol\";\nimport \"./IQueue.sol\";\n\n\n\n\ncontract ValidationHelpers {\n\n    using SafeMathUpgradeable for uint256;\n\n    // Validation can be approved or disapproved. Initial status is undefined.\n    enum ValidationStatus {Undefined, Yes, No}   \n    MemberHelpers memberHelpers;\n    IQueue public queue;\n\n\n    event ReplaceCancelValidation(address indexed user, bytes32 validationHash, uint256 price);\n\n\n    function initialize(address _memberHelpers, address _queue) public  {\n        memberHelpers = MemberHelpers(_memberHelpers);\n        queue = IQueue(_queue);\n    }\n\n\n    function isHashAndTimeCorrect( bytes32 documentHash, uint256 _validationTime) public  view returns (bool){\n\n\n        bytes32 validationHash = keccak256(abi.encodePacked(documentHash, _validationTime));\n\n        (,,uint validationTime,,,,,,,) = IValidations(msg.sender).returnValidationRecord(validationHash);\n        if (validationTime == _validationTime)\n            return true;\n        else\n            return false;\n    }\n\n\n    function returnWinnerStruct(bytes32 validationHash, address contractAddress)public view returns (string memory valUrl, address winner, uint256 validationTime){\n\n        \n        (,,validationTime,,,,,,,winner) = IValidations(contractAddress).returnValidationRecord(validationHash);\n        valUrl = IValidations(contractAddress).returnValidationUrl(validationHash, winner);\n\n        return (valUrl, winner, validationTime);\n\n    }\n\n\n    /**\n     * @dev replace or cancel existing validation waiting in the queue with different price\n     * @param price - new price, if price is 0 only remove request\n     * @param validationHash validation hash for request\n     */\n    function replaceCancelValidation(uint256 price, bytes32 validationHash, address contractAddress) public {\n        require(validationHash != bytes32(0), \"Val:replaceValidation-  Validation Hash can't be 0\");\n\n        (,address requestor,,,,,,,,) = IValidations(contractAddress).returnValidationRecord(validationHash);\n\n        // Validation storage val = validations[validationHash];\n        require(msg.sender == requestor , \"Val:replaceValidation - not yours\");\n        if (price == 0)\n            queue.removeFromQueue(validationHash);\n        else\n            queue.replaceValidation(price, validationHash);\n            \n        emit ReplaceCancelValidation(msg.sender, validationHash, price);\n    }\n\n    function selectWinner(bytes32 validationHash, address[] memory winners) public view returns (address) {\n\n        address winner = winners[0];\n\n        for (uint8 i=1; i < winners.length; i++){\n           (uint256 plus, uint256 minus) =  IValidations(msg.sender).returnWinnerPoints(validationHash, winners[i]);\n           (uint256 plusBefore, uint256 minusBefore) =  IValidations(msg.sender).returnWinnerPoints(validationHash, winners[i-1]);\n\n            if (plus > minus)\n                if (plus.sub(minus) > plusBefore.sub(minusBefore))\n                    {winner = winners[i];}\n        }\n        return winner;\n    }\n\n\n     function determineWinners(bytes32 validationHash) public  view returns (address[] memory, uint256){\n\n        (address[] memory validator, uint256[] memory status, uint256[] memory validationTimes) = insertionSort (validationHash);\n\n        uint256 consensus = determineConsensus(status);\n        bool[] memory isWinner = new bool[](validator.length);\n        bool done;\n        uint256 i=0;\n        uint256 topValidationTime = validationTimes[0];\n        uint256 numFound=0;\n        \n        while (!done) {\n            if (uint256(status[i]) == consensus && validationTimes[i] == topValidationTime){\n                isWinner[i] = true;\n                numFound ++;\n            } \n         \n            if (i + 1 == validator.length)\n                done = true;\n            else\n                i++;\n          }\n        \n        address[] memory winners = new address[](numFound);\n        uint256 j;\n\n        for (uint256 k = 0; k< validator.length; k++){\n\n            if (isWinner[k]){\n                winners[j] = validator[k];\n                j++;\n            }\n        }\n        return (winners, consensus);\n    }\n\n\n\n function insertionSort(bytes32 validationHash) internal view returns (address[] memory, uint256[] memory, uint256[] memory) {\n\n        (address[] memory validator, ,uint256[] memory status, uint256[] memory validationTimes,,) =  IValidations(msg.sender).collectValidationResults(validationHash);\n\n        uint length = validationTimes.length;\n        \n        for (uint i = 1; i < length; i++) {\n            \n            uint key = validationTimes[i];\n            address user = validator[i];\n            uint256 choice = status[i];\n            uint j = i - 1;\n            while ((int(j) > 0) && (validationTimes[j] > key)) {\n                validationTimes[i] = validationTimes[j];\n                validationTimes[i-1] = key; \n                validator[i] = validator[j];\n                validator[i-1] = user;\n                status[i] = status[j];\n                status[i-1] =  choice; \n                j--;\n            }\n            validationTimes[j + 1] = key;\n            validator[j+1] = user;\n            status[j+1] = choice;\n        }\n\n        return (validator, status, validationTimes );\n    }\n\n\n\n function determineConsensus(uint256[] memory validation) public pure returns(uint256 ) {\n\n        uint256 yes;\n        uint256 no;\n\n        for (uint256 i=0; i< validation.length; i++) {\n\n            if (validation[i] == uint256(ValidationStatus.Yes))\n                yes++;\n            else\n                no++;\n        }\n\n        if (yes > no)\n            return 1; // consensus is to approve\n        else if (no > yes)\n            return 2; // consensus is to disapprove\n        else\n            return 2; // consensus is tie - should not happen\n    }\n\n    /**\n     * @dev to calculate state of the quorum for the validation\n     * @param validationHash - consist of hash of hashed document and timestamp\n     * @return number representing current participation level in percentage\n     */\n    function calculateVoteQuorum(bytes32 validationHash, address validationContract)public view returns (uint256)\n    {\n\n\n        uint256 totalStaked;\n        uint256 currentlyVoted;\n\n        address[] memory validatorsList = IValidations(validationContract).returnValidatorList(validationHash);\n        require(validatorsList.length > 0, \"ValidationHelpers:calculateVoteQuorum - There is no validators or hash was incorrect\");\n        (address[] memory validatorListActive, ,uint256[] memory choice,,,) =  IValidations(validationContract).collectValidationResults(validationHash);\n\n        for (uint256 i = 0; i < validatorsList.length; i++) {\n            totalStaked += memberHelpers.returnDepositAmount(validatorsList[i]);\n             for (uint256 j=0; j< choice.length; j++){\n                 if (validatorsList[i] == validatorListActive[j])\n                    currentlyVoted += memberHelpers.returnDepositAmount(validatorsList[i]);\n             }\n        }\n        if (currentlyVoted == 0)\n            return 0;\n        else\n           return (currentlyVoted * 100).div(totalStaked);\n\n    }\n\n}",
  "sourcePath": "/home/win2win/eth/projects/AuditChain/Core-Smart-Contracts-v1-upgradable/contracts/Auditchain/ValidationHelpers.sol",
  "compiler": {
    "name": "solc",
    "version": "0.8.0+commit.c7dfd78e.Emscripten.clang"
  },
  "schemaVersion": "3.4.1",
  "updatedAt": "2022-05-03T20:34:42.777Z",
  "networkType": "ethereum",
  "devdoc": {
    "kind": "dev",
    "methods": {
      "calculateVoteQuorum(bytes32,address)": {
        "details": "to calculate state of the quorum for the validation",
        "params": {
          "validationHash": "- consist of hash of hashed document and timestamp"
        },
        "returns": {
          "_0": "number representing current participation level in percentage"
        }
      },
      "replaceCancelValidation(uint256,bytes32,address)": {
        "details": "replace or cancel existing validation waiting in the queue with different price",
        "params": {
          "price": "- new price, if price is 0 only remove request",
          "validationHash": "validation hash for request"
        }
      }
    },
    "version": 1
  },
  "userdoc": {
    "kind": "user",
    "methods": {},
    "version": 1
  }
}