{
  "contractName": "ValidationsNoCohort",
  "abi": [
    {
      "anonymous": false,
      "inputs": [
        {
          "indexed": false,
          "internalType": "bytes32",
          "name": "validationHash",
          "type": "bytes32"
        },
        {
          "indexed": false,
          "internalType": "address",
          "name": "winner",
          "type": "address"
        },
        {
          "indexed": false,
          "internalType": "uint256",
          "name": "pointsPlus",
          "type": "uint256"
        },
        {
          "indexed": false,
          "internalType": "uint256",
          "name": "pointsMinus",
          "type": "uint256"
        }
      ],
      "name": "PaymentProcessed",
      "type": "event"
    },
    {
      "anonymous": false,
      "inputs": [
        {
          "indexed": true,
          "internalType": "uint256",
          "name": "audits",
          "type": "uint256"
        },
        {
          "indexed": true,
          "internalType": "address",
          "name": "requestor",
          "type": "address"
        },
        {
          "indexed": true,
          "internalType": "bytes32",
          "name": "validationHash",
          "type": "bytes32"
        },
        {
          "indexed": false,
          "internalType": "bytes32",
          "name": "documentHash",
          "type": "bytes32"
        },
        {
          "indexed": false,
          "internalType": "uint256",
          "name": "consensus",
          "type": "uint256"
        },
        {
          "indexed": false,
          "internalType": "uint256",
          "name": "quorum",
          "type": "uint256"
        },
        {
          "indexed": false,
          "internalType": "uint256",
          "name": "timeExecuted",
          "type": "uint256"
        },
        {
          "indexed": false,
          "internalType": "string",
          "name": "url",
          "type": "string"
        },
        {
          "indexed": false,
          "internalType": "address[]",
          "name": "winners",
          "type": "address[]"
        }
      ],
      "name": "RequestExecuted",
      "type": "event"
    },
    {
      "anonymous": false,
      "inputs": [
        {
          "indexed": true,
          "internalType": "address",
          "name": "user",
          "type": "address"
        },
        {
          "indexed": true,
          "internalType": "bytes32",
          "name": "validationHash",
          "type": "bytes32"
        },
        {
          "indexed": false,
          "internalType": "uint256",
          "name": "initTime",
          "type": "uint256"
        },
        {
          "indexed": false,
          "internalType": "bytes32",
          "name": "documentHash",
          "type": "bytes32"
        },
        {
          "indexed": false,
          "internalType": "string",
          "name": "url",
          "type": "string"
        },
        {
          "indexed": true,
          "internalType": "enum Validations.AuditTypes",
          "name": "auditType",
          "type": "uint8"
        }
      ],
      "name": "ValidationInitialized",
      "type": "event"
    },
    {
      "anonymous": false,
      "inputs": [
        {
          "indexed": true,
          "internalType": "address",
          "name": "validator",
          "type": "address"
        },
        {
          "indexed": true,
          "internalType": "bytes32",
          "name": "documentHash",
          "type": "bytes32"
        },
        {
          "indexed": true,
          "internalType": "uint256",
          "name": "validationTime",
          "type": "uint256"
        },
        {
          "indexed": false,
          "internalType": "enum Validations.ValidationStatus",
          "name": "decision",
          "type": "uint8"
        },
        {
          "indexed": false,
          "internalType": "string",
          "name": "valUrl",
          "type": "string"
        }
      ],
      "name": "ValidatorValidated",
      "type": "event"
    },
    {
      "anonymous": false,
      "inputs": [
        {
          "indexed": false,
          "internalType": "address",
          "name": "validator",
          "type": "address"
        },
        {
          "indexed": false,
          "internalType": "address",
          "name": "winner",
          "type": "address"
        },
        {
          "indexed": false,
          "internalType": "bool",
          "name": "isValid",
          "type": "bool"
        }
      ],
      "name": "WinnerVoted",
      "type": "event"
    },
    {
      "inputs": [
        {
          "internalType": "uint256",
          "name": "",
          "type": "uint256"
        },
        {
          "internalType": "bytes32",
          "name": "",
          "type": "bytes32"
        }
      ],
      "name": "activeOperatorsStake",
      "outputs": [
        {
          "internalType": "uint256",
          "name": "",
          "type": "uint256"
        }
      ],
      "stateMutability": "view",
      "type": "function"
    },
    {
      "inputs": [],
      "name": "audits",
      "outputs": [
        {
          "internalType": "enum Validations.AuditTypes",
          "name": "",
          "type": "uint8"
        }
      ],
      "stateMutability": "view",
      "type": "function"
    },
    {
      "inputs": [],
      "name": "cohortFactory",
      "outputs": [
        {
          "internalType": "contract ICohortFactory",
          "name": "",
          "type": "address"
        }
      ],
      "stateMutability": "view",
      "type": "function"
    },
    {
      "inputs": [
        {
          "internalType": "bytes32",
          "name": "validationHash",
          "type": "bytes32"
        }
      ],
      "name": "collectValidationResults",
      "outputs": [
        {
          "internalType": "address[]",
          "name": "",
          "type": "address[]"
        },
        {
          "internalType": "uint256[]",
          "name": "",
          "type": "uint256[]"
        },
        {
          "internalType": "uint256[]",
          "name": "",
          "type": "uint256[]"
        },
        {
          "internalType": "uint256[]",
          "name": "",
          "type": "uint256[]"
        },
        {
          "internalType": "string[]",
          "name": "",
          "type": "string[]"
        },
        {
          "internalType": "bytes32[]",
          "name": "",
          "type": "bytes32[]"
        }
      ],
      "stateMutability": "view",
      "type": "function"
    },
    {
      "inputs": [],
      "name": "depositModifiers",
      "outputs": [
        {
          "internalType": "contract DepositModifiers",
          "name": "",
          "type": "address"
        }
      ],
      "stateMutability": "view",
      "type": "function"
    },
    {
      "inputs": [
        {
          "internalType": "bytes32",
          "name": "validationHash",
          "type": "bytes32"
        }
      ],
      "name": "hasVoted",
      "outputs": [
        {
          "internalType": "bool",
          "name": "",
          "type": "bool"
        }
      ],
      "stateMutability": "view",
      "type": "function"
    },
    {
      "inputs": [
        {
          "internalType": "bytes32",
          "name": "validationHash",
          "type": "bytes32"
        }
      ],
      "name": "isValidated",
      "outputs": [
        {
          "internalType": "enum Validations.ValidationStatus",
          "name": "",
          "type": "uint8"
        }
      ],
      "stateMutability": "view",
      "type": "function"
    },
    {
      "inputs": [],
      "name": "memberHelpers",
      "outputs": [
        {
          "internalType": "contract MemberHelpers",
          "name": "",
          "type": "address"
        }
      ],
      "stateMutability": "view",
      "type": "function"
    },
    {
      "inputs": [],
      "name": "members",
      "outputs": [
        {
          "internalType": "contract IMembers",
          "name": "",
          "type": "address"
        }
      ],
      "stateMutability": "view",
      "type": "function"
    },
    {
      "inputs": [],
      "name": "nodeOperations",
      "outputs": [
        {
          "internalType": "contract INodeOperations",
          "name": "",
          "type": "address"
        }
      ],
      "stateMutability": "view",
      "type": "function"
    },
    {
      "inputs": [
        {
          "internalType": "address",
          "name": "",
          "type": "address"
        }
      ],
      "name": "outstandingValidations",
      "outputs": [
        {
          "internalType": "uint256",
          "name": "",
          "type": "uint256"
        }
      ],
      "stateMutability": "view",
      "type": "function"
    },
    {
      "inputs": [],
      "name": "queue",
      "outputs": [
        {
          "internalType": "contract IQueue",
          "name": "",
          "type": "address"
        }
      ],
      "stateMutability": "view",
      "type": "function"
    },
    {
      "inputs": [],
      "name": "quorum",
      "outputs": [
        {
          "internalType": "uint256",
          "name": "",
          "type": "uint256"
        }
      ],
      "stateMutability": "view",
      "type": "function"
    },
    {
      "inputs": [],
      "name": "recentTimestamp",
      "outputs": [
        {
          "internalType": "uint256",
          "name": "",
          "type": "uint256"
        }
      ],
      "stateMutability": "view",
      "type": "function"
    },
    {
      "inputs": [],
      "name": "recentValidationHash",
      "outputs": [
        {
          "internalType": "bytes32",
          "name": "",
          "type": "bytes32"
        }
      ],
      "stateMutability": "view",
      "type": "function"
    },
    {
      "inputs": [
        {
          "internalType": "bytes32",
          "name": "validationHash",
          "type": "bytes32"
        }
      ],
      "name": "returnValidationRecord",
      "outputs": [
        {
          "internalType": "bool",
          "name": "cohort",
          "type": "bool"
        },
        {
          "internalType": "address",
          "name": "requestor",
          "type": "address"
        },
        {
          "internalType": "uint256",
          "name": "validationTime",
          "type": "uint256"
        },
        {
          "internalType": "uint256",
          "name": "executionTime",
          "type": "uint256"
        },
        {
          "internalType": "string",
          "name": "url",
          "type": "string"
        },
        {
          "internalType": "uint256",
          "name": "consensus",
          "type": "uint256"
        },
        {
          "internalType": "uint256",
          "name": "validationsCompleted",
          "type": "uint256"
        },
        {
          "internalType": "uint64",
          "name": "winnerConfirmations",
          "type": "uint64"
        },
        {
          "internalType": "bool",
          "name": "paymentSent",
          "type": "bool"
        },
        {
          "internalType": "address",
          "name": "winner",
          "type": "address"
        }
      ],
      "stateMutability": "view",
      "type": "function"
    },
    {
      "inputs": [
        {
          "internalType": "bytes32",
          "name": "validationHash",
          "type": "bytes32"
        },
        {
          "internalType": "address",
          "name": "user",
          "type": "address"
        }
      ],
      "name": "returnValidationUrl",
      "outputs": [
        {
          "internalType": "string",
          "name": "url",
          "type": "string"
        }
      ],
      "stateMutability": "view",
      "type": "function"
    },
    {
      "inputs": [
        {
          "internalType": "bytes32",
          "name": "validationHash",
          "type": "bytes32"
        },
        {
          "internalType": "address",
          "name": "user",
          "type": "address"
        }
      ],
      "name": "returnWinnerPoints",
      "outputs": [
        {
          "internalType": "uint256",
          "name": "plus",
          "type": "uint256"
        },
        {
          "internalType": "uint256",
          "name": "minus",
          "type": "uint256"
        }
      ],
      "stateMutability": "view",
      "type": "function"
    },
    {
      "inputs": [
        {
          "internalType": "bytes32",
          "name": "documentHash",
          "type": "bytes32"
        },
        {
          "internalType": "uint256",
          "name": "validationTime",
          "type": "uint256"
        },
        {
          "internalType": "address",
          "name": "subscriber",
          "type": "address"
        },
        {
          "internalType": "enum Validations.ValidationStatus",
          "name": "decision",
          "type": "uint8"
        },
        {
          "internalType": "string",
          "name": "valUrl",
          "type": "string"
        },
        {
          "internalType": "bytes32",
          "name": "reportHash",
          "type": "bytes32"
        }
      ],
      "name": "validate",
      "outputs": [],
      "stateMutability": "nonpayable",
      "type": "function"
    },
    {
      "inputs": [],
      "name": "validationHelpers",
      "outputs": [
        {
          "internalType": "contract IValidatinosHelpers",
          "name": "",
          "type": "address"
        }
      ],
      "stateMutability": "view",
      "type": "function"
    },
    {
      "inputs": [
        {
          "internalType": "bytes32",
          "name": "",
          "type": "bytes32"
        }
      ],
      "name": "validations",
      "outputs": [
        {
          "internalType": "bool",
          "name": "cohort",
          "type": "bool"
        },
        {
          "internalType": "address",
          "name": "requestor",
          "type": "address"
        },
        {
          "internalType": "uint256",
          "name": "validationTime",
          "type": "uint256"
        },
        {
          "internalType": "uint256",
          "name": "executionTime",
          "type": "uint256"
        },
        {
          "internalType": "string",
          "name": "url",
          "type": "string"
        },
        {
          "internalType": "uint256",
          "name": "consensus",
          "type": "uint256"
        },
        {
          "internalType": "uint256",
          "name": "validationsCompleted",
          "type": "uint256"
        },
        {
          "internalType": "enum Validations.AuditTypes",
          "name": "auditType",
          "type": "uint8"
        },
        {
          "internalType": "uint64",
          "name": "winnerConfirmations",
          "type": "uint64"
        },
        {
          "internalType": "address",
          "name": "winner",
          "type": "address"
        },
        {
          "internalType": "uint256",
          "name": "price",
          "type": "uint256"
        }
      ],
      "stateMutability": "view",
      "type": "function"
    },
    {
      "inputs": [
        {
          "internalType": "address[]",
          "name": "winners",
          "type": "address[]"
        },
        {
          "internalType": "bool[]",
          "name": "vote",
          "type": "bool[]"
        },
        {
          "internalType": "bytes32",
          "name": "validationHash",
          "type": "bytes32"
        }
      ],
      "name": "voteWinner",
      "outputs": [],
      "stateMutability": "nonpayable",
      "type": "function"
    },
    {
      "inputs": [
        {
          "internalType": "address",
          "name": "",
          "type": "address"
        },
        {
          "internalType": "bytes32",
          "name": "",
          "type": "bytes32"
        }
      ],
      "name": "votes",
      "outputs": [
        {
          "internalType": "bool",
          "name": "",
          "type": "bool"
        }
      ],
      "stateMutability": "view",
      "type": "function"
    },
    {
      "inputs": [
        {
          "internalType": "address",
          "name": "_members",
          "type": "address"
        },
        {
          "internalType": "address",
          "name": "_memberHelpers",
          "type": "address"
        },
        {
          "internalType": "address",
          "name": "_cohortFactory",
          "type": "address"
        },
        {
          "internalType": "address",
          "name": "_depositModifiers",
          "type": "address"
        },
        {
          "internalType": "address",
          "name": "_nodeOperations",
          "type": "address"
        },
        {
          "internalType": "address",
          "name": "_validationHelpers",
          "type": "address"
        },
        {
          "internalType": "address",
          "name": "_queue",
          "type": "address"
        }
      ],
      "name": "initialize",
      "outputs": [],
      "stateMutability": "nonpayable",
      "type": "function"
    },
    {
      "inputs": [
        {
          "internalType": "bytes32",
          "name": "documentHash",
          "type": "bytes32"
        },
        {
          "internalType": "string",
          "name": "url",
          "type": "string"
        },
        {
          "internalType": "enum Validations.AuditTypes",
          "name": "auditType",
          "type": "uint8"
        },
        {
          "internalType": "uint256",
          "name": "price",
          "type": "uint256"
        }
      ],
      "name": "initializeValidationNoCohort",
      "outputs": [],
      "stateMutability": "nonpayable",
      "type": "function"
    },
    {
      "inputs": [
        {
          "internalType": "address",
          "name": "requestor",
          "type": "address"
        },
        {
          "internalType": "uint256",
          "name": "price",
          "type": "uint256"
        }
      ],
      "name": "checkIfRequestorHasFunds",
      "outputs": [
        {
          "internalType": "bool",
          "name": "",
          "type": "bool"
        }
      ],
      "stateMutability": "view",
      "type": "function"
    },
    {
      "inputs": [
        {
          "internalType": "bytes32",
          "name": "_recentValidationHash",
          "type": "bytes32"
        }
      ],
      "name": "returnValidatorCount",
      "outputs": [
        {
          "internalType": "uint256",
          "name": "",
          "type": "uint256"
        }
      ],
      "stateMutability": "view",
      "type": "function"
    },
    {
      "inputs": [
        {
          "internalType": "bytes32",
          "name": "validationHash",
          "type": "bytes32"
        }
      ],
      "name": "returnValidatorList",
      "outputs": [
        {
          "internalType": "address[]",
          "name": "",
          "type": "address[]"
        }
      ],
      "stateMutability": "view",
      "type": "function"
    },
    {
      "inputs": [
        {
          "internalType": "bytes32",
          "name": "validationHash",
          "type": "bytes32"
        }
      ],
      "name": "returnValidatorListActual",
      "outputs": [
        {
          "internalType": "address[]",
          "name": "",
          "type": "address[]"
        }
      ],
      "stateMutability": "view",
      "type": "function"
    }
  ],
  "bytecode": "0x608060405234801561001057600080fd5b50615b5380620000216000396000f3fe608060405234801561001057600080fd5b50600436106101cf5760003560e01c806371d8c7a011610104578063bdd4d18d116100a2578063e10d29ee11610071578063e10d29ee1461058f578063e28c3802146105ad578063ee5c17d7146105e7578063f9e0853a14610617576101cf565b8063bdd4d18d14610507578063bf1db71e14610525578063d4632bcf14610555578063d577832c14610571576101cf565b806395d1ca4d116100de57806395d1ca4d1461046657806399ae444a14610484578063b08e5d80146104a2578063b39fd6cf146104d2576101cf565b806371d8c7a0146103e857806371df6ae814610406578063813a465214610436576101cf565b806341035f2a1161017157806356756cd71161014b57806356756cd7146103305780635b3c5c4a14610369578063613c28a11461039957806362e23f27146103b7576101cf565b806341035f2a146102c657806342d47412146102f65780634bd4545f14610312576101cf565b806320120ffa116101ad57806320120ffa1461025257806335876476146102705780633a06c09a1461028c5780633a2eb80b146102a8576101cf565b80631703a018146101d45780631b4613cb146101f25780631db5ade814610222575b600080fd5b6101dc610647565b6040516101e9919061524d565b60405180910390f35b61020c6004803603810190610207919061420f565b61064d565b6040516102199190614d59565b60405180910390f35b61023c6004803603810190610237919061405a565b6106b4565b6040516102499190614d59565b60405180910390f35b61025a6106e3565b6040516102679190615019565b60405180910390f35b61028a60048036038101906102859190613fbc565b610709565b005b6102a660048036038101906102a19190614274565b610721565b005b6102b06108a4565b6040516102bd919061504f565b60405180910390f35b6102e060048036038101906102db919061420f565b6108ca565b6040516102ed9190614cac565b60405180910390f35b610310600480360381019061030b9190614113565b61097e565b005b61031a61114e565b6040516103279190614fe3565b60405180910390f35b61034a6004803603810190610345919061420f565b611174565b6040516103609a99989796959493929190614e26565b60405180910390f35b610383600480360381019061037e9190614238565b611303565b60405161039091906150eb565b60405180910390f35b6103a16113ef565b6040516103ae9190614ec9565b60405180910390f35b6103d160048036038101906103cc9190614238565b6113f5565b6040516103df9291906152cf565b60405180910390f35b6103f061149f565b6040516103fd919061506a565b60405180910390f35b610420600480360381019061041b919061420f565b6114c5565b60405161042d9190614cac565b60405180910390f35b610450600480360381019061044b9190614096565b61183a565b60405161045d9190614d59565b60405180910390f35b61046e611955565b60405161047b9190614fc8565b60405180910390f35b61048c61197b565b6040516104999190615085565b60405180910390f35b6104bc60048036038101906104b791906143b9565b61198e565b6040516104c9919061524d565b60405180910390f35b6104ec60048036038101906104e7919061420f565b6119b3565b6040516104fe96959493929190614cce565b60405180910390f35b61050f6123d5565b60405161051c9190614ffe565b60405180910390f35b61053f600480360381019061053a919061420f565b6123fb565b60405161054c91906150a0565b60405180910390f35b61056f600480360381019061056a91906142ef565b612465565b005b610579612fac565b604051610586919061524d565b60405180910390f35b610597612fb2565b6040516105a49190615034565b60405180910390f35b6105c760048036038101906105c2919061420f565b612fd8565b6040516105de9b9a99989796959493929190614d74565b60405180910390f35b61060160048036038101906105fc919061420f565b613128565b60405161060e919061524d565b60405180910390f35b610631600480360381019061062c9190613f6a565b613145565b60405161063e919061524d565b60405180910390f35b60405481565b6000603c60003373ffffffffffffffffffffffffffffffffffffffff1673ffffffffffffffffffffffffffffffffffffffff168152602001908152602001600020600083815260200190815260200160002060009054906101000a900460ff169050919050565b603c6020528160005260406000206020528060005260406000206000915091509054906101000a900460ff1681565b603860009054906101000a900473ffffffffffffffffffffffffffffffffffffffff1681565b6107188787878787878761315d565b50505050505050565b61072b338261183a565b61076a576040517f08c379a0000000000000000000000000000000000000000000000000000000008152600401610761906151cd565b60405180910390fd5b603360009054906101000a900473ffffffffffffffffffffffffffffffffffffffff1673ffffffffffffffffffffffffffffffffffffffff16636f9cf985336002808111156107e2577f4e487b7100000000000000000000000000000000000000000000000000000000600052602160045260246000fd5b6040518363ffffffff1660e01b81526004016107ff929190614c83565b602060405180830381600087803b15801561081957600080fd5b505af115801561082d573d6000803e3d6000fd5b505050506040513d601f19601f8201168201806040525081019061085191906141e6565b610890576040517f08c379a00000000000000000000000000000000000000000000000000000000081526004016108879061520d565b60405180910390fd5b61089e848484600085613335565b50505050565b603960009054906101000a900473ffffffffffffffffffffffffffffffffffffffff1681565b60606000603860009054906101000a900473ffffffffffffffffffffffffffffffffffffffff1673ffffffffffffffffffffffffffffffffffffffff166350da39756040518163ffffffff1660e01b815260040160006040518083038186803b15801561093657600080fd5b505afa15801561094a573d6000803e3d6000fd5b505050506040513d6000823e3d601f19601f8201168201806040525081019061097391906140d2565b905080915050919050565b600260015414156109c4576040517f08c379a00000000000000000000000000000000000000000000000000000000081526004016109bb9061522d565b60405180910390fd5b6002600181905550600060416000838152602001908152602001600020905060005b84518160ff161015610dbe57838160ff1681518110610a2e577f4e487b7100000000000000000000000000000000000000000000000000000000600052603260045260246000fd5b602002602001015115610b6057610ad3600183600a016000888560ff1681518110610a82577f4e487b7100000000000000000000000000000000000000000000000000000000600052603260045260246000fd5b602002602001015173ffffffffffffffffffffffffffffffffffffffff1673ffffffffffffffffffffffffffffffffffffffff1681526020019081526020016000205461367090919063ffffffff16565b82600a016000878460ff1681518110610b15577f4e487b7100000000000000000000000000000000000000000000000000000000600052603260045260246000fd5b602002602001015173ffffffffffffffffffffffffffffffffffffffff1673ffffffffffffffffffffffffffffffffffffffff16815260200190815260200160002081905550610c81565b610bf8600183600b016000888560ff1681518110610ba7577f4e487b7100000000000000000000000000000000000000000000000000000000600052603260045260246000fd5b602002602001015173ffffffffffffffffffffffffffffffffffffffff1673ffffffffffffffffffffffffffffffffffffffff1681526020019081526020016000205461367090919063ffffffff16565b82600b016000878460ff1681518110610c3a577f4e487b7100000000000000000000000000000000000000000000000000000000600052603260045260246000fd5b602002602001015173ffffffffffffffffffffffffffffffffffffffff1673ffffffffffffffffffffffffffffffffffffffff168152602001908152602001600020819055505b6001603c60003373ffffffffffffffffffffffffffffffffffffffff1673ffffffffffffffffffffffffffffffffffffffff168152602001908152602001600020600085815260200190815260200160002060006101000a81548160ff0219169083151502179055507f7bfe96c39755f2a1ee6120326dcd0a14a7f1931a8ce8f4f08675b9d74f7ca93633868360ff1681518110610d48577f4e487b7100000000000000000000000000000000000000000000000000000000600052603260045260246000fd5b6020026020010151868460ff1681518110610d8c577f4e487b7100000000000000000000000000000000000000000000000000000000600052603260045260246000fd5b6020026020010151604051610da393929190614c07565b60405180910390a18080610db6906158fa565b9150506109e6565b5080600d01600081819054906101000a900467ffffffffffffffff1680929190610de7906158c9565b91906101000a81548167ffffffffffffffff021916908367ffffffffffffffff160217905550506000610e1983613128565b9050600081606484600d0160009054906101000a900467ffffffffffffffff16610e4391906155b8565b67ffffffffffffffff16610e57919061552d565b9050603360009054906101000a900473ffffffffffffffffffffffffffffffffffffffff1673ffffffffffffffffffffffffffffffffffffffff16637036014e6040518163ffffffff1660e01b8152600401602060405180830381600087803b158015610ec357600080fd5b505af1158015610ed7573d6000803e3d6000fd5b505050506040513d601f19601f82011682018060405250810190610efb9190614390565b8110158015610f5a5750600073ffffffffffffffffffffffffffffffffffffffff1683600d0160089054906101000a900473ffffffffffffffffffffffffffffffffffffffff1673ffffffffffffffffffffffffffffffffffffffff16145b1561113f576000603960009054906101000a900473ffffffffffffffffffffffffffffffffffffffff1673ffffffffffffffffffffffffffffffffffffffff16639dd4640286896040518363ffffffff1660e01b8152600401610fbe929190614f29565b60206040518083038186803b158015610fd657600080fd5b505afa158015610fea573d6000803e3d6000fd5b505050506040513d601f19601f8201168201806040525081019061100e9190613f93565b90508084600d0160086101000a81548173ffffffffffffffffffffffffffffffffffffffff021916908373ffffffffffffffffffffffffffffffffffffffff16021790555061105d8582613686565b603460009054906101000a900473ffffffffffffffffffffffffffffffffffffffff1673ffffffffffffffffffffffffffffffffffffffff166348792674866040518263ffffffff1660e01b81526004016110b89190614ec9565b602060405180830381600087803b1580156110d257600080fd5b505af11580156110e6573d6000803e3d6000fd5b505050506040513d601f19601f8201168201806040525081019061110a91906141e6565b61113d577f4e487b7100000000000000000000000000000000000000000000000000000000600052600160045260246000fd5b505b50505060018081905550505050565b603760009054906101000a900473ffffffffffffffffffffffffffffffffffffffff1681565b6000806000806060600080600080600080604160008d815260200190815260200160002090508060000160009054906101000a900460ff169a508060000160019054906101000a900473ffffffffffffffffffffffffffffffffffffffff16995080600101549850806002015497508060030180546111f29061584e565b80601f016020809104026020016040519081016040528092919081815260200182805461121e9061584e565b801561126b5780601f106112405761010080835404028352916020019161126b565b820191906000526020600020905b81548152906001019060200180831161124e57829003601f168201915b50505050509650806004015495508060050154945080600d0160009054906101000a900467ffffffffffffffff16935080600d0160089054906101000a900473ffffffffffffffffffffffffffffffffffffffff169150600073ffffffffffffffffffffffffffffffffffffffff168273ffffffffffffffffffffffffffffffffffffffff1614159250509193959799509193959799565b606060006041600085815260200190815260200160002090508060090160008473ffffffffffffffffffffffffffffffffffffffff1673ffffffffffffffffffffffffffffffffffffffff16815260200190815260200160002080546113689061584e565b80601f01602080910402602001604051908101604052809291908181526020018280546113949061584e565b80156113e15780601f106113b6576101008083540402835291602001916113e1565b820191906000526020600020905b8154815290600101906020018083116113c457829003601f168201915b505050505091505092915050565b603f5481565b600080600060416000868152602001908152602001600020905080600a0160008573ffffffffffffffffffffffffffffffffffffffff1673ffffffffffffffffffffffffffffffffffffffff16815260200190815260200160002054925080600b0160008573ffffffffffffffffffffffffffffffffffffffff1673ffffffffffffffffffffffffffffffffffffffff168152602001908152602001600020549150509250929050565b603560009054906101000a900473ffffffffffffffffffffffffffffffffffffffff1681565b60606000801b82141561150d576040517f08c379a0000000000000000000000000000000000000000000000000000000008152600401611504906151ad565b60405180910390fd5b6000604160008481526020019081526020016000209050600080826005015467ffffffffffffffff81111561156b577f4e487b7100000000000000000000000000000000000000000000000000000000600052604160045260246000fd5b6040519080825280602002602001820160405280156115995781602001602082028036833780820191505090505b5090506000603860009054906101000a900473ffffffffffffffffffffffffffffffffffffffff1673ffffffffffffffffffffffffffffffffffffffff166350da39756040518163ffffffff1660e01b815260040160006040518083038186803b15801561160657600080fd5b505afa15801561161a573d6000803e3d6000fd5b505050506040513d6000823e3d601f19601f8201168201806040525081019061164391906140d2565b905060005b815181101561182d576000600281111561168b577f4e487b7100000000000000000000000000000000000000000000000000000000600052602160045260246000fd5b8560070160008484815181106116ca577f4e487b7100000000000000000000000000000000000000000000000000000000600052603260045260246000fd5b602002602001015173ffffffffffffffffffffffffffffffffffffffff1673ffffffffffffffffffffffffffffffffffffffff16815260200190815260200160002060009054906101000a900460ff166002811115611752577f4e487b7100000000000000000000000000000000000000000000000000000000600052602160045260246000fd5b1461181a57818181518110611790577f4e487b7100000000000000000000000000000000000000000000000000000000600052603260045260246000fd5b60200260200101518385815181106117d1577f4e487b7100000000000000000000000000000000000000000000000000000000600052603260045260246000fd5b602002602001019073ffffffffffffffffffffffffffffffffffffffff16908173ffffffffffffffffffffffffffffffffffffffff1681525050838061181690615880565b9450505b808061182590615880565b915050611648565b5081945050505050919050565b60006118a16118926001603a60008773ffffffffffffffffffffffffffffffffffffffff1673ffffffffffffffffffffffffffffffffffffffff1681526020019081526020016000205461367090919063ffffffff16565b836138fa90919063ffffffff16565b603560009054906101000a900473ffffffffffffffffffffffffffffffffffffffff1673ffffffffffffffffffffffffffffffffffffffff1663fc7e286d856040518263ffffffff1660e01b81526004016118fc9190614bec565b60206040518083038186803b15801561191457600080fd5b505afa158015611928573d6000803e3d6000fd5b505050506040513d601f19601f8201168201806040525081019061194c9190614390565b11905092915050565b603660009054906101000a900473ffffffffffffffffffffffffffffffffffffffff1681565b603b60009054906101000a900460ff1681565b603d602052816000526040600020602052806000526040600020600091509150505481565b606080606080606080600080604160008a8152602001908152602001600020905060006119df8a6108ca565b90506000826005015467ffffffffffffffff811115611a27577f4e487b7100000000000000000000000000000000000000000000000000000000600052604160045260246000fd5b604051908082528060200260200182016040528015611a555781602001602082028036833780820191505090505b5090506000836005015467ffffffffffffffff811115611a9e577f4e487b7100000000000000000000000000000000000000000000000000000000600052604160045260246000fd5b604051908082528060200260200182016040528015611acc5781602001602082028036833780820191505090505b5090506000846005015467ffffffffffffffff811115611b15577f4e487b7100000000000000000000000000000000000000000000000000000000600052604160045260246000fd5b604051908082528060200260200182016040528015611b435781602001602082028036833780820191505090505b5090506000856005015467ffffffffffffffff811115611b8c577f4e487b7100000000000000000000000000000000000000000000000000000000600052604160045260246000fd5b604051908082528060200260200182016040528015611bba5781602001602082028036833780820191505090505b5090506000866005015467ffffffffffffffff811115611c03577f4e487b7100000000000000000000000000000000000000000000000000000000600052604160045260246000fd5b604051908082528060200260200182016040528015611c3657816020015b6060815260200190600190039081611c215790505b5090506000876005015467ffffffffffffffff811115611c7f577f4e487b7100000000000000000000000000000000000000000000000000000000600052604160045260246000fd5b604051908082528060200260200182016040528015611cad5781602001602082028036833780820191505090505b50905060005b87518110156123b05760006002811115611cf6577f4e487b7100000000000000000000000000000000000000000000000000000000600052602160045260246000fd5b8960070160008a8481518110611d35577f4e487b7100000000000000000000000000000000000000000000000000000000600052603260045260246000fd5b602002602001015173ffffffffffffffffffffffffffffffffffffffff1673ffffffffffffffffffffffffffffffffffffffff16815260200190815260200160002060009054906101000a900460ff166002811115611dbd577f4e487b7100000000000000000000000000000000000000000000000000000000600052602160045260246000fd5b1461239d57603560009054906101000a900473ffffffffffffffffffffffffffffffffffffffff1673ffffffffffffffffffffffffffffffffffffffff16638319d390898381518110611e39577f4e487b7100000000000000000000000000000000000000000000000000000000600052603260045260246000fd5b60200260200101516040518263ffffffff1660e01b8152600401611e5d9190614bec565b60206040518083038186803b158015611e7557600080fd5b505afa158015611e89573d6000803e3d6000fd5b505050506040513d601f19601f82011682018060405250810190611ead9190614390565b868b81518110611ee6577f4e487b7100000000000000000000000000000000000000000000000000000000600052603260045260246000fd5b602002602001018181525050886007016000898381518110611f31577f4e487b7100000000000000000000000000000000000000000000000000000000600052603260045260246000fd5b602002602001015173ffffffffffffffffffffffffffffffffffffffff1673ffffffffffffffffffffffffffffffffffffffff16815260200190815260200160002060009054906101000a900460ff166002811115611fb9577f4e487b7100000000000000000000000000000000000000000000000000000000600052602160045260246000fd5b858b81518110611ff2577f4e487b7100000000000000000000000000000000000000000000000000000000600052603260045260246000fd5b60200260200101818152505088600801600089838151811061203d577f4e487b7100000000000000000000000000000000000000000000000000000000600052603260045260246000fd5b602002602001015173ffffffffffffffffffffffffffffffffffffffff1673ffffffffffffffffffffffffffffffffffffffff16815260200190815260200160002054848b815181106120b9577f4e487b7100000000000000000000000000000000000000000000000000000000600052603260045260246000fd5b602002602001018181525050886009016000898381518110612104577f4e487b7100000000000000000000000000000000000000000000000000000000600052603260045260246000fd5b602002602001015173ffffffffffffffffffffffffffffffffffffffff1673ffffffffffffffffffffffffffffffffffffffff16815260200190815260200160002080546121519061584e565b80601f016020809104026020016040519081016040528092919081815260200182805461217d9061584e565b80156121ca5780601f1061219f576101008083540402835291602001916121ca565b820191906000526020600020905b8154815290600101906020018083116121ad57829003601f168201915b5050505050838b81518110612208577f4e487b7100000000000000000000000000000000000000000000000000000000600052603260045260246000fd5b602002602001018190525087818151811061224c577f4e487b7100000000000000000000000000000000000000000000000000000000600052603260045260246000fd5b6020026020010151878b8151811061228d577f4e487b7100000000000000000000000000000000000000000000000000000000600052603260045260246000fd5b602002602001019073ffffffffffffffffffffffffffffffffffffffff16908173ffffffffffffffffffffffffffffffffffffffff168152505088600c016000898381518110612306577f4e487b7100000000000000000000000000000000000000000000000000000000600052603260045260246000fd5b602002602001015173ffffffffffffffffffffffffffffffffffffffff1673ffffffffffffffffffffffffffffffffffffffff16815260200190815260200160002054828b81518110612382577f4e487b7100000000000000000000000000000000000000000000000000000000600052603260045260246000fd5b602002602001018181525050898061239990615880565b9a50505b80806123a890615880565b915050611cb3565b508585858585859e509e509e509e509e509e5050505050505050505091939550919395565b603360009054906101000a900473ffffffffffffffffffffffffffffffffffffffff1681565b60006041600083815260200190815260200160002060070160003373ffffffffffffffffffffffffffffffffffffffff1673ffffffffffffffffffffffffffffffffffffffff16815260200190815260200160002060009054906101000a900460ff169050919050565b600260015414156124ab576040517f08c379a00000000000000000000000000000000000000000000000000000000081526004016124a29061522d565b60405180910390fd5b600260018190555060008686866040516020016124ca93929190614baf565b6040516020818303038152906040528051906020012090506000604160008381526020019081526020016000209050603360009054906101000a900473ffffffffffffffffffffffffffffffffffffffff1673ffffffffffffffffffffffffffffffffffffffff16636f9cf9853360016002811115612572577f4e487b7100000000000000000000000000000000000000000000000000000000600052602160045260246000fd5b6040518363ffffffff1660e01b815260040161258f929190614c83565b602060405180830381600087803b1580156125a957600080fd5b505af11580156125bd573d6000803e3d6000fd5b505050506040513d601f19601f820116820180604052508101906125e191906141e6565b612620576040517f08c379a00000000000000000000000000000000000000000000000000000000081526004016126179061510d565b60405180910390fd5b86816001015414612666576040517f08c379a000000000000000000000000000000000000000000000000000000000815260040161265d9061518d565b60405180910390fd5b600060028111156126a0577f4e487b7100000000000000000000000000000000000000000000000000000000600052602160045260246000fd5b8160070160003373ffffffffffffffffffffffffffffffffffffffff1673ffffffffffffffffffffffffffffffffffffffff16815260200190815260200160002060009054906101000a900460ff166002811115612727577f4e487b7100000000000000000000000000000000000000000000000000000000600052602160045260246000fd5b14612767576040517f08c379a000000000000000000000000000000000000000000000000000000000815260040161275e9061516d565b60405180910390fd5b600073ffffffffffffffffffffffffffffffffffffffff16603860009054906101000a900473ffffffffffffffffffffffffffffffffffffffff1673ffffffffffffffffffffffffffffffffffffffff1663cfe02b89336040518263ffffffff1660e01b81526004016127da9190614bec565b60206040518083038186803b1580156127f257600080fd5b505afa158015612806573d6000803e3d6000fd5b505050506040513d601f19601f8201168201806040525081019061282a9190613f93565b73ffffffffffffffffffffffffffffffffffffffff1614612880576040517f08c379a00000000000000000000000000000000000000000000000000000000081526004016128779061514d565b60405180910390fd5b603860009054906101000a900473ffffffffffffffffffffffffffffffffffffffff1673ffffffffffffffffffffffffffffffffffffffff1663105fd470336040518263ffffffff1660e01b81526004016128db9190614bec565b60206040518083038186803b1580156128f357600080fd5b505afa158015612907573d6000803e3d6000fd5b505050506040513d601f19601f8201168201806040525081019061292b91906141e6565b61296a576040517f08c379a0000000000000000000000000000000000000000000000000000000008152600401612961906151ed565b60405180910390fd5b848160070160003373ffffffffffffffffffffffffffffffffffffffff1673ffffffffffffffffffffffffffffffffffffffff16815260200190815260200160002060006101000a81548160ff021916908360028111156129f4577f4e487b7100000000000000000000000000000000000000000000000000000000600052602160045260246000fd5b0217905550428160080160003373ffffffffffffffffffffffffffffffffffffffff1673ffffffffffffffffffffffffffffffffffffffff16815260200190815260200160002081905550838160090160003373ffffffffffffffffffffffffffffffffffffffff1673ffffffffffffffffffffffffffffffffffffffff1681526020019081526020016000209080519060200190612a94929190613be0565b508281600c0160003373ffffffffffffffffffffffffffffffffffffffff1673ffffffffffffffffffffffffffffffffffffffff16815260200190815260200160002081905550806005016000815480929190612af090615880565b91905055506000603560009054906101000a900473ffffffffffffffffffffffffffffffffffffffff1673ffffffffffffffffffffffffffffffffffffffff16638319d390336040518263ffffffff1660e01b8152600401612b529190614bec565b60206040518083038186803b158015612b6a57600080fd5b505afa158015612b7e573d6000803e3d6000fd5b505050506040513d601f19601f82011682018060405250810190612ba29190614390565b905080603d60008460010154815260200190815260200160002060008581526020019081526020016000206000828254612bdc91906154d7565b925050819055508160080160003373ffffffffffffffffffffffffffffffffffffffff1673ffffffffffffffffffffffffffffffffffffffff16815260200190815260200160002054893373ffffffffffffffffffffffffffffffffffffffff167f4b29a3ed7e349f58641b48e385088f3e9ac94e5d63b51319f463ba16e6e6ba738989604051612c6e9291906150bb565b60405180910390a46000603e54118015612c8c575060008260020154145b15612d0357612cfc603d6000603e5481526020019081526020016000206000603f548152602001908152602001600020546064603d60008c8152602001908152602001600020600087815260200190815260200160002054612cee919061555e565b61391090919063ffffffff16565b6040819055505b603360009054906101000a900473ffffffffffffffffffffffffffffffffffffffff1673ffffffffffffffffffffffffffffffffffffffff16637036014e6040518163ffffffff1660e01b8152600401602060405180830381600087803b158015612d6d57600080fd5b505af1158015612d81573d6000803e3d6000fd5b505050506040513d601f19601f82011682018060405250810190612da59190614390565b604054101580612db757506064604054145b8015612dc7575060008260020154145b15612dda57612dd9838a604054613926565b5b603860009054906101000a900473ffffffffffffffffffffffffffffffffffffffff1673ffffffffffffffffffffffffffffffffffffffff166375416a6b336040518263ffffffff1660e01b8152600401612e359190614bec565b602060405180830381600087803b158015612e4f57600080fd5b505af1158015612e63573d6000803e3d6000fd5b505050506040513d601f19601f82011682018060405250810190612e8791906141e6565b612eba577f4e487b7100000000000000000000000000000000000000000000000000000000600052600160045260246000fd5b603860009054906101000a900473ffffffffffffffffffffffffffffffffffffffff1673ffffffffffffffffffffffffffffffffffffffff1663ed1b4f9b336040518263ffffffff1660e01b8152600401612f159190614bec565b602060405180830381600087803b158015612f2f57600080fd5b505af1158015612f43573d6000803e3d6000fd5b505050506040513d601f19601f82011682018060405250810190612f6791906141e6565b612f9a577f4e487b7100000000000000000000000000000000000000000000000000000000600052600160045260246000fd5b50505060018081905550505050505050565b603e5481565b603460009054906101000a900473ffffffffffffffffffffffffffffffffffffffff1681565b60416020528060005260406000206000915090508060000160009054906101000a900460ff16908060000160019054906101000a900473ffffffffffffffffffffffffffffffffffffffff16908060010154908060020154908060030180546130409061584e565b80601f016020809104026020016040519081016040528092919081815260200182805461306c9061584e565b80156130b95780601f1061308e576101008083540402835291602001916130b9565b820191906000526020600020905b81548152906001019060200180831161309c57829003601f168201915b5050505050908060040154908060050154908060060160009054906101000a900460ff169080600d0160009054906101000a900467ffffffffffffffff169080600d0160089054906101000a900473ffffffffffffffffffffffffffffffffffffffff169080600e015490508b565b600080613134836119b3565b505050505090508051915050919050565b603a6020528060005260406000206000915090505481565b86603360006101000a81548173ffffffffffffffffffffffffffffffffffffffff021916908373ffffffffffffffffffffffffffffffffffffffff16021790555085603560006101000a81548173ffffffffffffffffffffffffffffffffffffffff021916908373ffffffffffffffffffffffffffffffffffffffff16021790555084603760006101000a81548173ffffffffffffffffffffffffffffffffffffffff021916908373ffffffffffffffffffffffffffffffffffffffff16021790555083603660006101000a81548173ffffffffffffffffffffffffffffffffffffffff021916908373ffffffffffffffffffffffffffffffffffffffff16021790555082603860006101000a81548173ffffffffffffffffffffffffffffffffffffffff021916908373ffffffffffffffffffffffffffffffffffffffff16021790555081603960006101000a81548173ffffffffffffffffffffffffffffffffffffffff021916908373ffffffffffffffffffffffffffffffffffffffff16021790555080603460006101000a81548173ffffffffffffffffffffffffffffffffffffffff021916908373ffffffffffffffffffffffffffffffffffffffff160217905550606460408190555050505050505050565b6000602060ff161161337c576040517f08c379a00000000000000000000000000000000000000000000000000000000081526004016133739061512d565b60405180910390fd5b6000429050600086823360405160200161339893929190614baf565b604051602081830303815290604052805190602001209050603a60003373ffffffffffffffffffffffffffffffffffffffff1673ffffffffffffffffffffffffffffffffffffffff168152602001908152602001600020600081548092919061340090615880565b9190505550600060416000838152602001908152602001600020905086816003019080519060200190613434929190613be0565b50828160010181905550338160000160016101000a81548173ffffffffffffffffffffffffffffffffffffffff021916908373ffffffffffffffffffffffffffffffffffffffff160217905550858160060160006101000a81548160ff021916908360068111156134ce577f4e487b7100000000000000000000000000000000000000000000000000000000600052602160045260246000fd5b0217905550848160000160006101000a81548160ff0219169083151502179055508381600e0181905550603460009054906101000a900473ffffffffffffffffffffffffffffffffffffffff1673ffffffffffffffffffffffffffffffffffffffff1663f7c15fc885846040518363ffffffff1660e01b8152600401613555929190615268565b602060405180830381600087803b15801561356f57600080fd5b505af1158015613583573d6000803e3d6000fd5b505050506040513d601f19601f820116820180604052508101906135a791906141e6565b6135da577f4e487b7100000000000000000000000000000000000000000000000000000000600052600160045260246000fd5b856006811115613613577f4e487b7100000000000000000000000000000000000000000000000000000000600052602160045260246000fd5b823373ffffffffffffffffffffffffffffffffffffffff167f0dbeddfe9d39098957269db428a8da4b30b5f27a77cce961d530be73e35879d3868c8c60405161365e93929190615291565b60405180910390a45050505050505050565b6000818361367e91906154d7565b905092915050565b60006041600084815260200190815260200160002090506137146001603a60008460000160019054906101000a900473ffffffffffffffffffffffffffffffffffffffff1673ffffffffffffffffffffffffffffffffffffffff1673ffffffffffffffffffffffffffffffffffffffff16815260200190815260200160002054613bca90919063ffffffff16565b603a60008360000160019054906101000a900473ffffffffffffffffffffffffffffffffffffffff1673ffffffffffffffffffffffffffffffffffffffff1673ffffffffffffffffffffffffffffffffffffffff16815260200190815260200160002081905550603660009054906101000a900473ffffffffffffffffffffffffffffffffffffffff1673ffffffffffffffffffffffffffffffffffffffff166373c16b9d838360000160019054906101000a900473ffffffffffffffffffffffffffffffffffffffff168685600e01546040518563ffffffff1660e01b81526004016138049493929190614c3e565b600060405180830381600087803b15801561381e57600080fd5b505af1158015613832573d6000803e3d6000fd5b505050507f9a856ce2140763bf5c60c4782eca2bb7700a1492350b575c4455066ce05bfe9c838383600a0160008673ffffffffffffffffffffffffffffffffffffffff1673ffffffffffffffffffffffffffffffffffffffff1681526020019081526020016000205484600b0160008773ffffffffffffffffffffffffffffffffffffffff1673ffffffffffffffffffffffffffffffffffffffff168152602001908152602001600020546040516138ed9493929190614ee4565b60405180910390a1505050565b60008183613908919061555e565b905092915050565b6000818361391e919061552d565b905092915050565b6000604160008581526020019081526020016000209050428160020181905550600080603960009054906101000a900473ffffffffffffffffffffffffffffffffffffffff1673ffffffffffffffffffffffffffffffffffffffff1663a4c46cc0876040518263ffffffff1660e01b81526004016139a49190614ec9565b60006040518083038186803b1580156139bc57600080fd5b505afa1580156139d0573d6000803e3d6000fd5b505050506040513d6000823e3d601f19601f820116820180604052508101906139f99190614192565b915091508083600401819055508260010154603e8190555085603f81905550603460009054906101000a900473ffffffffffffffffffffffffffffffffffffffff1673ffffffffffffffffffffffffffffffffffffffff166335fda3ae876040518263ffffffff1660e01b8152600401613a739190614ec9565b602060405180830381600087803b158015613a8d57600080fd5b505af1158015613aa1573d6000803e3d6000fd5b505050506040513d601f19601f82011682018060405250810190613ac591906141e6565b613af8577f4e487b7100000000000000000000000000000000000000000000000000000000600052600160045260246000fd5b858360000160019054906101000a900473ffffffffffffffffffffffffffffffffffffffff1673ffffffffffffffffffffffffffffffffffffffff168460060160009054906101000a900460ff166006811115613b7e577f4e487b7100000000000000000000000000000000000000000000000000000000600052602160045260246000fd5b7fe03e992493c423b331e1dad96e612b25875b27d3b641b9bea71da12a87863514888589428a6003018a604051613bba96959493929190614f59565b60405180910390a4505050505050565b60008183613bd891906155fa565b905092915050565b828054613bec9061584e565b90600052602060002090601f016020900481019282613c0e5760008555613c55565b82601f10613c2757805160ff1916838001178555613c55565b82800160010185558215613c55579182015b82811115613c54578251825591602001919060010190613c39565b5b509050613c629190613c66565b5090565b5b80821115613c7f576000816000905550600101613c67565b5090565b6000613c96613c9184615329565b6152f8565b90508083825260208201905082856020860282011115613cb557600080fd5b60005b85811015613ce55781613ccb8882613e05565b845260208401935060208301925050600181019050613cb8565b5050509392505050565b6000613d02613cfd84615329565b6152f8565b90508083825260208201905082856020860282011115613d2157600080fd5b60005b85811015613d515781613d378882613e1a565b845260208401935060208301925050600181019050613d24565b5050509392505050565b6000613d6e613d6984615355565b6152f8565b90508083825260208201905082856020860282011115613d8d57600080fd5b60005b85811015613dbd5781613da38882613ead565b845260208401935060208301925050600181019050613d90565b5050509392505050565b6000613dda613dd584615381565b6152f8565b905082815260208101848484011115613df257600080fd5b613dfd84828561580c565b509392505050565b600081359050613e1481615aa1565b92915050565b600081519050613e2981615aa1565b92915050565b600082601f830112613e4057600080fd5b8135613e50848260208601613c83565b91505092915050565b600082601f830112613e6a57600080fd5b8151613e7a848260208601613cef565b91505092915050565b600082601f830112613e9457600080fd5b8135613ea4848260208601613d5b565b91505092915050565b600081359050613ebc81615ab8565b92915050565b600081519050613ed181615ab8565b92915050565b600081359050613ee681615acf565b92915050565b600081359050613efb81615ae6565b92915050565b600081359050613f1081615af6565b92915050565b600082601f830112613f2757600080fd5b8135613f37848260208601613dc7565b91505092915050565b600081359050613f4f81615b06565b92915050565b600081519050613f6481615b06565b92915050565b600060208284031215613f7c57600080fd5b6000613f8a84828501613e05565b91505092915050565b600060208284031215613fa557600080fd5b6000613fb384828501613e1a565b91505092915050565b600080600080600080600060e0888a031215613fd757600080fd5b6000613fe58a828b01613e05565b9750506020613ff68a828b01613e05565b96505060406140078a828b01613e05565b95505060606140188a828b01613e05565b94505060806140298a828b01613e05565b93505060a061403a8a828b01613e05565b92505060c061404b8a828b01613e05565b91505092959891949750929550565b6000806040838503121561406d57600080fd5b600061407b85828601613e05565b925050602061408c85828601613ed7565b9150509250929050565b600080604083850312156140a957600080fd5b60006140b785828601613e05565b92505060206140c885828601613f40565b9150509250929050565b6000602082840312156140e457600080fd5b600082015167ffffffffffffffff8111156140fe57600080fd5b61410a84828501613e59565b91505092915050565b60008060006060848603121561412857600080fd5b600084013567ffffffffffffffff81111561414257600080fd5b61414e86828701613e2f565b935050602084013567ffffffffffffffff81111561416b57600080fd5b61417786828701613e83565b925050604061418886828701613ed7565b9150509250925092565b600080604083850312156141a557600080fd5b600083015167ffffffffffffffff8111156141bf57600080fd5b6141cb85828601613e59565b92505060206141dc85828601613f55565b9150509250929050565b6000602082840312156141f857600080fd5b600061420684828501613ec2565b91505092915050565b60006020828403121561422157600080fd5b600061422f84828501613ed7565b91505092915050565b6000806040838503121561424b57600080fd5b600061425985828601613ed7565b925050602061426a85828601613e05565b9150509250929050565b6000806000806080858703121561428a57600080fd5b600061429887828801613ed7565b945050602085013567ffffffffffffffff8111156142b557600080fd5b6142c187828801613f16565b93505060406142d287828801613eec565b92505060606142e387828801613f40565b91505092959194509250565b60008060008060008060c0878903121561430857600080fd5b600061431689828a01613ed7565b965050602061432789828a01613f40565b955050604061433889828a01613e05565b945050606061434989828a01613f01565b935050608087013567ffffffffffffffff81111561436657600080fd5b61437289828a01613f16565b92505060a061438389828a01613ed7565b9150509295509295509295565b6000602082840312156143a257600080fd5b60006143b084828501613f55565b91505092915050565b600080604083850312156143cc57600080fd5b60006143da85828601613f40565b92505060206143eb85828601613ed7565b9150509250929050565b60006144018383614451565b60208301905092915050565b60006144198383614624565b60208301905092915050565b600061443183836146ef565b905092915050565b60006144458383614b6b565b60208301905092915050565b61445a8161562e565b82525050565b6144698161562e565b82525050565b61448061447b8261562e565b615924565b82525050565b600061449182615406565b61449b8185615471565b93506144a6836153b1565b8060005b838110156144d75781516144be88826143f5565b97506144c98361543d565b9250506001810190506144aa565b5085935050505092915050565b60006144ef82615411565b6144f98185615482565b9350614504836153c1565b8060005b8381101561453557815161451c888261440d565b97506145278361544a565b925050600181019050614508565b5085935050505092915050565b600061454d8261541c565b6145578185615493565b935083602082028501614569856153d1565b8060005b858110156145a557848403895281516145868582614425565b945061459183615457565b925060208a0199505060018101905061456d565b50829750879550505050505092915050565b60006145c282615427565b6145cc81856154a4565b93506145d7836153e1565b8060005b838110156146085781516145ef8882614439565b97506145fa83615464565b9250506001810190506145db565b5085935050505092915050565b61461e81615640565b82525050565b61462d8161564c565b82525050565b61463c8161564c565b82525050565b61465361464e8261564c565b615936565b82525050565b614662816156da565b82525050565b614671816156fe565b82525050565b61468081615722565b82525050565b61468f81615746565b82525050565b61469e8161576a565b82525050565b6146ad8161578e565b82525050565b6146bc816157b2565b82525050565b6146cb816157d6565b82525050565b6146da816157e8565b82525050565b6146e9816157fa565b82525050565b60006146fa82615432565b61470481856154b5565b935061471481856020860161581b565b61471d81615a47565b840191505092915050565b600061473382615432565b61473d81856154c6565b935061474d81856020860161581b565b61475681615a47565b840191505092915050565b6000815461476e8161584e565b61477881866154c6565b9450600182166000811461479357600181146147a5576147d8565b60ff19831686526020860193506147d8565b6147ae856153f1565b60005b838110156147d0578154818901526001820191506020810190506147b1565b808801955050505b50505092915050565b60006147ee601c836154c6565b91507f563a76616c6964617465202d206e6f7420617574686f72697a65642e000000006000830152602082019050919050565b600061482e6037836154c6565b91507f563a696e697469616c697a6556616c69646174696f6e202d20446f63756d656e60008301527f7420686173682076616c75652063616e277420626520300000000000000000006020830152604082019050919050565b6000614894602c836154c6565b91507f563a76616c6964617465202d2064656c656761746564207374616b652c20636160008301527f6e27742076616c696461746500000000000000000000000000000000000000006020830152604082019050919050565b60006148fa601f836154c6565b91507f563a76616c6964617465202d2076616c69646174656420616c72656164792e006000830152602082019050919050565b600061493a6020836154c6565b91507f563a76616c6964617465202d20706172616d7320646f6e2774206d617463682e6000830152602082019050919050565b600061497a602c836154c6565b91507f564e433a72657475726e56616c696461746f724c69737441637475616c202d2060008301527f696e76616c6964206861736800000000000000000000000000000000000000006020830152604082019050919050565b60006149e06052836154c6565b91507f564e433a696e697469616c697a6556616c69646174696f6e4e6f436f686f727460008301527f202d204e6f742073756666696369656e742066756e64732e204465706f73697460208301527f206164646974696f6e616c2066756e64732e00000000000000000000000000006040830152606082019050919050565b6000614a6c6020836154c6565b91507f563a76616c6964617465202d206e6f742061206e6f6465206f70657261746f726000830152602082019050919050565b6000614aac604a836154c6565b91507f564e433a696e697469616c697a6556616c69646174696f6e4e6f436f686f727460008301527f202d20596f75206861766520746f20726567697374657220617320646174612060208301527f73756273637269626572000000000000000000000000000000000000000000006040830152606082019050919050565b6000614b38601f836154c6565b91507f5265656e7472616e637947756172643a207265656e7472616e742063616c6c006000830152602082019050919050565b614b74816156af565b82525050565b614b83816156af565b82525050565b614b9a614b95826156af565b615952565b82525050565b614ba9816156b9565b82525050565b6000614bbb8286614642565b602082019150614bcb8285614b89565b602082019150614bdb828461446f565b601482019150819050949350505050565b6000602082019050614c016000830184614460565b92915050565b6000606082019050614c1c6000830186614460565b614c296020830185614460565b614c366040830184614615565b949350505050565b6000608082019050614c536000830187614460565b614c606020830186614460565b614c6d6040830185614633565b614c7a6060830184614b7a565b95945050505050565b6000604082019050614c986000830185614460565b614ca560208301846146d1565b9392505050565b60006020820190508181036000830152614cc68184614486565b905092915050565b600060c0820190508181036000830152614ce88189614486565b90508181036020830152614cfc81886145b7565b90508181036040830152614d1081876145b7565b90508181036060830152614d2481866145b7565b90508181036080830152614d388185614542565b905081810360a0830152614d4c81846144e4565b9050979650505050505050565b6000602082019050614d6e6000830184614615565b92915050565b600061016082019050614d8a600083018e614615565b614d97602083018d614460565b614da4604083018c614b7a565b614db1606083018b614b7a565b8181036080830152614dc3818a614728565b9050614dd260a0830189614b7a565b614ddf60c0830188614b7a565b614dec60e08301876146c2565b614dfa610100830186614ba0565b614e08610120830185614460565b614e16610140830184614b7a565b9c9b505050505050505050505050565b600061014082019050614e3c600083018d614615565b614e49602083018c614460565b614e56604083018b614b7a565b614e63606083018a614b7a565b8181036080830152614e758189614728565b9050614e8460a0830188614b7a565b614e9160c0830187614b7a565b614e9e60e0830186614ba0565b614eac610100830185614615565b614eba610120830184614460565b9b9a5050505050505050505050565b6000602082019050614ede6000830184614633565b92915050565b6000608082019050614ef96000830187614633565b614f066020830186614460565b614f136040830185614b7a565b614f206060830184614b7a565b95945050505050565b6000604082019050614f3e6000830185614633565b8181036020830152614f508184614486565b90509392505050565b600060c082019050614f6e6000830189614633565b614f7b6020830188614b7a565b614f886040830187614b7a565b614f956060830186614b7a565b8181036080830152614fa78185614761565b905081810360a0830152614fbb8184614486565b9050979650505050505050565b6000602082019050614fdd6000830184614659565b92915050565b6000602082019050614ff86000830184614668565b92915050565b60006020820190506150136000830184614677565b92915050565b600060208201905061502e6000830184614686565b92915050565b60006020820190506150496000830184614695565b92915050565b600060208201905061506460008301846146a4565b92915050565b600060208201905061507f60008301846146b3565b92915050565b600060208201905061509a60008301846146c2565b92915050565b60006020820190506150b560008301846146e0565b92915050565b60006040820190506150d060008301856146e0565b81810360208301526150e28184614728565b90509392505050565b600060208201905081810360008301526151058184614728565b905092915050565b60006020820190508181036000830152615126816147e1565b9050919050565b6000602082019050818103600083015261514681614821565b9050919050565b6000602082019050818103600083015261516681614887565b9050919050565b60006020820190508181036000830152615186816148ed565b9050919050565b600060208201905081810360008301526151a68161492d565b9050919050565b600060208201905081810360008301526151c68161496d565b9050919050565b600060208201905081810360008301526151e6816149d3565b9050919050565b6000602082019050818103600083015261520681614a5f565b9050919050565b6000602082019050818103600083015261522681614a9f565b9050919050565b6000602082019050818103600083015261524681614b2b565b9050919050565b60006020820190506152626000830184614b7a565b92915050565b600060408201905061527d6000830185614b7a565b61528a6020830184614633565b9392505050565b60006060820190506152a66000830186614b7a565b6152b36020830185614633565b81810360408301526152c58184614728565b9050949350505050565b60006040820190506152e46000830185614b7a565b6152f16020830184614b7a565b9392505050565b6000604051905081810181811067ffffffffffffffff8211171561531f5761531e615a18565b5b8060405250919050565b600067ffffffffffffffff82111561534457615343615a18565b5b602082029050602081019050919050565b600067ffffffffffffffff8211156153705761536f615a18565b5b602082029050602081019050919050565b600067ffffffffffffffff82111561539c5761539b615a18565b5b601f19601f8301169050602081019050919050565b6000819050602082019050919050565b6000819050602082019050919050565b6000819050602082019050919050565b6000819050602082019050919050565b60008190508160005260206000209050919050565b600081519050919050565b600081519050919050565b600081519050919050565b600081519050919050565b600081519050919050565b6000602082019050919050565b6000602082019050919050565b6000602082019050919050565b6000602082019050919050565b600082825260208201905092915050565b600082825260208201905092915050565b600082825260208201905092915050565b600082825260208201905092915050565b600082825260208201905092915050565b600082825260208201905092915050565b60006154e2826156af565b91506154ed836156af565b9250827fffffffffffffffffffffffffffffffffffffffffffffffffffffffffffffffff038211156155225761552161595c565b5b828201905092915050565b6000615538826156af565b9150615543836156af565b9250826155535761555261598b565b5b828204905092915050565b6000615569826156af565b9150615574836156af565b9250817fffffffffffffffffffffffffffffffffffffffffffffffffffffffffffffffff04831182151516156155ad576155ac61595c565b5b828202905092915050565b60006155c3826156b9565b91506155ce836156b9565b92508167ffffffffffffffff04831182151516156155ef576155ee61595c565b5b828202905092915050565b6000615605826156af565b9150615610836156af565b9250828210156156235761562261595c565b5b828203905092915050565b60006156398261568f565b9050919050565b60008115159050919050565b6000819050919050565b600081905061566482615a65565b919050565b600081905061567782615a79565b919050565b600081905061568a82615a8d565b919050565b600073ffffffffffffffffffffffffffffffffffffffff82169050919050565b6000819050919050565b600067ffffffffffffffff82169050919050565b600060ff82169050919050565b60006156e5826156ec565b9050919050565b60006156f78261568f565b9050919050565b600061570982615710565b9050919050565b600061571b8261568f565b9050919050565b600061572d82615734565b9050919050565b600061573f8261568f565b9050919050565b600061575182615758565b9050919050565b60006157638261568f565b9050919050565b60006157758261577c565b9050919050565b60006157878261568f565b9050919050565b6000615799826157a0565b9050919050565b60006157ab8261568f565b9050919050565b60006157bd826157c4565b9050919050565b60006157cf8261568f565b9050919050565b60006157e182615656565b9050919050565b60006157f382615669565b9050919050565b60006158058261567c565b9050919050565b82818337600083830152505050565b60005b8381101561583957808201518184015260208101905061581e565b83811115615848576000848401525b50505050565b6000600282049050600182168061586657607f821691505b6020821081141561587a576158796159e9565b5b50919050565b600061588b826156af565b91507fffffffffffffffffffffffffffffffffffffffffffffffffffffffffffffffff8214156158be576158bd61595c565b5b600182019050919050565b60006158d4826156b9565b915067ffffffffffffffff8214156158ef576158ee61595c565b5b600182019050919050565b6000615905826156cd565b915060ff8214156159195761591861595c565b5b600182019050919050565b600061592f82615940565b9050919050565b6000819050919050565b600061594b82615a58565b9050919050565b6000819050919050565b7f4e487b7100000000000000000000000000000000000000000000000000000000600052601160045260246000fd5b7f4e487b7100000000000000000000000000000000000000000000000000000000600052601260045260246000fd5b7f4e487b7100000000000000000000000000000000000000000000000000000000600052602160045260246000fd5b7f4e487b7100000000000000000000000000000000000000000000000000000000600052602260045260246000fd5b7f4e487b7100000000000000000000000000000000000000000000000000000000600052604160045260246000fd5b6000601f19601f8301169050919050565b60008160601b9050919050565b60078110615a7657615a756159ba565b5b50565b60038110615a8a57615a896159ba565b5b50565b60038110615a9e57615a9d6159ba565b5b50565b615aaa8161562e565b8114615ab557600080fd5b50565b615ac181615640565b8114615acc57600080fd5b50565b615ad88161564c565b8114615ae357600080fd5b50565b60078110615af357600080fd5b50565b60038110615b0357600080fd5b50565b615b0f816156af565b8114615b1a57600080fd5b5056fea2646970667358221220a9d4be941167fb4a1a65dc28ca4058aa554cf69d23a61969d2ce48f3bb170e3464736f6c63430008000033",
  "immutableReferences": {},
  "source": "// SPDX-License-Identifier: MIT\npragma solidity =0.8.0;\n\nimport \"./Validations.sol\";\nimport \"@openzeppelin/contracts-upgradeable/utils/math/SafeMathUpgradeable.sol\";\n\n\n\ncontract ValidationsNoCohort is Validations {\n    using SafeMathUpgradeable for uint256;\n\n    function initialize(address _members, address _memberHelpers, address _cohortFactory, address _depositModifiers, address _nodeOperations,  address _validationHelpers, address _queue) public override {\n        super.initialize(_members, _memberHelpers, _cohortFactory, _depositModifiers, _nodeOperations, _validationHelpers, _queue);\n\n    }\n\n    /**\n    * @dev to be called by data subscriber to initiate new validation\n    * @param documentHash - hash of unique identifier of validated transaction\n    * @param url - locatoin of the file on IPFS or   function returnValidatorList(bytes32 validationHash) public view override  returns (address[] memory){\n    * @param auditType - type of auditing \n    */\n    function initializeValidationNoCohort(bytes32 documentHash, string memory url, AuditTypes auditType, uint256 price) external {\n\n        require(checkIfRequestorHasFunds(msg.sender, price), \"VNC:initializeValidationNoCohort - Not sufficient funds. Deposit additional funds.\");\n        require(members.userMap(msg.sender, IMembers.UserType(2)), \"VNC:initializeValidationNoCohort - You have to register as data subscriber\");\n        super.initializeValidation(documentHash, url, auditType, false, price);\n        \n    }\n\n   /**\n   * @dev verify if requesting party has sufficient funds\n   * @param requestor a user whos funds are checked\n   * @return true or false \n   */\n      function checkIfRequestorHasFunds(address requestor, uint256 price) public override view returns (bool) {\n\n          return ( memberHelpers.deposits(requestor) > price.mul(outstandingValidations[requestor].add(1)));\n    }\n\n\n    function processPayments(bytes32 validationHash, address winner) internal override { \n\n        Validation storage validation = validations[validationHash];\n        outstandingValidations[validation.requestor] = outstandingValidations[validation.requestor].sub(1);\n        depositModifiers.processNonChortPayment(winner, validation.requestor, validationHash, validation.price);\n        emit PaymentProcessed(validationHash, winner, validation.winnerVotesPlus[winner], validation.winnerVotesMinus[winner]);\n    }\n\n    // function validate(bytes32 documentHash, uint256 validationTime, address subscriber, ValidationStatus decision, string memory valUrl, bytes32 reportHash) public override {\n    //     super.validate(documentHash, validationTime, subscriber, decision, valUrl, reportHash);\n    // }\n\n    function returnValidatorCount(bytes32 _recentValidationHash) public view override returns (uint256){\n        // return nodeOperations.returnNodeOperatorsCount();\n\n        (address[] memory nodeOperators,,,,,) = collectValidationResults(_recentValidationHash);\n        return nodeOperators.length;\n        \n    }\n\n    function returnValidatorList(bytes32 validationHash) public view override  returns (address[] memory){\n\n        address[] memory validatorsList = nodeOperations.returnNodeOperators();\n        return validatorsList;\n    }\n\n\n       function returnValidatorListActual(bytes32 validationHash) external view returns (address[] memory){\n\n        require(validationHash !=  bytes32(0), \"VNC:returnValidatorListActual - invalid hash\");\n\n        //  (address[] memory nodeOperators,,,,,)  = collectValidationResults(validationHash);\n        Validation storage validation = validations[validationHash];\n        uint256 j=0;\n\n        address[] memory validatorListActive = new address[](validation.validationsCompleted);\n        address[] memory validatorsList = nodeOperations.returnNodeOperators();\n\n         for (uint256 i = 0; i < validatorsList.length; i++) {\n            if(validation.validatorChoice[validatorsList[i]] != ValidationStatus.Undefined) {\n                validatorListActive[j] = validatorsList[i];\n                j++;\n            }\n        }\n        return validatorListActive;\n    }\n\n\n\n}",
  "sourcePath": "/home/win2win/eth/projects/AuditChain/Core-Smart-Contracts-v1-upgradable/contracts/Auditchain/ValidationsNoCohort.sol",
  "compiler": {
    "name": "solc",
    "version": "0.8.0+commit.c7dfd78e.Emscripten.clang"
  },
  "schemaVersion": "3.4.1",
  "updatedAt": "2022-05-18T17:13:45.629Z",
  "devdoc": {
    "kind": "dev",
    "methods": {
      "checkIfRequestorHasFunds(address,uint256)": {
        "details": "verify if requesting party has sufficient funds",
        "params": {
          "requestor": "a user whos funds are checked"
        },
        "returns": {
          "_0": "true or false "
        }
      },
      "collectValidationResults(bytes32)": {
        "details": "Review the validation results",
        "params": {
          "validationHash": "- consist of hash of hashed document and timestamp"
        },
        "returns": {
          "_0": "array  of validators",
          "_1": "array of stakes of each validatoralidation.requestor",
          "_2": "array of validation choices for each validator"
        }
      },
      "initializeValidationNoCohort(bytes32,string,uint8,uint256)": {
        "details": "to be called by data subscriber to initiate new validation",
        "params": {
          "auditType": "- type of auditing ",
          "documentHash": "- hash of unique identifier of validated transaction",
          "url": "- locatoin of the file on IPFS or   function returnValidatorList(bytes32 validationHash) public view override  returns (address[] memory){"
        }
      },
      "isValidated(bytes32)": {
        "details": "validators can check if specific document has been already validated by them",
        "params": {
          "validationHash": "- consist of hash of hashed document and timestamp"
        },
        "returns": {
          "_0": "validation choices used by validator"
        }
      },
      "validate(bytes32,uint256,address,uint8,string,bytes32)": {
        "details": "called by validator to approve or disapprove this validation",
        "params": {
          "decision": "- one of the ValidationStatus choices cast by validator",
          "documentHash": "- hash of validated document",
          "validationTime": "- this is the time when validation has been initialized"
        }
      }
    },
    "version": 1
  },
  "userdoc": {
    "kind": "user",
    "methods": {},
    "version": 1
  }
}