{
  "contractName": "ValidationHelpers",
  "abi": [
    {
      "anonymous": false,
      "inputs": [
        {
          "indexed": true,
          "internalType": "address",
          "name": "user",
          "type": "address"
        },
        {
          "indexed": false,
          "internalType": "bytes32",
          "name": "validationHash",
          "type": "bytes32"
        },
        {
          "indexed": false,
          "internalType": "uint256",
          "name": "price",
          "type": "uint256"
        }
      ],
      "name": "ReplaceCancelValidation",
      "type": "event"
    },
    {
      "inputs": [],
      "name": "memberHelpers",
      "outputs": [
        {
          "internalType": "contract MemberHelpers",
          "name": "",
          "type": "address"
        }
      ],
      "stateMutability": "view",
      "type": "function"
    },
    {
      "inputs": [],
      "name": "queue",
      "outputs": [
        {
          "internalType": "contract IQueue",
          "name": "",
          "type": "address"
        }
      ],
      "stateMutability": "view",
      "type": "function"
    },
    {
      "inputs": [
        {
          "internalType": "address",
          "name": "_memberHelpers",
          "type": "address"
        },
        {
          "internalType": "address",
          "name": "_queue",
          "type": "address"
        }
      ],
      "name": "initialize",
      "outputs": [],
      "stateMutability": "nonpayable",
      "type": "function"
    },
    {
      "inputs": [
        {
          "internalType": "bytes32",
          "name": "documentHash",
          "type": "bytes32"
        },
        {
          "internalType": "uint256",
          "name": "_validationTime",
          "type": "uint256"
        }
      ],
      "name": "isHashAndTimeCorrect",
      "outputs": [
        {
          "internalType": "bool",
          "name": "",
          "type": "bool"
        }
      ],
      "stateMutability": "view",
      "type": "function"
    },
    {
      "inputs": [
        {
          "internalType": "bytes32",
          "name": "validationHash",
          "type": "bytes32"
        },
        {
          "internalType": "address",
          "name": "contractAddress",
          "type": "address"
        }
      ],
      "name": "returnWinnerStruct",
      "outputs": [
        {
          "internalType": "string",
          "name": "valUrl",
          "type": "string"
        },
        {
          "internalType": "address",
          "name": "winner",
          "type": "address"
        },
        {
          "internalType": "uint256",
          "name": "validationTime",
          "type": "uint256"
        }
      ],
      "stateMutability": "view",
      "type": "function"
    },
    {
      "inputs": [
        {
          "internalType": "uint256",
          "name": "price",
          "type": "uint256"
        },
        {
          "internalType": "bytes32",
          "name": "validationHash",
          "type": "bytes32"
        },
        {
          "internalType": "address",
          "name": "contractAddress",
          "type": "address"
        }
      ],
      "name": "replaceCancelValidation",
      "outputs": [],
      "stateMutability": "nonpayable",
      "type": "function"
    },
    {
      "inputs": [
        {
          "internalType": "bytes32",
          "name": "validationHash",
          "type": "bytes32"
        },
        {
          "internalType": "address[]",
          "name": "winners",
          "type": "address[]"
        }
      ],
      "name": "selectWinner",
      "outputs": [
        {
          "internalType": "address",
          "name": "",
          "type": "address"
        }
      ],
      "stateMutability": "view",
      "type": "function"
    },
    {
      "inputs": [
        {
          "internalType": "bytes32",
          "name": "validationHash",
          "type": "bytes32"
        }
      ],
      "name": "determineWinners",
      "outputs": [
        {
          "internalType": "address[]",
          "name": "",
          "type": "address[]"
        },
        {
          "internalType": "uint256",
          "name": "",
          "type": "uint256"
        }
      ],
      "stateMutability": "view",
      "type": "function"
    },
    {
      "inputs": [
        {
          "internalType": "uint256[]",
          "name": "validation",
          "type": "uint256[]"
        }
      ],
      "name": "determineConsensus",
      "outputs": [
        {
          "internalType": "uint256",
          "name": "",
          "type": "uint256"
        }
      ],
      "stateMutability": "pure",
      "type": "function"
    },
    {
      "inputs": [
        {
          "internalType": "bytes32",
          "name": "validationHash",
          "type": "bytes32"
        },
        {
          "internalType": "address",
          "name": "validationContract",
          "type": "address"
        }
      ],
      "name": "calculateVoteQuorum",
      "outputs": [
        {
          "internalType": "uint256",
          "name": "",
          "type": "uint256"
        }
      ],
      "stateMutability": "view",
      "type": "function"
    }
  ],
  "bytecode": "0x608060405234801561001057600080fd5b50612f33806100206000396000f3fe608060405234801561001057600080fd5b506004361061009e5760003560e01c8063a415b96a11610066578063a415b96a1461015b578063a4c46cc01461018b578063ab6c77a7146101bc578063b4636696146101ec578063e10d29ee1461021c5761009e565b8063311b093e146100a3578063485cc955146100d5578063533e0d47146100f157806371d8c7a01461010d5780639dd464021461012b575b600080fd5b6100bd60048036038101906100b891906122ee565b61023a565b6040516100cc9392919061289c565b60405180910390f35b6100ef60048036038101906100ea9190611fd2565b610452565b005b61010b60048036038101906101069190612424565b6104d7565b005b6101156107fa565b6040516101229190612881565b60405180910390f35b6101456004803603810190610140919061232a565b61081e565b6040516101529190612793565b60405180910390f35b610175600480360381019061017091906122ee565b610aca565b604051610182919061295a565b60405180910390f35b6101a560048036038101906101a091906122c5565b610f1e565b6040516101b39291906127ae565b60405180910390f35b6101d660048036038101906101d1919061237e565b6112e3565b6040516101e391906127de565b60405180910390f35b61020660048036038101906102019190612168565b6113cc565b604051610213919061295a565b60405180910390f35b6102246114c9565b6040516102319190612866565b60405180910390f35b60606000806000801b851415610285576040517f08c379a000000000000000000000000000000000000000000000000000000000815260040161027c9061293a565b60405180910390fd5b600073ffffffffffffffffffffffffffffffffffffffff168473ffffffffffffffffffffffffffffffffffffffff1614156102f5576040517f08c379a00000000000000000000000000000000000000000000000000000000081526004016102ec906128fa565b60405180910390fd5b8373ffffffffffffffffffffffffffffffffffffffff166356756cd7866040518263ffffffff1660e01b815260040161032e91906127f9565b60006040518083038186803b15801561034657600080fd5b505afa15801561035a573d6000803e3d6000fd5b505050506040513d6000823e3d601f19601f8201168201806040525081019061038391906121d2565b9091929394959697985090919293949596975090919293949550909192939450909192935090919250909150905080935081925050508373ffffffffffffffffffffffffffffffffffffffff16635b3c5c4a86846040518363ffffffff1660e01b81526004016103f4929190612814565b60006040518083038186803b15801561040c57600080fd5b505afa158015610420573d6000803e3d6000fd5b505050506040513d6000823e3d601f19601f8201168201806040525081019061044991906123ba565b92509250925092565b816000806101000a81548173ffffffffffffffffffffffffffffffffffffffff021916908373ffffffffffffffffffffffffffffffffffffffff16021790555080600160006101000a81548173ffffffffffffffffffffffffffffffffffffffff021916908373ffffffffffffffffffffffffffffffffffffffff1602179055505050565b6000801b82141561051d576040517f08c379a0000000000000000000000000000000000000000000000000000000008152600401610514906128da565b60405180910390fd5b60008173ffffffffffffffffffffffffffffffffffffffff166356756cd7846040518263ffffffff1660e01b815260040161055891906127f9565b60006040518083038186803b15801561057057600080fd5b505afa158015610584573d6000803e3d6000fd5b505050506040513d6000823e3d601f19601f820116820180604052508101906105ad91906121d2565b50505050505050509150508073ffffffffffffffffffffffffffffffffffffffff163373ffffffffffffffffffffffffffffffffffffffff1614610626576040517f08c379a000000000000000000000000000000000000000000000000000000000815260040161061d9061291a565b60405180910390fd5b600084141561071457600160009054906101000a900473ffffffffffffffffffffffffffffffffffffffff1673ffffffffffffffffffffffffffffffffffffffff166348792674846040518263ffffffff1660e01b815260040161068a91906127f9565b602060405180830381600087803b1580156106a457600080fd5b505af11580156106b8573d6000803e3d6000fd5b505050506040513d601f19601f820116820180604052508101906106dc91906121a9565b61070f577f4e487b7100000000000000000000000000000000000000000000000000000000600052600160045260246000fd5b6107a4565b600160009054906101000a900473ffffffffffffffffffffffffffffffffffffffff1673ffffffffffffffffffffffffffffffffffffffff1663c4a2e36985856040518363ffffffff1660e01b8152600401610771929190612975565b600060405180830381600087803b15801561078b57600080fd5b505af115801561079f573d6000803e3d6000fd5b505050505b3373ffffffffffffffffffffffffffffffffffffffff167f3ece483bb25cfe1e97ad6181550c95eda40cd9f214be0eb309424300d7e5506584866040516107ec92919061283d565b60405180910390a250505050565b60008054906101000a900473ffffffffffffffffffffffffffffffffffffffff1681565b6000808260008151811061085b577f4e487b7100000000000000000000000000000000000000000000000000000000600052603260045260246000fd5b602002602001015190506000600190505b83518160ff161015610abf576000803373ffffffffffffffffffffffffffffffffffffffff166362e23f2788888660ff16815181106108d4577f4e487b7100000000000000000000000000000000000000000000000000000000600052603260045260246000fd5b60200260200101516040518363ffffffff1660e01b81526004016108f9929190612814565b604080518083038186803b15801561091057600080fd5b505afa158015610924573d6000803e3d6000fd5b505050506040513d601f19601f820116820180604052508101906109489190612473565b915091506000803373ffffffffffffffffffffffffffffffffffffffff166362e23f278a8a60018961097a9190612c19565b60ff16815181106109b4577f4e487b7100000000000000000000000000000000000000000000000000000000600052603260045260246000fd5b60200260200101516040518363ffffffff1660e01b81526004016109d9929190612814565b604080518083038186803b1580156109f057600080fd5b505afa158015610a04573d6000803e3d6000fd5b505050506040513d601f19601f82011682018060405250810190610a289190612473565b9150915082841115610aa857610a4781836114ef90919063ffffffff16565b610a5a84866114ef90919063ffffffff16565b1115610aa757878560ff1681518110610a9c577f4e487b7100000000000000000000000000000000000000000000000000000000600052603260045260246000fd5b602002602001015195505b5b505050508080610ab790612dae565b91505061086c565b508091505092915050565b6000806000808473ffffffffffffffffffffffffffffffffffffffff166341035f2a876040518263ffffffff1660e01b8152600401610b0991906127f9565b60006040518083038186803b158015610b2157600080fd5b505afa158015610b35573d6000803e3d6000fd5b505050506040513d6000823e3d601f19601f82011682018060405250810190610b5e919061200e565b90506000808673ffffffffffffffffffffffffffffffffffffffff1663b39fd6cf896040518263ffffffff1660e01b8152600401610b9c91906127f9565b60006040518083038186803b158015610bb457600080fd5b505afa158015610bc8573d6000803e3d6000fd5b505050506040513d6000823e3d601f19601f82011682018060405250810190610bf1919061204f565b505050925050915060005b8351811015610ed95760008054906101000a900473ffffffffffffffffffffffffffffffffffffffff1673ffffffffffffffffffffffffffffffffffffffff16638319d390858381518110610c7a577f4e487b7100000000000000000000000000000000000000000000000000000000600052603260045260246000fd5b60200260200101516040518263ffffffff1660e01b8152600401610c9e9190612793565b60206040518083038186803b158015610cb657600080fd5b505afa158015610cca573d6000803e3d6000fd5b505050506040513d601f19601f82011682018060405250810190610cee91906123fb565b86610cf99190612b04565b955060005b8251811015610ec557838181518110610d40577f4e487b7100000000000000000000000000000000000000000000000000000000600052603260045260246000fd5b602002602001015173ffffffffffffffffffffffffffffffffffffffff16858381518110610d97577f4e487b7100000000000000000000000000000000000000000000000000000000600052603260045260246000fd5b602002602001015173ffffffffffffffffffffffffffffffffffffffff161415610eb25760008054906101000a900473ffffffffffffffffffffffffffffffffffffffff1673ffffffffffffffffffffffffffffffffffffffff16638319d390868481518110610e30577f4e487b7100000000000000000000000000000000000000000000000000000000600052603260045260246000fd5b60200260200101516040518263ffffffff1660e01b8152600401610e549190612793565b60206040518083038186803b158015610e6c57600080fd5b505afa158015610e80573d6000803e3d6000fd5b505050506040513d601f19601f82011682018060405250810190610ea491906123fb565b86610eaf9190612b04565b95505b8080610ebd90612d65565b915050610cfe565b508080610ed190612d65565b915050610bfc565b506000841415610ef157600095505050505050610f18565b610f1085606486610f029190612b8b565b61150590919063ffffffff16565b955050505050505b92915050565b6060600080600080610f2f8661151b565b9250925092506000610f40836113cc565b90506000845167ffffffffffffffff811115610f85577f4e487b7100000000000000000000000000000000000000000000000000000000600052604160045260246000fd5b604051908082528060200260200182016040528015610fb35781602001602082028036833780820191505090505b50905060008060009050600085600081518110610ff9577f4e487b7100000000000000000000000000000000000000000000000000000000600052603260045260246000fd5b6020026020010151905060005b8361112c5785888481518110611045577f4e487b7100000000000000000000000000000000000000000000000000000000600052603260045260246000fd5b602002602001015114801561109957508187848151811061108f577f4e487b7100000000000000000000000000000000000000000000000000000000600052603260045260246000fd5b6020026020010151145b156110fa5760018584815181106110d9577f4e487b7100000000000000000000000000000000000000000000000000000000600052603260045260246000fd5b60200260200101901515908115158152505080806110f690612d65565b9150505b88516001846111099190612b04565b14156111185760019350611127565b828061112390612d65565b9350505b611006565b60008167ffffffffffffffff81111561116e577f4e487b7100000000000000000000000000000000000000000000000000000000600052604160045260246000fd5b60405190808252806020026020018201604052801561119c5781602001602082028036833780820191505090505b509050600080600090505b8b518110156112cc578781815181106111e9577f4e487b7100000000000000000000000000000000000000000000000000000000600052603260045260246000fd5b6020026020010151156112b9578b818151811061122f577f4e487b7100000000000000000000000000000000000000000000000000000000600052603260045260246000fd5b6020026020010151838381518110611270577f4e487b7100000000000000000000000000000000000000000000000000000000600052603260045260246000fd5b602002602001019073ffffffffffffffffffffffffffffffffffffffff16908173ffffffffffffffffffffffffffffffffffffffff168152505081806112b590612d65565b9250505b80806112c490612d65565b9150506111a7565b5081889c509c505050505050505050505050915091565b60008083836040516020016112f9929190612767565b60405160208183030381529060405280519060200120905060003373ffffffffffffffffffffffffffffffffffffffff166356756cd7836040518263ffffffff1660e01b815260040161134c91906127f9565b60006040518083038186803b15801561136457600080fd5b505afa158015611378573d6000803e3d6000fd5b505050506040513d6000823e3d601f19601f820116820180604052508101906113a191906121d2565b5050505050505092505050838114156113bf576001925050506113c6565b6000925050505b92915050565b600080600080600090505b8451811015611496576001600281111561141a577f4e487b7100000000000000000000000000000000000000000000000000000000600052602160045260246000fd5b858281518110611453577f4e487b7100000000000000000000000000000000000000000000000000000000600052603260045260246000fd5b6020026020010151141561147457828061146c90612d65565b935050611483565b818061147f90612d65565b9250505b808061148e90612d65565b9150506113d7565b50808211156114aa576001925050506114c4565b818111156114bd576002925050506114c4565b6002925050505b919050565b600160009054906101000a900473ffffffffffffffffffffffffffffffffffffffff1681565b600081836114fd9190612be5565b905092915050565b600081836115139190612b5a565b905092915050565b606080606060008060003373ffffffffffffffffffffffffffffffffffffffff1663b39fd6cf886040518263ffffffff1660e01b815260040161155e91906127f9565b60006040518083038186803b15801561157657600080fd5b505afa15801561158a573d6000803e3d6000fd5b505050506040513d6000823e3d601f19601f820116820180604052508101906115b3919061204f565b5050935093505092506000815190506000600190505b81811015611b3857600083828151811061160c577f4e487b7100000000000000000000000000000000000000000000000000000000600052603260045260246000fd5b602002602001015190506000868381518110611651577f4e487b7100000000000000000000000000000000000000000000000000000000600052603260045260246000fd5b602002602001015190506000868481518110611696577f4e487b7100000000000000000000000000000000000000000000000000000000600052603260045260246000fd5b6020026020010151905060006001856116af9190612be5565b90505b6000811380156117015750838782815181106116f7577f4e487b7100000000000000000000000000000000000000000000000000000000600052603260045260246000fd5b6020026020010151115b156119fd5786818151811061173f577f4e487b7100000000000000000000000000000000000000000000000000000000600052603260045260246000fd5b6020026020010151878681518110611780577f4e487b7100000000000000000000000000000000000000000000000000000000600052603260045260246000fd5b602002602001018181525050838760018761179b9190612be5565b815181106117d2577f4e487b7100000000000000000000000000000000000000000000000000000000600052603260045260246000fd5b602002602001018181525050888181518110611817577f4e487b7100000000000000000000000000000000000000000000000000000000600052603260045260246000fd5b6020026020010151898681518110611858577f4e487b7100000000000000000000000000000000000000000000000000000000600052603260045260246000fd5b602002602001019073ffffffffffffffffffffffffffffffffffffffff16908173ffffffffffffffffffffffffffffffffffffffff168152505082896001876118a19190612be5565b815181106118d8577f4e487b7100000000000000000000000000000000000000000000000000000000600052603260045260246000fd5b602002602001019073ffffffffffffffffffffffffffffffffffffffff16908173ffffffffffffffffffffffffffffffffffffffff168152505087818151811061194b577f4e487b7100000000000000000000000000000000000000000000000000000000600052603260045260246000fd5b602002602001015188868151811061198c577f4e487b7100000000000000000000000000000000000000000000000000000000600052603260045260246000fd5b60200260200101818152505081886001876119a79190612be5565b815181106119de577f4e487b7100000000000000000000000000000000000000000000000000000000600052603260045260246000fd5b60200260200101818152505080806119f590612d3b565b9150506116b2565b8387600183611a0c9190612b04565b81518110611a43577f4e487b7100000000000000000000000000000000000000000000000000000000600052603260045260246000fd5b6020026020010181815250508289600183611a5e9190612b04565b81518110611a95577f4e487b7100000000000000000000000000000000000000000000000000000000600052603260045260246000fd5b602002602001019073ffffffffffffffffffffffffffffffffffffffff16908173ffffffffffffffffffffffffffffffffffffffff16815250508188600183611ade9190612b04565b81518110611b15577f4e487b7100000000000000000000000000000000000000000000000000000000600052603260045260246000fd5b602002602001018181525050505050508080611b3090612d65565b9150506115c9565b50838383965096509650505050509193909250565b6000611b60611b5b846129cf565b61299e565b90508083825260208201905082856020860282011115611b7f57600080fd5b60005b85811015611baf5781611b958882611e04565b845260208401935060208301925050600181019050611b82565b5050509392505050565b6000611bcc611bc7846129cf565b61299e565b90508083825260208201905082856020860282011115611beb57600080fd5b60005b85811015611c1b5781611c018882611e19565b845260208401935060208301925050600181019050611bee565b5050509392505050565b6000611c38611c33846129fb565b61299e565b90508083825260208201905082856020860282011115611c5757600080fd5b60005b85811015611c875781611c6d8882611f54565b845260208401935060208301925050600181019050611c5a565b5050509392505050565b6000611ca4611c9f84612a27565b61299e565b9050808382526020820190508260005b85811015611ce45781518501611cca8882611f69565b845260208401935060208301925050600181019050611cb4565b5050509392505050565b6000611d01611cfc84612a53565b61299e565b90508083825260208201905082856020860282011115611d2057600080fd5b60005b85811015611d505781611d368882611f93565b845260208401935060208301925050600181019050611d23565b5050509392505050565b6000611d6d611d6884612a53565b61299e565b90508083825260208201905082856020860282011115611d8c57600080fd5b60005b85811015611dbc5781611da28882611fa8565b845260208401935060208301925050600181019050611d8f565b5050509392505050565b6000611dd9611dd484612a7f565b61299e565b905082815260208101848484011115611df157600080fd5b611dfc848285612d08565b509392505050565b600081359050611e1381612e8a565b92915050565b600081519050611e2881612e8a565b92915050565b600082601f830112611e3f57600080fd5b8135611e4f848260208601611b4d565b91505092915050565b600082601f830112611e6957600080fd5b8151611e79848260208601611bb9565b91505092915050565b600082601f830112611e9357600080fd5b8151611ea3848260208601611c25565b91505092915050565b600082601f830112611ebd57600080fd5b8151611ecd848260208601611c91565b91505092915050565b600082601f830112611ee757600080fd5b8135611ef7848260208601611cee565b91505092915050565b600082601f830112611f1157600080fd5b8151611f21848260208601611d5a565b91505092915050565b600081519050611f3981612ea1565b92915050565b600081359050611f4e81612eb8565b92915050565b600081519050611f6381612eb8565b92915050565b600082601f830112611f7a57600080fd5b8151611f8a848260208601611dc6565b91505092915050565b600081359050611fa281612ecf565b92915050565b600081519050611fb781612ecf565b92915050565b600081519050611fcc81612ee6565b92915050565b60008060408385031215611fe557600080fd5b6000611ff385828601611e04565b925050602061200485828601611e04565b9150509250929050565b60006020828403121561202057600080fd5b600082015167ffffffffffffffff81111561203a57600080fd5b61204684828501611e58565b91505092915050565b60008060008060008060c0878903121561206857600080fd5b600087015167ffffffffffffffff81111561208257600080fd5b61208e89828a01611e58565b965050602087015167ffffffffffffffff8111156120ab57600080fd5b6120b789828a01611f00565b955050604087015167ffffffffffffffff8111156120d457600080fd5b6120e089828a01611f00565b945050606087015167ffffffffffffffff8111156120fd57600080fd5b61210989828a01611f00565b935050608087015167ffffffffffffffff81111561212657600080fd5b61213289828a01611eac565b92505060a087015167ffffffffffffffff81111561214f57600080fd5b61215b89828a01611e82565b9150509295509295509295565b60006020828403121561217a57600080fd5b600082013567ffffffffffffffff81111561219457600080fd5b6121a084828501611ed6565b91505092915050565b6000602082840312156121bb57600080fd5b60006121c984828501611f2a565b91505092915050565b6000806000806000806000806000806101408b8d0312156121f257600080fd5b60006122008d828e01611f2a565b9a505060206122118d828e01611e19565b99505060406122228d828e01611fa8565b98505060606122338d828e01611fa8565b97505060808b015167ffffffffffffffff81111561225057600080fd5b61225c8d828e01611f69565b96505060a061226d8d828e01611fa8565b95505060c061227e8d828e01611fa8565b94505060e061228f8d828e01611fbd565b9350506101006122a18d828e01611f2a565b9250506101206122b38d828e01611e19565b9150509295989b9194979a5092959850565b6000602082840312156122d757600080fd5b60006122e584828501611f3f565b91505092915050565b6000806040838503121561230157600080fd5b600061230f85828601611f3f565b925050602061232085828601611e04565b9150509250929050565b6000806040838503121561233d57600080fd5b600061234b85828601611f3f565b925050602083013567ffffffffffffffff81111561236857600080fd5b61237485828601611e2e565b9150509250929050565b6000806040838503121561239157600080fd5b600061239f85828601611f3f565b92505060206123b085828601611f93565b9150509250929050565b6000602082840312156123cc57600080fd5b600082015167ffffffffffffffff8111156123e657600080fd5b6123f284828501611f69565b91505092915050565b60006020828403121561240d57600080fd5b600061241b84828501611fa8565b91505092915050565b60008060006060848603121561243957600080fd5b600061244786828701611f93565b935050602061245886828701611f3f565b925050604061246986828701611e04565b9150509250925092565b6000806040838503121561248657600080fd5b600061249485828601611fa8565b92505060206124a585828601611fa8565b9150509250929050565b60006124bb83836124c7565b60208301905092915050565b6124d081612c4d565b82525050565b6124df81612c4d565b82525050565b60006124f082612abf565b6124fa8185612ae2565b935061250583612aaf565b8060005b8381101561253657815161251d88826124af565b975061252883612ad5565b925050600181019050612509565b5085935050505092915050565b61254c81612c5f565b82525050565b61255b81612c6b565b82525050565b61257261256d82612c6b565b612dd8565b82525050565b61258181612cc0565b82525050565b61259081612ce4565b82525050565b60006125a182612aca565b6125ab8185612af3565b93506125bb818560208601612d08565b6125c481612e79565b840191505092915050565b60006125dc603183612af3565b91507f56483a7265706c61636556616c69646174696f6e2d202056616c69646174696f60008301527f6e20486173682063616e277420626520300000000000000000000000000000006020830152604082019050919050565b6000612642602a83612af3565b91507f56483a72657475726e57696e6e6572537472756374202d20616464726573732060008301527f63616e27742062652030000000000000000000000000000000000000000000006020830152604082019050919050565b60006126a8602083612af3565b91507f56483a7265706c61636556616c69646174696f6e202d206e6f7420796f7572736000830152602082019050919050565b60006126e8602783612af3565b91507f56483a72657475726e57696e6e6572537472756374202d20686173682063616e60008301527f27742062652030000000000000000000000000000000000000000000000000006020830152604082019050919050565b61274a81612c95565b82525050565b61276161275c82612c95565b612de2565b82525050565b60006127738285612561565b6020820191506127838284612750565b6020820191508190509392505050565b60006020820190506127a860008301846124d6565b92915050565b600060408201905081810360008301526127c881856124e5565b90506127d76020830184612741565b9392505050565b60006020820190506127f36000830184612543565b92915050565b600060208201905061280e6000830184612552565b92915050565b60006040820190506128296000830185612552565b61283660208301846124d6565b9392505050565b60006040820190506128526000830185612552565b61285f6020830184612741565b9392505050565b600060208201905061287b6000830184612578565b92915050565b60006020820190506128966000830184612587565b92915050565b600060608201905081810360008301526128b68186612596565b90506128c560208301856124d6565b6128d26040830184612741565b949350505050565b600060208201905081810360008301526128f3816125cf565b9050919050565b6000602082019050818103600083015261291381612635565b9050919050565b600060208201905081810360008301526129338161269b565b9050919050565b60006020820190508181036000830152612953816126db565b9050919050565b600060208201905061296f6000830184612741565b92915050565b600060408201905061298a6000830185612741565b6129976020830184612552565b9392505050565b6000604051905081810181811067ffffffffffffffff821117156129c5576129c4612e4a565b5b8060405250919050565b600067ffffffffffffffff8211156129ea576129e9612e4a565b5b602082029050602081019050919050565b600067ffffffffffffffff821115612a1657612a15612e4a565b5b602082029050602081019050919050565b600067ffffffffffffffff821115612a4257612a41612e4a565b5b602082029050602081019050919050565b600067ffffffffffffffff821115612a6e57612a6d612e4a565b5b602082029050602081019050919050565b600067ffffffffffffffff821115612a9a57612a99612e4a565b5b601f19601f8301169050602081019050919050565b6000819050602082019050919050565b600081519050919050565b600081519050919050565b6000602082019050919050565b600082825260208201905092915050565b600082825260208201905092915050565b6000612b0f82612c95565b9150612b1a83612c95565b9250827fffffffffffffffffffffffffffffffffffffffffffffffffffffffffffffffff03821115612b4f57612b4e612dec565b5b828201905092915050565b6000612b6582612c95565b9150612b7083612c95565b925082612b8057612b7f612e1b565b5b828204905092915050565b6000612b9682612c95565b9150612ba183612c95565b9250817fffffffffffffffffffffffffffffffffffffffffffffffffffffffffffffffff0483118215151615612bda57612bd9612dec565b5b828202905092915050565b6000612bf082612c95565b9150612bfb83612c95565b925082821015612c0e57612c0d612dec565b5b828203905092915050565b6000612c2482612cb3565b9150612c2f83612cb3565b925082821015612c4257612c41612dec565b5b828203905092915050565b6000612c5882612c75565b9050919050565b60008115159050919050565b6000819050919050565b600073ffffffffffffffffffffffffffffffffffffffff82169050919050565b6000819050919050565b600067ffffffffffffffff82169050919050565b600060ff82169050919050565b6000612ccb82612cd2565b9050919050565b6000612cdd82612c75565b9050919050565b6000612cef82612cf6565b9050919050565b6000612d0182612c75565b9050919050565b60005b83811015612d26578082015181840152602081019050612d0b565b83811115612d35576000848401525b50505050565b6000612d4682612c95565b91506000821415612d5a57612d59612dec565b5b600182039050919050565b6000612d7082612c95565b91507fffffffffffffffffffffffffffffffffffffffffffffffffffffffffffffffff821415612da357612da2612dec565b5b600182019050919050565b6000612db982612cb3565b915060ff821415612dcd57612dcc612dec565b5b600182019050919050565b6000819050919050565b6000819050919050565b7f4e487b7100000000000000000000000000000000000000000000000000000000600052601160045260246000fd5b7f4e487b7100000000000000000000000000000000000000000000000000000000600052601260045260246000fd5b7f4e487b7100000000000000000000000000000000000000000000000000000000600052604160045260246000fd5b6000601f19601f8301169050919050565b612e9381612c4d565b8114612e9e57600080fd5b50565b612eaa81612c5f565b8114612eb557600080fd5b50565b612ec181612c6b565b8114612ecc57600080fd5b50565b612ed881612c95565b8114612ee357600080fd5b50565b612eef81612c9f565b8114612efa57600080fd5b5056fea2646970667358221220c0a7a2c3106cf27e495ae10e2514f8589f13de86f6c521740a702a50d219906264736f6c63430008000033",
  "immutableReferences": {},
  "source": "// SPDX-License-Identifier: MIT\npragma solidity =0.8.0;\n\nimport \"./IValidations.sol\";\nimport \"@openzeppelin/contracts-upgradeable/utils/math/SafeMathUpgradeable.sol\";\nimport \"./MemberHelpers.sol\";\nimport \"./IQueue.sol\";\n\n\n\n\ncontract ValidationHelpers {\n\n    using SafeMathUpgradeable for uint256;\n\n    // Validation can be approved or disapproved. Initial status is undefined.\n    enum ValidationStatus {Undefined, Yes, No}  \n    MemberHelpers public memberHelpers;\n    IQueue public queue;\n\n\n    event ReplaceCancelValidation(address indexed user, bytes32 validationHash, uint256 price);\n\n\n    function initialize(address _memberHelpers, address _queue) external  {\n        memberHelpers = MemberHelpers(_memberHelpers);\n        queue = IQueue(_queue);\n    }\n\n\n    function isHashAndTimeCorrect( bytes32 documentHash, uint256 _validationTime) external  view returns (bool){\n\n\n        bytes32 validationHash = keccak256(abi.encodePacked(documentHash, _validationTime));\n\n        (,,uint validationTime,,,,,,,) = IValidations(msg.sender).returnValidationRecord(validationHash);\n        if (validationTime == _validationTime)\n            return true;\n        else\n            return false;\n    }\n\n\n    function returnWinnerStruct(bytes32 validationHash, address contractAddress)external view returns (string memory valUrl, address winner, uint256 validationTime){\n\n        require(validationHash != bytes32(0), \"VH:returnWinnerStruct - hash can't be 0\");\n        require(contractAddress != address(0), \"VH:returnWinnerStruct - address can't be 0\");\n\n\n        (,,validationTime,,,,,,,winner) = IValidations(contractAddress).returnValidationRecord(validationHash);\n        valUrl = IValidations(contractAddress).returnValidationUrl(validationHash, winner);\n\n        return (valUrl, winner, validationTime);\n\n    }\n\n\n    /**\n     * @dev replace or cancel existing validation waiting in the queue with different price\n     * @param price - new price, if price is 0 only remove request\n     * @param validationHash validation hash for request\n     */\n    function replaceCancelValidation(uint256 price, bytes32 validationHash, address contractAddress) external {\n        require(validationHash != bytes32(0), \"VH:replaceValidation-  Validation Hash can't be 0\");\n\n        (,address requestor,,,,,,,,) = IValidations(contractAddress).returnValidationRecord(validationHash);\n\n        // Validation storage VH = validations[validationHash];\n        require(msg.sender == requestor , \"VH:replaceValidation - not yours\");\n        if (price == 0)\n            assert(queue.removeFromQueue(validationHash));\n        else\n            queue.replaceValidation(price, validationHash);\n            \n        emit ReplaceCancelValidation(msg.sender, validationHash, price);\n    }\n\n    function selectWinner(bytes32 validationHash, address[] memory winners) external view returns (address) {\n\n        address winner = winners[0];\n\n        for (uint8 i=1; i < winners.length; i++){\n           (uint256 plus, uint256 minus) =  IValidations(msg.sender).returnWinnerPoints(validationHash, winners[i]);\n           (uint256 plusBefore, uint256 minusBefore) =  IValidations(msg.sender).returnWinnerPoints(validationHash, winners[i-1]);\n\n            if (plus > minus)\n                if (plus.sub(minus) > plusBefore.sub(minusBefore))\n                    {winner = winners[i];}\n        }\n        return winner;\n    }\n\n\n     function determineWinners(bytes32 validationHash) external  view returns (address[] memory, uint256){\n\n        (address[] memory validator, uint256[] memory status, uint256[] memory validationTimes) = insertionSort (validationHash);\n\n        uint256 consensus = determineConsensus(status);\n        bool[] memory isWinner = new bool[](validator.length);\n        bool done;\n        uint256 i=0;\n        uint256 topValidationTime = validationTimes[0];\n        uint256 numFound=0;\n        \n        while (!done) {\n            if (uint256(status[i]) == consensus && validationTimes[i] == topValidationTime){\n                isWinner[i] = true;\n                numFound ++;\n            } \n         \n            if (i + 1 == validator.length)\n                done = true;\n            else\n                i++;\n          }\n        \n        address[] memory winners = new address[](numFound);\n        uint256 j;\n\n        for (uint256 k = 0; k< validator.length; k++){\n\n            if (isWinner[k]){\n                winners[j] = validator[k];\n                j++;\n            }\n        }\n        return (winners, consensus);\n    }\n\n\n\n function insertionSort(bytes32 validationHash) internal view returns (address[] memory, uint256[] memory, uint256[] memory) {\n\n        (address[] memory validator, ,uint256[] memory status, uint256[] memory validationTimes,,) =  IValidations(msg.sender).collectValidationResults(validationHash);\n\n        uint length = validationTimes.length;\n        \n        for (uint i = 1; i < length; i++) {\n            \n            uint key = validationTimes[i];\n            address user = validator[i];\n            uint256 choice = status[i];\n            uint j = i - 1;\n            while ((int(j) > 0) && (validationTimes[j] > key)) {\n                validationTimes[i] = validationTimes[j];\n                validationTimes[i-1] = key; \n                validator[i] = validator[j];\n                validator[i-1] = user;\n                status[i] = status[j];\n                status[i-1] =  choice; \n                j--;\n            }\n            validationTimes[j + 1] = key;\n            validator[j+1] = user;\n            status[j+1] = choice;\n        }\n\n        return (validator, status, validationTimes );\n    }\n\n\n\n function determineConsensus(uint256[] memory validation) public pure returns(uint256 ) {\n\n        uint256 yes;\n        uint256 no;\n\n        for (uint256 i=0; i< validation.length; i++) {\n\n            if (validation[i] == uint256(ValidationStatus.Yes))\n                yes++;\n            else\n                no++;\n        }\n\n        if (yes > no)\n            return 1; // consensus is to approve\n        else if (no > yes)\n            return 2; // consensus is to disapprove\n        else\n            return 2; // consensus is tie - should not happen\n    }\n\n    /**\n     * @dev to calculate state of the quorum for the validation\n     * @param validationHash - consist of hash of hashed document and timestamp\n     * @return number representing current participation level in percentage\n     */\n    function calculateVoteQuorum(bytes32 validationHash, address validationContract)external view returns (uint256)\n    {\n\n\n        uint256 totalStaked;\n        uint256 currentlyVoted;\n\n        address[] memory validatorsList = IValidations(validationContract).returnValidatorList(validationHash);\n        // require(validatorsList.length > 0, \"ValidationHelpers:calculateVoteQuorum - There is no validators or hash was incorrect\");\n        (address[] memory validatorListActive, ,uint256[] memory choice,,,) =  IValidations(validationContract).collectValidationResults(validationHash);\n\n        for (uint256 i = 0; i < validatorsList.length; i++) {\n            totalStaked += memberHelpers.returnDepositAmount(validatorsList[i]);\n             for (uint256 j=0; j< choice.length; j++){\n                 if (validatorsList[i] == validatorListActive[j])\n                    currentlyVoted += memberHelpers.returnDepositAmount(validatorsList[i]);\n             }\n        }\n        if (currentlyVoted == 0)\n            return 0;\n        else\n           return (currentlyVoted * 100).div(totalStaked);\n\n    }\n\n}",
  "sourcePath": "/home/win2win/eth/projects/AuditChain/Core-Smart-Contracts-v1-upgradable/contracts/Auditchain/ValidationHelpers.sol",
  "compiler": {
    "name": "solc",
    "version": "0.8.0+commit.c7dfd78e.Emscripten.clang"
  },
  "schemaVersion": "3.4.1",
  "updatedAt": "2022-05-18T17:13:45.607Z",
  "devdoc": {
    "kind": "dev",
    "methods": {
      "calculateVoteQuorum(bytes32,address)": {
        "details": "to calculate state of the quorum for the validation",
        "params": {
          "validationHash": "- consist of hash of hashed document and timestamp"
        },
        "returns": {
          "_0": "number representing current participation level in percentage"
        }
      },
      "replaceCancelValidation(uint256,bytes32,address)": {
        "details": "replace or cancel existing validation waiting in the queue with different price",
        "params": {
          "price": "- new price, if price is 0 only remove request",
          "validationHash": "validation hash for request"
        }
      }
    },
    "version": 1
  },
  "userdoc": {
    "kind": "user",
    "methods": {},
    "version": 1
  }
}